:1000000000400120FDCF010039FB021039FB021036
:1000100039FB021039FB021039FB021039FB0210C8
:1000200039FB021039FB021039FB021039FB0210B8
:1000300039FB021039FB021011FB0210808A704755
:100040000A18232A242A1200018301000143C5A7AC
:100050000D634BD715B007010030180020C5A7006D
:100060000161106108214410036CCC01008C041262
:10007000AC04A3CCCC564120122004E006B4BF014E
:1000800000D4BF010001F001201DB2000110030DDA
:100090002000800E04D2FE3B120E103304136F3189
:1000A00001A00A4D6F64656C204E756D6265722B00
:1000B000F00302536572696119500F4669726D77DA
:1000C000617265205265766973696F6E1CF0020378
:1000D0004861726418F00203536F667418500F4D34
:1000E000616E756661637475726572204E616D65CF
:1000F000181003FE006578707C14046D656E7461E1
:100100006C1C120D1910021001000207340128C6E0
:10011000012C43D8D01052341020020A1E002010A7
:100120005742006C4212106120520B20524420D2E0
:100130007420520C2043B81320D28C20520D205230
:10014000BA20D2A420520E20434C6F20D2BC2052A1
:100150000F2043DA9D20D2D42052102043669E20E7
:10016000D2EC205211204332AB20C3041320521290
:100170002043FAB1201214201003B9890000CF04E3
:100180002004438D0000A5D1168002000006000166
:10019000121864881084BD0100F0C50100B8CD01BB
:1001A00000E4C80100641418A1018702007CD6E0B5
:1001B0007C52177C10034AC20000030843841410C9
:1001C000523820C3A815AC52183043AEC3ACD28508
:1001D00030D2BC305219304358DB88D28630D2D06E
:1001E00030521A303001D2F70001528730123C20D1
:1001F00021A0D28C40D2E440521B401003B6020131
:10020000000408D2903012F830180243686172BBC3
:1002100019A620047374696320316AD114F2023282
:1002200014F2023314F202341453350001F00908B9
:100230000102030407FF0000FFFF0001F001540664
:1002400007000110039D8100006F041FB17F680348
:100250001007415753696D706C6550B3917F1D1F36
:10026000035300A00430010700AA013801007F01F8
:100270007DB00C030853500201060302F0FF000E8C
:100280000942F00804020A0005125000680001400B
:10029000E383834017ECC69A1BEEC8CF13F1CA055F
:1002A0001005F4CC0A0000F6CF0513F7D005100BAB
:1002B000FAD4100000FBD6120000FD93183B175330
:1002C000284A125605170259961C01035D3841034E
:1002D0001C04634E00000517D80410047FFFFF3F85
:1002E000000B261029D388F3002460202E630228F7
:1002F0000128530000A38408005B00A31E83860529
:100300000005400140303C183864403C00E387E77A
:100310008C10099500F387F40023082A01211C2082
:1003200016005F0041410104C044DD0700738C0DDD
:1003300000738B1F00610304C0B812FF0180062008
:1003400053C003A30253010C2004F100A460007DFC
:1003500010400287340101143003E6069C601B3014
:10036000F50BF021011E287406210461264BF1CD06
:10037000DC3001FF00141312481C21045250048386
:10038000C010504D0A04100101006C18F2066C1CDC
:10039000128818210452900452980452A004636CED
:1003A000C82A1DB4061110210452BC0443A4100431
:1003B0006301005041013001A3DF026A12E42421ED
:1003C0000452EC0452F40452FC0443041904520C89
:1003D0000470013DC502A24F05002807A101436436
:1003E0001913123C082104524404524C0452540480
:1003F000525C04526404526C04527404830000B0D2
:10040000620464155543F0271C8339EC886101D2DE
:10041000011112C048210452C80452D00452D80419
:1004200052E00452E8042178178769BCF300080001
:1004300001E330D15E4101D2342CF00110100A00EA
:1004400001E94F8F0200D005CF38D1D0056E2ACCFC
:100450000682C680AD400543A03320A140F1FF01D4
:10046000F11301A536F50F421C04B55400001555D3
:10047000AD045254293131330A04085E771D09F165
:100480000201F45E4FBD1A3CCDA6B8995899B74009
:10049000EB7B60FF4A503F10D2E3B3C974385FC5AD
:1004A000A3D4F6493FE69D350E480103CCDBFDF4AD
:1004B000AC1191F4EFB9A5F9E9A7832C5E2CBE9796
:1004C000F2D203B0208BD28915D08E1C742430ED6B
:1004D0008FC24563765C15525ABF9A32636DEB2A20
:1004E00065499C80DCF91C04FBB400002BB7000BB1
:1004F00042BCF347610C2A1265082C0A1C00A001BB
:1005000064241844BC06200CF6043C031A11FBFFBB
:10051000503A06ABE803A0DA40E05A30E05240100F
:10052000CF3C3500086E312C0A5110C3523720528F
:100530003220624860C21D20523320431EB2B4C331
:10054000341E20523510435EB420126E607C01FAD6
:100550000006A3031F45000406630002012D730378
:100560001C030A0208100246072D4907100110005B
:100570007738000B0120FFFF07FE100A0A02020174
:10058000025200011007901100200C1900200111E7
:10059000C30100012002C418002004D2000153FF4F
:1005A0007F1260016CDC021C12742852030DF004EF
:1005B00001EFD6000035D7502101433C1950A11C52
:1005C000A10CF301C0197052F0141234AC21045282
:1005D0003C04D20829F008004C37002018320020D3
:1005E0001C324413200165F30140315C25000002F8
:1005F000001000000002C013000000028010002064
:1010000001000000000000000000000000000000DF
:10101000FFFFFFFFE41800200400000000000000B4
:10102000000000001400000054CE01001800000071
:10103000C0D00100C01000005018002004000000C3
:101040000000000000000000240000003CCE010071
:1010500018000000F1D5000008000000B0110000E9
:1010600074100000C1C8021001BB021091EB021005
:10107000DDE5021081E00210B9E5021071E5021011
:101080002E000000010000000100000070D10100EE
:1010900000000000FFFFFFFFBC180020040000005C
:1010A000000000000000000028000000F4C901005A
:1010B00024000000210000001800000000000000D3
:1010C00028130000D41000009BEC021025E202104F
:1010D00005EB021025DE0210FDE10210E1E4021032
:1010E000330000003400000025002900000000004B
:1010F00030180020FFFFFFFF04190020040000004B
:1011000000000000000000003800000094C801004A
:101110002800000001000000100000000000000096
:1011200000000000F7F1021000001A00100000009B
:10113000040000005CCF01000EBA010008000000AE
:1011400036000000C41800200C19002009002000FF
:10115000AB9B0100581800200100000000001200A5
:10116000FFFFFFFFF4180020040000000000000053
:1011700000000000100000006CCE0100180000000C
:101180000000000000001300FFFFFFFF6C190020AB
:1011900004000000000000000000000054000000F7
:1011A00038C201003C0000000000010031000000D6
:1011B000041000001FB601002D0000000000000018
:1011C000B0110000D811000059D20210D9DB021072
:1011D00059EC0210CDD6021085DE02104DE502104A
:1011E00029E502102D00000000001600000000009C
:1011F00000000000FF7F000074190020FFFFFFFFC8
:10120000EC180020040000000000000000000000B6
:10121000580000004CC401003400000039FB0210EB
:101220000100330006000000000000002000000064
:10123000010000001BF80210280000002813000025
:101240005012000093EC02106DEB02104DEC0210F6
:1012500029E00210BDE4021099E402103100000000
:1012600000000000981800200400000000000000AA
:101270000000000010000000B0C601002C000000BB
:10128000000000000000030000000F003C00000010
:1012900000000000000000002FF902101000000004
:1012A00008000000E4CE0100FFFFFFFFFC18002053
:1012B0000400000000000000000000001C0000000E
:1012C00018CA0100240000003C1200004818002049
:1012D0000400000000000000000000000C000000FE
:1012E0000CCE0100180000007FB7010000000000D4
:1012F00000000000080000000100000004000000E1
:1013000000000000000014000000000084CE010076
:1013100000001900000018002400000099D101000D
:101320000040000000020000041000000000100057
:1013300055F002100C00000027D60000000000004D
:101340002818002004000000000000000000000039
:1013500020000000C0C50100300000009CCE01004C
:1013600001000000E7D60000B7B201000000000055
:1013700000001700000200002E0000000000230003
:101380000000150001000000C0110000B41800208A
:101390000400000000000000000000002000000029
:1013A000D0C9010024000000CCD80000A8180020FB
:0E13B00020000000BCC80100252A262A704734
:1013C00069D500007BD700007FD7000083D70000DD
:1013D00087D700008BD700008FD7000069B40100C9
:1013E000B5C401005DBE01008DC501007DCD0100C9
:1013F000C9C70100F1CD01009DC70100CDCE01009C
:1014000035CF010039BD0100DFF82C1791F833000A
:101410000022030604D4582010FB02F288187047FB
:1014200091F88B0001220306F5D591F8E300022222
:101430000306F0D591F83B0103220306EBD591F8A2
:10144000930104220306E6D591F8EB010522030679
:10145000E1D591F8430206220306DCD591F89B0200
:1014600007220306D7D5002070472DE970430646B2
:1014700014461D4603F08BFA6EB1D6E90A232243C7
:101480002B43C6E90A23D6E9088948EA040449EA55
:101490000505C6E90845BDE8704303F0A4BA30B5B8
:1014A00081B004460D4602F087FDA04231BF241AE8
:1014B000641E241A641CA40805F57A70A04238BF83
:1014C000B4F1405F06D2641B012C98BF0124204672
:1014D00001B030BD002001B030BDF0B5DFF85836A6
:1014E00004460025D3F85003012981B022D100E041
:1014F0000068002844D0C668377B07F00F07022F2A
:1015000018D0006800283BD0C668377B07F00F076B
:10151000022F0FD0006898B3C668377B07F00F071B
:10152000022F07D0006858B3C668377B07F00F0753
:10153000022FDDD120B3012502B11060C268167BF5
:1015400006F00F06022E1BD10269012903D1D168D2
:10155000128D891807E01169D68A8E1993F8221323
:10156000192212FB0161406BFFF799FF206003F025
:101570009CFA2168B1FBF0F0206001B02846F0BD74
:101580000020206001B02846F0BDF0B581B00446CF
:1015900003F0FDF90546002C1CBFA07A002833D0CB
:1015A000DFF8983594F909001E680122F70702FA5E
:1015B00000F10ED5DFF888351B681E0609D5DFF867
:1015C00084355E68113002FA00F0C04306405E6068
:1015D00018600020A072207220606060C4E90400DE
:1015E000DFF85435A06194F9090093F82063824034
:1015F000324393F8220383F8202310B1401E83F86E
:101600002203C8B200F063F9284601B0BDE8F040FB
:1016100003F0E9B9000000002DE9F047002611248D
:10162000DFF82055DFF810954FF00108F0B20328DD
:1016300048DA09EB401000F53077B97A012941D139
:1016400097F90900113008FA00F0C14329606A686F
:101650001043686097F9090008FA00FA03F097F957
:1016600099F894134AEA010189F8941303F0BBF93D
:1016700099F88403022817D107F1100003F038FA13
:1016800000F0FF0001280FD1B86948B199F8841320
:10169000022909D103F02CFA00F0FF00012803D140
:1016A0000220B8720EE000BF99F8210397F90910E3
:1016B00004FA01F1084389F82103002109F57F703C
:1016C00003F0F9FA761C032EB0D3BDE8F08730B5ED
:1016D000042881B020D1DFF8604404F24C4003F0CC
:1016E000E9F9C8B103F0E1F9054604F24C4003F012
:1016F000DFF94543B5F5967F0ED204F24C4003F076
:10170000ECF9052003F042FC012084F89103042148
:1017100004F56B7003F0CFFA002001B030BD70B556
:10172000044603F034F9DFF81064054696F84C03DC
:1017300020EA040486F84C430024D6F8280320B19C
:10174000B03003F0B7F900B10124D6F82C0320B172
:10175000B03003F0AFF9044319D196F84C030028D8
:1017600008BF002C13D1D6F8480380B190F824109C
:101770008A070CD5046A284603F035F9D6F84803E1
:1017800000220221A0470020C6F8480370BD284669
:10179000BDE8704003F027B9F0B400290CBF012365
:1017A0000023002A0CBF01250025002839D02C0079
:1017B00004BF90F84440002C33D000291CBF91F89E
:1017C0004440002C12D0446B0E6C07690969A408D0
:1017D000A4EB96040026B94218BFFE68A41B04F1CE
:1017E0008054B4F1805F88BF012301D8190018D05C
:1017F000BAB1D1680C7B04F00F04022C11D1516BEB
:10180000046C126900698908A1EB940100249042DC
:1018100018BFD468091B01F18051B1F1805F88BF06
:10182000012503EA0500F0BC7047F0B581B01E4603
:101830006FF002078DF80070054634682246FFF706
:10184000ABFF10B101208DF800009DF90000B842F7
:1018500001BFE968087B00F00F0002280CD100E00E
:1018600024684CB1226821462846FFF795FF0028DE
:10187000F6D002208DF800009DF90010B94204D185
:10188000E86B10B104218DF800109DF90070012F54
:1018900006D12946304603F048FF384601B0F0BD76
:1018A000022F09D12268002A2946304608D003F0C9
:1018B00014FF384601B0F0BD042F03D1294630464D
:1018C00003F01EFF384601B0F0BD0020704730B570
:1018D00081B0044603F05BF80546974890F89413EE
:1018E00021EA040480F8944390F89423110704D467
:1018F000082100F56B7003F0DEF9284601B0BDE861
:10190000304003F070B82DE9F04FDFF83CAC81B007
:101910009AF88413022905D101B0BDE8F04F1920CF
:1019200003F042B89AF8840301281CBF9AF8840394
:1019300004287BD003F02BF800900026DAF850033F
:101940000024C0B1C1680A7B012402F00F02022A00
:1019500011D101690A69C98A9AF82233406B51187A
:10196000192212FB0311FFF79AFD054603F09DF8BB
:10197000B5FBF0F800E0B04600254FF0FF39002736
:10198000F8B203281EDA0AEB401101F53072907AA2
:10199000C0B1107A012502281DD0DAF89803016938
:1019A000C08A9AF822330918192010FB03115069D4
:1019B000FFF775FD834603F078F8BBFBF0F0484570
:1019C00098BF81467F1C022FDAD92C4205D04646AB
:1019D0004E4507D905E0B146F7E70CB1464601E0B0
:1019E00005B14E462C4317D066B1012E98BF012693
:1019F00031460AF24C4003F06CF80AF24C4003F016
:101A00006AF80DE00AF24C4003F067F804210AF589
:101A10006B7003F050F903E00AF24C4003F05DF8FC
:101A2000009801B0BDE8F04F02F0DDBF01B0BDE8A5
:101A3000F08F70B586B001460022039201920492A5
:101A400002920025487DDFF8042B136803F440233D
:101A5000B3F5802F05D1DFF8F82A13689C0358BF2F
:101A600001258C680022628040F6020623889B1BB9
:101A700009D041F21E069B1B05D041F6E6769B1B62
:101A8000012B0FD91CE0238A4FF6FF32134023822B
:101A9000002819BF4FF60F4003402D2060F30913B3
:101AA00023820DE0238B4FF6FF321340238300285F
:101AB00019BF4FF60F4003402D2060F30913238315
:101AC0000020487502AE009604AB01AA03A9204687
:101AD00002F03BF850B1039801884FF6FF72914233
:101AE00004D10299019801F0A2FF03E00299019844
:101AF00001F0E3FFEDB1019C04B9FEE750234FF67E
:101B0000FF720B21204603F01DF80546502D10DA18
:101B100003F04AFF04F00FFA0749DFF8382AC1F84A
:101B2000A8031368D9688847000440F00B0044F804
:101B3000250006B070BD000088220020402108402A
:101B400000000440081004402DE9F04784B000254F
:101B5000DFF8F4890395D8F850630295002E64D01D
:101B6000D8F86403002804BFD8F86003002840D1E7
:101B7000012585F0010903AA494602A8FFF7ADFC3B
:101B8000040054D1DFF8D0094768002F18BF002C9B
:101B900000F005830298002840F00183D8F8641310
:101BA00003980190CDF8009008F55673D8F86003BB
:101BB00008F55472B847012800F0C481022840F0AB
:101BC000EE82D8F86003D8F86013B0F930400D69A0
:101BD00002F0DDFE4FF0FF318C42019047D1D8F882
:101BE0006003002837D00069A84234D1D8F8606378
:101BF00093E0D8F860030028BBD0D8F860030169EF
:101C000030698142B5D196F83310C806B1D50125A7
:101C1000D8F86003C16848880028F9D0D8F8600374
:101C2000C16848880128F3D0A3E702213FE3002DD3
:101C3000A8D102980028A5D00146022938BF012169
:101C400008F24C4002F045FF08F24C4002F043FF1E
:101C500004B0BDE8F087D8F8640328B10069A84251
:101C600008BFD8F8646358D0D8F8506355E0B8F985
:101C700030000021A04202BFD8F810300093AB42E0
:101C800046D0B8F988000121A04202BFD8F86830D8
:101C90000093AB423CD0B8F9E0000221A04202BF61
:101CA000D8F8C0300093AB4232D0B8F938010321E4
:101CB000A04202BFD8F818310093AB4228D0B8F93F
:101CC00090010421A04202BFD8F870310093AB42CA
:101CD0001ED0B8F9E8010521A04202BFD8F8C831EA
:101CE0000093AB4214D0B8F940020621A04202BFD3
:101CF000D8F820320093AB420AD0B8F998020721F5
:101D0000A04202BFD8F878220092AA4240F018817F
:101D1000582010FB01F108EB0106002E00F01081A5
:101D200096F83300010640F10B81D8F86003864233
:101D30001CBFD8F864138E426AD0D8F850434FF0D5
:101D4000000A00E02468002C00F0FA80B44211D0B0
:101D50002468002C00F0F480B4420BD02468002CDE
:101D600000F0EE80B44205D02468002C00F0E8803A
:101D7000B442E7D120692768A84234D102F007FEB7
:101D8000D4E90A2343F08051C4E90A210AF1010A87
:101D9000D4E9082343F08051C4E9082102F023FE6E
:101DA00002F0F5FDD4E90A2343F08071C4E90A2169
:101DB000D4E9082343F08071C4E9082102F013FE3E
:101DC00098F84C133069C8F8480341F0010188F8CD
:101DD0004C1308F55470214603F0BCFC214608F56D
:101DE000567003F08DFC3C00C4D1BAF1000F1FBF48
:101DF00098F88403012898F88403042800F0A08050
:101E0000DFF8241C08F56B7002F055FF0198F1E132
:101E1000D8F8600300224FF00053FFF726FBD8F8F4
:101E2000640300224FF00053FFF71FFBDFF8FC0BA9
:101E300002F05EFED8F8604302F0A9FD5CB1D4E97F
:101E40000A2343F08071C4E90A21D4E9082343F04E
:101E50008071C4E9082102F0C6FDD8F8644302F09D
:101E600096FD5CB1D4E90A2343F08071C4E90A21EC
:101E7000D4E9082343F08071C4E9082102F0B3FDDE
:101E800098F84C133069D8F85063C8F8480341F00B
:101E9000010188F84C13344600E02468002C4FD030
:101EA000B4420ED02468002C4AD0B44209D0246831
:101EB000002C45D0B44204D02468002C40D0B44259
:101EC000EBD1002C3CD020692768A84236D102F023
:101ED0005EFD0246D4E90A0141F08053C4E90A03D9
:101EE000D4E9080141F08053C4E90803104602F028
:101EF0007AFD02F04CFD0246D4E90A0141F08073FC
:101F0000C4E90A03D4E9080141F08073C4E9080375
:101F1000104602F068FD98F84C133069C8F8480381
:101F200041F0010188F84C1308F55470214603F084
:101F300011FC214608F5567003F0E2FB3C00C2D1CB
:101F4000019857E1039800B10646B6F9304035696B
:101F500002F01DFD4FF0FF318C42074614D1D8F836
:101F6000600328B10069A84208BFD8F8606361D057
:101F7000D8F8640328B10069A84208BFD8F86463A0
:101F800058D0D8F8506355E0B8F930000021A0428D
:101F900002BFD8F810300093AB4246D0B8F98800A1
:101FA0000121A04202BFD8F868300093AB423CD078
:101FB000B8F9E0000221A04202BFD8F8C030009377
:101FC000AB4232D0B8F938010321A04202BFD8F8A1
:101FD00018310093AB4228D0B8F990010421A042F7
:101FE00002BFD8F870310093AB421ED0B8F9E801B7
:101FF0000521A04202BFD8F8C8310093AB4214D0EB
:10200000B8F940020621A04202BFD8F8203200935E
:10201000AB420AD0B8F998020721A04202BFD8F813
:1020200078220092AA4240F0B880582010FB01F1BB
:1020300008EB0106002E00F0B08096F83300010690
:1020400040F1AB80D8F8600386421CBFD8F8641317
:102050008E4261D0D8F8504300E02468002C00F094
:102060009C80B44211D02468002C00F09680B442C9
:102070000BD02468002C00F09080B44205D0246876
:10208000002C00F08A80B442E7D12069A84240F0D9
:10209000848002F07CFCD4E90A2343F08051C4E937
:1020A0000A21D4E9082343F08051C4E9082102F051
:1020B0009AFC02F06CFCD4E90A2343F08071C4E975
:1020C0000A21D4E9082343F08071C4E9082102F011
:1020D0008AFC98F84C133069C8F8480341F00101B4
:1020E00088F84C1308F55470214603F033FB214661
:1020F00008F5567003F004FB98F8840301281CBF10
:1021000098F88403042848D0DFF81C1908F56B7090
:1021100002F0D1FD38466DE0D8F8600300224FF0A0
:102120000053FFF7A2F9D8F8640300224FF00053E0
:10213000FFF79BF9DFF8F40802F0DAFCD8F8604307
:1021400002F025FC5CB1D4E90A2343F08071C4E9B4
:102150000A21D4E9082343F08071C4E9082102F080
:1021600042FCD8F8644302F012FC5CB1D4E90A23C3
:1021700043F08071C4E90A21D4E9082343F0807157
:10218000C4E9082102F02FFC98F84C133069C8F814
:10219000480341F0010188F84C1338462AE0002D2D
:1021A00000F089803069D8F89813884218BF4FF43E
:1021B00080617CD1002C1CBF029800281FD0D8F869
:1021C0006003002804BFD8F86403002817D102F088
:1021D000DEFB044698F8940300F0F70088F89403B7
:1021E00098F89403010704D4082108F56B7002F0F5
:1021F00062FD204602F0F7FB04B0BDE8F08702F074
:10220000C6FB98F8941341F0080188F8941302F083
:10221000EAFB96F83300C10608F5547004D503F0C4
:1022200048FAC8F8640303E003F043FAC8F860030F
:10223000D6E90601DFF8544BC043A060E268D6E956
:1022400006010243E260D6E90623DB4323606768A8
:10225000D6E906010F436760DFF8B87C7D68F46853
:102260002B46180007D0387A010704D5D8F8980310
:10227000324608219847204602F03AFC208840F672
:102280000201401A08D041F21E01401A04D041F662
:10229000E671401A012808D83DB1387AC10704D543
:1022A000D8F8980322460121A8474FF0804108F54D
:1022B0006B7002F000FD04B0BDE8F0872DE9F04F2F
:1022C000DFF88492DFF8500C81B0D9F8608302F017
:1022D0008EFC0646DFF8A40C0468076804F02004AE
:1022E000344018BFB8F1000F07F4602716D0C9F8C2
:1022F000688302F04CFBD8E90A232343C8E90A2388
:10230000D8E908AB4BEA0405C8E908A502F06BFB65
:102310004FF4804109F56B7002F0CDFC3E400DD0CA
:1023200099F8211341EA564089F8210301B009F5D3
:102330007F70BDE8F04F002102F0BDBC01B0BDE8E8
:10234000F08F2DE9F043DFF8009281B099F8210376
:10235000002400284CD099F821030026C1073DD560
:1023600099F821031021B140084218BF012402F05E
:102370000EFB99F821131122B240914389F82113E1
:1023800002F031FB032E33DA09EB461101F530720E
:10239000907A68B392F90980DFF8E41B01EB8801B9
:1023A000002C0D681668576804BF107A022803D104
:1023B000D2E90401C30009D41046FFF7E6F82CB1B6
:1023C0000020009000224FF0007303E000950022EF
:1023D0004FF0006341463046B84709E099F82103C1
:1023E00001268107BCD499F8210302264107B7D4FE
:1023F00099F8210338B109F57F7001B0BDE8F043C9
:10240000002102F058BC01B0BDE8F0832DE9F04393
:102410000FF2481285B0D2E90034CDE900344FF410
:10242000804002F05FFB4FF00008F0B1DFF8540B82
:10243000D0F813100078C1F31501800841EAC0718B
:102440004148D0F89833986802AA01F021FC3E4830
:10245000DFF8C01AD0F898034B6882681C0004D0DB
:102460000C7AE10744BF012198476E464FF00209FC
:1024700037683868002855D03868D0E9060102F07E
:1024800031FB3D680021CDE90201044602F07FFAEC
:1024900084467DB1D5E90A23DDE9020110431943E1
:1024A000C5E90A01D5E90823DDE902011043194312
:1024B000C5E90801604602F096FA14F00A0F2AD026
:1024C0003868DFF8B81ADFF8C03A8A68DFF8AC4A33
:1024D000D0E9060118408243A26038682368D0E939
:1024E00006018B4323603A68DFF8280A4368190025
:1024F00007D0017AC80604D5134CD4F898031021EC
:1025000098473968DFF8840A03F0FAF80020386049
:1025100048F0020806E02CB138680B49C1F868039E
:1025200048F48048361DB9F10109A1D15FEA0801DC
:102530001CBFDFF85C0A02F0BEFBFFF76DF8FFF787
:1025400003FB05B0BDE8F08388220020B44F0050A3
:102550008C130050E001001028D10100E825002074
:10256000EC2500202DE9F04F81B00646994603F096
:10257000E2FCDFF8207AD7F8A813884200F05981EE
:10258000DFF8142AC7F8A8031168CB68984780467B
:1025900097F8840302281CBF97F88403042840F0AE
:1025A0004881D7F86003002804BFD7F864030028E7
:1025B00000F03281D7F86003D7F86013B0F93040EB
:1025C000D1F810A002F0E3F94FF0FF318C428346BE
:1025D00014D1D7F8600328B10069504508BFD7F877
:1025E00060535ED0D7F8640328B10069504508BF36
:1025F000D7F8645355D0D7F8505352E0B7F930109C
:102600000020A14202BF3B690093534545D0B7F972
:1026100088100120A14202BFBB6E009353453CD0FD
:10262000B7F9E0100220A14202BFD7F8C0300093F2
:10263000534532D0B7F938110320A14202BFD7F871
:1026400018310093534528D0B7F990110420A142C6
:1026500002BFD7F87031009353451ED0B7F9E81187
:102660000520A14202BFD7F8C8310093534514D0CA
:10267000B7F940120620A14202BFD7F820320093DA
:1026800053450AD0B7F998120720A14202BFD7F8E4
:1026900078220092524540F0BC80582111FB00F096
:1026A0003D18002D00F0B58095F83300010640F18B
:1026B000B080D7F8600385421CBFD7F864138D4201
:1026C00063D0D7F8504300E02468002C00F0A180CC
:1026D000AC4211D02468002C00F09B80AC420BD09F
:1026E0002468002C00F09580AC4205D02468002CB2
:1026F00000F08F80AC42E7D12069504540F08980DE
:1027000002F045F90246D4E90A0141F08053C4E9D8
:102710000A03D4E9080141F08053C4E908031046D4
:1027200002F061F902F033F90246D4E90A0141F0FE
:102730008073C4E90A03D4E9080141F08073C4E955
:102740000803104602F04FF997F84C132869C7F8B0
:10275000480341F0010187F84C1307F554702146F6
:1027600002F0F8FF214607F5567002F0C9FF97F80E
:10277000840301281CBF97F88403042849D0AA4980
:1027800007F56B7002F097FA43E0D7F86003002278
:102790004FF00053FEF769FED7F8640300224FF0B4
:1027A0000053FEF762FEA14802F0A2F9D7F8604399
:1027B00002F0EDF802465CB1D4E90A0141F0807301
:1027C000C4E90A03D4E9080141F08073C4E90803AD
:1027D000104602F008F9D7F8644302F0D8F8024630
:1027E0005CB1D4E90A0141F08073C4E90A03D4E979
:1027F000080141F08073C4E90803104602F0F3F8C1
:1028000097F84C132869C7F8480341F0010187F88D
:102810004C13584602F0E7F84FF6FC7000EA080047
:1028200040F0C16040F00101D7F89803002201F0A8
:10283000C3F800210091F21EF61C4846DFF85C3711
:1028400012B231B203F0B9F800B1FEE701B0BDE851
:10285000F08F30B5DFF83C4781B0B4F96C03B4F9C0
:102860006E13884217D102F092F8054694F894034B
:1028700000F0F70084F8940394F89403010704D45B
:10288000082104F56B7002F016FA284601B0BDE885
:10289000304002F0A8B801B030BD0720FEF73FBFBE
:1028A0002DE9F041074682B0D7F8A060884614466B
:1028B0001D4606B1B047D7E926012040294008BF90
:1028C000002800F08E80DFF8CC56B5F93060002487
:1028D000464502BF2A690092BA4203D195F83320D7
:1028E000160663D4B5F988600124464502BFAA6E76
:1028F0000092BA4203D195F88B20160656D4B5F94A
:10290000E0600224464502BFD5F8C0200092BA42DA
:1029100003D195F8E320160648D4B5F938610324AD
:10292000464502BFD5F818210092BA4203D195F866
:102930003B2116063AD4B5F990610424464502BFFE
:10294000D5F870210092BA4203D195F8932116066A
:102950002CD4B5F9E8610524464502BFD5F8C82155
:102960000092BA4203D195F8EB2116061ED4B5F9B0
:1029700040620624464502BFD5F820220092BA42A2
:1029800003D195F84322160610D4B5F998620724AE
:10299000464502BFD5F878220092BA4203D195F895
:1029A0009B22160602D4C7E92A0110E0582616FB1E
:1029B00004F4C7E92A012C44D4E9082322EA0000E0
:1029C00023EA0101C4E90801D7F8A050A56000205E
:1029D000C7F8A00002B007F14800BDE8F04103F0DD
:1029E00042BB02B0BDE8F081704700B581B002F093
:1029F00057F9DFF8A0250146D2F89803D2F88823CA
:102A000001B05DF804EB1047DFF888050FF2915232
:102A1000D0F88813914208BFFEF775BF042100F576
:102A20006B7002F048B90000020000400100010490
:102A300030B581B04FF0FF3002F054F8DFF8545554
:102A40000FF25D510446D5F88803884232D1002246
:102A5000DFF8F81B05F5787001F0A8FF022085F873
:102A60008403D5F898138A6801F1300300E0024628
:102A7000506890B198421EBF0246506800280CD0A2
:102A800098421EBF02465068002806D098421FBFD9
:102A90000246506800289842E9D1507B10F00F0F91
:102AA00002BF488E40F60901884203D0FEF7B4FD0C
:102AB000FFF74AF8DFF8680C044208D005F56B70A0
:102AC00001B0BDE830404FF0005102F0F4B801B061
:102AD00030BD00B581B04FF0FF3002F003F8800741
:102AE00008D501B05DF804EB4FF40061DFF8A004F5
:102AF00002F0E1B801B000BD2DE9F041DFF89474B7
:102B0000D7F85863002E00F0AB80F068082140F63B
:102B1000040240F6030301E04068491E68B1CCB2EC
:102B20005CB104889C4218BF9442F5D1316901F12F
:102B300030021AC81AC21AC81AC2D6E90A450022B7
:102B4000C6E90A22B068D0B115F0E24310D024F0F3
:102B50000F0235F0E24308BF002A05D0B6F9301065
:102B60003069D6F808C0E04704F0000405F0E245FB
:102B7000B6F9301030692246B4682B46A04701F000
:102B800006FF0446B7F86E03401CC0F30B00A7F81D
:102B90006E036FF00201002086F83300318607F5DE
:102BA000567002F086FD204601F01DFFB7F96E0356
:102BB000B7F96C13884253D1D7F89823D7F8286314
:102BC000D7F82C5392F8F4100024A046052001B148
:102BD0000720FEF7A4FD2EB196F8F40000B9346882
:102BE00086F8F4803DB195F8F40008B9D5F8008076
:102BF000002085F8F400444538BF4446E4B9B7F9ED
:102C00006C03B7F96E1388422AD101F0C0FE044666
:102C100097F8940300F0F70087F8940397F894036B
:102C2000010704D4082107F56B7002F044F8204630
:102C3000BDE8F04101F0D7BE14F1010F10D001F052
:102C400034FFB4FBF0F1012998BF012107F5926030
:102C500001F03FFF07F59260BDE8F04101F03BBF96
:102C6000BDE8F081CB4A92F884130020022904BF0A
:102C7000D2F86013002903D1D2F8641301B90120FE
:102C8000704730B50D46A80781B0C24C12D5FFF78A
:102C900033FFD4F8580340B145F0020104F56B70DE
:102CA00001B0BDE8304002F006B801B0BDE83040E8
:102CB000FEF729BE680767D5012184F89613042022
:102CC00002F064F9DFF85C0A01680A6B9047C4F807
:102CD0009C03D4F8500398B10569D4F898030028F0
:102CE00018BFA8420AD095F82400410704D52B6AE2
:102CF000002204212846984701206875C4F898539B
:102D0000D4F898034168DFF8200A0A7802600220AC
:102D100002F03CF9112002F04EF9012084F88403FE
:102D20007C49887810B90E2002F045F9D4F8980350
:102D300041688868002804BFC868002806D0DFF80A
:102D4000AC0CDFF8402C0021C16102600720DFF8E5
:102D5000641C08600021DFF8940C426941618269BB
:102D60008161426942F0402242F0020242610FF268
:102D70002100C4F888031A2001F00BFE01B0BDE861
:102D80003040192001F005BE01B030BD08100440EC
:102D90002DE9F0430446880081B040F1B780DFF8A8
:102DA000F481D8F89803416848688E68CF680100BC
:102DB00018BF80473000DFF8345C01D138000ED0F6
:102DC000E8690028FCD00021E961300018BFB04755
:102DD000380018BFB847DFF8180C01F089FE002052
:102DE000E86140F60A09DFF80C1C2960A8F8709326
:102DF000A8F8720398F87C1301F0F00188F87C13AE
:102E0000C8F87403204698F87D1301F0F00141F0F2
:102E1000010188F87D13FEF70CFEA668374640F6E0
:102E2000040140F6030200E00746786828B10388F1
:102E30004B451CBF93428B42F6D17B7B08F55C70FF
:102E4000786003F0F0037B73D8F85003D8B1C06802
:102E50000088904218BF884215D10021C8F89C1301
:102E6000E8690028FCD00021E9610FF2351298F8DA
:102E70009103C8F8882328B302F05AFA0028FBD03F
:102E800002F073FA2FE0208E0028E9D0002161863D
:102E9000616394F83D0094F83C1000F0F00040F0BD
:102EA000010084F83D0001F0F00184F83C1004F1C9
:102EB0003000C8F8740398F87D1301F0F00188F829
:102EC0007D13CDE734490A6813680120984701282B
:102ED00009D0787B00F0F00040F0010078730FF229
:102EE0003D00C8F888030021E9612E60DFF8080B77
:102EF000436819000AD0007AC10707D5D8F89803AB
:102F0000324601B0BDE8F0430121184701B0BDE8E9
:102F1000F083000024D0010020000E00DFF8DC2A3E
:102F2000114200D1704710B51B490A68136801208F
:102F3000984701280DD1DFF8C80A0FF26501C0F8E3
:102F400088130022DFF8A41ACA6100F55C700860DB
:102F500010BD01F0AAFD3221B1FBF0F10129DFF82B
:102F6000A04A98BF012104F24C4001F0B2FD04F2E6
:102F70004C40BDE8104001F0AEBD00000C10044014
:102F80009430044085030021FDBFFFFFE0250020B1
:102F90003426002088220020E00100106525000072
:102FA0002DE9F04F044688465FEA484083B0DFF8D9
:102FB000509A2CD501F0EBFCD9F8686316B3D6E92A
:102FC0000A2302F00A0413F0E04508BF002C19D1CF
:102FD000D6E90A45D6E90A23A243AB43C6E90A2348
:102FE00001F001FDB06878B1002D08BF002C0BD0B6
:102FF000B6F9301030692246B4682B46A04728F451
:10300000804815E301F0EFFC28F4804810E35FEA04
:10301000880040F18280DFF8EC09D0F88C1041F094
:103020008001C0F88C1099F8960328B1042001F0B3
:1030300042FF002089F8960301F0A9FCDFF8E4A61E
:10304000DAF854100A6805460420904700281CBF8F
:10305000207D00281FD0D9F89C03E0B10746DAF89C
:1030600000002669016B8847874231BFC71B401E9D
:10307000C71B7F1C3F0BB742276102D2F6197608A7
:10308000266140F699012069A0F59670884224BF18
:1030900040F6C4102061284601F0A5FCD9F8981329
:1030A0008A6801F1300300E00246506890B198420E
:1030B0001EBF0246506800280CD098421EBF024630
:1030C0005068002806D098421FBF0246506800286A
:1030D0009842E9D1507B10F00F0F02BF488E40F6A6
:1030E000090290420FD1E56900224FF000736FF49E
:1030F00080712046A847D9F8500310B1FEF703FCB1
:1031000001E048F002082046A46900224FF08063E5
:103110000021A04728F000588AE25FEA887009D5AC
:10312000FFF7EAFCD9F85803002840F0818228F024
:1031300002087DE25FEA485040F1B48001F027FCCC
:103140000546FFF78FFDD9F85043012840F0A480D1
:10315000002C00F0A180042089F884030022DFF80D
:10316000A81809F5787001F021FC284601F03BFC15
:1031700009F5926001F0B1FCDFF8A80501680A6B5F
:103180009047C9F8A003012089F89603042001F0B4
:10319000FDFE2069C9F8980390F824104A0703D56A
:1031A000036A002204219847D9F89803DFF83C58B5
:1031B00041688E68CF684868002E08BF002F04D091
:1031C0000021E961DFF8BC272A6008B1C046C0468B
:1031D000002E08BF002F0CD0E8690028FCD0002189
:1031E000E96106B1B04707B1B847DFF8040801F05C
:1031F0007FFCD9F898030121417540F60A06FEF7D5
:1032000018FCD9F898339A68114640F6040C40F639
:10321000030E00E00146486828B10788B7421CBF8A
:1032200077456745F6D1002048604E7B06F0F006F2
:1032300046F001064E73E0680088704518BF60458F
:1032400003D10020C9F8A00315E0188E98B103F14E
:103250003000002444804460047B04F0F0040473D4
:10326000447B04F0F00444F0010444734860487B5C
:1032700000F0F00048730020E8612A60DFF878076A
:10328000446821000BD0007AC10708D501211846F7
:10329000A04728F48068CBE1284601F0A4FB28F47D
:1032A0008068C5E15FEA085163D599F8960328B1B3
:1032B000042001F000FE002089F89603D9F8984315
:1032C00004F1080104F130050B6800E0034658687A
:1032D00090B1A8421EBF0346586800280CD0A842EF
:1032E0001EBF03465868002806D0A8421FBF0346E9
:1032F00058680028A842E9D1587B10F00F0F02BF90
:10330000488D40F60902904207D12046E469002228
:103310004FF000736FF48071A047D9F8A00398B103
:10332000DFF800140868026B9047D9F8A0138142B7
:1033300031BF401A401E401A401CD9F89813000BA8
:10334000C8600020C9F8A0030022C04909F57870C0
:1033500001F02CFB022189F88413D9F8580318B125
:1033600009F56B7001F0A7FCFEF7CDFA28F40068B0
:103370005EE15FEA087040F1548101F008FB0190C2
:10338000FFF770FC002800F0448199F894030107CE
:1033900000F13F8199F89403010600F13A81D9F8D0
:1033A000500300240025C8B1C1680A7B012502F042
:1033B0000F02022A12D101690A69C98A99F82233D7
:1033C000406B5118192212FB0311FEF768F80646EC
:1033D00001F06BFBB6FBF0F1009100E000940026D9
:1033E0004FF0FF374FEA040A5FFA8AF002281FDC29
:1033F00009F5307101EB4012907AC8B1107A0126BC
:10340000022820D0D9F898030169C08A99F822339C
:103410000918192010FB03115069FEF740F8834684
:1034200001F043FBBBFBF0F0B84298BF074600BF7A
:103430000AF1010ABAF1030FD6D3354205D0009C38
:10344000BC4207D905E00027F7E70DB1009C01E079
:1034500006B13C46354302D0002C00F0DA8099F8E2
:103460002103002840F0D58000260125F0B2022873
:103470001FDC09F5307101EB4011887AC8B18D72FB
:1034800091F9097001F083FA044699F8940305FA5A
:1034900007F720EA070789F8947399F89413080747
:1034A00004D4082109F56B7001F005FC204601F0F9
:1034B0009AFA761C032ED9D3032089F8840309F5E0
:1034C000926001F00AFB0198DFF8204501F08BFAC9
:1034D0006069002161610022E068E16009F57870AF
:1034E000DFF8D01A01F062FA8E4801680A6B904743
:1034F000D9F89C13814231BF401A401E401A401C2B
:10350000D9F88C134FF0FF32A2EB10328A4234BF4D
:103510004FF0FF3001EB1030C9F88C0399F890039D
:1035200030B1D9F8A403D9F88C13C00288422FD245
:10353000DFF8D0040268D10725D5DFF8E00A00687B
:10354000010620D540F60900A9F870030021A9F86A
:10355000721399F87D0300F0F00040F0010089F843
:103560007D0399F87C0300F0F00089F87C03C9F82A
:103570007413E16109F55C71216000BFB9F8720351
:1035800010F4406FFAD0002189F89053C9F88C13D9
:1035900001F0BBFADFF81C14DFF85C44002008607F
:1035A0006368180007D0207A810704D5D9F89803FA
:1035B000002202219847022001F07DFC112001F039
:1035C00093FC99F8950320B9D9F89803483002F094
:1035D0004AFDA07810B90E2001F086FC99F89103FD
:1035E00028B1002189F89113052001F064FCDFF86F
:1035F000300AC9F88803002189F884130220B9F938
:103600006E13B9F96C23914208BF0720FEF787F8C3
:1036100002E0019801F0E7F9FEF775F928F00808D3
:1036200006E05FEA480003D5FEF76DF928F0804810
:10363000B8F1000F07D0414609F56B7003B0BDE843
:10364000F04F01F038BB03B0BDE8F08F0D2400004F
:103650002DE9F54CDFF8A8A3DAF8504381B09B467A
:1036600000250E4600E02468002C55D0B4420ED050
:103670002468002C50D0B44209D02468002C4BD0D0
:10368000B44204D02468002C46D0B442EBD1002CC4
:1036900042D0206901992768884237D101F077F933
:1036A000D4E90A2343F08051C4E90A21D4E908236C
:1036B00043F08051C4E9082101F095F9BBF1000FF6
:1036C00018D001F064F9D4E90A2343F08071C4E909
:1036D0000A21D4E9082343F08071C4E9082101F0EC
:1036E00082F99AF84C133069CAF8480341F0010195
:1036F0008AF84C1321460AF5547002F02BF8214643
:103700000AF5567001F0FCFF15F101059DF808005F
:10371000002818BF3C46BAD1284603B0BDE8F08C5B
:10372000020000408C010010D02108402DE9F04734
:1037300092460326BAF1000F84B081461D4614BF9D
:103740004FF080474FF000570C4601F020F94FF042
:10375000FF318C420190DFF8A88256D1D8F860037F
:10376000002846D00069484543D1D8F86043002C72
:1037700000F0018194F83300010640F1FB808DF8E0
:1037800000500C9ED8F8600384421CBFD8F8641324
:103790008C4240F0D880D8F8605301F0F8F88446A5
:1037A0004DB1D5E90A013943C5E90A01D5E9082334
:1037B0003B43C5E90823604601F015F9D8F8645386
:1037C00001F0E5F884464DB1D5E90A013943C5E970
:1037D0000A01D5E908233B43C5E90823604601F007
:1037E00002F9BAF1000F14BFDFF8180ADFF8180A5F
:1037F00067E0D8F8640328B10069484508BFD8F8E5
:103800006443B4D0D8F85043B1E7B8F93010002081
:10381000A14202BFD8F8103000934B4505D1582182
:1038200011FB00F008EB0004A1E7B8F988100120B3
:10383000A14202BFD8F8683000934B45EFD0B8F9E9
:10384000E0100220A14202BFD8F8C03000934B45DF
:10385000E5D0B8F938110320A14202BFD8F81831D9
:1038600000934B45DBD0B8F990110420A14202BF70
:10387000D8F8703100934B45D1D0B8F9E811052044
:10388000A14202BFD8F8C83100934B45C7D0B8F960
:1038900040120620A14202BFD8F8203200934B45C7
:1038A000BDD0B8F998120720A14202BFD8F87822FB
:1038B00000924A455FD1582111FB00F008EB00044B
:1038C00055E701F015F996B3D8F8605301F05FF8A9
:1038D00002465DB1D5E90A0141F08073C5E90A03EA
:1038E000D5E9080141F08073C5E90803104601F0ED
:1038F0007AF8D8F8645301F04AF802465DB1D5E988
:103900000A0141F08073C5E90A03D5E9080141F0D5
:103910008073C5E90803104601F065F898F84C1368
:103920002069C8F8480341F0010188F84C139DF85C
:103930000000E8B10246D8F8501333464846FFF776
:1039400087FE832617E033462A4621464846FFF77E
:103950007FFE78B198F8840301281CBF98F884038F
:10396000042805D0DFF8441A08F56B7001F0A3F9BC
:10397000832600E00426019801F035F8304604B0B3
:10398000BDE8F0875100070610B50C461C4991F8B8
:103990008423022A0BD101F0ABF804B1206000F0BF
:1039A000FF00012801D1812010BD022010BD01209F
:1039B00010BD000000000460F0B581B004460D4663
:1039C000164600F0E4FF07460D48D0F898138C42E5
:1039D00018BF032404D131462846FFF7D5FF04461B
:1039E000384601F000F8204601B0F0BD0010044058
:1039F0000100070601010E0424D00100040000208C
:103A00008822002040210840D32A000030B5144607
:103A100081B00546502340F2FF3201F093F824B103
:103A2000014655F82110890A216001B030BD0029F6
:103A300042D00A0E202A08BF10221AD0212A08BF1D
:103A4000202216D0A02A08BF302212D00AB9402264
:103A50000FE0102A08BF50220BD0112A08BF6022A5
:103A600007D0402A08BF702203D0502A0CBF802202
:103A700090228901090A42EA012141F00F0100E088
:103A8000001D026812F1010F18BF8A421CBF50F8D6
:103A9000042F12F1010F0ED08A421CBF50F8042FE0
:103AA00012F1010F07D08A421EBF50F8042F12F105
:103AB000010F8A42E4D101607047002944D00A0E08
:103AC000202A08BF10221AD0212A08BF202216D08F
:103AD000A02A08BF302212D00AB940220FE0102AD3
:103AE00008BF50220BD0112A08BF602207D0402AFD
:103AF00008BF702203D0502A0CBF80229022890177
:103B0000090A42EA012141F00F0100E0001D0268AC
:103B100012F1010F18BF8A421CBF50F8042F12F196
:103B2000010F0ED08A421CBF50F8042F12F1010F72
:103B300007D08A421EBF50F8042F12F1010F8A42AB
:103B4000E4D14FF0FF31016070472DE9F04381B0BF
:103B50000546089C0E461746994602F0ABFA0E2819
:103B600003D002F0A7FA0F2849D1288840F60201B5
:103B700088424FF0010860D0B0F5C15F6AD043F6CB
:103B80000601884273D005F11A023260E869386094
:103B9000A96AC9F80010E86A206095F824702D7EA3
:103BA000D9F8000005F0070588B105234FF6FF722C
:103BB00040F2037100F0C6FF0646052E07DA2946DB
:103BC000384600F0D7FFD9F8001041F826002068E9
:103BD00078B305234FF6FF7240F2037100F0B2FF95
:103BE0008146B9F1050F24DAFF21384600F0C2FF03
:103BF000216841F82900404601B0BDE8F0832888DB
:103C000040F60201884218BFB0F5C15F4FF00008CE
:103C100039D043F60601884207BF05F11A0030602B
:103C200005F11A023260E8693860C9F80080C4F80A
:103C30000080404601B0BDE8F08305F11202326019
:103C400068693860A969C9F80010E8692060EF7BED
:103C50002D7CA5E705F11200306069693960686A5A
:103C6000C9F80000A96A2160EF7B2D7C98E705F177
:103C70001A003060E96939600027286AC9F8000035
:103C8000696A21608BE705F1120030606869CBE753
:103C90002DE9F04186B015460C46002202920492AE
:103CA0000392019201A9009103AB04AA02A9FFF7B4
:103CB0004CFF8326E20F30D130B3039800281CBF9D
:103CC000019800281AD00298048040F22B28039F04
:103CD00041463846FFF79AFEFF281CBF48EA842178
:103CE00047F8201001990498FFF7E7FE1520288077
:103CF00030460399696006B0BDE8F08102980188FA
:103D00004FF6FF72914249D0029804801021298019
:103D10006C80304606B0BDE8F08100283ED00398A4
:103D200000281CBF019800281CD002984FF6FF7194
:103D300001800022019F2B213846FFF767FEFF28F4
:103D400004D0A40244F02B0447F8204001990498C1
:103D5000FFF76DFE1520288030460199696006B096
:103D6000BDE8F081049F00222B213846FFF74EFE6C
:103D7000FF2804D0A10241F02B0147F82010FF28B2
:103D80000CD002994FF6FF70088014222A80C4F3E9
:103D900015046C60304606B0BDE8F081032630465D
:103DA00006B0BDE8F0812DE9F043DFF8FC8889B06A
:103DB0000C001546D8F8081018BF002D1F4600F05B
:103DC000F4802278D140CB0740F1EF8006460021F5
:103DD00028460020C046B560746000F0D8FDDFF8CA
:103DE000CC98054699F89503022880F2DB800028DC
:103DF00040F0868000F08DFFDFF8B408DFF8B448AB
:103E0000016841F002010160DFF8AC08C8F8000069
:103E1000684600F00FFF6078DFF8A01802906A464D
:103E200009F56B7000F00EFF6A46DFF8941809F58B
:103E30007F7000F007FF684600F0CDFD20785D4AF6
:103E400001906B46192109F5787000F07DFD6B46F5
:103E5000DFF870281A2109F5866000F075FD00234F
:103E60000022DFF8641809F24C4000F0F7FD00234F
:103E70000022DFF8581809F5926000F0EFFDDFF836
:103E800050080168C1F3814038B10023DFF84428AD
:103E9000042109F2D44000F0F8FFA078012804BF03
:103EA0000E2001F088F809F5567001F0F7FB09F5CE
:103EB000547001F0F3FB002089F88403C9F88C03E7
:103EC0000021072089F8901389F8911389F82003BD
:103ED000C9F89C1300200521C9F8A003C9F8A41350
:103EE00089F894034E49C9F888136368180007D00D
:103EF000207A410704D5D9F8980300220421984775
:103F000099F8950309EB8002401CC2F8286389F8F0
:103F100095033C46284600F066FD3CB90FF2D841B7
:103F200091E8BC51684680E8BC516C46206830601E
:103F30004FF4FA71F160A06970620120218AF18268
:103F40007075E169F162606818B130610020307508
:103F500004E040F6C410012130613175DFF8EC0750
:103F6000F0613062B061E06800B1F061606900B199
:103F70003062A06800B1B061C82106F1300002F0E3
:103F800009F9002106F1480002F02CF80023002274
:103F9000DFF8DC1806F1B00000F060FD304609B033
:103FA000BDE8F083284600F01EFD002009B0BDE802
:103FB000F0830000312A00002DE9F04D00F0E7FC0D
:103FC000DFF8E84694F8841302291CBF94F88413A0
:103FD000042907D1DFF89C28146800F004FD20466E
:103FE000BDE8F08D00F0FFFCDFF88C08DFF8B0884A
:103FF00001680A6B904710F5003641F1000AD4F8C9
:104000008013A8FB067B002008FB0ABB3C184BEB87
:1040100001052C462046BDE8F08D0000000004405C
:10402000832C00002DE9F04F83B081460F461546E2
:104030009B4600F0ACFC01906FF00106DFF86C8647
:10404000D8F82803814508BFD8F82C0330B1B03028
:1040500000F030FD10B16FF00206AAE0FDF7D4F9D0
:10406000040000F0C680DDE90C6A08F5926000F0FB
:1040700034FDB8F86C03401CC0F30B00A8F86C03C7
:10408000E760002084F83200C4F808B02021B8F8B6
:104090006C23DFF810082286C4F8109030400AEA3A
:1040A0000101C4E90601002284F83320C4E9082292
:1040B000EE6826642A7C84F844202B6863632A799E
:1040C00084F83820AB68E3636A69A264AB69E3648F
:1040D0002A7F84F850206B7F84F851302A7C22B9E3
:1040E000EA6812B1012384F844302A79002A02BF19
:1040F0003A7B02F00F02022A04D1012284F8382010
:10410000BB686363082301E017465B1E7A68002AD8
:1041100018BF002BF8D13A8802F47C42B2F5305F28
:104120000AD194F8332042F0100284F8332040F092
:104130000800C4E9060103E040F00202C4E90621D8
:10414000D8F84803484507D198F84C03C10744BF45
:1041500000F0FE0088F84C03DFF88C0706686FF06B
:1041600002050EB92E461DE0D8F8642308F55670F6
:10417000009008F55473D8F860132046B0470646FF
:10418000AE420FD0B8F96C03B4F93010884206D0B3
:10419000B8F86C03411EC1F30B01A8F86C1316F1BB
:1041A000020F0FD1B8F86C03411EC1F30B01A8F840
:1041B0006C13C8F8489398F84C0340F0040088F852
:1041C0004C0316E0B4F9306094F8330040F08000FE
:1041D00084F83300002189F8F410D8F85003A04285
:1041E0001FBFE168087B00F00F00022808BFFDF741
:1041F0008AFB019800F0F7FB304603B0BDE8F08F72
:10420000000000000100020401000104F0B50646B0
:104210000F46380081B014461D4603D5002000210A
:1042200001B0F0BD00F03AFDDFF88024B2F9303083
:104230000021BB4202BF13690093B34203D192F83D
:1042400033301B0660D4B2F988300121BB4202BF73
:10425000936E0093B34203D192F88B301B0653D474
:10426000B2F9E0300221BB4202BFD2F8C030009365
:10427000B34203D192F8E3301B0645D4B2F938318A
:104280000321BB4202BFD2F818310093B34203D1DD
:1042900092F83B311B0637D4B2F990310421BB426E
:1042A00002BFD2F870310093B34203D192F8933138
:1042B0001B0629D4B2F9E8310521BB4202BFD2F86E
:1042C000C8310093B34203D192F8EB311B061BD4E3
:1042D000B2F940320621BB4202BFD2F8203200932D
:1042E000B34203D192F843321B060DD4B2F998328F
:1042F0000721BB4202BFD2F878720097B7420BD1B8
:1043000092F89B723B0607D5582313FB01F157180F
:1043100097F833100A0605D400F0CFFC02200021E4
:1043200001B0F0BDD7E9082344F00A0445F0E045A8
:1043300022402B4008BF002A0ED000F0BEFCD7E977
:10434000080120402940C6E92A01D7E90823824311
:104350008B43C7E9082312E0BA68DFF890158A4258
:1043600003D0BA68C6F8A020B960C6E9264500F0B7
:10437000A4FC4FF0FF3106F1480001F069FED6E9D8
:104380002A0101B0F0BDD0B582B00446DDE9066770
:10439000CDE90067FFF746FE0146204602B0BDE8C2
:1043A000D0400A224FF0E04330E700000200004016
:1043B00000B581B0930803F001030093530803F0A4
:1043C000010302F00102FFF7B1F901B000BD00B531
:1043D00081B0930803F00103009302F0010201236E
:1043E000FFF7A4F901B000BDF0B500BF02A191E84C
:1043F000FC5080E8FC50F0BDFFFFFFFF0000000014
:1044000000000000000000003A013A010000000036
:1044100000000000000000000022FFF7CDBA0022DB
:10442000FFF7CABA00B581B06A46DFF8C814FFF7D3
:10443000C3FA812803BF0098000200166FF07F00C6
:1044400001B000BD70B50E46154600F0A0FA8324F9
:10445000052E36D8DFE806F0030F15351F28DFF8E4
:104460009024D2F8601321B1D2F860130A8E2A800A
:1044700028E0802426E0DFF8781491F820232A80B1
:1044800020E0DFF86C1491F88423022A0CBF01218C
:104490000021297016E0DFF85814D1F828232A608B
:1044A000D1F82C1369600DE0DFF84424D2F828130A
:1044B00001B1C9682960D2F82C1301B1C9686960DB
:1044C00000E0032400F08FFA204670BD70B4DFF8DE
:1044D0002034B3F93040002281B08C4202BF1E6903
:1044E0000096864203D193F833502C0660D4B3F97A
:1044F000884001228C4202BF9E6E0096864203D104
:1045000093F88B502C0653D4B3F9E04002228C422E
:1045100002BFD3F8C0600096864203D193F8E350FF
:104520002C0645D4B3F9384103228C4202BFD3F89C
:1045300018610096864203D193F83B512C0637D47C
:10454000B3F9904104228C4202BFD3F87061009607
:10455000864203D193F893512C0629D4B3F9E8414C
:1045600005228C4202BFD3F8C8610096864203D16F
:1045700093F8EB512C061BD4B3F9404206228C422F
:1045800002BFD3F820620096864203D193F84352CB
:104590002C060DD4B3F9984207228C4202BFD3F8FF
:1045A0007812009181420BD193F89B02010607D546
:1045B000582010FB02F29818C06801B070BC704718
:1045C00001B070BC002070472DE9F04B0E4682B060
:1045D00096F9048034688346174600F0D8F9334AC8
:1045E00092F8201300906FF001094FF0000C0123A6
:1045F00003FA0CFE11EA0E0F50D04FF0FF35A8451C
:1046000018BFE0454AD15FFA8CF0032846DA02EB86
:10461000401505F53075A87A00283FD121EA0E0033
:1046200082F82003AB7285F809C00A2192F82203B0
:10463000401C82F82203C5F800B02B7200234348C7
:104640006860298295F90900401DA874B068686106
:104650007FB13B7878785B0143EA800395F90900E4
:10466000401D43EA00234FF6FC710B40DFF888023F
:104670000343AB6104B16C60D2F8980310B92968A8
:10468000C2F89813FDF73FF995F90990009800F0EA
:10469000AAF9484602B0BDE8F08B00BF0CF1010C4E
:1046A000BCF1030FA4D3F1E7CC21084088220020FD
:1046B0000020094024D00100110000E0EB29000097
:1046C00043230000BD220000092A000053280000F7
:1046D000B44F0050CF160000F0B581B006460F462B
:1046E000802400F054F9FFB2032F054627DADFF8E3
:1046F000003203EB471101F53077B87AF8B1396829
:10470000B1421CD193F88403022812D197F9091001
:10471000D3F89803491D0906090C41F08161002274
:1047200041F00101FFF748F904463846FCF72DFF38
:1047300005E03846FCF729FFFDF7E5F88124284617
:1047400000F051F9204601B0F0BD0000E929000059
:104750002DE9F04107460D461646832400F017F96F
:10476000092D804600F27D80DFE805F005080E1176
:10477000141A4052686D3068386073E0386901215E
:104780006030797538616DE03068F8826AE03168D0
:10479000398567E03068DFF85811C1F8A40361E09B
:1047A000306850B900F0F3F8DFF8441191F8942321
:1047B00042F0800281F8942315E0012851D100F0E5
:1047C000E6F806464A4890F8941301F07F0180F815
:1047D000941390F894130A0704D4082100F56B7021
:1047E00000F069FA304600F0FEF83BE0404991F8ED
:1047F0008403002804BFD1F85003002811D1316888
:10480000192000F0E6F831681A2000F0E2F829E0FB
:10481000374F97F88403002804BFD7F850030028C7
:1048200001D000241EE0316807F56B7000F047FAF4
:10483000316807F57F7000F042FA13E030782C49B8
:1048400081F820030EE02D48436819000AD0007A51
:10485000810607D52648D0F898033246202198478C
:1048600000E00324404600F0BEF82046BDE8F08199
:104870009B280000043004408C01001030B5044631
:1048800083B0A0686A46FFF703FA8328054604D17F
:10489000002269462046FFF78FF8284603B030BD56
:1048A00000093D00FFEFFF9F1548016801F440211A
:1048B000B1F5802F00D0704700B5124881B0016873
:1048C0008A030FD401F041F801F06EF80021009145
:1048D000C21EC01C01B20C4B0C4812B201F06DF8A4
:1048E00000B1FEE701B000BD28D10100A128000001
:1048F00088220020010003040100040624D00100E6
:10490000B44F00508C130050652500007027002024
:10491000DFF800F055EB0210DFF800F047EC021072
:10492000DFF800F095EA0210DFF800F049EB021022
:10493000DFF800F075E40210DFF800F01DD9021076
:10494000DFF800F019E90210F0B51C008DB0054643
:104950000E46174604D1002301F02CFC0DB0F0BD2B
:104960000823302200216846FFF7DEFF206805900B
:104970006B46606808903A46207AADF818003146D8
:10498000284601F017FC0DB0F0BDFFF7D1BFFFF7CF
:10499000BFBFFFF7D1BF00B581B0FFF7C1FF401E19
:1049A0008041C00F01B000BD01F024BCF0B581B062
:1049B00004460D461646FFF7ABFF0746324629462A
:1049C000204681604260384601B0BDE8F040FFF704
:1049D000A3BFFFF7B5BF002101604FF0FF320123F5
:1049E000426003727047FFF797BF024602291078B2
:1049F00003D1517800EB01207047032906D151788B
:104A0000927800EB012000EB02407047042908D1A6
:104A10005178937800EB0120D17800EB034000EB54
:104A200001607047DFF800F09DEB0210DFF800F046
:104A3000C5E20210DFF800F0C3EC0210DFF800F06E
:104A4000E7E90210DFF800F049E60210DFF800F0B5
:104A50008DDD0210DFF800F0FDE90210F0B51C005A
:104A600089B005460E46174605D10023FFF7EEFF35
:104A7000284609B0F0BD0823242200216846FFF72C
:104A8000D1FFA16806916B462278ADF810203A4616
:104A90006068059031462846FFF7D8FF284609B0E0
:104AA000F0BDFFF7CFBFFFF7D5BF0D4800687047D7
:104AB00001F0AEBB00B581B0FBF7C0FA401E8041EB
:104AC000C043C00F01B000BD002181600170416092
:104AD0007047FFF7AFBFFFF7B1BFFFF7A7BF0000F9
:104AE0006CD1010045490A681040C2430A60704712
:104AF000434A11680029FCD10023D3611060D069BA
:104B00000028FCD0D161506870473E48016821F010
:104B1000020141F40871016003213B48016041F248
:104B20003002C260012343605021C16043604FF4F2
:104B3000CA61C16043604FF48651C160436033492C
:104B40000B60704770B40446002000E0401C98429F
:104B50000BDA256815F1010F07D054F8046B1640E5
:104B60008E42F3D170BCC0B2704770BCFF2070475A
:104B7000000000001E281DD8DFE800F0101C131CE8
:104B80001619161C1C1C191C161C1C191C1C1C1C80
:104B90001C1C1C1C1C1C1C1C1C1C190040F202525E
:104BA00009E04FF4817206E04FF2011203E041F296
:104BB000011200E00022FF2909D14FF6FF30024028
:104BC00042F0C00240F2037040EA02407047080021
:104BD00008BF42F0300205D0C8074CBF42F01002B7
:104BE00042F0200240F2037040EA02407047084958
:104BF0000A681040C2430A60704700001010044069
:104C0000001004400000046054600440004104406F
:104C100008100440DFF800F025EA0210DFF800F089
:104C200061DB0210DFF800F0F1EB0210DFF800F0BA
:104C3000BDE80210002101604160C1604FF0FF310A
:104C40008160704770B514008AB005460E4604D1E5
:104C5000002201F0FBFA0AB070BD1E49A0680A6884
:104C6000904204D310F1010F18BF002012D1082385
:104C7000282200216846FFF7D5FF206804906A4685
:104C8000606805903146E0680790A0680690284665
:104C900001F0DCFA0AB070BDFFF7C8BFFFF7BABF7A
:104CA00001F0E0BA00B581B0FFF73AFE012818BF65
:104CB000002001B000BD01F0DFBAFFF7AFBF054A29
:104CC0001368994202D311F1010F01D101F0E4BA46
:104CD0007047000024120000DFF86C0980687047FC
:104CE00002460020022904D1012A06D140F2EE201A
:104CF0007047012A08BF4FF47A707047DFF84819EF
:104D000091F8410120B1D1F86C01002818BF00478B
:104D100070472DE9F041DFF8304994F8420100284E
:104D200084B040F0AE800121DFF82069DFF820591F
:104D300084F84211307B84F841017168C4F86C1129
:104D4000A868C0F38140B8B93069A8B12F68FFF7EF
:104D5000ACFEC7F30662642111FB02F2B2FBF0F273
:104D600000230FF6CD0104F19400FFF777FEDFF882
:104D7000E4184FF00040086001A8FFF7A5FE0020EE
:104D800002908DF804000022039201AB0FF2ED6156
:104D9000DFF8C47804F10C00FFF760FE01A8FFF70C
:104DA00093FE002002908DF80400039001AB0822CE
:104DB000DFF8A81804F15000FFF750FE00230FF2AF
:104DC0000162322104F1D800FFF7BEFD00203860F7
:104DD0000023DFF88C282C2104F1F400FFF7B4FD48
:104DE000DFF880080178A968707BC1F3815128B190
:104DF000032903D1012084F8390121E0032918BFD8
:104E000002291DD001291AD1DFF85C68DFF85C782F
:104E1000032000901C23D6F800C0DCF804804FF07B
:104E2000405200213846C04701200090384636687D
:104E3000776809234FF400720021B84711E081B967
:104E4000386840F040003860FFF7A1FDA16841F0EC
:104E50000401A16094F84511491C84F84511FFF73D
:104E6000C2FD686840070CD4FFF791FDA16841F0CE
:104E70000101A16094F84311491C84F84311FFF724
:104E8000B2FD002004B0BDE8F08130B581B000244F
:104E900008B1150004D16FF00204204601B030BD06
:104EA0008160C26003610146DFF89C0700F028FCC6
:104EB000204601B030BD10B50446FFF768FDDFF8AD
:104EC00088170A1992F843315B1E82F84331DBB22E
:104ED00033B98A68012303FA04F422EA04048C60DB
:104EE000FFF781FD002010BDF0B581B00546FFF74A
:104EF0004EFD0446DFF85017481990F84A21521E1B
:104F000080F84A21D2B232BBDFF8640700EB850299
:104F100010F825505688280623D5DFF858773968C9
:104F20000A6A3046904739688A6A3046904739683D
:104F30000A6B30469047DFF8401701200860DFF821
:104F40003C0701688907FCD505F03F05152DBCBF5E
:104F50002846FFF7C9FF2046FFF745FD002001B0B6
:104F6000F0BD680606D501EB86010020D1F860216E
:104F70009047E9E7DFF8FC160B689A6930469047DE
:104F8000304601F0A5F90228FAD1DDE710B5044654
:104F9000FFF7FDFCDFF8B0168A680123A3401A432F
:104FA0008A60214491F84321521C81F84321FFF784
:104FB0001AFD002010BD2DE9F0410646FFF7E7FC81
:104FC0000446DFF88456A81990F84A114A1C80F864
:104FD0004A2139BBDFF8988618F8260000F03F0018
:104FE0001428D8BFFFF7E7FF08EB8600478818F8BA
:104FF000260001061CD5DFF87C562A68D1693846A0
:1050000088472A68516A384688472A68D16A3846EC
:105010008847DFF8642601201060DFF86006016829
:105020008907FCD52046FFF7DEFC0020BDE8F081B3
:10503000400606D505EB87010120D1F86021904795
:10504000F0E7DFF830160B685A6938469047384663
:1050500001F05BF90128FAD1E4E72DE9F04F0026D1
:105060000025012881B0AA4618BF6FF0010840F062
:105070002E81DFF8D475D7F83401012844D10221FC
:10508000C7F8341101F0C4F9012000F0FAF95FEA21
:1050900000083FD197F85B0108B14FF0010A97F87B
:1050A0005A0108B14AF0020A97F8590108B14AF0CA
:1050B000040ADFF8C045A16A0A6801209047012868
:1050C0001CBF97F8380101284ED100F003FDDFF82E
:1050D00080B5DBF808000125C0F3814040BBDFF854
:1050E0006C0501690091080022D007F19400FFF7D8
:1050F000F4FCDBF80000DFF88C15C00F14BF4FF490
:1051000041504FF482500EE06FF00408404601B069
:10511000BDE8F08F0120C7F8340101F082F9404664
:1051200001B0BDE8F08FC1F88000002000998847E9
:1051300097F83801C0B1DFF85005C16E21F0800149
:10514000C16680224267FFF722FC97F84611491E8C
:1051500087F84611C9B219B9B96821F00801B960D8
:10516000FFF741FC87F83861387AC10748BF01264C
:1051700008D4216ADFF814058A6890478146B9F19E
:10518000040FF6D04FF0FF320021304601F074F9E1
:1051900076B9B9F1010F05D1226ADFF8F00453683E
:1051A00001219847DFF8E004016841F00301016044
:1051B000504622685169884797F8550120B1216807
:1051C000CA6A4FF48060904797F8540120B1216873
:1051D000CA6A4FF481609047DFF89C14DFF8B0345E
:1051E0000120086000221A600320C7F834015046ED
:1051F00001F08BF80128FAD1DFF88494D9F8000087
:10520000042000F03EF90646DFF88814012008600B
:10521000002DD9F800204CD0A16A0A6890470128D7
:1052200047D097F83801002843D1DFF82444A0681C
:10523000C0F38140C0B9DFF814040569A5B1206846
:10524000DFF84014C00F19BF4FF4405008604FF40E
:1052500080520A60502001F0C9F90120A84707F1E7
:105260009400FFF738FC01E000F0FAFB012087F81A
:105270003801A068C0F3814018B9DFF8D01308697D
:1052800050B9387A810607D4DFF8FC0380224267E0
:10529000C16E41F08001C166FFF779FBB96841F04A
:1052A0000801B96097F84611491C87F84611FFF7C5
:1052B0009AFB01F097F9082000F0E3F8064301207B
:1052C000C7F8340101F0ADF80EB14FF0FF38404699
:1052D00001B0BDE8F08F30B581B00446FFF757FB51
:1052E00005462146DFF8600300F034FA284601B095
:1052F000BDE83040FFF777BB10B50024022802D08C
:10530000032805D008E001F075F90446204610BDD9
:1053100001F0FAFA204610BDFEE710B5DFF82C13B5
:105320008C680220A04710B10320A047012010BDC7
:10533000F0B581B0FFF72BFBC349054691F8380162
:10534000012460B1DFF82063DFF820033768D7F865
:105350000CC0002301223C21E04700B9002428466C
:10536000FFF741FB204601B0F0BD30B581B0FFF73B
:105370000EFB044600F083FBB34D002085F8380196
:10538000FFF705FB95F84611491E85F84611C9B28D
:1053900019B9A96821F00801A960FFF724FB20468C
:1053A000FFF721FBA94884680220A047054610208A
:1053B00000F067F8012D04BF0320A04701B030BD05
:1053C0002DE9F041A44C82B06568206820EA05010F
:1053D00005406A06216049D5A34EF16B0A68042096
:1053E0009047022818BF032819D001283ED1032076
:1053F00000901C23D6F800C09C4FDCF804804FF0CE
:10540000405200213846C047012000903846366897
:10541000776809234FF400720021B84726E0032083
:1054200000901C23D6F800C0904FDCF804804FF0A9
:10543000405200213846C047012000903846366867
:10544000776809234FF400720021B847FFF79FFAED
:105450007D4991F84521521E81F84521D2B21AB9F1
:105460008A6822F004028A60FFF7BDFA280648BF66
:1054700000F022F8A56002B0BDE8F081704700207E
:10548000704730B505467048046881B05CB1A068CB
:10549000284205D02269E36800212846984728B9A8
:1054A0002468002CF3D1002001B030BD4FF0FF3054
:1054B00001B030BD0020704730B581B0FFF767FA0A
:1054C0004FEA000400F0DBFA0028FBD0FFF75FFA98
:1054D0005D4D95F84611491E85F84611C9B219B9B6
:1054E000A96821F00801A960FFF77DFA002085F87E
:1054F00038012046FFF777FA544884680220A04715
:1055000005461020FFF7BDFF012D04BF0320A04773
:1055100001B030BD70B501284CD15F490A681368ED
:105520009847012800F08180474D95F83801002800
:105530007BD1474EB068C0F38140B0B9434804699D
:105540009CB130684F49C00F19BF4FF440500860FC
:105550004FF480520A60502001F048F80120A04723
:1055600005F19400FFF7B7FA01E000F079FA0120A5
:1055700085F83801B068C0F3814010B93349086933
:1055800048B9287A810606D43348802282600168AF
:1055900041F080010160FFF7FAF9A96841F00801C4
:1055A000A96095F84611491C85F84611FFF71BFACA
:1055B000002070BD002838D100F08CFA244E224D16
:1055C000B068C0F38140A0B9204804698CB105F1EE
:1055D0009400FFF782FA30682A49C00F19BF4FF4D0
:1055E0004150C1F880004FF48252C1F88020002061
:1055F000A04795F83801C0B11748016821F0800133
:10560000016080218160FFF7C2F995F84611491EBB
:1056100085F84611C9B219B9A96821F00801A96035
:10562000FFF7E1F9002085F83801002070BD000087
:1056300000B5144981B04020086000F011FA01B0B3
:105640005DF804EB38E70000B81A00200CCF010029
:10565000AC4F005000A10C4090220840756A000039
:105660006566000070370020A401001000A00C4007
:105670002CBB0100B8010010282008602820084039
:105680002C200940A8A00C402422084000400340E0
:10569000800104430C400940E001001010B50446AD
:1056A000FFF775F9002161602160BDE81040FFF748
:1056B0009AB930B581B00546FFF769F92C683CB15D
:1056C00021682960216800291ABF00224A606960A8
:1056D000FFF789F9204601B030BD70B504460D468C
:1056E0001646FFF754F92E607168696071680029E9
:1056F00014BF0D6025607560BDE87040FFF773B999
:1057000030B581B004460D46FFF741F9002129600C
:1057100062686A606168002914BF0D602560656079
:1057200001B0BDE83040FFF75EB930B581B0044646
:105730000D46FFF72CF92168296000226A60216874
:10574000002914BF4D606560256001B0BDE83040A0
:10575000FFF749B930B581B004460D46FFF717F998
:1057600029686A6800290CBF62604A6069682A6813
:1057700000290CBF22600A6001B0BDE83040FFF78D
:1057800032B930B4002513E050F8042BD30744BFDE
:10579000A9F101039A18091F042942F8045BFAD2FF
:1057A00013468C0744BF15809B1CC90748BF1D705A
:1057B00050F8041B0029E7D130BC704770B5FFF7E3
:1057C000E6F806468F484068FA246FF0F90560B1A4
:1057D000B0F90C108C42C8BF0C46B0F90E1000682E
:1057E0008D42B8BF0D460028F2D12946204600F070
:1057F00005F83046BDE87040FFF7F5B8F0B4814BCE
:10580000B3F90040A0421ADA7F4D804C2E7825680B
:10581000A5F5407576B2821C7543D7052D1105EBB1
:10582000E735803D12F1F90F2ADA4FF4803505F49F
:105830007F4525631880206A40F004002062B3F998
:10584000020088421ADA704C704A25781468A4F570
:1058500040746DB2881E6C43C605241104EBE63417
:10586000803C10F1F90F15DA4FF4803404F47F44D2
:1058700054635980106A40F008001062F0BC704711
:10588000FA2AA8BF4FF47F45D1DA002DCFD5604A60
:105890001540CEE7FA28A8BF4FF47F44E6DA002C83
:1058A000E4D55B480440E3E72DE9F0475648574DFF
:1058B00001782A68534E574F4FF47F432B63FA21E8
:1058C00031802A6A22F004022A62002200782968C4
:1058D0006A636FF0F9007080296A21F0080129627B
:1058E000F86B7468D0F8001088470FFA80FAE4B1BA
:1058F000B4F90E90D4F80080D145BCBFB4F90C10B7
:105900008A450FDBD145B8BFB4F90C902146301D54
:10591000FFF720FF0020226920752346A46849462E
:105920005046A0475FEA0804E2D1FFF747FF686AE4
:1059300000F00C006862686A10F00C0FF7D139684B
:105940000A6ABDE8F0473520104770B584B0FFF70C
:105950001EF8314D0446287808BB6846FFF73BF82F
:105960002E490A78019201218DF8081000232C4A53
:105970003521281DFEF7E8FF2A482B4B816C21F0CA
:10598000040181640322816C21F0080181640260BA
:1059900009211A6816680220B047012028702046A5
:1059A000FFF721F804B070BD00B5204881B0016850
:1059B0000A68904700B201B000BD2DE9F04381B004
:1059C0000446089F0D4616469846FEF7E0FFA5815F
:1059D000E681C4F8088081462761207D28B92146E8
:1059E0001348FFF78DFE01202075B4F90E10B4F9AD
:1059F0000C00FFF703FF4846FEF7F5FF002001B05B
:105A0000BDE8F083F81D00200C1300502850094019
:105A100000FF0100B00100104C360020BFC501009E
:105A2000A95800000050094084010010EC0100104A
:105A3000FC1D002038B5DFF83805DFF8385504883C
:105A400014F0010403D14FF0012129600088DFF830
:105A500028251168884714B14FF08070286031BD47
:105A600010B5DFF8282513685C6801210120A047E4
:105A7000DFF80C05DFF80C150068886010BD38B53C
:105A8000DFF8F844E16B0A680120904701281FD035
:105A90002468DFF8DC04E568002301223C21A847E4
:105AA000B8B1FFF7C7FFDFF8D804DFF8D8340268D1
:105AB0009968DFF8D4041C68DA60A4EB9404521AE5
:105AC0004243120C1A6019688C4238BF0C461C60A5
:105AD000012032BD38B5DFF8B44422685368002194
:105AE0000120984721680A680120904708B1FFF714
:105AF000A1FFDFF88C04DFF88C5400686860E06870
:105B000001688847286131BD2DE9F04F04460F46F2
:105B100015461E46D4E9028900F031F8C5E90001B6
:105B2000D4E90489D7E9022300F02BF8C5E9020182
:105B3000D4E9008900F023F8C5E90401D4E9048917
:105B4000D7E9002300F01DF8C5E90601D4E9008972
:105B5000D7E9022300F015F8C5E90801D4E902AB42
:105B6000D7E90023A2FB0A0102FB0B1103FB0A1178
:105B7000324600F0B7FFC5E90A01BDE8F08FD7E96A
:105B80000423A2FB080102FB091103FB08113246A2
:105B900000F0A8BF2DE9F04F0C460268D4E900518F
:105BA000D4E9026AD317AF1B61EB0A0BA7FB026AA9
:105BB00007FB03AA0BFB02AAD4E90623D4E9045984
:105BC000551B426863EB0909A2FB057BD31702FB57
:105BD00009BB03FB05BBF219D4E908658068D4E969
:105BE0000A484AEB0B03C117341B65EB0808A4FBFA
:105BF000005904FB019908FB0099501943EB090176
:105C0000BDE8F08F2DE9F84F8A465FEA020B9EB09F
:105C1000DFF87C1313D10268891802910846C11776
:105C20008907DAE9002341EA9001800700F06CFF60
:105C3000064689460024A046002000216FE000228D
:105C400002AD50F822400C1945F82240521C032A9C
:105C5000F7DB00930A23009906AA5846FFF754FF82
:105C600006AADDE90663D2E90248DAE90001351B3C
:105C700063EB0807A5FB004805FB018807FB0088CC
:105C8000DDE90C01D2E90423821A61EB0303DAE9AE
:105C90000201A0FB026900FB039901FB0299A21912
:105CA00048EB0903DDE90E45DDE91069DAE9040195
:105CB000A61B65EB0909A6FB005706FB01770099B7
:105CC00009FB00775846551912AA5F410023FFF7D8
:105CD0001BFF12A902A82D0DFFF75CFF45EA07354F
:105CE00000F078F8894606460099002312AA50462B
:105CF000FFF70AFF12A902A8FFF74CFF00F06AF8AD
:105D0000444261EB4108002312AA59465046FFF76E
:105D1000FBFE12A902A8FFF73DFF00F05BF8289DEB
:105D2000DFF87072CDE90648CDE9086982468B46F6
:105D3000002405EBC408DDE90823D8E90469A2FBC7
:105D4000060102FB091103FB06112E5DA6F11402E8
:105D500000F0C8FECDE90001D8E90C69DDE90623B1
:105D6000A2FB060102FB09112A1903FB0611167991
:105D7000A6F1140200F0B6FEDDE90023161843EB8D
:105D80000109D8E91423AAFB02010AFB03110BFB4A
:105D900002112A1992F808C0ACF1140200F0A2FE18
:105DA000301849EB0101800A40EA81508912032C26
:105DB00004DA614207EB8101C86005E0000940EAAE
:105DC0000170754A80183860641C032CB1DD1FB067
:105DD000BDE8F08F2A463B1500F096BE2DE9FE4F38
:105DE000002680460F4602928DF800304CE0029863
:105DF00050F8269009FB09F20192D8E900AB09FBA3
:105E000002F4A4FB0A013A78E51704FB0B1105FB29
:105E10000A11143A00F066FED8E9024582468B4624
:105E2000019AA2FB0401D31702FB051103FB041125
:105E30007C78A4F1140200F055FE1AEB00044BEB41
:105E40000105D8E904014A4682468B46A2FB0A01B5
:105E500097F802C04FEAE97302FB0B1103FB0A112A
:105E6000ACF1140200F03EFE24184D41D8E90601C1
:105E7000FA78143A00F036FE0C9B201803EBC602A9
:105E80006941C2E90001761C9DF800008642AEDB44
:105E9000BDE8F78F10B50068040424160C6003EB0E
:105EA0002043136010BD80B5B6B000F023F81AA8E7
:105EB0003A49702200F072FF6FF00F0304AA01A9A3
:105EC0003748FFF7E7FF6FF0160305AA02A9354828
:105ED000FFF7E0FF052306AA03A93348FFF7DAFF1F
:105EE00000F022F800F019F800F010F800F007F8C0
:105EF00037B000BD1822002108A800F092BF1AA8F0
:105F0000009008AB0EAA14A904A87BE608A800908C
:105F1000032301AA1CA92EA860E70EA80090032362
:105F200001AA1BA926A859E714A80090032301AAD7
:105F30001AA91EA852E770B5164CA268E5681B386E
:105F400000FB00F100FB01F681FB0223C6FB0523E9
:105F50006568C0FB05232068120942EA0372C11775
:105F6000101841EB2311000C40EA014070BD000005
:105F700000A00C4004A40C4080000010A4010010FC
:105F8000302009405435002040420F00E00100104D
:105F90006079FEFF683500200000A086A0B60100F1
:105FA000C0100050BC100050B8100050DFF800F0D6
:105FB000E5EB0210DFF800F0C1DD0210DFF800F0C1
:105FC00049DC0210DFF800F0DBEC0210DFF800F033
:105FD000FDE60210DFF800F0B1BF0210DFF800F0BC
:105FE00021CD021030B589B004460D460823242285
:105FF00000216846FFF7DAFF01218DF818106A4684
:1060000029462046FFF7D6FF204609B030BD10B51F
:106010008AB004460823242200216846FFF7C6FF01
:1060200001218DF818102046034A6946FFF7C6FF84
:106030000AB010BD000000000818002000B581B0B3
:1060400000906846FFF7BEFF01B000BDFFF7BEBF7E
:1060500000B581B0FFF7BEFF00280CBF4FF0FF3046
:10606000002001B000BDFFF7B9BF70B54A1ED2B223
:10607000002305E0D51AC45C465DC65444555B1C3C
:10608000B3EB510FF6DB70BD34480068000C00F034
:106090000700072828BF4FF0FF30704730490968D4
:1060A000C1F30F314BF641324FF0FF30914208BF40
:1060B0000420704738B5FFF7F1FF28490B68DD0D64
:1060C00004284FF0FF34C3F34061C3F3006221D1D1
:1060D0001B0B03F00F03082B1BD0092B14D00F2B25
:1060E00018D1E80704D500290CBF0D240E2411E0B7
:1060F000114218BF11240DD109B10F240AE0002A62
:106100000CBF0B24102405E000290CBF09240A242D
:1061100000E00C24204632BD000000001048114968
:1061200070B505680E682D0F06F0FF06802E28BF9B
:106130000026FFF7B3FF04284FF0FF340CD1032DE6
:106140000AD8DFE805F0020204070A2404E006F199
:106150000B0401E006F1150460B270BD941200500A
:1061600018130050A010005080B5FFF797FF0428C7
:1061700004D1FFF7D3FF142800DB01BDFEE70022A6
:106180000A6043684B604268002A14BF11600160D6
:1061900041607047002200F053BE01700A0A0B0CE8
:1061A000090E42708370C170001D7047DFF800F067
:1061B00021D40210F8B504460B480C4F0668F86964
:1061C0000D4650F82510B1420AD1094800902946E1
:1061D0002046FFF7EBFFF86950F82510B14201D1D6
:1061E0000020F2BD2046F2BD1C120000501100201C
:1061F00008180020102803D302491038C1F8000FF6
:10620000704700BF00E000E0DFF800F011DC021092
:1062100070B5044600F048FE0646A08A0025012815
:106220000AD1FFF7F1FF0546E068A168451BA942C6
:106230003EBF2069A8420025304600F036FE2846C1
:1062400070BD0000DFF800F019D7021010B5044649
:10625000034BFFF7F7FFA06800B90024204610BDEC
:106260000818002001488068704700BFE410002033
:10627000DFF800F091D8021038B504460D4600F062
:1062800021FE616A0D43656200F01DFE2046BDE8F7
:106290003240FFF7EDBF000070B50D4615F1010F5C
:1062A000044608BF052500F00DFE06460120A84063
:1062B000A06165612946054A506900F001FEA062AF
:1062C0003046BDE8704000F0FEBD00BFE410002085
:1062D00030B51C4B1A685B6D0021C50704D5D40787
:1062E00001D45B0700D50121830703D5540804F0CE
:1062F00001042143400703D5920802F00102114333
:1063000009B1012030BD022030BD30B50D4B1A68F7
:106310005B6D0121C50704D5D40702D45B0758BFC4
:106320000021830703D5540804F0010421404007ED
:1063300003D5920802F00102114009B1012030BDDD
:10634000022030BD40210840DFF800F04DEA021085
:10635000DFF800F045DF021030BF704770B500F085
:106360003DF9354C206941688847FEF7B5FC054684
:1063700005F00C000C2804D1AFF30080FFF7ECFF10
:1063800040E0680725D400F0C9FD06460121012040
:10639000FEF7A6FC2949096801FB06F2904218D2D3
:1063A000F020B0FBF1F0264C311A04F10C00FEF79E
:1063B00041FB04F10C00FEF741FBAFF3008001202C
:1063C000FEF74BFEAFF3008004F10C00FEF72EFB4E
:1063D0001AE0AFF30080280712D4216819488A68B0
:1063E00090470428F9D0E90600D408B9012000E05C
:1063F000002000F02DF8144801210160006801E040
:10640000FFF7AAFFAFF30080BDE8704000F0EAB8E4
:1064100010B50E4CFFF798FF2060FEF7FBFB6060A5
:1064200010BD10B5094C6068FEF7F8FB2068BDE8A8
:106430001040FFF78DBF0000D80100106CD10100A3
:10644000B81A0020004003402C2009408435002069
:1064500010B55149514C08605148026842F003029E
:106460000260202021688A6990474E4801682268AE
:10647000906BBDE8104000472DE9F843054688467B
:106480009146002000F059F84748464F434C474E8C
:106490000021016027203A6821688A699047716964
:1064A0004348014071614FF48060F16D21F48071C7
:1064B000F16521680A6B904721680A6B4FF481608F
:1064C000904721680A6B4FF4C06090473949324ABF
:1064D00001200860C2F80080012337480360374874
