:100000000040012019C8010039FB021039FB021021
:1000100039FB021039FB021039FB021039FB0210C8
:1000200039FB021039FB021039FB021039FB0210B8
:1000300039FB021039FB021011FB021001700A0A91
:100040000B0C090E42708370C170001D70471200C6
:10005000018301000143C5A70D6347D515B0070112
:100060000038140020C5A700016110610821441068
:100070000388C40100A80412C804A3E8C4564120A0
:10008000122004E00698B70100B8B7010001F001A2
:100090002011B0000110030D2000800E04D2FE3BA1
:1000A0001003658B00007B044004EF8E0000ADC997
:1000B0006C92062410081812002020B50100D4BD4F
:1000C0000412C5201002C101007C1470020308470D
:1000D00041F61002020304070DF0014CFFFF00017E
:1000E00013A781B01104800C53696D706C652043B7
:1000F000656E7472616C741005ECC6040000EEC885
:10010000BF13F1CA051005F4CC0A0000F6CF0513A1
:10011000F7D005100BFAD4100000FBD6120000FD3A
:10012000931835135328BA12560510180259320085
:1001300000035D38000004634E00000517720000E4
:100140007FFFFF3F000B261037D388F30024602089
:100150002E6302280128530000A38408005B00A33B
:100160001E8386050005400140303C183864403C41
:1001700000E387E70003089500F387F40023082ACB
:1001800001211C2016005F0041410104C044DD072D
:1001900000738C0D00738B1F00610304C0B212FF4B
:1001A0000180062053C003A30253010C2004F10078
:1001B000A460007D10400287340101143003E6067C
:1001C0009C601B30F50F601A307C210461262403EB
:1001D0000DC6010003983300141312501C21045261
:1001E000580483C0105045FA100101007418F2063B
:1001F000741C129018210452980452A00452A804AE
:100200006388C02A10010000BC10210452C40443BA
:10021000A41004211CA9D23001A3DF026A12EC242D
:10022000210452F40452FC0443041504520C0452F9
:10023000140470013DC502A2D40305000000201B78
:10024000436C15131244082104524C0452540452B6
:100250005C04526404526C04527404527C048300A3
:1002600000B0620464155543F0231C8339EC8861A7
:1002700001EDB20312C848210452D00452D80452EE
:10028000E00452E80452F0042178131BF667F300EF
:10029000080001F002033CC9010001D2342CF00136
:1002A00010100A0001F3FFFF0001F12101A58EF6F5
:1002B0000E015010031D5500007D0453E7542931F1
:1002C00031330A0408F00305771001000241F85E9B
:1002D0004FBD1A3CCDA6B8995899B740EB7B60FF4B
:1002E0004A503F10D2E3B3C974385FC5A3D4F6496E
:1002F0003FE69D350E480103CCDBFDF4AC1191F4D3
:10030000EFB9A5F9E9A7832C5E2CBE97F2D203B012
:10031000208BD28915D08E1C742430ED8FC245639A
:10032000765C15525ABF9A32636DEB2A65499C8000
:10033000DC071004DFB200000FB5EF33BA00E3436F
:100340005EA3FB4344C9F34312B0102002251A00F8
:10035000201083A0D99221101242402DC80443C816
:100360002F20A140210847E9177A12ED082C0A1C1A
:1003700000A00164241844BC06200CF60410051AE1
:10038000FDFF005000A00AA3E8033CD24C7C522B96
:100390007C4376BE10431431106120522C2043124E
:1003A000C010C3283320522D204382C110C34819E6
:1003B00020522E2043E6D610C32F1A20523010535D
:1003C00022D7DC11607C01FA0006A3031F4500045C
:1003D0000635061202F511221002100002772B00DA
:1003E0000B0120FFFF07FE100A0A02020102520061
:1003F00001100790110020141500200111C3010005
:10040000012002CC14002004D2000153FF7F1260AF
:10041000016CDC021C127C2852030DF00401EBD4A9
:10042000000031D550210143441550A11CA10CF30B
:1004300001C8157052F8141234AC2104523C04D295
:100440000829F0080024330020D82D0020DC2D449A
:1004500023200165F10118350000020010000000A2
:0B04600002C01300000002801000200A
:1010000001000000000000000000000000000000DF
:10101000FFFFFFFFEC1400200400000000000000B0
:10102000000000001400000070C60100180000005D
:10103000DCC80100C01000005814002004000000AB
:1010400000000000000000002400000058C601005D
:1010500018000000EDD3000008000000B0110000EF
:1010600074100000C1C8021001BB021091EB021005
:10107000DDE5021081E00210B9E5021071E5021011
:101080002E00000001000000010000007CC90100EA
:1010900000000000FFFFFFFFC41400200400000058
:1010A00000000000000000002800000010C2010045
:1010B00024000000210000001800000000000000D3
:1010C00028130000D41000009BEC021025E202104F
:1010D00005EB021025DE0210FDE10210E1E4021032
:1010E000330000003400000025002900000000004B
:1010F00038140020FFFFFFFF0C1500200400000043
:10110000000000000000000038000000B0C0010036
:101110002800000001000000100000000000000096
:1011200000000000F7F1021000001A00100000009B
:101130000400000078C70100DE3201000800000052
:1011400036000000CC1400201415002009002000F7
:101150001F0A0100601400200100000000001200BE
:10116000FFFFFFFFFC14002004000000000000004F
:10117000000000001000000088C6010018000000F8
:101180000000000000001300FFFFFFFF74150020A7
:1011900004000000000000000000000054000000F7
:1011A0001CBA01003C0000000000010031000000FA
:1011B00004100000FB1701002D00000000000000DB
:1011C000B0110000D811000059D20210D9DB021072
:1011D00059EC0210CDD6021085DE02104DE502104A
:1011E00029E502102D00000000001600000000009C
:1011F00000000000FF7F00007C150020FFFFFFFFC4
:10120000F4140020040000000000000000000000B2
:101210005800000030BC01003400000039FB02100F
:101220000100330006000000000000002000000064
:10123000010000001BF80210280000002813000025
:101240005012000093EC02106DEB02104DEC0210F6
:1012500029E00210BDE4021099E402103100000000
:1012600000000000A01400200400000000000000A6
:101270000000000010000000CCBE01002C000000A7
:10128000000000000000030000000F003C00000010
:1012900000000000000000002FF902101000000004
:1012A0000800000000C70100FFFFFFFF0415002039
:1012B0000400000000000000000000001C0000000E
:1012C00034C20100240000003C1200005014002031
:1012D0000400000000000000000000000C000000FE
:1012E00028C60100180000001F1F010000000000B8
:1012F00000000000080000000100000004000000E1
:10130000000000000000140000000000A0C6010062
:10131000000019000000180024000000A5C9010009
:101320000040000000020000041000000000100057
:1013300055F002100C00000023D400000000000053
:101340003014002004000000000000000000000035
:1013500020000000A4BD010030000000B8C601005C
:1013600001000000E3D4000083170100000000002A
:1013700000001700000200002E0000000000230003
:101380000000150001000000C0110000BC14002086
:101390000400000000000000000000002000000029
:1013A000ECC1010024000000C8D60000B0140020E9
:0E13B00020000000D8C001000A05808A7047A6
:1013C00065D3000077D500007BD500007FD50000F5
:1013D00083D5000087D500008BD5000079AA0100D5
:1013E00099BC010041B6010071BD010099C5010021
:1013F000E5BF01000DC60100B9BF0100E9C601004B
:1014000051C70100D5B40100DFF82C1791F8330063
:101410000022030604D4582010FB02F288187047FB
:1014200091F88B0001220306F5D591F8E300022222
:101430000306F0D591F83B0103220306EBD591F8A2
:10144000930104220306E6D591F8EB010522030679
:10145000E1D591F8430206220306DCD591F89B0200
:1014600007220306D7D5002070472DE970430646B2
:1014700014461D4603F08BFA6EB1D6E90A232243C7
:101480002B43C6E90A23D6E9088948EA040449EA55
:101490000505C6E90845BDE8704303F0A4BA30B5B8
:1014A00081B004460D4602F087FDA04231BF241AE8
:1014B000641E241A641CA40805F57A70A04238BF83
:1014C000B4F1405F06D2641B012C98BF0124204672
:1014D00001B030BD002001B030BDF0B5DFF85836A6
:1014E00004460025D3F85003012981B022D100E041
:1014F0000068002844D0C668377B07F00F07022F2A
:1015000018D0006800283BD0C668377B07F00F076B
:10151000022F0FD0006898B3C668377B07F00F071B
:10152000022F07D0006858B3C668377B07F00F0753
:10153000022FDDD120B3012502B11060C268167BF5
:1015400006F00F06022E1BD10269012903D1D168D2
:10155000128D891807E01169D68A8E1993F8221323
:10156000192212FB0161406BFFF799FF206003F025
:101570009CFA2168B1FBF0F0206001B02846F0BD74
:101580000020206001B02846F0BDF0B581B00446CF
:1015900003F0FDF90546002C1CBFA07A002833D0CB
:1015A000DFF8983594F909001E680122F70702FA5E
:1015B00000F10ED5DFF888351B681E0609D5DFF867
:1015C00084355E68113002FA00F0C04306405E6068
:1015D00018600020A072207220606060C4E90400DE
:1015E000DFF85435A06194F9090093F82063824034
:1015F000324393F8220383F8202310B1401E83F86E
:101600002203C8B200F063F9284601B0BDE8F040FB
:1016100003F0E9B9000000002DE9F047002611248D
:10162000DFF82055DFF810954FF00108F0B20328DD
:1016300048DA09EB401000F53077B97A012941D139
:1016400097F90900113008FA00F0C14329606A686F
:101650001043686097F9090008FA00FA03F097F957
:1016600099F894134AEA010189F8941303F0BBF93D
:1016700099F88403022817D107F1100003F038FA13
:1016800000F0FF0001280FD1B86948B199F8841320
:10169000022909D103F02CFA00F0FF00012803D140
:1016A0000220B8720EE000BF99F8210397F90910E3
:1016B00004FA01F1084389F82103002109F57F703C
:1016C00003F0F9FA761C032EB0D3BDE8F08730B5ED
:1016D000042881B020D1DFF8604404F24C4003F0CC
:1016E000E9F9C8B103F0E1F9054604F24C4003F012
:1016F000DFF94543B5F5967F0ED204F24C4003F076
:10170000ECF9052003F042FC012084F89103042148
:1017100004F56B7003F0CFFA002001B030BD70B556
:10172000044603F034F9DFF81064054696F84C03DC
:1017300020EA040486F84C430024D6F8280320B19C
:10174000B03003F0B7F900B10124D6F82C0320B172
:10175000B03003F0AFF9044319D196F84C030028D8
:1017600008BF002C13D1D6F8480380B190F824109C
:101770008A070CD5046A284603F035F9D6F84803E1
:1017800000220221A0470020C6F8480370BD284669
:10179000BDE8704003F027B9F0B400290CBF012365
:1017A0000023002A0CBF01250025002839D02C0079
:1017B00004BF90F84440002C33D000291CBF91F89E
:1017C0004440002C12D0446B0E6C07690969A408D0
:1017D000A4EB96040026B94218BFFE68A41B04F1CE
:1017E0008054B4F1805F88BF012301D8190018D05C
:1017F000BAB1D1680C7B04F00F04022C11D1516BEB
:10180000046C126900698908A1EB940100249042DC
:1018100018BFD468091B01F18051B1F1805F88BF06
:10182000012503EA0500F0BC7047F0B581B01E4603
:101830006FF002078DF80070054634682246FFF706
:10184000ABFF10B101208DF800009DF90000B842F7
:1018500001BFE968087B00F00F0002280CD100E00E
:1018600024684CB1226821462846FFF795FF0028DE
:10187000F6D002208DF800009DF90010B94204D185
:10188000E86B10B104218DF800109DF90070012F54
:1018900006D12946304603F080FF384601B0F0BD3E
:1018A000022F09D12268002A2946304608D003F0C9
:1018B0004CFF384601B0F0BD042F03D12946304615
:1018C00003F056FF384601B0F0BD0020704730B538
:1018D00081B0044603F05BF80546974890F89413EE
:1018E00021EA040480F8944390F89423110704D467
:1018F000082100F56B7003F0DEF9284601B0BDE861
:10190000304003F070B82DE9F04FDFF83CAC81B007
:101910009AF88413022905D101B0BDE8F04F1920CF
:1019200003F042B89AF8840301281CBF9AF8840394
:1019300004287BD003F02BF800900026DAF850033F
:101940000024C0B1C1680A7B012402F00F02022A00
:1019500011D101690A69C98A9AF82233406B51187A
:10196000192212FB0311FFF79AFD054603F09DF8BB
:10197000B5FBF0F800E0B04600254FF0FF39002736
:10198000F8B203281EDA0AEB401101F53072907AA2
:10199000C0B1107A012502281DD0DAF89803016938
:1019A000C08A9AF822330918192010FB03115069D4
:1019B000FFF775FD834603F078F8BBFBF0F0484570
:1019C00098BF81467F1C022FDAD92C4205D04646AB
:1019D0004E4507D905E0B146F7E70CB1464601E0B0
:1019E00005B14E462C4317D066B1012E98BF012693
:1019F00031460AF24C4003F06CF80AF24C4003F016
:101A00006AF80DE00AF24C4003F067F804210AF589
:101A10006B7003F050F903E00AF24C4003F05DF8FC
:101A2000009801B0BDE8F04F02F0DDBF01B0BDE8A5
:101A3000F08F70B586B001460022039201920492A5
:101A400002920025487DDFF8042B136803F440233D
:101A5000B3F5802F05D1DFF8F82A13689C0358BF2F
:101A600001258C680022628040F6020623889B1BB9
:101A700009D041F21E069B1B05D041F6E6769B1B62
:101A8000012B0FD91CE0238A4FF6FF32134023822B
:101A9000002819BF4FF60F4003402D2060F30913B3
:101AA00023820DE0238B4FF6FF321340238300285F
:101AB00019BF4FF60F4003402D2060F30913238315
:101AC0000020487502AE009604AB01AA03A9204687
:101AD00002F03BF850B1039801884FF6FF72914233
:101AE00004D10299019801F0A2FF03E00299019844
:101AF00001F0E3FFEDB1019C04B9FEE750234FF67E
:101B0000FF720B21204603F01DF80546502D10DA18
:101B100003F082FF04F047FA0749DFF8382AC1F8DA
:101B2000A8031368D9688847000440F00B0044F804
:101B3000250006B070BD0000881E0020402108402E
:101B400000000440081004402DE9F04784B000254F
:101B5000DFF8F4890395D8F850630295002E64D01D
:101B6000D8F86403002804BFD8F86003002840D1E7
:101B7000012585F0010903AA494602A8FFF7ADFC3B
:101B8000040054D1DFF8D0094768002F18BF002C9B
:101B900000F005830298002840F00183D8F8641310
:101BA00003980190CDF8009008F55673D8F86003BB
:101BB00008F55472B847012800F0C481022840F0AB
:101BC000EE82D8F86003D8F86013B0F930400D69A0
:101BD00002F0DDFE4FF0FF318C42019047D1D8F882
:101BE0006003002837D00069A84234D1D8F8606378
:101BF00093E0D8F860030028BBD0D8F860030169EF
:101C000030698142B5D196F83310C806B1D50125A7
:101C1000D8F86003C16848880028F9D0D8F8600374
:101C2000C16848880128F3D0A3E702213FE3002DD3
:101C3000A8D102980028A5D00146022938BF012169
:101C400008F24C4002F045FF08F24C4002F043FF1E
:101C500004B0BDE8F087D8F8640328B10069A84251
:101C600008BFD8F8646358D0D8F8506355E0B8F985
:101C700030000021A04202BFD8F810300093AB42E0
:101C800046D0B8F988000121A04202BFD8F86830D8
:101C90000093AB423CD0B8F9E0000221A04202BF61
:101CA000D8F8C0300093AB4232D0B8F938010321E4
:101CB000A04202BFD8F818310093AB4228D0B8F93F
:101CC00090010421A04202BFD8F870310093AB42CA
:101CD0001ED0B8F9E8010521A04202BFD8F8C831EA
:101CE0000093AB4214D0B8F940020621A04202BFD3
:101CF000D8F820320093AB420AD0B8F998020721F5
:101D0000A04202BFD8F878220092AA4240F018817F
:101D1000582010FB01F108EB0106002E00F01081A5
:101D200096F83300010640F10B81D8F86003864233
:101D30001CBFD8F864138E426AD0D8F850434FF0D5
:101D4000000A00E02468002C00F0FA80B44211D0B0
:101D50002468002C00F0F480B4420BD02468002CDE
:101D600000F0EE80B44205D02468002C00F0E8803A
:101D7000B442E7D120692768A84234D102F007FEB7
:101D8000D4E90A2343F08051C4E90A210AF1010A87
:101D9000D4E9082343F08051C4E9082102F023FE6E
:101DA00002F0F5FDD4E90A2343F08071C4E90A2169
:101DB000D4E9082343F08071C4E9082102F013FE3E
:101DC00098F84C133069C8F8480341F0010188F8CD
:101DD0004C1308F55470214603F0F4FC214608F535
:101DE000567003F0C5FC3C00C4D1BAF1000F1FBF10
:101DF00098F88403012898F88403042800F0A08050
:101E0000DFF8241C08F56B7002F055FF0198F1E132
:101E1000D8F8600300224FF00053FFF726FBD8F8F4
:101E2000640300224FF00053FFF71FFBDFF8FC0BA9
:101E300002F05EFED8F8604302F0A9FD5CB1D4E97F
:101E40000A2343F08071C4E90A21D4E9082343F04E
:101E50008071C4E9082102F0C6FDD8F8644302F09D
:101E600096FD5CB1D4E90A2343F08071C4E90A21EC
:101E7000D4E9082343F08071C4E9082102F0B3FDDE
:101E800098F84C133069D8F85063C8F8480341F00B
:101E9000010188F84C13344600E02468002C4FD030
:101EA000B4420ED02468002C4AD0B44209D0246831
:101EB000002C45D0B44204D02468002C40D0B44259
:101EC000EBD1002C3CD020692768A84236D102F023
:101ED0005EFD0246D4E90A0141F08053C4E90A03D9
:101EE000D4E9080141F08053C4E90803104602F028
:101EF0007AFD02F04CFD0246D4E90A0141F08073FC
:101F0000C4E90A03D4E9080141F08073C4E9080375
:101F1000104602F068FD98F84C133069C8F8480381
:101F200041F0010188F84C1308F55470214603F084
:101F300049FC214608F5567003F01AFC3C00C2D15A
:101F4000019857E1039800B10646B6F9304035696B
:101F500002F01DFD4FF0FF318C42074614D1D8F836
:101F6000600328B10069A84208BFD8F8606361D057
:101F7000D8F8640328B10069A84208BFD8F86463A0
:101F800058D0D8F8506355E0B8F930000021A0428D
:101F900002BFD8F810300093AB4246D0B8F98800A1
:101FA0000121A04202BFD8F868300093AB423CD078
:101FB000B8F9E0000221A04202BFD8F8C030009377
:101FC000AB4232D0B8F938010321A04202BFD8F8A1
:101FD00018310093AB4228D0B8F990010421A042F7
:101FE00002BFD8F870310093AB421ED0B8F9E801B7
:101FF0000521A04202BFD8F8C8310093AB4214D0EB
:10200000B8F940020621A04202BFD8F8203200935E
:10201000AB420AD0B8F998020721A04202BFD8F813
:1020200078220092AA4240F0B880582010FB01F1BB
:1020300008EB0106002E00F0B08096F83300010690
:1020400040F1AB80D8F8600386421CBFD8F8641317
:102050008E4261D0D8F8504300E02468002C00F094
:102060009C80B44211D02468002C00F09680B442C9
:102070000BD02468002C00F09080B44205D0246876
:10208000002C00F08A80B442E7D12069A84240F0D9
:10209000848002F07CFCD4E90A2343F08051C4E937
:1020A0000A21D4E9082343F08051C4E9082102F051
:1020B0009AFC02F06CFCD4E90A2343F08071C4E975
:1020C0000A21D4E9082343F08071C4E9082102F011
:1020D0008AFC98F84C133069C8F8480341F00101B4
:1020E00088F84C1308F55470214603F06BFB214629
:1020F00008F5567003F03CFB98F8840301281CBFD8
:1021000098F88403042848D0DFF81C1908F56B7090
:1021100002F0D1FD38466DE0D8F8600300224FF0A0
:102120000053FFF7A2F9D8F8640300224FF00053E0
:10213000FFF79BF9DFF8F40802F0DAFCD8F8604307
:1021400002F025FC5CB1D4E90A2343F08071C4E9B4
:102150000A21D4E9082343F08071C4E9082102F080
:1021600042FCD8F8644302F012FC5CB1D4E90A23C3
:1021700043F08071C4E90A21D4E9082343F0807157
:10218000C4E9082102F02FFC98F84C133069C8F814
:10219000480341F0010188F84C1338462AE0002D2D
:1021A00000F089803069D8F89813884218BF4FF43E
:1021B00080617CD1002C1CBF029800281FD0D8F869
:1021C0006003002804BFD8F86403002817D102F088
:1021D000DEFB044698F8940300F0F70088F89403B7
:1021E00098F89403010704D4082108F56B7002F0F5
:1021F00062FD204602F0F7FB04B0BDE8F08702F074
:10220000C6FB98F8941341F0080188F8941302F083
:10221000EAFB96F83300C10608F5547004D503F0C4
:1022200080FAC8F8640303E003F07BFAC8F860039F
:10223000D6E90601DFF8544BC043A060E268D6E956
:1022400006010243E260D6E90623DB4323606768A8
:10225000D6E906010F436760DFF8B87C7D68F46853
:102260002B46180007D0387A010704D5D8F8980310
:10227000324608219847204602F03AFC208840F672
:102280000201401A08D041F21E01401A04D041F662
:10229000E671401A012808D83DB1387AC10704D543
:1022A000D8F8980322460121A8474FF0804108F54D
:1022B0006B7002F000FD04B0BDE8F0872DE9F04F2F
:1022C000DFF88492DFF8500C81B0D9F8608302F017
:1022D0008EFC0646DFF8A40C0468076804F02004AE
:1022E000344018BFB8F1000F07F4602716D0C9F8C2
:1022F000688302F04CFBD8E90A232343C8E90A2388
:10230000D8E908AB4BEA0405C8E908A502F06BFB65
:102310004FF4804109F56B7002F0CDFC3E400DD0CA
:1023200099F8211341EA564089F8210301B009F5D3
:102330007F70BDE8F04F002102F0BDBC01B0BDE8E8
:10234000F08F2DE9F043DFF8009281B099F8210376
:10235000002400284CD099F821030026C1073DD560
:1023600099F821031021B140084218BF012402F05E
:102370000EFB99F821131122B240914389F82113E1
:1023800002F031FB032E33DA09EB461101F530720E
:10239000907A68B392F90980DFF8E41B01EB8801B9
:1023A000002C0D681668576804BF107A022803D104
:1023B000D2E90401C30009D41046FFF7E6F82CB1B6
:1023C0000020009000224FF0007303E000950022EF
:1023D0004FF0006341463046B84709E099F82103C1
:1023E00001268107BCD499F8210302264107B7D4FE
:1023F00099F8210338B109F57F7001B0BDE8F043C9
:10240000002102F058BC01B0BDE8F0832DE9F04393
:102410000FF2481285B0D2E90034CDE900344FF410
:10242000804002F05FFB4FF00008F0B1DFF8540B82
:10243000D0F813100078C1F31501800841EAC0718B
:102440004148D0F89833986802AA01F021FC3E4830
:10245000DFF8C01AD0F898034B6882681C0004D0DB
:102460000C7AE10744BF012198476E464FF00209FC
:1024700037683868002855D03868D0E9060102F07E
:1024800031FB3D680021CDE90201044602F07FFAEC
:1024900084467DB1D5E90A23DDE9020110431943E1
:1024A000C5E90A01D5E90823DDE902011043194312
:1024B000C5E90801604602F096FA14F00A0F2AD026
:1024C0003868DFF8B81ADFF8C03A8A68DFF8AC4A33
:1024D000D0E9060118408243A26038682368D0E939
:1024E00006018B4323603A68DFF8280A4368190025
:1024F00007D0017AC80604D5134CD4F898031021EC
:1025000098473968DFF8840A03F032F90020386010
:1025100048F0020806E02CB138680B49C1F868039E
:1025200048F48048361DB9F10109A1D15FEA0801DC
:102530001CBFDFF85C0A02F0BEFBFFF76DF8FFF787
:1025400003FB05B0BDE8F083881E0020B44F0050A7
:102550008C130050E001001034C90100E821002074
:10256000EC2100202DE9F04F81B00646994603F09A
:102570001AFDDFF8207AD7F8A813884200F05981B5
:10258000DFF8142AC7F8A8031168CB68984780467B
:1025900097F8840302281CBF97F88403042840F0AE
:1025A0004881D7F86003002804BFD7F864030028E7
:1025B00000F03281D7F86003D7F86013B0F93040EB
:1025C000D1F810A002F0E3F94FF0FF318C428346BE
:1025D00014D1D7F8600328B10069504508BFD7F877
:1025E00060535ED0D7F8640328B10069504508BF36
:1025F000D7F8645355D0D7F8505352E0B7F930109C
:102600000020A14202BF3B690093534545D0B7F972
:1026100088100120A14202BFBB6E009353453CD0FD
:10262000B7F9E0100220A14202BFD7F8C0300093F2
:10263000534532D0B7F938110320A14202BFD7F871
:1026400018310093534528D0B7F990110420A142C6
:1026500002BFD7F87031009353451ED0B7F9E81187
:102660000520A14202BFD7F8C8310093534514D0CA
:10267000B7F940120620A14202BFD7F820320093DA
:1026800053450AD0B7F998120720A14202BFD7F8E4
:1026900078220092524540F0BC80582111FB00F096
:1026A0003D18002D00F0B58095F83300010640F18B
:1026B000B080D7F8600385421CBFD7F864138D4201
:1026C00063D0D7F8504300E02468002C00F0A180CC
:1026D000AC4211D02468002C00F09B80AC420BD09F
:1026E0002468002C00F09580AC4205D02468002CB2
:1026F00000F08F80AC42E7D12069504540F08980DE
:1027000002F045F90246D4E90A0141F08053C4E9D8
:102710000A03D4E9080141F08053C4E908031046D4
:1027200002F061F902F033F90246D4E90A0141F0FE
:102730008073C4E90A03D4E9080141F08073C4E955
:102740000803104602F04FF997F84C132869C7F8B0
:10275000480341F0010187F84C1307F554702146F6
:1027600003F030F8214607F5567003F001F897F8AA
:10277000840301281CBF97F88403042849D0AA4980
:1027800007F56B7002F097FA43E0D7F86003002278
:102790004FF00053FEF769FED7F8640300224FF0B4
:1027A0000053FEF762FEA14802F0A2F9D7F8604399
:1027B00002F0EDF802465CB1D4E90A0141F0807301
:1027C000C4E90A03D4E9080141F08073C4E90803AD
:1027D000104602F008F9D7F8644302F0D8F8024630
:1027E0005CB1D4E90A0141F08073C4E90A03D4E979
:1027F000080141F08073C4E90803104602F0F3F8C1
:1028000097F84C132869C7F8480341F0010187F88D
:102810004C13584602F0E7F84FF6FC7000EA080047
:1028200040F0C16040F00101D7F89803002201F0A8
:10283000C3F800210091F21EF61C4846DFF85C3711
:1028400012B231B203F0F1F800B1FEE701B0BDE819
:10285000F08F30B5DFF83C4781B0B4F96C03B4F9C0
:102860006E13884217D102F092F8054694F894034B
:1028700000F0F70084F8940394F89403010704D45B
:10288000082104F56B7002F016FA284601B0BDE885
:10289000304002F0A8B801B030BD0720FEF73FBFBE
:1028A0002DE9F041074682B0D7F8A060884614466B
:1028B0001D4606B1B047D7E926012040294008BF90
:1028C000002800F08E80DFF8CC56B5F93060002487
:1028D000464502BF2A690092BA4203D195F83320D7
:1028E000160663D4B5F988600124464502BFAA6E76
:1028F0000092BA4203D195F88B20160656D4B5F94A
:10290000E0600224464502BFD5F8C0200092BA42DA
:1029100003D195F8E320160648D4B5F938610324AD
:10292000464502BFD5F818210092BA4203D195F866
:102930003B2116063AD4B5F990610424464502BFFE
:10294000D5F870210092BA4203D195F8932116066A
:102950002CD4B5F9E8610524464502BFD5F8C82155
:102960000092BA4203D195F8EB2116061ED4B5F9B0
:1029700040620624464502BFD5F820220092BA42A2
:1029800003D195F84322160610D4B5F998620724AE
:10299000464502BFD5F878220092BA4203D195F895
:1029A0009B22160602D4C7E92A0110E0582616FB1E
:1029B00004F4C7E92A012C44D4E9082322EA0000E0
:1029C00023EA0101C4E90801D7F8A050A56000205E
:1029D000C7F8A00002B007F14800BDE8F04103F0DD
:1029E000A4BB02B0BDE8F081704700B581B002F031
:1029F00057F9DFF8A0250146D2F89803D2F88823CA
:102A000001B05DF804EB1047DFF888050FF2915232
:102A1000D0F88813914208BFFEF775BF042100F576
:102A20006B7002F048B90000020000400100010490
:102A300030B581B04FF0FF3002F054F8DFF8545554
:102A40000FF25D510446D5F88803884232D1002246
:102A5000DFF8F81B05F5787001F0A8FF022085F873
:102A60008403D5F898138A6801F1300300E0024628
:102A7000506890B198421EBF0246506800280CD0A2
:102A800098421EBF02465068002806D098421FBFD9
:102A90000246506800289842E9D1507B10F00F0F91
:102AA00002BF488E40F60901884203D0FEF7B4FD0C
:102AB000FFF74AF8DFF8680C044208D005F56B70A0
:102AC00001B0BDE830404FF0005102F0F4B801B061
:102AD00030BD00B581B04FF0FF3002F003F8800741
:102AE00008D501B05DF804EB4FF40061DFF8A004F5
:102AF00002F0E1B801B000BD2DE9F041DFF89474B7
:102B0000D7F85863002E00F0AB80F068082140F63B
:102B1000040240F6030301E04068491E68B1CCB2EC
:102B20005CB104889C4218BF9442F5D1316901F12F
:102B300030021AC81AC21AC81AC2D6E90A450022B7
:102B4000C6E90A22B068D0B115F0E24310D024F0F3
:102B50000F0235F0E24308BF002A05D0B6F9301065
:102B60003069D6F808C0E04704F0000405F0E245FB
:102B7000B6F9301030692246B4682B46A04701F000
:102B800006FF0446B7F86E03401CC0F30B00A7F81D
:102B90006E036FF00201002086F83300318607F5DE
:102BA000567002F0BEFD204601F01DFFB7F96E031E
:102BB000B7F96C13884253D1D7F89823D7F8286314
:102BC000D7F82C5392F8F4100024A046052001B148
:102BD0000720FEF7A4FD2EB196F8F40000B9346882
:102BE00086F8F4803DB195F8F40008B9D5F8008076
:102BF000002085F8F400444538BF4446E4B9B7F9ED
:102C00006C03B7F96E1388422AD101F0C0FE044666
:102C100097F8940300F0F70087F8940397F894036B
:102C2000010704D4082107F56B7002F044F8204630
:102C3000BDE8F04101F0D7BE14F1010F10D001F052
:102C400034FFB4FBF0F1012998BF012107F5926030
:102C500001F03FFF07F59260BDE8F04101F03BBF96
:102C6000BDE8F081CB4A92F884130020022904BF0A
:102C7000D2F86013002903D1D2F8641301B90120FE
:102C8000704730B50D46A80781B0C24C12D5FFF78A
:102C900033FFD4F8580340B145F0020104F56B70DE
:102CA00001B0BDE8304002F006B801B0BDE83040E8
:102CB000FEF729BE680767D5012184F89613042022
:102CC00002F064F9DFF85C0A01680A6B9047C4F807
:102CD0009C03D4F8500398B10569D4F898030028F0
:102CE00018BFA8420AD095F82400410704D52B6AE2
:102CF000002204212846984701206875C4F898539B
:102D0000D4F898034168DFF8200A0A7802600220AC
:102D100002F03CF9112002F04EF9012084F88403FE
:102D20007C49887810B90E2002F045F9D4F8980350
:102D300041688868002804BFC868002806D0DFF80A
:102D4000AC0CDFF8402C0021C16102600720DFF8E5
:102D5000641C08600021DFF8940C426941618269BB
:102D60008161426942F0402242F0020242610FF268
:102D70002100C4F888031A2001F00BFE01B0BDE861
:102D80003040192001F005BE01B030BD08100440EC
:102D90002DE9F0430446880081B040F1B780DFF8A8
:102DA000F481D8F89803416848688E68CF680100BC
:102DB00018BF80473000DFF8345C01D138000ED0F6
:102DC000E8690028FCD00021E961300018BFB04755
:102DD000380018BFB847DFF8180C01F089FE002052
:102DE000E86140F60A09DFF80C1C2960A8F8709326
:102DF000A8F8720398F87C1301F0F00188F87C13AE
:102E0000C8F87403204698F87D1301F0F00141F0F2
:102E1000010188F87D13FEF70CFEA668374640F6E0
:102E2000040140F6030200E00746786828B10388F1
:102E30004B451CBF93428B42F6D17B7B08F55C70FF
:102E4000786003F0F0037B73D8F85003D8B1C06802
:102E50000088904218BF884215D10021C8F89C1301
:102E6000E8690028FCD00021E9610FF2351298F8DA
:102E70009103C8F8882328B302F078FA0028FBD021
:102E800002F091FA2FE0208E0028E9D0002161861F
:102E9000616394F83D0094F83C1000F0F00040F0BD
:102EA000010084F83D0001F0F00184F83C1004F1C9
:102EB0003000C8F8740398F87D1301F0F00188F829
:102EC0007D13CDE734490A6813680120984701282B
:102ED00009D0787B00F0F00040F0010078730FF229
:102EE0003D00C8F888030021E9612E60DFF8080B77
:102EF000436819000AD0007AC10707D5D8F89803AB
:102F0000324601B0BDE8F0430121184701B0BDE8E9
:102F1000F083000040C8010020000E00DFF8DC2A2A
:102F2000114200D1704710B51B490A68136801208F
:102F3000984701280DD1DFF8C80A0FF26501C0F8E3
:102F400088130022DFF8A41ACA6100F55C700860DB
:102F500010BD01F0AAFD3221B1FBF0F10129DFF82B
:102F6000A04A98BF012104F24C4001F0B2FD04F2E6
:102F70004C40BDE8104001F0AEBD00000C10044014
:102F80009430044085030021FDBFFFFFE0210020B5
:102F900034220020881E0020E0010010652500007A
:102FA0002DE9F04F044688465FEA484083B0DFF8D9
:102FB000509A2CD501F0EBFCD9F8686316B3D6E92A
:102FC0000A2302F00A0413F0E04508BF002C19D1CF
:102FD000D6E90A45D6E90A23A243AB43C6E90A2348
:102FE00001F001FDB06878B1002D08BF002C0BD0B6
:102FF000B6F9301030692246B4682B46A04728F451
:10300000804815E301F0EFFC28F4804810E35FEA04
:10301000880040F18280DFF8EC09D0F88C1041F094
:103020008001C0F88C1099F8960328B1042001F0B3
:1030300042FF002089F8960301F0A9FCDFF8E4A61E
:10304000DAF854100A6805460420904700281CBF8F
:10305000207D00281FD0D9F89C03E0B10746DAF89C
:1030600000002669016B8847874231BFC71B401E9D
:10307000C71B7F1C3F0BB742276102D2F6197608A7
:10308000266140F699012069A0F59670884224BF18
:1030900040F6C4102061284601F0A5FCD9F8981329
:1030A0008A6801F1300300E00246506890B198420E
:1030B0001EBF0246506800280CD098421EBF024630
:1030C0005068002806D098421FBF0246506800286A
:1030D0009842E9D1507B10F00F0F02BF488E40F6A6
:1030E000090290420FD1E56900224FF000736FF49E
:1030F00080712046A847D9F8500310B1FEF703FCB1
:1031000001E048F002082046A46900224FF08063E5
:103110000021A04728F000588AE25FEA887009D5AC
:10312000FFF7EAFCD9F85803002840F0818228F024
:1031300002087DE25FEA485040F1B48001F027FCCC
:103140000546FFF78FFDD9F85043012840F0A480D1
:10315000002C00F0A180042089F884030022DFF80D
:10316000A81809F5787001F021FC284601F03BFC15
:1031700009F5926001F0B1FCDFF8A80501680A6B5F
:103180009047C9F8A003012089F89603042001F0B4
:10319000FDFE2069C9F8980390F824104A0703D56A
:1031A000036A002204219847D9F89803DFF83C58B5
:1031B00041688E68CF684868002E08BF002F04D091
:1031C0000021E961DFF8BC272A6008B1C046C0468B
:1031D000002E08BF002F0CD0E8690028FCD0002189
:1031E000E96106B1B04707B1B847DFF8040801F05C
:1031F0007FFCD9F898030121417540F60A06FEF7D5
:1032000018FCD9F898339A68114640F6040C40F639
:10321000030E00E00146486828B10788B7421CBF8A
:1032200077456745F6D1002048604E7B06F0F006F2
:1032300046F001064E73E0680088704518BF60458F
:1032400003D10020C9F8A00315E0188E98B103F14E
:103250003000002444804460047B04F0F0040473D4
:10326000447B04F0F00444F0010444734860487B5C
:1032700000F0F00048730020E8612A60DFF878076A
:10328000446821000BD0007AC10708D501211846F7
:10329000A04728F48068CBE1284601F0A4FB28F47D
:1032A0008068C5E15FEA085163D599F8960328B1B3
:1032B000042001F000FE002089F89603D9F8984315
:1032C00004F1080104F130050B6800E0034658687A
:1032D00090B1A8421EBF0346586800280CD0A842EF
:1032E0001EBF03465868002806D0A8421FBF0346E9
:1032F00058680028A842E9D1587B10F00F0F02BF90
:10330000488D40F60902904207D12046E469002228
:103310004FF000736FF48071A047D9F8A00398B103
:10332000DFF800140868026B9047D9F8A0138142B7
:1033300031BF401A401E401A401CD9F89813000BA8
:10334000C8600020C9F8A0030022C04909F57870C0
:1033500001F02CFB022189F88413D9F8580318B125
:1033600009F56B7001F0A7FCFEF7CDFA28F40068B0
:103370005EE15FEA087040F1548101F008FB0190C2
:10338000FFF770FC002800F0448199F894030107CE
:1033900000F13F8199F89403010600F13A81D9F8D0
:1033A000500300240025C8B1C1680A7B012502F042
:1033B0000F02022A12D101690A69C98A99F82233D7
:1033C000406B5118192212FB0311FEF768F80646EC
:1033D00001F06BFBB6FBF0F1009100E000940026D9
:1033E0004FF0FF374FEA040A5FFA8AF002281FDC29
:1033F00009F5307101EB4012907AC8B1107A0126BC
:10340000022820D0D9F898030169C08A99F822339C
:103410000918192010FB03115069FEF740F8834684
:1034200001F043FBBBFBF0F0B84298BF074600BF7A
:103430000AF1010ABAF1030FD6D3354205D0009C38
:10344000BC4207D905E00027F7E70DB1009C01E079
:1034500006B13C46354302D0002C00F0DA8099F8E2
:103460002103002840F0D58000260125F0B2022873
:103470001FDC09F5307101EB4011887AC8B18D72FB
:1034800091F9097001F083FA044699F8940305FA5A
:1034900007F720EA070789F8947399F89413080747
:1034A00004D4082109F56B7001F005FC204601F0F9
:1034B0009AFA761C032ED9D3032089F8840309F5E0
:1034C000926001F00AFB0198DFF8204501F08BFAC9
:1034D0006069002161610022E068E16009F57870AF
:1034E000DFF8D01A01F062FA8E4801680A6B904743
:1034F000D9F89C13814231BF401A401E401A401C2B
:10350000D9F88C134FF0FF32A2EB10328A4234BF4D
:103510004FF0FF3001EB1030C9F88C0399F890039D
:1035200030B1D9F8A403D9F88C13C00288422FD245
:10353000DFF8D0040268D10725D5DFF8E00A00687B
:10354000010620D540F60900A9F870030021A9F86A
:10355000721399F87D0300F0F00040F0010089F843
:103560007D0399F87C0300F0F00089F87C03C9F82A
:103570007413E16109F55C71216000BFB9F8720351
:1035800010F4406FFAD0002189F89053C9F88C13D9
:1035900001F0BBFADFF81C14DFF85C44002008607F
:1035A0006368180007D0207A810704D5D9F89803FA
:1035B000002202219847022001F07DFC112001F039
:1035C00093FC99F8950320B9D9F89803483002F094
:1035D000ACFDA07810B90E2001F086FC99F891039B
:1035E00028B1002189F89113052001F064FCDFF86F
:1035F000300AC9F88803002189F884130220B9F938
:103600006E13B9F96C23914208BF0720FEF787F8C3
:1036100002E0019801F0E7F9FEF775F928F00808D3
:1036200006E05FEA480003D5FEF76DF928F0804810
:10363000B8F1000F07D0414609F56B7003B0BDE843
:10364000F04F01F038BB03B0BDE8F08F0D2400004F
:103650002DE9F54CDFF8A8A3DAF8504381B09B467A
:1036600000250E4600E02468002C55D0B4420ED050
:103670002468002C50D0B44209D02468002C4BD0D0
:10368000B44204D02468002C46D0B442EBD1002CC4
:1036900042D0206901992768884237D101F077F933
:1036A000D4E90A2343F08051C4E90A21D4E908236C
:1036B00043F08051C4E9082101F095F9BBF1000FF6
:1036C00018D001F064F9D4E90A2343F08071C4E909
:1036D0000A21D4E9082343F08071C4E9082101F0EC
:1036E00082F99AF84C133069CAF8480341F0010195
:1036F0008AF84C1321460AF5547002F063F821460B
:103700000AF5567002F034F815F101059DF808002D
:10371000002818BF3C46BAD1284603B0BDE8F08C5B
:10372000020000408C010010D02108402DE9F04734
:1037300092460326BAF1000F84B081461D4614BF9D
:103740004FF080474FF000570C4601F020F94FF042
:10375000FF318C420190DFF8A88256D1D8F860037F
:10376000002846D00069484543D1D8F86043002C72
:1037700000F0018194F83300010640F1FB808DF8E0
:1037800000500C9ED8F8600384421CBFD8F8641324
:103790008C4240F0D880D8F8605301F0F8F88446A5
:1037A0004DB1D5E90A013943C5E90A01D5E9082334
:1037B0003B43C5E90823604601F015F9D8F8645386
:1037C00001F0E5F884464DB1D5E90A013943C5E970
:1037D0000A01D5E908233B43C5E90823604601F007
:1037E00002F9BAF1000F14BFDFF8180ADFF8180A5F
:1037F00067E0D8F8640328B10069484508BFD8F8E5
:103800006443B4D0D8F85043B1E7B8F93010002081
:10381000A14202BFD8F8103000934B4505D1582182
:1038200011FB00F008EB0004A1E7B8F988100120B3
:10383000A14202BFD8F8683000934B45EFD0B8F9E9
:10384000E0100220A14202BFD8F8C03000934B45DF
:10385000E5D0B8F938110320A14202BFD8F81831D9
:1038600000934B45DBD0B8F990110420A14202BF70
:10387000D8F8703100934B45D1D0B8F9E811052044
:10388000A14202BFD8F8C83100934B45C7D0B8F960
:1038900040120620A14202BFD8F8203200934B45C7
:1038A000BDD0B8F998120720A14202BFD8F87822FB
:1038B00000924A455FD1582111FB00F008EB00044B
:1038C00055E701F015F996B3D8F8605301F05FF8A9
:1038D00002465DB1D5E90A0141F08073C5E90A03EA
:1038E000D5E9080141F08073C5E90803104601F0ED
:1038F0007AF8D8F8645301F04AF802465DB1D5E988
:103900000A0141F08073C5E90A03D5E9080141F0D5
:103910008073C5E90803104601F065F898F84C1368
:103920002069C8F8480341F0010188F84C139DF85C
:103930000000E8B10246D8F8501333464846FFF776
:1039400087FE832617E033462A4621464846FFF77E
:103950007FFE78B198F8840301281CBF98F884038F
:10396000042805D0DFF8441A08F56B7001F0A3F9BC
:10397000832600E00426019801F035F8304604B0B3
:10398000BDE8F0875100070610B50C461C4991F8B8
:103990008423022A0BD101F0ABF804B1206000F0BF
:1039A000FF00012801D1812010BD022010BD01209F
:1039B00010BD000000000460F0B581B004460D4663
:1039C000164600F0E4FF07460D48D0F898138C42E5
:1039D00018BF032404D131462846FFF7D5FF04461B
:1039E000384601F000F8204601B0F0BD0010044058
:1039F0000100070601010E0440C801000400002078
:103A0000881E002040210840D32A000030B514460B
:103A100081B00546502340F2FF3201F093F824B103
:103A2000014655F82110890A216001B030BD0029F6
:103A300042D00A0E202A08BF10221AD0212A08BF1D
:103A4000202216D0A02A08BF302212D00AB9402264
:103A50000FE0102A08BF50220BD0112A08BF6022A5
:103A600007D0402A08BF702203D0502A0CBF802202
:103A700090228901090A42EA012141F00F0100E088
:103A8000001D026812F1010F18BF8A421CBF50F8D6
:103A9000042F12F1010F0ED08A421CBF50F8042FE0
:103AA00012F1010F07D08A421EBF50F8042F12F105
:103AB000010F8A42E4D101607047002944D00A0E08
:103AC000202A08BF10221AD0212A08BF202216D08F
:103AD000A02A08BF302212D00AB940220FE0102AD3
:103AE00008BF50220BD0112A08BF602207D0402AFD
:103AF00008BF702203D0502A0CBF80229022890177
:103B0000090A42EA012141F00F0100E0001D0268AC
:103B100012F1010F18BF8A421CBF50F8042F12F196
:103B2000010F0ED08A421CBF50F8042F12F1010F72
:103B300007D08A421EBF50F8042F12F1010F8A42AB
:103B4000E4D14FF0FF31016070472DE9F04381B0BF
:103B50000546089C0E461746994602F00DFB0E28B6
:103B600003D002F009FB0F2849D1288840F6020152
:103B700088424FF0010860D0B0F5C15F6AD043F6CB
:103B80000601884273D005F11A023260E869386094
:103B9000A96AC9F80010E86A206095F824702D7EA3
:103BA000D9F8000005F0070588B105234FF6FF722C
:103BB00040F2037100F0C6FF0646052E07DA2946DB
:103BC000384600F0D7FFD9F8001041F826002068E9
:103BD00078B305234FF6FF7240F2037100F0B2FF95
:103BE0008146B9F1050F24DAFF21384600F0C2FF03
:103BF000216841F82900404601B0BDE8F0832888DB
:103C000040F60201884218BFB0F5C15F4FF00008CE
:103C100039D043F60601884207BF05F11A0030602B
:103C200005F11A023260E8693860C9F80080C4F80A
:103C30000080404601B0BDE8F08305F11202326019
:103C400068693860A969C9F80010E8692060EF7BED
:103C50002D7CA5E705F11200306069693960686A5A
:103C6000C9F80000A96A2160EF7B2D7C98E705F177
:103C70001A003060E96939600027286AC9F8000035
:103C8000696A21608BE705F1120030606869CBE753
:103C90002DE9F04186B015460C46002202920492AE
:103CA0000392019201A9009103AB04AA02A9FFF7B4
:103CB0004CFF8326E20F30D130B3039800281CBF9D
:103CC000019800281AD00298048040F22B28039F04
:103CD00041463846FFF79AFEFF281CBF48EA842178
:103CE00047F8201001990498FFF7E7FE1520288077
:103CF00030460399696006B0BDE8F08102980188FA
:103D00004FF6FF72914249D0029804801021298019
:103D10006C80304606B0BDE8F08100283ED00398A4
:103D200000281CBF019800281CD002984FF6FF7194
:103D300001800022019F2B213846FFF767FEFF28F4
:103D400004D0A40244F02B0447F8204001990498C1
:103D5000FFF76DFE1520288030460199696006B096
:103D6000BDE8F081049F00222B213846FFF74EFE6C
:103D7000FF2804D0A10241F02B0147F82010FF28B2
:103D80000CD002994FF6FF70088014222A80C4F3E9
:103D900015046C60304606B0BDE8F081032630465D
:103DA00006B0BDE8F0812DE9F043DFF8FC8889B06A
:103DB0000C001546D8F8081018BF002D1F4600F05B
:103DC000F4802278D140CB0740F1EF8006460021F5
:103DD00028460020C046B560746000F0D8FDDFF8CA
:103DE000CC98054699F89503022880F2DB800028DC
:103DF00040F0868000F08DFFDFF8B408DFF8B448AB
:103E0000016841F002010160DFF8AC08C8F8000069
:103E1000684600F00FFF6078DFF8A01802906A464D
:103E200009F56B7000F00EFF6A46DFF8941809F58B
:103E30007F7000F007FF684600F0CDFD20785D4AF6
:103E400001906B46192109F5787000F07DFD6B46F5
:103E5000DFF870281A2109F5866000F075FD00234F
:103E60000022DFF8641809F24C4000F0F7FD00234F
:103E70000022DFF8581809F5926000F0EFFDDFF836
:103E800050080168C1F3814038B10023DFF84428AD
:103E9000042109F2D44000F0F8FFA078012804BF03
:103EA0000E2001F088F809F5567001F02FFC09F595
:103EB000547001F02BFC002089F88403C9F88C03AE
:103EC0000021072089F8901389F8911389F82003BD
:103ED000C9F89C1300200521C9F8A003C9F8A41350
:103EE00089F894034E49C9F888136368180007D00D
:103EF000207A410704D5D9F8980300220421984775
:103F000099F8950309EB8002401CC2F8286389F8F0
:103F100095033C46284600F066FD3CB90FF2D841B7
:103F200091E8BC51684680E8BC516C46206830601E
:103F30004FF4FA71F160A06970620120218AF18268
:103F40007075E169F162606818B130610020307508
:103F500004E040F6C410012130613175DFF8EC0750
:103F6000F0613062B061E06800B1F061606900B199
:103F70003062A06800B1B061C82106F1300002F0E3
:103F800061F9002106F1480002F08EF800230022BA
:103F9000DFF8DC1806F1B00000F060FD304609B033
:103FA000BDE8F083284600F01EFD002009B0BDE802
:103FB000F0830000312A00002DE9F04D00F0E7FC0D
:103FC000DFF8E84694F8841302291CBF94F88413A0
:103FD000042907D1DFF89C28146800F004FD20466E
:103FE000BDE8F08D00F0FFFCDFF88C08DFF8B0884A
:103FF00001680A6B904710F5003641F1000AD4F8C9
:104000008013A8FB067B002008FB0ABB3C184BEB87
:1040100001052C462046BDE8F08D0000000004405C
:10402000832C00002DE9F04F83B081460F461546E2
:104030009B4600F0ACFC01906FF00106DFF86C8647
:10404000D8F82803814508BFD8F82C0330B1B03028
:1040500000F030FD10B16FF00206AAE0FDF7D4F9D0
:10406000040000F0C680DDE90C6A08F5926000F0FB
:1040700034FDB8F86C03401CC0F30B00A8F86C03C7
:10408000E760002084F83200C4F808B02021B8F8B6
:104090006C23DFF810082286C4F8109030400AEA3A
:1040A0000101C4E90601002284F83320C4E9082292
:1040B000EE6826642A7C84F844202B6863632A799E
:1040C00084F83820AB68E3636A69A264AB69E3648F
:1040D0002A7F84F850206B7F84F851302A7C22B9E3
:1040E000EA6812B1012384F844302A79002A02BF19
:1040F0003A7B02F00F02022A04D1012284F8382010
:10410000BB686363082301E017465B1E7A68002AD8
:1041100018BF002BF8D13A8802F47C42B2F5305F28
:104120000AD194F8332042F0100284F8332040F092
:104130000800C4E9060103E040F00202C4E90621D8
:10414000D8F84803484507D198F84C03C10744BF45
:1041500000F0FE0088F84C03DFF88C0706686FF06B
:1041600002050EB92E461DE0D8F8642308F55670F6
:10417000009008F55473D8F860132046B0470646FF
:10418000AE420FD0B8F96C03B4F93010884206D0B3
:10419000B8F86C03411EC1F30B01A8F86C1316F1BB
:1041A000020F0FD1B8F86C03411EC1F30B01A8F840
:1041B0006C13C8F8489398F84C0340F0040088F852
:1041C0004C0316E0B4F9306094F8330040F08000FE
:1041D00084F83300002189F8F410D8F85003A04285
:1041E0001FBFE168087B00F00F00022808BFFDF741
:1041F0008AFB019800F0F7FB304603B0BDE8F08F72
:10420000000000000100020401000104F0B50646B0
:104210000F46380081B014461D4603D5002000210A
:1042200001B0F0BD00F03AFDDFF88024B2F9303083
:104230000021BB4202BF13690093B34203D192F83D
:1042400033301B0660D4B2F988300121BB4202BF73
:10425000936E0093B34203D192F88B301B0653D474
:10426000B2F9E0300221BB4202BFD2F8C030009365
:10427000B34203D192F8E3301B0645D4B2F938318A
:104280000321BB4202BFD2F818310093B34203D1DD
:1042900092F83B311B0637D4B2F990310421BB426E
:1042A00002BFD2F870310093B34203D192F8933138
:1042B0001B0629D4B2F9E8310521BB4202BFD2F86E
:1042C000C8310093B34203D192F8EB311B061BD4E3
:1042D000B2F940320621BB4202BFD2F8203200932D
:1042E000B34203D192F843321B060DD4B2F998328F
:1042F0000721BB4202BFD2F878720097B7420BD1B8
:1043000092F89B723B0607D5582313FB01F157180F
:1043100097F833100A0605D400F0CFFC02200021E4
:1043200001B0F0BDD7E9082344F00A0445F0E045A8
:1043300022402B4008BF002A0ED000F0BEFCD7E977
:10434000080120402940C6E92A01D7E90823824311
:104350008B43C7E9082312E0BA68DFF890158A4258
:1043600003D0BA68C6F8A020B960C6E9264500F0B7
:10437000A4FC4FF0FF3106F1480001F0CBFED6E976
:104380002A0101B0F0BDD0B582B00446DDE9066770
:10439000CDE90067FFF746FE0146204602B0BDE8C2
:1043A000D0400A224FF0E04330E700000200004016
:1043B00000B581B0930803F001030093530803F0A4
:1043C000010302F00102FFF7B1F901B000BD00B531
:1043D00081B0930803F00103009302F0010201236E
:1043E000FFF7A4F901B000BDF0B500BF02A191E84C
:1043F000FC5080E8FC50F0BDFFFFFFFF0000000014
:1044000000000000000000003A013A010000000036
:1044100000000000000000000022FFF7CDBA0022DB
:10442000FFF7CABA00B581B06A46DFF8C814FFF7D3
:10443000C3FA812803BF0098000200166FF07F00C6
:1044400001B000BD70B50E46154600F0A0FA8324F9
:10445000052E36D8DFE806F0030F15351F28DFF8E4
:104460009024D2F8601321B1D2F860130A8E2A800A
:1044700028E0802426E0DFF8781491F820232A80B1
:1044800020E0DFF86C1491F88423022A0CBF01218C
:104490000021297016E0DFF85814D1F828232A608B
:1044A000D1F82C1369600DE0DFF84424D2F828130A
:1044B00001B1C9682960D2F82C1301B1C9686960DB
:1044C00000E0032400F08FFA204670BD70B4DFF8DE
:1044D0002034B3F93040002281B08C4202BF1E6903
:1044E0000096864203D193F833502C0660D4B3F97A
:1044F000884001228C4202BF9E6E0096864203D104
:1045000093F88B502C0653D4B3F9E04002228C422E
:1045100002BFD3F8C0600096864203D193F8E350FF
:104520002C0645D4B3F9384103228C4202BFD3F89C
:1045300018610096864203D193F83B512C0637D47C
:10454000B3F9904104228C4202BFD3F87061009607
:10455000864203D193F893512C0629D4B3F9E8414C
:1045600005228C4202BFD3F8C8610096864203D16F
:1045700093F8EB512C061BD4B3F9404206228C422F
:1045800002BFD3F820620096864203D193F84352CB
:104590002C060DD4B3F9984207228C4202BFD3F8FF
:1045A0007812009181420BD193F89B02010607D546
:1045B000582010FB02F29818C06801B070BC704718
:1045C00001B070BC002070472DE9F04B0E4682B060
:1045D00096F9048034688346174600F0D8F9334AC8
:1045E00092F8201300906FF001094FF0000C0123A6
:1045F00003FA0CFE11EA0E0F50D04FF0FF35A8451C
:1046000018BFE0454AD15FFA8CF0032846DA02EB86
:10461000401505F53075A87A00283FD121EA0E0033
:1046200082F82003AB7285F809C00A2192F82203B0
:10463000401C82F82203C5F800B02B7200234348C7
:104640006860298295F90900401DA874B068686106
:104650007FB13B7878785B0143EA800395F90900E4
:10466000401D43EA00234FF6FC710B40DFF888023F
:104670000343AB6104B16C60D2F8980310B92968A8
:10468000C2F89813FDF73FF995F90990009800F0EA
:10469000AAF9484602B0BDE8F08B00BF0CF1010C4E
:1046A000BCF1030FA4D3F1E7CC210840881E002001
:1046B0000020094040C80100110000E0EB29000083
:1046C00043230000BD220000092A000053280000F7
:1046D000B44F0050CF160000F0B581B006460F462B
:1046E000802400F054F9FFB2032F054627DADFF8E3
:1046F000003203EB471101F53077B87AF8B1396829
:10470000B1421CD193F88403022812D197F9091001
:10471000D3F89803491D0906090C41F08161002274
:1047200041F00101FFF748F904463846FCF72DFF38
:1047300005E03846FCF729FFFDF7E5F88124284617
:1047400000F051F9204601B0F0BD0000E929000059
:104750002DE9F04107460D461646832400F017F96F
:10476000092D804600F27D80DFE805F005080E1176
:10477000141A4052686D3068386073E0386901215E
:104780006030797538616DE03068F8826AE03168D0
:10479000398567E03068DFF85811C1F8A40361E09B
:1047A000306850B900F0F3F8DFF8441191F8942321
:1047B00042F0800281F8942315E0012851D100F0E5
:1047C000E6F806464A4890F8941301F07F0180F815
:1047D000941390F894130A0704D4082100F56B7021
:1047E00000F069FA304600F0FEF83BE0404991F8ED
:1047F0008403002804BFD1F85003002811D1316888
:10480000192000F0E6F831681A2000F0E2F829E0FB
:10481000374F97F88403002804BFD7F850030028C7
:1048200001D000241EE0316807F56B7000F047FAF4
:10483000316807F57F7000F042FA13E030782C49B8
:1048400081F820030EE02D48436819000AD0007A51
:10485000810607D52648D0F898033246202198478C
:1048600000E00324404600F0BEF82046BDE8F08199
:104870009B280000043004408C01001030B5044631
:1048800083B0A0686A46FFF703FA8328054604D17F
:10489000002269462046FFF78FF8284603B030BD56
:1048A00000093D00FFEFFF9F1548016801F440211A
:1048B000B1F5802F00D0704700B5124881B0016873
:1048C0008A030FD401F079F801F0A6F800210091D5
:1048D000C21EC01C01B20C4B0C4812B201F0A5F86C
:1048E00000B1FEE701B000BD34C90100A1280000FD
:1048F000881E0020010003040100040640C80100D6
:10490000B44F00508C130050652500007023002028
:10491000DFF800F055EB0210DFF800F047EC021072
:10492000DFF800F095EA0210DFF800F049EB021022
:10493000DFF800F075E40210DFF800F01DD9021076
:10494000DFF800F019E90210F0B51C008DB0054643
:104950000E46174604D1002301F07CFC0DB0F0BDDB
:104960000823302200216846FFF7DEFF206805900B
:104970006B46606808903A46207AADF818003146D8
:10498000284601F067FC0DB0F0BDFFF7D1BFFFF77F
:10499000BFBFFFF7D1BF00B581B0FFF7C1FF401E19
:1049A0008041C00F01B000BD01F074BCF0B581B012
:1049B00004460D461646FFF7ABFF0746324629462A
:1049C000204681604260384601B0BDE8F040FFF704
:1049D000A3BFFFF7B5BF002101604FF0FF320123F5
:1049E000426003727047FFF797BF024602291078B2
:1049F00003D1517800EB01207047032906D151788B
:104A0000927800EB012000EB02407047042908D1A6
:104A10005178937800EB0120D17800EB034000EB54
:104A200001607047DFF800F09DEB0210DFF800F046
:104A3000C5E20210DFF800F0C3EC0210DFF800F06E
:104A4000E7E90210DFF800F049E60210DFF800F0B5
:104A50008DDD0210DFF800F0FDE90210F0B51C005A
:104A600089B005460E46174605D10023FFF7EEFF35
:104A7000284609B0F0BD0823242200216846FFF72C
:104A8000D1FFA16806916B462278ADF810203A4616
:104A90006068059031462846FFF7D8FF284609B0E0
:104AA000F0BDFFF7CFBFFFF7D5BF0D4800687047D7
:104AB00001F0FEBB00B581B0FCF77FFC401E8041D9
:104AC000C043C00F01B000BD002181600170416092
:104AD0007047FFF7AFBFFFF7B1BFFFF7A7BF0000F9
:104AE00078C9010045490A681040C2430A6070470E
:104AF000434A11680029FCD10023D3611060D069BA
:104B00000028FCD0D161506870473E48016821F010
:104B1000020141F40871016003213B48016041F248
:104B20003002C260012343605021C16043604FF4F2
:104B3000CA61C16043604FF48651C160436033492C
:104B40000B60704770B40446002000E0401C98429F
:104B50000BDA256815F1010F07D054F8046B1640E5
:104B60008E42F3D170BCC0B2704770BCFF2070475A
:104B7000000000001E281DD8DFE800F0101C131CE8
:104B80001619161C1C1C191C161C1C191C1C1C1C80
:104B90001C1C1C1C1C1C1C1C1C1C190040F202525E
:104BA00009E04FF4817206E04FF2011203E041F296
:104BB000011200E00022FF2909D14FF6FF30024028
:104BC00042F0C00240F2037040EA02407047080021
:104BD00008BF42F0300205D0C8074CBF42F01002B7
:104BE00042F0200240F2037040EA02407047084958
:104BF0000A681040C2430A60704700001010044069
:104C0000001004400000046054600440004104406F
:104C100008100440DFF800F025EA0210DFF800F089
:104C200061DB0210DFF800F0F1EB0210DFF800F0BA
:104C3000BDE80210002101604160C1604FF0FF310A
:104C40008160704770B514008AB005460E4604D1E5
:104C5000002201F04BFB0AB070BD1E49A0680A6833
:104C6000904204D310F1010F18BF002012D1082385
:104C7000282200216846FFF7D5FF206804906A4685
:104C8000606805903146E0680790A0680690284665
:104C900001F02CFB0AB070BDFFF7C8BFFFF7BABF29
:104CA00001F030BB00B581B0FFF73AFE012818BF14
:104CB000002001B000BD01F02FBBFFF7AFBF054AD8
:104CC0001368994202D311F1010F01D101F034BBF5
:104CD0007047000024120000DFF8D4098068704794
:104CE00002460020022904D1012A06D140F2EE201A
:104CF0007047012A08BF4FF47A707047DFF8B01987
:104D000091F8410120B1D1F86C01002818BF00478B
:104D100070472DE9F041DFF8984994F842010028E6
:104D200084B040F0AE800121DFF88869DFF888594F
:104D300084F84211307B84F841017168C4F86C1129
:104D4000A868C0F38140B8B93069A8B12F68FFF7EF
:104D5000ACFEC7F30662642111FB02F2B2FBF0F273
:104D600000230FF6351104F19400FFF777FEDFF80A
:104D70004C194FF00040086001A8FFF7A5FE002085
:104D800002908DF804000022039201AB0FF25571DE
:104D9000DFF82C7904F10C00FFF760FE01A8FFF7A3
:104DA00093FE002002908DF80400039001AB0822CE
:104DB000DFF8101904F15000FFF750FE00230FF246
:104DC0006962322104F1D800FFF7BEFD002038608F
:104DD0000023DFF8F4282C2104F1F400FFF7B4FDE0
:104DE000DFF8E8080178A968707BC1F3815128B128
:104DF000032903D1012084F8390121E0032918BFD8
:104E000002291DD001291AD1DFF8C468DFF8C4785F
:104E1000032000901C23D6F800C0DCF804804FF07B
:104E2000405200213846C04701200090384636687D
:104E3000776809234FF400720021B84711E081B967
:104E4000386840F040003860FFF7A1FDA16841F0EC
:104E50000401A16094F84511491C84F84511FFF73D
:104E6000C2FD686840070CD4FFF791FDA16841F0CE
:104E70000101A16094F84311491C84F84311FFF724
:104E8000B2FD002004B0BDE8F08130B581B000244F
:104E900008B1150004D16FF00204204601B030BD06
:104EA0008160C26003610146DFF8040800F060FC25
:104EB000204601B030BD10B50446FFF768FDDFF8AD
:104EC000F0170A1992F843315B1E82F84331DBB2C6
:104ED00033B98A68012303FA04F422EA04048C60DB
:104EE000FFF781FD002010BDF0B581B00546FFF74A
:104EF0004EFD0446DFF8B817481990F84A21521EB3
:104F000080F84A21D2B232BBDFF8CC0700EB850231
:104F100010F825505688280623D5DFF8C077396861
:104F20000A6A3046904739688A6A3046904739683D
:104F30000A6B30469047DFF8A81701200860DFF8B9
:104F4000A40701688907FCD505F03F05152DBCBFF6
:104F50002846FFF7C9FF2046FFF745FD002001B0B6
:104F6000F0BD680606D501EB86010020D1F860216E
:104F70009047E9E7DFF864170B689A693046904775
:104F8000304601F0F5F90228FAD1DDE710B5044604
:104F9000FFF7FDFCDFF818178A680123A3401A43C6
:104FA0008A60214491F84321521C81F84321FFF784
:104FB0001AFD002010BD2DE9F0410646FFF7E7FC81
:104FC0000446DFF8EC56A81990F84A114A1C80F8FC
:104FD0004A2139BBDFF8008718F8260000F03F00AF
:104FE0001428D8BFFFF7E7FF08EB8600478818F8BA
:104FF000260001061CD5DFF8E4562A68D169384638
:1050000088472A68516A384688472A68D16A3846EC
:105010008847DFF8CC2601201060DFF8C806016859
:105020008907FCD52046FFF7DEFC0020BDE8F081B3
:10503000400606D505EB87010120D1F86021904795
:10504000F0E7DFF898160B685A69384690473846FB
:1050500001F0ABF90128FAD1E4E72DE9F04F002681
:105060000025012881B0AA4618BF6FF0010840F062
:105070002E81DFF83C76D7F83401012844D1022193
:10508000C7F8341101F014FA012000F02EFA5FEA9B
:1050900000083FD197F85B0108B14FF0010A97F87B
:1050A0005A0108B14AF0020A97F8590108B14AF0CA
:1050B000040ADFF82846A16A0A68012090470128FF
:1050C0001CBF97F8380101284ED100F03BFDDFF8F6
:1050D000E8B5DBF808000125C0F3814040BBDFF8EC
:1050E000D40501690091080022D007F19400FFF770
:1050F000F4FCDBF80000DFF8F415C00F14BF4FF428
:1051000041504FF482500EE06FF00408404601B069
:10511000BDE8F08F0120C7F8340101F0D2F9404614
:1051200001B0BDE8F08FC1F88000002000998847E9
:1051300097F83801C0B1DFF8B805C16E21F08001E1
:10514000C16680224267FFF722FC97F84611491E8C
:1051500087F84611C9B219B9B96821F00801B960D8
:10516000FFF741FC87F83861387AC10748BF01264C
:1051700008D4216ADFF87C058A6890478146B9F136
:10518000040FF6D04FF0FF320021304601F0C4F991
:1051900076B9B9F1010F05D1226ADFF858055368D5
:1051A00001219847DFF84805016841F003010160DB
:1051B000504622685169884797F8550120B1216807
:1051C000CA6A4FF48060904797F8540120B1216873
:1051D000CA6A4FF481609047DFF80415DFF818358C
:1051E0000120086000221A600320C7F834015046ED
:1051F00001F0DBF80128FAD1DFF8EC94D9F80000CF
:10520000042000F072F90646DFF8F014012008606F
:10521000002DD9F800204CD0A16A0A6890470128D7
:1052200047D097F83801002843D1DFF88C44A068B4
:10523000C0F38140C0B9DFF87C040569A5B12068DE
:10524000DFF8A814C00F19BF4FF4405008604FF4A6
:1052500080520A60502001F019FA0120A84707F196
:105260009400FFF738FC01E000F032FC012087F8E1
:105270003801A068C0F3814018B9DFF83814086914
:1052800050B9387A810607D4DFF864048022426777
:10529000C16E41F08001C166FFF779FBB96841F04A
:1052A0000801B96097F84611491C87F84611FFF7C5
:1052B0009AFB01F0E7F9082000F017F906430120F6
:1052C000C7F8340101F0FDF80EB14FF0FF38404649
:1052D00001B0BDE8F08F30B581B00446FFF757FB51
:1052E00005462146DFF8C80300F06CFA284601B0F5
:1052F000BDE83040FFF777BBDFF8D8130A8844F2E7
:105300000C00024044F204039A4200D0704710B5EA
:1053100082B000F052FB00F07FFB044600F0FBFD82
:10532000204600F040FE00F05AFE00200090E21EF1
:10533000E41C0FF2C903DFF8C80312B221B200F077
:1053400074FB00B1FEE702B010BD10B500240228C6
:1053500002D0032805D008E001F09CF9044620465D
:1053600010BD01F021FB204610BDFEE7F0B581B075
:10537000FFF70DFBCE49054691F83801012460B1D5
:10538000DFF84C63DFF84C033768D7F80CC0002314
:1053900001223C21E04700B900242846FFF723FB07
:1053A000204601B0F0BD30B581B0FFF7F0FA0446F9
:1053B00000F09DFBBE4D002085F83801FFF7E7FAAD
:1053C00095F84611491E85F84611C9B219B9A96860
:1053D00021F00801A960FFF706FB2046FFF703FB59
:1053E000B44884680220A0470546102000F07DF8EC
:1053F000012D04BF0320A04701B030BD30B581B0FE
:1054000004461D4600F0CFFD00F0E9FD00200090AD
:10541000E21EE41CBB4B12B221B2284600F005FB91
:1054200000B1FEE701B030BD2DE9F041A44C82B0DF
:105430006568206820EA050105406A06216049D5B3
:10544000A34EF16B0A6804209047022818BF032876
:1054500019D001283ED1032000901C23D6F800C0AB
:105460009C4FDCF804804FF0405200213846C04782
:105470000120009038463668776809234FF400729F
:105480000021B84726E0032000901C23D6F800C076
:10549000904FDCF804804FF0405200213846C0475E
:1054A0000120009038463668776809234FF400726F
:1054B0000021B847FFF76BFA7D4991F84521521E4C
:1054C00081F84521D2B21AB98A6822F004028A60B2
:1054D000FFF789FA280648BF00F022F8A56002B05D
:1054E000BDE8F08170470020704730B50546704830
:1054F000046881B05CB1A068284205D02269E368E5
:1055000000212846984728B92468002CF3D10020B0
:1055100001B030BD4FF0FF3001B030BD002070470A
:1055200030B581B0FFF733FA4FEA000400F0DFFA3C
:105530000028FBD0FFF72BFA5D4D95F84611491E68
:1055400085F84611C9B219B9A96821F00801A96006
:10555000FFF749FA002085F838012046FFF743FAA3
:10556000544884680220A04705461020FFF7BDFF7D
:10557000012D04BF0320A04701B030BD70B5012844
:105580004CD161490A6813689847012800F081806E
:10559000474D95F8380100287BD1474EB068C0F3DD
:1055A0008140B0B9434804699CB130684F49C00F8D
:1055B00019BF4FF4405008604FF480520A605020E9
:1055C00001F064F80120A04705F19400FFF783FA89
:1055D00001E000F07DFA012085F83801B068C0F3E1
:1055E000814010B93349086948B9287A810606D440
:1055F000334880228260016841F080010160FFF73A
:10560000C6F9A96841F00801A96095F84611491C3E
:1056100085F84611FFF7E7F9002070BD002838D162
:1056200000F090FA244E224DB068C0F38140A0B93A
:10563000204804698CB105F19400FFF74EFA3068F8
:105640002A49C00F19BF4FF44150C1F880004FF4F0
:105650008252C1F880200020A04795F83801C0B1DF
:105660001748016821F08001016080218160FFF707
:105670008EF995F84611491E85F84611C9B219B937
:10568000A96821F00801A960FFF7ADF9002085F8AD
:105690003801002070BD000000B5144981B04020E1
:1056A000086000F015FA01B05DF804EB38E700007F
:1056B0007016002028C70100AC4F005000A10C401C
:1056C00090220840156B000005670000463300205B
:1056D000A401001000A00C40ECB10100B8010010C2
:1056E00028200860282008402C200940A8A00C4051
:1056F0002422084000400340800104430C4009403C
:10570000442F0020FD530000E001001010B50446B6
:10571000FFF73DF9002161602160BDE81040FFF70F
:1057200062B930B581B00546FFF731F92C683CB15C
:1057300021682960216800291ABF00224A60696037
:10574000FFF751F9204601B030BD70B504460D4653
:105750001646FFF71CF92E607168696071680029B0
:1057600014BF0D6025607560BDE87040FFF73BB960
:1057700030B581B004460D46FFF709F900212960D4
:1057800062686A606168002914BF0D602560656009
:1057900001B0BDE83040FFF726B930B581B004460E
:1057A0000D46FFF7F4F82168296000226A6021683D
:1057B000002914BF4D606560256001B0BDE8304030
:1057C000FFF711B930B581B004460D46FFF7DFF899
:1057D00029686A6800290CBF62604A6069682A68A3
:1057E00000290CBF22600A6001B0BDE83040FFF71D
:1057F000FAB830B4002513E050F8042BD30744BFA7
:10580000A9F101039A18091F042942F8045BFAD28E
:1058100013468C0744BF15809B1CC90748BF1D70E9
:1058200050F8041B0029E7D130BC704770B5FFF772
:10583000AEF806468F484068FA246FF0F90560B16B
:10584000B0F90C108C42C8BF0C46B0F90E100068BD
:105850008D42B8BF0D460028F2D12946204600F0FF
:1058600005F83046BDE87040FFF7BDB8F0B4814B95
:10587000B3F90040A0421ADA7F4D804C2E7825689B
:10588000A5F5407576B2821C7543D7052D1105EB41
:10589000E735803D12F1F90F2ADA4FF4803505F42F
:1058A0007F4525631880206A40F004002062B3F928
:1058B000020088421ADA704C704A25781468A4F500
:1058C00040746DB2881E6C43C605241104EBE634A7
:1058D000803C10F1F90F15DA4FF4803404F47F4462
:1058E00054635980106A40F008001062F0BC7047A1
:1058F000FA2AA8BF4FF47F45D1DA002DCFD5604AF0
:105900001540CEE7FA28A8BF4FF47F44E6DA002C12
:10591000E4D55B480440E3E72DE9F0475648574D8E
:1059200001782A68534E574F4FF47F432B63FA2177
:1059300031802A6A22F004022A6200220078296853
:105940006A636FF0F9007080296A21F0080129620A
:10595000F86B7468D0F8001088470FFA80FAE4B149
:10596000B4F90E90D4F80080D145BCBFB4F90C1046
:105970008A450FDBD145B8BFB4F90C902146301DE4
:10598000FFF720FF0020226920752346A4684946BE
:105990005046A0475FEA0804E2D1FFF747FF686A74
:1059A00000F00C006862686A10F00C0FF7D13968DB
:1059B0000A6ABDE8F0473520104770B584B0FEF79D
:1059C000E6FF314D0446287808BB6846FFF703F828
:1059D0002E490A78019201218DF8081000232C4AE3
:1059E0003521281DFEF7B0FF2A482B4B816C21F092
:1059F000040181640322816C21F00801816402604A
:105A000009211A6816680220B04701202870204634
:105A1000FEF7E9FF04B070BD00B5204881B0016811
:105A20000A68904700B201B000BD2DE9F04381B093
:105A30000446089F0D4616469846FEF7A8FFA58126
:105A4000E681C4F8088081462761207D28B9214677
:105A50001348FFF78DFE01202075B4F90E10B4F93C
:105A60000C00FFF703FF4846FEF7BDFF002001B022
:105A7000BDE8F083001A00200C13005028500940A4
:105A800000FF0100B0010010243200202792010025
:105A9000195900000050094084010010EC01001069
:105AA000041A002038B5DFF88405DFF8845504882F
:105AB00014F0010403D14FF0012129600088DFF8C0
:105AC00074251168884714B14FF08070286031BD8B
:105AD00010B5DFF8742513685C6801210120A04728
:105AE000DFF85805DFF858150068886010BD38B534
:105AF000DFF84445E16B0A680120904701281FD078
:105B00002468DFF82805E568002301223C21A84726
:105B1000B8B1FFF7C7FFDFF82405DFF824350268C6
:105B20009968DFF820051C68DA60A4EB9404521A27
:105B30004243120C1A6019688C4238BF0C461C6034
:105B4000012032BD38B5DFF80045226853680021D6
:105B50000120984721680A680120904708B1FFF7A3
:105B6000A1FFDFF8D804DFF8D85400686860E06867
:105B700001688847286131BD2DE9F04F04460F4682
:105B800015461E46D4E9028900F031F8C5E9000146
:105B9000D4E90489D7E9022300F02BF8C5E9020112
:105BA000D4E9008900F023F8C5E90401D4E90489A7
:105BB000D7E9002300F01DF8C5E90601D4E9008902
:105BC000D7E9022300F015F8C5E90801D4E902ABD2
:105BD000D7E90023A2FB0A0102FB0B1103FB0A1108
:105BE000324600F0CFFFC5E90A01BDE8F08FD7E9E2
:105BF0000423A2FB080102FB091103FB0811324632
:105C000000F0C0BF2DE9F04F0C460268D4E9005106
:105C1000D4E9026AD317AF1B61EB0A0BA7FB026A38
:105C200007FB03AA0BFB02AAD4E90623D4E9045913
:105C3000551B426863EB0909A2FB057BD31702FBE6
:105C400009BB03FB05BBF219D4E908658068D4E9F8
:105C50000A484AEB0B03C117341B65EB0808A4FB89
:105C6000005904FB019908FB0099501943EB090105
:105C7000BDE8F08F2DE9F84F8A465FEA020B9EB02F
:105C8000DFF8C81313D10268891802910846C117BA
:105C90008907DAE9002341EA9001800700F084FFD8
:105CA000064689460024A046002000216FE000221D
:105CB00002AD50F822400C1945F82240521C032A2C
:105CC000F7DB00930A23009906AA5846FFF754FF12
:105CD00006AADDE90663D2E90248DAE90001351BCC
:105CE00063EB0807A5FB004805FB018807FB00885C
:105CF000DDE90C01D2E90423821A61EB0303DAE93E
:105D00000201A0FB026900FB039901FB0299A219A1
:105D100048EB0903DDE90E45DDE91069DAE9040124
:105D2000A61B65EB0909A6FB005706FB0177009946
:105D300009FB00775846551912AA5F410023FFF767
:105D40001BFF12A902A82D0DFFF75CFF45EA0735DE
:105D500000F078F8894606460099002312AA5046BA
:105D6000FFF70AFF12A902A8FFF74CFF00F06AF83C
:105D7000444261EB4108002312AA59465046FFF7FE
:105D8000FBFE12A902A8FFF73DFF00F05BF8289D7B
:105D9000DFF8BC72CDE90648CDE9086982468B463A
:105DA000002405EBC408DDE90823D8E90469A2FB57
:105DB000060102FB091103FB06112E5DA6F1140278
:105DC00000F0E0FECDE90001D8E90C69DDE9062329
:105DD000A2FB060102FB09112A1903FB0611167921
:105DE000A6F1140200F0CEFEDDE90023161843EB05
:105DF0000109D8E91423AAFB02010AFB03110BFBDA
:105E000002112A1992F808C0ACF1140200F0BAFE8F
:105E1000301849EB0101800A40EA81508912032CB5
:105E200004DA614207EB8101C86005E0000940EA3D
:105E30000170884A80183860641C032CB1DD1FB0E3
:105E4000BDE8F08F2A463B1500F0AEBE2DE9FE4FAF
:105E5000002680460F4602928DF800304CE00298F2
:105E600050F8269009FB09F20192D8E900AB09FB32
:105E700002F4A4FB0A013A78E51704FB0B1105FBB9
:105E80000A11143A00F07EFED8E9024582468B469C
:105E9000019AA2FB0401D31702FB051103FB0411B5
:105EA0007C78A4F1140200F06DFE1AEB00044BEBB9
:105EB0000105D8E904014A4682468B46A2FB0A0145
:105EC00097F802C04FEAE97302FB0B1103FB0A11BA
:105ED000ACF1140200F056FE24184D41D8E9060139
:105EE000FA78143A00F04EFE0C9B201803EBC60221
:105EF0006941C2E90001761C9DF800008642AEDBD4
:105F0000BDE8F78F10B50068040424160C6003EB9D
:105F10002043136010BD80B5B6B000F023F81AA876
:105F20004D49702200F08AFF6FF00F0304AA01A907
:105F30004A48FFF7E7FF6FF0160305AA02A9484891
:105F4000FFF7E0FF052306AA03A94648FFF7DAFF9B
:105F500000F022F800F019F800F010F800F007F84F
:105F600037B000BD1822002108A800F0AABF1AA867
:105F7000009008AB0EAA14A904A87BE608A800901C
:105F8000032301AA1CA92EA860E70EA800900323F2
:105F900001AA1BA926A859E714A80090032301AA67
:105FA0001AA91EA852E770B5294CA268E5681B38EB
:105FB00000FB00F100FB01F681FB0223C6FB052379
:105FC0006568C0FB05232068120942EA0372C11705
:105FD000101841EB2311000C40EA014070BD10B5D0
:105FE000214A002882FB002304D412F5001043F15B
:105FF000000103E0B2F5001063F100014FF48002EC
:10600000002300F0D1FD00F1377000F5DE404FF4C1
:10601000C061B0FBF1F200230020402100F0C4FD7C
:10602000124B1C68616CBDE81040084700A00C4092
:1060300004A40C4080000010A4010010302009408E
:106040002C31002040420F00E00100106079FEFF7B
:10605000403100200000A08660AD0100C01000505B
:10606000BC100050B8100050006CDC02F0010010B1
:10607000DFF800F0E5EB0210DFF800F0C1DD021000
:10608000DFF800F049DC0210DFF800F0DBEC021072
:10609000DFF800F0FDE60210DFF800F0B1BF0210FB
:1060A000DFF800F021CD021030B589B004460D466E
:1060B0000823242200216846FFF7DAFF01218DF82A
:1060C00018106A4629462046FFF7D6FF204609B039
:1060D00030BD10B58AB0044608232422002168464A
:1060E000FFF7C6FF01218DF818102046034A6946C4
:1060F000FFF7C6FF0AB010BD00000000101400201A
:1061000000B581B000906846FFF7BEFF01B000BD4A
:10611000FFF7BEBF00B581B0FFF7BEFF00280CBF80
:106120004FF0FF30002001B000BDFFF7B9BF70B5E0
:106130004A1ED2B2002305E0D51AC45C465DC6549F
:1061400044555B1CB3EB510FF6DB70BD344800685F
:10615000000C00F00700072828BF4FF0FF30704701
:1061600030490968C1F30F314BF641324FF0FF302F
:10617000914208BF0420704738B5FFF7F1FF284966
:106180000B68DD0D04284FF0FF34C3F34061C3F307
:10619000006221D11B0B03F00F03082B1BD0092B2E
:1061A00014D00F2B18D1E80704D500290CBF0D24FB
:1061B0000E2411E0114218BF11240DD109B10F2492
:1061C0000AE0002A0CBF0B24102405E000290CBFB4
:1061D00009240A2400E00C24204632BD00000000FF
:1061E0001048114970B505680E682D0F06F0FF06BE
:1061F000802E28BF0026FFF7B3FF04284FF0FF349E
:106200000CD1032D0AD8DFE805F0020204070A24A6
:1062100004E006F10B0401E006F1150460B270BD64
:106220009412005018130050A010005080B5FFF7D2
:1062300097FF042804D1FFF7D3FF142800DB01BD2A
:10624000FEE70000002200F047BE0000DFF800F08B
:1062500021D40210F8B504460B480C4F0668F869C3
:106260000D4650F82510B1420AD109480090294640
:106270002046FFF7EBFFF86950F82510B14201D135
:106280000020F2BD2046F2BD1C120000501100207B
:1062900010140020102803D302491038C1F8000F51
:1062A000704700BF00E000E0DFF800F011DC0210F2
:1062B00070B5044600F01EFE0646A08A002501289F
:1062C0000AD1FFF7F1FF0546E068A168451BA94226
:1062D0003EBF2069A8420025304600F00CFE28464B
:1062E00070BD0603DFF800F019D7021010B50446A0
:1062F000034BFFF7F7FFA06800B90024204610BD4C
:106300001014002001488068704700BFE41000208E
:10631000DFF800F091D8021038B504460D4600F0C1
:10632000F7FD616A0D43656200F0F3FD2046BDE8AC
:106330003240FFF7EDBF060370B50D4615F1010FB2
:10634000044608BF052500F0E3FD06460120A840ED
:10635000A06165612946054A506900F0D7FDA06239
:106360003046BDE8704000F0D4BD00BFE41000200E
:1063700030B51C4B1A685B6D0021C50704D5D407E6
:1063800001D45B0700D50121830703D5540804F02D
:1063900001042143400703D5920802F00102114392
:1063A00009B1012030BD022030BD30B50D4B1A6857
:1063B0005B6D0121C50704D5D40702D45B0758BF24
:1063C0000021830703D5540804F00104214040074D
:1063D00003D5920802F00102114009B1012030BD3D
:1063E000022030BD40210840DFF800F04DEA0210E5
:1063F000DFF800F045DF021030BF704770B500F0E5
:106400003DF9354C206941688847FEF765FC054633
:1064100005F00C000C2804D1AFF30080FFF7ECFF6F
:1064200040E0680725D400F09FFD064601210120C9
:10643000FEF756FC2949096801FB06F2904218D282
:10644000F020B0FBF1F0264C311A04F10C00FEF7FD
:10645000F1FA04F10C00FEF7F1FAAFF3008001202D
:10646000FEF7FBFDAFF3008004F10C00FEF7DEFA4F
:106470001AE0AFF30080280712D4216819488A680F
:1064800090470428F9D0E90600D408B9012000E0BB
:10649000002000F02DF8144801210160006801E09F
:1064A000FFF7AAFFAFF30080BDE8704000F0EAB844
:1064B00010B50E4CFFF798FF2060FEF7ABFB606055
:1064C00010BD10B5094C6068FEF7A8FB2068BDE858
:1064D0001040FFF78DBF0000D801001078C90100FF
:1064E00070160020004003402C2009405C31002041
:1064F00010B55149514C08605148026842F00302FE
:106500000260202021688A6990474E48016822680D
:10651000906BBDE8104000472DE9F84305468846DA
:106520009146002000F059F84748464F434C474EEB
:106530000021016027203A6821688A6990477169C3
:106540004348014071614FF48060F16D21F4807126
:10655000F16521680A6B904721680A6B4FF48160EE
:10656000904721680A6B4FF4C06090473949324A1E
:1065700001200860C2F800800123374803603748D3
:1065800001688A0707D419F1010F06BF4FF0404197
:10659000C160C0F80C90386830688007FCD50720CF
:1065A000FFF7E6FE0228FAD195B9216A2C4D8A68D8
:1065B000284690470428F8D0012804D1226A53685D
:1065C0000321284698471E48016889088900016010
:1065D0002068816BBDE8F143084710B51F4801688A
:1065E0008A0702D51F49C16010BD1F480468A10277
:1065F00020D41E4801680A6890472417C0F13E0065
:10660000641CC0101A4909680728C8BF0720A042A7
:10661000B8BF2046C1F30321081A0F28C8BF0F20B6
:1066200002DC0128B8BF0120124940F0F0000870D8
:106630001148027810BD00008C210840B8010010FC
:10664000242208402C2009400C4009402820084002
:10665000FFFFFEFE2820086080010443100009406F
:1066600000400340FD000040B44F0050EC0100101A
