:020000040003F7
:106000004343313378325231FFFFFFFF0301FEFF7C
:10601000FFFF0001FFFFFFFFFFFFFFFFC05F050065
:1060200030303031000000002C00FFFF03FEFFFF86
:10603000550000000100000000000000000000000A
:106040000000000000000000000000000000000050
:106050000000000000000000000000000000000040
:106060000000000000000000000000000000000030
:106070000000000000000000000000000000000020
:106080000001FEFFFF0000000000600300000000B0
:10700000010000000000000000000000000000007F
:10701000FFFFFFFF2C18002004000000000000000C
:107020000000000014000000CC75030018000000F0
:1070300038740300C070030098170020040000009B
:10704000000000000000000024000000B8740300ED
:1070500018000000AD2E040008000000B07103000D
:1070600074700300C1C8021001BB021091EB021042
:10707000DDE5021081E00210B9E5021071E50210B1
:107080002E0000000100000001000000E475030074
:1070900000000000FFFFFFFF0418002004000000B4
:1070A000000000000000000028000000A47503009C
:1070B0002400000021000000180000000000000073
:1070C00028730300D47003009BEC021025E2021029
:1070D00005EB021025DE0210FDE10210E1E40210D2
:1070E00033000000340000002500290000000000EB
:1070F00078170020FFFFFFFF4C180020040000005D
:107100000000000000000000380000005876030076
:107110002800000001000000100000000000000036
:1071200000000000F7F1021000001A00100000003B
:1071300004000000BC760300CEA20400080000009A
:10714000360000000C180020541800200900200010
:10715000C75D0400A017002001000000000012001D
:10716000FFFFFFFF3C1800200400000000000000AB
:1071700000000000100000001C7603001800000052
:107180000000000000001300FFFFFFFFB418002004
:107190000400000000000000000000005400000097
:1071A000807603003C000000000001003100000078
:1071B000047003008F6904002D000000000000002F
:1071C000B0710300D871030059D20210D9DB02104C
:1071D00059EC0210CDD6021085DE02104DE50210EA
:1071E00029E502102D00000000001600000000003C
:1071F00000000000FF7F0000BC180020FFFFFFFF21
:10720000341800200400000000000000000000000E
:1072100058000000E87503003400000039FB02103C
:107220000100330006000000000000002000000004
:10723000010000001BF80210280000002873030062
:107240005072030093EC02106DEB02104DEC021033
:1072500029E00210BDE4021099E4021031000000A0
:1072600000000000E0170020040000000000000003
:107270000000000010000000D07403002C0000008B
:10728000000000000000030000000F003C000000B0
:1072900000000000000000002FF9021010000000A4
:1072A00008000000CC760300FFFFFFFF4418002019
:1072B0000400000000000000000000001C000000AE
:1072C00034760300240000003C7203009017002075
:1072D0000400000000000000000000000C0000009E
:1072E00040740300180000000F7B04000000000041
:1072F0000000000008000000010000000400000081
:107300000000000000001400000000002C8A0300B0
:10731000000019000000180024000000552005009E
:107320000040000000020000047003000000100094
:1073300055F002100C000000E32E040000000000D5
:107340007017002004000000000000000000000092
:10735000200000000874030030000000448A03008D
:1073600001000000A32F04000F67040000000000CC
:1073700000001700000200002E00000000002300A3
:107380000000150001000000C0710300FC17002080
:1073900004000000000000000000000020000000C9
:1073A000807503002400000088310400F0170020DD
:0873B00020000000E07603005C
:1073C000252E0400373004003B3004003F30040019
:1073D00043300400473004004B3004005DA5040036
:1073E0000DA6040019A50400F11F0500D31F050018
:1073F000E5A50400F1A504002320050041A6040032
:10740000EDA6040001A70400300000000000000009
:1074100000000000307403000400000000000000C1
:1074200001000000FFFFFFFFFF000000010000005F
:107430000800000000000000000000000000000044
:10744000180000000000000000000000507403005D
:107450000800000000000000100000002873030076
:10746000707403005120050029320400B13104007A
:107470006D300400C13004005130040032000000BF
:107480005C740300D8170020040000000000000016
:107490000000000020000000A0740300180000009D
:1074A000180000000000000000000000B07403009D
:1074B00008000000000000001800000000000000AC
:1074C00000000000C8740300080000000000000075
:1074D0002C0000000000000000000000F474030015
:1074E000040000000000000001000000FFFFFFFF9B
:1074F000FFFFFFFF0800000000000000B071030064
:10750000147503009DA60400ADA60400C9A60400DE
:10751000BDA60400033104002D310400E130040055
:107520002F000000FC740300E81700200400000096
:10753000000000000000000014000000447503007B
:107540001C0000001C000000000000000000000003
:107550005875030000000000080000000000000053
:10756000010000000B9C03004D200500DB550400CA
:107570000F9C0300139C0300FF9B03001D9C030052
:107580002400000000000000000000009C750300C3
:1075900000000000000000000000000008000000E3
:1075A00000000000240000000000000000000000B7
:1075B000C075030000000000000000000000000093
:1075C00008000000000000000A0000001800000091
:1075D0000000000000000000DC750300080000004F
:1075E0000000000079A70300340000000000000044
:1075F00000000000147603000000000000000000FE
:107600000100000000000000010000000000000078
:10761000000000000800000000000000180000004A
:1076200000000000000000002C76030008000000AD
:107630000000000024000000000000000000000026
:107640005076030000000000010000000000000070
:1076500008000000000000002800000000000000FA
:107660000000000078760300000000000000000029
:10767000FFFFFFFF00000000080000000000000006
:107680003C0000000000000000000000B476030091
:1076900000000000000000000100000000000000E9
:1076A00000000000000000000000000001000000D9
:1076B0000000000008000000000000001F3004006F
:1076C00025DD0210F1A4040075DF021001000000A6
:1076D00000000000000000000000010000000100A8
:1076E00015F9021001E602102DDA021045E702102A
:1076F00041D10210C9D30210A5DF02102DE40210FF
:1077000061EA021059A604001C16002016090000A8
:107710001515151515151515151515151515151519
:107720001515151515151515151515151515151509
:1077300015151515151515151515151515151515F9
:1077400015151515151515151515151515151515E9
:1077500015151515151515151515151515151515D9
:1077600015151515151515151515151515151515C9
:1077700015151515151515121515131514131515C1
:1077800015151515150F1515107703007F0E04003C
:107790008592030085920300859203008592030081
:1077A00089140400A714040085920300C114040086
:1077B000F1140400F7140400A116040085920300DC
:1077C000B117040091100400FD1404001D150400FD
:1077D000A51504002918040085920300551904001A
:1077E0008592030085920300FD1004005F140400DD
:1077F00085920300619404007F930400BB9404000D
:107800006D9304008D930400279604002B960400CA
:107810002997040085960400879704006596040064
:1078200077960400A9980400AD980400A1590400BB
:10783000AD59040025EA021061DB021002050003C5
:1078400008100A004C2C0020502C00203A010000A7
:10785000000000000000000010140020D8110020DB
:107860000000000000000000000000008C77030012
:10787000C4790300F4770300E4790300347803004B
:1078800000000000542C0020000000009016002092
:10789000D8160020E4160020F41600200877030014
:1078A00088770300041700202C1700200000000038
:1078B0000000000010000000000000000097B92E3A
:1078C000E5725CCB5DCAE473B82F0196BA2D0394C0
:1078D0005FC8E671E7705EC90295BB2CE3745ACDB0
:1078E0000691BF28BE2907905BCCE27559CEE077A0
:1078F000BC2B05920493BD2AE17658CF51C6E87F90
:10790000B4230D9A0C9BB522E97E50C7EB7C52C57F
:107910000E99B720B6210F9853C4EA7DB2250B9C6F
:1079200057C0EE79EF7856C10A9DB324089FB1265F
:10793000ED7A54C355C2EC7BB027099EA2351B8C4F
:1079400047D0FE69FF6846D11A8DA334188FA1363F
:10795000FD6A44D345D2FC6BA037198E41D6F86F2F
:10796000A4331D8A1C8BA532F96E40D7FB6C42D51F
:107970001E89A730A6311F8843D4FA6DF3644ADD0F
:107980001681AF38AE3917804BDCF26549DEF067FF
:10799000AC3B15821483AD3AF16648DF1087A93EEF
:1079A000F5624CDB4DDAF463A83F1186AA3D1384DF
:1079B0004FD8F661F7604ED91285AB3C020000004B
:1079C0009A92030009AB04001BAB04004DA704000E
:1079D00073AB04005DA7040069A70400CBAB0400EF
:1079E00085AC040089570400D34E04007958040084
:1079F00065580400DF9F0300799F03007DA003000A
:107A0000C1A00300E1A00300139F030093A00300A3
:107A100025A003006DA103006B9F030097A1030045
:107A20008BA1030079A10300D79F0300D99F030016
:107A3000B1A30300DD9F0300DB9F0300A135040019
:107A4000A9350400AF350400D7350400EF35040034
:107A50003136040043360400A7360400E93604003A
:107A6000F136040000000000000000B000405104A6
:107A7000C0FF00F000000000000000B00040510412
:107A8000C1FF00F000000000000000B00040510401
:107A9000C2FF00F000000000000000B000405104F0
:107AA000C5FF00F010000000647A0300496D6720F4
:107AB0004964656E7469667900000000496D67204D
:107AC000426C6F636B0000004F4144204578746541
:107AD0006E64656420436F6E74726F6C000000000A
:107AE0004F4144204E564D31000000000000000080
:107AF0000000000000000000000000000000000086
:107B00000000000000000000000000000000000075
:107B10000000000000000000000000000000000065
:107B20000000000000000000000000000000000055
:107B30000000000000000000000000000000000045
:107B40000000000000000000000000000000000035
:107B50000000000000000000000000000000000025
:107B60000000000000000000000000000000000015
:107B7000D1D2040051D20400D9DF0400B9A1011010
:107B80000DCF0110817E01102D230210F99A0400FF
:107B900001BA040015990400E2370020E5370020FF
:107BA000E4370020E6370020E3370020408B030055
:107BB000C4350020381D0020D9370020DA370020D6
:107BC000601D0020611D0020D0BD0300D4BD030056
:107BD000F4BD0300DCBD0300D8BD0300352605005D
:107BE0008F8D04008DA4040091A40400313A040098
:107BF000DD4F0400958A0400D149040089B00400D7
:107C0000413A04001954040049540400BD550400CD
:107C100039990400514D04000505050009260500A9
:107C2000675404002351040005510400E98E040048
:107C300009C8040085050500459A04008D5104001B
:107C40007B620400351F05002D22050061E0040061
:107C5000AD840400ED830400B98E0400D5930300C5
:107C6000A5490400D56A02102D920110A1F101105E
:107C70004D0A0210495E021085D2040049AA011083
:107C8000D52A021075D4011091D20400794B01104D
:107C9000154B021005150210878C0400217A011083
:107CA000514D0210F5E2011071E10400010A0210C9
:107CB0009DD20400A523021081CF011045FB0110C5
:107CC000994B021095510210C537021091370210DE
:107CD000A5E10400A10E02102D380210796E0210E9
:107CE000816E0210756E02105D4502107D6E0210ED
:107CF0002553021061590210AD520210FD520210BC
:107D0000D5520210895E021019550110A5D6011036
:107D1000554F0400756D02102D690210D1DE04006C
:107D200099C5011091C2040051C30400E5E10400AB
:107D3000554F0400554F0400E5C2040001DF040064
:107D4000D9CA0110ED26021021A10110716F011096
:107D500005550210E13E0210D96D0110615001106D
:107D6000F1170210554F0400ED7F011075660210E7
:107D7000F1DC04007D4D0210554F0400554F040006
:107D800061E5040059E30110659A011065A701102F
:107D9000D9AA011039BF011011F30110515C011073
:107DA000155A0210554F0400554F04000556011096
:107DB000156B021039F00400DD540210056B02103F
:107DC000AD460210FD4702103D2D0210F159021080
:107DD00065270210CD470210310F0210E92105007E
:107DE000E9DA0110F9B0011021DE011069B60110C5
:107DF000E9C90110B5F20110A9DB0400295F0210E6
:107E0000418A011085EC01102D5401102927021020
:107E1000ADD80400358F0400554F0400554F0400C1
:107E2000554F040095040210D131011045ED0110A9
:107E3000E9BE0400554F0400554F0400554F04009F
:107E4000D53C0110B554021031DC040061CA0110A8
:107E500091FD01103DFD0110218E0400A59204004A
:107E600015930400ED66021055690210A15B021023
:107E700005D20400414F04003D2F0210696002103A
:107E80002D4E0210956E0210996E02105D5A02106E
:107E9000E5F60110E52D0210554F0400554F040082
:107EA000554F0400A96E0210ED8A0110AD6E02104C
:107EB000A56E0210554F0400554F0400554F0400A5
:107EC0005D480210395A0210B16E0210014E0210C4
:107ED000E9FC011045F10110A55A0210AD1702107E
:107EE000A16E02108DA80110256B02108D66021084
:107EF0009D6E021071DF0400B9DF0400E56B021013
:107F000081A301105555021049DF04005951011099
:107F1000B9110210F55502100112021039D20110E8
:107F2000DD4E0210BD620210DD490210459C0110B9
:107F3000EDF70110A14F0400616C021051340210E2
:107F4000656E0210696E0210DD4302106D6B011048
:107F50002D480210C10F0210F9A701108DF6011073
:107F600089DE0110696202107D430210511B02106C
:107F7000BD180210F10C0210816D0210059B01105A
:107F8000E1100210F5E40400952105001D620110C6
:107F90004921050029440110B1E5011049040500FB
:107FA000AD030500A11A0110C13B0110418E011063
:107FB00019690210E5EC0110752D0210FDDD0400B9
:107FC0008DDE0400559F0110E50A0210752F021086
:107FD000B9CC0110B14E0210310B021055DB01106B
:107FE000CDB401106DF301100D680210DD670210B1
:107FF000056702102911021019400210D11F02104A
:10800000AD2F0210854E0210158B040041C80400EC
:1080100061D801108D5A011051FD001045C60400B1
:108020008D2E0210AD49021089AC0110C55B021003
:10803000DDD0011051810400892F0110E9C6040030
:10804000C52E021085620210C95F0210517F040024
:1080500029E0011049F404001928021079180210CF
:108060003518021039C00110ED48021041690210A4
:108070007D550210ED6D0210CD550210695F0210A2
:108080005DEE0400554F040015ED0400554F04004B
:10809000818B0400B97B04006D7F0400B9C001101E
:1080A0003DD70400E53F021055800400D5CF040001
:1080B00089420210157D0400AD7B0400E95F0210C7
:1080C00015F40400554F0400856B0210A5ED011056
:1080D0004DE5011081010210EDDB0400DD270210E7
:1080E00021420210BD480210E5040210656B021027
:1080F00065DB0400B1F604001D4902105542021070
:10810000D56602102DE2011021CB0400A5660210F5
:10811000511F0210CD19021025930010F9AB011068
:108120000D9A001061F9040029B30110A555021041
:1081300079DA0400F9D7040095F70400B14F040080
:1081400061800400E5CF040051CB011095F70110C8
:1081500005EE0110F1F80400E98A0400554F04000F
:10816000AD430210554F0400117D0110C97D01106F
:10817000A95901102D770110558101107DCB040004
:1081800001C90400ED680110258304002DE80400F6
:1081900059E6040099BA0110B9BF0110554F040007
:1081A0001D340210554F0400D9FE0400E9E401100B
:1081B000C9CB0110557C011091E00110F9E00110CC
:1081C00055F604003505021051D10110554F040039
:1081D000C1EE01105110021085E4011041CC0110D4
:1081E000C1DF01109DB201107D850110F1B60110B3
:1081F000B13F021035800400416E02101DC5011010
:1082000041B4011001190210B5B3011021A90110E8
:10821000CD84011025EC01103907011069D001103F
:108220005D6602103D540210911E02104566021058
:10823000CD5902108D540210952C02106554021075
:1082400011D20400516D0210D54D021015540210C8
:10825000D1200210A5310210C56B0210C95E0210B8
:1082600069AB0110E95E0210A93D0210396D0210E0
:1082700085590210211302107D5B0210452902105E
:10828000DD46021085B1011025170210DD680210CD
:108290004504021035D60110C5EB0110D56B021054
:1082A000A94D021005690210D5630110B99E011095
:1082B000113E0210B12602105D2C02106D47021013
:1082C000F56A021035F60110A1C40110A5EA0110EB
:1082D0005916021025C4011095670210F1680210AA
:1082E000FDF1011079070110F9220110D19201105E
:1082F00015BA011051A20110DDF50110EDFB0110BE
:108300001D840110A95902104D620210ED53021094
:108310003D4702109D160210E1160210DD3D0210CD
:1083200065EB0110111E021075930110FD6502101E
:10833000511E0210A12101106913021059F20110FF
:10834000595B0210990A021031470110355B021087
:108350001566021031480110793E0210F5CF011068
:1083600011DA01103D670110453E0210E9A201102B
:10837000DD31021005EB01102D6602106567021059
:10838000A56B0210196E0210B9630210E1690210A8
:1083900019610210596E0210556A0210456A0210E6
:1083A0005D6E0210556E0210F5D70110E933021010
:1083B000E95C0210111A021045510210C95C02104A
:1083C000E16002104D210210511A0210695C021086
:1083D000610C02104D4302104D330210193302108C
:1083E000496002107D640210CD690210ED5A02103E
:1083F00025060210AD570210C1DB01101D4302100B
:10840000115B0210F5130210295D0210AD64021019
:10841000ED50021015320210E5320210A95C021074
:108420007D320210ED420210D11A0210BD4202103C
:10843000911A021089210210B1320210895C0210D7
:1084400049320210316C0210256C0210F52902101D
:1084500065EE0110C560021065730110111B02105A
:108460005D3702106DB00110295E0210C90D0210B7
:1084700005D40110BD820110819D0110F9C80110C1
:108480003D590210C1610210556502102D9C040077
:10849000D19D04003922050085980110A503021022
:1084A000D1580210990C01103D4402109D44021055
:1084B000DD6102109DFA0110F5360210D9A50110F8
:1084C000E1B501106D6E0210716E02105936021086
:1084D000252D0110F50302108D360210CD22050066
:1084E000B9BD0110657901106D6502105D230500AD
:1084F000EF220500216D0210156D0210F9610210C6
:10850000E94A02102599011029370210F558021086
:10851000F50F011015620210E95D02108565021069
:1085200019590210095E0210A561021011340110E0
:1085300045A501100DB9011039D90110FD24050020
:1085400051DD0110B1C201109D7201109589011019
:108550008DF0011055AF011085F50110C114021006
:1085600069090210CDD8011089A0011085080210F8
:10857000D10802101D090210253602103DA6011077
:1085800069A3040015A30400D1A60110E56502103B
:10859000CD4402109D6502100D6D0110DD9B04009D
:1085A00071C90110111C011065660110619E040063
:1085B000998D0110799C040071A0040049240110D8
:1085C000F18C0110E5A1040055A20400751F0500FF
:1085D000C5990110911B021025BD0400C521021090
:1085E000316E021021BD0110D11B02106D6102100D
:1085F000C56A0210B9C1011005E8011025E9011092
:1086000039140210ED340210D95701105920050019
:108610002DF20400E5E90110111D021055030210AE
:1086200075240500B56C02109D6C0210A96C021037
:10863000396E0210496E02102135021025F4011026
:10864000A1BB011091230500895D0210D5710110B5
:10865000654A0210390D02107D38011095D30110C2
:108660008991011035C201103D220210C16C021027
:10867000CD6C0210050302105507021021BC011039
:10868000BD06021009070210394A021021430110E9
:1086900099CE011065E80110AD580210A5E7011050
:1086A000756A0210956A0210856A0210A56A0210A6
:1086B000F5640210893502103D240500A9F104007B
:1086C000A1BC0110ED2305005DF10400B1640110AF
:1086D00005F104000D410110DD860110014001107B
:1086E00005C801104D40021085D70110F5F80110A2
:1086F000E52B01109DF80110097101101D67021092
:10870000F562021081290210D96202106969021013
:10871000B540021081400210150C0210794801107A
:10872000A5140110754C011035090110592E0110C6
:10873000714D011089FF0110256802107D6902103A
:1087400045190210354F02108500021089C701102B
:108750008D870110794901101D300210458C0110E0
:10876000DDFF0110553002106195011045560210D1
:1087700011200210C90B02101DBB01101163021061
:10878000E94002102D630210FD300210496302100F
:10879000F1320110F15E011061E10110A56D0210CE
:1087A00009F700108D300210C5300210094F021079
:1087B000CD280210D5050210DDE601102960021057
:1087C0009128021051200210310002104936011088
:1087D000911202106D4E0110A9CD0110D9000210A6
:1087E00041E70110D912021021CE011019A4011085
:1087F00001B8011019070500A52A0110E9060500B6
:1088000045F80110B94F021011500210E54F021047
:1088100085410210614F0210955002103567021019
:10882000092902108D4F0210816302100982011084
:108830009D6302103557021069500210BD56021098
:108840003D500210E5560210A5690210B941021010
:108850006D560210C95A021089600210353102109B
:108860001D56021095560210C15801105D57021096
:108870000D570210C9F301104D070500998B011027
:10888000ADD20110E52F0210554F0400E5FD011097
:1088900021D301104912021079E6011039FE0110AE
:1088A00039C101100DC7011045FB0010794A0110B4
:1088B000B1F2001061600110E9050500996D021028
:1088C0007D0B0210115E011085E901107D1402106C
:1088D000810D02103D8801102D2A0210ED77011044
:1088E0008D65011069DC00104DF30400914A0210FF
:1088F00031F00110A95D02106529011055350210F3
:1089000001220210694F0110B934021065020210F1
:10891000695D02100000000000C20100FFFFFFFFC0
:10892000C82D00208000000004920300482E002083
:1089300014890300542E0020AFA404006C2E0020E4
:10894000E6A40400842E0020E7A40400DC2E00200E
:10895000E6BE0400F42E0020E7BE04000020030061
:10896000004000000000000000A002003C7A03006C
:10897000C83700205C8903003C7A0300C937002017
:10898000648903000D04C0800C4000800F2000802B
:108990000E20008006048080070480801C00008078
:1089A0001D0000801E000080FE000000FF0000008F
:1089B0000000000000000000C9B3030075AD030013
:1089C0000101010000000000FF000100D5C003000C
:1089D00007000000FF0000000000000080A9030065
:1089E000282F0020D489030000B0004014000000AC
:1089F00034000000FF000000000000000D0CFFFF2D
:108A00005C31002020000000010300000000000095
:108A100024920300A82F0020E88903001C0880800E
:108A20001D0880801E088080FE0000007B7374613A
:108A30007469632D696E7374616E63652D6E616D0B
:108A4000657D00007B656D7074792D696E7374614E
:108A50006E63652D6E616D657D00000096C298D8CD
:108A60004539A1F4A033EB2D817D0377F240A46357
:108A7000E5E6BCF847422CE1F2D1176BF551BF3760
:108A80006840B6CBCE5E316B5733CE2B169E0F7C33
:108A90004AEBE78E9B7F1AFEE242E34FFFFFFFFFA8
:108AA000FFFFFFFFFFFFFFFF0000000000000000CE
:108AB0000000000001000000FFFFFFFFFCFFFFFFC0
:108AC000FFFFFFFFFFFFFFFF0000000000000000AE
:108AD0000000000001000000FFFFFFFF4B60D227F5
:108AE0003E3CCE3BF6B053CCB0061D65BC869876B6
:108AF00055BDEBB3E7933AAAD835C65A512563FC66
:108B0000C2CAB9F3849E17A7ADFAE6BCFFFFFFFF08
:108B1000FFFFFFFF00000000FFFFFFFFF3EB03007C
:108B200093EC03000059340000000000248B030084
:108B3000010000000000D002EC0000215F000000F6
:108B40000000000000000000388B0300348B03009D
:108B500000000000C6E70300CEE70300BA1B0400D4
:108B60007E1C0400921C04000ED204000FD20400EC
:108B70003C8B0300321E0400103404004019002016
:108B800002000000CCBD030000000000A31F050090
:108B90000000000030313233343536373839616205
:108BA00063646566000000008F0000008F00010014
:108BB0008F0002008F000300900000018F00010170
:108BC00090000002900000038F0001048F00000558
:108BD0008F0008048F0000048A0000065100000086
:108BE0007F0001003F0004003F0002003F00010041
:108BF0007F0002008F0002048F00010202000000CB
:108C000000000000FFFFFFFF000000000200000066
:108C1000C8BD03005D20050095C0040000000000F1
:108C20000C0802170D0101020909010106020918C9
:108C300018030101090903030503020100000000F4
:108C400000000000FFFFFFFF000000000000000028
:108C50000000000000000000000000000000000014
:108C600000000000FFFFFFFF000000000000000008
:108C700000000000000000000000000001F70400F8
:108C8000FF000000000000000000000000000000E5
:108C9000FFFFFFFF000000000000000000000000D8
:108CA00000000000000000000000000000000000C4
:108CB000FFFFFFFF000000000000000000000000B8
:108CC0000000000000000000F9430021794000216D
:108CD000954000216D440021A9440021C540002198
:108CE000D1400021DD400021F94000215345002101
:108CF00045410021DB0705D000F003F80249087068
:108D000070BD70B5014D2847E00400211D2402000C
:108D1000074C657900F009F861796940490703D586
:108D20000121044A8903116070BD70B502490847EA
:108D300080030021081104402D59000070B5004740
:108D400000F018FA00480047577F000000F018FABA
:108D5000004800471B8800000599880A802805D133
:108D6000134988788007800F00F022FA00480047F6
:108D7000D96E00000FB41048C188002902D01046F7
:108D800000F016FA079B9B0A084D832B08D1084C6C
:108D900023899B0604D500F005F8002800D0423551
:108DA0000FBC284770B50548004700001F0B0200A4
:108DB000600100211F0B020080030021EB0902006B
:108DC0000848094A03689A420AD108480289084BB0
:108DD000D21A01D0012A03D1406E0649884703996F
:108DE000054B1847A8020021BD03020060010021C5
:108DF00021180000F1350000BD06000070B51F4DC0
:108E00002878C4B21E4880472878032834D1032C20
:108E100032D01C488068400DC2071A4801466031B4
:108E20008030002A03D01F240C57458802E01E24FE
:108E30000C570588002C1FD01348154A416900794A
:108E40004143481011494969401810494039497F48
:108E5000904740054015694288420DDBA8420BDC73
:108E60000C4B996988B20246090C624309045212FC
:108E7000801880B20843986170BD0000E4020021B0
:108E80007941000028000021800300210003002117
:108E9000CB8100004040044010B5864C2146403153
:108EA000087D012834D18448C07D4008C0072FD0F8
:108EB0002046603042795208D20729D04089800B81
:108EC000012825D1087E4109C9070CD0A16F0007F0
:108ED0000988C00F4002090408436066A06F801C27
:108EE00000F080F913E07448203080694068002861
:108EF0000ED0724A00230178D356591A08D4C900FB
:108F000008184178C90703D0016861664068A06607
:108F10006B48804710BDF8B5664C6A492646203636
:108F2000707B2546403500902F79B8004018806846
:108F30008047002828D16049C97D0909C90723D085
:108F400022466432152F20D0297E00234F09FF07C7
:108F500003D06D7D002D00D00123009FA56FBB4382
:108F600012D0737B002B0FD0237D5B060CD5D288EB
:108F7000920B012A08D1C908C90705D0A988890B15
:108F8000012901D100217173F8BDAB7EE97D012B70
:108F9000E3D00023E1E770B5464C2546606A803592
:108FA00000281DD15420005D0022002817D0642025
:108FB000005D8008C00712D0A9688888800B01284E
:108FC0000DD13D48C07D4008C00708D03A48203048
:108FD00080690068002802D02962A86000E02A6247
:108FE00039488047616A002903D1296A002900D0E5
:108FF000A96070BDF8B52F4C344920464030027D41
:10900000002A2FD0807E25468035032802D00428F0
:1090100003D027E00120E87524E06420005D80088B
:10902000C0071FD0A8688088800B01281AD1224869
:10903000EA7DC07D002A13D0C008C00712D02646A2
:109040002036777B88470146394308D1217D0906C0
:1090500005D56988890B012901D100217173F8BDFB
:109060008008EAE78847F8BD124880300021C175C2
:10907000174800470F4940310871262814D006DCF4
:10908000152813D01B280BD01F2804D10AE03D2837
:109090000ED047280AD00B498000401880687047DE
:1090A0000C4870470C4870470C4870470C48704794
:1090B0000C48704760010021C8000021E004002135
:1090C00059490200005502008F3D02007530020030
:1090D000152A0200ED430021794300211B430021A2
:1090E0009B4200211D42002110B50C4988470C4AC3
:1090F0000621515E002907D0022905D0092903D095
:10910000102901D0112907D17721C943884201DDF7
:10911000002801DD7F20C04310BD0000A9650000CC
:109120008003002110B51048C1881048052918D0C7
:109130000F4C21684A0852002260A26B520852006C
:10914000A2632160FFF7FAFDA06B000708D401209D
:10915000206060600020401C0C28FCDB1420206292
:1091600010BDFFF7EBFD10BD800300213F5B000049
:1091700000600440806B0C490007000F4871704785
:10918000094A0A4918235079CB56497EC0188142B2
:1091900001DD084602E00F2800DD0F20D189090912
:1091A00009010143D1817047E002002188000021BC
:1091B0000849C979CA08D20708D0C1400648C9077A
:1091C00001D0064900E00649491CC16070470020F3
:1091D00070470000E80000212800002188010000FD
:1091E00050010000820881079200C90E0CCAC078A5
:1091F000CA40494220318B401A431102090A000635
:10920000084370476D07050071070500F107050069
:1092100019080500AD080500450905005D090500B0
:1092200063090500BB10050043110500C30E0500CE
:10923000CB0E050061130500ED140500F3140500C5
:10924000A5110500AB120500B112050000000000D9
:10925000FFFFFFFFFFFFFFFF000000000000000016
:109260000101010100C20100030000000000000034
:109270000102000302000103014908607047000079
:109280001812002081B001208DF800009DF8000028
:109290000028FBD101B0704770470A18DFF800F0D2
:1092A000E56A0210F8B5040000F085802568E878CA
:1092B0008DF80000684629798DF80110FFF7EEFF60
:1092C000A86808B13D490160E86808B13C490160FF
:1092D0003C4E2878307006F13C0769783A48717046
:1092E00002883A490A8068793870A9797970A0684B
:1092F0000178F17006F16400A16891F82C200270E9
:10930000A1684A6872608B68B360CA68F2600B69D2
:109310003361CA69FA610B6ABB618A697A618B6AD7
:109320007B624A6A3A620B6B4360486970616068AD
:109330000168B1612A69F26269693163AA6972637D
:10934000E969B1632A6A7A60806810B900F042F86E
:1093500000E030626068C06810B900F03BF800E0DF
:1093600070626068006910B900F034F800E0B06223
:109370006068406810B900F02DF800E0F0612869DD
:10938000F062696AB960A86AF860E96A3961012126
:10939000E0688268106800F01FF8E068C06810B9E3
:1093A00000F018F801E00A490860E06841680068C8
:1093B00000F020F8F1BD00F00DF8F1BDED1E050044
:1093C000231F0500401900204C1D00204E1D0020C9
:1093D000A82B00207047232A0200034A117008BFFF
:1093E00002480349086070475D1D0020DB4F040000
:1093F0003C190020024A106002480160704700BF1B
:109400006C3200207032002010B5054C03E011F8DA
:10941000013B5840205C13465A1E002BF7D110BD6B
:10942000BC78030010B518B910BD93B2CC5CC4541D
:1094300013465A1E9BB2002BF7D110BD08214208DB
:10944000C007104644BF594A5040491EF7D17047E3
:109450002DE9F04F87B01C0018BF14F1010F15461D
:10946000059009D09DF84020012A07D1504B9C421D
:109470003CBF504A944201D3002094E00191DFF8B0
:1094800038A19DF8401039B9019941434FF48072D9
:109490005046FFF7C7FF05E04FF4807352460021A6
:1094A00000F0B3F80198059AADF80250641EB4FBC1
:1094B000F0F1019800FB114405A8641C90F80080AD
:1094C000A4B252180294D2B2029902980492C9111D
:1094D00000EB116002990012A1EB00214FF0FF3464
:1094E000039006914FF4807B01E09DF80080049882
:1094F000404555DB804506D103AA0698157828B16A
:109500006D1CEDB202E0019D2D042D0E08F101004D
:109510004FF000098DF800000BE0681E81455B46A6
:10952000524612BF404600219DF8000000F06DF841
:10953000B146A945D9DA681E814504BF049988451A
:1095400007D1069828B1029E0398A6EB0026B6B272
:1095500000E05E460598804509BFB9F1000F00277D
:10956000BDF802700C3709E01AF80000604000F006
:10957000FF00FFF763FF80EA14247F1CB8B2B042FB
:10958000F2DB09F101069DF8400031020028C4D148
:10959000019B5A4603FB08115046FFF743FFC7E7FC
:1095A0004FF0FF30604007B0BDE8F08F2083B8ED8A
:1095B0000100100001800500F437002080B500F0A4
:1095C00082F8BDE80240384800F0B2B810B5374C18
:1095D000207860B904F11401012000F087F8606080
:1095E00028B10121217004F1080100F069F8207808
:1095F00010BD10B52D4C207820B1606800F058F8EF
:109600000021217010BD0020704770B5274E3478BE
:10961000FF2534B101EB4031706800F08DF800B9DE
:109620000025284670BD38B5204D13462A78FF2402
:1096300032B10A460146686800F07EF800B900249D
:10964000204632BDF8B5194E3478FF2544B101EB00
:10965000403104277068009700F073F800B90025C6
:109660002846F2BD7CB5114E34781346FF2544B12F
:10967000062200920A460146706800F062F800B9BE
:109680000025284676BD10B5084B01461878FF2402
:1096900038B158684FF40052490300F00CF800B993
:1096A0000024204610BD0000C02B0020AC2B002061
:1096B00001680A68104710B503689C68A04710BD90
:1096C0000268D368184738B50025164C05E00C2110
:1096D00048436D1C20580269904713490A78E8B244
:1096E0009042F4D311490120087031BD70B50C4689
:1096F0000E4905460878002608B9FFF7E4FF0A4935
:109700000A78284690420AD20CB900BF11A40C2254
:10971000044B554321465C59A36998470646304699
:1097200070BD00006C8903000AC00400D43700201B
:1097300008A10A680260704738B50468E569A8475F
:1097400032BD7CB5069C009405686E6AB04776BD54
:109750000000000000000000DFF800F0DBFD021058
:10976000E0B500BF7FA07C4A019010210091132337
:109770007A49102000F0E3FDC0B20EBD2DE9F042A1
:10978000002708280D461646754C00F27A80DFE85F
:1097900000F0050E1A26323E4A556D00082D6ED196
:1097A00004F1080031680160716841606AE01529C0
:1097B00065DA152104F1100000F04CFE2A4631460E
:1097C00004F1100058E0152959DA152104F1280098
:1097D00000F040FE2A46314604F128004CE01529ED
:1097E0004DDA152104F1400000F034FE2A463146DE
:1097F00004F1400040E0152941DA152104F1580038
:1098000000F028FE2A46314604F1580034E01529BC
:1098100035DA152104F1700000F01CFE2A463146AD
:1098200004F1700028E0152929DA88341521204632
:1098300000F010FE2A46314620461DE0284600F082
:10984000CAFB5FEA00090FD0606804F1A0018842FA
:1098500018BF00F0C1FB2A463146484600F0FEFD25
:10986000C4F8049025700DE013270BE0072D06D1F6
:109870000722314604F1B00000F0F0FD02E01827A5
:1098800000E002273846BDE8F08200002DE9FC47E1
:1098900091464A6892F800A00A9C5278DDF82C8024
:1098A0001D4627462E4B0AEB02220026D81992B2FB
:1098B00042F6232AB2EB0A02A44607D0521E052A1A
:1098C00012D9911F21D026392DD040E0BCF1080FCC
:1098D0002CD8CCF1080CE04534BF4446C4F1080450
:1098E0002C8000F108012DE0D1F80CA05046FFF7C4
:1098F00033FF80B2B84219DBC11B8845B4BF444670
:10990000041B2C800AEB07011CE018780146614516
:109910000CD3C01B8045B4BF44460C1B2C80586838
:109920002A88C1190FE0BCF1080F01D3072610E007
:10993000CCF1070CE04534BF4446C4F107042C8049
:1099400000F1B0012A88484600F088FD01E02E8031
:109950000A263046BDE8F687D4120020A99B0400F1
:109960001C1200208D980300000000000000000081
:10997000DFF800F009EC0210DFF800F025EA021031
:10998000DFF800F055EB0210DFF800F047EC0210B2
:10999000DFF800F061DB0210DFF800F0B5DE021046
:1099A000DFF800F04DEA0210DFF800F029D50210D0
:1099B000DFF800F045DF0210DFF800F0F5EA0210F2
:1099C000DFF800F095EA0210DFF800F0A5C0021001
:1099D000DFF800F0B3CF0210DFF800F011DC021066
:1099E000DFF800F09DEB0210DFF800F025DB02103D
:1099F000DFF800F0C5E20210DFF800F0C3EC02105F
:109A0000DFF800F0E7E9021020B108233C22002132
:109A1000FFF7AEBF704780B5FFF7AEFFADF80000AF
:109A2000FFF7AEFFADF80200009802BD01B5BDF82A
:109A30000200FFF7A9FFBDF80000BDE80240FFF7F4
:109A4000A7BF38B5DFF8D049207801282DD0DFF83E
:109A5000CC09DFF8CC2980088000121AA26101210C
:109A60002170024602E0002342F8043BA3691D185E
:109A7000AA42F8D39B0800EB8302002142F8041CA1
:109A8000E8230360A16989088900EC39C0F8E8106F
:109A9000606100F1E801A160002000F007F8E060DB
:109AA000A1696069A060091F216131BDF8B5002678
:109AB0000027051D15F003001CBF291D0D1AFFF717
:109AC000AAFFDFF85429112D34BF9468D4680146E9
:109AD0002068002803D580F0004000271AE03B00F2
:109AE00014D03368D4F800C06344AB42336011D360
:109AF00034461846ECB1401B042811D3605145F0A0
:109B00000040206013695D1B156111E0A842F1D28D
:109B100001272646044420680028DAD1002408E002
:109B2000136920681B1A1361256845F000452560FC
:109B3000241D516000F0C5FB2046F2BD10B504465F
:109B4000FFF769FF54F8042CDFF8CC1822F000422C
:109B500044F8042C0B69D2180A61221F8B689A42C0
:109B600038BF8A604860BDE810405FE72DE9F041EA
:109B7000FFF751FFDFF8A028D36800240025002656
:109B8000002709E00E4601251C4604E011D581F0AE
:109B90000041002547460B441968B046BE4238BF15
:109BA000B8460029F2D15060FFF740FF4046BDE8BB
:109BB000F081002DE6D0D4F800C08C44C4F800C079
:109BC0008E19E8E710B50446DFF84C08816921607A
:109BD00000696060FFF7CAFFA06009282CBF083841
:109BE0000020A06010BDDFF830180A69121A40F298
:109BF0002D139A4228BFFFF759BF0020704780B548
:109C0000FFF71FFF4BF6BE2002BD08464EE7084691
:109C100094E702B56846FFF7D5FF01BD0120704704
:109C200038B50446FFF7F7FE00220C23DFF8F417DF
:109C30005343CD18A96C21B18C4206D0521C032A83
:109C4000F3D3FFF7F3FE002032BDFFF7EFFE05F17F
:109C5000480032BD70B50546FFF7DDFE0446002121
:109C60000C22DFF8C0074A438618B06C48B1854221
:109C700010D0491C0329F3D32046FFF7D7FE00205C
:109C800070BD3065B5640021FFF786FEF06408B949
:109C900000F03CFC2046FFF7C9FE06F1480070BD0D
:109CA00038B50446FFF7B7FE0025DFF878270C210A
:109CB0006943515A21B18C4206D06D1C062DF6D352
:109CC000FFF7B4FEFF2032BD1CE310B50446208828
:109CD000FFF7E6FFFF2802D14FF0FF3010BD0C2147
:109CE000DFF8402748431044816811B96FF0010044
:109CF00010BD2046BDE81040084702460FF24870EC
:109D0000104738B500200C21DFF818270024002563
:109D100001FB00F31344401C03289C641D65F7D32A
:109D20000020002301FB00F4401C13530628F9D344
:109D3000BDE8314085E62DE9F8478FB006468946F3
:109D4000FFF72EFE80460027DFF8DC5603E0504682
:109D5000FFF76CFE7F1C4F451DD26846FFF754FE8F
:109D600006EB07114A6806928A68089200220B687F
:109D70000493C868059069462846FFF715FE04005D
:109D800007D0FFF748FE82462046FFF763FF002812
:109D9000DDD100F0BBFB4046FFF70AFE10B0BDE886
:109DA000F087F8B56846052141604FF48052826023
:109DB000DFF87816DFF878260091C2600121FFF7FE
:109DC000BAFF05B000BD38B504460D46FFF723FEC7
:109DD000002145F80C1C226812B9256006E00A46ED
:109DE00052F80C1C0029FAD142F80C5CBDE8324054
:109DF0001CE680B5FFF7E0FDFFF712FF10B96FF02A
:109E0000040002BD816809B9022002BD4068ADE0CE
:109E100006280ADA0C22DFF80C365043185A0028BC
:109E20001CBF4FF6F872904202D14FF0FF307047DE
:109E300008800020704730B5DFF8F8552A680C46D6
:109E40004FF47A71A1FB0001002300F063FB0029AD
:109E500002D8B0F1004F02D36FF0020030BD206095
:109E6000002030BD0146886849680847F8B50546B6
:109E70000E46FFF7A1FDFFF7EDFE04000DD0FFF742
:109E8000CAFD014600220C27DFF8983557433B44B2
:109E9000188820B1521C062AF5D300F037FB4FF684
:109EA000F870002718805C609F602A7000F007FA45
:109EB0000020F2BD0C3841E670B5044615461E463A
:109EC0000846FFF7EDFE0146FF2902D14FF0FF30B3
:109ED00070BD33462A462046BDE870407FE07CB521
:109EE0000546164600F09EF8040010D12888694601
:109EF000C0B2FFF78DFF28B13068FFF7DBFF6FF0CE
:109F0000050076BDBDF800002880FFF772FF2046EF
:109F100076BD38B50546FFF74FFDFFF781FE0446D5
:109F2000FFF74EFD002818BF012800D014B96FF0CC
:109F3000040032BD65B900200090009B60684FF0BE
:109F400000420021FFF740FD401E8041C00F32BD9E
:109F500015F1010F08BF4FF0FF30EDD069462846DC
:109F6000FFF769FF0028E8D032BD80B54FF000410F
:109F7000FFF72EFD002002BD2DE9F8430546894676
:109F800017461E46FFF718FDFFF764FE04006FF04A
:109F9000020802D14046BDE8F283FFF73CFD0146CE
:109FA00000220C23DFF87C0453430344188830B1AB
:109FB00085420DD0521C062AF3D300F0A7FA1D806B
:109FC0005C60C3F808903A7000F079F90020E2E78D
:109FD00000F077F9DEE769E5B0E504E6F2E52DE9A2
:109FE000F8430D462F46062FBCBF044606281646EA
:109FF00099466FF0020806DAFFF70DFD00F005FA4A
:10A0000019B9FFF713FD40460AE0FFF70FFD00F016
:10A01000F2F9786840684FF00041FFF7D9FC002062
:10A02000BDE8F2832DE9F04106460F469046FFF762
:10A03000C3FCFFF7F5FD050008BF6FF004001BD05F
:10A04000FFF7E9FCA968002441B10C46A4F10C011A
:10A0500000230A68AA60FF250B608D72FFF7E6FCFB
:10A060000CB9022008E0A4F10C00017931704079AC
:10A070003870C8F800400020BDE8F08182B00120AF
:10A080008DF800009DF800000028FBD100F03EFA9A
:10A0900000BFFFF7A1BC00B5DFF8982313686FF08D
:10A0A0000040A0FB03014FF47A72002300F032FA63
:10A0B000002902D8B0F1004F01D36FF0004000BD7D
:10A0C0007CB50C4615461E466946FFF7B4FE30B90E
:10A0D000009833462A46214600F002F8002076BD5B
:10A0E0002DE9F0431D4689B02C6880460E46174680
:10A0F0002CBB0C20FFF7DAFC04006FF0030918D02A
:10A100000823242200216846FFF76AFC0020ADF8EE
:10A1100010000590069400236A464146DFF81803B4
:10A12000FFF762FC206030B9FFF7A8FF2046FFF779
:10A1300005FD484617E06660A7602C600BE0DFF87D
:10A14000FC623068804705462068FFF751FCA76035
:10A1500028467168884720684146FFF74DFC206813
:10A16000FFF74EFC002009B0BDE8F08300281CBFBB
:10A170000068FFF73DBC7047E0B58DF80400684605
:10A1800000F078FA9DF805000EBDE0B50190684634
:10A1900000F0A6FA0EBDE0B50190684600F0AAFAFC
:10A1A0000EBD2DE9F84384B004460E461746984686
:10A1B000FFF702FCFFF734FD054600200290FFF791
:10A1C000FFFB002818BF012800D015B96FF004006C
:10A1D00072E044B900200190FFF7FEFB8146019830
:10A1E0000124814425E014F1010F08BF4FF0FF3036
:10A1F000F1D001A92046FFF71EFE0028ECD05BE05D
:10A20000039902A8FFF7DFFD68684FF00051FFF7E0
:10A21000DFFB0198012410F1010F18BF002808D0BE
:10A22000FFF7DAFBB9EB000031D0019981422ED360
:10A230000190019B68684FF000520021FFF7C4FBBA
:10A2400028B303AA69460DF10100FFF7EBFE0400F5
:10A25000DFD19DF801000DF10201FFF7D9FD0028C3
:10A26000CED1039A9DF80010BDF80200B047002837
:10A27000C6D017B1BDF802003880B8F1000F1CBF7E
:10A280009DF8001088F800100C9803990160FFF702
:10A29000B0FD029EFFF7BFFB014656B1324600E01B
:10A2A000024652F80C0C0028FAD1A86842F80C0CAF
:10A2B000AE6000F006F8204605B0BDE8F0836068A7
:10A2C00030600846FFF7B2BB38B5FFF775FB0446B0
:10A2D000FFF776FB002818BF012811D0FFF79BFB82
:10A2E0000025504A0C236B43D15A39B1D118496823
:10A2F0000B68A34206D06D1C062DF3D3FFF796FB27
:10A30000FF2032BDFFF792FBE8B232BDE0B5ADF8F9
:10A3100000008DF80610002049490A68ADF80200D7
:10A320006846904710B99DF807000EBDFF200EBD8E
:10A330001078422801D101207047002070470CB4EA
:10A3400078B504460E4687B0FFF73AFB0CAD0028FF
:10A3500014BF0128FFF792FE14200021FF22ADF860
:10A36000100002918DF8122006960595FFF7ACFFBC
:10A3700005AB03222146FFF79FFD002001A90190B4
:10A380000091002300222F4941F28830FFF709FF96
:10A39000012805D020B9019820B1FFF78BFD01E01D
:10A3A000FFF76CFE0598006808B070BC5DF80CFB08
:10A3B0002DE9F8430D462F46062FBCBF044606285C
:10A3C000164699466FF0020806DAFFF724FB00F004
:10A3D0001CF819B9FFF72AFB40460AE0FFF726FBF5
:10A3E00000F009F8786840684FF00051FFF7F0FA84
:10A3F0000020BDE8F283A9F1080004704570867062
:10A40000494678680830FFF7DEBC0C22054B12FB8A
:10A4100007F7DF1979687047302C0020FB3E0020D9
:10A42000FF3F0120C42B0020FB9C0300B1A40400CB
:10A430002C140020C8750300659E0300041400203E
:10A440000C14002031A30300CB9C0300179A0300D7
:10A450002D9A0300002200F061B9242A62B38B0711
:10A4600008D0521E11F8013B00F8013B00F0248097
:10A470008B07F6D1830740F0208000BF103A07D346
:10A4800030B4B1E83810103AA0E83810F9D230BC36
:10A49000530724BFB1E80810A0E8081044BF51F8E2
:10A4A000043B40F8043BD20724BF31F8022B20F8CC
:10A4B000022B44BF0B7803707047121F17D35B0049
:10A4C00009D151F8043B20F8023B1B0C121F20F865
:10A4D000023BF6D20BE051F8043B00F8013B1B0AAB
:10A4E00020F8023B1B0C121F00F8013BF3D238BFCF
:10A4F000121D521E24BF11F8013B00F8013BF8D891
:10A5000070470000DFF800F0BD6D02100120FFF77A
:10A51000F9BF0000D3BBD9B1B2F5803F5BD2022AAC
:10A520001ED98C46B1FBF2F102FB11C31B0443EAB6
:10A530001043B3FBF2FC02FB1C3380B240EA03433E
:10A54000B3FBF2F002FB103240EA0C4000237047EC
:10A55000022A05D98446B0FBF2F002FB10C2704714
:10A560004AB105D100F0010249085FEA30007047A6
:10A5700000220023704700F0EBB80B00020000211E
:10A5800000207047F7D3002200237047904271EB00
:10A59000030CF2D370B5B1FA81F4B3FA83F52C1B36
:10A5A000A340C4F1200532FA05F63343A2405FF020
:10A5B0000046E64002E05B085FEA3202841A71EB73
:10A5C000030524BF204629467641F4D302000B0040
:10A5D0003000002170BD70B5B1FA81F4B2FA82F595
:10A5E000C4F120046419B4F12006DAD3B2405FF05C
:10A5F0000044F440002502E052085FEA3303C61A23
:10A6000071EB020E24BF3046714664416D41F3D3B5
:10A6100002000B002000290070BD252A10B5044659
:10A6200001E000F0F1F9B4FA84F0C0B2202806D0BD
:10A6300000F018F8F5DB401F00F0FBF9F3E710BD60
:10A6400010B5044601E000F074F9B4FA84F0C0B229
:10A65000202806D000F006F8F5DB401F00F082F954
:10A66000F3E710BDC0F11F00C0B2012181404C4092
:10A670000528704738B5044601206071244D2079C3
:10A68000A8B1FFF7C8F904462878FF2805D120466D
:10A69000FFF7CCF96FF0060032BD401C2870C0B245
:10A6A000012804BF6868FFF7B9FF204614E0FFF7F0
:10A6B000B2F9297821B9FFF7B9F96FF0070032BD77
:10A6C000491E2970C9B239B9FFF7B0F96868FFF7B8
:10A6D000B7FF0020607101E0FFF7A8F9002032BD4C
:10A6E00080B5406810F07F4F00D00DE0FFF796FF77
:10A6F000002002BD80B5406810F07F4F00D003E01D
:10A70000FFF79EFF002002BD6FF0020002BD0000B7
:10A710001414002062F30F2262F31F4200B500BF41
:10A72000130096469446103928BFA0E80C50FAD87A
:10A730005FEA417C28BF0CC048BF40F8042BC90722
:10A7400028BF20F8022B48BF00F8012B00BD262AA5
:10A750007047272ADFF858098068704702460020B2
:10A76000022904D1012A06D140F2EE207047012AC5
:10A7700008BF4FF47A707047DFF8341991F841013F
:10A7800020B1D1F86C01002818BF004770472DE9AF
:10A79000F041DFF81C4994F84201002884B040F0F1
:10A7A000AE800121DFF80C69DFF80C5984F8421102
:10A7B000307B84F841017168C4F86C11A868C0F35B
:10A7C0008140B8B93069A8B12F6800F0CEFCC7F35A
:10A7D0000662642111FB02F2B2FBF0F200230FF6D5
:10A7E000B90104F1940000F099FCDFF8D0184FF0A3
:10A7F0000040086001A800F0C7FC002002908DF81E
:10A8000004000022039201AB0FF2D961DFF8B078A7
:10A8100004F10C0000F082FC01A800F0B5FC00205F
:10A8200002908DF80400039001AB0822DFF8941821
:10A8300004F1500000F072FC00230FF2ED523221BF
:10A8400004F1D80000F0BEFC002038600023DFF8DF
:10A8500078282C2104F1F40000F0B4FCDFF86C0837
:10A860000178A968707BC1F3815128B1032903D114
:10A87000012084F8390121E0032918BF02291DD0E5
:10A8800001291AD1DFF84868DFF8487803200090E2
:10A890001C23D6F800C0DCF804804FF040520021A1
:10A8A0003846C0470120009038463668776809234B
:10A8B0004FF400720021B84711E081B9386840F0C8
:10A8C0004000386000F0A1FCA16841F00401A160E3
:10A8D00094F84511491C84F8451100F0C2FC6868E1
:10A8E00040070CD400F091FCA16841F00101A16087
:10A8F00094F84311491C84F8431100F0B2FC002085
:10A9000004B0BDE8F08130B581B0002408B1150075
:10A9100004D16FF00204204601B030BD8160C260F6
:10A9200003610146DFF8880700F0CFFC204601B044
:10A9300030BD10B5044600F068FCDFF874170A1942
:10A9400092F843315B1E82F84331DBB233B98A6837
:10A95000012303FA04F422EA04048C6000F081FC71
:10A96000002010BDF0B581B0054600F04EFC044655
:10A97000DFF83C17481990F84A21521E80F84A2106
:10A98000D2B232BBDFF8500700EB850210F8255039
:10A990005688280623D5DFF8447739680A6A304696
:10A9A000904739688A6A3046904739680A6B304662
:10A9B0009047DFF82C1701200860DFF828070168AE
:10A9C0008907FCD505F03F05152DBCBF2846FFF7CC
:10A9D000C9FF204600F045FC002001B0F0BD68062C
:10A9E00006D501EB86010020D1F860219047E9E708
:10A9F000DFF8E8160B689A6930469047304600F059
:10AA0000A5FC0228FAD1DDE710B5044600F0FDFBF5
:10AA1000DFF89C168A680123A3401A438A60214408
:10AA200091F84321521C81F8432100F01AFC0020C8
:10AA300010BD2DE9F041064600F0E7FB0446DFF8C3
:10AA40007056A81990F84A114A1C80F84A2139BB5F
:10AA5000DFF8848618F8260000F03F001428D8BFDD
:10AA6000FFF7E7FF08EB8600478818F82600010685
:10AA70001CD5DFF868562A68D169384688472A68A5
:10AA8000516A384688472A68D16A38468847DFF8CD
:10AA9000502601201060DFF84C0601688907FCD5BC
:10AAA000204600F0DEFB0020BDE8F081400606D520
:10AAB00005EB87010120D1F860219047F0E7DFF82E
:10AAC0001C160B685A6938469047384600F05BFC04
:10AAD0000128FAD1E4E72DE9F04F002600250128EE
:10AAE00081B0AA4618BF6FF0010840F02E81DFF850
:10AAF000C075D7F83401012844D10221C7F83411B8
:10AB000000F0BCFC012000F0F0F95FEA00083FD142
:10AB100097F85B0108B14FF0010A97F85A0108B1A4
:10AB20004AF0020A97F8590108B14AF0040ADFF81E
:10AB3000AC45A16A0A680120904701281CBF97F81C
:10AB4000380101284ED100F009FDDFF86CB5DBF8C3
:10AB500008000125C0F3814040BBDFF858050169BA
:10AB60000091080022D007F1940000F016FBDBF8FA
:10AB70000000DFF87815C00F14BF4FF441504FF4B8
:10AB800082500EE06FF00408404601B0BDE8F08F3F
:10AB90000120C7F8340100F07AFC404601B0BDE85E
:10ABA000F08FC1F8800000200099884797F838019D
:10ABB000C0B1DFF83C05C16E21F08001C166802282
:10ABC000426700F022FB97F84611491E87F84611AC
:10ABD000C9B219B9B96821F00801B96000F041FBA8
:10ABE00087F83861387AC10748BF012608D4216A3E
:10ABF000DFF800058A6890478146B9F1040FF6D066
:10AC00004FF0FF320021304600F004FD76B9B9F173
:10AC1000010F05D1226ADFF8DC045368012198474F
:10AC2000DFF8CC04016841F003010160504622685E
:10AC30005169884797F8550120B12168CA6A4FF4D5
:10AC40008060904797F8540120B12168CA6A4FF498
:10AC500081609047DFF88814DFF89C340120086099
:10AC600000221A600320C7F83401504600F08BFB25
:10AC70000128FAD1DFF87094D9F80000042000F020
:10AC800034F90646DFF8741401200860002DD9F865
:10AC900000204CD0A16A0A689047012847D097F855
:10ACA0003801002843D1DFF81044A068C0F3814088
:10ACB000C0B9DFF800040569A5B12068DFF82C14DD
:10ACC000C00F19BF4FF4405008604FF480520A6023
:10ACD000502000F059FD0120A84707F1940000F032
:10ACE0005AFA01E000F000FC012087F83801A06862
:10ACF000C0F3814018B9DFF8BC13086950B9387A3D
:10AD0000810607D4DFF8E80380224267C16E41F074
:10AD10008001C16600F079FAB96841F00801B960B4
:10AD200097F84611491C87F8461100F09AFA00F08E
:10AD300027FD082000F0D9F806430120C7F83401A8
:10AD400000F0A5FB0EB14FF0FF38404601B0BDE862
:10AD5000F08F30B581B0044600F057FA0546214621
:10AD6000DFF84C0300F0DBFA284601B0BDE83040C4
:10AD700000F077BA10B50024022802D0032805D0CD
:10AD800008E000F005FD0446204610BD00F08AFEF4
:10AD9000204610BDFEE7F0B581B000F036FAC44998
:10ADA000054691F83801012460B1DFF82463DFF82B
:10ADB00024033768D7F80CC0002301223C21E04768
:10ADC00000B90024284600F04CFA204601B0F0BD3E
:10ADD00030B581B000F019FA044600F094FBB44D90
:10ADE000002085F8380100F010FA95F84611491E48
:10ADF00085F84611C9B219B9A96821F00801A960FE
:10AE000000F02FFA204600F02CFAAA4884680220AD
:10AE1000A0470546102000F068F8012D04BF03206C
:10AE2000A04701B030BD00002DE9F041A44C82B034
:10AE30006568206820EA050105406A06216049D559
:10AE4000A34EF16B0A6804209047022818BF03281C
:10AE500019D001283ED1032000901C23D6F800C051
:10AE60009C4FDCF804804FF0405200213846C04728
:10AE70000120009038463668776809234FF4007245
:10AE80000021B84726E0032000901C23D6F800C01C
:10AE9000904FDCF804804FF0405200213846C04704
:10AEA0000120009038463668776809234FF4007215
:10AEB0000021B84700F0A9F97D4991F84521521EBB
:10AEC00081F84521D2B21AB98A6822F004028A6058
:10AED00000F0C7F9280648BF00F022F8A56002B0CC
:10AEE000BDE8F08170470020704730B505467048D6
:10AEF000046881B05CB1A068284205D02269E3688B
:10AF000000212846984728B92468002CF3D1002056
:10AF100001B030BD4FF0FF3001B030BD00207047B0
:10AF200030B581B000F071F94FEA000400F0EBFA9F
:10AF30000028FBD000F069F95D4D95F84611491ED7
:10AF400085F84611C9B219B9A96821F00801A960AC
:10AF500000F087F9002085F83801204600F081F9DB
:10AF6000544884680220A04705461020FFF7BDFF23
:10AF7000012D04BF0320A04701B030BD70B50128EA
:10AF80004CD15F490A6813689847012800F0818016
:10AF9000474D95F8380100287BD1474EB068C0F383
:10AFA0008140B0B9434804699CB130684F49C00F33
:10AFB00019BF4FF4405008604FF480520A6050208F
:10AFC00000F0E2FB0120A04705F1940000F0E3F857
:10AFD00001E000F089FA012085F83801B068C0F37B
:10AFE000814010B93349086948B9287A810606D4E6
:10AFF000334880228260016841F08001016000F0E6
:10B0000004F9A96841F00801A96095F84611491CA6
:10B0100085F8461100F025F9002070BD002838D1D0
:10B0200000F09CFA244E224DB068C0F38140A0B9D4
:10B03000204804698CB105F1940000F0AEF8306846
:10B040002A49C00F19BF4FF44150C1F880004FF496
:10B050008252C1F880200020A04795F83801C0B185
:10B060001748016821F0800101608021816000F0B3
:10B07000CCF895F84611491E85F84611C9B219B9A0
:10B08000A96821F00801A96000F0EBF8002085F81C
:10B090003801002070BD000000B5144981B0402087
:10B0A000086000F021FA01B05DF804EB38E7000019
:10B0B0000C1A0020B4890300AC4F005000A10C40D2
:10B0C0009022084011BC030001B80300EE370020B5
:10B0D000A401001000A00C40A88B0300B8010010D0
:10B0E00028200860282008402C200940A8A00C40F7
:10B0F0002422084000400340800104430C400940E2
:10B10000E0010010DFF800F049E60210DFF800F07F
:10B110008DDD0210DFF800F0FDE90210F0B51C0033
:10B1200089B005460E46174605D10023FFF7EEFF0E
:10B13000284609B0F0BD0823242200216846FEF706
:10B140004FFCA16806916B462278ADF810203A4674
:10B150006068059031462846FFF7D8FF284609B0B9
:10B16000F0BDFFF7CFBFFFF7D5BF0D4800687047B0
:10B1700000F086BD00B581B000F09BFD401E80410F
:10B18000C043C00F01B000BD00218160017041606B
:10B190007047FEF731BCFEF733BCFEF729BC000058
:10B1A000C8750300DFF800F049EB0210DFF800F08B
:10B1B00075E40210DFF800F01DD90210DFF800F08E
:10B1C00019E90210F0B51C008DB005460E46174671
:10B1D00004D1002300F074FD0DB0F0BD082330222F
:10B1E00000216846FFF7DEFF206805906B46606827
:10B1F00008903A46207AADF818003146284600F00B
:10B200005FFD0DB0F0BDFFF7D1BFFEF7B9BBFFF793
:10B21000D1BF00B581B0FEF7D3FB401E8041C00F07
:10B2200001B000BD00F06CBDF0B581B004460D4624
:10B230001646FEF7A5FB074632462946204600F093
:10B2400069FD384601B0BDE8F040FEF79DBBFFF751
:10B25000B5BF002101604FF0FF320123426003724D
:10B260007047FEF791BB10B50446FFF7CEFF0021F3
:10B2700061602160BDE81040FFF7F3BF30B581B0D9
:10B280000546FFF7C2FF2C683CB1216829602168A0
:10B2900000291ABF00224A606960FFF7E2FF2046DA
:10B2A00001B030BD70B504460D461646FFF7ADFF40
:10B2B0002E60716869607168002914BF0D60256097
:10B2C0007560BDE87040FFF7CCBF30B581B0044673
:10B2D0000D46FFF79AFF0021296062686A60616885
:10B2E000002914BF0D602560656001B0BDE83040E5
:10B2F000FFF7B7BF30B581B004460D46FFF785FFB5
:10B300002168296000226A602168002914BF4D600D
:10B310006560256001B0BDE83040FFF7A2BF30B5E1
:10B3200081B004460D46FFF770FF29686A6800295E
:10B330000CBF62604A6069682A6800290CBF2260FD
:10B340000A6001B0BDE83040FFF78BBF30B51C4B41
:10B350001A685B6D0021C50704D5D40701D45B07CB
:10B3600000D50121830703D5540804F001042143CB
:10B37000400703D5920802F00102114309B10120F0
:10B3800030BD022030BD30B50D4B1A685B6D012118
:10B39000C50704D5D40702D45B0758BF0021830733
:10B3A00003D5540804F001042140400703D5920856
:10B3B00002F00102114009B1012030BD022030BD70
:10B3C0004021084030BF704770B500F0D5F9354CCA
:10B3D000206941688847FFF7BDF9054605F00C0074
:10B3E0000C2804D1AFF30080FFF7ECFF40E06807C2
:10B3F00025D400F097FC064601210120FFF7AEF9A5
:10B400002949096801FB06F2904218D2F020B0FBEE
:10B41000F1F0264C311A04F10C00FEF7EDFA04F1BC
:10B420000C00FEF7EDFAAFF300800120FFF753FBAD
:10B43000AFF3008004F10C00FEF7DAFA1AE0AFF384
:10B440000080280712D4216819488A689047042888
:10B45000F9D0E90600D408B9012000E0002000F08E
:10B46000C5F8144801210160006801E0FFF7AAFF58
:10B47000AFF30080BDE8704000F082B910B50E4C0B
:10B48000FEF78EFA2060FEF777FA606010BD10B507
:10B49000094C6068FEF77CFA2068BDE81040FEF7B2
:10B4A00087BA0000D8010010C87503000C1A0020EC
:10B4B000004003402C200940FC35002038B5DFF85F
:10B4C0000801DFF80851048814F0010403D14FF09B
:10B4D000012129600088DFF8F8201168884714B13D
:10B4E0004FF08070286031BD10B5DFF8F820136888
:10B4F0005C6801210120A047DFF8DC00DFF8DC10E8
:10B500000068886010BD38B5DFF8C840E16B0A6894
:10B510000120904701281FD02468DFF8AC00E568BF
:10B52000002301223C21A847B8B1FFF7C7FFDFF88D
:10B53000A800DFF8A83002689968DFF8A4001C684A
:10B54000DA60A4EB9404521A4243120C1A60196890
:10B550008C4238BF0C461C60012032BD38B5DFF884
:10B5600084402268536800210120984721680A68B6
:10B570000120904708B1FFF7A1FFDFF85C00DFF87A
:10B580005C5000686860E06801688847286131BDE8
:10B5900070B5154CA268E5681B3800FB00F100FB94
:10B5A00001F681FB0223C6FB05236568C0FB05236A
:10B5B0002068120942EA0372C117101841EB2311E7
:10B5C000000C40EA014070BD00A00C4004A40C40F7
:10B5D00080000010A401001030200940C436002073
:10B5E00040420F00E0010010D836002010B551494C
:10B5F000514C08605148026842F00302026020206A
:10B6000021688A6990474E4801682268906BBDE8BE
:10B61000104000472DE9F843054688469146002032
:10B6200000F059F84748464F434C474E002101600F
:10B6300027203A6821688A69904771694348014028
:10B6400071614FF48060F16D21F48071F1652168C2
:10B650000A6B904721680A6B4FF48160904721681C
:10B660000A6B4FF4C06090473949324A01200860A4
:10B67000C2F80080012337480360374801688A0711
:10B6800007D419F1010F06BF4FF04041C160C0F867
:10B690000C90386830688007FCD50720FFF756FE0D
:10B6A0000228FAD195B9216A2C4D8A68284690471C
:10B6B0000428F8D0012804D1226A536803212846BF
:10B6C00098471E4801688908890001602068816BDD
:10B6D000BDE8F143084710B51F4801688A0702D545
:10B6E0001F49C16010BD1F480468A10220D41E4834
:10B6F00001680A6890472417C0F13E00641CC0101E
:10B700001A4909680728C8BF0720A042B8BF2046C9
:10B71000C1F30321081A0F28C8BF0F2002DC01283B
:10B72000B8BF0120124940F0F000087011480278BB
:10B7300010BD00008C210840B801001024220840F0
:10B740002C2009400C40094028200840FFFFFEFE45
:10B750002820086080010443100009400040034095
:10B76000FD000040B44F0050EC0100100C130050DD
:10B770005A6208400D620840EFF3108072B67047BD
:10B78000EFF3108062B670470138FDD17047704703
:10B7900030B5DFF8AC5495F83901002481B00028A9
:10B7A00002BFDFF8A014887B00280CD0FFF72DFD26
:10B7B00095F83B11002906BF012285F83B210124A1
:10B7C000FFF74FFD14B1002001B030BD0220FFF79C
:10B7D0001BF90E20FFF72DF9DFF86C14086810B183
:10B7E000012001B030BDDFF86404402202604260F5
:10B7F0000120C861002185F83A11002001B030BD58
:10B800002DE9F041DFF8481482B000200860DFF82D
:10B81000304494F83A01002800F0408101283FD1DB
:10B82000DFF830140D68DFF830140A684BF2F520A9
:10B8300045432D0A02F44022B2F5802F13D1DFF8E0
:10B840001C0401688A030ED4DFF81464B06C01682C
:10B850008847FFF79DFEF16BCA6890472F09C0101B
:10B86000474305EBE73594F8400118B1002184F80F
:10B87000401106E0DFF8EC03006820F07F402D184F
:10B880006D08DFF8E403DFF8BC23056001212D0C0F
:10B8900045608160907B002800F0B8800221FBE0C9
:10B8A000022840F0B980DFF8AC030568DFF8BC037C
:10B8B000C16AC1F30721C4F814110168C1F38441BE
:10B8C000C4F81811B5F5C061C069C4F81011C0F30F
:10B8D0008120C4F8280103D1002084F8300191E0D0
:10B8E00094F8300168B9D4F81801D4F81421C4F8D8
:10B8F0002001C4F81C21C4F82C11D4F82801C4F884
:10B900002401D4F82C0100284CBF6FF00101022162
:10B9100000EB40000818D4F82011421000EB9270A0
:10B92000D4F81421C4F81C2101EBA0010029C4F8AB
:10B93000201115DCD4F82401032805D11531D8BF16
:10B940000121C4F8201124E00B31D8BF0121521E7F
:10B9500048BF0022C4F82011C4F81C21032019E0BC
:10B960001E2919DDD4F8240138B915391E29C8BF9C
:10B970001E21C4F8201103200CE00B391E29C8BF7A
:10B980001E21521C3F2AC8BF3F22C4F82011C4F810
:10B990001C210020C4F824010823B14ED4F81C0156
:10B9A000B34F80B200904FF47F42D6F800C0DCF86D
:10B9B000048030213846C047012000901123D6F87A
:10B9C00000C0DCF804804FF4003204213846C04740
:10B9D000D4F8200180B200901223D6F800C0DCF821
:10B9E00004804FF4F80204213846C047D4F82401FB
:10B9F00080B200903846366877680A234FF4406278
:10BA00002021B847A5F2FF55032D03D20620C4F824
:10BA10003C0143E004213FE003283FD18D4800680A
:10BA2000D4F81011A0F5C0600029C4F82C0148BF5B
:10BA30004942002848BF40428142A8BF002028DA7E
:10BA4000874DD4F814018A4E80B2009008232F68E5
:10BA5000D7F804C04FF47F4230213046E047D4F895
:10BA6000180180B2009012232F68D7F804C04FF459
:10BA7000F80204213046E047D4F8280180B2009053
:10BA800030462D686E680A234FF440622021B0478B
:10BA9000012084F830010621C4F83C1102B0BDE851
:10BAA000F04100BF2DE9F04782B0724C6C4DDFF8D9
:10BAB000C081714EDFF8889142F62A2709E000BF65
:10BAC000C9F83C0103212160002070607068810783
:10BAD000FCD4D9F83C01062800F29980DFE800F098
:10BAE000048A6F774C542F00012131600F22E260ED
:10BAF0002761022000900723D5F800C0DCF804A0DD
:10BB00004FF4C07200214046D047D5F800C0DCF8A1
:10BB10000CA007234FF4C07200214046D0470120FB
:10BB2000306031688807FCD50121E16199F839015D
:10BB300000281DBF0021316301200320C0E7002140
:10BB40003160716031688807FCD471688807FCD463
:10BB500000213F4A3C4B1160012018600E20FEF787
:10BB600001FF0220FEF7E5FE0020C9F83C0189F83C
:10BB70003B0102B0BDE8F0870520C9F83C01002177
:10BB8000716070688107FCD400210091032089F85E
:10BB90003A0104232C68676870224046B8472C6835
:10BBA000E5687023702200214046A847012070609C
:10BBB00002B009F15000BDE8F047FFF7ECBA0320EE
:10BBC000C9F83C010021716070688107FCD4002134
:10BBD0000091022089F83A0104232C6867687022DA
:10BBE0004046B8472C68E568702370220021404623
:10BBF000A847DBE70120022189F83A0100910423DC
:10BC00002C686568702200214046A847CEE7FEE711
:10BC10001A4801688A07FCD509491648D1F83C2121
:10BC2000012A07BF20218161012282610021016078
:10BC3000082206490A604A6001210160704700003D
:10BC40000C1A0020B489030004800C4038500C40CA
:10BC50003C500C4008400C40B44F00508C13005036
:10BC6000A4010010102009407C600C4004A00C408E
:10BC700000A00C4000400C4054600C4058600C4048
:10BC800070B5044600F06AF80646A08A002501282F
:10BC90000AD1FDF7A1FE0546E068A168451BA9424F
:10BCA0003EBF2069A8420025304600F058F82846DB
:10BCB00070BD808A7047282ADFF800F021D4021076
:10BCC000F8B504460B480C4F0668F8690D4650F865
:10BCD0002510B1420AD10948009029462046FFF7B5
:10BCE000EBFFF86950F82510B14201D10020F2BDF8
:10BCF0002046F2BD1C720300501100205017002096
:10BD0000102803D302491038C1F8000F704700BF54
:10BD100000E000E0816042607047292ADFF800F00F
:10BD2000C5EA021070B500F019F8094E0446B06873
:10BD30000021FFF7F3FF05467069B169451BA94271
:10BD400038BF0025204600F00AF8284670BD00BF25
:10BD500080100020DFF800F07DE8021000E006E02F
:10BD6000EFF31180202181F311887047000080F3E8
:10BD700011887047FFF7EEBFF2E7F8E7F0E7F6E764
:10BD80000000EDE7F3E70E49C20744BF01230B6053
:10BD9000820744BF4FF480730B60400744BF4FF4E9
:10BDA00080320A60704710B5064AC30748BF116069
:10BDB000840748BF5160400748BF916010BD000034
:10BDC0000420094018200940001800000118000054
:10BDD00000280000012800000228000003280000BD
:10BDE0000129000002290000002A0000012A0000A9
:10BDF000042A0000052A000038B54FF6FF74A0425F
:10BE00000DD100203B4A0025137898420DDA21F825
:10BE1000204001EB8003401C9D70C0B2F4E700F0AD
:10BE200056F810B104800021817031BD30B5034651
:10BE3000002400E0641CA0B2884205D203EB00108D
:10BE4000C5689542F6D130BD002030BDF8B5044636
:10BE500006980D460026F0B9022B1AD111785278B7
:10BE6000079801EB0227C043B9B201420FD1EA683B
:10BE70001168204600F012F8B9B288420CD0E86888
:10BE80000168BAB2204600F00FF8064604E08026AA
:10BE900002E00D2600E00B263046F2BD80B500F032
:10BEA00016F800B1807802BD70B504460D461646FE
:10BEB00000F00DF840B929464FF6FF7000F007F882
:10BEC00008B9112070BD04808670002070BD30B5A7
:10BED000002200E0521C074C2578D3B2AB4206D2B8
:10BEE00031F823408442F5D101EB830030BD0020BE
:10BEF00030BD0000C10F002070472A2ADFF800F093
:10BF0000A5EA021070B53D4C0FF249003C4DFDF71B
:10BF1000B3F900F052F923681E6801220121284676
:10BF2000B0472268374C5368012128469847364865
:10BF3000E26801681160FEF7AEF8E1684860FDF75D
:10BF4000E0FEFDF72EFF00F079F9FFF7D7FF0020A4
:10BF500070BD00007CB52D4E044630680D4628B9F2
:10BF600000214FF0FF3000F051FF306000223068B8
:10BF700029A3002100F076FFA41E30682AA3052C17
:10BF800036D8DFE804F00E3503191F3000F040F812
:10BF900028A3306802B0BDE870400022022100F002
:10BFA00061BF012D04D100F033F800BF26A3F0E7F4
:10BFB00000F02EF82AA3ECE700F02AF8D6F80000EB
:10BFC0002CA304E000F024F8D6F800002DA30022F2
:10BFD000022100F047FF01208DF800009DF80000CD
:10BFE0000028FBD173BD00F013F830682AA3EEE7F8
:10BFF00000F00EF8D6F800002CA3E8E7D8010010F6
:10C00000004003402C140020C8750300742D00204C
:10C010000022002100F026BF3E3E3E535441434BD8
:10C0200020415353455254002A2A2A4552524F5216
:10C030002A2A2A003E3E204F5554204F46204D4587
:10C040004D4F5259210000003E3E20494E5445526A
:10C050004E414C204657204552524F52210000007D
:10C060003E3E20494E5445524E414C204552524F7F
:10C07000522100003E3E204943414C4C2041424F5A
:10C08000525421003E3E204943414C4C2054494DDE
:10C09000454F5554210000003E3E2057524F4E4719
:10C0A000204150492043414C4C2100003E3E204459
:10C0B000454641554C54205350494E4C4F434B211B
:10C0C0000000000001B1012100F1804000F50830BE
:10C0D0000170704770B504460D46164600F08CF8A6
:10C0E000324629462046BDE8704000F0CDBE70B50E
:10C0F0000D4600F041F8002600F043F8C6F10700B5
:10C1000025FA00F202F00102092100F03CF80122B8
:10C1100000F038F80820FFF737FB761CF0B208284B
:10C12000EADB00F02EF80122142100F02CF8BDE823
:10C1300070404FF42F70FFF727BB000030B500BFF1
:10C1400026A385B0D3E90045CDE90045694602A89C
:10C1500001F0C4F800F010F80120FFF715FB0122F0
:10C16000142100F010F84FF40C70FFF70DFB20467F
:10C1700001F00EFA05B030BD04460022142101F092
:10C180003ABA00220A21204601F035BA10B588B02B
:10C19000FFF7D4FF0DF10C0012A11422FEF76EF987
:10C1A00003A9684601F09AF80446B921FFF79FFFFA
:10C1B000204601F0EDF908B010BD80B5FEF7E7FAB2
:10C1C000054800F025FF00B1FEE7FFF7DFFFBDE8FF
:10C1D000014001F077BA0000848903001404C0A074
:10C1E000FE0000001404C0A00A0480A0090480A07E
:10C1F00008400080FE0000007047502ADFF800F081
:10C20000295E0210DFF800F0D9D50210DFF800F047
:10C2100001CE0210DFF800F021EB021080B5FFF72D
:10C22000ABFADFF8081B01200860FEE781B00020B0
:10C230008DF800009DF80000401CF9E700B58FB0B4
:10C2400008233C2200216846FDF792FBDFF8E00A54
:10C2500000F150014FF4B062012307910892069358
:10C260006A4600230FF20901FFF7CCFF0FB000BDB3
:10C270002DE9F04FDFF8BC6AA9B006F1080130469D
:10C28000FDF7F4FD06F1140001F07EFAF0600421E0
:10C2900002A801F030FB06F13000009015230022C7
:10C2A000DFF8941ADFF8944A00F0E2FB0223002240
:10C2B000DFF88C1A00F0CCFB01218DF80710012269
:10C2C00000210DF107008DF806208DF805108DF87E
:10C2D0000420009001234FF4806200F0C4FB0DF1B4
:10C2E00006000090012340F2024200F0BCFB0DF179
:10C2F00005000090012340F2034200F0B4FB01A8C6
:10C300000090012340F2064200F0ADFB4FF0FF32F7
:10C31000DFF8301ADFF8304A00F0A1FB4FF0FF32AF
:10C32000DFF8281A00F09BFBFDF71AFA06F18402E9
:10C33000DFF81C1A00F093FB00F08DFB0246DFF8DB
:10C34000141A00F08CFB40F64803FB22DFF8081AB1
:10C3500000F07EFBDFF8041A1020FDF7F0FF00F07C
:10C360007AFB0246DFF8F81900F079FB4FF6FD7012
:10C3700000F030FC00F06FFB0346002001900090BD
:10C380000422DFF8E01900F073FB28212046FEF7B5
:10C3900061F84FF6FF702080A08242F210742046B0
:10C3A00001F026FA18B906F18C0001F09BFA00F0B2
:10C3B00047FB002820D04FF000094FF0060A03E0A9
:10C3C0000C28FADB4FF0070A504601F02DF9421E07
:10C3D0009241D20F514606F1480001F00CF9204677
:10C3E000FFF714FF09F101095FFA89F01428E7DB70
:10C3F00006F1480001F0CCF86EE278780E2819D0EA
:10C400000F2809D0102810D03E2804BFB9780C2975
:10C410000AD139460C2005E0B98842F23200814247
:10C4200002D1394600F03FFC08E200210820FFF766
:10C4300091FD03E2B88841F20541884214D042F2EE
:10C440002C018842F5D1BA68541C062206F17C0101
:10C45000204602F0A9F9002805D00622214606F15F
:10C460007C00FDF7FBFFE9E1B96808780028FAD104
:10C470004878897800EB012290B200F099FB0446DD
:10C48000012CC8BFFFF7D2FEB968142044435444BE
:10C4900091F90300617B214408720521607B401CF7
:10C4A0006073C0B290FBF1F101EB8101401A60733F
:10C4B00000210020CAB22244491C92F908208018A9
:10C4C000CBB2042BF6DD00B2052190FBF1F0A07396
:10C4D0000025E07B0028C6D194F90E0010F11E0F54
:10C4E00005DB207C02281CBF0028022709D194F913
:10C4F0000E0028300A2806D2207C012803D070B113
:10C500000127B84614E094F90E0032300A2806D20A
:10C51000207C20B14FF004080125062708E094F99B
:10C520000E0010F1320F2CDA4FF00408022502271A
:10C53000607CB84202D1A27C012A01DDB84220D041
:10C54000B4F800B00C20FDF746FD88B1A0F808B0A3
:10C55000014606F12000FEF7B8FE0295CDF80480F2
:10C56000CDF8008000235A46DFF8FC1700F080FA6F
:10C570000120617CE073B9421CBF0020A0740DB99A
:10C5800067745BE1012D19BF02216174062060749C
:10C5900054E138797F2804BF388901F0D2FC397919
:10C5A00007F10800FFF72AFE48E1B878DFF8BC87FA
:10C5B000DFF8BC17002800F0CF8005287BD00628C4
:10C5C0003AD0072802D0112814D037E1BA88DFF812
:10C5D000A41705AB1020FDF7B2FE06F12800FEF708
:10C5E0004DFE040005D0208900F023FB2046FDF716
:10C5F000F3FC23E1B888ADF80000B97B8DF80A1090
:10C60000788978B9F888ADF8020001223889ADF848
:10C6100004007889ADF80600B989ADF808108DF8E6
:10C620000B2002E000208DF80B006A46DFF8481767
:10C630001020FDF784FE01E11020FDF780FEBF8889
:10C64000384600F0B5FA02282ED04FF0140B0AF14C
:10C6500004011BFB00F00C5864B1204601F067F8A0
:10C6600010B1204601F06AF82046FEF74BFD204647
:10C67000FDF7B2FC384600F09BFA0446012CC8BF17
:10C68000FFF7D4FD009701230022294600F0F0F9BE
:10C690001BFB04F40AF10F01002008550AF11303F3
:10C6A0001855384600F096FA00F0EDF900F0E3F97D
:10C6B00001F042FCC2E01020FDF741FE054678780B
:10C6C00070BBB7F80AB0142141430AEB01073A885E
:10C6D000A24203D0401C0128F5DD21E00090A7F81C
:10C6E00000B00320FDF777FC040017D0082020706D
:10C6F000A4F801B02420FDF76EFC009BDFF87C2637
:10C7000014214B43D05048B10122009201940023E0
:10C7100041F270720FF2953100F0E2FF012038749F
:10C72000EDB2012D07DC00F0AEF900203279009067
:10C73000002341460DE000200090DFF844463279A6
:10C740000023214600F094F90020F27800900023A5
:10C75000214600F08DF971E0787800286ED1B87923
:10C76000DFF820460FF269358DF8140005A8F97935
:10C77000417000213A7A0171C1708270F97AC171F9
:10C78000BA7A827105AA797A417100200821FCF7F2
:10C79000F5FF0EA80FF23C611C22FDF76FFEF01CA6
:10C7A00000900EAB00F05EF9C0B208B1FFF73EFD9D
:10C7B00000F040F9DFF8D075F278002300F057F967
:10C7C000C0B208B1FFF732FD06F15C001D210190F7
:10C7D00000910123F27800F04AF9C0B208B1FFF7E6
:10C7E00025FDDFF8A8B5F27800F030F900F04BF93C
:10C7F000C0B208B1FFF71AFD07A80FF2F4511C22CE
:10C80000FDF73CFE301D009007AB00F02BF9C0B2E5
:10C8100008B1FFF70BFD00F00DF90023327900F0AD
:10C8200026F9C0B208B1FFF701FD327900F00EF928
:10C8300000F021F9C0B208B1FFF7F8FC049808B184
:10C84000FDF738FB5FEA490000F1A3805FEA097158
:10C850000AD501F071FB00F0F3F828B1012206219E
:10C8600006F1480000F0C7FE5FEA89702AD501F0A2
:10C870005FF8102826D101F03AF802461323DFF8BA
:10C88000101500F0E5F801F058FBD8B18D2105A88E
:10C89000FDF7E0FDFCF79AFE90B12C2205A90020DF
:10C8A000FCF7C1FE60B90A9850B101F05CFB38B9E1
:10C8B0000A9840000A9004220AA91420FCF7D2FE2C
:10C8C000FFF7ACFC5FEA497006D500F0C4F80246F9
:10C8D000DFF8C01400F0C3F8B068DFF8BC244FF0F4
:10C8E000FF330021FDF770F85FEA0009F4D0002063
:10C8F000049004AA03A90DF10E00FDF7F0FA002838
:10C90000DFF844A49ED1BDF80E00102802BF9DF8A8
:10C910000C003178884291D1049801884FF6FF7459
:10C92000A1428BD00746DFF87454387891283FF441
:10C9300064ADA22806D0B0283FF42BAED0283FF437
:10C9400034AE7BE779796529FBD170790028F8D07E
:10C9500000217171387AC0F10500707000F0C7FFD6
:10C96000009000230FF20522294600F081F80120F3
:10C97000B07063E760680168B1F1004F1CBF4068A8
:10C98000FDF72AFB606808B1FDF726FB2046FDF79E
:10C9900023FBF068FFF73EFC00287FF457AFF068F8
:10C9A00000F013FF0400F4D020780328E2D005281B
:10C9B00035D0072830D0082828D00928E2D165686A
:10C9C000B07898B1707870B9012006F1100130612B
:10C9D000009104234FF48072DFF8C41300F048F88C
:10C9E000FFF71CFCCEE7401E7070CBE7688800F0B4
:10C9F000DFF814220AF113015043085C0128C1D169
:10CA00006A88DFF8A01300F02AF8BBE76068B0F886
:10CA1000010000F00EF9B9E700F042F8B2E7DFF8E4
:10CA20008803009000236168CA88DFF8801300F053
:10CA30001FF8A7E706F15400072101900091704705
:10CA40000FF2843106F1480000F048BC92235946A9
