:020000040000FA
:100000004343313378325231A8DF36280301BFFF32
:10001000FFFF0700FFFFFFFF68050100A8000000C9
:1000200030313030670501002C00FFFF01BFFFFFBA
:100030003C05010000000000FFFFFFFFFFFFFFFF86
:10004000FFFFFFFFFFFFFFFFFFFFFFFFFFFFFFFFC0
:10005000FFFFFFFFFFFFFFFFFFFFFFFFFFFFFFFFB0
:10006000FFFFFFFFFFFFFFFFFFFFFFFFFFFFFFFFA0
:10007000FFFFFFFFFFFFFFFFFFFFFFFFFFFFFFFF90
:10008000FFFFFFFFFFFFFFFFFFFFFFFFFFFFFFFF80
:10009000FFFFFFFFFFFFFFFFFFFFFFFFFFFFFFFF70
:1000A000FFFFFFFFFFFFFFFFC05D002035E5000001
:1000B00069B1000069B1000069B1000069B10000D8
:1000C00069B1000069B1000069B1000069B10000C8
:1000D00069B1000069B1000069B1000069B10000B8
:1000E00029B10000FFFFFFFF70B54FF0FF0C4CF48B
:1000F000E06C1CEA11541DBF1CEA135594EA0C0F66
:1001000095EA0C0F00F0DEF82C4481EA030621EAA0
:100110004C5123EA4C5350EA013518BF52EA0335DB
:1001200041F4801143F4801338D0A0FB02CE4FF08D
:100130000005E1FB02E506F00042E0FB03E54FF0BD
:100140000006E1FB03569CF0000F18BF4EF0010EB5
:10015000A4F1FF04B6F5007F64F5407404D25FEAB1
:100160004E0E6D4146EB060642EAC62141EA555164
:100170004FEAC52040EA5E504FEACE2EB4F1FD0CA6
:1001800088BFBCF5E06F1ED8BEF1004F08BF5FEA24
:10019000500E50F1000041EB045170BD06F00046D6
:1001A00046EA010140EA020081EA0301B4EB5C0483
:1001B000C2BFD4EB0C0541EA045170BD41F480117B
:1001C0004FF0000E013C00F3AB8014F1360FDEBFA0
:1001D000002001F0004170BDC4F10004203C35DA7C
:1001E0000C341BDC04F11404C4F1200500FA05F3FF
:1001F00020FA04F001FA05F240EA020001F00042A0
:1002000021F0004110EBD37021FA04F642EB060115
:100210005EEA430E08BF20EAD37070BDC4F10C043F
:10022000C4F1200500FA04F320FA05F001FA04F203
:1002300040EA020001F0004110EBD37041F10001EF
:100240005EEA430E08BF20EAD37070BDC4F12005FA
:1002500000FA05F24EEA020E20FA04F301FA05F262
:1002600043EA020321FA04F001F0004121FA04F20A
:1002700020EA020000EBD3705EEA430E08BF20EADA
:10028000D37070BD94F0000F0FD101F00046400014
:1002900041EB010111F4801F08BF013CF7D041EA96
:1002A000060195F0000F18BF704703F0004652009A
:1002B00043EB030313F4801F08BF013DF7D043EA6B
:1002C0000603704794EA0C0F0CEA135518BF95EA21
:1002D0000C0F0CD050EA410618BF52EA4306D1D1A8
:1002E00081EA030101F000414FF0000070BD50EAC7
:1002F000410606BF1046194652EA430619D094EA51
:100300000C0F02D150EA013613D195EA0C0F05D13A
:1003100052EA03361CBF104619460AD181EA03018E
:1003200001F0004141F0FE4141F470014FF0000046
:1003300070BD41F0FE4141F4780170BD81F0004193
:1003400002E000BF83F0004330B54FEA41044FEABA
:10035000430594EA050F08BF90EA020F1FBF54EA55
:10036000000C55EA020C7FEA645C7FEA655C00F0F1
:10037000E2804FEA5454D4EB5555B8BF6D420CDDC2
:100380002C4480EA020281EA030382EA000083EA45
:10039000010180EA020281EA0303362D88BF30BDE5
:1003A00011F0004F4FEA01314FF4801C4CEA11313B
:1003B00002D0404261EB410113F0004F4FEA03339A
:1003C0004CEA133302D0524263EB430394EA050F25
:1003D00000F0A780A4F10104D5F1200E0DDB02FA94
:1003E0000EFC22FA05F2801841F1000103FA0EF228
:1003F000801843FA05F359410EE0A5F120050EF1EE
:10040000200E012A03FA0EFC28BF4CF0020C43FA1E
:1004100005F3C01851EBE37101F0004507D54FF02B
:10042000000EDCF1000C7EEB00006EEB0101B1F57B
:10043000801F1BD3B1F5001F0CD349085FEA3000C1
:100440004FEA3C0C04F101044FEA445212F5800FCC
:1004500080F09A80BCF1004F08BF5FEA500C50F169
:10046000000041EB045141EA050130BD5FEA4C0C4C
:10047000404141EB0101013C28BFB1F5801FE9D2A9
:1004800091F0000F04BF01460020B1FA81F308BFCC
:100490002033A3F10B03B3F120020CDA0C3208DD98
:1004A00002F1140CC2F10C0201FA0CF021FA02F173
:1004B0000CE002F11402D8BFC2F1200C01FA02F1E3
:1004C00020FA0CFCDCBF41EA0C019040E41AA2BF08
:1004D00001EB0451294330BD6FEA04041F3C1CDAD0
:1004E0000C340EDC04F11404C4F1200220FA04F0F0
:1004F00001FA02F340EA030021FA04F345EA03019A
:1005000030BDC4F10C04C4F1200220FA02F001FA5B
:1005100004F340EA0300294630BD21FA04F02946DD
:1005200030BD94F0000F83F4801306BF81F4801176
:100530000134013D4EE77FEA645C18BF7FEA655CE9
:1005400029D094EA050F08BF90EA020F05D054EABB
:10055000000C04BF1946104630BD91EA030F1EBFC0
:100560000021002030BD5FEA545C05D140004941C4
:1005700028BF41F0004130BD14F580043CBF01F5B7
:10058000801130BD01F0004545F0FE4141F470019D
:100590004FF0000030BD7FEA645C1ABF1946104678
:1005A0007FEA655C1CBF0B46024650EA013406BF79
:1005B00052EA033591EA030F41F4002130BD00BF38
:1005C00090F0000F04BF0021704730B54FF48064F5
:1005D00004F132044FF000054FF0000150E700BF76
:1005E00090F0000F04BF0021704730B54FF48064D5
:1005F00004F1320410F0004548BF40424FF00001C2
:100600003EE700BF42004FEAE2014FEA31014FEA04
:1006100002701FBF12F07F4393F07F4F81F0605153
:10062000704732F07F4208BF704793F07F4F04BF9E
:1006300041F40021704730B54FF4607401F000457B
:1006400021F000411CE700BF50EA010208BF7047DB
:1006500030B54FF000050AE050EA010208BF7047CC
:1006600030B511F0004502D5404261EB41014FF435
:10067000806404F132045FEA915C3FF4D8AE4FF03D
:1006800003025FEADC0C18BF03325FEADC0C18BF20
:10069000033202EBDC02C2F1200300FA03FC20FA71
:1006A00002F001FA03FE40EA0E0021FA02F11444BE
:1006B000BDE600BF4FF0FF3C06E000BF4FF0010C6D
:1006C00002E000BF4FF0010C4DF804CD4FEA410CA1
:1006D0007FEA6C5C4FEA430C18BF7FEA6C5C1BD06E
:1006E00001B050EA410C0CBF52EA430C91EA030FEF
:1006F00002BF90EA020F0020704710F1000F91EA4C
:10070000030F58BF994208BF90422CBFD8176FEA19
:10071000E37040F0010070474FEA410C7FEA6C5CE7
:1007200002D150EA013C07D14FEA430C7FEA6C5CEE
:10073000D6D152EA033CD3D05DF8040B704700BF1A
:100740008446104662468C461946634600E000BF68
:1007500001B5FFF7B7FF002848BF10F1000F01BD3A
:100760004DF808EDFFF7F4FF0CBF012000205DF805
:1007700008FB00BF4DF808EDFFF7EAFF34BF01208A
:1007800000205DF808FB00BF4DF808EDFFF7E0FF23
:1007900094BF012000205DF808FB00BF4DF808ED74
:1007A000FFF7CEFF94BF012000205DF808FB00BFDB
:1007B0004DF808EDFFF7C4FF34BF012000205DF8BD
:1007C00008FB00BF4FEA410212F5001215D211D505
:1007D0006FF47873B3EB625212D94FEAC12343F03E
:1007E000004343EA505311F0004F23FA02F018BFC0
:1007F000404270474FF00000704750EA013005D189
:1008000011F0004008BF6FF0004070474FF000004B
:10081000704700BF4A0011D212F5001211D20DD557
:100820006FF47873B3EB62520ED44FEAC12343F0F6
:10083000004343EA505323FA02F070474FF00000A0
:10084000704750EA013002D14FF0FF3070474FF04F
:100850000000704753B94AB9002908BF00281CBFDF
:100860004FF0FF314FF0FF3000F06EB9ADF1080CE2
:100870006DE904CE00F006F8DDF804E0DDE90223BE
:1008800004B070472DE9F047089D04468C46002BC4
:1008900040F083808A42174647D9B2FA82F242B1C9
:1008A000C2F1200024FA00F09140974040EA010C88
:1008B00094404FEA1748230CBCFBF8F61FFA87FE5A
:1008C00008FB16C143EA014306FB0EF1994209D920
:1008D000FB1806F1FF3080F01981994240F2168131
:1008E000023E3B445B1AA4B2B3FBF8F008FB1033A2
:1008F00044EA034400FB0EFEA64509D93C1900F169
:10090000FF3380F00581A64540F2028102383C4465
:1009100040EA0640A4EB0E0400261DB1D44000239B
:10092000C5E900433146BDE8F08702B9FFDEB2FAFF
:1009300082F2002A50D1CB1B4FEA174E1FFA87F8DC
:100940000126B3FBFEFC210C0EFB1C3341EA0341E4
:1009500008FB0CF38B4207D979180CF1FF3002D257
:100960008B4200F2E9808446C91AA3B2B1FBFEF0C3
:100970000EFB101143EA014408FB00F8A04507D91B
:100980003C1900F1FF3302D2A04500F2D98018468D
:10099000A4EB080440EA0C40BFE78B4209D9002DC4
:1009A00000F0B1800026C5E9000130463146BDE8BF
:1009B000F087B3FA83F6002E4AD18B4202D38242EB
:1009C00000F2B880841A61EB030101208C46002DEF
:1009D000A8D0C5E9004CA5E7C2F1200320FA03F630
:1009E000974001FA02F04FEA174ED9403043030C0A
:1009F000B1FBFEF61FFA87F80EFB161143EA01431E
:100A000006FB08F1994204FA02F409D9FB1806F131
:100A1000FF3C80F08D80994240F28A80023E3B4448
:100A20005B1A81B2B3FBFEF00EFB103341EA0341C7
:100A300000FB08F38B4207D9791800F1FF3C73D211
:100A40008B4271D902383944CB1A40EA064678E71E
:100A5000C6F1200C03FA06F422FA0CF31C4320FA28
:100A60000CF701FA06F34FEA144E21FA0CF11F437A
:100A70003B0CB1FBFEF91FFA84F80EFB191143EA97
:100A8000014109FB08FA8A4502FA06F200FA06F368
:100A900008D9611809F1FF3048D28A4546D9A9F131
:100AA00002092144A1EB0A01BFB2B1FBFEF00EFB2B
:100AB000101147EA014700FB08F8B84507D9E719C4
:100AC00000F1FF312ED2B8452CD90238274440EA34
:100AD0000940A7EB0807A0FB02894F45C6464946D7
:100AE0001AD317D05DB1B3EB0E0267EB010707FA1B
:100AF0000CFCF2404CEA0202F740C5E90027002650
:100B00003146BDE8F0872E4628460BE70646E9E663
:100B10001846FDE64345E5D2B8EB020E69EB040149
:100B20000138DFE70846D2E760468DE78146B9E73E
:100B3000664675E730464AE7ACF1020C394413E7E4
:100B400002383C4424E700BF704700BF034613F857
:100B5000012B002AFBD1181A013870472DE9F0410A
:100B6000154E96F8008004460F46B8F1000F05D0E8
:100B7000124B18680AF04EFF00233370104B1D68AB
:100B8000BFB9A37D53B9E37D003B18BF0123337088
:100B900002212846BDE8F0410AF0FEBDB8F1000F81
:100BA00007D0227D0748214618320DF080FB08212E
:100BB000EFE70421EDE700BF04260020E42A00202F
:100BC000E82A0020082600202DE9FF47684601F0AA
:100BD0004FFA684601F07CFA10B172480CF074FBD1
:100BE000714C724D724F082006F0BCFC012222604D
:100BF0002E463B68DA07FCD56E4B1B6802205B680B
:100C00009847C0B228700028F3D000232360082042
:100C100006F0E0FA01226548114601F0DBFD10B153
:100C200065480CF051FB654D33782B7002236B70D7
:100C30000AF082FB624FDFF8B491624C3860DFF853
:100C4000B081C2464FF0FF331A46D8F800000021A9
:100C50000AF02EFDC307064651D50AF06DFB396830
:100C6000594BDFF890C11A683860814234BF431A8B
:100C70000B1A53436A68B3FBFCF313446B60D9F857
:100C800000302B81514B0F201B886B8006F064F8DD
:100C9000002323702B7863736B78A3736B882374A2
:100CA0001A0A2B89E273A3741A0A6B6862741A0E0B
:100CB000E2741A0C2275A3751A0A0C232373B0FA76
:100CC00080F014234009C4F894304FF40073A872E4
:100CD000E0753F49A4F890300320627501F0CCFD27
:100CE000384801F0FFFB10B13A480CF0EDFA3A48F1
:100CF000002101F0BFFC10B138480CF0E5FAB00754
:100D000015D5374B1B785BB13149032001F0B4FD99
:100D10003148002101F0AEFC10B130480CF0D4FA9B
:100D2000002384F898302F4B18680AF073FE3107BF
:100D300008D52D48837D032B04D100F11701153010
:100D400000F01AFD72071CD5254B1B78CBB994F81F
:100D5000902094F891309A421ED2204601F0C2FBB6
:100D600010B11C480CF0B0FA1B48002101F082FCC5
:100D700010B11A480CF0A8FA94F89030013384F8B6
:100D80009030F3067FF55EAF012384F89830154B61
:100D900018680AF03FFE52E7DAF8000010210AF066
:100DA000FBFCEEE794E50000A8025042A0260020DC
:100DB00008800240CC010010A9E50000F8250020C1
:100DC000E02A00205C250020BCFB00005825002004
:100DD00080380100CCE500005D0B0000E5E5000077
:100DE00004260020EC2A0020082600202850094074
:100DF000E82A0020A086010030B51E4C91B00125E4
:100E0000082307A8242200218DF8345009F0CCFFD4
:100E100007AA2946204609F0EBFF174B1C60174C28
:100E200007AA2046002109F0E3FF154B1C60154C72
:100E30000823182201A8002109F068FF01A9204613
:100E400009F070FF104B1C60104C082320463C2218
:100E500000210AF0B1F84FF4806323620323A361F9
:100E60000B4BE3610B490C48002322460AF0B8F80B
:100E700011B030BD78480020E42A0020F847002057
:100E8000EC2A002014480020E82A0020A426002094
:100E9000E0260020C90B000028480020014B1878EC
:100EA000704700BFA026002038B50F4D04464FF014
:100EB000FF3128680AF048FD0C4B1C800C4B0121C7
:100EC00018680AF069FC0B4B4FF0FF3118680AF004
:100ED0003BFD094B93F89840084B1B7813B92868E1
:100EE0000AF098FD204638BDE42A0020582500204D
:100EF000E82A0020EC2A00205C250020042600209F
:100F00002DE9F041134D144C0F4680464FF0FF3150
:100F1000286816460AF018FD104B20461B7800F88A
:100F20000D8B32463B7039460DF0C1F90023204647
:100F30002673C4F89430A4F8903001F0D3FA10B1BD
:100F400007480CF0C1F928680AF064FD0020BDE8EC
:100F5000F08100BFE42A00205C250020A0260020AC
:100F6000CCE50000F0B5354D2B7885B013B9FFF70F
:100F700095FF2870324F334E3A78A2B9324C039223
:100F8000206802F00FF82B78039A009311462F4B3C
:100F9000206802F00DF833880093039A2C4B2068E8
:100FA000012102F005F82B782A4C0093002211460B
:100FB000294B206801F0FCFF338800930022114682
:100FC000264B206801F0F4FF3A78B2B1244B1B881D
:100FD0000193244B1B88009300221146224B20686A
:100FE00001F0E6FF214B1B6800930022204B206894
:100FF000114601F0DDFF05B0F0BD1E4B93F9001066
:101000004B1CF8D00129206813D002290AD091B9CD
:10101000194B0A4601F0CCFF206805B0BDE8F0404E
:1010200001F0E0BF154B114605B0BDE8F04001F0FE
:10103000BFBF134BF7E7134BF5E700BF202B002092
:10104000662F00200C2B0020042B002002E600005D
:1010500011E60000082B00201BE6000036E6000029
:101060006C2F0020642F00204DE60000682F002028
:1010700061E600002C1B002077E6000093E60000EC
:10108000A3E60000B0E6000083B5684601F086FFE5
:10109000032369464FF000408DF8003001F04EFF09
:1010A000384C694620604FF0804001F047FF364AD7
:1010B000106020B10022354B114601F079FF206805
:1010C00020B10022324B114601F072FF3149324803
:1010D000324C05F0B5FE206010B931480CF0F4F840
:1010E0004FF47F6201214FF4803000F0E3FD2D4882
:1010F0002D4D00F00DFE00F007FE2C4B28681B68FC
:101100002B49B1FBF3F10AF06BFA2868294D0AF07C
:101110002DFA2949294805F093FE286010B928487E
:101120000CF0D2F82749286805F06AFE10B126486D
:101130000CF0CAF8254D264E28684FF0FF330021E9
:101140001A460AF0B5FAC10701900FD506202768A4
:1011500005F04CFEB0FA80F252090621384605F03F
:101160002BFE3088FFF7A0FEFFF7FCFE019B9A07DD
:1011700001D5FFF7F7FE019B5B07DDD501A800F065
:101180001FFAD9E7042B0020082B0020BBE6000043
:10119000DAE60000301B0020142B0020102B00206A
:1011A000EDE60000D5110000002B0020BCFB000084
:1011B00080C3C901F02A0020201B0020F42A00204F
:1011C00018E70000F911000038E70000242B002088
:1011D0000C2B0020034B1880034B012118680AF0E8
:1011E000DBBA00BF0C2B0020242B00204FF47F61C2
:1011F0000F2000F07FBD000008B509480CF085FB0A
:101200000F2005F0A9FD50B901204FF47F6100F0D7
:1012100071FD044B1868BDE808400AF0A7B908BD85
:10122000801A0600002B002070B5002492B0214DDA
:10123000214E029408231822214603A8CDE9004438
:1012400009F064FD03A9284609F06CFD35602422ED
:101250001A4D0DEB02002146082309F021FD09ABD0
:10126000284617490E940122ADF8344009F024FDB8
:10127000144B1D60144D2146284608233C2209F0DA
:101280009BFE4FF480632B620323AB610F4BEB613A
:101290002A4623460E490F4809F0A2FE3368009300
:1012A000042101236846CDE9011300F043F912B08F
:1012B00070BD00BF94480020242B0020F848002077
:1012C000ED110000002B0020282B0020642B0020B3
:1012D00089100000A84800200C4B13B500241C7096
:1012E0000B4B187058B101A801F058FE03238DF87C
:1012F0000430084B22461868012101F06BFE064BB2
:10130000022118680AF048FA02B010BD662F0020CA
:101310002C1B0020042B0020242B002037B5054671
:10132000FFF7BCFD8DF8070000F022F800F05AF836
:1013300000F050F8012204460DF10701102000F0E2
:1013400033F8012204432946112000F02DF8E4B2BD
:10135000204310F0FF0F01D000F044F800F080F9B6
:101360000CF0CBFA014B01221A60FEE77C0520430A
:1013700038B50A4D2C686CB904F09EFD084804F09D
:10138000F9FD0749204604F0B3FD286020B1054966
:1013900004F08EFD002038BD0220FCE7702F0020F5
:1013A000742F0020782F00201346094A13B51468C3
:1013B00064B1042200920A460146204604F0E6FD8C
:1013C00000280CBF0020042002B010BD0120FBE764
:1013D000702F0020024910220020FFF7E5BF00BF58
:1013E00063E7000008B5074B186848B1064B0021B9
:1013F0009A6804F059FD00280CBF0020042008BDA5
:101400000120FCE7702F0020782F0020FFF786BF17
:1014100010B58AB004461C22002103A80CF055FF29
:10142000124B1A889B788DF80A30114BADF80820C2
:101430001A6A1B7BCDF80B2003F00F03092B94BF16
:10144000303341338DF805300A4A30238DF80430AB
:101450001268BDF80430CDF80F2002A92046ADF87F
:10146000133000F09FF90AB010BD00BF74E7000010
:101470000000000078E7000010B50B468C1E023219
:101480000321D2B2007803F8011C2146FFF738FD92
:10149000204609F01FFB012010BD0000024B996897
:1014A00018680AF079B900BF1C490020024BD3E943
:1014B00000010AF071B900BF1C49002010B54FF4BB
:1014C0007A73074C5843074B1968B0FBF1F1206859
:1014D0000AF086F82068BDE810400AF047B800BF5F
:1014E000B82F0020BCFB000010B54FF47A73074CF6
:1014F0005843074B1968B0FBF1F120680AF070F807
:101500002068BDE810400AF031B800BF842F0020E9
:10151000BCFB000013B5821C1046019209F0D8FAFA
:10152000044620B1019A00210CF0CFFE023420467F
:1015300002B010BD10B50246184B51680068184C37
:1015400003C38CB09068186001A800F005F9154B32
:10155000019301A8144B029300F002F903A8082399
:101560002422002109F09CFB00230893ADF81C30D5
:10157000204603AB0D49012209F09EFB0C4B0D499F
:101580001C600D4C03AB0122204609F095FB0B4B70
:101590001C6000F02BF90CB010BD00BF1C490020EE
:1015A000882F00205C1B00203C1B0020AD14000095
:1015B000842F00209D140000BC2F0020B82F002095
:1015C000F8B5204B02685B681A4236D01E4D2B7866
:1015D0002BB10CF092F91D4B01221A60FEE71C4C56
:1015E000237853B31B4F3E685EB100F027F90646DF
:1015F000FFF772FE0020207006B3BDE8F840FFF749
:1016000073BF154A1368591C042B11600BD930465F
:101610002670FFF769FF3046FFF750FF00F08CF9A6
:101620000120FFF759FE0D4A4FF0FF333B6013686E
:10163000013313602378002BD7D1F8BD01232B7021
:10164000A020DAE71C490020AC2F00207C052043B5
:10165000AD2F0020381B0020B02F0020B42F002019
:1016600007B504220DEB020100231420019300F0C2
:10167000C9F9019B04225B000DEB020114200193C8
:1016800000F0EEF903B05DF804FB000008B5034B71
:101690005B681B6803B19847002008BDE02F00205D
:1016A00008B5044B5B685B680BB1013198470020BB
:1016B00008BD00BFE02F002008B5044B5B689B68A5
:1016C00013B18A1C49789847002008BDE02F0020FC
:1016D00008B5044B5B68DB680BB14978984700207C
:1016E00008BD00BFE02F0020084B5B6870B51C6987
:1016F0004CB14E790B79CD788A78497843EA062344
:1017000042EA0522A047002070BD00BFE02F002064
:1017100038B5064B5B685C6934B1CD788A788B1C30
:1017200042EA05224978A047002038BDE02F00207A
:1017300008B5034B5B689B6903B19847002008BD5F
:10174000E02F002008B5034B5B68DB6903B19847C5
:10175000002008BDE02F00200023C0E900337047BF
:10176000044B024610B9C3E9000070470068516895
:1017700003C37047E02F0020F8B5094C06460D461C
:1017800004F14007012022782B789A4203D1636844
:101790002946304698470834A742F4D1F8BD00BF27
:1017A00080E7000070B5104E33681B6805460C4694
:1017B000C3B1212098470146A0B10246012302F897
:1017C000013B04F12000234653F8044B42F8044B3C
:1017D0008342F9D133685B6823B128462122BDE8F2
:1017E00070401847012070BDE02F00200E4808B55A
:1017F000036803F00F039A020C4B1A600C4B196834
:101800000368C9B203F00F034B439B02B3FBF2F32F
:10181000084A136000F0AAF800F0B2F800F0DAF815
:10182000054B187008BD00BF30240340EC2F00208A
:101830002C000340E82F0020F82F002070B5364C14
:101840009CB00FAE042332460821207800F0C4F883
:101850000123207804AA112100F0BEF89DF8103071
:10186000FC2B02D102201CB070BD2C4D2C4B2A78D1
:1018700020781B68002A4BD0012200924FF480513F
:10188000002200F037F90F9B8342EBD1FE238DF845
:1018900010302B7820783BB9012304AA112100F0E5
:1018A000C7F828780028DED020782C2304AA00214D
:1018B00004AC00F091F80FCC35460FC50FCC0FC526
:1018C00094E8070085E80700164A174C106851682D
:1018D00002AB03C3154B03991B6886E803001A93F8
:1018E00000231B93124B1B682078013B062B9CBFE7
:1018F0004FF6FE63ADF84C3000F0CCF8207834237E
:101900003246002100F094F8002818BF0320AAE70F
:10191000084900920968B4E7F42F0020F82F00204E
:10192000641B0020C9E70000F62F0020F02F0020E4
:10193000681B0020EC2F002000F03CB807B508F031
:10194000C7FDFC2307498DF8073001220DF1070080
:101950000BF0ECFF00B1FEE70BF0CFFF024B0122D2
:101960001A60FEE7110000007C05204308B504F072
:10197000A3FABDE80840014804F0FCBA003000209A
:1019800010B5084C23785BB90749012004F0B0FA80
:10199000064A106020B101230549237004F088FA3B
:1019A000207810BDF92F002000300020FC2F0020EF
:1019B0000430002010B5054C23782BB1044B186877
:1019C00004F06EFA0023237010BD00BFF92F002031
:1019D000FC2F00200020704710B5084C247854B12B
:1019E00001EB40310648006804F0C8FA002814BF33
:1019F000FF20002010BDFF20FCE700BFF92F0020D2
:101A0000FC2F002008B51346074A127852B10A4647
:101A100001460648006804F0B1FA002814BFFF2010
:101A2000002008BDFF20FCE7F92F0020FC2F00203C
:101A300013B5094C24786CB101EB403104240748FC
:101A40000094006804F0A2FA002814BFFF200020D0
:101A500002B010BDFF20FBE7F92F0020FC2F002073
:101A600007B51346094A127872B1062200920A4657
:101A700001460748006804F089FA002814BFFF20D7
:101A8000002003B05DF804FBFF20FAE7F92F0020E7
:101A9000FC2F002008B5084B1B785BB1074B4103B6
:101AA0004FF40052186804F0FFF9002814BFFF201B
:101AB000002008BDFF20FCE7F92F0020FC2F0020AC
:101AC00010B528B14FF6FF73013A92B29A4200D195
:101AD00010BD8C5C8454F7E7054A082300F001012F
:101AE000400801B15040013B13F0FF03F6D17047AD
:101AF0002083B8ED2DE9F04F8FB05C1E0E460992A1
:101B0000E11C9DF860200592814600F2A18052B14F
:101B1000B3F5B02F00F29C804E4A4FF48073002141
:101B2000FFF75AFF06E006FB00F14FF480724948C8
:101B3000FFF7C6FFB4FBF6F309EB030206FB134302
:101B4000D2B2013302929AB2C3F307230493013352
:101B50000392DBB2C6F30722DFF8F8B007920893CE
:101B60004D464FF0FF34029B9D4203D9E0430FB036
:101B7000BDE8F08F17D19DF80C30089A0499002B1E
:101B800008BF0A461346019306FB05F30693099B1B
:101B90000C339BB200270A93019BFAB2934204D8FC
:101BA0000135EDB2DFE7079BEDE7019B013BBB424F
:101BB00022D102998D421FD1039911F0FF0A08BF6B
:101BC0004FF4807A4D451AD1002A0A9A14BF4FF07B
:101BD000000890460BEB0802D04513D3059A2ABBA8
:101BE000069B03F580714FF4807201EB0721584684
:101BF000FFF766FF0137CFE74FF4807AE2E74FF057
:101C00000008E7E712F8010B0D936040210AC0B20B
:101C10000C910B92FFF760FF0C990D9B0B9A08F14A
:101C2000010881EA00041FFA88F8D5E7BB4208D111
:101C3000681C4FF480735A460021C0B2FFF7CCFEF7
:101C4000D8E7791C4FF480735A4609022846F5E715
:101C500000208CE75822002008B501F019F90F2068
:101C600005F07AF808B9FFF769FE01F0C1F904F050
:101C7000FBF904F097F9FFF7BFF8FFF7D5FA09F081
:101C800041FB002008BD704708B501F04FF801F096
:101C900045F8C30708D50221002001F06DF8044B78
:101CA0001B680BB100889847BDE8084001F04AB8AE
:101CB0001030002070B50C461546064600F0E4FED4
:101CC000094800F0D5FE094800F0D8FE084800F0A9
:101CD0009BFF304601F018F90021084601F04CF84E
:101CE0000580448070BD00BF871C0000891C000077
:101CF0006CEB000038B50D4600210446084601F0A3
:101D00003BF80580448038BD012001F04FB8000049
:101D1000014B1860704700BF1030002070B51D46A1
:101D2000114B1868144609F075FE104B4FF6FF7200
:101D300000201A8004F00202034613430AD102462F
:101D400005F0445313430BD1B5F1885F06BF002C57
:101D50000B200520064B1B6823B1BDE870401847D7
:101D60000A20F7E770BD00BFE0300020AE1B002066
:101D70002434002000212DE9F04114461D4602F0D4
:101D800002020B46134356D0374B186809F042FE47
:101D9000364B4FF6FF721A80354A5388B3F5505FC1
:101DA00043D1344B197903293DD1334C2188012982
:101DB00006D092F90E20002A2FDA2279012A2CD19E
:101DC0002E4A1B7A17782E4DDFF8C480DB1B2B754B
:101DD0002C4B1B78002B14BF022601262A4B3A46B7
:101DE00008EB060128461E700CF061FA2A7D802A55
:101DF00007D90821254B1B689BB3BDE8F04120485B
:101E00001847F119414405F115000CF050FAE37937
:101E10002B72A368EB600021ECE7A379012BE8D0DB
:101E20006379012B19D00621E4E743F20142934282
:101E3000F9D10721DEE70A4605F0E2431343F2D069
:101E4000094B186809F0E6FD084BB5F1885F4FF6BD
:101E5000FF7208BF002C1A8001D00A21CAE70B21AB
:101E6000C8E7BDE8F08100BFE0300020AE1B0020D5
:101E7000803000202032002054330020AC1B002092
:101E8000BC32002044340020B41B0020B8320020B3
:101E90002832002008B5044B186809F0BBFD034B3D
:101EA0004FF6FF721A8008BDE0300020AE1B002004
:101EB0000A4B0B4A1B78108A042B05D10F304001C6
:101EC0001423B0FBF3F07047072B00F10A004FEA30
:101ED000C0000CBFC8233223F3E700BFD03000207E
:101EE000B0300020544B1B782DE9F74343F0417389
:101EF000524C43F44033A361514B1B780025C4E995
:101F0000025507462560257125746561002B00F098
:101F100090804C4EB6F90030AB4203DB092003B091
:101F2000BDE8F083484B2946186809F00DFD0028EC
:101F3000F4D0464B1A78464B072F18684ED0454CC4
:101F400040F608032380237BA56003F0700363F051
:101F50007F032373404B9B696361A37B23F00E03D4
:101F6000052F43F00A030BBF43F0010365F30003A1
:101F70004FF6FF714AF6AA21A373E37C0CBF2182BE
:101F80002182012161F303034FF002084FF0E2497F
:101F9000E374CDE90089314B72B1284A2D4903F031
:101FA000C3FA30802E4E4FF4FB7542F210776388EF
:101FB000022B05D10020B2E7264903F01DFAF0E715
:101FC000013D3068B7FBF0F0ADB20AF045F8002DE6
:101FD000EDD16388022BEDD00420A0E7214940F623
:101FE00007030B800B7B8D6003F0700363F07F03AE
:101FF0000B731D4B1B690B61CB8923F4706323F0BA
:10200000060343F483734FF002084FF0E249CB819B
:10201000CDE900894AB1154B224603F085FA30809C
:10202000B6F90030002BC5DAD6E70C4B03F0E4F923
:10203000F5E7012073E700BFE4300020783300208B
:10204000E8300020AE1B0020E0300020FC300020F3
:10205000F830002028340020B0300020951E000009
:10206000BCFB000060330020803000201D1D0000FC
:102070000023C0E901330370014BC360704700BF08
:10208000DDE2000038B5202204460D4600210CF0A8
:102090001CF9224643F6030322F8023B294651F875
:1020A000023FC4F802304B6853608B689360AA7B90
:1020B000A37BC2F3000262F30003AA7BC2F3C00257
:1020C00062F3C303A373EB7B23822B69A36138BD47
:1020D0002DE9F043AD4C95B0002852D1C4E9010080
:1020E000AB4B2070E360AB4D2B785BB1AA4B00216A
:1020F000186809F029FC002800F0E781A74B186850
:1021000003F094FBA64F3A789AB9A64E304603F0F6
:1021100051FCA54B62681B6833601AB1A3680BB110
:10212000C6E90523A14BF361A14801233B7003F0ED
:10213000EFF9A04BE2681A609F4BA04E1822184698
:1021400000210CF0C2F843F6050202804FF4407201
:10215000002382814BF20902028233700422237829
:10216000C27544F620628261072B00F25D81DFE8D0
:1021700013F0150002014B015601020164016401D4
:1021800071010346254600F11006186859682A4671
:1021900003C20833B3421546F7D1A4E70BF03EFB68
:1021A000002840F0E2800020854B2478DFF850C200
:1021B0001F7824220023D9B28F4210D903FB022EAC
:1021C000591C1EF80CE0A64540F051817D4902FBE8
:1021D00003137D4A13605B6901270BB13770002739
:1021E000794B1A68002A00F01F819368DFF8E8C174
:1021F000002800F03E8103F1280E186859686446F3
:1022000003C408337345A446F7D1D368DFF8ECC1A3
:1022100003F1180E18685968644603C408337345FF
:10222000A446F7D15368694C03F1100EA046186814
:102230005968A446ACE80300083373456446F6D1F8
:102240009369DFF8C0C103F1300964461868596822
:10225000E646AEE8030008334B45F446F6D1002FBE
:1022600000F0128111695A48FFF70CFF594F3B7873
:1022700013B1002388F800304A4B574A5349574856
:1022800003F0A4FB454B564A1860E368317803F02D
:1022900084631A434FF0000CC2F30743E2608822C4
:1022A0002283C4E901CCA27EA4F802C0C4F814C001
:1022B000DBB2002900F0F5804A492161102161F369
:1022C0000502A276FC22A2776CF34513A373464B5A
:1022D000628B1B7803F01F035B0043F40063A3834E
:1022E0000123E377414B6362414BA362414BE362BD
:1022F00002F03F023B7842F480420026628326626D
:10230000002B00F0D8803C4B294A1978166041F028
:10231000427141F480314FF002084FF0E24991617F
:10232000C2E902661671167456613449CDE9008916
:10233000334603F02DFB0823242200210BA8164C62
:1023400008F032FD03A80AF09DFE206838B903AA00
:102350000BA908F035FD2060002800F0B88009F0D6
:1023600059FB01232B70002064E00BF057FA03386F
:1023700018BF012018E70BF051FA002854D00BF0D9
:102380004DFA032850D001200EE700BFD0300020C6
:10239000DDE20000E8300020E0300020F8300020CE
:1023A00018320020F8310020B81B0020A2FE008067
:1023B00078330020F43000203C30002044340020EA
:1023C000D8E70000BC1B00201C3200201430002085
:1023D000B0300020FC3000205830002000310020B8
:1023E000000108084E905500AC1B00206C1B00201B
:1023F000EC30002054330020E43000202430002052
:10240000981B0020803000200BF008FA60B10BF020
:1024100005FA032808D00BF001FA0428B2E70BF004
:102420000BFA05283FF4BFAE2A4B186808B109F033
:10243000F1FA022015B0BDE8F0830BF0FDF9082891
:102440003FF4B1AE0BF0EAF90428EDD10BF0F4F94A
:102450000C2897E70BF0F0F90C2894D00BF0ECF96E
:102460000D2890D00BF0E8F90E28DDD18BE70B4654
:10247000A1E603F1200E18685968644603C40833C6
:102480007345A446F7D1C0E65369134F03F1200CFE
:10249000186859683A4603C2083363451746F7D1AE
:1024A000E4E60E4E2661082666F30502A276A177C1
:1024B00043F020030AE702264FF0E247CDE9006728
:1024C0001A46074903F052FA35E70920B2E703201C
:1024D000B0E700BFE0300020B0300020DE510B93A9
:1024E00024300020584B1B782DE9F34743F042730A
:1024F000564C43F48033A361554B1B780021C4E94B
:10250000021106462160217121746161002B00F0E7
:102510009480037B802B00F292804E4D286809F056
:1025200013FA002800F08D804B4A337B92F800802C
:102530004A4A4B4F11784B4AC14600295ED00221CE
:10254000117041440B443B7018237B7092F800A03B
:102550003146424607EB0A000BF0A9FE0AEB0800E1
:10256000327B06F10D0138440BF0A1FE337B3E496E
:10257000D1449944A1F81090CF61FFF799FCB2685B
:102580000B7B002A3FD003F070034FF47A6663F0B0
:102590007D0370430B738A60226001230244237120
:1025A0006061E2602374314B314C1B782068022655
:1025B0004FF0E247CDE90067002B37D0234A2A4984
:1025C000002302F0B1FF0146022220684FF0E243EF
:1025D00003F0D4F8B1F1885F08BF00282BD00021A8
:1025E00000F0020050EA01030CBF05240C462868E5
:1025F00009F010FA204602B0BDE8F08701214344FB
:1026000011703B70A2E703F0700363F07F030B735C
:102610004FF47A6303FB00F68A60226022716661E0
:1026200002F02AF93044E0600123BBE70E490122A1
:1026300002F0E2FEC7E70B24D9E70124DAE702241F
:10264000D8E70924D6E700BFE43000207833002023
:10265000E8300020E0300020AC1B00204434002093
:1026600098330020B41B0020B0300020FC30002044
:10267000F8300020494B1B782DE9F74343F04173B4
:10268000474C43F44033A361464B1B780025C4E913
:102690000255814688462560257125746561002BA9
:1026A00078D0414EB6F90030AB4203DB092003B0CD
:1026B000BDE8F0833D4F2946386809F045F9002808
:1026C000F4D03B4B3B4AC3F800908923D3803A4B6C
:1026D0001571C3E90025394DAB62394BEB62994660
:1026E0002B7BB8F1000F3DD003F0700363F07D0346
:1026F0002B730123C5F80880C4F800802371DFF82C
:10270000D080EB7FD8F8002003F07003002A35D08A
:1027100063F07D03EB7702F0AFF8D8F8003018448F
:1027200001232862E06023740023C9E90033C9F85B
:102730000830244B1868244B197802224FF0E243EA
:10274000CDE90023214B01B3154A1C4902F0ECFEF0
:102750003080B6F90030002B1EDA386809F05AF9DB
:102760000620A4E703F0700363F07F03C5F8088038
:102770002B73C4F8008084F80480C0E763F07E0304
:10278000EB772A62E2602274CEE70C49012202F064
:1027900033FEDDE701208AE7002088E7E4300020EF
:1027A00078330020E8300020AE1B0020E03000200D
:1027B000B832002020320020EC3000208030002091
:1027C00054330020F8300020FC300020751D00003C
:1027D000B01B00202DE9F041224B1B7804468846AF
:1027E0001546002B38D0082938D81F4F00213868EB
:1027F00009F0AAF8A0B33CB3B8F1000F2AD06B1EC1
:10280000072B27D8194B1E78464523D106FB05F226
:10281000214617480BF04BFD164B9A8B22F03E02D7
:1028200006F01F06ED025205520D45EA4605154316
:102830009A7B9D836FF3C7129A730024386809F05E
:10284000E9F82046BDE8F0810A4A937B43F0800313
:102850009373F3E70224F1E70124F2E70224F0E79F
:102860000924EEE7E8300020E0300020AC1B002017
:102870006C1B00208030002007B5019107283BD851
:10288000DFE800F0041221282C3236380199CBB24F
:10289000082B31D8194A1370194B1A7F61F345027E
:1028A0001A7703B05DF804FB164B187838B1164B55
:1028B00001AA1868002103F0A9F90020F1E7134BE1
:1028C000019A1A60EDE7019B114A003B18BF0123F2
:1028D0001370F2E70F4B019A1A60EEE7019B022B8F
:1028E0000AD80D4A1360E8E70520FFF7FBFAD8E79E
:1028F0000620FAE70720F8E70220D2E7AC1B002009
:1029000080300020E8300020F8300020B81B002084
:10291000FC300020B01B0020E430002070B50A4ECF
:10292000044604F003040D4609F01DFE3168E3007F
:102930003F229A4021EA020105FA03F30B43336078
:10294000BDE8704009F015BE0430094010B51620EE
:1029500009F012FE064B1B7813B1064809F05AF82D
:10296000054B1B6813B1BDE81040184710BD00BFF0
:102970008C340020C4340020843400202DE9F84336
:10298000DFF8BC8006460D4609F0EDFD98F80030F2
:10299000474603F0FF09012423B109F0EAFD204670
:1029A000BDE8F88388F8004009F0E3FD15F0010068
:1029B0000BD01F4A5368198893890B439BB233424B
:1029C00003D088F800900220EAE71A490A6812F05A
:1029D00001024FF0010325D0174A13600B68DB0793
:1029E000FCD413494B6800B38889B2B29A80024381
:1029F0008A8115F0020218BFB2B215F0040518BFA3
:102A0000B6B2DA804FF0160014BF1E811D8109F0A6
:102A1000F5FD162009F0D2FD084B012200201A60B6
:102A20003870BDE73A701846BAE79880E1E700BF12
:102A30009034002024500C402C500C4018600C4066
:102A4000803400201D2009F0B9BD1D2009F094BD7F
:102A500010B5FFF7FAFF034B1B6813B1BDE8104038
:102A6000184710BD8834002009F07DBD09F081BDF4
:102A7000014B1860704700BF84340020014B186080
:102A8000704700BF8834002010B50B4B1A788CB00B
:102A900002F0FF0172B901241C70242203A808234C
:102AA000019108F081F9019904488DF8244003AAA6
:102AB00008F09EF90CB010BD8C340020C434002006
:102AC0000C4B9B6992021B5C42F0080259B1012930
:102AD0000CD0013101D142F4C04203F1804303F52F
:102AE00001231A60704742F40052F6E742F4804234
:102AF000F3E700BF90340020F0B50D461146C20840
:102B000000F0070602F58022B400CC321203203414
:102B1000C5F30367A7500124D2F808C0B440C5F339
:102B200007272CEA040CB74047EA0C0797601768A0
:102B30004FEA460E4FF0030C0CFA0EFC27EA0C0C81
:102B4000EFB207FA0EF74CEA07071760D768B340F1
:102B500027EA04071F43D7605768C5F3074303FA02
:102B600006F627EA04042643566053682A0FBDE898
:102B7000F040FFF7A5BF0000084B9B6901311B5CCB
:102B8000022998BF064A03F1804303F5012394BF4D
:102B900032F8112000221A60704700BF90340020E4
:102BA000D2E700001449154BC98B154A1B68182938
:102BB00070B5146804D1C5075EBF124D0B262E6098
:102BC0000E4DA34207D183420ED09E0705D523F0B8
:102BD00002032B60F5E71468F3E74340DE074CBFC0
:102BE00000F001030346F4E7182904D1DB0742BFD4
:102BF000044B00221A6070BD9034002000600C402D
:102C000004600C403C900C402DE9F041394B1B68AE
:102C1000DB078EB06CD4384A034600F13005174606
:102C200018685968144603C40833AB422246F7D1EA
:102C30001868324A324B2060FF2100241C60146067
:102C400054609460D4609161052194611162062101
:102C50005162012602219662D16203211163254D42
:102C6000284804214FF007085163C2F838803969B9
:102C7000D463FA891E600BF01AFB3B6A2C609847FC
:102C8000214B2D211E604046FFF748FE2B68334341
:102C90002B6008230DEB03003022214607F0A0FF34
:102CA0001A4A1B48009402AB1621ADF8204007F0E9
:102CB000B1FF162009F0A2FC162009F07FFC0823C2
:102CC0000DEB03003022214607F08AFF114A12481B
:102CD000009402AB1D21ADF8204007F09BFF1D20A2
:102CE00009F08CFCFFF7AEFE20460EB0BDE8F08187
:102CF0000220FAE700100E409034002008600C40DB
:102D000024600C4000000E4020500C404D29000073
:102D100048340020512A000064340020024B5B68D4
:102D2000588880B2704700BF903400200349044A9D
:102D30000220086013689B07FBD470472C500C409E
:102D400024500C400A4B5B6807B500225A801D20B6
:102D500009F054FC09F007FC0190FFF773FE054BE6
:102D6000019804221A6003B05DF804EB09F001BC7D
:102D70009034002018600C400A4B01EB80005B6926
:102D800053F82030C3F30B001B0B13F0FE0F1EBFD4
:102D9000054BC05A20F0010000F1804000F5602092
:102DA000704700BF90340020FCFF0D400121FFF769
:102DB000E5BD70B500220E461421044603F0FCFF69
:102DC000072500220A21204603F0F6FF46FA05F205
:102DD00002F001020921204603F0EEFF01220A2140
:102DE000204603F0E9FF08200AF08FFD013DE8D2FC
:102DF00000220A21204603F0DFFF20460122142191
:102E000003F0DAFFBDE870404FF42F700AF07DBD8B
:102E100010B5104A92E8030086B001AB83E80300C6
:102E2000194603A804F00CF800221421044603F00C
:102E3000C3FF01200AF069FD01221421204603F09E
:102E4000BBFF4FF40C700AF060FD204603F074FFE6
:102E500006B010BD78E5000030B50B4D89B0FFF726
:102E6000D7FF0FCD03AC0FC42B68236003A96846BE
:102E700003F0E6FFB9210446FFF79BFF204603F06D
:102E80005BFF09B030BD00BF80E500007047000067
:102E900008B504F0AFFA054803F00CFE00B1FEE7F8
:102EA000FFF7DAFFFFF7F2FF08BD00BFDCE7000025
:102EB0004FF0FF311720FFF75FBE000010B5074A43
:102EC000002313601846FFF76DFEBDE81040002395
:102ED0004FF0FF3201211720FFF70EBE040009401A
:102EE000064B074A18605960136843F4A023136027
:102EF000044B21221A6061221A6070472020094089
:102F00001420094008600C4013B50190FFF7ACFD98
:102F1000094B01990446043353F8040C1B681B0C3D
:102F200043EA00400830FFF7DBFF204602B0BDE86F
:102F30001040FFF79BBD00BF08200940144B2DE94E
:102F4000F041144F93F80080002918BF0F46B8F1E4
:102F5000000F0ED0104C05460026B5420DD0236858
:102F6000DB699847284208D10136B04504F10C04CA
:102F7000F3D100231846BDE8F081236839465B6829
:102F80002046984723460028EED01846BDE8F08139
:102F900024E80000A0EB00000CE80000032303700D
:102FA000704700BF10B103689B681847704700BFA7
:102FB00070B108B410B585B008AB046800930393F2
:102FC0002469079BA04705B0BDE8104001B07047D9
:102FD000704700BF10B103689B6918474FF0FF307E
:102FE000704700BF10B103685B691847704700BFA6
:102FF00038B5084B1D785DB1074C05EB450504EB72
:103000008505236820461B680C349847AC42F8D1EC
:1030100038BD00BF24E800000CE80000704700BF86
:103020000048704700001080F0B5D0E901460D4619
:1030300089B0074603F0A0F902F0B4FF2B7884F8BA
:1030400020303079002103F0FDF8B068431C04D033
:10305000C0B24FF4002103F0F5F84FF40021307BAB
:1030600003F0F0F8684602F0E5FF254B3078049352
:10307000694602F0BDFF0546E061002839D06FF0D7
:103080007F430022C4E90D32012007F05FFA0546B4
:10309000E063002830D04FF0FF3107F079FA716813
:1030A000E06900F0FFFB7369164A308A718A236475
:1030B000A362102322636362E085A185204604F1A8
:1030C000240106F0FBFC616B204606F050FDA16B6D
:1030D000204606F025FD0C49204606F036FD204628
:1030E00006F065FD204606F055FDE06B07F058FA46
:1030F0003D46284609B0F0BDE06902F04FFFF8E711
:1031000040420F00E4EB000014F8000010B54468E2
:103110004FF0FF31E06B07F03BFA00B110BD2046E5
:1031200006F045FD204606F035FDE06BBDE8104099
:1031300007F036BA70B50129446888B007D0202955
:103140002BD0B9B16FF00105284608B070BD034619
:103150004FF0FF31E06B9E6807F01AFA002841D16A
:10316000E5698DB34FF0FF35E06B07F019FA28469B
:1031700008B070BDE06B4FF0FF3107F009FA06466A
:1031800080BBE0690028EDD002F008FF31463046F0
:1031900000F088FB3546E661E6E7E06B4FF0FF3173
:1031A000164607F0F5F90546E0B996E8030004F184
:1031B000340383E803002046616B06F0D8FCA16B62
:1031C000204606F0ADFCCFE7684602F033FF074B20
:1031D00030780493694602F00BFF7168E06100F0FB
:1031E00061FBC1E74FF0FF35AEE700BF00093D00CE
:1031F00010B54468A369A0899B788A4238BF0A4603
:1032000082B002FB0332013A11FB03F3ADF8040074
:10321000A16BADF8062020460022ADF80230ADF8D3
:10322000002006F0A4FC2046694606F04CFD616BC8
:10323000204606F09CFC204606F0ACFC02B010BD17
:103240002DE9F041466888B00C46F06B4FF0FF3135
:1032500015461F4607F09CF948BBB36996F8201045
:103260005A789B7812FB05F5013513FB04F402290B
:10327000EDB2E4B23FD0032939D001291AD00DF1C3
:1032800008080E9B3A461721404607F0D3F9012261
:103290002B464146019230464FF0FF32009406F033
:1032A000C6FD304606F076FCF06B07F079F908B001
:1032B000BDE8F0810246AC466245E0D0013BB16B0F
:1032C000ADF80820234430460DF10808ADF80E3063
:1032D000ADF80CC0ADF80A4006F049FC4146304656
:1032E00006F0F1FC716B304606F041FCC9E796F838
:1032F0000CC00246E0E796F80CC02A46DCE700BFA7
:1033000070B5D0E901564FF0FF31E86B07F040F996
:1033100000B170BD04462146307B03F0ABF8E8698C
:1033200002F03CFE2046EC61214600F0BBFAE86B5F
:10333000BDE8704007F034B9704700BF704700BF68
:103340006FF00100704700BF4FF08040704700BF32
:10335000F0B5D0E901568BB0044601A802F0CCFECE
:1033600000277368079301208DF8057007F0EEF8C9
:10337000686070B102F078FE307801A902F09AFE20
:10338000286030B13A46042102F06AFE20460BB0B4
:10339000F0BD00200BB0F0BDF8B5D0E90164706855
:1033A000A168069F1D4607F0F3F800B1F8BD218A19
:1033B000E0683B462A46023907F03CF9E5682846B2
:1033C000FDF7C4FB0D232B54E36803440A225A7013
:1033D000E168821C306802F09DFE7068BDE8F8402C
:1033E00007F0DEB810B54468206802F035FE00230F
:1033F00060682360BDE8104007F0BEB8704700BFAA
:1034000030B44568408973B9C308C81002FB030093
:1034100001F007012B5C802242FA01F123EA01014D
:10342000295430BC7047C308C81002FB030001F0E8
:1034300007012A5C802343FA01F11143295430BC6F
:10344000704700BF30B44489BDF908504368049800
:10345000E408C91002FB0412EC10002C1A4408DD29
:10346000002301339BB210F8011B02F8011BA34299
:10347000F7DB1478017805F00705FF232B41234083
:103480000B43137030BC70472DE9F043D743448998
:10349000D0F80480BDF81C004FF0FF0C01F0070EBF
:1034A00007F00707C2F3CF02C1F3CF010CFA07F709
:1034B0004CFA0EFE9142FEB25FFA8EF94FEAD40446
:1034C00033D003FB041408EB040518F80430B0B142
:1034D000571E49EA0309B94208F8049005F10105AD
:1034E00036DA60462A4602F8010B53185B1B9BB282
:1034F000BB42F8DB13781E431670BDE8F083561EFE
:1035000023EA0E0E0135B14208F804E02A4606DA35
:1035100002F8010B53185B1B9BB2B342F8DB137824
:1035200023EA07071770BDE8F08303FB041309EAD9
:10353000060618F8039028B929EA060608F8036079
:10354000BDE8F08346EA090608F80360BDE8F083A9
:103550002A46CFE7F0B592B201F0070480279A42DD
:1035600047FA04F7BDF814C044684089C1F3CF019D
:1035700019DC5FFA87FEC008FF4306E0A55D013253
:1035800092B23D409A42A5550DDC02FB001635462D
:10359000BCF1000FF2D0A65D013292B24EEA0606EF
:1035A0009A426655F1DDF0BD2DE9F04FB1F90460A6
:1035B000B1F90050D0F80480B0F80A90F3434FF00E
:1035C000FF0C05F0070403F00703C6F3CF06C5F3AD
:1035D000CF050CFA03F34CFA04F4B54285B05FFA58
:1035E00083FB5FFA84FA47D04F88B1F90600B842EE
:1035F0002ADBE043DB434FEAD909013E0290039303
:103600004FF0000E07FB095308EB030418F8030002
:103610000194E2B9029C2040019C08F803000134A7
:10362000AE42204606DD00F801EB43191B1B9BB29E
:10363000B342F8DB0378039C23400370B1F90630F2
:103640000137BFB29F42DDDD05B0BDE8F08F019CC0
:103650004AEA00000134AE4208F80300204606DDC5
:1036600000F801CB43191B1B9BB2B342F8DB037874
:103670004BEA03030370E1E7B1F902304FEAD909DD
:1036800009FB03590AEA0B0A18F8093032B923EA90
:103690000A0A08F809A005B0BDE8F08F4AEA030A53
:1036A00008F809A005B0BDE8F08F00BF081E18BFDC
:1036B000012070472DE9F04F374E336883B0002B5F
:1036C00067D0364B364A1B78364C054683F080036C
:1036D00010788DF8073001216F6802F0CBFE0A20C8
:1036E00006F0CCFE0DF10708214630684FF00109C5
:1036F000C4E9009802F0ACFC2B496B8900220A70E7
:10370000A3B3DFF8A8A00820A34603E01AF800003E
:103710001AF80220C4F8048042EA00120123594634
:10372000306823608DF8072002F092FC2A89306807
:103730006760D2085946226002F08AFCB5F808C0DA
:103740003068C4F804800022012359468DF8072010
:10375000236007EBDC0702F07BFC6A894A4509F12C
:10376000010909F00F00C9F30312CFDC01230D4951
:10377000306823600025C4F804808DF8075002F0FB
:1037800067FC0A2006F07AFE054B2946187802F0FD
:1037900071FE03B0BDE8F08F204100201C1D002009
:1037A0001C410020244100201841002004EC0000AE
:1037B0002DE9F047DFF8E480D8F8003082B0002B24
:1037C0004AD0334BDFF8D8901B78324F83F0200378
:1037D00004460E4699F800008DF80730012102F0EA
:1037E00049FE0A2006F04AFE0DF1070539464FF062
:1037F000010AD8F80000C7E900A502F029FC264B11
:103800007D6039460025D8F800001D70C7F800A07B
:103810008DF8075002F01CFC0A2006F02FFE99F8E4
:103820000000294602F026FE63896068BEB99BB19C
:10383000228935463146D60818BF002308D000F843
:10384000011B013322899BB2B3EBD20FF7D36389FB
:103850000135AEB2B342EED802B0BDE8F087002B1E
:10386000FAD022892946FF25D60818BF002308D0A0
:1038700000F8015B013322899BB2B3EBD20FF7D37F
:10388000638901318EB2B342EED802B0BDE8F08751
:103890001C1D002024410020184100202041002050
:1038A0001C41002030B4054B054D064C2860002219
:1038B0002160C3E9012230BC1A6070472441002016
:1038C000204100201C41002070B50D461446B1FA7D
:1038D00081F1B2FA82F24909520920B134B190F86B
:1038E000443033B91A4601EA020070BD15B901220D
:1038F000F9E7BDB195F84430002BF4D02B6C466B42
:103900002D699B08C3EB96030669AE4214BFF568A8
:1039100000255B1B03F18053B3F1805FE3D90121E4
:10392000002CE0D0E3681B7B03F00F03022BDAD1FD
:10393000656B036C24690069A04218BFE0684FEA18
:10394000930308BF0020C3EB95031B1A03F18053B8
:10395000B3F1805F88BF0122C5E7002070470000F7
:103960000A4B1A68936802F1300019465B680BB184
:103970008342FAD14B7B190706D1508E40F60903DA
:10398000C31A58425841704700207047E044002055
:103990000A4605494B6833B18968084203D001469D
:1039A000024800681847704774E80000E0440020AF
:1039B000704781B38B01090E202923F0FF0319D032
:1039C000212919D0A02919D0D1B110291AD0112933
:1039D0001AD040291AD050290CBF802290221343BC
:1039E00043F00F03014650F8042BB2F1FF3F0FD113
:1039F0000B6070471022F2E72022F0E73022EEE75A
:103A00004022ECE75022EAE76022E8E77022E6E78E
:103A10009A42E7D1ECE7704791B38B01090E202958
:103A200023F0FF021BD021291BD0A0291BD0E1B11C
:103A300010291CD011291CD040291CD050290CBFA2
:103A400080239023134343F00F03014650F8042BC7
:103A5000B2F1FF3F11D14FF0FF330B6070471023DD
:103A6000F0E72023EEE73023ECE74023EAE750239A
:103A7000E8E76023E6E77023E4E79A42E5D1EAE766
:103A8000704770B5044616461D4606F021FD5CB130
:103A9000D4E90A2332432B43C4E90A23D4E9082397
:103AA00032432B43C4E90823BDE8704006F036BD1D
:103AB000F8B5184D044606F00BFD95F8243006467F
:103AC00023EA04002C6885F8240024B104F1B00036
:103AD00006F0C0FC0446686820B1B03006F0BAFCBD
:103AE0000443E4B295F824307BB974B92B6A63B10E
:103AF0005A6A920709D530461F6A06F00FFD286AF8
:103B000022460221B8472C62F8BD3046BDE8F84095
:103B100006F004BD3C4100200720FFF7C9BF10B5E7
:103B20000129044638BF012106F0A2FC2046BDE869
:103B3000104006F09FBC2DE9F041DDF818800446E6
:103B40000E4615461F4609F077FE0E2803D009F0F1
:103B500073FE0F2869D12388B3F5C15F16D043F6F1
:103B6000060293421BD040F6020293424FD104F169
:103B70001203336063692B60A3693B60E369C8F893
:103B80000030E57B247C04F0070416E004F1120306
:103B9000336063692B60636A3B60A36AEFE704F1FB
:103BA0001A033360E3692B60236A3B60636AC8F8D9
:103BB0000030247E002504F00704386880B1052316
:103BC0004FF6FF7240F2037102F0DDF8042807D8C7
:103BD00006B2214628463F6802F0E8F847F826007A
:103BE000D8F8000088B105234FF6FF7240F2037148
:103BF00002F0C9F8042808D804B2FF212846D8F8F2
:103C0000006002F0D3F846F82400012022E004F11D
:103C10001A033360E3692B60A36A3B60E36AC8F868
:103C2000003094F82450247EADE72388B3F5C15FBB
:103C300007D043F6060293420ED040F602029342AA
:103C40000AD104F11203336063692B6000203860ED
:103C5000C8F80000BDE8F08104F11A033360E3699D
:103C6000F3E7000070B5144E1448356902F0BEF851
:103C7000134A136814680440184010F020030AD057
:103C80004DB128460022B561FFF7FBFE0D484FF409
:103C9000804106F0BDFC14F460240CD00A4A0B48A5
:103CA00092F8613043EA544482F86140BDE87040C4
:103CB000002106F0ADBC70BDB044002020000E0015
:103CC0000C100440C445002040450020F845002069
:103CD000064B70B55C68064B1D6806F097FC2346E2
:103CE00001462846BDE87040184700BFD044002078
:103CF000E0440020074B1B6803F44023B3F5802FFA
:103D000001BF054B186880F40030C0F3404018BF75
:103D100000207047B44F00508C13005070B5002243
:103D200086B00146CDE90222CDE90422467DFFF7A7
:103D3000E1FF0546886803884280B3F5C15F48D03B
:103D400038D840F60202934243D000234B7505ABAE
:103D5000009303AA04AB02A9FFF7EDFE002848D0A8
:103D6000029B1A884FF6FF739A4242D10599039835
:103D7000FFF71FFEE5B1039D002D3FD050234FF606
:103D8000FF720B21284601F0FEFF4F2804460FD892
:103D900004F084FF09F058FE194B1860194B1B689A
:103DA000DB68984724B2000440F00B0045F824007B
:103DB00006B070BDA3F56053063B012BC5D8437E0A
:103DC00062F382034376038B8EB162F3091303839C
:103DD000BBE7437C6FF382034374038A1EB16FF326
:103DE00009130382B1E72D2262F30913F9E72D22AB
:103DF000EBE705990398FFF70FFEBBE7FEE700BF6F
:103E0000E4440020E0010010064B1B78022B07D190
:103E1000054B1A6922B95869B0FA80F04009704719
:103E200000207047D0440020B044002008B50F4B5C
:103E300019420FD00E4B1B6801201B6898470128C0
:103E400009D10C4B0C4A5A600C4B00221A600C4AE8
:103E500043F81C2C08BD06F0F5FA3221BDE80840F5
:103E6000B1FBF0F10748FFF75ABE00BF0400002085
:103E7000E0010010D0440020014F00001C1004405D
:103E8000A8450020A841002008B54FF0FF3001F000
:103E90002FFF830706D5BDE8084003484FF40061B3
:103EA00006F0B6BB08BD00BFC4450020042838B5E5
:103EB00004461AD10E4806F0CDFAB0B106F0C2FAA7
:103EC00005460B4806F0C4FA6843B0F5967F0CD25D
:103ED000074806F0D1FA052003F0DCF9054B064847
:103EE000012221465A7306F093FB002038BD00BF23
:103EF000A8410020D0440020C4450020F7B51D464D
:103F0000FD232E688DF8073032460446FFF7DCFCAF
:103F100010B101238DF807309DF80730FD2B10D12B
:103F2000E3681B7B03F00F03022B0AD14EB1376805
:103F300031463A462046FFF7C7FCB8B102238DF858
:103F400007309DF80730FD2B04D1E36B13B1042338
:103F50008DF807309DF80730012B5FB208D121465C
:103F6000284602F029F9384603B0F0BD3E46DDE7A9
:103F7000022F06D0042FF6D12146284602F006F97A
:103F8000F1E73268002AF7D02146284602F0E6F829
:103F9000E9E738B50C46054606F09AFA236800248E
:103FA0001BB906F0BBFA204638BD1A69954208BF16
:103FB0001C461B68F4E700002DE9F74F9946224B99
:103FC0001C6807460D469046002C36D0AC4223684C
:103FD00037D1DFF874A02E4600240AF1080B3146D1
:103FE00036680B699F4223D1084600224FF0805368
:103FF0000191FFF746FD0199B9F1000F0FD00022A2
:104000004FF080730846FFF73CFD104B2A691A6297
:1040100093F82420019942F0010283F824205046AD
:10402000019102F0DFF80199584602F0AFF801342F
:10403000B8F1000F01D0002ED1D1204603B0BDE869
:10404000F08F1C46C0E700BFB04400203C41002078
:104050000E4BF0B54FF0580C00241E46B3F93070EB
:104060008F421D4609D11F69B84206D15AB10CFBD7
:10407000046797F83370174205D10134082C03F117
:104080005803EBD100252846F0BD00BFF0410020C9
:104090002DE9F843D0F8A06004460D4691469846B5
:1040A00006B1B047D4E9262302EA090603EA080765
:1040B00056EA07031BD0802229462046FFF7C8FF97
:1040C000C4E92A6750B1D0E9082323EA070322EAAA
:1040D0000602C0E90823D4F8A03083600023C4F8A6
:1040E000A03004F14800BDE8F84306F059BABDE835
:1040F000F88370B55023144640F2FF3205460E4651
:1041000001F041FEFF280CD0A2022B2E18BF42F472
:104110000A7203B20CBF42F02B0242F0030245F8D0
:10412000232070BD70B5002386B0CDE90233CDE900
:10413000043305AB0E4600931546C1F3150404ABDA
:1041400003AA02A9FFF7F7FC002E23DB029BD0B1E4
:10415000049880B1059A72B11C80224640F22B214E
:10416000FFF7C7FF05990398FFF756FC15232B802F
:10417000049B6B600CE019884FF6FF72914202D1EC
:10418000032006B070BDA4B21C8010232B806C806D
:104190008320F6E70028F3D0049B8BB1059878B113
:1041A000029B4FF6FF721A802B212246FFF7A1FFD8
:1041B00005990398FFF7FDFB15232B80059BD8E796
:1041C000039822462B21FFF794FFFF28D8D0029BAB
:1041D0004FF6FF721A8014232B806C60D8E7000022
:1041E00038B5154B1B685A68D2E90134D568D8B187
:1041F00004B9EDB1114A00211160114942F81C1CAB
:104200000BB101F0BFFD04B9A5B10C4B1A68002A2F
:10421000FCD000221A6004B1A04705B1A847BDE850
:104220003840084801F06CBD002BECD09847EAE715
:10423000002BE6D138BD00BFE04400201C10044034
:1042400051000706010007068B002DE9F0410546E5
:104250007ED50020FFF7C4FF3E4C3F4A3F4E404909
:10426000002340F60A0833601160A4F800806380E0
:10427000227B63F3030222736360637B012262F398
:10428000030328466373FFF749FDAF6841463B4689
:1042900098465B6833B11A888A4203D0A2F60302BB
:1042A000012AF5D898F80D30C8F804406FF30303DD
:1042B00088F80D302B4B1B681BB3DB681B88A3F6FB
:1042C00003039BB2012B1CD8274B00221A603368D2
:1042D000002BFCD0254C00233360254B6360637BAF
:1042E0002BB303F095FA0028FBD003F0B5FA0023B6
:1042F0003360194B39461F600120BDE8F041FFF7DC
:1043000047BB2B8E002BE2D0AB8F23F4706305F1FB
:10431000300123F00F0343F480736160AB87637B4C
:10432000002262F303036A866A636373CFE7114B6B
:104330001B6801201B6898470128D8D098F80D30D9
:10434000012262F3030388F80D300B4B6360CEE764
:10435000BDE8F081A8450020001004401C10044076
:1043600001010E04B0440020C0450020D0440020CC
:10437000014F0000E00100102D3E00002DE9F74F35
:1043800004469DF830B001920D461E464FF00008DD
:10439000E2B94FF0005906F09BF86A1C824621D121
:1043A0003D4A11691346A1B109698C4211D11769BF
:1043B000002F6ED097F833301B061AD404245046D1
:1043C00006F0ACF8204603B0BDE8F08F4FF080490E
:1043D000E1E75A6912B11269944201D01F68E7E718
:1043E0005F69E5E7002229462046FFF731FE0746D0
:1043F000DEE7294B1A69BA421D4602D05B69BB420F
:1044000033D1286942464B46FFF73BFB6869424679
:104410004B46FFF736FB2148214B019A002A08BF83
:10442000184601F06DFCBBF1000F14D02869002282
:104430004FF08073FFF725FB00224FF0807368690F
:10444000FFF71FFB174B3A691A6293F8242042F0DA
:10445000010283F824200EB98324B0E729685B4663
:1044600001222046FFF7A8FDF6E75B4632463946B3
:104470002046FFF7A1FD0028A0D00B4B1A78012A97
:10448000EAD01B78042BE7D00849094806F0C0F8A9
:10449000E2E7032493E700BFB044002001000204D8
:1044A000010001043C410020D044002002000040F3
:1044B000C445002010B5044606F00AF804490A78FD
:1044C00042EA04030B70BDE8104006F027B800BFB5
:1044D0003D4500202DE9F843244CDFF89C90244F03
:1044E000DFF8988000252646A07A01281FD194F98C
:1044F0000930113300FA03F3DA43C9F800203A68AF
:1045000013433B6094F909309840C0B2FFF7D2FFE3
:1045100098F80030022B1AD104F1100001F0F0FBE2
:10452000C0B2012813D1A06940B90223A37201359A
:10453000032D04F12004D7D1BDE8F88398F80030AA
:10454000022B04D101F0DCFBC0B20128EDD094F9BC
:10455000091096F86120074811238B401343DBB202
:10456000002186F8613006F053F8E0E7404500206E
:104570000C100440F845002008100440D0440020EE
:1045800038B5054605F0A4FF084B1A78044622EA20
:10459000050018701B781B0703D40548082106F096
:1045A00037F82046BDE8384005F0B8BF3D4500204B
:1045B000C4450020054B9A8BDB8B12B21BB29A428A
:1045C00002D10820FFF7DCBF704700BFB0440020D5
:1045D0002DE9F8434B4EB468002C00F09180E3685D
:1045E00009229BB1013A12F0FF020FD01988A1F6FF
:1045F000030189B201296BD8226903F11801303215
:1046000053F8040B42F8040B8B42F9D1002300222B
:10461000D4E90A01C4E90A23A368CBB14FF000082A
:1046200001F0E24958EA090354D020F00F0221F0CA
:10463000E24352EA030104D0A568B4F930102069BE
:10464000A847A568B4F93010206942464B46A847F0
:1046500005F03EFFF38B0133C3F30B03F383002517
:104660004FF6FD732386074684F83350264801F041
:1046700061FD384605F052FFF28BB38B12B21BB2CC
:104680009A423DD1214BD3E90076214B1B6893F828
:10469000F430AB420CBF05200720FFF709FAF7B151
:1046A00097F8F430CBB93C68002387F8F430D6B1E2
:1046B00096F8F430ABB93168002386F8F4308C42B8
:1046C00038BF0C468CB92046BDE8F843FFF772BFEF
:1046D0005B6886E780468946B3E72C46E4E73C46BC
:1046E000E5E70021E8E73146E9E7631C08D005F07B
:1046F000A9FEB4FBF0F1BDE8F8430648FFF70FBA96
:10470000BDE8F883B0440020B84400203C410020BC
:10471000E044002064410020F8B5044605F0D8FECE
:10472000A37A0546002B33D01C4994F90920096867
:10473000012303FA02F0CE07C0B20DD5184909686B
:10474000090609D5174E113231689340DA4321EA40
:1047500003033360144B1A60002300260027C4E9CA
:104760000033C4E90467114A94F90910A372237253
:10477000A36101238B4092F860100B4382F86030F4
:1047800092F8623013B1013B82F86230FFF7F8FE15
:104790002846BDE8F84005F0C1BE00BF40210840F2
:1047A000000004400C100440081004404045002064
:1047B0002DE9F0432D4C94F8613085B0002B3ED0AC
:1047C000002594F861302B41DB0748D594F86160EF
:1047D00005F07EFE94F861301122AA4023EA02031C
:1047E00084F8613005F09AFE04EB4512F6B2937A34
:1047F000680123B3102303FA05F592F909101C4B45
:1048000054F8008057680B449B003540D3F8009063
:1048100008D1137A022B05D116692B4606F0805277
:10482000134316D120440391FFF776FF039985B116
:104830000023009300224FF000734046B84794F8DD
:10484000613083B10B48002105B0BDE8F04305F0AD
:10485000DFBECDF8009000224FF00063EDE7013598
:10486000032DAED1EBE705B0BDE8F0834045002055
:10487000250C0110F845002010B505F029FE134A5B
:1048800011780229034602D01278042A06D1104A70
:104890001846146805F042FE204610BD05F03EFEA5
:1048A0000C4B0D4C1B681B6B984710F50030A0FBA0
:1048B000042341F1000104FB013308490869002188
:1048C0000446891843EB0404E6E700BFD044002007
:1048D000043004408C01001000093D00A845002070
:1048E000264B70B51B680546002930D1002B30D00F
:1048F00002B11360DA68127B02F00F02022A37D18C
:1049000051B31A69148DD2685E6B1444FFF7B4FF7B
:1049100004F57A72301AB2EB900F4FEA900325D269
:10492000B0F1404F22D21C1B012C38BF01242C6057
:1049300005F088FD2B68B3FBF0F02860012070BD06
:10494000D868007B00F00F00022814D01B68002BF1
:10495000F6D100202860F2E71A69094991F862004F
:104960001169D28A192414FB0014CDE70024DEE774
:1049700000232B60E2E7002ABBD1C2E7B04400204D
:10498000404500202DE9F043624D85B02E6800239C
:1049900002930393002E32D06B690BB92B69B3B12C
:1049A0002C69ACB12B691A6933699A4240F0B08026
:1049B00096F8334014F010040AD02B69DB685B884A
:1049C000002BFAD02B69DB685B88012BF5D0012422
:1049D00084F0010802AA414603A8FFF781FF0028DE
:1049E00000F08C80002C40F088800399002900F0B2
:1049F00085804948FFF793F805B0BDE8F0830221B0
:104A0000464805F005FEF7E700287ED0039F002FFB
:104A10007BD1029B28696969CDE90083404BA3F1F2
:104A20000802C84701280CD0022815D128692B6933
:104A3000B3F930100123009300693A46FFF79EFC5A
:104A4000DAE7029B002B18BF1E463A46B6F9301033
:104A5000009030693B46F1E7002CCDD02046314B29
:104A600032691B689A4202D04FF48061C8E748B1AE
:104A7000039B3BB12B692BB96B691BB90820FFF76E
:104A80007FFDB9E70820FFF715FD96F83330214880
:104A9000DB0626D501F04EFB6861D6E906232249E4
:104AA000F468D0430860486802434A601F4AD9430B
:104AB000116051680B43536031460820FEF768FFD0
:104AC000204601F01DF92388B3F5C15F04D00CD84E
:104AD00040F6020293420DD121460120FEF758FF15
:104AE00008E001F027FB2861D7E7A3F56053063BF8
:104AF000012BF1D94FF0804182E720460C4BD3F8CF
:104B00000490B9F1000F7FF47FAF002CA7D173E7B9
:104B100000245DE7B0440020A8410020C4450020E7
:104B2000B8440020E0440020101004400810044065
:104B300014EC00002DE9F04F384B85B04FF4804065
:104B400000930433019301F0D3F8A8B1344B354CF2
:104B50001B682068002163F31501334B80681B78C4
:104B6000C3F3800363F3DF7102AAFFF7DBFA236864
:104B700001209968FEF70CFF0027DFF8BC90DFF8F2
:104B8000BCA0E8463D4658F8044B236873B323683D
:104B9000986901F0ADF84FF0000B064632462068E8
:104BA0005B46FEF76EFF16F00A0F2ED02268D9F88A
:104BB0000010926922F4804222F0020221EA0202ED
:104BC000C9F800202168DAF80020C96922EA010248
:104BD000CAF8002021681020FEF7DAFE2168134889
:104BE00001F0D4FA45F00205C4F800B05FB11DB180
:104BF0000F48294605F00CFDFFF76CFCFFF7C2FEDD
:104C000005B0BDE8F08F0127BDE7002EEED0094AC0
:104C10002368936145F48045E8E700BFC044002065
:104C200098030021E044002085030021B8440020BF
:104C3000C4450020B0440020141004400C1004406F
:104C400038B5114D4FF0FF3001F052F86A680F4B44
:104C50009A4204460DD10E490E48002205F040FC50
:104C600002232B70FEF77CFE18B9FFF733FCFFF729
:104C700089FE094B1C4206D0BDE8384007484FF07A
:104C8000005105F0C5BC38BDD0440020014F0000E4
:104C9000354B00000445002002000040C4450020C0
:104CA0002DE9F04F002485B00460064622462146D7
:104CB00003A8FFF715FEDFF8B0A0DFF8B080834649
:104CC0004FF0FF35204627464FF019099AF80A2081
:104CD00052B39AF80820022A41D0D8F80010224B8B
:104CE000CA8A096993F86200DAF814400A4419FB89
:104CF00000220192FFF7C0FD019A201A02F57A7195
:104D0000B1EB900F4FEA90041ED2B0F1404F1BD28E
:104D1000A41A012C38BF012405F094FBB4FBF0F475
:104D2000A54228BF254601200137032F0AF1200A9A
:104D3000CCD1BBF1000F0BD078B1039B9D4228BFB3
:104D40001D463560012005E00024E5E70025F4E775
:104D50000028F6D105B0BDE8F08F039DF1E7BBF167
:104D6000000FF3D15D46ECE740450020E044002011
:104D700013B5154B1A78022A04D1192005F0AEFBA1
:104D800002B010BD1A78012AFAD01B78042BF7D094
:104D900005F09EFB044601A8FFF782FF78B1019958
:104DA0000A4829B1FEF7BBFE204605F0B7FBE7E74E
:104DB00005F062FB0648042105F02AFCF4E70348ED
:104DC00005F05AFBF0E700BFD0440020A8410020C6
:104DD000C445002037B511F002020C4611D0FFF790
:104DE000F7FB384B9B683BB1374844F0020103B0F6
:104DF000BDE8304005F00CBC03B0BDE83040FFF723
:104E0000B7BF61075BD5314B0192012104201970B6
:104E100002F040FA2E4B2F4D1B681B6B98472E4B10
:104E20001860284B1B687BB11C692B685BB19C42E6
:104E300009D0636A5B0704D5236A019A04212046DE
:104E40009847012363752C602B68244C5B681A78A3
:104E5000234B02201A6002F01DFA112002F082FB9F
:104E6000012222701F4A927812B90E2002F07AFBBA
:104E70002B685B689A680AB9DB682BB11A4B002271
:104E80001A601A4A43F81C2C194B07221A60194A57
:104E900000211368184B116018681960136843F0FB
:104EA000402343F0020313601A20144B636005F0A3
:104EB00013FB192003B0BDE8304005F00DBB03B073
:104EC00030BD00BFB0440020C44500204046002053
:104ED0008C010010E0440020C0450020D044002098
:104EE000D021084074E800001C100440510007065F
:104EF00000000460141004401810044049420000EF
:104F00002DE9F04311F4804785B005460C4634D0B6
:104F100005F0DEFAA64A9569034655B3D5E90A8934
:104F200008F00A0609F0E04756EA070221D1D5E960
:104F30000A89D5E90A2323EA090722EA0806C5E90E
:104F40000A6705F0EBFAAB684BB158EA090306D0E3
:104F5000AE682869298E42464B4609B2B04724F410
:104F600080441CB19348214605F052FB05B0BDE8D2
:104F7000F083184605F0D2FAF1E78A0054D58E4A3C
:104F80008E4E136843F08003136033781BB1042006
:104F900002F076F8377005F09BFA894B1B680646DD
:104FA0001B6804209847F8B12B7DEBB1854BD3F8F3
:104FB0000080B8F1000F17D0834B2F691B681B6B63
:104FC0009847A0EB0802130BB7EB123F84BFDB1925
:104FD0005B082B612B6940F69802A3F59673934208
:104FE00084BF40F6C4132B61304605F097FAFEF7F4
:104FF000B7FC60B14FF00073EE6900226FF480716E
:105000002846B0476A4B1B685BB1FFF7B1FEAE693B
:1050100000224FF0806300212846B04724F000545E
:105020009FE744F00204F2E711F0020208D0FFF714
:10503000CFFA5F4B9B68002B94D124F0020490E7D9
:1050400011F480667BD0019205F042FA0546FEF726
:10505000DBFE00286FD0564B1F68002F6BD05B4BD8
:10506000019A5B495B485C4E4FF0040883F800806E
:1050700005F036FA284605F051FA5848584D05F023
:10508000FBF9514B1B681B6B98474C4B306001215F
:105090004046197002F0FEF838692860436A5B07E1
:1050A00003D5036A019A414698470120FFF798F813
:1050B000286801234375FEF731FE2B68996840F696
:1050C0000A0C0A461046526832B11588654503D06D
:1050D000A5F60305012DF5D8427B4FF0010C6CF3CA
:1050E00003024273FA681288A2F6030292B2002504
:1050F000624545600BD835603A4B00221A600120AA
:1051000043F81C1CFEF744FC24F4806429E71A8E43
:10511000002AF1D09A8F5D8622F4706222F00F028D
:1051200042F480725D639A8730334360437B65F35A
:1051300003034373E0E7284605F0F0F9E4E711F4D0
:10514000006753D01D4D2B781BB1042001F098FF50
:105150002E70FEF705FC40B1214B18680022C5698E
:105160004FF000736FF48071A8471B4D2B685BB143
:10517000154B1B681B6B98472A68194B801A1B68D4
:10518000000BD86000232B6017491248002205F05D
:10519000A7F90E4B02211970054B9B6813B1054806
:1051A00005F036FAFFF7E4FD24F40064D9E600BF09
:1051B000B0440020C4450020CC21084040460020D7
:1051C000E0010010C04500208C010010D0440020F8
:1051D000893E000004450020BC45002064410020B9
:1051E000E04400201C100440354B00000E0740F145
:1051F000BE8005F06DF90646FEF706FE002800F0B9
:10520000B2805F4B1A78150700F1AD801B78180645
:1052100000F1A98003A8FFF743FD18B1039B002B01
:1052200000F0A180574D95F86130002B40F09B8035
:105230004FF00108AB7A43B195F9090085F80A806F
:1052400008FA00F0C0B2FFF79BF90137032F05F110
:105250002005EFD14C4D4D482F7005F00DF930462B
:1052600005F05CF94A4B4B481A6800221A6053F863
:10527000081C43F8082C484905F032F9474B1B68D5
:105280001B6B9847464BAA681B68C01A030B6FEA52
:105290001030824298BF9B182A7B88BF4FF0FF33A3
:1052A000AB6022B13F4A1268B3EBC22F24D93E4B08
:1052B0001B68D9071CD53D4B1B681A0618D53C4BFB
:1052C00040F609021A8000225A80597B012060F3BF
:1052D00003015973197B62F30301197335495A604D
:1052E0000A60354A13605A8802F44062002AFAD0F4
:1052F00001232B730023AB6000F018FD2F4B00211E
:1053000019600220FEF744FB022001F0B9FE1120D3
:1053100001F060FF2A4B1B7823B92A4B18684830EC
:1053200005F03EF9284B9B7813B90E2001F052FF8F
:105330006B7B23B1002305206B7301F0A1FE234B8F
:105340006B6000232B70224BD88B9B8B00B21BB25F
:10535000984214BF02200720FEF7AAFBFFF708FDC2
:1053600024F00804FDE5304605F0D8F8F6E74B00D8
:105370007FF5F7ADFFF7FCFC24F08044F1E500BFBA
:105380003D45002040450020D044002064410020DD
:105390001410044004450020414C00008C01001012
:1053A000C0450020E844002040210840000004409F
:1053B000A84500201C1004400010044000000460B8
:1053C0003C450020E044002074E80000D54D00007A
:1053D000B0440020054B5A68054B9A4201D1FFF7B3
:1053E000C7BC0448042105F013B900BFD044002015
:1053F000014F0000C44500202DE9F04F2DED028B38
:1054000083B0DDE90E5A06460F469046994605F0F0
:105410005FF808EE100A3B484FF0000B4FF0580CB5
:105420000CFB0B0404F1330194F833E01EF0800F01
:1054300057D13548019105F01FF834480199B0F86B
:105440001CC084F832800CF1010CCCF30B0CA0F8DA
:105450001CC0C4F80890B0F81CC0A4F830C025F0F7
:10546000C04C2CF4805C4CF002020AF02003C4E92A
:1054700006234FF0FF32E2633A7BE76002F00F024F
:1054800000254FF000084FF000094FF0800C022A71
:10549000C4E9125581F800C0256484F8445065635E
:1054A00084F83850A4F85050C4E9088926610546AC
:1054B00004D1012284F83820BA686263002286F899
:1054C000F4201248214600F061FE2A68A24201D170
:1054D000FFF74EFC0B4B582202FB0B3BBBF9304055
:1054E00006E00BF1010BBBF1080F99D16FF001043D
:1054F00018EE100A05F012F8204603B0BDEC028B3E
:10550000BDE8F08FF041002064410020B04400204D
:1055100000234FF0FF32C0E90223C0E905330360E6
:1055200003710374838370472DE9F04F2DED028BD7
:1055300087B080460393129BDDF84CB004938A46F3
:10554000164604F0C5FF874F08EE100A386840453C
:1055500008BF7868B8B1B03004F07CFF98B197F814
:105560002430C7F8208043F0040387F824306FF01C
:10557000020718EE100A04F0D1FF384607B0BDEC60
:10558000028BBDE8F08F784800254FF0580C81461B
:105590000CFB050404F1330394F833E01EF0800F94
:1055A00040F09E807148059304F066FF7048039BAD
:1055B000B0F81CC0C4F80CA00CF1010CCCF30B0C1F
:1055C000A0F81CC0A360049BB0F81CC0A4F830C0B5
:1055D00023F0C04C059BC4F810804FF0000E83F8F8
:1055E00000E0002200232CF4805C0BF0200BC4E9C7
:1055F0000823C4E906CBF36884F832E0236496F804
:1056000010E03268626384F844E0B2683179E263A2
:105610007269A264B26984F83810E264327F84F857
:105620005020727F84F851200646BEF1000F5ED0F4
:1056300071B99AF80C3003F00F03022B08D15822ED
:1056400002FB0592012382F83830DAF80830536300
:1056500009235246DAF804A0BAF1000F03D0013B47
:1056600013F0FF03F5D1138803F47C43B3F5305FE7
:105670004FF0580303FB059311BF4CF0020293F85F
:10568000332042F0100283F8332008BF4CF00802A8
:10569000C3E9062B3B6A434507D197F82430DA0764
:1056A00044BF23F0010387F82430324BD3F800A025
:1056B000BAF1000F21D16FF00200C31CDBB2012B45
:1056C00034D8B38BC7F82080013BC3F30B03B383FB
:1056D00097F8243043F0040387F8243007B248E7F2
:1056E0000135082D7FF454AF6FF0010741E7002B1F
:1056F0009ED0012384F844309AE71F4B31697269C8
:1057000000932046083BD047C31CD4D0582202FB4C
:105710000592B38BB2F930201BB29A421FBFB38BF4
:1057200003F1FF33C3F30B03B383C6E7582303FB33
:10573000059595F83330B5F9307043F0800385F85E
:105740003330002388F8F4303368A34206D0EB6886
:105750001B7B03F00F03022B7FF40BAFFFF708FB5B
:1057600007E700BF3C410020F041002064410020D9
:10577000B044002014EC0000B84400202DE9F347A9
:105780000029054691469A4601914ADB04F03CFF08
:105790000199804680222846FEF75AFC044618B13B
:1057A00090F833301B0607D4404604F035FF022042
:1057B000002102B0BDE8F087416A006A49F00A069C
:1057C0004AF0E04706EA000207EA0103134311D05A
:1057D000404604F021FFD4E9082306EA020007EA64
:1057E000030122EA000223EA0103C5E92A01C4E910
:1057F0000823DEE7A2680C4B9A421CBFA268C5F8DA
:10580000A020404618BFA360C5E9266704F004FF46
:105810004FF0FF3105F1480004F0BAFED5E92A0146
:10582000C7E700200146C4E791400000F8B5404EAC
:1058300033780446002B79D03E4DAA8BEB8B12B205
:105840001BB29A4213D02946FEF7A3FB38B92B6945
:10585000002B66D01B699C4263D1286938B1B0F92E
:1058600030100A224FF0E0432046FFF787FF04F094
:105870002FFE314B1A68A2424FF000020CBF1A6093
:105880005A603378013BDBB2337005462B4E04F18E
:105890004807002B33D12A4B34601B78022B0DD1E3
:1058A0000820FEF76DFE284604F038FE4FF0FF3169
:1058B000384604F06DFE04F00BFE0546214804F066
:1058C000A1FE214804F002FE204804F09BFE20487F
:1058D00004F0FCFD1F4804F0B1FD1F4804F0AEFDCC
:1058E000FEF708FA10B11D4803F0E2F91C4801F078
:1058F00071FF1C4B9B7813B10E2001F06BFC3368D9
:10590000A34208BF0023284608BF336004F006FE08
:10591000384604F03BFE04F1B000BDE8F84004F066
:105920008DBD11492046FEF734FB97E7F8BD00BF57
:105930003C450020B04400203C410020E0440020D1
:10594000D0440020C445002004450020F845002034
:1059500020450020A841002064410020EC440020A4
:105960002C46002074E80000B8440020D3B5DDE9DF
:105970000667CDE900670446FFF73EFD0A220146AF
:105980004FF0E043204602B0BDE8D040FFF7F6BE3E
:10599000D3B5DDE90667CDE900670446FFF7C4FD2E
:1059A0000A2201464FF0E043204602B0BDE8D04055
:1059B000FFF7E4BE30B5044D04460FCD0FC495E8A3
:1059C0000F0084E80F0030BD1CEC00002DE9F0430F
:1059D0001D466D4B164689B01A6804460F460029CD
:1059E00000F0CE80002E00F0C180097801238B40AA
:1059F000134000F0C7800021304600F0F5F9C4E9FB
:105A00000176624F04F064FD3E78012E814600F27B
:105A1000B580002E67D101F0EDFC5D4ADFF8E8812A
:105A2000136843F0020313605A4B5B4A1A606846DE
:105A300004F0B8FD98F801305849594802936A4675
:105A400004F0B8FD574958486A4604F0B3FD68466B
:105A500004F05CFD98F80030544A019319216B461C
:105A6000534804F017FD534A53486B461A2104F07B
:105A700011FD524952483346324604F0C1FC3346C8
:105A800050495148324604F0BBFC504B1B6813F49C
:105A9000402F05D04E4A4F483346042101F0DEFA2C
:105AA00098F8023013B10E2001F05CFD4A4800F076
:105AB00035FB4A4800F032FB494A4A4B072082F83E
:105AC0006000494A00211160484A19701160484A33
:105AD000998105201060474A996011700420464A58
