:020000040004F6
:104000004343313378325231FFFFFFFF0301BFFFDB
:10401000FFFF0001FFFFFFFFFFFFFFFFA8400400BD
:1040200030303031484C05002C00FFFF01BFFFFF4E
:104030000000000000400400FFFFFFFFFFFFFFFF44
:10404000FFFFFFFFFFFFFFFFFFFFFFFFFFFFFFFF80
:10405000FFFFFFFFFFFFFFFFFFFFFFFFFFFFFFFF70
:10406000FFFFFFFFFFFFFFFFFFFFFFFFFFFFFFFF60
:10407000FFFFFFFFFFFFFFFFFFFFFFFFFFFFFFFF50
:10408000FFFFFFFFFFFFFFFFFFFFFFFFFFFFFFFF40
:10409000FFFFFFFFFFFFFFFFFFFFFFFFFFFFFFFF30
:1040A000FFFFFFFFFFFFFFFF205E0020D92B050071
:1040B000F1F70400F1F70400F1F70400F1F7040050
:1040C000F1F70400F1F70400F1F70400F1F7040040
:1040D000F1F70400F1F70400F1F70400F1F7040030
:1040E000B1F70400FFFFFFFF70B54FF0FF0C4CF479
:1040F000E06C1CEA11541DBF1CEA135594EA0C0F26
:1041000095EA0C0F00F0DEF82C4481EA030621EA60
:104110004C5123EA4C5350EA013518BF52EA03359B
:1041200041F4801143F4801338D0A0FB02CE4FF04D
:104130000005E1FB02E506F00042E0FB03E54FF07D
:104140000006E1FB03569CF0000F18BF4EF0010E75
:10415000A4F1FF04B6F5007F64F5407404D25FEA71
:104160004E0E6D4146EB060642EAC62141EA555124
:104170004FEAC52040EA5E504FEACE2EB4F1FD0C66
:1041800088BFBCF5E06F1ED8BEF1004F08BF5FEAE4
:10419000500E50F1000041EB045170BD06F0004696
:1041A00046EA010140EA020081EA0301B4EB5C0443
:1041B000C2BFD4EB0C0541EA045170BD41F480113B
:1041C0004FF0000E013C00F3AB8014F1360FDEBF60
:1041D000002001F0004170BDC4F10004203C35DA3C
:1041E0000C341BDC04F11404C4F1200500FA05F3BF
:1041F00020FA04F001FA05F240EA020001F0004260
:1042000021F0004110EBD37021FA04F642EB0601D5
:104210005EEA430E08BF20EAD37070BDC4F10C04FF
:10422000C4F1200500FA04F320FA05F001FA04F2C3
:1042300040EA020001F0004110EBD37041F10001AF
:104240005EEA430E08BF20EAD37070BDC4F12005BA
:1042500000FA05F24EEA020E20FA04F301FA05F222
:1042600043EA020321FA04F001F0004121FA04F2CA
:1042700020EA020000EBD3705EEA430E08BF20EA9A
:10428000D37070BD94F0000F0FD101F000464000D4
:1042900041EB010111F4801F08BF013CF7D041EA56
:1042A000060195F0000F18BF704703F0004652005A
:1042B00043EB030313F4801F08BF013DF7D043EA2B
:1042C0000603704794EA0C0F0CEA135518BF95EAE1
:1042D0000C0F0CD050EA410618BF52EA4306D1D168
:1042E00081EA030101F000414FF0000070BD50EA87
:1042F000410606BF1046194652EA430619D094EA11
:104300000C0F02D150EA013613D195EA0C0F05D1FA
:1043100052EA03361CBF104619460AD181EA03014E
:1043200001F0004141F0FE4141F470014FF0000006
:1043300070BD41F0FE4141F4780170BD81F0004153
:1043400002E000BF83F0004330B54FEA41044FEA7A
:10435000430594EA050F08BF90EA020F1FBF54EA15
:10436000000C55EA020C7FEA645C7FEA655C00F0B1
:10437000E2804FEA5454D4EB5555B8BF6D420CDD82
:104380002C4480EA020281EA030382EA000083EA05
:10439000010180EA020281EA0303362D88BF30BDA5
:1043A00011F0004F4FEA01314FF4801C4CEA1131FB
:1043B00002D0404261EB410113F0004F4FEA03335A
:1043C0004CEA133302D0524263EB430394EA050FE5
:1043D00000F0A780A4F10104D5F1200E0DDB02FA54
:1043E0000EFC22FA05F2801841F1000103FA0EF2E8
:1043F000801843FA05F359410EE0A5F120050EF1AE
:10440000200E012A03FA0EFC28BF4CF0020C43FADE
:1044100005F3C01851EBE37101F0004507D54FF0EB
:10442000000EDCF1000C7EEB00006EEB0101B1F53B
:10443000801F1BD3B1F5001F0CD349085FEA300081
:104440004FEA3C0C04F101044FEA445212F5800F8C
:1044500080F09A80BCF1004F08BF5FEA500C50F129
:10446000000041EB045141EA050130BD5FEA4C0C0C
:10447000404141EB0101013C28BFB1F5801FE9D269
:1044800091F0000F04BF01460020B1FA81F308BF8C
:104490002033A3F10B03B3F120020CDA0C3208DD58
:1044A00002F1140CC2F10C0201FA0CF021FA02F133
:1044B0000CE002F11402D8BFC2F1200C01FA02F1A3
:1044C00020FA0CFCDCBF41EA0C019040E41AA2BFC8
:1044D00001EB0451294330BD6FEA04041F3C1CDA90
:1044E0000C340EDC04F11404C4F1200220FA04F0B0
:1044F00001FA02F340EA030021FA04F345EA03015A
:1045000030BDC4F10C04C4F1200220FA02F001FA1B
:1045100004F340EA0300294630BD21FA04F029469D
:1045200030BD94F0000F83F4801306BF81F4801136
:104530000134013D4EE77FEA645C18BF7FEA655CA9
:1045400029D094EA050F08BF90EA020F05D054EA7B
:10455000000C04BF1946104630BD91EA030F1EBF80
:104560000021002030BD5FEA545C05D14000494184
:1045700028BF41F0004130BD14F580043CBF01F577
:10458000801130BD01F0004545F0FE4141F470015D
:104590004FF0000030BD7FEA645C1ABF1946104638
:1045A0007FEA655C1CBF0B46024650EA013406BF39
:1045B00052EA033591EA030F41F4002130BD00BFF8
:1045C00090F0000F04BF0021704730B54FF48064B5
:1045D00004F132044FF000054FF0000150E700BF36
:1045E00090F0000F04BF0021704730B54FF4806495
:1045F00004F1320410F0004548BF40424FF0000182
:104600003EE700BF42004FEAE2014FEA31014FEAC4
:1046100002701FBF12F07F4393F07F4F81F0605113
:10462000704732F07F4208BF704793F07F4F04BF5E
:1046300041F40021704730B54FF4607401F000453B
:1046400021F000411CE700BF50EA010208BF70479B
:1046500030B54FF000050AE050EA010208BF70478C
:1046600030B511F0004502D5404261EB41014FF4F5
:10467000806404F132045FEA915C3FF4D8AE4FF0FD
:1046800003025FEADC0C18BF03325FEADC0C18BFE0
:10469000033202EBDC02C2F1200300FA03FC20FA31
:1046A00002F001FA03FE40EA0E0021FA02F114447E
:1046B000BDE600BF4FF0FF3C06E000BF4FF0010C2D
:1046C00002E000BF4FF0010C4DF804CD4FEA410C61
:1046D0007FEA6C5C4FEA430C18BF7FEA6C5C1BD02E
:1046E00001B050EA410C0CBF52EA430C91EA030FAF
:1046F00002BF90EA020F0020704710F1000F91EA0C
:10470000030F58BF994208BF90422CBFD8176FEAD9
:10471000E37040F0010070474FEA410C7FEA6C5CA7
:1047200002D150EA013C07D14FEA430C7FEA6C5CAE
:10473000D6D152EA033CD3D05DF8040B704700BFDA
:104740008446104662468C461946634600E000BF28
:1047500001B5FFF7B7FF002848BF10F1000F01BDFA
:104760004DF808EDFFF7F4FF0CBF012000205DF8C5
:1047700008FB00BF4DF808EDFFF7EAFF34BF01204A
:1047800000205DF808FB00BF4DF808EDFFF7E0FFE3
:1047900094BF012000205DF808FB00BF4DF808ED34
:1047A000FFF7CEFF94BF012000205DF808FB00BF9B
:1047B0004DF808EDFFF7C4FF34BF012000205DF87D
:1047C00008FB00BF4FEA410212F5001215D211D5C5
:1047D0006FF47873B3EB625212D94FEAC12343F0FE
:1047E000004343EA505311F0004F23FA02F018BF80
:1047F000404270474FF00000704750EA013005D149
:1048000011F0004008BF6FF0004070474FF000000B
:10481000704700BF4A0011D212F5001211D20DD517
:104820006FF47873B3EB62520ED44FEAC12343F0B6
:10483000004343EA505323FA02F070474FF0000060
:10484000704750EA013002D14FF0FF3070474FF00F
:104850000000704753B94AB9002908BF00281CBF9F
:104860004FF0FF314FF0FF3000F06EB9ADF1080CA2
:104870006DE904CE00F006F8DDF804E0DDE902237E
:1048800004B070472DE9F047089D04468C46002B84
:1048900040F083808A42174647D9B2FA82F242B189
:1048A000C2F1200024FA00F09140974040EA010C48
:1048B00094404FEA1748230CBCFBF8F61FFA87FE1A
:1048C00008FB16C143EA014306FB0EF1994209D9E0
:1048D000FB1806F1FF3080F01981994240F21681F1
:1048E000023E3B445B1AA4B2B3FBF8F008FB103362
:1048F00044EA034400FB0EFEA64509D93C1900F129
:10490000FF3380F00581A64540F2028102383C4425
:1049100040EA0640A4EB0E0400261DB1D44000235B
:10492000C5E900433146BDE8F08702B9FFDEB2FABF
:1049300082F2002A50D1CB1B4FEA174E1FFA87F89C
:104940000126B3FBFEFC210C0EFB1C3341EA0341A4
:1049500008FB0CF38B4207D979180CF1FF3002D217
:104960008B4200F2E9808446C91AA3B2B1FBFEF083
:104970000EFB101143EA014408FB00F8A04507D9DB
:104980003C1900F1FF3302D2A04500F2D98018464D
:10499000A4EB080440EA0C40BFE78B4209D9002D84
:1049A00000F0B1800026C5E9000130463146BDE87F
:1049B000F087B3FA83F6002E4AD18B4202D38242AB
:1049C00000F2B880841A61EB030101208C46002DAF
:1049D000A8D0C5E9004CA5E7C2F1200320FA03F6F0
:1049E000974001FA02F04FEA174ED9403043030CCA
:1049F000B1FBFEF61FFA87F80EFB161143EA0143DE
:104A000006FB08F1994204FA02F409D9FB1806F1F1
:104A1000FF3C80F08D80994240F28A80023E3B4408
:104A20005B1A81B2B3FBFEF00EFB103341EA034187
:104A300000FB08F38B4207D9791800F1FF3C73D2D1
:104A40008B4271D902383944CB1A40EA064678E7DE
:104A5000C6F1200C03FA06F422FA0CF31C4320FAE8
:104A60000CF701FA06F34FEA144E21FA0CF11F433A
:104A70003B0CB1FBFEF91FFA84F80EFB191143EA57
:104A8000014109FB08FA8A4502FA06F200FA06F328
:104A900008D9611809F1FF3048D28A4546D9A9F1F1
:104AA00002092144A1EB0A01BFB2B1FBFEF00EFBEB
:104AB000101147EA014700FB08F8B84507D9E71984
:104AC00000F1FF312ED2B8452CD90238274440EAF4
:104AD0000940A7EB0807A0FB02894F45C646494697
:104AE0001AD317D05DB1B3EB0E0267EB010707FADB
:104AF0000CFCF2404CEA0202F740C5E90027002610
:104B00003146BDE8F0872E4628460BE70646E9E623
:104B10001846FDE64345E5D2B8EB020E69EB040109
:104B20000138DFE70846D2E760468DE78146B9E7FE
:104B3000664675E730464AE7ACF1020C394413E7A4
:104B400002383C4424E700BF704700BF10F8012B37
:104B500011F8013B012A28BF9A42F7D0D01A7047BA
:104B6000034613F8012B002AFBD1181A01387047AD
:104B70002DE9F041154E96F8008004460F46B8F135
:104B8000000F05D0124B18680BF088FA0023337021
:104B9000104B1D68BFB9A37D53B9E37D003B18BF1F
:104BA0000123337002212846BDE8F0410BF038B9EB
:104BB000B8F1000F07D0227D0748214618320DF0CA
:104BC000C8FE0821EFE70421EDE700BF0C26002016
:104BD000EC2A0020F02A0020102600202DE9F047C2
:104BE00086B002A801F0A6FC02A801F0D3FC10B127
:104BF00081480CF0ADFE00F0EDFB00F02FFC00282A
:104C000040F0EA807D4C7E4F7E4E7F4D082006F0BE
:104C1000EBFF012222603B68DA07FCD533680220F3
:104C20005B689847C0B228700028F4D00023236046
:104C3000082006F011FE012401227348114602F0FB
:104C40002BF810B171480CF083FE6F4B704D1B7840
:104C50002B7002236B700AF0B3FE6E4F38605CB9A4
:104C600001220DF10701112000F0D0FB0DF107002A
:104C700000F0A2FE00F0DEFBDFF8C491664CDFF826
:104C8000C481C2464FF0FF331A46D8F80000002115
:104C90000BF052F8C307064651D50AF091FE396869
:104CA0005E4BDFF8A4C11A683860814234BF431AF2
:104CB0000B1A53436A68B3FBFCF313446B60D9F8D7
:104CC00000302B81564B0F201B886B8006F086FB33
:104CD000002323702B7863736B78A3736B88237422
:104CE0001A0A2B89E273A3741A0A6B6862741A0E8B
:104CF000E2741A0C2275A3751A0A0C232373B0FAF6
:104D000080F014234009C4F894304FF40073A87263
:104D1000E0754449A4F890300320627502F00EF863
:104D20003D4801F041FE10B13F480CF011FE3F48F4
:104D3000002101F001FF10B13D480CF009FEB00761
:104D400015D53C4B1B785BB13649032001F0F6FFCB
:104D50003648002101F0F0FE10B135480CF0F8FDA6
:104D6000002384F89830344B18680BF097F931071A
:104D700008D53248837D032B04D100F1170115308B
:104D800000F09EFD72071CD52A4B1B78CBB994F816
:104D9000902094F891309A4228D2204601F004FEE7
:104DA00010B121480CF0D4FD2048002101F0C4FED0
:104DB00010B11F480CF0CCFD94F89030013384F80A
:104DC0009030F3067FF55EAF012384F898301A4BDC
:104DD00018680BF063F952E70B490122102000F02C
:104DE00015FB00287FF40EAF044625E7DAF8000033
:104DF00010210BF015F8E4E7482C0500A8025042FA
:104E000008800240CC010010A82600205D2C05007F
:104E100000260020E82A0020642500209842050092
:104E20006025002080380100802C0500714B0400B3
:104E3000992C05000C260020F42A002010260020C2
:104E400028500940F02A0020A086010030B51E4CF1
:104E500091B00125082307A8242200218DF83450A1
:104E60000AF0E6FA07AA294620460AF005FB174B86
:104E70001C60174C07AA204600210AF0FDFA154BCA
:104E80001C60154C0823182201A800210AF082FAA0
:104E900001A920460AF08AFA104B1C60104C082326
:104EA00020463C2200210AF0CBFB4FF480632362B2
:104EB0000323A3610B4BE3610B490C4800232246FB
:104EC0000AF0D2FB11B030BDD8480020EC2A0020F7
:104ED00058480020F42A002074480020F02A0020BE
:104EE000AC260020E8260020DD4B04008848002086
:104EF000014B1878704700BFA826002038B50F4D29
:104F000004464FF0FF3128680BF062F80C4B1C8010
:104F10000C4B012118680AF083FF0B4B4FF0FF3157
:104F200018680BF055F8094B93F89840084B1B781C
:104F300013B928680BF0B2F8204638BDEC2A0020DF
:104F400060250020F02A0020F42A0020642500209B
:104F50000C2600202DE9F041134D144C0F468046DD
:104F60004FF0FF31286816460BF032F8104B204600
:104F70001B7800F80D8B32463B7039460DF0E9FC8A
:104F8000002320462673C4F89430A4F8903001F032
:104F90000BFD10B107480CF0DBFC28680BF07EF825
:104FA0000020BDE8F08100BFEC2A0020642500202D
:104FB000A8260020802C0500F0B5354D2B7885B053
:104FC00013B9FFF795FF2870324F334E3A78A2B9E4
:104FD000324C0392206802F0EFFA2B78039A009388
:104FE00011462F4B206802F0EDFA33880093039AA4
:104FF0002C4B2068012102F0E5FA2B782A4C009313
:1050000000221146294B206802F0DCFA3388009315
:1050100000221146264B206802F0D4FA3A78B2B149
:10502000244B1B880193244B1B88009300221146BC
:10503000224B206802F0C6FA214B1B680093002225
:10504000204B2068114602F0BDFA05B0F0BD1E4BA2
:1050500093F900104B1CF8D00129206813D00229C5
:105060000AD091B9194B0A4602F0ACFA206805B093
:10507000BDE8F04002F0C0BA154B114605B0BDE8DE
:10508000F04002F09FBA134BF7E7134BF5E700BF70
:10509000282B00206E2F0020142B00200C2B00202A
:1050A000B62C0500C52C0500102B0020CF2C0500C8
:1050B000EA2C0500742F00206C2F0020012D050024
:1050C000702F0020152D05002C1B00202B2D050016
:1050D000472D0500572D0500642D050083B5684652
:1050E00002F066FA032369464FF000408DF8003065
:1050F00002F02EFA384C694620604FF0804002F0F2
:1051000027FA364A106020B10022354B114602F0D2
:1051100059FA206820B10022324B114602F052FAAF
:1051200031493248324C06F0CDF9206010B931488F
:105130000CF00EFC4FF47F6201214FF4803001F03F
:105140001BF82D482D4D01F045F801F03FF82C4B90
:1051500028681B682B49B1FBF3F10AF085FD28682C
:10516000294D0AF047FD2949294806F0ABF9286086
:1051700010B928480CF0ECFB2749286806F082F9A2
:1051800010B126480CF0E4FB254D264E28684FF060
:10519000FF3300211A460AF0CFFDC10701900FD559
:1051A0000620276806F064F9B0FA80F25209062159
:1051B000384606F043F93088FFF7A0FEFFF7FCFE03
:1051C000019B9A0701D5FFF7F7FE019B5B07DDD531
:1051D00001A800F085FAD9E70C2B0020102B002045
:1051E0006F2D05008E2D0500301B00201C2B00208C
:1051F000182B0020A12D050029520400082B0020A7
:105200009842050080C3C901F82A0020201B002015
:10521000FC2A0020CC2D05004D520400EC2D050089
:105220002C2B0020142B0020034B1880034B012152
:1052300018680AF0F5BD00BF142B00202C2B0020AD
:105240004FF47F610F2000F0B7BF000008B5094898
:105250000CF09FFE0F2006F0C1F850B901204FF46A
:105260007F6100F0A9FF044B1868BDE808400AF010
:10527000C1BC08BD801A0600082B002070B50024B0
:1052800092B0214D214E029408231822214603A8F2
:10529000CDE900440AF07EF803A928460AF086F812
:1052A000356024221A4D0DEB0200214608230AF036
:1052B0003BF809AB284617490E940122ADF834405B
:1052C0000AF03EF8144B1D60144D21462846082371
:1052D0003C220AF0B5F94FF480632B620323AB61E3
:1052E0000F4BEB612A4623460E490F480AF0BCF9E2
:1052F00033680093042101236846CDE9011300F0CF
:10530000A9F912B070BD00BFF44800202C2B00207A
:105310005849002041520400082B0020302B002067
:105320006C2B0020DD50040008490020114BF7B51C
:1053300014461A7806460D466AB90F4F01920121AC
:10534000197038680D4B114602F03CF9019A386823
:10535000114602F049F90A4B1E800A4B1D800A4B88
:105360001C600A4B1868022103B0BDE8F0400AF047
:1053700057BD00BF6E2F00200C2B0020172E0500FC
:105380006C2F0020742F0020702F00202C2B002069
:105390000C4B13B500241C700B4B187058B101A8AE
:1053A00002F006F903238DF80430084B22461868F2
:1053B000012102F019F9064B022118680AF030FDAC
:1053C00002B010BD6E2F00202C1B00200C2B0020E3
:1053D0002C2B002038B50A4D2C686CB905F0AEF8BE
:1053E000084805F009F90749204605F0C3F8286088
:1053F00020B1054905F09EF8002038BD0220FCE7E9
:10540000782F00207C2F0020802F00201346084A90
:1054100010B514684CB10A460146204605F0F0F874
:1054200000280CBF0020032010BD0120FCE700BFB6
:10543000782F002008B5074B186848B1064B0021AB
:105440009A6805F073F800280CBF0020042008BDFE
:105450000120FCE7782F0020802F002010B50D4B95
:105460001C6886B000219CB10D2202A801910DF0AC
:105470007EFA102301AA0021204605F0C1F8064952
:1054800001A8FFF763FBB0FA80F0400906B010BD39
:105490002046FBE7782F0020352E050000F08CBA5F
:1054A0001946084B188890420AD1074A12783AB137
:1054B000421C1A80054B00221A60422200F0A6BB53
:1054C000704700BF8E2F0020B92F0020BC2F002076
:1054D00010B54FF47A73074C5843074B1968B0FB6B
:1054E000F1F120680AF0C0FB2068BDE810400AF026
:1054F00081BB00BF902F00209842050010B54FF4EB
:105500007A73074C5843074B1968B0FBF1F12068D8
:105510000AF0AAFB2068BDE810400AF06BBB00BF90
:10552000C42F00209842050010B58AB004461C2202
:10553000002103A80DF01BFA124B1A889B788DF8F6
:105540000A30114BADF808201A6A1B7BCDF80B20EE
:1055500003F00F03092B94BF303341338DF805302E
:105560000A4A30238DF804301268BDF80430CDF8B3
:105570000F2002A92046ADF8133000F0B7F90AB0A9
:1055800010BD00BF462E0500004004004A2E050055
:1055900010B50B468C1E02320321D2B2007803F8FC
:1055A000011C2146FFF7D6FC204609F0D7FD01205B
:1055B00010BD0000024B996818680AF031BC00BFAA
:1055C0007C490020024BD3E900010AF029BC00BF4E
:1055D0007C49002013B5821C1046019209F0BCFDE5
:1055E000044620B1019A00210DF0C1F90234204691
:1055F00002B010BD10B5114B017819700446104669
:1056000000F058FA0E4B0F4A188000230146138011
:1056100070B10D4A012111700C4A13600C4A2046EA
:10562000136000F087F9BDE81040A020FFF750BFDD
:105630002046BDE8104000F07DB900BFEC2F0020EF
:105640008C2F00208E2F0020B92F0020BC2F00208F
:10565000C02F002010B50246184B51680068184C46
:1056600003C38CB09068186001A800F019F9154BBD
:10567000019301A8144B029300F016F903A8082324
:105680002422002109F050FE00230893ADF81C30BD
:10569000204603AB0D49012209F052FE0C4B0D4987
:1056A0001C600D4C03AB0122204609F049FE0B4B58
:1056B0001C6000F0D7F90CB010BD00BF7C49002081
:1056C000942F00205C1B00203C1B0020C5550400CB
:1056D000902F0020B5550400C82F0020C42F0020B3
:1056E000324B02685B681A422DE9F04145D0304FD9
:1056F00097F80080B8F1000F05D00CF042FC2D4B5C
:1057000001221A60FEE72C4C2378002B35D02B4D5C
:105710002B4E2A683388934212D0DFF8B480328847
:10572000B8F8003093422CD800F000FB0546FFF794
:105730002FFE00202070002D34D101233B7030E07B
:1057400020490A68501C042A086018D9404684F889
:105750000080FFF7BDFE4046FFF7D0FE00F064FB7F
:105760000120FFF715FE4FF0FF33174A2B60136837
:10577000013313602378002BCFD1BDE8F081013BCA
:10578000F3E70123002111482A6000F0EDF80E4BE9
:1057900030881A68B8F80010FFF7C8FD5020FFF7EE
:1057A000ADFEA020BDE8F041FFF792BE7C4900208D
:1057B000B82F00207C052043B92F0020381B002083
:1057C0008E2F0020BC2F0020C02F0020EC2F0020A7
:1057D0008C2F002008B5034B5B681B6803B198470A
:1057E000002008BDF02F002008B5044B5B685B6803
:1057F0000BB101319847002008BD00BFF02F0020F9
:1058000008B5044B5B689B6813B18A1C49789847BC
:10581000002008BDF02F002008B5044B5B68DB6852
:105820000BB149789847002008BD00BFF02F002039
:10583000084B5B6870B51C694CB14E790B79CD781B
:105840008A78497843EA062342EA0522A0470020E5
:1058500070BD00BFF02F002038B5064B5B685C6957
:1058600034B1CD788A788B1C42EA05224978A0476A
:10587000002038BDF02F002008B5034B5B689B6902
:1058800003B19847002008BDF02F002008B5034B56
:105890005B68DB6903B19847002008BDF02F00204A
:1058A0000023C0E900337047044B024610B9C3E936
:1058B000000070470068516803C37047F02F002054
:1058C000F8B5094C06460D4604F140070120227840
:1058D0002B789A4203D163682946304698470834AA
:1058E000A742F4D1F8BD00BF502E050070B5104E90
:1058F00033681B6805460C46C3B121209847014612
:10590000A0B10246012302F8013B04F12000234626
:1059100053F8044B42F8044B8342F9D133685B6877
:1059200023B128462122BDE870401847012070BDF0
:10593000F02F002070B50B4E33681B6804460D46EF
:1059400073B102209847014650B10323037045709C
:1059500033685B6823B120460222BDE870401847D7
:10596000012070BDF02F00202DE9F041DFF84480C8
:105970001C46D8F800301B6806460F461546ABB1EA
:1059800006209847014688B1857004232D0A0370CC
:105990004770C5700471D8F80030240A44715B6800
:1059A00023B130460622BDE8F04118470120BDE88A
:1059B000F08100BFF02F002070B50A4D2B681B68E6
:1059C00004466BB101209847014648B10723037094
:1059D0002B685B6823B120460122BDE87040184760
:1059E000012070BDF02F00202DE9F047DFF86C900A
:1059F000194FDFF86C8086B0002504AED9F800306E
:105A00005FFA85FA9A4505D34FF0FF0A504606B073
:105A1000BDE8F087386879686B4603C36C03D8F833
:105A20000000D8F8041004F4FF1403C394E8030042
:105A3000082286E80300314668460CF07CFF30B14E
:105A4000082231460DEB02000CF075FF10B9A37C63
:105A5000072BDBD90135D1E7902E0500303000202F
:105A6000992E05000E4808B5036803F00F039A024B
:105A70000C4B1A600C4B19680368C9B203F00F0392
:105A80004B439B02B3FBF2F3084A136000F0E6F9C4
:105A900000F0EEF900F016FA054B187008BD00BFD3
:105AA00030240340343000202C00034030300020EC
:105AB000413000202DE9F043494B4A4D01221A7034
:105AC000494A93B051680446106803AB03C3286881
:105AD000696805AB03C3FFF787FF444A1678FF28C0
:105AE0000CBF434B43031EB9414AFF2808BF13466E
:105AF000217A1A7B914219D1677A5B7B9F4214BF4E
:105B0000052700270822214603A80CF014FF78B1CE
:105B10000822214605A80CF00EFF48B1354B0022A3
:105B20001A60344B188813B0BDE8F0830527E9E705
:105B3000237B5A1E3E2AF1D85A1F012AEED9002F84
:105B4000ECD12D4FD4F80E203A602C4A2C4913602A
:105B50002C4A6EB90E6016803A682B4B12F03F0F3C
:105B60001E804FEA9213234A18BF01331360D8E70F
:105B7000012B0CBF4FF480334FF40033D5F8009065
:105B80000B606D681B0B1380FF264FF0FF3802245B
:105B90004846294603AB03C301AA08230021204637
:105BA00000F092F903A9082201A80CF0C4FE0146F6
:105BB00030B1204600F0D0F92646CDE70324E7E7D0
:105BC000342305AA204600F07FF9119B43453CBFD2
:105BD00098462646032CF1D1304600F0BDF9BBE7CC
:105BE00040300020992E0500902E05004130002005
:105BF000004004006C1B0020641B0020681B002078
:105C0000383000203C3000203E3000202DE9F041AB
:105C10003F4B1F783F4B1C78013C84420E4601F1FC
:105C200002015CD13C4DA401E4B22C443A3651F857
:105C3000043B44F8043BB142F9D1FFF7D5FE4303DE
:105C4000002F61D1354AFF2808BF1346DC89E88957
:105C5000844214BF05240024314B6A6B19684B1E23
:105C60001A4253D1D4B9AB6907BBB3FBF1F2D5B239
:105C700001FB12330BB10135EDB22A4B1F78984668
:105C8000B8F800302B449F4215DB234A98F80000F7
:105C90003823002100F02EF9B8B103242046BDE8D6
:105CA000F081AA7C032AD1D10024D5E7C3F30735BC
:105CB000C3F30B03DEE7384600F04EF9FF2802D0AD
:105CC0000137FFB2DCE70324DFE798F80000082380
:105CD0003246382100F00EF90028DFD0DDE7124B04
:105CE0001B68023A03EB80102FB900F01BF9044641
:105CF0000028D3D0D1E793B20A46C0F30B01C0F31A
:105D0000073000F0F7F8F2E7FF28CAD10524C5E70D
:105D10004130002040300020F82F002000400400D7
:105D2000343000203C3000203830002070B5364C34
:105D30009CB00FAE042332460821207800F0C4F84E
:105D40000123207804AA112100F0BEF89DF810303C
:105D5000FC2B02D102201CB070BD2C4D2C4B2A789C
:105D600020781B68002A4BD0012200924FF480510A
:105D7000002200F021F90F9B8342EBD1FE238DF826
:105D800010302B7820783BB9012304AA112100F0B0
:105D9000B1F828780028DED020782C2304AA00212E
:105DA00004AC00F091F80FCC35460FC50FCC0FC5F1
:105DB00094E8070085E80700164A174C10685168F8
:105DC00002AB03C3154B03991B6886E803001A93C3
:105DD00000231B93124B1B682078013B062B9CBFB2
:105DE0004FF6FE63ADF84C3000F0B6F8207834235F
:105DF0003246002100F07EF8002818BF0320AAE7F1
:105E0000084900920968B4E73C3000204130002086
:105E1000641B0020992E05003E3000203830002001
:105E2000681B00203430002000F03CB807B508F0B3
:105E300091FEFC2307498DF8073001220DF1070080
:105E40000CF0B8F800B1FEE70CF09BF8024B012211
:105E50001A60FEE7114004007C05204308B504F0F9
:105E60006DFBBDE80840014804F0C6BB4830002087
:105E700010B5084C23785BB90749012004F07AFB80
:105E8000064A106020B101230549237004F052FB3B
:105E9000207810BD423000204830002044300020DF
:105EA0004C30002010B5054C23782BB1044B1868FA
:105EB00004F038FB0023237010BD00BF42300020E7
:105EC000443000200020704710B5084C247854B1AD
:105ED00001EB40310648006804F092FB002814BF33
:105EE000FF20002010BDFF20FCE700BF4230002053
:105EF0004430002013B5094C24786CB101EB4031DB
:105F0000042407480094006804F082FB002814BFB2
:105F1000FF20002002B010BDFF20FBE74230002030
:105F20004430002007B51346094A127872B10622A0
:105F300000920A4601460748006804F069FB002801
:105F400014BFFF20002003B05DF804FBFF20FAE738
:105F5000423000204430002008B5084B1B785BB16C
:105F6000074B41034FF40052186804F0DFFA002891
:105F700014BFFF20002008BDFF20FCE742300020B6
:105F80004430002010B528B14FF6FF73013A92B2A9
:105F90009A4200D110BD8C5C8454F7E7054A08236F
:105FA00000F00101400801B15040013B13F0FF0334
:105FB000F6D170472083B8ED2DE9F04F8FB05C1E0D
:105FC0000E460992E11C9DF860200592814600F280
:105FD000A18052B1B3F5B02F00F29C804E4A4FF42D
:105FE00080730021FFF770FF06E006FB00F14FF41D
:105FF00080724948FFF7C6FFB4FBF6F309EB0302D2
:1060000006FB1343D2B2013302929AB2C3F30723C1
:10601000049301330392DBB2C6F30722DFF8F8B032
:10602000079208934D464FF0FF34029B9D4203D9DF
:10603000E0430FB0BDE8F08F17D19DF80C30089AFF
:106040000499002B08BF0A461346019306FB05F38B
:106050000693099B0C339BB200270A93019BFAB26B
:10606000934204D80135EDB2DFE7079BEDE7019BD2
:10607000013BBB4222D102998D421FD1039911F0FD
:10608000FF0A08BF4FF4807A4D451AD1002A0A9AB8
:1060900014BF4FF0000890460BEB0802D04513D315
:1060A000059A2ABB069B03F580714FF4807201EBC1
:1060B00007215846FFF766FF0137CFE74FF4807A94
:1060C000E2E74FF00008E7E712F8010B0D9360409C
:1060D000210AC0B20C910B92FFF760FF0C990D9B47
:1060E0000B9A08F1010881EA00041FFA88F8D5E745
:1060F000BB4208D1681C4FF480735A460021C0B2DD
:10610000FFF7E2FED8E7791C4FF480735A46090284
:106110002846F5E700208CE76022002008B501F052
:10612000C1F90F2005F05AF908B9FFF77FFE01F019
:1061300069FA04F0DBFA04F077FAFEF787FEFFF75E
:106140009DF809F023FC002008BD704708B501F058
:106150004FF801F045F8C30708D50221002001F0EF
:106160006DF8044B1B680BB100889847BDE80840E8
:1061700001F04AB85830002070B50C461546064666
:1061800000F0E4FE094800F0D5FE094800F0D8FE12
:10619000084800F09BFF304601F0C0F90021084696
:1061A00001F04CF80580448070BD00BF4B610400D5
:1061B0004D6104004832050038B50D460021044603
:1061C000084601F03BF80580448038BD012001F00D
:1061D0004FB80000014B1860704700BF58300020D6
:1061E00070B51D46114B1868144609F057FF104B47
:1061F0004FF6FF7200201A8004F002020346134398
:106200000AD1024605F0445313430BD1B5F1885F20
:1062100006BF002C0B200520064B1B6823B1BDE8F0
:10622000704018470A20F7E770BD00BF30310020EA
:10623000B21B00207434002000212DE9F0411446E7
:106240001D4602F002020B46134356D0374B186826
:1062500009F024FF364B4FF6FF721A80354A5388F7
:10626000B3F5505F43D1344B197903293DD1334CF9
:106270002188012906D092F90E20002A2FDA2279EE
:10628000012A2CD12E4A1B7A17782E4DDFF8C480B4
:10629000DB1B2B752C4B1B78002B14BF0226012611
:1062A0002A4B3A4608EB060128461E700CF051FBBB
:1062B0002A7D802A07D90821254B1B689BB3BDE89E
:1062C000F04120481847F119414405F115000CF040
:1062D00040FBE3792B72A368EB600021ECE7A37924
:1062E000012BE8D06379012B19D00621E4E743F2B2
:1062F00001429342F9D10721DEE70A4605F0E24365
:106300001343F2D0094B186809F0C8FE084BB5F1E9
:10631000885F4FF6FF7208BF002C1A8001D00A2157
:10632000CAE70B21C8E7BDE8F08100BF303100208B
:10633000B21B0020D030002070320020A433002097
:10634000B01B00200C33002094340020B81B002028
:10635000083300207832002008B5044B186809F093
:106360009DFE034B4FF6FF721A8008BD30310020AE
:10637000B21B00200A4B0B4A1B78108A042B05D154
:106380000F3040011423B0FBF3F07047072B00F1EE
:106390000A004FEAC0000CBFC8233223F3E700BF56
:1063A0002031002000310020544B1B782DE9F743A9
:1063B00043F04173524C43F44033A361514B1B787B
:1063C0000025C4E9025507462560257125746561DD
:1063D000002B00F090804C4EB6F90030AB4203DB4E
:1063E000092003B0BDE8F083484B2946186809F03E
:1063F000EFFD0028F4D0464B1A78464B072F18685B
:106400004ED0454C40F608032380237BA56003F063
:10641000700363F07F032373404B9B696361A37B2D
:1064200023F00E03052F43F00A030BBF43F00103D3
:1064300065F300034FF6FF714AF6AA21A373E37CCC
:106440000CBF21822182012161F303034FF0020876
:106450004FF0E249E374CDE90089314B72B1284A2B
:106460002D4903F06BFB30802E4E4FF4FB7542F24A
:1064700010776388022B05D10020B2E7264903F08C
:10648000C5FAF0E7013D3068B7FBF0F0ADB20AF0B5
:1064900027F9002DEDD16388022BEDD00420A0E771
:1064A000214940F607030B800B7B8D6003F07003DE
:1064B00063F07F030B731D4B1B690B61CB8923F4C6
:1064C000706323F0060343F483734FF002084FF028
:1064D000E249CB81CDE900894AB1154B224603F050
:1064E0002DFB3080B6F90030002BC5DAD6E70C4B17
:1064F00003F08CFAF5E7012073E700BF3431002088
:10650000C833002038310020B21B00203031002079
:106510004C31002048310020783400200031002028
:106520005963040098420500B0330020D0300020A9
:10653000E16104000023C0E901330370014BC36033
:10654000704700BF8129050038B5202204460D465A
:1065500000210CF00CFA224643F6030322F8023B1A
:10656000294651F8023FC4F802304B6853608B68EB
:106570009360AA7BA37BC2F3000262F30003AA7BB1
:10658000C2F3C00262F3C303A373EB7B23822B69C4
:10659000A36138BD2DE9F043AD4C95B0002852D130
:1065A000C4E90100AB4B2070E360AB4D2B785BB1CD
:1065B000AA4B0021186809F00BFD002800F0E781C4
:1065C000A74B186803F03CFCA64F3A789AB9A64E40
:1065D000304603F0F9FCA54B62681B6833601AB1C2
:1065E000A3680BB1C6E90523A14BF361A1480123C0
:1065F0003B7003F097FAA04BE2681A609F4BA04EE5
:106600001822184600210CF0B2F943F60502028068
:106610004FF44072002382814BF2090202823370F0
:1066200004222378C27544F620628261072B00F2AF
:106630005D81DFE813F0150002014B0156010201F4
:106640006401640171010346254600F110061868D3
:1066500059682A4603C20833B3421546F7D1A4E766
:106660000BF020FC002840F0E2800020854B2478CD
:10667000DFF850C21F7824220023D9B28F4210D9EC
:1066800003FB022E591C1EF80CE0A64540F0518178
:106690007D4902FB03137D4A13605B6901270BB13F
:1066A00037700027794B1A68002A00F01F81936821
:1066B000DFF8E8C1002800F03E8103F1300E1868D1
:1066C0005968644603C408337345A446F7D1D368B8
:1066D000DFF8ECC103F1180E18685968644603C46A
:1066E00008337345A446F7D15368694C03F1100E83
:1066F000A04618685968A446ACE8030008337345FF
:106700006446F6D19369DFF8C0C103F130096446ED
:1067100018685968E646AEE8030008334B45F4466E
:10672000F6D1002F00F0128111695A48FFF70CFFD3
:10673000594F3B7813B1002388F800304A4B574A31
:106740005349574803F04CFC454B564A1860E368E0
:10675000317803F084631A434FF0000CC2F307430F
:10676000E26088222283C4E901CCA27EA4F802C0A0
:10677000C4F814C0DBB2002900F0F5804A49216159
:10678000102161F30502A276FC22A2776CF3451377
:10679000A373464B628B1B7803F01F035B0043F42B
:1067A0000063A3830123E377414B6362414BA36200
:1067B000414BE36202F03F023B7842F48042002604
:1067C00062832662002B00F0D8803C4B294A19785E
:1067D000166041F0427141F480314FF002084FF0F1
:1067E000E2499161C2E90266167116745661344934
:1067F000CDE90089334603F0D5FB0823242200218C
:106800000BA8164C08F014FE03A80AF07FFF2068BE
:1068100038B903AA0BA908F017FE2060002800F081
:10682000B88009F03BFC01232B70002064E00BF0E2
:1068300039FB033818BF012018E70BF033FB0028A1
:1068400054D00BF02FFB032850D001200EE700BFDF
:10685000203100208129050038310020303100200E
:10686000483100206832002048320020BC1B002044
:10687000A2FE0080C8330020443100208430002074
:1068800094340020A82E0500C01B00206C3200208C
:106890005C300020003100204C310020A03000206E
:1068A00050310020000108084E905500B01B002018
:1068B000701B00203C310020A43300203431002024
:1068C0006C3000209C1B0020D03000200BF0EAFA36
:1068D00060B10BF0E7FA032808D00BF0E3FA0428C4
:1068E000B2E70BF0EDFA05283FF4BFAE2A4B18686B
:1068F00008B109F0D3FB022015B0BDE8F0830BF01E
:10690000DFFA08283FF4B1AE0BF0CCFA0428EDD141
:106910000BF0D6FA0C2897E70BF0D2FA0C2894D09B
:106920000BF0CEFA0D2890D00BF0CAFA0E28DDD16C
:106930008BE70B46A1E603F1200E18685968644600
:1069400003C408337345A446F7D1C0E65369134F17
:1069500003F1200C186859683A4603C208336345AE
:106960001746F7D1E4E60E4E2661082666F30502C7
:10697000A276A17743F020030AE702264FF0E24710
:10698000CDE900671A46074903F0FAFA35E709200E
:10699000B2E70320B0E700BF303100200031002013
:1069A000DE510B936C300020584B1B782DE9F347D8
:1069B00043F04273564C43F48033A361554B1B782C
:1069C0000021C4E902110646216021712174616130
:1069D000002B00F09480037B802B00F292804E4DC0
:1069E000286809F0F5FA002800F08D804B4A337BC7
:1069F00092F800804A4A4B4F11784B4AC146002911
:106A00005ED00221117041440B443B7018237B700F
:106A100092F800A03146424607EB0A000BF099FFBE
:106A20000AEB0800327B06F10D0138440BF091FFB0
:106A3000337B3E49D1449944A1F81090CF61FFF7D0
:106A400099FCB2680B7B002A3FD003F070034FF42F
:106A50007A6663F07D0370430B738A6022600123C2
:106A6000024423716061E2602374314B314C1B7826
:106A7000206802264FF0E247CDE90067002B37D0AF
:106A8000234A2A49002303F059F8014602222068CC
:106A90004FF0E24303F07CF9B1F1885F08BF0028B2
:106AA0002BD0002100F0020050EA01030CBF0524A6
:106AB0000C46286809F0F2FA204602B0BDE8F087DB
:106AC0000121434411703B70A2E703F0700363F0AF
:106AD0007F030B734FF47A6303FB00F68A60226036
:106AE0002271666102F0D2F93044E0600123BBE715
:106AF0000E49012202F08AFFC7E70B24D9E70124DF
:106B0000DAE70224D8E70924D6E700BF34310020B1
:106B1000C83300203831002030310020B01B002065
:106B200094340020E8330020B81B002000310020FE
:106B30004C31002048310020494B1B782DE9F743A8
:106B400043F04173474C43F44033A361464B1B78F9
:106B50000025C4E9025581468846256025712574C3
:106B60006561002B78D0414EB6F90030AB4203DBB3
:106B7000092003B0BDE8F0833D4F2946386809F08D
:106B800027FA0028F4D03B4B3B4AC3F800908923F6
:106B9000D3803A4B1571C3E90025394DAB62394BAF
:106BA000EB6299462B7BB8F1000F3DD003F07003E8
:106BB00063F07D032B730123C5F80880C4F80080BF
:106BC0002371DFF8D080EB7FD8F8002003F070034A
:106BD000002A35D063F07D03EB7702F057F9D8F83F
:106BE0000030184401232862E06023740023C9E9BF
:106BF0000033C9F80830244B1868244B1978022256
:106C00004FF0E243CDE90023214B01B3154A1C4963
:106C100002F094FF3080B6F90030002B1EDA38689D
:106C200009F03CFA0620A4E703F0700363F07F0349
:106C3000C5F808802B73C4F8008084F80480C0E78E
:106C400063F07E03EB772A62E2602274CEE70C49A0
:106C5000012202F0DBFEDDE701208AE7002088E761
:106C600034310020C833002038310020B21B00200E
:106C70003031002008330020703200203C310020E9
:106C8000D0300020A4330020483100204C310020B7
:106C900039620400B41B00202DE9F041224B1B781F
:106CA000044688461546002B38D0082938D81F4F8F
:106CB0000021386809F08CF9A0B33CB3B8F1000F9B
:106CC0002AD06B1E072B27D8194B1E78464523D197
:106CD00006FB05F2214617480BF03BFE164B9A8B3C
:106CE00022F03E0206F01F06ED025205520D45EA63
:106CF000460515439A7B9D836FF3C7129A73002450
:106D0000386809F0CBF92046BDE8F0810A4A937B48
:106D100043F080039373F3E70224F1E70124F2E7E1
:106D20000224F0E70924EEE738310020303100205A
:106D3000B01B0020701B0020D030002007B501914F
:106D400007283BD8DFE800F0041221282C3236381F
:106D50000199CBB2082B31D8194A1370194B1A7FFD
:106D600061F345021A7703B05DF804FB164B1878FF
:106D700038B1164B01AA1868002103F051FA00201F
:106D8000F1E7134B019A1A60EDE7019B114A003BB2
:106D900018BF01231370F2E70F4B019A1A60EEE758
:106DA000019B022B0AD80D4A1360E8E70520FFF784
:106DB000FBFAD8E70620FAE70720F8E70220D2E737
:106DC000B01B0020D0300020383100204831002096
:106DD000BC1B00204C310020B41B002034310020AB
:106DE00070B50A4E044604F003040D4609F0FFFE98
:106DF0003168E3003F229A4021EA020105FA03F3D9
:106E00000B433360BDE8704009F0F7BE0430094021
:106E100010B5162009F0F4FE064B1B7813B1064896
:106E200009F03CF9054B1B6813B1BDE81040184749
:106E300010BD00BFDC34002014350020D434002005
:106E40002DE9F843DFF8BC8006460D4609F0CFFE79
:106E500098F80030474603F0FF09012423B109F0F8
:106E6000CCFE2046BDE8F88388F8004009F0C5FE56
:106E700015F001000BD01F4A5368198893890B4302
:106E80009BB2334203D088F800900220EAE71A4907
:106E90000A6812F001024FF0010325D0174A13606F
:106EA0000B68DB07FCD413494B6800B38889B2B286
:106EB0009A8002438A8115F0020218BFB2B215F01F
:106EC000040518BFB6B2DA804FF0160014BF1E8159
:106ED0001D8109F0D7FE162009F0B4FE084B0122EF
:106EE00000201A603870BDE73A701846BAE79880FB
:106EF000E1E700BFE034002024500C402C500C404F
:106F000018600C40D03400201D2009F09BBE1D20CD
:106F100009F076BE10B5FFF7FAFF034B1B6813B1FB
:106F2000BDE81040184710BDD834002009F05FBEFE
:106F300009F063BE014B1860704700BFD4340020D5
:106F4000014B1860704700BFD834002010B50B4BC0
:106F50001A788CB002F0FF0172B901241C7024224F
:106F600003A80823019108F063FA019904488DF8F9
:106F7000244003AA08F080FA0CB010BDDC340020D5
:106F8000143500200C4B9B6992021B5C42F00802F6
:106F900059B101290CD0013101D142F4C04203F1B1
:106FA000804303F501231A60704742F40052F6E76C
:106FB00042F48042F3E700BFE0340020F0B50D4614
:106FC0001146C20800F0070602F58022B400CC3258
:106FD00012032034C5F30367A7500124D2F808C078
:106FE000B440C5F307272CEA040CB74047EA0C0766
:106FF000976017684FEA460E4FF0030C0CFA0EFC30
:1070000027EA0C0CEFB207FA0EF74CEA07071760F5
:10701000D768B34027EA04071F43D7605768C5F312
:10702000074303FA06F627EA04042643566053682A
:107030002A0FBDE8F040FFF7A5BF0000084B9B6991
:1070400001311B5C022998BF064A03F1804303F516
:10705000012394BF32F8112000221A60704700BF4C
:10706000E0340020A22E05001449154BC98B154AA7
:107070001B68182970B5146804D1C5075EBF124D8E
:107080000B262E600E4DA34207D183420ED09E07E1
:1070900005D523F002032B60F5E71468F3E74340BE
:1070A000DE074CBF00F001030346F4E7182904D1C2
:1070B000DB0742BF044B00221A6070BDE0340020A1
:1070C00000600C4004600C403C900C402DE9F04105
:1070D000394B1B68DB078EB06CD4384A034600F18D
:1070E0003005174618685968144603C40833AB4284
:1070F0002246F7D11868324A324B2060FF21002423
:107100001C60146054609460D460916105219461A6
:10711000116206215162012602219662D162032189
:107120001163254D284804214FF007085163C2F828
:1071300038803969D463FA891E600BF00AFC3B6A17
:107140002C609847214B2D211E604046FFF748FEDA
:107150002B6833432B6008230DEB030030222146BC
:1071600008F082F81A4A1B48009402AB1621ADF8C9
:10717000204008F093F8162009F084FD162009F04D
:1071800061FD08230DEB03003022214608F06CF866
:10719000114A1248009402AB1D21ADF8204008F0BE
:1071A0007DF81D2009F06EFDFFF7AEFE20460EB003
:1071B000BDE8F0810220FAE700100E40E034002024
:1071C00008600C4024600C4000000E4020500C4031
:1071D000116E040098340020156F0400B4340020B0
:1071E000024B5B68588880B2704700BFE0340020D3
:1071F0000349044A0220086013689B07FBD47047C8
:107200002C500C4024500C400A4B5B6807B5002200
:107210005A801D2009F036FD09F0E9FC0190FFF7C6
:1072200073FE054B019804221A6003B05DF804EB6D
:1072300009F0E3BCE034002018600C400A4B01EB7D
:1072400080005B6953F82030C3F30B001B0B13F075
:10725000FE0F1EBF054BC05A20F0010000F1804018
:1072600000F56020704700BFE0340020FCFF0D40B7
:107270000121FFF7E5BD7047F0B5454B15461A787B
:1072800085B082B94C070ED501221A70414B0FCB45
:107290006C4684E80F004048214604F013F93F4B48
:1072A000186005B0F0BD11F001045BD03C4A3D4FC1
:1072B0003D4E3A4C00233B701370337003F022F8BC
:1072C0002A88B2F5C15F4FEAD07307D043F60701B1
:1072D0008A4217D040F602018A4225D1EA7B520643
:1072E00022D0206800221C217BB104F08FF93222C9
:1072F00020681D2104F08AF92F2220681E2104F045
:1073000085F9CEE795F82420E9E704F07FF900221B
:107310001D21206804F07AF9206800221E2104F063
:1073200075F901233370BCE7206853B12F221C216B
:1073300004F06CF9322220681D2104F067F9002264
:10734000DBE700221C2104F061F900221D212068E6
:1073500004F05CF9206800221E2104F057F9012393
:107360003B709EE78B079CD50E4B0C4D1C705C70E0
:107370009C7022461C21286804F048F922461D21F1
:10738000286804F043F9286822461E21B7E700BFA9
:10739000584100201C2C05003435002030350020D9
:1073A0001D2002401C2002401E20024070B50446F1
:1073B0000D461646FFF75FFF324629462046FFF787
:1073C0005BFF70BD70B500220E461421044604F028
:1073D00035F8072500220A21204604F02FF846FA46
:1073E00005F202F001020921204604F027F80122EB
:1073F0000A21204604F022F808200AF0CAFD013DC7
:10740000E8D200220A21204604F018F82046012282
:10741000142104F013F8BDE870404FF42F700AF007
:10742000B8BD000010B5104A92E8030086B001AB69
:1074300083E80300194603A804F044F8002214214D
:10744000044603F0FBFF01200AF0A3FD01221421F2
:10745000204603F0F3FF4FF40C700AF09AFD20462B
:1074600003F0ACFF06B010BD2C2C050030B50B4D61
:1074700089B0FFF7D7FF0FCD03AC0FC42B68236093
:1074800003A9684604F01EF8B9210446FFF79AFFE5
:10749000204603F093FF09B030BD00BF342C050037
:1074A0007047000008B504F0E7FA054803F044FE11
:1074B00000B1FEE7FFF7DAFFFFF7F2FF08BD00BFFC
:1074C000AC2E05004FF0FF311720FFF7B7BD0000CD
:1074D00010B5074A002313601846FFF7C5FDBDE845
:1074E000104000234FF0FF3201211720FFF766BD47
:1074F00004000940064B074A18605960136843F4BA
:10750000A0231360044B21221A6061221A60704785
:10751000202009401420094008600C4013B5019058
:10752000FFF704FD094B01990446043353F8040C9A
:107530001B681B0C43EA00400830FFF7DBFF2046C6
:1075400002B0BDE81040FFF7F3BC00BF08200940BF
:10755000144B2DE9F041144F93F80080002918BF17
:107560000F46B8F1000F0ED0104C05460026B5426C
:107570000DD02368DB699847284208D10136B04511
:1075800004F10C04F3D100231846BDE8F081236810
:1075900039465B682046984723460028EED01846B7
:1075A000BDE8F081002F05007C320500E82E0500C3
:1075B00003230370704700BF10B103689B6818472E
:1075C000704700BF70B108B410B585B008AB04684F
:1075D000009303932469079BA04705B0BDE81040C2
:1075E00001B07047704700BF10B103689B6918472E
:1075F0004FF0FF30704700BF10B103685B69184758
:10760000704700BF38B5084B1D785DB1074C05EBDE
:10761000450504EB8505236820461B680C34984714
:10762000AC42F8D138BD00BF002F0500E82E0500A0
:10763000704700BF0048704700001080F0B5D0E9E7
:1076400001460D4689B0074603F0D8F902F0ECFF79
:107650002B7884F820303079002103F035F9B068B8
:10766000431C04D0C0B24FF4002103F02DF94FF4B5
:107670000021307B03F028F9684603F01DF8254B04
:1076800030780493694602F0F5FF0546E061002872
:1076900039D06FF07F430022C4E90D32012007F09A
:1076A00097FA0546E063002830D04FF0FF3107F02D
:1076B000B1FA7168E06900F0FFFB7369164A308A1D
:1076C000718A2364A362102322636362E085A1852B
:1076D000204604F1240106F033FD616B204606F0DC
:1076E00088FDA16B204606F05DFD0C49204606F0A2
:1076F0006EFD204606F09DFD204606F08DFDE06BF8
:1077000007F090FA3D46284609B0F0BDE06902F066
:1077100087FFF8E740420F00C0320500F03E050049
:1077200010B544684FF0FF31E06B07F073FA00B119
:1077300010BD204606F07DFD204606F06DFDE06B95
:10774000BDE8104007F06EBA70B50129446888B0F2
:1077500007D020292BD0B9B16FF00105284608B019
:1077600070BD03464FF0FF31E06B9E6807F052FAA0
:10777000002841D1E5698DB34FF0FF35E06B07F08C
:1077800051FA284608B070BDE06B4FF0FF3107F0AA
:1077900041FA064680BBE0690028EDD002F040FFC8
:1077A0003146304600F088FB3546E661E6E7E06B9F
:1077B0004FF0FF31164607F02DFA0546E0B996E87E
:1077C000030004F1340383E803002046616B06F0F4
:1077D00010FDA16B204606F0E5FCCFE7684602F0FD
:1077E0006BFF074B30780493694602F043FF7168E2
:1077F000E06100F061FBC1E74FF0FF35AEE700BF8D
:1078000000093D0010B54468A369A0899B788A42AD
:1078100038BF0A4682B002FB0332013A11FB03F380
:10782000ADF80400A16BADF8062020460022ADF8AB
:107830000230ADF8002006F0DCFC2046694606F078
:1078400084FD616B204606F0D4FC204606F0E4FC83
:1078500002B010BD2DE9F041466888B00C46F06BCF
:107860004FF0FF3115461F4607F0D4F948BBB36906
:1078700096F820105A789B7812FB05F5013513FB1A
:1078800004F40229EDB2E4B23FD0032939D0012932
:107890001AD00DF108080E9B3A461721404607F012
:1078A0000BFA01222B464146019230464FF0FF323F
:1078B000009406F0FEFD304606F0AEFCF06B07F0DB
:1078C000B1F908B0BDE8F0810246AC466245E0D0AF
:1078D000013BB16BADF80820234430460DF1080898
:1078E000ADF80E30ADF80CC0ADF80A4006F081FCE2
:1078F0004146304606F029FD716B304606F079FCB2
:10790000C9E796F80CC00246E0E796F80CC02A4694
:10791000DCE700BF70B5D0E901564FF0FF31E86BEE
:1079200007F078F900B170BD04462146307B03F0C2
:10793000E3F8E86902F074FE2046EC61214600F0AD
:10794000BBFAE86BBDE8704007F06CB9704700BF48
:10795000704700BF6FF00100704700BF4FF08040DC
:10796000704700BFF0B5D0E901568BB0044601A8BE
:1079700002F004FF00277368079301208DF805705B
:1079800007F026F9686070B102F0B0FE307801A906
:1079900002F0D2FE286030B13A46042102F0A2FE85
:1079A00020460BB0F0BD00200BB0F0BDF8B5D0E91B
:1079B00001647068A168069F1D4607F02BF900B1AD
:1079C000F8BD218AE0683B462A46023907F074F97F
:1079D000E5682846FDF7C4F80D232B54E3680344FB
:1079E0000A225A70E168821C306802F0D5FE706885
:1079F000BDE8F84007F016B910B54468206802F0F9
:107A00006DFE002360682360BDE8104007F0F6B803
:107A1000704700BF30B44568408973B9C308C810C7
:107A200002FB030001F007012B5C802242FA01F106
:107A300023EA0101295430BC7047C308C81002FB77
:107A4000030001F007012A5C802343FA01F111438E
:107A5000295430BC704700BF30B44489BDF9085088
:107A600043680498E408C91002FB0412EC10002CCF
:107A70001A4408DD002301339BB210F8011B02F801
:107A8000011BA342F7DB1478017805F00705FF23FB
:107A90002B4123400B43137030BC70472DE9F0435A
:107AA000D7434489D0F80480BDF81C004FF0FF0C88
:107AB00001F0070E07F00707C2F3CF02C1F3CF01B1
:107AC0000CFA07F74CFA0EFE9142FEB25FFA8EF9FD
:107AD0004FEAD40433D003FB041408EB040518F870
:107AE0000430B0B1571E49EA0309B94208F80490BE
:107AF00005F1010536DA60462A4602F8010B5318F3
:107B00005B1B9BB2BB42F8DB13781E431670BDE8CB
:107B1000F083561E23EA0E0E0135B14208F804E048
:107B20002A4606DA02F8010B53185B1B9BB2B342DC
:107B3000F8DB137823EA07071770BDE8F08303FB2F
:107B4000041309EA060618F8039028B929EA06067C
:107B500008F80360BDE8F08346EA090608F8036008
:107B6000BDE8F0832A46CFE7F0B592B201F00704F2
:107B700080279A4247FA04F7BDF814C04468408948
:107B8000C1F3CF0119DC5FFA87FEC008FF4306E0AE
:107B9000A55D013292B23D409A42A5550DDC02FB33
:107BA00000163546BCF1000FF2D0A65D013292B24C
:107BB0004EEA06069A426655F1DDF0BD2DE9F04F1A
:107BC000B1F90460B1F90050D0F80480B0F80A901F
:107BD000F3434FF0FF0C05F0070403F00703C6F36F
:107BE000CF06C5F3CF050CFA03F34CFA04F4B54203
:107BF00085B05FFA83FB5FFA84FA47D04F88B1F90A
:107C00000600B8422ADBE043DB434FEAD909013ED4
:107C1000029003934FF0000E07FB095308EB030497
:107C200018F803000194E2B9029C2040019C08F876
:107C300003000134AE42204606DD00F801EB431993
:107C40001B1B9BB2B342F8DB0378039C23400370F9
:107C5000B1F906300137BFB29F42DDDD05B0BDE8A6
:107C6000F08F019C4AEA00000134AE4208F803009C
:107C7000204606DD00F801CB43191B1B9BB2B34223
:107C8000F8DB03784BEA03030370E1E7B1F9023054
:107C90004FEAD90909FB03590AEA0B0A18F8093017
:107CA00032B923EA0A0A08F809A005B0BDE8F08F46
:107CB0004AEA030A08F809A005B0BDE8F08F00BF42
:107CC000081E18BF012070472DE9F04F374E33686A
:107CD00083B0002B67D0364B364A1B78364C0546AE
:107CE00083F0800310788DF8073001216F6802F06F
:107CF00003FF0A2006F004FF0DF107082146306853
:107D00004FF00109C4E9009802F0E4FC2B496B89AB
:107D100000220A70A3B3DFF8A8A00820A34603E05E
:107D20001AF800001AF80220C4F8048042EA00128F
:107D300001235946306823608DF8072002F0CAFC01
:107D40002A8930686760D2085946226002F0C2FC76
:107D5000B5F808C03068C4F80480002201235946F1
:107D60008DF80720236007EBDC0702F0B3FC6A897B
:107D70004A4509F1010909F00F00C9F30312CFDCEC
:107D800001230D49306823600025C4F804808DF874
:107D9000075002F09FFC0A2006F0B2FE054B294670
:107DA000187802F0A9FE03B0BDE8F08F80410020F2
:107DB000241D00207C4100208441002079410020C6
:107DC000E03205002DE9F047DFF8E480D8F8003014
:107DD00082B0002B4AD0334BDFF8D8901B78324F5B
:107DE00083F0200304460E4699F800008DF8073012
:107DF000012102F081FE0A2006F082FE0DF1070546
:107E000039464FF0010AD8F80000C7E900A502F092
:107E100061FC264B7D6039460025D8F800001D70B6
:107E2000C7F800A08DF8075002F054FC0A2006F0B5
:107E300067FE99F80000294602F05EFE63896068DB
:107E4000BEB99BB1228935463146D60818BF0023FA
:107E500008D000F8011B013322899BB2B3EBD20F8B
:107E6000F7D363890135AEB2B342EED802B0BDE8B4
:107E7000F087002BFAD022892946FF25D60818BFA3
:107E8000002308D000F8015B013322899BB2B3EBD9
:107E9000D20FF7D3638901318EB2B342EED802B06C
:107EA000BDE8F087241D0020844100207941002096
:107EB000804100207C41002030B4054B054D064C2C
:107EC000286000222160C3E9012230BC1A6070479B
:107ED00084410020804100207C41002070B50D4687
:107EE0001446B1FA81F1B2FA82F24909520920B17D
:107EF00034B190F8443033B91A4601EA020070BD3B
:107F000015B90122F9E7BDB195F84430002BF4D042
:107F10002B6C466B2D699B08C3EB96030669AE423A
:107F200014BFF56800255B1B03F18053B3F1805F3C
:107F3000E3D90121002CE0D0E3681B7B03F00F03A1
:107F4000022BDAD1656B036C24690069A04218BF6B
:107F5000E0684FEA930308BF0020C3EB95031B1AA8
:107F600003F18053B3F1805F88BF0122C5E7002091
:107F7000704700000A4B1A68936802F130001946F6
:107F80005B680BB18342FAD14B7B190706D1508E47
:107F900040F60903C31A5842584170470020704701
:107FA000404500200A4605494B6833B189680842BC
:107FB00003D001460248006818477047502F05005B
:107FC00040450020704781B38B01090E202923F022
:107FD000FF0319D0212919D0A02919D0D1B1102916
:107FE0001AD011291AD040291AD050290CBF80224A
:107FF0009022134343F00F03014650F8042BB2F1D3
:10800000FF3F0FD10B6070471022F2E72022F0E70C
:108010003022EEE74022ECE75022EAE76022E8E770
:108020007022E6E79A42E7D1ECE7704791B38B0103
:10803000090E202923F0FF021BD021291BD0A029E3
:108040001BD0E1B110291CD011291CD040291CD013
:1080500050290CBF80239023134343F00F030146A4
:1080600050F8042BB2F1FF3F11D14FF0FF330B60FA
:1080700070471023F0E72023EEE73023ECE740239E
:10808000EAE75023E8E76023E6E77023E4E79A4253
:10809000E5D1EAE7704770B5044616461D4606F07E
:1080A00059FD5CB1D4E90A2332432B43C4E90A23C6
:1080B000D4E9082332432B43C4E90823BDE87040C8
:1080C00006F06EBDF8B5184D044606F043FD95F870
:1080D0002430064623EA04002C6885F8240024B1E5
:1080E00004F1B00006F0F8FC0446686820B1B03036
:1080F00006F0F2FC0443E4B295F824307BB974B97D
:108100002B6A63B15A6A920709D530461F6A06F096
:1081100047FD286A22460221B8472C62F8BD304646
:10812000BDE8F84006F03CBD9C4100200720FFF769
:10813000C9BF10B50129044638BF012106F0DAFC99
:108140002046BDE8104006F0D7BC2DE9F041DDF82F
:10815000188004460E4615461F4609F0B1FE0E284B
:1081600003D009F0ADFE0F2869D12388B3F5C15FB4
:1081700016D043F6060293421BD040F60202934209
:108180004FD104F11203336063692B60A3693B6034
:10819000E369C8F80030E57B247C04F0070416E0AE
:1081A00004F11203336063692B60636A3B60A36A66
:1081B000EFE704F11A033360E3692B60236A3B6045
:1081C000636AC8F80030247E002504F0070438688C
:1081D00080B105234FF6FF7240F2037102F015F9EA
:1081E000042807D806B2214628463F6802F020F945
:1081F00047F82600D8F8000088B105234FF6FF7233
:1082000040F2037102F001F9042808D804B2FF21FA
:108210002846D8F8006002F00BF946F82400012047
:1082200022E004F11A033360E3692B60A36A3B6028
:10823000E36AC8F8003094F82450247EADE7238820
:10824000B3F5C15F07D043F6060293420ED040F665
:10825000020293420AD104F11203336063692B6076
:1082600000203860C8F80000BDE8F08104F11A036E
:108270003360E369F3E7000070B5144E14483569C4
:1082800002F0F6F8134A136814680440184010F01E
:1082900020030AD04DB128460022B561FFF7FBFE4E
:1082A0000D484FF4804106F0F5FC14F460240CD026
:1082B0000A4A0B4892F8613043EA544482F861401C
:1082C000BDE87040002106F0E5BC70BD10450020FF
:1082D00020000E000C10044024460020A045002081
:1082E00058460020064B70B55C68064B1D6806F0CA
:1082F000CFFC234601462846BDE87040184700BF22
:108300003045002040450020074B1B6803F4402304
:10831000B3F5802F01BF054B186880F40030C0F31F
:10832000404018BF00207047B44F00508C130050DD
:1083300070B5002286B00146CDE90222CDE90422C3
:10834000467DFFF7E1FF0546886803884280B3F564
:10835000C15F48D038D840F60202934243D0002390
:108360004B7505AB009303AA04AB02A9FFF7EDFE22
:10837000002848D0029B1A884FF6FF739A4242D1D8
:1083800005990398FFF71FFEE5B1039D002D3FD02F
:1083900050234FF6FF720B21284602F036F84F2883
:1083A00004460FD804F0BCFF09F092FE194B186088
:1083B000194B1B68DB68984724B2000440F00B009F
:1083C00045F8240006B070BDA3F56053063B012BB1
:1083D000C5D8437E62F382034376038B8EB162F38A
:1083E00009130383BBE7437C6FF382034374038A5F
:1083F0001EB16FF309130382B1E72D2262F3091353
:10840000F9E72D22EBE705990398FFF70FFEBBE78D
:10841000FEE700BF44450020E0010010064B1B783A
:10842000022B07D1054B1A6922B95869B0FA80F0BE
:10843000400970470020704730450020104500205B
:1084400008B50F4B19420FD00E4B1B6801201B685B
:108450009847012809D10C4B0C4A5A600C4B00225A
:108460001A600C4A43F81C2C08BD06F02DFB322183
:10847000BDE80840B1FBF0F10748FFF75ABE00BF66
:1084800004000020E0010010304500201595040094
:108490001C100440084600200842002008B54FF098
:1084A000FF3001F067FF830706D5BDE808400348A9
:1084B0004FF4006106F0EEBB08BD00BF244600206B
:1084C000042838B504461AD10E4806F005FBB0B1B1
:1084D00006F0FAFA05460B4806F0FCFA6843B0F5D8
:1084E000967F0CD2074806F009FB052003F014FA2A
:1084F000054B0648012221465A7306F0CBFB0020AB
:1085000038BD00BF0842002030450020244600202E
:10851000F7B51D46FD232E688DF807303246044618
:10852000FFF7DCFC10B101238DF807309DF8073010
:10853000FD2B10D1E3681B7B03F00F03022B0AD144
:108540004EB1376831463A462046FFF7C7FCB8B10E
:1085500002238DF807309DF80730FD2B04D1E36B23
:1085600013B104238DF807309DF80730012B5FB25B
:1085700008D12146284602F061F9384603B0F0BD23
:108580003E46DDE7022F06D0042FF6D121462846CD
:1085900002F03EF9F1E73268002AF7D0214628467A
:1085A00002F01EF9E9E738B50C46054606F0D2FAA6
:1085B000236800241BB906F0F3FA204638BD1A6977
:1085C000954208BF1C461B68F4E700002DE9F74FF1
:1085D0009946224B1C6807460D469046002C36D023
:1085E000AC42236837D1DFF874A02E4600240AF18C
:1085F000080B314636680B699F4223D1084600229A
:108600004FF080530191FFF746FD0199B9F1000F3A
:108610000FD000224FF080730846FFF73CFD104B4F
:108620002A691A6293F82420019942F0010283F822
:1086300024205046019102F017F90199584602F0A2
:10864000E7F80134B8F1000F01D0002ED1D1204657
:1086500003B0BDE8F08F1C46C0E700BF1045002006
:108660009C4100200E4BF0B54FF0580C00241E46E4
:10867000B3F930708F421D4609D11F69B84206D147
:108680005AB10CFB046797F83370174205D10134D7
:10869000082C03F15803EBD100252846F0BD00BF9C
:1086A000504200202DE9F843D0F8A06004460D4662
:1086B0009146984606B1B047D4E9262302EA090656
:1086C00003EA080756EA07031BD080222946204602
:1086D000FFF7C8FFC4E92A6750B1D0E9082323EAAD
:1086E000070322EA0602C0E90823D4F8A030836019
:1086F0000023C4F8A03004F14800BDE8F84306F0B8
:1087000091BABDE8F88370B55023144640F2FF32A9
:1087100005460E4601F079FEFF280CD0A2022B2E52
:1087200018BF42F40A7203B20CBF42F02B0242F0AF
:10873000030245F8232070BD70B5002386B0CDE953
:108740000233CDE9043305AB0E4600931546C1F361
:10875000150404AB03AA02A9FFF7F7FC002E23DBE4
:10876000029BD0B1049880B1059A72B11C80224658
:1087700040F22B21FFF7C7FF05990398FFF756FC3E
:1087800015232B80049B6B600CE019884FF6FF7259
:10879000914202D1032006B070BDA4B21C80102308
:1087A0002B806C808320F6E70028F3D0049B8BB1EC
:1087B000059878B1029B4FF6FF721A802B21224652
:1087C000FFF7A1FF05990398FFF7FDFB15232B8009
:1087D000059BD8E7039822462B21FFF794FFFF283B
:1087E000D8D0029B4FF6FF721A8014232B806C6046
:1087F000D8E7000038B5154B1B685A68D2E9013438
:10880000D568D8B104B9EDB1114A00211160114900
:1088100042F81C1C0BB101F0F7FD04B9A5B10C4BDB
:108820001A68002AFCD000221A6004B1A04705B1E2
:10883000A847BDE83840084801F0A4BD002BECD0A3
:108840009847EAE7002BE6D138BD00BF404500203D
:108850001C10044051000706010007068B002DE99B
:10886000F04105467ED50020FFF7C4FF3E4C3F4A4D
:108870003F4E4049002340F60A0833601160A4F8D7
:1088800000806380227B63F3030222736360637B57
:10889000012262F3030328466373FFF749FDAF68C3
:1088A00041463B4698465B6833B11A888A4203D0FA
:1088B000A2F60302012AF5D898F80D30C8F8044052
:1088C0006FF3030388F80D302B4B1B681BB3DB6879
:1088D0001B88A3F603039BB2012B1CD8274B002255
:1088E0001A603368002BFCD0254C00233360254BE5
:1088F0006360637B2BB303F0CDFA0028FBD003F059
:10890000EDFA00233360194B39461F600120BDE8A2
:10891000F041FFF747BB2B8E002BE2D0AB8F23F447
:10892000706305F1300123F00F0343F4807361603D
:10893000AB87637B002262F303036A866A63637317
:10894000CFE7114B1B6801201B6898470128D8D03E
:1089500098F80D30012262F3030388F80D300B4BB9
:108960006360CEE7BDE8F0810846002000100440B7
:108970001C10044001010E04104500202046002078
:108980003045002015950400E001001041840400EA
:108990002DE9F74F04469DF830B001920D461E4672
:1089A0004FF00008E2B94FF0005906F0D3F86A1C06
:1089B000824621D13D4A11691346A1B109698C4211
:1089C00011D11769002F6ED097F833301B061AD4D7
:1089D0000424504606F0E4F8204603B0BDE8F08FCA
:1089E0004FF08049E1E75A6912B11269944201D00F
:1089F0001F68E7E75F69E5E7002229462046FFF7A1
:108A000031FE0746DEE7294B1A69BA421D4602D0FD
:108A10005B69BB4233D1286942464B46FFF73BFBBB
:108A2000686942464B46FFF736FB2148214B019AC5
:108A3000002A08BF184601F0A5FCBBF1000F14D0B6
:108A4000286900224FF08073FFF725FB00224FF0CA
:108A500080736869FFF71FFB174B3A691A6293F836
:108A6000242042F0010283F824200EB98324B0E7C9
:108A700029685B4601222046FFF7A8FDF6E75B4622
:108A8000324639462046FFF7A1FD0028A0D00B4B07
:108A90001A78012AEAD01B78042BE7D00849094844
:108AA00006F0F8F8E2E7032493E700BF1045002042
:108AB00001000204010001049C4100203045002017
:108AC000020000402446002010B5044606F042F89B
:108AD00004490A7842EA04030B70BDE8104006F02E
:108AE0005FB800BF9D4500202DE9F843244CDFF816
:108AF0009C90244FDFF8988000252646A07A012814
:108B00001FD194F90930113300FA03F3DA43C9F89D
:108B100000203A6813433B6094F909309840C0B292
:108B2000FFF7D2FF98F80030022B1AD104F11000A1
:108B300001F028FCC0B2012813D1A06940B902237A
:108B4000A3720135032D04F12004D7D1BDE8F883C9
:108B500098F80030022B04D101F014FCC0B20128B7
:108B6000EDD094F9091096F86120074811238B4045
:108B70001343DBB2002186F8613006F08BF8E0E7A2
:108B8000A04500200C100440584600200810044066
:108B90003045002038B5054605F0DCFF084B1A7853
:108BA000044622EA050018701B781B0703D4054809
:108BB000082106F06FF82046BDE8384005F0F0BF08
:108BC0009D45002024460020054B9A8BDB8B12B27A
:108BD0001BB29A4202D10820FFF7DCBF704700BFEA
:108BE000104500202DE9F8434B4EB468002C00F0EE
:108BF0009180E36809229BB1013A12F0FF020FD085
:108C00001988A1F6030189B201296BD8226903F101
:108C10001801303253F8040B42F8040B8B42F9D19F
:108C200000230022D4E90A01C4E90A23A368CBB1D6
:108C30004FF0000801F0E24958EA090354D020F04F
:108C40000F0221F0E24352EA030104D0A568B4F90F
:108C500030102069A847A568B4F930102069424651
:108C60004B46A84705F076FFF38B0133C3F30B03A4
:108C7000F38300254FF6FD732386074684F83350AF
:108C8000264801F099FD384605F08AFFF28BB38B38
:108C900012B21BB29A423DD1214BD3E90076214B4F
:108CA0001B6893F8F430AB420CBF05200720FFF798
:108CB00009FAF7B197F8F430CBB93C68002387F88C
:108CC000F430D6B196F8F430ABB93168002386F8A9
:108CD000F4308C4238BF0C468CB92046BDE8F843CE
:108CE000FFF772BF5B6886E780468946B3E72C468C
:108CF000E4E73C46E5E70021E8E73146E9E7631CA5
:108D000008D005F0E1FEB4FBF0F1BDE8F8430648F9
:108D1000FFF70FBABDE8F883104500201845002082
:108D20009C41002040450020C4410020F8B5044685
:108D300005F010FFA37A0546002B33D01C4994F9A7
:108D400009200968012303FA02F0CE07C0B20DD54D
:108D500018490968090609D5174E11323168934040
:108D6000DA4321EA03033360144B1A600023002620
:108D70000027C4E90033C4E90467114A94F90910D3
:108D8000A3722372A36101238B4092F860100B43FE
:108D900082F8603092F8623013B1013B82F86230A1
:108DA000FFF7F8FE2846BDE8F84005F0F9BE00BF21
:108DB00040210840000004400C100440081004400A
:108DC000A04500202DE9F0432D4C94F8613085B08A
:108DD000002B3ED0002594F861302B41DB0748D5AD
:108DE00094F8616005F0B6FE94F861301122AA4053
:108DF00023EA020384F8613005F0D2FE04EB451249
:108E0000F6B2937A680123B3102303FA05F592F9B9
:108E100009101C4B54F8008057680B449B003540E8
:108E2000D3F8009008D1137A022B05D116692B468E
:108E300006F08052134316D120440391FFF776FFCA
:108E4000039985B10023009300224FF00073404640
:108E5000B84794F8613083B10B48002105B0BDE8F4
:108E6000F04305F017BFCDF8009000224FF00063EB
:108E7000EDE70135032DAED1EBE705B0BDE8F0839A
:108E8000A0450020250C01105846002010B505F023
:108E900061FE134A11780229034602D01278042A8F
:108EA00006D1104A1846146805F07AFE204610BD17
:108EB00005F076FE0C4B0D4C1B681B6B984710F5AC
:108EC0000030A0FB042341F1000104FB01330849F9
:108ED000086900210446891843EB0404E6E700BF53
:108EE00030450020043004408C01001000093D0092
:108EF00008460020264B70B51B680546002930D176
:108F0000002B30D002B11360DA68127B02F00F023E
:108F1000022A37D151B31A69148DD2685E6B14449A
:108F2000FFF7B4FF04F57A72301AB2EB900F4FEAF4
:108F3000900325D2B0F1404F22D21C1B012C38BF28
:108F400001242C6005F0C0FD2B68B3FBF0F0286015
:108F5000012070BDD868007B00F00F00022814D0FB
:108F60001B68002BF6D100202860F2E71A69094936
:108F700091F862001169D28A192414FB0014CDE71C
:108F80000024DEE700232B60E2E7002ABBD1C2E722
:108F900010450020A04500202DE9F043624D85B02A
:108FA0002E68002302930393002E32D06B690BB915
:108FB0002B69B3B12C69ACB12B691A6933699A4238
:108FC00040F0B08096F8334014F010040AD02B69BA
:108FD000DB685B88002BFAD02B69DB685B88012B90
:108FE000F5D0012484F0010802AA414603A8FFF746
:108FF00081FF002800F08C80002C40F088800399CD
:10900000002900F085804948FFF793F805B0BDE8D6
:10901000F0830221464805F03DFEF7E700287ED0A8
:10902000039F002F7BD1029B28696969CDE90083EA
:10903000404BA3F10802C84701280CD0022815D1E3
:1090400028692B69B3F930100123009300693A466F
:10905000FFF79EFCDAE7029B002B18BF1E463A463C
:10906000B6F93010009030693B46F1E7002CCDD0C6
:109070002046314B32691B689A4202D04FF480611E
:10908000C8E748B1039B3BB12B692BB96B691BB98E
:109090000820FFF77FFDB9E70820FFF715FD96F8D8
:1090A00033302148DB0626D501F086FB6861D6E91E
:1090B00006232249F468D0430860486802434A60A6
:1090C0001F4AD943116051680B4353603146082051
:1090D000FEF768FF204601F055F92388B3F5C15F1C
:1090E00004D00CD840F6020293420DD12146012053
:1090F000FEF758FF08E001F05FFB2861D7E7A3F512
:109100006053063B012BF1D94FF0804182E72046A6
:109110000C4BD3F80490B9F1000F7FF47FAF002C13
:10912000A7D173E700245DE7104500200842002026
:10913000244600201845002040450020101004401F
:1091400008100440F03205002DE9F04F384B85B08F
:109150004FF4804000930433019301F00BF9A8B160
:10916000344B354C1B682068002163F31501334BE9
:1091700080681B78C3F3800363F3DF7102AAFFF7F3
:10918000DBFA236801209968FEF70CFF0027DFF85F
:10919000BC90DFF8BCA0E8463D4658F8044B236875
:1091A00073B32368986901F0E5F84FF0000B0646A9
:1091B000324620685B46FEF76EFF16F00A0F2ED08F
:1091C0002268D9F80010926922F4804222F002024B
:1091D00021EA0202C9F800202168DAF80020C969F2
:1091E00022EA0102CAF8002021681020FEF7DAFE08
:1091F0002168134801F00CFB45F00205C4F800B0EB
:109200005FB11DB10F48294605F044FDFFF76CFC26
:10921000FFF7C2FE05B0BDE8F08F0127BDE7002EC5
:10922000EED0094A2368936145F48045E8E700BF22
:10923000204500209803002140450020850300219F
:10924000184500202446002010450020141004403A
:109250000C10044038B5114D4FF0FF3001F08AF882
:109260006A680F4B9A4204460DD10E490E480022FF
:1092700005F078FC02232B70FEF77CFE18B9FFF78F
:1092800033FCFFF789FE094B1C4206D0BDE838408D
:1092900007484FF0005105F0FDBC38BD30450020B7
:1092A0001595040049910400644500200200004027
:1092B000244600202DE9F04F002485B004600646C6
:1092C0002246214603A8FFF715FEDFF8B0A0DFF81D
:1092D000B08083464FF0FF35204627464FF01909EE
:1092E0009AF80A2052B39AF80820022A41D0D8F8F6
:1092F0000010224BCA8A096993F86200DAF8144018
:109300000A4419FB00220192FFF7C0FD019A201ABE
:1093100002F57A71B1EB900F4FEA90041ED2B0F1D2
:10932000404F1BD2A41A012C38BF012405F0CCFBFE
:10933000B4FBF0F4A54228BF254601200137032FD6
:109340000AF1200ACCD1BBF1000F0BD078B1039BFE
:109350009D4228BF1D463560012005E00024E5E759
:109360000025F4E70028F6D105B0BDE8F08F039D95
:10937000F1E7BBF1000FF3D15D46ECE7A04500201B
:109380004045002013B5154B1A78022A04D1192044
:1093900005F0E6FB02B010BD1A78012AFAD01B785E
:1093A000042BF7D005F0D6FB044601A8FFF782FF97
:1093B00078B101990A4829B1FEF7BBFE204605F0B5
:1093C000EFFBE7E705F09AFB0648042105F062FC95
:1093D000F4E7034805F092FBF0E700BF30450020BA
:1093E000084200202446002037B511F002020C4646
:1093F00011D0FFF7F7FB384B9B683BB1374844F07F
:10940000020103B0BDE8304005F044BC03B0BDE844
:109410003040FFF7B7BF61075BD5314B01920121A7
:109420000420197002F078FA2E4B2F4D1B681B6B2D
:1094300098472E4B1860284B1B687BB11C692B6822
:109440005BB19C4209D0636A5B0704D5236A019A29
:10945000042120469847012363752C602B68244C17
:109460005B681A78234B02201A6002F055FA11202B
:1094700002F0BAFB012222701F4A927812B90E2024
:1094800002F0B2FB2B685B689A680AB9DB682BB103
:109490001A4B00221A601A4A43F81C2C194B072257
:1094A0001A60194A00211368184B11601868196076
:1094B000136843F0402343F0020313601A20144B57
:1094C000636005F04BFB192003B0BDE8304005F0A8
:1094D00045BB03B030BD00BF10450020244600202E
:1094E000A04600208C0100104045002020460020AE
:1094F00030450020D0210840502F05001C100440AA
:1095000051000706000004601410044018100440C5
:109510005D8804002DE9F04311F4804785B00546CD
:109520000C4634D005F016FBA64A9569034655B3A0
:10953000D5E90A8908F00A0609F0E04756EA070269
:1095400021D1D5E90A89D5E90A2323EA090722EAC4
:109550000806C5E90A6705F023FBAB684BB158EA7A
:10956000090306D0AE682869298E42464B4609B2E7
:10957000B04724F480441CB19348214605F08AFB8F
:1095800005B0BDE8F083184605F00AFBF1E78A0054
:1095900054D58E4A8E4E136843F08003136033789F
:1095A0001BB1042002F0AEF8377005F0D3FA894BF6
:1095B0001B6806461B6804209847F8B12B7DEBB169
:1095C000854BD3F80080B8F1000F17D0834B2F697B
:1095D0001B681B6B9847A0EB0802130BB7EB123FFD
:1095E00084BFDB195B082B612B6940F69802A3F559
:1095F0009673934284BF40F6C4132B61304605F046
:10960000CFFAFEF7B7FC60B14FF00073EE690022AD
:109610006FF480712846B0476A4B1B685BB1FFF757
:10962000B1FEAE6900224FF0806300212846B047AA
:1096300024F000549FE744F00204F2E711F0020224
:1096400008D0FFF7CFFA5F4B9B68002B94D124F032
:10965000020490E711F480667BD0019205F07AFA5B
:109660000546FEF7DBFE00286FD0564B1F68002F23
:109670006BD05B4B019A5B495B485C4E4FF0040832
:1096800083F8008005F06EFA284605F089FA5848FC
:10969000584D05F033FA514B1B681B6B98474C4BE8
:1096A000306001214046197002F036F938692860AF
:1096B000436A5B0703D5036A019A41469847012034
:1096C000FFF798F8286801234375FEF731FE2B68F1
:1096D000996840F60A0C0A461046526832B115885D
:1096E000654503D0A5F60305012DF5D8427B4FF063
:1096F000010C6CF303024273FA681288A2F60302AB
:1097000092B20025624545600BD835603A4B002285
:109710001A60012043F81C1CFEF744FC24F480640A
:1097200029E71A8E002AF1D09A8F5D8622F47062A2
:1097300022F00F0242F480725D639A8730334360F7
:10974000437B65F303034373E0E7284605F028FAFB
:10975000E4E711F4006753D01D4D2B781BB10420B2
:1097600001F0D0FF2E70FEF705FC40B1214B1868C8
:109770000022C5694FF000736FF48071A8471B4D3C
:109780002B685BB1154B1B681B6B98472A68194BFC
:10979000801A1B68000BD86000232B601749124801
:1097A000002205F0DFF90E4B02211970054B9B6872
:1097B00013B1054805F06EFAFFF7E4FD24F40064E8
:1097C000D9E600BF1045002024460020CC210840E7
:1097D000A0460020E0010010204600208C0100106F
:1097E000304500209D840400644500201C46002074
:1097F000C4410020404500201C1004404991040051
:109800000E0740F1BE8005F0A5F90646FEF706FEFC
:10981000002800F0B2805F4B1A78150700F1AD8088
:109820001B78180600F1A98003A8FFF743FD18B1C3
:10983000039B002B00F0A180574D95F86130002B61
:1098400040F09B804FF00108AB7A43B195F90900D5
:1098500085F80A8008FA00F0C0B2FFF79BF90137DB
:10986000032F05F12005EFD14C4D4D482F7005F029
:1098700045F9304605F094F94A4B4B481A680022E6
:109880001A6053F8081C43F8082C484905F06AF997
:10989000474B1B681B6B9847464BAA681B68C01A4E
:1098A000030B6FEA1030824298BF9B182A7B88BF57
:1098B0004FF0FF33AB6022B13F4A1268B3EBC22FC7
:1098C00024D93E4B1B68D9071CD53D4B1B681A0693
:1098D00018D53C4B40F609021A8000225A80597B69
:1098E000012060F303015973197B62F303011973BB
:1098F00035495A600A60354A13605A8802F440625A
:10990000002AFAD001232B730023AB6000F050FD36
:109910002F4B002119600220FEF744FB022001F0CA
:10992000F1FE112001F098FF2A4B1B7823B92A4B36
:109930001868483005F076F9284B9B7813B90E204B
:1099400001F08AFF6B7B23B1002305206B7301F0CC
:10995000D9FE234B6B6000232B70224BD88B9B8B43
:1099600000B21BB2984214BF02200720FEF7AAFBE8
:10997000FFF708FD24F00804FDE5304605F010F976
:10998000F6E74B007FF5F7ADFFF7FCFC24F08044D1
:10999000F1E500BF9D450020A04500203045002096
:1099A000C441002014100440644500205592040076
:1099B0008C0100102046002048450020402108402E
:1099C00000000440084600201C1004400010044021
:1099D000000004609C45002040450020502F0500F9
:1099E000E993040010450020054B5A68054B9A4244
:1099F00001D1FFF7C7BC0448042105F04BB900BFF3
:109A00003045002015950400244600202DE9F04F34
:109A10002DED028B83B0DDE90E5A06460F469046C7
:109A2000994605F097F808EE100A3B484FF0000BF6
:109A30004FF0580C0CFB0B0404F1330194F833E0A5
:109A40001EF0800F57D13548019105F057F8344882
:109A50000199B0F81CC084F832800CF1010CCCF3F1
:109A60000B0CA0F81CC0C4F80890B0F81CC0A4F8F7
:109A700030C025F0C04C2CF4805C4CF002020AF09F
:109A80002003C4E906234FF0FF32E2633A7BE7602C
:109A900002F00F0200254FF000084FF000094FF0D0
:109AA000800C022AC4E9125581F800C0256484F8AC
:109AB0004450656384F83850A4F85050C4E90889CC
:109AC0002661054604D1012284F83820BA68626311
:109AD000002286F8F4201248214600F099FE2A68F8
