:200000004343313378325231FFFFFFFF0301DFFFFFFF0100FF000000FFFFFFFF00010000F0
:2000200030303031388A02002C00FFFF03DFFFFF55000000010000000000000000000000DB
:200040000000000000000000000000000000000000000000000000000000000000000000A0
:20006000000000000000000000000000000000000000000000000000000000000000000080
:0E0080000001DFFF0000000000000000000093
:20010000003C01206DC9010039FB021039FB021039FB021039FB021039FB021039FB0210A7
:1C01200039FB021039FB021039FB021039FB021039FB021039FB021011FB021001
:200140002DE9F04F0746A848ADF1940D1F900FB1386810B91F9801F04CBA00241C94A34E83
:200160000F9621460B911E911D911B911991179118911A91159116910C9112911391149152
:200180002046109011907868102801F031823E68002E01F02C82BF49BF4D2091BF4C219503
:2001A000BF4B2294706D2393410880F0F6843E6B002E00F0EE8438461AF0D8FE041C40F0D2
:2001C000E5843868406D80080AD3386B90F85005012805D138460AF0A8FE041C40F0D684BD
:2001E00078680F2800F2AE84DFE810F0CE04D802D700C904A2008E006500C5042B00100014
:20020000C104BD04B904B504B304AF04386C0468384606F07FFC002840F0B484A07A0528A2
:2002200000F0B780072800F0B480082800F0B180062800F0AE800B2800F0AB80209C00F0AD
:20024000A5BC396C09683868897A0B2931D181690091C0690190D7F8B410386B4FF43F72EF
:2002600002AB091D12F084FE002840F08B843968386BC96900F5DE62009100F2347119F0E4
:2002800025FB002840F07E8416260298D7F8B450C7F8B860001DC7F8BC0010212970786822
:2002A000401C786038460CF0C9FD002840F06A84EDE0406D61E0384602F0DCFE002840F027
:2002C0006184F86E162840F06582396854310868800834BF04200C20D7F8902090420FD1EC
:2002E000786E00780E280BD17868401C78600868810818D338461DF069F83868406D12E06B
:200300000F9C3222803CE5E1386C00683968807A5431401E032809D90838012806D978689D
:20032000401C786008681E9C00F034BC086824E0386C0468384602F09DFE002840F02284F2
:20034000F86E162840F021827A6E10780C2817D13868406D81082CBF0C210421A37A0B2B34
:200360000BD1D7F89030386B5118521AD21818F099FF70B10F982F22ABE1209C00F00ABCF9
:20038000A07A052818BF072840F0FF810120C7F898007868401C786079E07D6E384602F020
:2003A00069FE002840F0EE83F86E162840F0ED813868406D4608700874D32878032817D0BF
:2003C000386BD0F8440524F0FFF8386B1099C0F84415386B0E4680F848653868406D46084A
:2003E00070085FD30C205EE0008FFFFF0085FFFF16F001020CBF04200C207B6E04A9C61841
:200400001B1803A821F048FC03980328C0F2AF81049B022BC0F2AB81396891F850208242F9
:20042000C0F2A58191F8511018468142C0F29F81B61C786E396F16F8014B801B4018844294
:2004400000F39C81386BD0F8440524F0BDF80120214624F0B1F8396BC1F844053D6BD5F8AF
:200460004405002808BF219C00F090833146224616F0A4FC05F5B76685F8484501201E9906
:20048000786030461DF0FEFC38461CF09FFF1E9878E3C0460094FFFF0081FFFF8091FFFFA8
:2004A000808FFFFF0420D7F890102630884200F265812878022840F0618107F10C0107F1CB
:2004C000080016F001060CBF04220C22AD182B46324621F0E1FB3868B96890F852208A42C6
:2004E00000F34581FA6890F85330934200F33F8190F850308B42C0F23A8190F85100904261
:20050000C0F23581386BA91C202200F2147016F055FC95F82260202E00F230813868406DAF
:20052000410848082CBF0C220422D7F890009219273282420CD349082CBF0C210421401AF5
:20054000801B262840F01A811E9C05EB060B16E0AA1992F8263092F8274005EB060B54EA63
:20056000032402D0042CC0F0098149082CBF0C210421401A801B001B282840F0FF809BF8E8
:2005800025809BF823009BF82490B8F1000F49EA002940F0E580484622F010FC396C086057
:2005A000386C0368002B00F0D480587A072803D0386B7949C0F8E016D7F830A0DAF85437DA
:2005C000CBB1C6B1F86A0168894514D14168884511D181688E420ED10C3005F123013246EC
:2005E00022F01AF838B90C207860384606F092FAB0B150226DE07868401C7860129BCAF83F
:200600005437F86AC0F80090F86AC0F80480F86A8660F86A2335324629460C3016F0CEFB13
:20062000FD6AFB683868296850F82300001F4668002E00F08C80B14200F10400F7D108465F
:2006400022F0BCFB39461A4620F088F800287ED1B8F1000F7BD1C5F80480002C0BF1280551
:2006600064D0A878EE7846EA0026301D8442C0F0858028786B7843EA00235B1E44D00A3BFD
:200680002DD0F53B0CD04FF601601B1A48D1012E58D12B79002B55D10120C7F8DC003FE035
:2006A000386C0068807A0B283AD1386BD0F8300523F08AFF386B1399C0F83015386B0B467A
:2006C000C0F83435386B3246291D1BF079FD38B3282204463846022120F0FCF956E2002E8C
:2006E0004CD02B79981BB0F1FF3F47D1681D4BB3401E10F8011F31F0010202D05B1EF8D14F
:2007000020E0386B81600BE03868406D10F4E07F18D0012E16D12979C0F38210884211D129
:20072000A41BAD19241F05F104050DD1D7F8DC0000287FF4ACAE3868406DC0F30110022839
:200740007FF4A5AE28221AE0032C8AD81BE02F2215E038460221502220F0BCF91F9C15E233
:20076000384602212F2220F0B5F9239C0EE238460221462220F0AEF9229C07E232223846E1
:20078000022120F0A7F9A64C00E2384602210A2220F0A0F9A14CF9E14F4B0200386886694A
:2007A00000F15401002E00F0CA8190F85220BA6090F85320FA6090F85060002E00F0BD818D
:2007C00090F851C0D7F8B43008681C46C0F340020D94614630461B1D23F015FB3B68DDF875
:2007E00078B0386B596D241DA41C5E4600F2F465890802D3D0F8442582B9D8699B692946F2
:200800000422984738B93B68D8699B692D1D1C222946984710B1002840F0B481386B2022F1
:2008200000F2F461204616F0C9FAF86A85682034102D05D3202D03D8386BD0F8543703B9B0
:200840005D4604F8015B4DB15846F96A0918097B6D1E00F1010004F8011BF6D13868416D4F
:20086000890819D3386BD0F84455002D04BF584604F8010B0FD090F8480504F8010B386B02
:20088000D0F8441590F84825204616F097FA386B90F8480524183868F96850F82150A246EF
:2008A000A41CD846D5F80090B9F1000F40F027813246FF2004F8012B08F1010504F8010BA6
:2008C000E9090AF8011B68008AF80000012304F8013BBBF1000F04F8012B5FD03868D7F841
:2008E000B4A0066CA51C04F10809934690460AF5407A307880BB554533D8AAEB050008F1E8
:20090000060181422DD83868D0F840805E4698F8000098B92EB358460A2305F8010BB21CD8
:2009200005F8013B110A05F8011B05F8012B330A05F8013B06F1060B2E7012E022F01EFAE9
:200940004188091209F80610807806EB0903B61C08F101085870DAE722F010FA002840F0D6
:20096000CA80D7F8B4201E995E46A019801C02F54072904211D8121A062A0ED300F8011B25
:200980000B2200F8012B00F8011B022500F8015B012300F8013B017006217618D7F8B42056
:2009A000DDF87880386B22F0D9F9A519AD1C02F5407200284ED1501B04284BDB012005F891
:2009C000010B434605F8013B386BD0F8303513B1D0F8343533BB386881690091C0690190C1
:2009E000386B521B05AB921EA91C0AF033FE05F1020978BB0599012023F0DEFD396BC1F859
:200A00003005D7F830A0DAF8300518B3059A494616F0D4F90598CAF8340511E00089FFFF1F
:200A20008086FFFF396BD1F83435501B801E1A46059382420ED8D1F83015A81C16F0BEF9A2
:200A40009DF8150005F8010B9DF814002870059800F104083A681E99526D4644A019801C11
:200A600012F4E07F19D0D7F8B42002F54072904213D8121A052A10D30A4600F8012B01214B
:200A800000F8011B00F8012B0D4600F8015B3968496DC1F3821101700521761805D0300AA5
:200AA00004F8010B2670A419641C16260D98D7F8B450C7F8B860241AC7F8BC40012129701C
:200AC0003B687868401C7860586D800802D338461FF029FE38460CF0B1F9002852D138687A
:200AE000406D8008FFF409AC38460AF01EFA00283FF403AC46E008F10208761CF9E6484657
:200B000022F05CF9396891F8513091F853200E9039461FF023FE70B90E9823F069F94FEAFD
:200B200029234BEA000004F8013B8346287808F1010804F8010B2D1DB4E61F9C00E0BA4C04
:200B4000086827E03868406D23E038461BF0BEFF1CE00F2019E0384614F06AFB12E038460D
:200B60001AF060F80EE0384611F0B8F80AE0384621F040FD06E0384621F072FA02E03846FF
:200B800021F05AFA044601E0012078603868406D00E01F9C4008C0F026857868102800F039
:200BA00021853E6B002E00F01D8538461AF0DEF9041C40F018853868406D80080AD3386B85
:200BC00090F85005012805D138460AF0AEF9041C40F009857868122800F20485DFE810F0E0
:200BE000FF04D804CA003C02930081005B00380222001300340230022C0228022602220224
:200C0000020502052002386C0068807A052876D0072874D0082872D0062870D00B2840F075
:200C2000A5846CE0386C0468384602F023FA002840F0F4813868406D800834BF04230C23B7
:200C4000F86E162824D1796E0878102820D1A07A0B2840F08B84D7F89020386BC918D21AF0
:200C600018F020FB90B93968386BC96900F5DE62009100F2347118F029FE002840F0CE815F
:200C8000384605F047FF002839D0C7E10F98C5E1C24C00F0A8BC04201626C7F8BC00D7F869
:200CA000B450C7F8B8600E21297078683C68401C7860606D800802D338461FF034FD384673
:200CC0000CF0BCF8002840F0A9813868406D8008C0F0A38138460AF028F9002800F09D816A
:200CE0009CE1386C0068807A052808D0072806D0062804D0082818BF0B2840F03784786860
:200D0000401C786089E1386C04210068C7F8BC10807A0B281DD115983E680690B1690091CA
:200D2000F0690190D7F8B410386B4FF43F7206AB091D12F01DF930B110F5CA4F1CBF169927
:200D4000C7F8BC106AE10699D7F8BC004018C7F8BC001620D7F8B460C7F8B8000C21317062
:200D60007868401C786038460CF068F8002800F0548153E13868416DC1F340022AB1396BA1
:200D800091F84865002E40F00B818669002E00F00281D7F8B430B868F96898461B1D23F046
:200DA00032F83B68D8699B6908F10404A41C042221469847002840F031813B68D8699B6902
:200DC000241D1C2221469847002840F02781386B08F10601202200F2147015F0EFFF386B5D
:200DE000D0F854671C340EBBF96A8E684EB13868066A36B1806AB04718B9386B0121C0F8D9
:200E00005417386BD0F8546786B97868FE6A401C78602021B1603B68F96AD8699B692022A7
:200E20000C31984750B1F9E0008CFFFF0C207860384605F06FFE002840F0F080F86A007AAA
:200E400004F8010BF86A826800F10C01204615F0B5FFF86A81684078641804F8010BF86A38
:200E6000007804F8010BF86A007904F8010BD7F8DC00A51C012810D1FF2005F8010B01264A
:200E800005F8016B179B05F8013B314605F8011B05F8013B2D1BAE1E00E01E9EF96A91F899
:200EA0006050A019801C002D08BF1E9810D0189900F8011B012200F8012B00F8011B154628
:200EC00000F8015BF96A91F860100170F96A05203618086821F072FF22F08AFFC8B1396B71
:200EE000D1F86017A019801C490838BF1E980FD3199900F8011B0B2200F8012B00F8011B52
:200F0000022500F8015B012300F8013B017006203618386CD7F8B4200068DDF87890807A93
:200F2000A519AD1C02F540720B281CD1012005F8010B4B4605F8013B386881690091C06929
:200F40000190386B521B08AB921EA91C0AF082FB48B99DF8210005F8010B9DF82000287044
:200F6000089800F1040916EB090605D0300A04F8010B2670A419641C1620A4EB0804D7F839
:200F8000B460C7F8B8000221C7F8BC40384631700BF054FF63E0D04C25E3C0460084FFFF8C
:200FA000D7F8B430B868F9681B1D079322F02BFF079C3868A41CC66A0794002E00F0D682AB
:200FC0002146491C0791D7F8D8500095D7F8A010406BD7F8D43001F22D3207A9B047E8B98A
:200FE00007981626001B0325401E2070D7F8B4100798C7F8B860401AC7F8BC0012230D7055
:2010000038467B600BF01AFF40B93868406D800803D3384609F089FF00B91E988046A8E102
:20102000D54CE0E238461BF051FDDCE20F20D7E2384610F053FE12E0384621F0DBFA0EE03D
:20104000384614F0F5F80AE0384619F0EBFD06E0384620F0F1FF02E0384621F001F80446B0
:20106000C1E2891C0A6807F1C600026089888180384614F06FFE002840F08682384612F0B5
:2010800018FAF96D08784E7846EA0026B6F5407F00F2DD813868406D800834BF05210D2166
:2010A000384689190BF00CFE041C40F09C823868406D800839BF1B98786706F10D00F867DB
:2010C000386B7C6ED0F8E03632462146384698473868406D450868082CBF0C200420B04232
:2010E00000F2B5812078012840F0B1816378002B40F0AD8168082CBF0C200420A278E17823
:2011000041EA0221711A884240F0A181680821D3786E01793D6B407940EA0120C5F83C056C
:20112000396B431CC1F84035796E8D7985B9CD7975B90D7A65B9481C0322093121F06CFA00
:2011400030B93868406D4508680803D30C2002E0239C48E20420241815F001020CBF042078
:201160000C20361A262EC0F0728107F1080007F10C01234620F090FDB868396BC1F8580715
:20118000F868396BC1F85C073868B96890F852208A4200F3F281FA6890F85330934200F30D
:2011A000EC8190F850308B4204DB90F85100904204DA02E0BB6090F85100F860386BA11CF7
:2011C000202200F2F46015F0F9FD94F82250202D00F2388105F124008642C0F03381F86AEE
:2011E00085601E99F86A20220C3018F055F9FA6A02F10C00926804F1230115F0DFFD386826
:20120000416D890827D305F123082D1995F8235008EB0501C91C8E421BD3D0F830C0BCF12D
:20122000000F01D195B112E1D7F8D8100091406BD7F8D4302A4608EB0401491CE0470028B2
:201240000CBF1C990121386B80F8481545446D1C02E04622F7E0233528192919027849782B
:201260000D9041EA022102290E91C0F0EB804919C81C8642C0F0E6800E98400880F0E280BA
:20128000881C09198A78511E0F2900F2DB801118491C8E42C0F0D680F96A0B9B4B603968D9
:2012A000496D890824BFF96A4B608018411CB14214D2C21CB24200F2C58022189578507810
:2012C00055EA002502D0042DC0F0BC80761A761B022E04D0B6E0C046008CFFFF1D46641891
:2012E000002D04F1020400F0C980042DC0F0AA80A078E67846EA0026301D8542C0F0A280D0
:201300002078637843EA00235B1E00F0A280093B52D05B1E32D0F53B0FD04FF601601B1AB4
:2013200040F0A280012E40F0C8802379002B40F0C4800120C7F8DC0096E03A6B104621F03B
:201340000DFD002840F090801046211D32461AF037FF5FEA000807D1386BD0F8601741F093
:201360000201C0F860177FE0384602212F221FF0B1FB404673E6C0468095FFFF386BD0F8CC
:201380006017002E41F00101C0F860175AD02379981BB0F1FF3F55D1002B04F1050063D070
:2013A000401E10F8011F31F0010202D05B1EF8D15AE0386B816057E0022E04F1060A41D331
:2013C0002179607940EA0128A8EB060010F1020F38D15FEA580035D2386BD0F838358BBBCD
:2013E0004FEA580000F10109B9F10C0F88BF4FF00C090421484623F0DFF85FEA000B06D139
:201400003846022150221FF065FB219CEBE0386BC0F838B5B8F1000F26D0B9F1020F23D31B
:201420009AF800109AF8010040EA012021F073FA18B14BF8040BA9F10109A8F102080AF151
:20144000020AE7E73222384602211FF043FB6A4CC9E0012E06D120790428DCBFF96A81F8CF
:20146000600001DD2F22EEE7AD1BA4192D1F04F1040403D0032D3FF63BAFE3E7DDF834A0A5
:201480000E980AF1020A401CAAF10201400811F8026F36B94A78FF2A04BF0120C7F8DC008A
:2014A0000DD0401EF3D1D7F8DC00012807D03868406DC0F30110022801D12822C3E7D7F8B2
:2014C0000090FD681E9A59F825800D92D8F8006076B932B93846022128221FF0FBFA474CFE
:2014E00081E03846022128221FF0F4FA444C7AE00E98AAF10204C6F3072B401C430814F8D4
:20150000020F834534D1617806F0FF0088422FD1304621F053FC48B3016901228D4212DB3B
:2015200081698D420FDCD9F85410890802D3017FC90808D2817A0B2904D1396BD1F8601759
:20154000890800D30D900D9991B1F86A0660386C0D4605603C687868401C7860606D800871
:20156000FFF45BAD38461BF031FF56E5209C3AE05B1EC4D108F10408A8E7384602214622FB
:201580001FF0A8FA229C2EE01E98F86706467E67384605210BF094FB041C24D1BB6D18788D
:2015A00016287FF454AF3868406D5B1C0AA9C0F3400209A820F070FB09980328FFF647AF28
:2015C0003868406D8008FFF45CAD796D087800287FF43DAF487800283FF443AD37E7012003
:2015E000786000E01F9C002C3EF4CDAD00E01F9C204625B0BDE8F08F0087FFFF808CFFFF17
:201600008096FFFF2DE9F04FDFF8E8820020ADF14C0D44F201210D9000220A900AAB0B2078
:201620000B9001200C9040460AF07CFBB54C211D086000210A46404613460AF073FB10905C
:2016400019F0B0FF08A823F03AFB032008A98DF820004FF080401AF0D3FAA74D28601AF005
:2016600075FFA748A5490860012020F069FB60B923F0CEF821F0C2F941F6A80140181CF01A
:20168000DBFF22F061FD23F0C9F8002020F058FB002800F0E083286820B10021C2A30A46F7
:2016A00020F052FA23F0B4F821F0A8F91CF03BFD074623F0B3F8A346FFB123F0A9F821F0B0
:2016C0009DF9012105F098FBA0B921F097F9012121F094FB48B921F091F9044621F08EF990
:2016E0000146204620F0D8F904E021F087F9002105F082FB23F092F842E023F089F821F0F0
:201700007DF9B0490822481E10F8013FFF2B02D1521EF9D1C349C91D00200A780DEB0003BC
:20172000401C491E082883F82020F6D323F076F8286838B1AEA100910022AAA3022120F0B6
:2017400003FA2868E0B19DF8201000919DF8217001979DF8221002919DF8231003919DF80C
:20176000241004919DF8251005919DF8261006919DF827100022A0A30791032120F0E4F904
:201780000BF11807A848A94C0F9780463AE3A06823F0B4FC5FEA000A00F034839AF8080061
:2017A0002968401E00F04481401E06D0401E00F0A381401E00F08C81A1E131B108460021B1
:2017C000C5A30A4620F0C0F92968DAF80C20B4F80D70B2F801303846834240F0F5801646B1
:2017E00061B1009780200190D078C7A30290084600210A4620F0A8F9B4F80D00BD4AC701D3
:20180000F61CF9B24FF00009891898F800201196531E834278D898F80160801AB0F1FF3FDB
:201820000ED0D8F80C00C019010BCAB2C0F30B011046119A802320F09FFC002857D168E0E7
:20184000084611990E2215F0B9FA16F013FD410326B1FF2805D14FF005095AE0FF2808BF05
:20186000CE491EB198F83200032806D0B8F82E00C989884218BF4FF00509D8F81800D8F8E9
:20188000A910401E084218BF4FF00509B9F1000F3FD1D8F8380040F6FF76010BCFB2064272
:2018A0001CBF7F1CFFB2B8F80600C6B203E0B8F80600761CF6B2C119B14213DCB9F1030F88
:2018C00015D08C4AC0B200218E2320F055FC70B9119A98F806008E2172230E3220F04CFC62
:2018E00028B916E0304620F04FFEFF28DFD14FF003090EE01C6302008C690020A06900206F
:201900003D260200A479002008468022314615F055FAB4F80D000221ADF838000A460EA8AB
:2019200020F08EF82868B9F1000F014644D1B4F80D00B4F80D70B4F80F60401C83B2781C4A
:201940009E42A4F80D0000F3C380574631B1084600930021BDA30A4620F0F6F8A548052681
:20196000F86010210122BFA37E815046002600960EF0EEFC10F03EF8002828680ED11AF049
:201980009BF9286820B131463246B8A320F0DCF822F014FF964901200860FEE7002800F09A
:2019A0009280BAA38BE0C046446F6F72204C6F636B20696E69742100002900F08480B8A39D
:2019C0007DE0C046C84F0050002900F098800090B2F80100B8A30190084600210A4620F016
:2019E000B3F88CE070736B643A20257300C046C04452524C434B310045554936343A20309C
:201A00007825303278253032782530327825303278253032782530327825303278253032CE
:201A20007800C046F0120050508600201088002029B108460021ACA30A4620F085F8DAF8E1
:201A40000C00007820738DF824000020A4F80D001DF03AFCDAF80C00401C10F0B1FA574638
:201A600000260346A4F80F3003B1012628688DF8256028B100930021A1A30A4620F064F81A
:201A8000F868172100221FF0DBFF07F11400122101221FF0D5FFB4F80F0002210322ADF8B6
:201AA0003A000DF13A001FF0CBFF09A95046022216F0F2F860684EB9286820B1C9A30021C2
:201AC0000A4620F041F818F0C7FE18E01BF000FF504619F077FF12E04F414420426C6F6323
:201AE0006B527370204576656E742072656365697665640070860020504620F035FC50463A
:201B000021F0E8FF7EE1C0464F414420426C6F636B20777269746520626C6B4E756D3D2553
:201B2000642C206C656E203D2025642C20646174613D256400C022F06BFE20F05FFF23F048
:201B400095F8074622F06AFE381C1DD0401E09D0401E022800F256812868002800F05281ED
:201B6000C6A322E00320002119F0ECFC0220012119F0E8FC286820B101210022C3A31FF07A
:201B8000E3FF1DF0D7FE3DE10320002119F0DAFC0220002119F0D6FC34E1C0460000000007
:201BA0002868002800F02E81BCA3012127E1286820B101210022BDA31FF0C6FF22F028FE34
:201BC00020F01CFF43F2CA71085C00283BD020F015FF012121F012F9002834D120F00EFF27
:201BE000064620F00BFF014630461FF055FF2AE07C0520431C88002020F000FF1CF093FA05
:201C0000002840F0FF80C7480078022800F0FA80286820B101210022A7A31FF095FF22F02E
:201C2000F7FD20F0EBFE012105F0E6F820F0E6FEABA1A5A2A8A30091C2490FF053F910B940
:201C4000B8490220087022F0E9FDDBE052657175657374696E6720426C6F636B204E756DB4
:201C60003A2564006F61642F696D6700446F776E6C6F616420636F6D706C6574652C207292
:201C800065626F6F74696E6700C046C0446F776E6C6F616420435243204572726F722100AC
:201CA0004F414420426C6F636B205772697465206661696C757265004F4144206E6F7420AD
:201CC00076616C696420706B74207265713D256420727865643D25642C20646973636172FC
:201CE00064696E6700C046C04F4144204E5446204576656E7420726563656976656400C057
:201D00004F414420496D6720626C6F636B73203D202564009BF80000012873D001208BF86B
:201D2000000020F06BFE064622F072FD304622F00FFD074622F072FDAFB98348008A10F03E
:201D4000030F10D07848CBF81C007F4FCBF82060F868CBF8180022F05BFD0F99304622F00C
:201D6000D3FE22F05BFD734817F028F91EF0E6FE7148002123F0BEF96F485BA626626B4FB5
:201D80006762A06020F03AFEA06220F037FE6B491FF097FF56A727636548606320F02EFE5F
:201DA000A06320F02BFE66491FF08BFF23F04EF801280AD11FF084F828B11EF05BFF4FF631
:201DC000DF71814201D011F0B7F91EF09DFE13F0A9FC20F013FE22F04DFF13E0286888B1E2
:201DE00045A30BE04F414420496D672052656A65637465642100286820B145A3002100220C
:201E00001FF0A2FE109808A9012200231EF080FA0028F7D40128F5D19DF820000928F1D85B
:201E2000800001A109588F46F71D0000DD1D0000151D0000051E0000F91B0000AF1B000009
:201E4000A11B0000371B00008F170000511E000013F068FCD6E722F0B1FC08A80021082281
:201E600017F01AFB394908A8082221F0D9F922F0A5FC374901200860FEE7C04644657669D8
:201E80006365204A6F696E656400C046446576696365204465746163686564004A6F696EE9
:201EA000204661696C75726500C046C04A6F696E6564204E776B00C04A6F696E696E67201D
:201EC0004E776B202E2E2E0054492D4F50454E54485245414400C04643433133353200C05D
:201EE000312E322E342E30006F61642F6E7466006F61642F66777600556E6C6F636B20455F
:201F000076656E7420726563656976656400C0464C6F636B204576656E74207265636569C4
:201F200076656400E78C0020DD0D01007DCB010025CB01005088002024880020308800200E
:201F400040880020F01900001C630200000000007C0520432DE9F04FADF1840D1993189251
:201F60000E461790B18B1C912B9B1B932A9A1A9214CA04A880E814004FF4C04028221F786F
:201F8000ADF8280030460DF12A0314F019FB4FF00008282840F03384B3480DF1320106AA61
:201FA000834617F0DFFB444618B99DF81E0000B10124A246BAF1010F04D05846414606AA47
:201FC00018F090FA58460DF1420108AA17F0CAFB444618B99DF8260000B10124A146B9F195
:201FE000010F04D05846414608AA18F07BFA0498059A811C8A4238BF032502D3801C4546EA
:202000000490002D40F0FC839DF825109DF81D3051EA030516D0BDF82840451C41EA0311BE
:20202000AA42CBB244F08004ADF8284038BF032503D3411C049145460370002D40F0E083CD
:20204000059A04989DF82A109DF82B409DF82B303C2505EA81059DF82B1014F00F0445EA9A
:20206000A1154FF0040113FB01F303F0C0012AD19DF82CC0BCF1000F25D19DF82DC0BCF153
:20208000000F20D103F0C00355EA030414D0BDF828300D43411C8A4243F48053ADF82830D3
:2020A00038BF032503D3411C049105704546002D40F0A683049858E0BDF8281041F4C051AC
:2020C000ADF8281052E015BBBDF82830214343F40063ADF82830431C9A4238BF032504D3E8
:2020E00004930170059A04984546002D40F08883811C8A4238BF032506D30BA90988018083
:2021000004984546801C0490002D2ED078E30D43411C8A4238BF032504D304910570059ACA
:2021200004984546002D40F06B839DF82B10431C9A4201F00F0138BF032504D30493017023
:20214000059A04984546002D40F05A83811C8A4238BF032506D30BA9098801800498454631
:20216000801C0490002D40F04B83059A9DF8301021B1113918BFB1F1180101D1022F10DAF5
:202180009DF83030411C8A4238BF032503D3411C049145460370002D40F03283059A0498EF
:2021A00005E0BDF8281041F48061ADF828109DF831502946491E19D03F3912D0BF390BD058
:2021C000431C29469A4238BF032503D3421C04924546017085B113E3BDF8280040F4407083
:2021E00008E0BDF8280040F4007003E0BDF8280040F48070ADF828000DF1320020F041FF45
:20220000002833D10DF1320021F09AFDF0B9049CBAF1010F14D0059804F11001884238BF6E
:20222000032509D30DF132012046102214F0C6FD049C454610340494002D40F0E1821CE047
:20224000BDF8280040F04000ADF828000AA804AD189900900DF1320206AB019511F0BEFD8B
:20226000051C40F0CD8207E0E8510020BDF8280040F04000ADF82800049C9DF84200059D4B
:20228000FF2830D00DF1420021F05AFDE8B90498B9F1010F13D0059900F11002914238BF2A
:2022A000032508D30DF14201102214F087FD0498454610300490002D00F0CF80A0E2BDF882
:2022C000280040F00400ADF828000AA804AD199900900DF1420208AB019511F0E6FD051CA0
:2022E00000F0BB808CE2BDF82800C14640F00800ADF8280002200DEB000191F842301BB972
:20230000401C1028F7D39FE09DF84310022902D10E2800F287800C2861D80A2840D8584676
:20232000414602AA18F0DEF868BB9DF845009DF80C10884227D102980DF14601082220F003
:202340006BF900BBBDF82800A31C9D4240F00400ADF8280038BF032005D30DF14300008827
:202360002080A41C40465FEA000972D1201D854238BF032005D30DF14E0000682060241D77
:20238000404681460AE004F1100085423ED30DF142012046102214F011FD103448463FE04D
:2023A000BDF828009DF84310631C9D4240F00100ADF8280038BF032003D32046641C0170B5
:2023C00040465FEA000944D1601D85421ED30DF14D000168216000792071641D1FE0BDF867
:2023E00028009DF84310631C9D4240F00200ADF8280038BF032003D32046641C01704046A3
:202400005FEA000925D1E01C854201D2032007E00DF14F00018821808078A070E41C4046CF
:2024200081460FE0BDF828009DF85110631C9D4240F00300ADF8280038BF032003D320465F
:20244000641C017048468146B9F1000F04BF049405955FEA090540F0D3813046282120F0DE
:20246000CDFB9DF83000022F1D90B8BF4FF00108C0F2C681CDF88080CDF87C807F1E15976A
:20248000012016901D99049C0598002900F0FE8011391BD0183940F0AF81DDF85880611CDB
:2024A000884238BF032504D3601CEE270490209D2770002D40F0A48104A80090189A199BBF
:2024C000179831461EF0A7F8054699E1B18BDDF858800546082202AB3046894614F070F8A8
:2024E000082840F0CC80BDF80810BDF80A700806000C40EA212082B222F00F034FF2B00165
:20250000380699424FEA104040EA272080B222D120F00F0399421ED1611C8D4238BF03272A
:2025200005D32746F3233B70209F491C641C002F40F0A680120700F00F008D4240EA1260E9
:2025400038BF032703D3209F2146641C0870002F00F0828094E002F47F41B1F5704F4ED098
:2025600000F47F41B1F5704F18D0601C854238BF032704D3209F2046F021641C0170002FC9
:202580007ED1201D854238BF032704D302A800682060209F241D002F5ED071E0611C8D4264
:2025A00038BF032705D32746F1233B70209F491C641C002F64D113128D4238BF032704D302
:2025C00027463B70209F491C641C002F58D1D2B28D4238BF032704D3209F2346491C641C8F
:2025E0001A70002F4CD1C0B28D4238BF032703D3209F2146641C0870002F2DD040E0611CE6
:202600008D4238BF032705D32746F2233B70209F491C641C002F33D1D2B28D4238BF03277A
:2026200004D3209F2346491C641C1A7047BB02128D4238BF032704D3209F2346491C641C42
:202640001A70EFB9C0B28D4238BF032703D3209F2146641C08709FB9A01C854238BF0327F6
:2026600005D30DF10E0000882080209FA41C3FB93046082120F0C2FA0494059504E0062729
:202680003046494621F068FF38461DE7B18B8146022202AB30461E9113F092FF022840F054
:2026A0009D803046022120F0A9FA9DF80830DDF880801F46113F12D0183F10D0601C8145FF
:2026C00038BF032506D32046E02101709DF808304546641C002D40F08280184600E0E120B4
:2026E00004F1010AD14538BF032505D321460AF1010A4546641C0870002D70D19DF80910C1
:20270000062000EBC10087B2B7F5807F64DA40464346B58B8DF80C00002F8DF80D30284686
:2027200008BF42461BD003AB30462946022213F047FF022852D19DF80C203AB9B18BB08BE7
:202740006D1CADB2691A8F42EDDC08E09DF80D004019801C85B2B08B291A8F42E3DC9DF81B
:2027600008303AB1012A07D19DF80D10891C5FFA81F801E04FF00108718BA7EB0807BFB2D3
:20278000C0194044814229DB5FFA87FB1D93D145584638BF032503D3209D2146641C0870C5
:2027A000EDB90BEB040081450BD3B18B30465A46234613F005FF834504BF5C44209D01D05A
:2027C000FEE703255DB947443046394620F016FA0494CDF8149006E0012500E006251E9967
:2027E000304621F0B9FE3DB91698159F401C1690781E15907FF446AEDDF8588000E00625E7
:202800001B9880F80080F5B91A9842680168481C824208D31A984A1CBDF8287002603A1284
:202820000A7042680168481C824206D31A9A0846491C11609DF8287007701A9904A805C862
:2028400081E8050003E01C99304621F085FE284621B0BDE8F08F70472DE9F04FC84BC74DD2
:20286000046899461968C74EC74FDFF824B3DFF82483DFF824A3607B2A68C44BADF1140D5C
:20288000401E0493352800F2CE81DFE810F0360039003C003F004200D8004500D5004C0074
:2028A000C503B20024025900B0035F00A50366000D026D00F100770098039B00CF01A30072
:2028C0007003A8005F03CC00AD014303B2009501B9000803CC00DF02D500D002D800AA02D7
:2028E000DB003701DE00E1009402F300840219015D02F700400203011501216948680DE004
:202900002169C868D4E02169886807E021690869CEE02169486901E02169886909682A46C7
:2029200013F08EFFA3E32069C168022008702169096908702169C96908702169096A96E01A
:20294000206933680168DB68006941E04FF480703168C9F8000008684DE04FF48070316827
:20296000C9F80000C86B46E0206933680168DB68496A0069984721690A694CE021698868CF
:20298000049D096840684A6A401C294614F098FF2069016880684A6A406859468018401C9A
:2029A00014F08EFF206901683768CA68786D00920A6901924A6A02928B684A6804462846A1
:2029C000594663E0206933680168D86803464046496A13E0206935680168E86927E0206963
:2029E000016837684B6AF86945460446591940464CE030680069034649463846984746E064
:202A000020693368416A0568DB684868696A984721694A6A526805460868416A104620F011
:202A2000E4FE284633E020693568016868694B6A04463846D91929E02169086A38E02169BD
:202A4000C86935E02169886A32E02169086B2FE02069C169022008702169096A087021694A
:202A6000496A08702169896A08702169096B08700020FCE220693468E46902E02069346849
:202A80006469016840694B6A4068C118A0471CF015FFECE2206931680368CE6940695B6A1A
:202AA0004068C118491C401CB04721692A68486909681CF0C9FBEAE7206941690220D6E7EC
:202AC0002069016837684B6A4069C9F800304068F96BC0180B464946984705462069016836
:202AE000D9F80030496A8B429BD2406932684468926DCF18C91A3819904792E74FF080567A
:202B00002169D6F80022C86A0968526C4068496A904706F5007768BB2169C86A096840683E
:202B20004A6A514614F0CCFE2169086A096840684A6A0499401C14F0C3FE20690168006A99
:202B40004A6A406859468018401C14F0B9FE216938680A68C06A1169526A03465046984711
:202B60003868406A80470828FAD0386840688047062813D06FF0060079E2C046706900206B
:202B80004C8C0020000200100064024060620240C0620240006502400062024020690168E0
:202BA0003C688A68206A0092CA6801924A6A029203954B68049975E020690068436A9942A0
:202BC0000AD23068826D5B1AC8191946904720690068D9F80010436A4FF080568B4206F5AA
:202BE0000072C0F08F808CE02069C16802684868526A4146401C14F063FE20690168C0684E
:202C00004A6A4068454651198018401C14F058FE20690068406A3946420040461EF0C0F86D
:202C200000287FF425AF4FF0FF3020E2206901684A6A4069514614F043FE206947687FB91A
:202C40004FF080560368D6F800029968006A0091D9680191596A02910395DA6A996A6FE0D1
:202C600079680268049F526A481C394614F028FE2069016840684A6A406859468018401C14
:202C800014F01EFE20694FF080560168D6F800428A68206A0092CA6801924A6A029203954A
:202CA0004B6839465A464CE020690068436A99420AD23068826D5B1AC81919469047206925
:202CC0000068D9F80010436A4FF080568B4206F5007217D315E020690068436A99420AD27B
:202CE0003068826D5B1AC8191946904720690068D9F80010436A4FF080568B4206F50072F3
:202D000000D319461268546B00950269C5E02069016902684868526A514614F0D1FD4FF032
:202D200080562169D6F800020B68006A49699C685A6A49680094DC68019402928A18039520
:202D40005B680446504683E121698868049F096840684A6A401C394614F0B2FD2069016802
:202D600080684A6A406859468018401C14F0A8FD4FF080562069D6F8002201689269406938
:202D80004B6A4C6840680094896814460191C11802935B46BCE022694FF080561068D6F820
:202DA0000012436A096C00955269406852680C461946D2184CE121694868096840684A6A5E
:202DC000514614F07DFD2169049FC868096840684A6A401C394614F073FD20690168C0684B
:202DE00014E02169486A096840684A6A514614F067FD2169049F086A096840684A6A401C0F
:202E0000394614F05DFD20690168006A4A6A406859468018401C14F053FD4FF08056206998
:202E2000D6F800420168206A04465046BCE02169C868DDF81080096840684A6A401C414644
:202E400014F03EFD20690168C0680DE021694869DDF81080096840684A6A401C414614F0D8
:202E60002FFD2069016840694A6A406859468018401C14F025FD20694FF080560268D6F8A0
:202E800000425368516AA069009392685B46019242460291C919039504463846D8E0216911
:202EA0008868DDF81080096840684A6A401C414614F006FD2069016880684A6A4068594631
:202EC0008018401C14F0FCFC21690869096840684A6A401C394614F0F3FC20690168006911
:202EE0004A6A4068D1198018401C14F0E9FC20694FF080560168D6F800424A684B6AA06928
:202F00000092896804464046019159460293DB1903959CE02069416802684868526A5146F1
:202F200014F0CEFC206981698A684868394614F0C7FC4FF08056D6F800022169806B009579
:202F40000B688A69596A93683A46FAE620694FF080560168D6F800424A684B6AA0690092D4
:202F6000896842460191D91902939B1893E721698868049F096840684A6A401C394614F0C9
:202F80009FFC2069016880684A6A406859468018401C14F095FC4FF080562069D6F800428A
:202FA0000168206A044640468A680092CA6801924A6A029203954B685A46394648E02069A2
:202FC00001684A6A0069514614F07AFC4FF08056D6F80002406B18E04FF08056D6F80002ED
:202FE0002269006C009513685B6A126954E721692069096880684A6A4068514614F060FC90
:203000004FF08056D6F80002806A216909684B6A00950A69194694E6206941680268486804
:20302000526A514614F04CFC206901684A6AC068394614F045FC4FF080562169D6F80002F0
:203040000968806B4B6A04465046009519463A46A047D6F8B001006A014613208847D6F824
:20306000B00100690146132088476FF01F0005B0BDE8F08F2DE9FE4F0546D5F8980000285B
:2030800040F0D9833CE010F5C94F05D010F5CE4F29D00020686732E02F6B2C6F0D3417B33A
:2030A000E86E16281FD1D7F8A805E0B9D7F87005C0F50040A04216D3B5F878002146401C8B
:2030C000C7F8B0050120C7F8AC1521F075FAC7F8A80540B1A96D224613F070FED7F87005CB
:2030E0000019C7F870052968286F496D890834BF05210D21401802E0002007466F67E86701
:20310000D5F89070A86EDFF8EC92DFF8EC82DFF8ECB21FB9A8B90020286716E0002840F087
:203120007A83286FB8429CBF0020286706D9686E2A6FC119D21B2A671FF0FEFB0020C5F86C
:203140009000286F002840F035812868406D800844D3284621F050FA00283FD12E6B002E96
:203160003CD0686800270A2821D00C281FD006F5AF62106800EA900040081BD3D6F87C1573
:203180004B788878CE7840EA032346EA03200C30B0F5407F22D828671621E9660346C5F8CE
:2031A0009030686E51681A4613F008FE13E096F8744514B94FF0FF370DE014200124E86647
:2031C0006B6E2C67214619703A466A673C46EC673B4686F87435002F00F0EC802868406DFD
:2031E000430880082BD3286B28B3D0F8A875D0F8AC45D0F8B065F7B1284621F0FDF90128CF
:2032000019D0B5F87800B04215D1A86D296D40F22D36421AB11AA142C0F0FD823946224668
:2032200013F0CCFD6C670020E86728461EF05EFD2868406D4308580828BF0D2100D20521B4
:20324000284609F03DFD002840F0AD80AB6DEF6D18782E68E8663978787840EA01202867E5
:20326000706D5B1C01A9C0F3400268461EF014FDEC6E173CB4F1FF3F12D014F1020F0FD027
:2032800014F1030F0CD05CB12868406D4708800880F08580284602210A221DF01BFC7BE069
:2032A000A8680099884277D12868019A90F85110914272DB2A6D696E2E6F40F22D37891ADB
:2032C000791AB14269D3406D4708800811D3686D0178407840EA0120B5F87810814254D156
:2032E000284612F037FD002852D114B9686810284ED1686B28B9701E40F2FF2181420AD2B8
:203300004DE08068B0424AD8E968002903DD00F58060B04243D378082CBF0D200520311847
:20332000284609F0CDFC00283DD12868406D800805D3286F696F0D30E867814201E00020CB
:203340006867686B38B1284606F038FD60B9286FB0F5407F07D82868406D80082AD3284626
:2033600010F0A7F826E040462968496D89081AD310F5E44F18BF10F5E34F14D169680B292D
:2033800011D00D297FF4B8AE0DE0401A012801D0CC4805E0584603E02868406D4708404670
:2033A0007908BFF470AE10F5CB4F00F0B380002840F04582E86E16284DD12B682E6F5433F1
:2033C0001868410880082CBF0C200420B04200F2998048082CBF0C240424284620F0E3FF71
:2033E0000019C5F890001968890809D2B04232D9B54888E00094FFFF008EFFFF809BFFFFE1
:203400006C6E2079637943EA0023284620F0CBFF8246284620F0BEFF0746284620F0B1FF47
:20342000BA456FD3AAEB070181426BD30C30864268D32F6B57B16868103804D0D7F84015BC
:2034400099424AD110B92078012846D128461DF0DDFB012854D0E86E14280FD1296F012901
:2034600038D1696E0978012934D12968496D890804D369680A2918BF0C2925D115280DD0ED
:203480002868406D80084CD3286B002849D06868102846D128461EF047FE42E0286F0228B1
:2034A00018D1686E017802290BD001297FF428AE407818B164287FF423AE32E0D748BDE834
:2034C000FE8FD748BDE8FE8F286B00285FD17D48BDE8FE8F4046BDE8FE8FD7F84005984286
:2034E0000ED3D7F860051B1AB3F1FF3F06D12078032803D0284621F0ADFC20B9D14802E037
:20350000584600E0404610F5C94F40D010F5CD4F3FF4F6AD10F5CB4F3FF4F2AD002840F03A
:203520008E81E86E162840F0898168682F6B102807D037B1D7F8E036696ED5F890202846A6
:2035400098472868406D8008C0F07881286B002800F07481D7F840050021401CC7F84005E9
:2035600028461BF0EDFD07F5AF670021491C07F10C004E1C0DC8042E87E80D0007F10C0754
:20358000F4D3384600210C2215F086FF56E1D5F830805FEA08023FF4B3AD0020EF6E029064
:2035A000143F00F03F81BF1E40F03F81D5F89000696EA0F10C0A0B794F79D2F8400547EAD4
:2035C0000327B84200F227813F1A032F00F22D81B80000EBC70014188018D0F8780504F596
:2035E000AF64400872D228461DF010FB4FF0000B012808BF4FF0010B20680AF10C06B6F5E1
:20360000407F20F0020040EA4B00206000F20D81D8F87015B1F5004F00F2FD80800807D349
:2036200000201AF0070F18BF0120361806EBDA06C1F50041B1421DD2002F40F0F680D5F8B8
:20364000309028461EF052FBD9F87005C0F50040B0420FD20327F9B228461BF071FDD9F846
:203660007005C0F50040B04204D27F1EF3D576490291DAE00120314620F09EFF606000287A
:2036800004BF724B029300F0D080A660696E0A688988026003228180801D002115F0FCFE30
:2036A0006068411C0A880930028089788170206840F001002060D8F870058019C8F870055A
:2036C0000BE0C0460099FFFF808FFFFF606804221EF0A2FF002840F0A8802068C00880F078
:2036E000A4806668284620F055FE0746284620F048FE696E0C3680464246B8190C3113F07E
:203700005DFB20688108C0F081803A4641460AEB060902F007074FEADA0812F0070FCC463F
:20372000C7F1080723D08F424FEAD20311D300293CD003EB0A00305C7A1A4FF0010E491E0A
:203740000EFA02F240EA0200C0B2F5D10CF803002BE063441878D219C91B7F1E4FF001060E
:2037600006FA07F640EA0600C0B2F6D1187011F0070F01F0070011D05318091ADF0868B1DD
:2037800067443B78C0F108064FF0010E401E0EFA06F643EA0603DBB2F4D13B700CEBD20C54
:2037A000CA086046FF2115F077FE2068B8F1000F4946524608D04B1E474613F801CFBCF13A
:2037C000FF0F17D17F1EF8D112F0070F10D0D308CB5C02F007020021C1F107064FF0010C6C
:2037E0000CFA06F6334205D0521E01F10101F3D1002701E04FF0FF374FF0000C0FB94FF086
:20380000010C20F0040040EA8C0002E0206840F00400206009E04846BDE8FE8F8087FFFF05
:203820008088FFFF012088F87405029800283FF467ACBDE8FE8F0020C5F898000020BDE8F4
:20384000FE8FC046809AFFFF0096FFFF0081FFFF2DE9F04F054614460E46ADF5A67D0AA8E5
:20386000519421F047F8606A002800F08D83204690F82800FF2840F08783B18B30460C22CA
:203880000DF5937312F09CFE9DF82621FF2A07D0002A40F079839DF82711152940F0748320
:2038A000012700F07183002A14BF00210A21891CC9B28842C0F26883FF2A00F052836F7A55
:2038C000002F00F06183002A40F05E834B9BDA4C03F47F4118061F0A40EA012007F47F419A
:2038E00043F2B4270143E05941EA136840450FD043F25830B43841462718343022183846A6
:2039000018F000FF9DF82621B94609F1340706E043F25830B43804EB000909F11407B18BB8
:20392000002A14BF00200A20738B801CC0B24018001D8342C0F02883002A14BF00200A2058
:20394000801CC1B23046491E1FF058F9708B04220DF59973001F81B2304612F031FE708BF8
:20396000001F81B2304612F041F8002840F00C83519808A9103050901FF0B5FE4A9908A84E
:2039800005220DF58B731FF0B9F88B460AA8394621F0CBF90DF58B700090B08B728B2A2159
:2039A0000423121A0AA808F0F1FC002840F0EC8250990AA8102214F09DF851990AA8102223
:2039C00014F098F80DF227110AA80A2214F092F8B18B00275291708B884200F3A5824FF04C
:2039E000040A0AA80DF59B710DF59D728DF83AA11AF0B0F90DF599700DF59B7152461EF016
:203A00000BFE002840F0C08243F2B4202058404503D24846414617F00DFA5299304620F094
:203A20009BFDB18B0DF23B133046012212F0C8FD304601211FF0E2F8687A401E01280BD937
:203A4000801E012806D89DF83B010C2804D004F5545002E03B461BE0284608A918F012FABA
:203A6000031C15D0987E00F00F00072810D15869404506D0404580F08782C3F81480DF6075
:203A800003E01869584500F27F820BF1010018619DF83B01001F00F0BA81001F00F075819C
:203AA000801E00F03A82801E00F03282401E00F02982401E00F0AE80401E40F0658230461A
:203AC0001421052206AB1CF07AFA002840F05C829DF819000328C0F05782BDF81B001621BA
:203AE0000A2202AB4FEA202830461CF068FA002840F04A829DF809000828C0F045823046A9
:203B0000152134AA1EF074F8002840F03D8243F2B420AC38201820F02FFF061C19D00DF194
:203B20000A0112F06DF9002813DC30460DF10A0112F066F9002840F12782284641463A46A4
:203B40001EF0B3FB509B284641463A460EF096FC1AE2687A01280CD143F25830205C8045D7
:203B600007D143F25630BDF8D070215A8F4200F00B8295F83500012820D1BDF80A10039CAA
:203B8000080604F47F472606000C002240EA212080B2030046EA0720270A05F5887607F4E4
:203BA0007F41014341EA1461891842EB030296E81800944208BF8B4280F0E681BDF80A10E8
:203BC000039C080604F47F472606000C002240EA212080B2030046EA0720270A07F47F413D
:203BE000BDF8D07085F80B8105F588760143A5F80C7141EA14612846891842EB030286E822
:203C00000600012120F07AFD05F13C00FA2120F013F8B9E1687A401E10D0401E40F0B48011
:203C200005F10C00984240F0AF8195F8260000F00F00072818D0A7E1201B0020314602AA79
:203C400020F0CCFF002840F09F8195F870209DF81000824205D105F1680102A81EF0DCFCC6
:203C600010B1002F00F09081304611214FAA1EF095FF002878D0304601210DF23D121EF0AC
:203C80008DFF002840F0808195F834009DF83D11884240F07981687A401E02D0401E27D040
:203CA00061E03046052131AA1CF0A6FA002840F06B813046082132AA1CF09EFA20B117381D
:203CC00040F06281319832903198329BA86195F82620EB6102F0F00040F0070085F82600CC
:203CE00020F044FE0146284612F0D4FA01202872304639460DF1D2021DF07AFF002840F08D
:203D0000438120F033FEBDF8D2108912B1EBA02F2AD1519A2846314605F022FC002840F0CB
:203D200033813046022133AA1CF066FA10B1173803D029E13398C5F8F80095F834000009B6
:203D40000CD243F2EB4639460B3EA0191EF028FD7C3E3946A01919F053FC08E043F2EB46D3
:203D60000121873EF6E7FEE7284619F05DFA95F87A00022840F0088185F8797085F87A7015
:203D8000284619F043FEFFE0FEE7002B00F0FC80987E00F00F00072840F0F680519A2846CD
:203DA000314605F0DDFB95F87C00002840F0EC8095F83400000980F0E78043F2EB40215C74
:203DC00031F0030000F0E080FC2980F0DD8001F0FC0001F00302FC3043F2EB4100F0FC0021
:203DE0001043C0B2605430F0030040F0CD8043F2F940205C43F2F9410F4600F00F00605449
:203E0000A7F119000121201813F0A1FDBCE0614800781C46394635AA8DF8080030461DF069
:203E2000E7FE002840F0B08004AA2846314618F0D5FF002840F0A880687A01280CD005F149
:203E40000C01A14208D1BDF8D410AA8C914203D0284619F0E9F9687A012840F29580801EDB
:203E60000BD0401E012827D8002C00F08D80A07E00F00F0007281FD086E005F10C00A04233
:203E800040F08280BDF8D400A98C884211D104992868884204D1E8799DF81720904208D0E3
:203EA0009DF814209DF8173028461CF089F9012028721DF0DBFD6861287A28B904A928465A
:203EC0001EF0AEFA00285FD033490888C8B1486848F24E32A2FB002000EB5200020824BFFF
:203EE00020F00040401C486083B24FF47A7193FBF1F04843509902AA1B1A284611F0D4FE06
:203F000042E0FEE7519A2846314604F04BFB3BE02846314606F048FD36E0519A284631466F
:203F2000434601F083F92FE0304640220DF1D60312F046FB8246009703460DF1D6010DF10F
:203F4000D6020AA80BF0B0FEB18B30460DF1D603524612F0A7F8304651461EF04FFEB18BC8
:203F600039E5304602211EF049FE9DF82601FF2814BF9DF831019DF82701112804D128467F
:203F80003146224604F091F80AA820F0B9FC53B0BDE8F08F29650200108200202DE9F04F90
:203FA0000D4609AF9846ADF1940D00211E9038781F922C22209006A815F06EFA11A8294668
:203FC0001BF0C6FD061C40F0A0820AA813A9102212F0F4FE06A817A9102212F0EFFE9DF8E7
:203FE0004B00CDF83C809DF85C108DF84000FF294FF0000008BF012000273C46219458B971
:20400000A64817A91EF032FC88B917A81FF098FE78B11F9868B10EE01F9850B117A91EF0A4
:2040200036FC20B91F98067A06B1012403E0012701E0012021902846282120F08DFA9DF8C1
:204040004A60229621988DF86D0000263AE0229800282BD0293841D0801E25D0401E04D0FF
:204060000F3821D0401E21D038E0A98B04AB2846082212F0A5FA082813D1BDF812000106A3
:2040800000F48076090C41EA202189B256EAE10005D1284608211EF0B1FD002602E0022600
:2040A00000E006265EB119E0022617E01E98294611AA0DF16D0304F0A3FB061C0ED19DF857
:2040C000080022900FB9229840B9A98B2846022202AB12F075FA0228B9D00626002E40F08A
:2040E0001482012F0BD0002C00F0DE8020980090229B1E98294606AA0EF028FBD4E0229F35
:20410000292F00F0F581209800901E98294606AA3B460EF01BFB3846113841D0293840F0C6
:20412000BF801E9CA98B2846082202AB12F048FA2434082840F0B080A98B688B3A23401A03
:2041400082B2904606A90AA81EF04CFBAA8B01464346284614F0ECFF4FF6FF71814240F095
:204160009B809DF80800802807D12046294606AA0FF0E4FA061C01D093E000262846082182
:204180001EF03CFD2468002C00F08B8027686068294606AA02ABB847A468002CF6D180E0A4
:2041A000A98B688B1E9C401A2C3482B29146B9F1080F71D30AA806A9112380461EF012FBDE
:2041C000AA8B01464B46284614F0B2FF4FF6FF7181425FD1A98B2846082202AB12F0F0F9A3
:2041E000082859D1284608211EF008FDBDF808106768BDF80A3000260806000C40EA212085
:20420000ADF83A001806000C40EA2320ADF838004FB17B68B868294606AA9847002840D111
:204220003F68002FF5D1A768002F3AD0BDF83800398A88422AD19DF81800FF2808D03846FB
:204240001EF01FFF20B9384606A920F06DF8E8B1BC8C74B1BDF83A00A04217D107F11403E9
:2042600018461EF00EFF20B91846414620F05CF860B1A98B28461EF0D7FAAC8B2CB9BB6AD0
:20428000F86A294606AA98470BE0FEE77F6B002FCCD106E0022604E0062602E0A04A00202E
:2042A0000026002E40F031812198002800F01A819DF81800FF2800F0E28006A81FF040FD3C
:2042C000002840F0DC8094484FF43E51475857B1384606A920F032FD397C814240F3CF806F
:2042E0007F69002FF4D10020012800F0C880002743F2C670042488492497FE38239409180D
:204300001C911C980AA93A461AF0AAFD0028249059D090F802A0804A43F2C6717E4F1C9872
:20432000525C002443F2C863A146B918C9181D911D9901221DF068FD071C5BD1002C3AD133
:20434000249FF8780024C01D07EBE000001D79780222C919891C1DF057FD031C02D1002C1F
:20436000CFD028E0991C1DE048880202900A18D3B4B1608812B20002921300B280139042BC
:204380000EDB90420DD10A881006000C40EA222082B220F0EBFA904202D020F0E7FA00E0C6
:2043A0000C46091D58781818801E8842DCD25878C018801CCBE72188002708062397000CD5
:2043C00040EA212081B2239A2AB920F0CFFA884201D0002A53D020980090229B1E982946B4
:2043E00006AA0EF0B3F9061C40F08F80284620F011FC77E0B87882453DD197F803B0381D84
:2044000006A95A461FF076FA8046C14533DA0BF1070007EBE000001D25E08A1C1BE0B4B1F8
:2044200094F9020092F9023080119B1198420EDB98420FD113881806000C40EA232083B20F
:2044400020F094FA984202D020F090FA02E014465FFA88F9D21C48780818401E9042DED2B4
:2044600048784018801C79780022C919891C1DF0CBFC011CD1D17878C019801C58E71F9800
:2044800058B11E980078002804BF0020219029D09DF84B00401E8DF84B009DF84B0028B367
:2044A0008DF86C00072101221BAB284611F0FAFD95F82800002140F0400085F8280028463B
:2044C00020F04AF8DFF85080696108F5525029461AF091FD061C05D1404643F2B84140186F
:2044E0001DF0F8FF8EB9219878B111E002260CE0A98B28461EF098F920981F9A00901E9892
:2045000043462946FFF74AFD02E0284620F082FB304625B0BDE8F08F201B00202DE9FC4766
:20452000D54C0F460546F80B80F000826078DFF84C83B90F80F0A481B90880F09581F90AA0
:2045400080F0FF80390B80F0CA80380907D2F80FC0F0228227F0804716F0D4FD1CE220F036
:2045600027FC81461EF09AFA002800F0B280082020F06CF9002840F0AC80802020F066F935
:20458000002840F0A680684612F0B4FC012803D10098002800F09D8094F82902002840F064
:2045A000988000250126E8B21FF0D4FC48B1837A3BB1867290F9090006FA00F0C0B21BF045
:2045C000E3FD6D1C032DEED30320207604F5C07020F0E8FB484620F089FDD14800252A46DA
:2045E0000168056050F8081CCE4940F8085C04F154001EF0D3F940460068006B8047A16882
:20460000401A010B206AC1F1FF3282422CBF08444FF0FF30206294F8240020B12069216A47
:20462000B1EBC02F25D91EF049FA294600B13146081C1BD0BC4840F6090101804580417BB4
:2046400006F00F0221F00F010A434273017B05F00F0321F00F0143EA0102027329464160D7
:204660001FF0F2FE418811F4406FFBD084F82460256219F0C5FDCC482946056002201DF08A
:20468000BDFE02201CF04CFC11200FF0F7FF207818B96068483020F09BFBC448007810B927
:2046A0000E200FF0EBFF94F8250020B184F8255005201CF035FCBE48E0612576B4F9A800D7
:2046C000B4F9AA10884214BF0220072013F0A8FF02E0484620F00AFD27F008073CE720B142
:2046E00004201CF01DFC0020607065681BF030FD38B12846ED696FF4807100224FF00073A7
:20470000A847E06858B140460068006B8047E2686168801AC860000BC8600026E660A549D7
:2047200004F1540000221EF039F90221D4F89400217618B104F1D40020F050FB27F4006745
:204740000AE720F035FB06461EF0A8F9D4F88C100028894600F0828000297FD0964904255C
:2047600004F15400002225761EF018F9304620F0BDFC04F5C07020F015FB40460068006B33
:204780008047E0604FF0010884F8018028461CF0DFFBD9F810006060D9F81000416AC9087B
:2047A00003D3036A294600229847404616F05AFF606880F8158060680BF066FF6568D5F8CA
:2047C00008A040F60A02D01F564600F1010C00E01E46736833B119888A4203D0884218BF82
:2047E0008C45F5D100217160727B08F00F0322F00F0213437373D9F80C201288904224D07D
:204800006046904221D02B8E03B3696305F13002518095F83C0001F00F0320F00F000343CA
:2048200085F83C3095F83D0008F00F0320F00F00034385F83D307260707B01F00F0520F09A
:204840000F0045EA0001717300E0E16050461FF0FBFD514640461DF0D1FD02E0304620F017
:2048600045FC27F4806797E009F09AFFD4F8940008B927F002078FE0485700208C010010E0
:204880004E4A116841F08001116020B104201CF047FB0020607020F08BFA8246D8F8540030
:2048A000016804208847D0B1287DC0B1A068B0B18146D8F800002E69006B8047A0EB0900A8
:2048C0002861000B2861B04202D280194008286140F6C41181422CBFB0F5967F29615046F8
:2048E00020F004FC1BF034FC80B1EE6928466FF4807100224FF00073B047D4F88C000028D8
:2049000008BF47F0020701D016F0FCFB2846AD6900214FF080630A46A84727F000573BE033
:204920001410044055C60100D868002020F040FAD4F8A46066B306F1280106C90A234FF005
:20494000E0450B40154008BF002B21D106F1280191E8000306F1280595E8060006F1280349
:2049600022EA090221EA080183E8060020F0BEFBB16879B1B9F1000F08BFB8F1000F09D07E
:204980003069B6F93010B5684B464246A84701E020F0ACFB27F4804727B104F1D4003946D0
:2049A00020F01CFABDE8FC8700000460BE6402009D220100FD1201007D2A0200CC21084073
:2049C0002DE9F04FD24C0020ADF12C0D44F2012109900022069006AB10200790082008908C
:2049E000204607F09FF9DFF8508308F10401086000210A462046134607F094F90A9019F05B
:204A000067FA19F08BFA17F051FE68461FF044FD04208DF80000002069461FF045FDC54D78
:204A2000C349942205F1B00608600021304614F033FD05F5A27400219422204614F02CFD5B
:204A400005F5EC7700219422384614F025FD05F51B7900219422484614F01EFDC5F8B040BF
:204A6000C5F86C622E61C5F8D8910121C5F844710C46803E95F8DD2195F8493195F8B5007E
:204A800095F87172AE6164F3830285F8DD2164F3830385F8493161F3830085F8B50064F30C
:204AA000830785F8717200226A618C23A5F8B630A5F84A31C649A5F8DE31C648A5F87232CB
:204AC0001746AF83C8C80A46C8C249C882E84900087B64F3C71008730FF018F9022105F1C4
:204AE0000A001CF0CDFBDFF800A300208AF8000020F098F843F624460746F05D78B9BB48AB
:204B000015F09EF90746BA4AF455104614F056FA11680020884707F554500BF073FA4046BF
:204B200007601DF06BFF19F0FEFA18B91DF066FF0EF056F81FF072FEDFF8BC82B04FDFF89D
:204B4000C492B24E0A986946082200231BF0E0FB0028F7D40828F5D11FF05AFE9DF8000096
:204B6000002800F0EB80401E13D0401E00F03481401E40F0358101988008C0F031819D49C1
:204B800000200860A4499B4CA06820221FF062FF26E11DF033FF82469348019C0078401EA3
:204BA00000F0B880401E00F08480401E61D0401E40F0168114F4C07F10D1600803D35046CB
:204BC00021460FF035FC14F00C0F03D05046214613F0B2FEA00980F0A88001E17088012858
:204BE0000BD07088022808D0708842F20101814203D0E8681BF0FCFBA880834840880228E5
:204C000004D081484088B0F5105F2BD1B9F8020040B1B9F80200022804D0B9F80200B0F572
:204C2000105F1FD1D9F8100000788009C0F0D8807888002800F0D4807888022800F0D08055
:204C4000788842F20341814200F0CA80788842F20441814200F0C480788842F20541814232
:204C600000F0BE800B206870012150460FF0E0FBB6E0A0081DD35C490220087070880128E3
:204C80000BD07088022808D0708842F20101814203D0E8681BF0ACFBA88058484088B0F544
:204CA000105F12BF7F21554890F9121050461FF037FA200A0ED3708801280BD070880228CD
:204CC00008D0708842F20101814203D0E8681BF08FFBA88014F00C0F03D05046214613F039
:204CE0002BFEA00901D31EF0DDFEE00978D37088012875D07088022872D0708842F20101F9
:204D000081426DD0E8681BF073FBA88068E0C046A0640200EB68600904D31EF0C3FE18468E
:204D200014F0F8FE14F00C0F5AD01EF0BBFE57E084690020187E0020986900201DF05EFEE5
:204D4000824698F8000000284AD01CF08FFED8F80840D8F80410401AA04212D22C491EC9A8
:204D600002A880E81E00D8F80C0002A918F004FB0498002834D10598002831D11EF048FC93
:204D80002EE0002088F800001FF00EFEE0B950461FF060FF20B30AF1040BDBF800407CB190
:204DA0001C48006880476168401A000808D20AF1040021461AF090FE2168204688470FE0B0
:204DC00058461AF061FB0BE050461FF0A2FE07E0906800204C5902001DF010FE1FF0C8FA0D
:204DE0001FF01CFDAEE6C04666690020201B0020D8890020A48A0020F48B00207868002039
:204E0000EC680020A86800205067002070660020705D0200F4640200B08A00202DE9F04F49
:204E200006463078346DADF12C0D4008C0F0EE81A07C00F0FE00A074B078401E00F03B814F
:204E4000801E00F0C380401E1BD0401E03D0801E00F0198116E1707A2146A07130460EF012
:204E60004BFA002840F0D2813079411C3171216888700427277496F83000607406F13C0886
:204E80003FE1707A0423D54D237405F55351A0710F7896F83000002F607400F0B78143F2D4
:204EA000984959F80520002A00F0B08192F8283001204FF0000801F80B0C13F0030F77D199
:204EC000DFF844A3C3F38303022B46D10A7A202A11D243F25C335959904008420BD0D0495F
:204EE0000C3B08780A7240F010000870E8181BF049F8474600E007275FEA070840F0868141
:204F000050461430007859F80520A071D08C4FF6FF73834221D143F25630415B8B421CD1DD
:204F2000C04A17885168801F48F24E3C28180990002F3CD0ACFB01E101EB5E01080824BFD1
:204F400021F00041491C88B28342F1D05160014609981CF02BFC4846425909F11A016F1849
:204F600053460C39681800901878019037F8020C0290388842390390681838316B182146B2
:204F800002F0B2FC27F81C0C57F81A0C90F82810C1F383020A2A01D1CF1103D1A0880728AB
:204FA00006D1FEE7408BA9F1020148532EE1FEE7A07CB8F1000F00F0FE00A07440F0268191
:204FC0003079411C31712168887057E7707A4FF440410022A071204618F0F1FCF18820464F
:204FE0001EF01AFA06F1420120461BF075FE20461EF0BCFE0025074640F6FF7043F248317E
:205000002B4638807548BD70425CFB703D1D12092CD30322AC393A714018202208A97A7115
:205020001EF05CFA9DF8200020B9787900F0FE00787103E0687840F00100687006F11801DA
:2050400004A81DF0FBFD04A90A6806A8026009790171A91C1DF062F905F1120706F1100039
:205060000168406839601E21786000E0042120461EF0E0F9F078411CF170216806F13C0833
:20508000887039E0FEE7D6F880202168E0681546B5E880502346A3E8805095E8A01083E8B7
:2050A000A0102160E06020681168928811F086FE06F13C089FE006F13C004FF6FF71804677
:2050C00017F0D0FB96F8290040F603010022A071204618F074FC20464FF6FF711DF068FF6D
:2050E00020464FF6FF711DF0CDF8204607211EF025FC2068002181700420207496F83000F6
:20510000607420680078000975D320460DF121011EF0F6FA9DF82100002851D0083829D0AE
:20512000083870D1404D2868049005F11F07A760D6F80C112046491CC6F80C111CF04CFB36
:2051400020461EF029FE2268FF2802EB000110D0105C00F018001FF08DF80246481D04A9D3
:2051600011F02CFE05F10409FF2120461CF09CFE3DE0FEE7194D43F2F827A7F1440A0AF138
:2051800014002818A060A07C4FF44C5B08F1060940082CD2E95920461CF01EFBE85955F80C
:2051A0000B10401CE851814203D805F554500AF05BFC55F80A0000F07F00401CC1B2D4E762
:2051C000064F43F24435A5F110003818A060A07C08F1060940080AD202E0C046201B00204B
:2051E000795920461CF0F8FA7859401C7851204649460EF0E7FB0020707140461DF0E7FE35
:2052000020B9FFE709E0FEE7D44F00200022304621460B23A28000F0D5FD0BB0BDE8F08FCE
:20522000714E002010820020B85F02002DE9F04F1446666A05468A4608469946ADF1440D0E
:2052400000210DF12A021CF0D3FC002840F0E581504612210AAA1CF0CBFC002840F0DD8164
:20526000BDF828000228C0F2D88151460EAA1FF0B5FC002840F0D18195F870209DF8400071
:205280000027824205D105F168010EA81DF0C4F910B1002F00F0C18104F1100002A91EF08E
:2052A00022FA687A022808D105F10C0002A91FF044F810B1012085F88000284651466A4661
:2052C00017F08CFD002840F0A881504610210DF141021DF063FC002840F09F811FF0E0FAE8
:2052E00096F903101EF0B4FF04469DF84100A042B8BF9DF8414020461FF0F6FC80460F215F
:205300000C220BAB50461AF05AFE002840F085819DF82D004FF0010B0A2802D2072840F0E1
:205320007C81BBF1000F00F07881D5F8BC3143B302A90A6806A8026049684160BDF82A00BE
:20534000ADF8200096F903009DF82F108DF822009DF92E208DF8241090119DF831108DF8E2
:2053600023009DF830208DF8261028468DF825201EF09AFE1A46D5F8C0118DF8270006A834
:20538000904795F8A60000F00F00032840F0AB8005F18C0002A91EF0D0FF002840F0A380F9
:2053A00095F8B32095F8AC00BDF82AE09DF82830414602F003028242DCBF95F8B30000F09B
:2053C0000300884240F088809DF82EC040F2FF11384611EA0E0F08BF5846B5F8A420394618
:2053E0006FF35F2202B95946814273D195F972104FFA8CF08011814265D19DF82F1095F8A9
:2054000073208A425BD195F8A8109DF82DC0994251D1BCF10A0F38BF4FF4A06006D3BDF8AF
:2054200035100806000C40EA212080B2B5F8761081422DD1BCF10A0F34BF5A469DF8372037
:2054400095F878109DF83000914217D195F8741081420FD19DF8310095F87510814205D192
:2054600095F87E003A46A04223DA21E081423A461FDA1DE081423A461BDA19E0BCF10A0F91
:2054800034BF58469DF837003A46814211DA0FE0BCF10A0F38BF4FF4A06006D3BDF83520AF
:2054A0001006000C40EA222080B281423A4600DA5A4610460EE0994238460BDA09E08A4238
:2054C000384607DA05E04FFA8CF238469211914200DA5846034603E03B468842B8BF5B46C6
:2054E000181C00F09A805046052104AA1AF084FE002840F092805046082105AA1AF07CFE1C
:2055000020B1173840F089800498059005F1B40251461FF06BFB00287FD102A90A6805F1BE
:205520008C00026049684160A5F8AE70A5F8B070B84685F8AC80049BC5F89830BDF82A0009
:20554000A5F8A400059AC5F89C207F209DF8283085F8AD0095F8A62085F8A83042F0F00072
:2055600085F8A60005F1AA00078096F903101AF0E6FF9DF8410085F8A7801FF0B5FB95F88A
:20558000B31095F8A6609DF82F2000F0030001F0FC019DF92E30C5F8A090084385F8B30094
:2055A0009DF8301085F8732006F0F00085F8741040F003009DF8316085F8A6009DF82D10D1
:2055C00085F8756098119DF8323085F872000A2985F8603038BF4FF4A06006D3BDF835208D
:2055E0001006000C40EA222080B2A5F876000A2934BF58469DF83700694685F8780006C9D5
:2056000005F1840080E806009DF834000228B8BF5F4685F87E4085F87F7011B0BDE8F08F07
:205620002DE9F0470F464FF0000804464146ADF1180D9146101C8DF81210D4F8C8108DF81A
:20564000088001F10101C4F8C81040F09181002F00F0C68120784008C0F09B81384618F060
:205660003DFD0546FF2D08D0BE8838461DF063FD40198642A8BF464600DA06265FEA0609FE
:2056800040F076813846694617F029FC38460DF10A0117F0F9FB9DF80800DFF81CA3401E77
:2056A00002D0401E2ED02BE043F2245909F1820E5046AEF1020CACF17E01BDF80050435C72
:2056C0004246012603F00F03072B04D0012B18BF062B05D126B11EB130F809309D420BD045
:2056E00010F80E3003F00F03072B07D130F80C309D4203D1663100E01A394218104605E0DF
:20570000404603E0C048694616F0BCFB05469DF81200401E13D0401E35D1384605A91DF0DC
:20572000ECFCE088BDF81410884240F03E8104F142010DF10A001EF000FE20BB35E13846CC
:2057400005A91DF0DAFCBDF814104FF6FF70884205D0E188BDF81420914240F026816178B7
:20576000890809D39DF812204146012A03D1BDF80A20904207D031B9B4F84000BDF80A1042
:20578000884240F012819DF80800401E02D0401E0BD012E0002D00F01D8129686846016029
:2057A0006E68466002238DF8083004F1420168461EF0C3FD002840F007819DF812004146C9
:2057C000012805D1BDF80A004FF6FF72824206D029B9D4F8CC00401CC4F8CC0004E0D4F8AD
:2057E000D000401CC4F8D00039466A462B4604F0F3FD814630B11D3840F0B780A0780628C3
:2058000040F0B380504643F2F846805D40080ED31AF806003B6800F087000AF8060018784C
:20582000400904D3A6F11800504410F02FF845B397F9101005F11E001AF081FE3868017880
:2058400008091ED3A87E00F00F00401E04D0401F02D0401E15D0BDE001F00701454603292E
:205860008DF816500AD138460DF116011DF0F6F920B99DF81600042808BF0125002D00F019
:205880008880A078401E13D0401E16D0001F19D19DF8120040B104F174001EF015FE2046D2
:2058A0001FF034FA0BF0A2FBB9F1000F0AD05FE03868007810F0070F4ED0207A94F8291096
:2058C000884243D13868007810F0070032D0401E2AD0801E3AD138460DF117011DF0BEF970
:2058E0009DF817004146001F17D0C01E0FD1D4F8E00061782778401CC4F8E00007EAE100C3
:2059000040087ED32046032115F08AFD79E0D4F8E400401CC4F8E40004E0D4F8D800401CEF
:20592000C4F8D80059B16CE0D4F8D400401CC4F8D40004E0D4F8DC00401CC4F8DC00943E9F
:2059400039460AEB060001F01DFD0EE0D4F8E400401CC4F8E40008E0D4F8DC003946401CBD
:20596000C4F8DC0020461CF07AFCB9F1000F48D04846083840D0093838D0401E30D0401EF3
:2059800028D0401E20D0401E18D0401E0DD0C01F05D0D4F80801401CC4F8080131E0D4F8B9
:2059A000F000401CC4F8F0002BE0D4F8EC00401CC4F8EC0025E0C046201B0020D4F8E8000E
:2059C000401CC4F8E8001CE0D4F8FC00401CC4F8FC0016E0D4F8F800401CC4F8F80010E035
:2059E000D4F8F400401CC4F8F4000AE0D4F80401401CC4F8040104E0D4F80001401CC4F83A
:205A0000000106B0BDE8F087205000202DE9F04F09AF38897C680D469346ADF1240D02284C
:205A2000059304EB000106948846C0F0C5812078667846EA002670134003B0F5C04F40F00A
:205A4000BB814FF0000A01208DF804A0310A8DF80CA004F102040790DFF85893089017D335
:205A6000A04540F2A981217848466A46091114F039FD08B1CDF81CA014F8011B02AA48461E
:205A800001F00F0114F02EFD08B1CDF820A009E0484651466A4614F025FD4846514602AAE3
:205AA00014F020FD28465146282213F0F5FC504606F4C05260232860B2F5C05F2B702FD075
:205AC000A04540F2798120786978801020F00F0008436870310B0CD221782A7814F8013BCD
:205AE000C1F383011143297003F0030140EA81106870700B14D2E01C8045C0F05D812078AF
:205B000069786278AB7800F00F000843A1786870E41C42EA0300EB78A87041EA0300E8703C
:205B2000F00A4FEAA62907D2A04540F2458114F8010BA871504600E001208BF8000006F468
:205B40004070B0F580700FD0B0F580700AD0B0F5807005D0A04540F22F8114F8010B04E085
:205B6000FF2002E0402000E00120E87116F0300026D0103818D0103802D010382FD034E099
:205B8000A01C8045C0F0188105F10800FF2105F10803C172FE221A73218805F1080303F19E
:205BA0000E00A41C018020E004F108008045C0F0038105F1080021461EF066FE083414E099
:205BC000F00912D204F110008045C0F0F58005F108002146102211F0F1F8103405E00598B2
:205BE00005F10802694614F0B7F816F0300F10D0F00909D30798002800F0DE8005F1080135
:205C000068461EF08FFE04E005F1080048F2FE010180300952D216F003002BD0401E1DD0F3
:205C2000401E07D0386805F1180202A914F094F878B3C1E0A01C8045C0F0BE8005F11800FB
:205C4000FF2105F11807C172FE233B73218805F1180202F10E00A41C01801AE004F108001B
:205C60008045C0F0A98005F1180021461EF00CFE08340EE0F00880F09F8004F1100080457E
:205C8000C0F09A8005F118002146102211F096F81034F00808D216F0030F7AD005F118007E
:205CA00048F2FE01018074E00898002800F0848005F1180102A81EF035FE6AE005F11800C8
:205CC000FF210170F0083FD216F0030030D0401E1FD0401E0BD0A0456ED905F1180002213E
:205CE000417014F8010B05F11807F87351E0201D804561D3207805F1180105F11807661CB6
:205D0000487007F10D003288B1780280241D81703FE0A01D80454FD3207805F1180148700D
:205D2000601C027905F1180707F10B010A712DE004F1100080453FD305F118002146102248
:205D400011F03CF8103424E016F0030F34D1A01D804531D3089878B3207805F118014870F9
:205D6000607805F11807B8709DF80C0005F11806F070029905F11803181D0A684968026093
:205D800005F118074160A01C07F10C010068A41D08605FEA590009D3A0450DD9217804AA6B
:205DA00018F077F940B99DF81000A8710698201A04E0C046E85100204FF0FF3009B0BDE8CD
:205DC000F08F70472DE9FE4F0D460746A88898461646E8B10846002469468DF8084017F092
:205DE00053F89DF80800012805D1BDF800004FF6FF71814200D05CB17879401CC0B278710A
:205E000028B907F13C001DF0E2F8BDE8FE8F7C71B878401E00F09B81801E00F08B81D24C15
:205E2000401E00F0AA80401E03D0801E00F087817FE1A8884FF0000920B1286800788009E9
:205E4000C0F09A80B8F1000F10D17EB1387840080CD330680078400908D307F174006421B4
:205E60001DF0EAFE3846062115F0DAFAD7F8A000401CC7F8A00038461EF048FF204643F217
:205E8000F844215C8DF8089000F5145A4908C0F059810646A88858B12846694616F0F4FF53
:205EA000A4F19400294642466B4630180EF094F91DF006FB807E183C331910F00F0F53D051
:205EC0005FEA0801484616D00B3942D0091F40D09AF8F91F01F0F002491C01F00F01114327
:205EE0008AF8F91F01F00C01042925DA9AF8F81FCA081ED22FE09AF8F91F31F00F0614D0A0
:205F000001F00F0201F0F001F03101F0F0011143CEB28AF8F96F36F00F0606D19AF8EB0F3E
:205F200000F003008AF8EB0F01209AF8F81FC90802D2012813D005E19AF8F80F00F0FB000D
:205F40008AF8F80F9AF8F90F00F0F0008AF8F90F05E09AF8F81F41F004018AF8F81F1846F9
:205F6000012111F0F4FCEDE018461AF095FC06F5545017F059F9E5E0FEE7D7F89C00B8F192
:205F8000000F4FF0000900F10100C7F89C0004D0D7F8B400401CC7F8B40038461EF0B6FEF7
:205FA000CA46B8F1000F8DF8089009D0B8F10F0F06D0B8F10B0F18BFB8F10E0F40F0B880BE
:205FC000204643F2B5468119CC7A81F80090002C00F0B8800446A88860B12846694616F040
:205FE00053FFA6F15100424629466B4620180EF0F3F88246A6F11D056119DFF870B108683B
:20600000002800F08B8000F1280C9CF80020D209C0F08D80B8F1000F08D090F8292002F099
:20602000F70280F82920428B21F8022C1F3EA319428B19888A422DDC9CF8000000F0BF00F3
:206040008CF80000D3F8020049461EF085FABAF1000F0AD0D3F8021091F829100AF1240081
:206060008022C1F3C0011CF069FD6319196891F8282012F0030F12D191F82900000903D242
:20608000186C401C18640AE006F13A031859401C185104E01EF060FA295991F82820C2F3FC
:2060A000830EBEF1020F30D0D00937D201F11F030220C84613F801CFBCF1000F2ED1401E75
:2060C000F8D1B8F1010F29D0BEF10A0F0FD1D3110DD09F36A6193078062808D1012086F8FA
:2060E000480004F5545008F0FFFD56F89D1C04F5525016F01DFE661930681EF08BFD2846E9
:206100004946015126F8029C08E0012158462E3E01704FF49671A0191DF08EFD58460B30E9
:20612000007878B1203560191CF0D4F90AE0FEE7FEE7FEE7D7F8A400401CC7F8A4003846CE
:206140001EF0E4FD38460AF051FFBDE8FE8FD7F8A800798D401CC7F8A80007F174001DF09D
:206160006BFDBDE8FE8FC046201B0020D54F00202DE9F84F1E460F4686464FF017084FF061
:20618000060B4FF0030A12E06A780023291ABB708918891C79703AE09CF801100025ACEB93
:2061A0000E007D702C46BC704018801C387039789EF8FE200EEB010C64468A4240F299817D
:2061C000217800204D106D1E16D02D1F1DD1B568DDB1A578A21C35F07F050CBF0421011CC2
:2061E0006046857835F07F050CBFC379C3785B189B1CD9B2501808E035680DB9756825B1F6
:20620000E178C91D04EBE100001D0028C4D061787D7809192D18891CA942BDD9217801227F
:20622000B2EB610F6FD02978BBEB610FACD1B9780029A9D10020804670604FF40172B06886
:20624000C6F80080414613F027F9A078B16800F00F000870A07830F07F0013D1D4F8031034
:20626000D4F80300D4F80330D4F8032001F47F41000640EA0120190A01F47F41014341EA14
:20628000126101E04AF6AA71B0684160A07830F07F000CBFE079E078B16808722146887869
:2062A00030F07F000CBFC91DC91C002801F1010114BFE278E279B068093010F07FFDB2681E
:2062C000297892F8060101F0010100F0FE00014382F806116878B168801E81F80701B068A6
:2062E0006A78291D00F58470921ED2B210F066FD6988B4680806000C40EA2120A4F80002C6
:206300000125BD70F5E02978E1464B1000F09B809B1E7FF439AF316800293FF435AFB97809
:206320004A1CBA706A78B1EBA20FBFF62DAF4FF00008404605EB8107B06018223068C6F828
:206340000480414613F0A8F8E2783068211DD21DD21010F033FD99F803003168BF1C0874DA
:20636000316878880C69000200B28211120A62F309240C6132687988507CC1F3D40101F0DC
:20638000040100F0FB000143517432687988507CC1F3560101F0080100F0F70001435174A8
:2063A00032687988507C0902C90901F0100100F0EF000143517432687988507C09024909EB
:2063C00001F0200100F0DF000143517432687988507C0902C90801F0400100F0BF0001436B
:2063E000517432687988507C0902490801F0800100F07F000143517432682978907C01F0F3
:20640000010100F0FE0001439174398833680806000C40EA2120988232687988907C091286
:20642000890901F0FE0100F0FD000143917432687988907C0912090901F0040100F0FB00EF
:206440000143917455E0716800293FF49DAEB9784A1CBA706A78B2FBFAF2D2B28A427FF73C
:2064600093AE4FF0000801EB4104404647461822B06041467068376013F00EF899F8032053
:20648000706809F10401D21DD21010F097FC99F8030071686419A41C0874716894F9020033
:2064A0008211486962F30100486172682978107D890001F0040100F0FB00014311752188B4
:2064C00073680806000C40EA21205882218872680806000C40EA212083B21EF047FA41466F
:2064E000984208BF0121107D00F0F70040EAC10010754046BDE8F88F2DE9F8431EF0B8F933
:20650000044694F835200027032A03D0042A18BF052A22D194F8B30094F8AC1000F0030088
:206520008842B8BF011C032901D0032A15D094F8A60000F00F0003280FD1607A022806D1D7
:2065400094F8800018B994F87100032805D1204608F0CAFB002800F04B8194F83510081C64
:2065600000F04581DFF8A482401E00F00D81401E00F0E980401E00F03281401E1FD0401E29
:2065800002D0401E52D026E1454643F2082000976946281818F0A8FC18B143F25C30405965
:2065A000009004F58571684619F069F900283DD194F80A11204601221BF077FEC1E0009725
:2065C000617A384602292ED094F836605EBB454642F22821691891F8F12F0646920803D310
:2065E00091F8FC1F490804D31EB994F83410890819D243F208206946281818F075FC18B11E
:2066000043F25C304059009068461CF051F94FF4AF61401C91FBF0F080B260875028BCBF65
:206620005020608783E0012800F08180204639461EF064F804F18C001DF004FD94F83610D6
:2066400073483D46022906D003292ED184F8365011F0DCFA29E04430064611F0D7FA10BB91
:2066600030461BF011F90320022184F8360020461EF044F867490888A0B10846416848F225
:206680004E32A2FB011505EB5105290824BF25F000456D1C32214560B5FBF1F048432D1A2F
:2066A0006D1C02E0FEE784F8365094F8360000283BD194F8710030B1401E32D0401E2ED0F8
:2066C000801E2CD031E0607A022816D0B4F80C014FF6FF7686420CD04F4F94F80B1138464A
:2066E00016F068F8B4F80C1138461BF05FF8A4F80C61204616F098FD17E094F834000009C1
:2067000013D243F2E046394608EB06001CF048F87C3E394608EB060016F072FF05E0394668
:2067200000E00221204608F037FA2F4653E0204605211DF0E3FF012112F030FEFF2084F8B7
:206740000A01678F47E0204603211DF0D7FF94F8A60000F0F00084F8A600304884F880708C
:20676000012116F04DFF94F87100012805D002281CBF391C40F2EE2702D1012140F2E247B9
:20678000204612F00BFE39E094F80B91B4F80C61012923D12046394614F06CF9454643F202
:2067A0005830295CB84604F58872801E2B5A84F80B11811F6D18A4F80C314946284682E8BB
:2067C000800115F0F7FF314628461AF0EFFF204601210CF0E9FA8FB9BDE8F883FEE7204646
:2067E00004211DF08BFF012112F0D8FD04E0FEE7204606211DF082FF40F2E24704F13C0074
:2068000039461DF019FABDE8F883C046201B0020284D002010820020704E0020844F002040
:206820002DE9FE4F0D46074628687C68BE6800283AD01EF0BDFAD4F8F0108146012001907F
:2068400008294FF0000088BF0198A968084202D16968084205D0019880F00100C0B2012825
:206860001DD1D4F8C800B8B9C4F8C850C4F8CC500020C4F8D8000146C4F8DC1094F8043115
:20688000C4F8E010002BC4F8E4100CBF01980520D4F8CC10087411E094F8000138B9032032
:2068A000287448461EF022FC0020BDE8FE8FD4F8CC004561C4F8CC5006232B74D4F8CC00BA
:2068C0000021416194F80401012809D1022294F803318E49E06984F80421194319F048F817
:2068E000686810F0704F06D128B104201AF030FB06201AF02DFB02201AF02AFB94F80001CA
:20690000DFF80C82002840F08F80F0692968884240F28A8094F80401002840F0858094F841
:20692000010120B1D4F8F400B0F1FF3F7CD148461EF0DCFBA868B24600280CBF04F1FC0732
:20694000071C6868031C0CBF04F1FE061E1CD4F8F00009282CBF4FF0020BDDF804B0DAF8A8
:206960000000D5F800904168B9F1000F41F00201416008BF191C32D04146A1F11008D4F888
:20698000F010092910D3D8F800104A6831889047D8F80000C168DAF800000A46694690471F
