:020000040004F6
:104000004343313378325231FFFFFFFF0301BFFFDB
:10401000FFFF0001FFFFFFFFFFFFFFFFA8400400BD
:1040200030303031E25005002C00FFFF01BFFFFFB0
:08403000000000000040040044
:1040A80058520020C54B0500F54C0500F54C05009D
:1040B800F54C0500F54C0500F54C0500F54C0500E0
:1040C800F54C0500F54C0500F54C0500F54C0500D0
:1040D800F54C0500F54C0500B54C05000000000046
:1040E800000000000100000000000F0000000E00AA
:1040F8003600000000000000081E00200400000038
:104108000000000000000000200000001C41040026
:104118003000000030000000000000000000000037
:1041280044410400040000000000000001000000F9
:10413800FFFFFFFFFF000000010000000800000073
:104148000000000001000000000200000000000064
:10415800F54C05000000000008000000C044040001
:10416800784104002B8F0400238F0400278F04005C
:1041780095600400C5600400776004002D0000000D
:1041880064410400281E0020040000000000000014
:10419800000000000C000000A84104001800000006
:1041A800180000000000000000000000B8410400F2
:1041B800080000000000000008000000C0440400DF
:1041C800D8410400938F0400558F0400818F0400A8
:1041D800116104003B610400F56004002E0000003A
:1041E800C4410400341E0020040000000000000048
:1041F800000000002400000008420400180000002D
:104208001800000000000000000000001842040030
:10421800080000000000000000002300C44404005F
:104228003C420400998D04004B8E0400D38E040098
:10423800D98E040099610400C3610400716104000F
:104248002B000000581E002024420400901E00206D
:104258000400000000000000000000002000000032
:104268007042040024000000240000000000000048
:10427800000000008C420400000000000000000064
:10428800000000000800000000000000010000001D
:10429800FF2B0120FF3B0120080000002400000044
:1042A800FFFFFFFFB01E0020040000000000000018
:1042B8000000000028000000C8420400240000009C
:1042C800240000000000000000000000E442040098
:1042D80000000000000000000000000008000000CE
:1042E800000000000A000000B81E002004000000C2
:1042F800FFFFFFFFD81E00200400000000000000A0
:10430800000000001400000018430400180000001A
:10431800180000000000000000000000284304000E
:104328000800000000000000399A0400B198040059
:1043380002000000304304002000000000000000DC
:1043480008000000FFFFFFFFE01E0020040000003F
:104358000000000000000000100000006C43040092
:104368001800000018000000000000000000000015
:104378007C43040008000000000000000C0000005E
:10438800FFFFFFFFE81E00200400000000000000FF
:10439800000000001C000000A843040024000000E6
:1043A800240000000000000000000000C4430400D6
:1043B80000000000010000000000000008000000EC
:1043C80000000000FFFFFFFF041F002004000000A2
:1043D800000000000000000038000000EC4304006A
:1043E8002800000028000000000000000000000075
:1043F8000C4404000000000000000000FFFFFFFF65
:10440800000000000800000000000000010000009B
:10441800000000000600000034000000FFFFFFFF5E
:104428006C1F0020040000000000000000000000D5
:1044380054000000444404003C0000003C0000001C
:1044480000000000000000007844040000000000A4
:104458000000000001000000000000000000000053
:104468000000000000000000010000000000000043
:10447800080000000000000001000000000000002B
:104488000000000000000000000200009F8F0400F0
:104498000000000000000000000000000000000014
:1044A800A78F0400010000009444040000000000ED
:1044B800000003002D920400C8440400C84404000E
:1044C80000000000981E0020055D04000D5F040038
:1044D800F58C04008B870400C98C040004000000DC
:1044E800D4440400834B050001000000EC440400A0
:1044F8002000000001000000000000000000000093
:1045080000000000FC440400099404007D760400C7
:104518000F7B0400217E040049800400E385040029
:104528004B8B0400B78C040010450400339804003A
:1045380035980400379804002F980400301E002096
:104548007394040075940400195D040002000000CF
:10455800456173794C696E6B5F696E697420666139
:10456800696C656400000000456173794C696E6B85
:104578005F656E61626C6552784164647246696C0D
:10458800746572206661696C6564000045617379C1
:104598004C696E6B5F726563656976654173796EA8
:1045A80063206661696C6564000000004561737989
:1045B8004C696E6B5F7472616E736D6974206661AD
:1045C800696C65640000000057616974696E672052
:1045D800666F72204E6F646520465720757064615F
:1045E80074652E2E2E00000057616974696E67206D
:1045F800666F7220534345204144432072656164CD
:10460800696E672E2E2E000057616974696E6720E7
:10461800666F72204144432E2E2E00004572726F41
:104628007220696E697469616C697A696E67206263
:104638006F61726420332E335620646F6D61696E2A
:104648002070696E730A00004572726F7220696E7D
:10465800697469616C697A696E6720627574746FD0
:104668006E2070696E730A004572726F72207265EF
:10467800676973746572696E6720627574746F6EAA
:104688002063616C6C6261636B2066756E6374692C
:104698006F6E00004E6F646549443A2030782530CB
:1046A800327800004144433A202530346400000049
:1046B8001B5B324A201B5B303B30484E6F646520E1
:1046C80049443A2030782530327800004E6F6465CE
:1046D800204144432052656164696E673A20253061
:1046E800346400004F414420426C6F636B3A2025CC
:1046F80064206F66202564004F414420426C6F633C
:104708006B20526574726965733A20256400000055
:104718004F41443A20636F6D706C65746564207313
:1047280075636365737366756C6C79004F41443AC1
:1047380020435243206661696C6564004F41443AE6
:104748002061626F72746564000000004F41443A52
:10475800206572726F720000455A5F57534E5F436F
:104768004F4E4E5F44415441000000002062763AAB
:104778000000000000000000000000004F4144203D
:104788004E564D3143433133783252314F414420F4
:104798004E564D314F4144204E564D3143433133EF
:1047A800783252314F4144204E564D3100000000BE
:1047B8000000000000000000BD4A05001C088080C1
:1047C8001D0880801E088080FE0000001404C0A020
:1047D800FE0000001404C0A00A0480A0090480A000
:1047E80008400080FE0000000000000000C2010038
:1047F800FFFFFFFFF8370020000400000000000062
:104808000500000004000000030000008000800094
:10481800F42200205C530400504C0020F0470400B0
:104828003C530400FC4100200448040000000240FE
:104838000A29FF00344A002034480400D01D002013
:10484800684B00200600000006000000FFFFFFFF85
:104858000020040000200000000000000000040008
:104868007C530400384D0020584804007C53040051
:10487800394D0020604804001C0000801D000080A5
:104888001E000080060480800F2005800D048080B3
:104898000C4000800E200580160000801700008064
:1048A800180000800A0480800800008009048080C5
:1048B800FE000000FF0000000000000000000000F3
:1048C80005EC040035A0040001010100000000000F
:1048D800FF0001008D1405000700000000000040E3
:1048E80017FF0000000000000400FFFF08000000A0
:1048F8001000000009080AFF0A000000A453040081
:10490800F4400020E44804000010004006000000C5
:1049180015000000FF000000000000000D0CFFFF64
:10492800544A00202000000001030000000000009D
:10493800BC530400F83D0020104904000E1417046D
:104948000E1438040E1442040E145F040E14680486
:104958000E1471040E147A0453895499298DFDBEDE
:1049680053455425FEAE5C44B7AD5B745B54007090
:10497800A27CAB689F003114AC68A0003114AD680C
:10498800A1003114A27801F801FAF2BEA978AB6847
:104998000EFDAD6892ED06FDA97C40647F04A27807
:1049A8001F8F8FED01EC01BEB7ADB78D5B755B5501
:1049B800A778BF6027EF40E227EF0070A77C7F044D
:1049C80077640000A918889D019C0EB69E1019AF47
:1049D80000AA0AB6FFA839AF07BEA20C0086A088B5
:1049E800088F47FDB79DA2080188018AEBBE4F25B5
:1049F800FEAE5B645B4477447F0456565B655B455B
:104A08000000A20C0100A30C16147F0457565B6625
:104A18005B460000A20C0200A30C16147F04585633
:104A28005B675B470000A20C0400A30C16147F040C
:104A38005B765B56FF86FF03A50C5C64A478A568CB
:104A480037ED05B60000A40CAA7C4065A50CA57836
:104A5800A6680EFD01F85AE90EFD01BE5365B7BD03
:104A68000B7096FB53445424FEAEB7AD53645424E4
:104A7800FEA6007096FBB7AD0000B300B800F000CA
:104A8800000000000000FFFF000000000000000020
:104A9800000000000000000000000000000000000E
:104AA80000001770F11401009E0CB7AD2000498B6F
:104AB800B18D41009F8B3F86010367646725FEA681
:104AC8008E8B7800A68B18009E8B03009E8B9E8B86
:104AD8009164B1ED9089B00CFC1440FDAE1801FD55
:104AE800B11829FD06B6A4180192A41C0010B21C26
:104AF800DE04B2180198B21CAF18009A09B6B218B1
:104B0800AF782F9D05AEA4180192A41C0010B21C0A
:104B1800AE18018DB10C01009E0CB7ADB7ADEDF824
:104B280007F0FF86F863A3EB808600608FED9BEBB0
:104B38009BEBB7AD7970A7FBFB71A6FBA6FB67449F
:104B48008E44B7AD0044403C3834302C2824201C17
:104B5800181400000000007874706C6864605C5879
:104B680054504C485C1120000000000060111000F7
:104B78006211200044010E4052010E403C010E40DB
:104B880000000802444904006C4B04004C4B04002C
:104B980000001800AD0F0500CB0F05000000000055
:104BA80000000000000000008F0000008F000100DE
:104BB8008F0002008F000300900000018F000101A8
:104BC80090000002900000038F0001048F00000590
:104BD8008F0008048F0000048A00000651000000BE
:104BE8007F0001003F0004003F0002003F00010079
:104BF8007F0002008F0002048F0001027864632E98
:104C080072756E74696D652E537461727475703A3D
:104C180020276D6178506173736573272065786309
:104C2800656564656400000000000000FFFFFFFF89
:104C3800FFFFFFFF0000000000000000010101016C
:104C480000C201000300000000000000AFBA040029
:104C58004FBB0400C544002191400021AD40002114
:104C680017410021D940002139450021754500210F
:104C78003D41002149410021554100217141002158
:104C88001F460021BD410021D5410021ED410021F1
:104C98002942002193460021DB0705D000F003F8E4
:104CA8000249087070BD70B5014D2847E004002125
:104CB8001D240200074C657900F009F86179694004
:104CC800490703D50121044A8903116070BD70B5F5
:104CD8000249084780030021081104402D590000AB
:104CE80000F019F8E1B26C290BD0042801D006288D
:104CF80007D10E490978C90703D12178090700D4DB
:104D080002200B490A780C21114202D0094980225D
:104D18000A6003B0F0BDF0B583B0074908470448FE
:104D2800017840229143017004480047C8000021DF
:104D38003301002100E200E041160300231B0300B9
:104D480070B5004700F042FA00480047577F00005E
:104D580000F042FA004800471B8800000599880ABD
:104D6800802805D1134988788007800F00F04CFA15
:104D780000480047D96E00000FB41048C1880029C8
:104D880002D0104600F040FA079B9B0A084D832B7F
:104D980008D1084C23899B0604D500F005F80028A3
:104DA80000D042350FBC284770B5054800470000C1
:104DB8001F0B0200600100211F0B0200800300216D
:104DC800EB090200094B1A780824A243002800D0F6
:104DD80022431A70004A1047838E0000034908785E
:104DE800000701D4024800477047000080030021F3
:104DF8005F7E00000848094A03689A420AD10848B9
:104E08000289084BD21A01D0012A03D1406E064903
:104E180088470399054B1847A8020021BD030200E3
:104E28006001002121180000F1350000BD060000D6
:104E3800044A282090470448012141600348044A55
:104E4800416010474F420000005004400060044099
:104E58008542000070B51F4D2878C4B21E488047AF
:104E68002878032834D1032C32D01C488068400DA0
:104E7800C2071A48014660318030002A03D01F2437
:104E88000C57458802E01E240C570588002C1FD0BB
:104E98001348154A41690079414348101149496945
:104EA800401810494039497F9047400540156942EC
:104EB80088420DDBA8420BDC0C4B996988B202468C
:104EC800090C624309045212801880B208439861A1
:104ED80070BD0000E4020021794100002800002193
:104EE8008003002100030021CB81000040400440E2
:104EF80010B5864C21464031087D012834D18448BC
:104F0800C07D4008C0072FD0204660304279520843
:104F1800D20729D04089800B012825D1087E410974
:104F2800C9070CD0A16F00070988C00F4002090407
:104F380008436066A06F801C00F0ECF913E0744829
:104F480020308069406800280ED0724A002301781A
:104F5800D356591A08D4C90008184178C90703D08C
:104F6800016861664068A0666B48804710BDF8B567
:104F7800664C6A4926462036707B254640350090A7
:104F88002F79B800401880688047002828D16049E8
:104F9800C97D0909C90723D022466432152F20D0BC
:104FA800297E00234F09FF0703D06D7D002D00D017
:104FB8000123009FA56FBB4312D0737B002B0FD03A
:104FC800237D5B060CD5D288920B012A08D1C9082B
:104FD800C90705D0A988890B012901D1002171735E
:104FE800F8BDAB7EE97D012BE3D00023E1E770B586
:104FF800464C2546606A803500281DD15420005D46
:105008000022002817D06420005D8008C00712D055
:10501800A9688888800B01280DD13D48C07D4008CB
:10502800C00708D03A48203080690068002802D0BC
:105038002962A86000E02A6239488047616A00292D
:1050480003D1296A002900D0A96070BDF8B52F4C9A
:10505800344920464030027D002A2FD0807E2546E4
:105068008035032802D0042803D027E00120E87502
:1050780024E06420005D8008C0071FD0A8688088ED
:10508800800B01281AD12248EA7DC07D002A13D05E
:10509800C008C00712D026462036777B88470146CD
:1050A800394308D1217D090605D56988890B01296D
:1050B80001D100217173F8BD8008EAE78847F8BD7F
:1050C800124880300021C175174800470F49403108
:1050D8000871262814D006DC152813D01B280BD0FD
:1050E8001F2804D10AE03D280ED047280AD00B49D2
:1050F80080004018806870470C4870470C4870471B
:105108000C4870470C4870470C48704760010021F4
:10511800C8000021E004002159490200005502009E
:105128008F3D020075300200152A0200B9440021A3
:1051380045440021E743002167430021E94200215B
:1051480010B50C4988470C4A0621515E002907D042
:10515800022905D0092903D0102901D0112907D126
:105168007721C943884201DD002801DD7F20C04343
:1051780010BD0000A96500008003002110B510488B
:10518800C1881048052918D00F4C21684A085200D8
:105198002260A26B52085200A2632160FFF7D0FD83
:1051A800A06B000708D40120206060600020401C2C
:1051B8000C28FCDB1420206210BDFFF7C1FD10BDD8
:1051C800800300213F5B000000600440806B0C49B5
:1051D8000007000F48717047094A0A491823507997
:1051E800CB56497EC018814201DD084602E00F28EF
:1051F80000DD0F20D189090909010143D1817047D8
:10520800E0020021880000210849C979CA08D207AC
:1052180008D0C1400648C90701D0064900E0064940
:10522800491CC1607047002070470000E800002159
:105238002800002188010000500100000122274BAE
:1052480002212548184710B5254880472548406A57
:1052580000280DD124490A200856002809DA401CE4
:1052680007D008462038406A2049884200D1804744
:1052780010BDFFF7E3FF10BD00211E4B1C4A084676
:10528800184701201C49400208601C48FB2201788D
:10529800114001701248EC38004710B5184988478A
:1052A80011492039012807D0020404D500200885B7
:1052B80014484862012010BD4A6A094BEC3B9A42E7
:1052C80001D1114A05E007494A6A104B9A42F2D1C6
:1052D8000F4A4A6210BD0000060800009F06000041
:1052E800A1920200080100215401002163920200EA
:1052F8003F460021B5B4020080E100E080030021B0
:10530800F7960200354600217B4600216995020088
:1053180071460021820881079200C90E0CCAC07824
:10532800CA40494220318B401A431102090A00063B
:10533800084370475D1905005F1905003B1A050011
:10534800651A0500C11A0500771B0500B51B050085
:10535800691C0500E1290500E3290500272A050045
:10536800292A05002D2A05007B2A0500932A050015
:10537800992A0500A12A0500A92A0500AF2A0500D7
:10538800DF2A0500F92A0500472B05005F2B0500D9
:10539800D32B0500112C0500192C0500A92E05009A
:1053A800FF2E05005732050061320500293505003A
:1053B80001380500834305000B4405008B410500B7
:1053C8009341050029460500B5470500BB47050080
:1053D8006D44050073450500794505002F1F05003C
:1053E800551F0500C31F050065200500B1200500F5
:1053F800A1210500AB2105007D220500080600005B
:105408000000000008062082080002000806514536
:10541800000000000806514F94F94500080621EAEB
:105428001C2BC2000806C321084261800806624A94
:1054380010AA468008066084000000000806108450
:105448001040810008064081041084000806008A84
:105458009CA88000080600823E2080000806000004
:1054680000608400080600003E00000008060000F6
:10547800000186000806002108420000080672297B
:10548800AACA270008062182082087000806722079
:1054980084210F800806F842040A2700080610C570
:1054A80024F841000806FA0F020A27000806310806
:1054B8003C8A27000806F8210841040008067228DB
:1054C8009C8A2700080672289E084600080601865E
:1054D80000618000080601860060840008061084C8
:1054E800204081000806000F80F80000080640816F
:1054F8000210840008067220842002000806722028
:105508009AAAA70008067228A2FA28800806F22894
:10551800BC8A2F0008067228208227000806E24865
:10552800A28A4E000806FA083C820F800806FA088C
:105538003C820800080672282E8A278008068A28D6
:10554800BE8A28800806708208208700080638412D
:105558000412460008068A4A30A2488008068208D3
:1055680020820F8008068B6AAA8A288008068A2C5F
:10557800AA9A288008067228A28A27000806F22814
:10558800BC82080008067228A2AA46800806F228EB
:10559800BCA2488008067A081C082F000806F88272
:1055A8000820820008068A28A28A270008068A2876
:1055B800A289420008068A28AAAAA50008068A2500
:1055C8000852288008068A28942082000806F821B4
:1055D80008420F80080671041041070008060204FB
:1055E80008102000080670410410470008062148EA
:1055F800800000000806000000000F8008064081B7
:105608000000000008060007027A27800806820BBF
:10561800328A2F000806000720822700080608267D
:10562800A68A27800806000722FA07000806312400
:1056380038410400080601E8A27827000806820B12
:10564800328A2880080620060820870008061003EA
:10565800041246000806820928C2890008066082EA
:10566800082087000806000D2AAA28800806000BD3
:10567800328A288008060007228A27000806000FB9
:1056880022F2080008060006A67820800806000B0B
:10569800328208000806000720702F000806410E15
:1056A8001041230008060008A28A66800806000840
:1056B800A289420008060008A2AAA5000806000858
:1056C8009421488008060008A27827000806000FE1
:1056D80084210F800806108210208100080620828D
:1056E800082082000806408204208400080642A19F
:1056F800000000000006080700000800100018005D
:1057080020002800300038004000480050005800B1
:1057180060006800700078008000880090009800A1
:10572800A000A800B000B800C000C800D000D80091
:10573800E000E800F000F80000010801100118017D
:105748002001280130013801400148015001580169
:105758006001680170017801800188019001980159
:10576800A001A801B001B801C001C801D001D80149
:10577800E001E801F001F801000208021002180235
:105788002002280230023802400248025002580221
:105798006002680270027802800288029002980211
:1057A800A002A802B002B802C002C802D002D80201
:1057B800E002E802F00200000454040001020003C1
:1057C8000200010380B5002804D008233C220021F0
:1057D80000F005FE01BD80B5002804D0082318227A
:1057E800002100F02BFD01BD704780B5002804D0D2
:1057F80008232422002100F066FD01BD7047DFF870
:105808009004006870470120DFF88814086070472A
:105818000020DFF8801408607047DFF87C04006817
:10582800704718B58FB001208DF8300006A8FFF733
:10583800DCFFDFF8684406AA0121200000F060FDC3
:105848002000FFF7DBFFDFF858140860DFF8544446
:1058580006AA0021200000F053FD2000FFF7CEFF2C
:10586800DFF8441408606846FFF7B5FFDFF83C44EA
:105878006946200000F0E7FC2000FFF7B5FFDFF8DD
:1058880030140860DFF82C442000FFF79BFF4FF42A
:10589800806020620320A061DFF81C04E06100231F
:1058A80022000FF21901DFF8140400F0A2FD10B075
:1058B80010BDDFF80C04007870470000F0B585B023
:1058C80001A800F02AFE01A801F092F8002803D0F0
:1058D800DFF8F00303F098FD012604F027F804F040
:1058E80066F8002809D00122DFF8D413102004F04C
:1058F80038F8C0B2002800D100263000C0B2002815
:1059080019D0082004F0F1F9FFF77DFFFFF785FFB4
:10591800C007FBD5DFF8A8430220DFF8AC130968FD
:1059280049688847207020780028EFD0FFF770FF7B
:10593800082004F073F9DFF88853012201212800B8
:1059480001F09AFD002803D0DFF8800303F05CFD26
:10595800DFF87C432878207002206070DFF87453E9
:1059680001F095FE2860F6B2002E16D10122694694
:10597800112003F0F6FF684604F0E6FD04F004F891
:105988000BE00878002803D11021306802F085F870
:10599800F80602D5012000F0C8F8C54E5FF0FF33C5
:1059A8005FF0FF320021306802F003F80700F807C3
:1059B80032D501F06CFE296881420BD262682B68EF
:1059C800C31AC54909684B43C449B3FBF1F18A18A6
:1059D80062600AE062682B681B1ABF4909684B437A
:1059E800BE49B3FBF1F18A1862602860FFF707FF30
:1059F8002081BB48008860800F2005F0E9F9002865
:105A080001D1012000E00020A072142000900223A0
:105A180094E8070000F092F8B80714D5B148007868
:105A280000280DD0B049032001F08AFD00210FF2B3
:105A3800CD1001F031FC002802D0AC4803F0E4FCA2
:105A4800002000F072F8380708D5A948817D03299D
:105A580004D110F11701153004F0CEFC780797D562
:105A6800A049087800288CD1A24890F8902090F896
:105A78009100824285D200F0A6F889E738B5050082
:105A8800874C5FF0FF31206802F0C4F89448058025
:105A980001218748006802F000F85FF0FF31824872
:105AA800006802F0B7F8934890F898508D4800784D
:105AB800002802D1206802F00EF92800C0B232BDD9
:105AC8002DE9F84381460C0015000026744F5FF05D
:105AD800FF31386802F09EF8DFF8188288F80090E5
:105AE8007748007820702A00D2B218F10D092100F9
:105AF800484605F05FFA88F80C50002088F89100B5
:105B08000020C8F89400002088F89000404601F072
:105B18008FFA002802D0784803F076FC386802F043
:105B2800DAF83000C0B2BDE8F28380B5714981F877
:105B380098005D48006802F0CEF801BD10B50299E2
:105B48006C4C002020706248027862734278A2731D
:105B5800428892B2120AE27342882274028992B28F
:105B6800120A62740289A2744268120EE2744268D0
:105B7800120C22754268120A62754268A275807A10
:105B8800E0750C20207384F89130C4F8941000203C
:105B980084F890004FF47A604143032001F0D0FC70
:105BA800200001F045FA002802D0534803F02CFCED
:105BB80000210FF2490001F06FFB002802D04B488A
:105BC80003F022FC10BD10B54A4C200001F030FA59
:105BD800002802D0484803F017FC00210FF21D00EE
:105BE80001F05AFB002802D0404803F00DFC94F85D
:105BF8009000401C84F8900010BD0000F8B5050026
:105C08000F00384E34783078002805D024480068D2
:105C180002F061F8002030703800C0B2002828D1A6
:105C280015F11500407800280DD1E87D002802D034
:105C38000120307001E00020307002211C4800680B
:105C480001F02BFF23E0E4B2002C0CD02A7D18329F
:105C5800274C2900200005F0ADF9082114480068F8
:105C680001F01BFF13E004211148006801F015FF43
:105C78000DE0FFB2072F05D104210D48006801F09F
:105C88000CFF04E004210A48006801F006FFF1BD9A
:105C980028500940A802504208800240744A002057
:105CA800944C0020904A00209C4C0020804B0020FF
:105CB800984C002024480020F82F0020844700201A
:105CC8003C4D002058450400CC01001070450400EC
:105CD800FC4B0020A04C0020EC420400A0860100F0
:105CE800284D00203D4D00208038010094450400D7
:105CF800AC44002010440020B445040000B589B02D
:105D08000821684603F02AFB09B000BD02F0A9BECD
:105D18002DE9F04381B015462DED028B82B00A685B
:105D28002E68044612F8010B0A60242802BF12F8F4
:105D3800010B0A6053281F464FF0000824D156F87B
:105D4800040BF8612E602B46388B0090FA69B9680D
:105D5800206803F0B4FB8046206830B1B9688845F4
:105D6800A8BFA1F101084044206000202E68F86017
:105D780040463968A1EB080139602E6002B0BDECDD
:105D8800028B01B0BDE8F083662870D1388B0128FA
:105D980008D156F8042B0092104605F05FF941EC43
:105DA800180B06E0F61D26F0070000F1080690ED36
:105DB800008B51EC180B0022002305F073F908D270
:105DC80081F0004141EC180B3869401E012438610C
:105DD80000E0002451EC180BDFF8A822DFF8A83205
:105DE80005F078F90CD80FF2A000F8610721F960E6
:105DF8002E6002B04046BDEC028B01B0BDE8F083D6
:105E080005F080F9814605F0B7F902460B4651ECDA
:105E1800180B05F0C3F90022DFF89C3205F030FAC0
:105E280005F000FB014678690A23042203F0A5FC6B
:105E3800401EF8612E2101700A237A693969121A05
:105E4800FA608A1A494603F098FCF8611CB1401EB2
:105E5800F8612D2101707A69F869121AFA602E60CA
:105E680002B04046BDEC028B01B0BDE8F083F96991
:105E780008700120F8602E6002B04046BDEC028B2D
:105E880001B0BDE8F0830000286572726F722900C6
:105E980000B581B001F03CFDDFF86402C06801B0D4
:105EA8005DF804EB02F04AB800B581B003F050FA8F
:105EB800012818BF01F0C6FB0FF21D0003F0B1FA6C
:105EC80002F056FE02F00EFF01F0BEFF01B05DF8D1
:105ED80004EB02F0E9B8000000B581B001F0B5FFAD
:105EE80002F00EF901B05DF804EB032001F0ABBB42
:105EF80010B50446032001F0A6FB2046BDE810407B
:105F080003F0A8BADFF8D811DFF8D831DFF8D801E4
:105F1800DFF8F0214A611B1A8B61704710B5040045
:105F280088B008BF00200DD0684603F043F9083454
:105F38006B4600222146002003F086F910B100606C
:105F48004460083008B010BD50B150F8042C50F827
:105F5800081CA0F108039A18521A002003F0B0B9DF
:105F68007047DFF8A000006810B14069C00F7047A3
:105F78000120704702F0B6BC02F03BBC02F0A6BCA0
:105F880003F003B802F0E2BF02F0F6BFDFF87400D6
:105F9800006810B18069C00F70470120704702F097
:105FA80087BD02F0B5BD02F045BE0120704702F082
:105FB8003CBD05F091BA02F050BD30B581B004681F
:105FC800A568A84701B030BD10B50368DC68A047D4
:105FD80010BD02F0A2BF02F0A2BF03F014BC03F090
:105FE80016BC03F018BC03F01ABC09B9DFF89C1101
:105FF80003F0C0B801EB410208B9DFF8840200EBF6
:10600800C2007047DC2200202DE9F0418EB0044622
:10601800149F0197002000900E469046DFF83851F3
:1060280002AA2146284603F07CF8009702AB4246B4
:106038003146204602F00EFB40B101210091034693
:10604800DFF81C212146284603F03DF80EB0BDE8D4
:10605800F08100B581B00146012000900023DFF8EF
:106068000021DFF8F40003F02EF801B000BD08604D
:1060780000222D2088808A81DFF8E80088600846A1
:10608800704700000100C0FFFFFFDF4110B588B076
:1060980002AA0193002300930B460021DFF8740144
:1060A80002F0DAFF040008BF002003D002A902F0C2
:1060B80033FF204608B010BD0088C34010B582B039
:1060C8000446002000904FF0FF332168DFF84401B8
:1060D800002202F0F8FF0021216002B010BD00008C
:1060E8000822002058520020584E00200860002244
:1060F8002E2088808A811B488860084670470000E7
:106108003C220020584E002010B588B002AA019306
:10611800002300930B460021104802F09DFF040065
:1061280008BF002003D002A902F0FDFE204608B0F7
:1061380010BD10B582B00446002000904FF0FF3328
:106148002168044A054802F0BEFF0021216002B020
:1061580010BD0000498F0400FC400400E841040021
:1061680059870400A4640400086000222B2088805A
:106178008A81DFF8DC0288600846704701EB41023B
:1061880008B9DFF8D00200EBC20070471C410400D8
:1061980010B58CB002AA0193002300930B4600218E
:1061A800254802F059FF040008BF002003D002A9C7
:1061B80002F0C9FD20460CB010BD10B582B00446EF
:1061C800002000904FF0FF3321681B48002202F0A6
:1061D8007AFF0021216002B010BD000009B9DFF884
:1061E800781202F0C7BFF0B58BB0002704460D4601
:1061F80016460197009702AA2146DFF8600202F0CE
:1062080090FF02AB32462946204601F0E9FA0BB06E
:10621800F0BD00008841040000B581B001460120AE
:1062280000904FF0FF33DFF83822DFF8300202F039
:106238004AFF01B000BD00005042040009B9DFF870
:10624800241202F097BF30B589B004460B460025EA
:106258000195009502AA2146DFF80C0202F061FFC1
:1062680002A9204601F076FB09B030BD18B101EB58
:10627800810200EB0210704708B100EBC1007047C3
:10628800101E002030B589B004460B460025019544
:10629800009502AA2146DFF8D40102F042FF02A9C4
:1062A800204601F06AFC09B030BD00B581B0014656
:1062B800012000904FF0FF330022DFF8B00102F018
:1062C80002FF01B000BD09B9DFF8A41102F052BF06
:1062D80030B58BB0054601920B460024009402AA03
:1062E8000021DFF8900102F0B7FE040008BF00208B
:1062F80004D002AA294601F063FC20460BB030BD49
:1063080070B58CB004460D461346002601960096DB
:1063180002AA2146DFF85C0102F003FF02AA29461F
:10632800204601F04DFC0CB070BD00B581B00146AF
:10633800012000904FF0FF33DFF83C21DFF83401F3
:1063480002F0C1FE01B000BD10B582B004460020C5
:1063580000904FF0FF332168DFF81C21DFF81401AB
:1063680002F0B1FE0021216002B010BD09B9DFF8CA
:106378000C1102F0FFBE01EB410208B9DFF8000181
:1063880000EB02107047F0B58DB004460D461E466E
:106398000023009313463B4F019602AA2146384634
:1063A80002F0BFFE334602AA2946204601F0A6FDA8
:1063B80038B1012100910346334A2146384602F09C
:1063C80082FE0DB0F0BD00B581B0014601200090FD
:1063D80000232D4A2B4802F076FE01B000BD01B91A
:1063E8002A4902F0C7BE4C22514300B92848084444
:1063F8007047F0B591B004460D461E460023009341
:106408001346244F019602AA2146384602F089FE17
:10641800334602AA2946204601F032FF38B101214D
:10642800009103461C4A2146384602F04CFE11B042
:10643800F0BD10B582B0044600200090002321680A
:10644800154A144802F03FFE0021216002B010BD39
:10645800A4640400981E0020C8420400A842040056
:106468001F78040018430400F84204004C43040059
:10647800A843040088430400EB7B0400EC430400B9
:106488000C1F0020CC430400437F04004444040054
:10649800741F002024440400118404007B756E6B73
:1064A8006E6F776E2D696E7374616E63652D6E61A4
:1064B8006D657D0080B5002804D0082324220021C2
:1064C800FFF701FF01BD80B505F024F8002801D1D0
:1064D800012000E00020C0B202BD80B505F01AF826
:1064E800032801D1012000E00020C0B202BD80B520
:1064F80005F010F8042801D1012000E00020C0B206
:1065080002BD0100C9B2002902D0C0B2092801DACF
:10651800012000E00020C0B2704780B5DFF8B41A4F
:10652800102204F057FD01BD00B2C9B251EA004182
:106538000800704770B504000D00202100222600D5
:10654800300005F059F843F6030020800C22A91CFE
:10655800A61C300004F02EFDA87BA17B60F300018F
:10656800A173A87BC0B2C008A17B60F3C301A1736B
:10657800E87B20822869A06170BD38B514001D0031
:10658800DFF85804006801F0A6FB5FF0FF30DFF881
:10659800501408802000800701D5002023E014F063
:1065A800000015F00051002911D100280FD114F076
:1065B800000015F08051002909D1002807D114F0F6
:1065C800000015F08071002901D1002801D00A20AF
:1065D80009E000205FF088518D4203D1844201D147
:1065E8000B2000E00520DFF8F0291168002902D00F
:1065F800C0B21168884731BD0020DFF8E803017890
:10660800042909D1DFF8D409008A400110F5F07097
:106618001421B0FBF1F013E00078072808D1DFF867
:10662800BC09008A0A30C000C821B0FBF1F007E0BD
:10663800DFF8A809008A0A30C0003221B0FBF1F067
:1066480070472DE9F84314001D000621DFF8A06902
:106658002000800771D5DFF88403006801F03BFB58
:106668005FF0FF30DFF878130880DFF88809418889
:10667800B1F5505F58D13179032901D0062176E070
:10668800DFF874492188012908D0807BC0B2C0098D
:10669800C0B200283CD02079012839D1DFF87459DC
:1066A800DFF85879317A3878091A2975DFF85009EE
:1066B8000078002804D00220DFF84819087003E0A9
:1066C8000120DFF8401908703A78DFF8388998F81F
:1066D8000000304410F10801A946484604F06AFC5D
:1066E800287D812812DA2A7D98F80000304439780C
:1066F800084410F1080115F11506300004F05AFCA1
:10670800E0792872A068E860002130E008212EE0D6
:10671800A079012801D1082129E06079012801D157
:106728000A2124E0062122E0408843F20141884200
:1067380001D107211BE0062119E014F0000215F031
:10674800E243002B01D1002A11D0A448006801F0CF
:10675800C2FA5FF0FF30A249088000205FF088513C
:106768008D4203D1844201D10B2100E00A21DFF8D8
:1067780098281068002804D0C9B2DFF89808126871
:106788009047BDE8F18380B59448006801F0A3FA0A
:106798005FF0FF309249088001BD2DE9FC410600F9
:1067A8000425914C00202060002020710020A0606A
:1067B8000020E06000202074002060618B480168A0
:1067C800C9B240F20730FFF7AFFEA061DFF83C081E
:1067D8000078002804D0DFF838080078002801D0B5
:1067E8000120F9E03000C0B2052809D03000C0B25D
:1067F800062805D03000C0B2072801D00220EBE0FF
:10680800774FB7F90000002801D40920E4E00021FF
:106818007248006801F0FEF9002801D10920DBE088
:106828003000C0B2052804D03000C0B2062840F0BD
:106838008780DFF8E48740F60800A8F8000098F899
:106848000C0010F0F00088F80C0098F80C0050F0DC
:10685800800088F80C000020C8F8080098F80E009E
:1068680050F0020088F80E00DFF870078069C8F859
:10687800140098F80E0010F0F30050F0080088F8A3
:106888000E00F6B2052E0AD14FF6FF70A8F81000D8
:1068980098F80E0050F0010088F80E0009E04AF65A
:1068A800AA20A8F8100098F80E0010F0FE0088F84A
:1068B8000E0098F8130010F0F00050F0010088F86E
:1068C8001300DFF82007007800280FD002205FF0BF
:1068D800E241CDE90001DFF8443722004146DFF804
:1068E8000C07006807F0CDFA38800EE002205FF050
:1068F800E241CDE90001DFF8243700224146DFF804
:10690800EC06006807F042FA38800024B8F8020064
:1069180002280FD042F21070DFF804170968B0FBA4
:10692800F1F001F073FC2000441C80B240F2F51134
:106938008842EBDBB8F8020002284BD1002549E079
:10694800DFF8E01640F607000880087B10F0F0003A
:106958000873087B50F08000087300208860887BEB
:1069680050F002008873887B50F004008873DFF8C9
:10697800840600690861C87B10F0F00050F001003F
:10698800C873DFF86006007800280ED002225FF096
:10699800E243CDE90023DFF890362200DFF84C0609
:1069A800006807F06EFA38800DE002225FF0E243DB
:1069B800CDE90023DFF864360022DFF830060068EE
:1069C80007F0E4F93880B7F90000002801D4002561
:1069D80000E004252800C0B2BDE8F681084D00207B
:1069E800EE220020CC4B0020144A0020004D00204D
:1069F8002DE9F04F91B00100002904D1DFF82C06F1
:106A0800FFF78BFD05E01022DFF82046200004F098
:106A1800D1FADFF8F875387800280ED00021DFF8B1
:106A28002C08006801F0F6F8002801D10920CDE211
:106A3800DFF8B805006807F0BEF8DFF814482078DA
:106A480000281DD1DFF80C58280007F0EBFBDFF811
:106A5800080800682860DFF8D4154868002806D0C0
:106A68008868002803D0486868618868A861DFF8EA
:106A7800EC07E86101202070DFF8E40707F0F4F97B
:106A8800DFF8A895D9F80C00DFF8541508601C2128
:106A98000022DFF854452500280004F0ADFD43F638
:106AA800050020807FF04F006074207B10F0F0001C
:106AB8002073607B10F0F00050F003006073207CBE
:106AC80050F001002074207C50F008002074207CD5
:106AD80010F0EF002074E07D10F0F00050F004009A
:106AE800E07544F62060A061012500260024DFF847
:106AF8001085002088F8000099F8000000280BD0C5
:106B080002281FD013D3042856D03CD3062841D0DE
:106B180027D307285BD069E0FFF7D5FC002803D10D
:106B2800FFF7DBFC002800D0002501265FE0FFF717
:106B3800CAFC002805D1FFF7D0FC002801D10125A7
:106B4800012654E0FFF7BFFC002809D1FFF7C5FC78
:106B5800002805D1FFF7CBFC002801D1012501262B
:106B680045E004F0E3FC082802D10025012609E0ED
:106B7800FFF7BDFC002805D004F0D8FC0C2801D094
:106B88000125012633E004F0D1FC052801D10025B8
:106B980001262CE004F0CAFC082802D100250126B1
:106BA80009E0FFF7A4FC002805D004F0BFFC0C287E
:106BB80001D0012501261AE0FFF785FC002805D140
:106BC800FFF78BFC002801D1012501260FE004F016
:106BD800ADFC0C2807D004F0A9FC0D2803D004F064
:106BE800A5FC0E2801D10125012600E00026F6B2F9
:106BF800002E09D1DFF854160868002802D008686A
:106C080001F069F80220E1E1002000E0401C0100E9
:106C1800DFF850261278C9B291421CD22421DFF83D
:106C280048260300DBB24B43D35C99F80060B342BB
:106C3800ECD10300DBB24B431344DFF8306633601A
:106C4800C0B2484310444069002801D1012402E041
:106C5800012088F80000DFF814663068002809D1A0
:106C6800DFF8E8150868002802D0086801F033F852
:106C78000220ABE1EDB2002D08D0302230688168E7
:106C8800DFF8EC55280004F095F907E02022306879
:106C98008168DFF8DC55280004F08CF91822306888
:106CA800C168DFF8D055A946484604F083F9102298
:106CB80030684168DFF8C0A5D146484604F07AF943
:106CC800302230688169DFF82C93CB46584604F0AF
:106CD80071F9E4B2002C05D030680169BF48FFF7AC
:106CE80029FC06E0202230684169BC4C200004F0F1
:106CF80061F9BC4C2078002802D000208AF80000F6
:106D0800BA4EDFF85035DFF868255146DFF86C05D4
:106D180006F04BFE30600020A9F802000020C9F8F8
:106D280004000020C9F8080099F80C0010F0F000E1
:106D380089F80C0099F80C0010F0EF0089F80C00A5
:106D480099F80C0010F09F0089F80C0099F80C00D5
:106D580010F07F0089F80C0099F80D0010F0F00091
:106D680050F0010089F80D0099F80D0010F00F009F
:106D780089F80D0099F80E0010F0FE0089F80E0051
:106D880099F80E0010F0FD0089F80E0099F80E0031
:106D980010F0FB0089F80E0099F80E0050F008007A
:106DA80089F80E0099F80E0010F0EF0089F80E002F
:106DB80099F80E0010F0BF0089F80E0099F80E003F
:106DC80010F07F0089F80E0099F80F0010F0FE000F
:106DD80089F80F0099F80F0010F0FD0089F80F00EE
:106DE80099F80F0050F0080089F80F0099F80F0083
:106DF80010F0EF0089F80F0099F80F0010F0DF008D
:106E080089F80F0099F80F0010F0BF0089F80F00FB
:106E180099F80F0010F07F0089F80F000020C9F8DA
:106E280014008820A9F8180098F80000002815D048
:106E3800DFF84C04C9F810001020B9F81A1060F3F4
:106E48000501A9F81A107FF0030089F81E0099F8C7
:106E58000E0010F0DF0089F80E0013E0DFF82404BC
:106E6800C9F810000820B9F81A1060F30501A9F84C
:106E78001A10002089F81E0099F80E0050F0200022
:106E880089F80E000820B9F81A1060F3CF21A9F884
:106E98001A10B9F81A104FF63F000140A9F81A1055
:106EA800B9F81C104FF6FE700140A9F81C105348A1
:106EB8000078B9F81C1060F34501A9F81C10B9F85E
:106EC8001C104FF63F000140A9F81C100120B9F82A
:106ED8001C1060F3CF21A9F81C1099F81F0010F0BE
:106EE800F00050F0010089F81F0099F81F0010F019
:106EF800EF0089F81F0099F81F0010F09F0089F82B
:106F08001F0099F81F0010F07F0089F81F0000206B
:106F1800C9F82000DFF87003C9F82400DFF86C0313
:106F2800C9F828003448C9F82C002078002822D055
:106F3800DFF82C4300202060002020710020A06092
:106F48000020E0600020207400206061DFF840032A
:106F58000168C9B240F20930FFF7E6FAA0610220E1
:106F68005FF0E241CDE900010023220029003068EA
:106F780007F045F90AE002205FF0E241CDE900019F
:106F8800002300222900306807F027F908A8FFF736
:106F980091FA684602F00EF9DFF8B042206800283E
:106FA8000ED16A4608A90020FFF792F920602068F0
:106FB800002801D1032009E0206800F08CFE02E0DF
:106FC800206800F088FE01203870002011B0BDE86C
:106FD800F08F0000B4470400F04C0020F449002072
:106FE800F84C00204A4D0020AC4A0020FC4C002000
:106FF8004445002038490020444C0020F12200205C
:10700800484D0020F2220020F44C0020464D00207C
:10701800474D0020DC450020C84A00208F67040047
:10702800EC420400504B002083650400CC4B002048
:107038002DE9FE4F07000524894E0020306000200E
:1070480030710020B0600020F06000203074002013
:107058007061DFF83C020168C9B240F20930FFF7FD
:1070680063FAB061DFF8F8030078002804D0DFF88D
:10707800F4030078002801D00120E4E0387B81285F
:1070880001DB0220DFE0714D0021286800F0C2FD1D
:10709800002801D10920D6E0DFF8CC0300780028C9
:1070A80014D0387BDFF8C41309780918891C01F05B
:1070B800FF0151F4C0510220DFF8B4231070DFF84B
:1070C800B403017089B2090A41700BE00120DFF8AE
:1070D800A0130870397BDFF8940300784118DFF8B3
:1070E80094030170DFF8849399F800203900DFF8E1
:1070F80084A3DFF87CB39BF800000AEB0008404645
:1071080003F058FF3A7B17F10D0199F800009BF83E
:10711800003053FA80F00AEB0008404603F04AFFBB
:10712800DFF81884387B99F8001008189BF80010CD
:1071380050FA81F0A8F81000C8F81CA03800FFF732
:107148005BFA8146B868002822D098F80C0010F045
:10715800F00050F0020088F80C0098F80C0050F08D
:10716800800088F80C00B868C8F80800B868306073
:10717800012030714FF47A6000FB09F17161D8F891
:10718800081000FB0919C6F80C90012030741FE0A4
:1071980098F80C0010F0F00088F80C0098F80C0033
:1071A80050F0800088F80C000020C8F80800002083
:1071B8003060002030714FF47A6707FB09F0706186
:1071C80006F0B0FD07FB0909C6F80C9001203074E1
:1071D800DFF8C000007800280DD002205FF0E241FF
:1071E800CDE90001002332004146DFF818040068A9
:1071F80006F047FE0CE002205FF0E241CDE9000115
:10720800002301224146DFF8FC03006806F0BEFDBA
:1072180002225FF0E243010009B2DFF8E8030068E8
:1072280006F01EFF00225FF08853994203D1904276
:1072380001D10B2402E0800700D50024286800F063
:107248004AFD2000C0B2BDE8FE8F0000084D0020B6
:10725800494D0020D44900203C1C0020A2FE00809B
:10726800144A0020A3B10400401C0020044D002053
:1072780008490020384B0020BC4B00204042002029
:107288004E905500DE510B93FC1B00207C4C0020D7
:10729800004D00204A4D00202DE9FC4781460C0096
:1072A8000625DFF858630020306000203071002088
:1072B800B0600020F0600020307400207061DFF8BA
:1072C80048030168C9B240F20730FFF72DF9B061F1
:1072D80063480078002803D062480078002801D06D
:1072E8000120BAE0DFF81873B7F90000002801D4CC
:1072F8000920B2E0DFF814830021D8F8000000F07C
:1073080089FC002801D10920A7E0DFF81803C0F89C
:107318000090DFF8FC028921C18000210171DFF8AB
:10732800F412086000204860DFF8EC92C9F82810D1
:10733800DFF8E8A2C9F82CA0002C13D099F80C00AB
:1073480010F0F00050F0020089F80C0099F80C00D9
:1073580050F0800089F80C00C9F80840346001201A
:10736800307112E099F80C0010F0F00089F80C0068
:1073780099F80C0050F0800089F80C000020C9F83A
:1073880008000020306000203071DFF89C4220683F
:10739800002819D099F81F0010F0F00050F00200F2
:1073A80089F81F0099F81F0050F0800089F81F0025
:1073B80006F0B8FC21680818C9F82000D9F82000A0
:1073C800F0600120307414E099F81F0010F0F0000C
:1073D80050F0010089F81F0099F81F0050F0800054
:1073E80089F81F000020C9F820000020F060002064
:1073F80030740C210022504604F0FEF8DFF8200219
:10740800007800280FD002205FF0E241CDE90001AA
:10741800DFF8183232004946DFF8E801006806F064
:1074280030FD38800DE002205FF0E241CDE9000137
:10743800DFF8F831012249467248006806F0A6FCD8
:107448003880B7F90000002801D4002503E0D8F8F7
:10745800000000F040FC2800C0B2BDE8F68700003C
:10746800464D0020474D0020484D0020F1220020C5
:10747800F2220020744600202DE9F04104000D009E
:10748800160002276A480078002803D06948007867
:10749800002801D001204FE02800C0B2FFF731F8E2
:1074A800002801D1022047E0DFF860810021D8F8E8
:1074B800000000F0AFFB002801D109203CE0002CBF
:1074C8002CD02800C0B2002828D03000C0B2002834
:1074D80024D0280058490978C0B288421ED130000B
:1074E800C0B209281ADA2A00D2B23000C0B2424328
:1074F800524F2100380003F05DFD4748EDB2818B03
:1075080065F345018183F6B2818B66F3CF218183D0
:10751800817B11F07F018173002707E0002C05D1E2
:107528003D48817B51F0800181730027D8F8000025
:1075380000F0D1FB3800C0B2BDE8F081F44900206A
:1075480013B50224C0B200280BD002282AD019D3C0
:10755800042838D032D3062843D03DD3072845D055
:1075680048E00198C0B2FEF7CCFF002809D03248A5
:1075780001990170284900788A8B60F345028A8353
:10758800002437E02A480078002806D001AA002104
:107598001C48006806F078FE02E001982849086057
:1075A800002427E00198002803D001201C49087016
:1075B80002E000201A49087000241BE001981A49CB
:1075C8000860002416E00198032804D201A8007876
:1075D8000D49086000240DE00520FFF7DEF80400DF
:1075E80008E00620FFF7D9F8040003E00720FFF7BA
:1075F800D4F804002000C0B216BD0000144A0020D0
:10760800EE220020FC4C0020004D0020084D0020F8
:10761800444500207C4C002038490020444C002080
:107628004A4D0020F44C0020F81B00204B66040053
:10763800464D0020474D0020F1220020FC1B002071
:107648003C1C0020FEE7DFF808280146107D117574
:107658007047DFF8FC17D1E90023C0E90023704721
:10766800DFF8EC07C1690847DFF8E4170A6A104732
:1076780065E16CE110B5FEF789FC38B1DFF87448B4
:10768800A068FEF78CFCA0614FF0FF3010BD38B544
:10769800FFF7EEFF0446DFF85C0880680021FEF77C
:1076A80082FC05462046FFF7E4FF284632BD70B548
:1076B800FFF7DEFFDFF83C680446B0680021FEF7FC
:1076C80072FC05467069B169451BA94238BF00259F
:1076D800204619E170B5DFF81C6804460D46B0680D
:1076E8002146FEF75EFC3461756170BD2DE9F843F3
:1076F8000D46DFF804180A680446DFF8F8078758CB
:10770800D7F804804FF0FF391AE03E463F68B08A48
:10771800012815D1012C04BFF168A94208D13069AC
:1077280000281ABF4118F160B082F069B169884732
:10773800B08A012804D1F068401B484598BF8146AB
:107748004745E2D14846BDE8F2832DE9F041FFF70D
:107758008FFFDFF8A0470746A0680121FEF723FC4A
:107768000121A1830022E283656922682168461B02
:10777800401AAA1A904203D20020A08338462CE06F
:107788003846FFF776FF002706E07D1929460120D5
:10779800FFF7ACFFF61B0746BE42F6D2FFF768FFBD
:1077A8008046E08B012804D129460020FFF79EFF80
:1077B8000746A06917F1010F08BF064603D0BE1B94
:1077C800B04238BF064671193046FFF783FF0120E3
:1077D80000212084A18325604046BDE8F04148E7A8
:1077E80070B504461D46A26000226869DFF8086784
:1077F800DFF800372061A1612146A869E061A28213
:107808003068184400F0C4F9288A18B12046BDE849
:10781800704049E070BD38B50446FFF729FF0546BA
:10782800204600F0C4F947E010B58260816100226B
:107838000261C36182820146DFF8BC46DFF8B436D4
:107848002068BDE810401844A2E1B0E138B5DFF87F
:10785800A4560446288C012804BFA88B002817D1F9
:10786800A8680121FEF79FFB29686B690246286812
:107878001B1A511A8B420BD3A0688118E1600123AF
:10788800A3826C69A21A90420DD2BDE8344021E768
:10789800FFF7FDFEA1680818E0600120A082A98B0F
:1078A800012908BFE88331BD38B50446FFF7E0FE7B
:1078B80005462046FFF7CAFF2846BDE83240D8E60D
:1078C80000218182DFF82C16C0684A69904203D1F2
:1078D800DFF828180868E7E770478160704770B5D7
:1078E8000446FFF7C5FE0646A08A002501280AD1EE
:1078F800FFF7CDFE0546E068A168451BA9423EBFDB
:107908002069A84200253046FFF7B3FE284670BD1F
:107918007047808A7047704780B500F001F8FCE72F
:1079280038B50024DFF8105804E0686850F82410CF
:107938008847641C28688442F7DB31BD00BFEFF339
:107948001180202181F311887047000000BF80F367
:107958001188704710B50022DFF80838026000214E
:107968001C682044BDE81040FEF78CBC38B50446BE
:10797800FFF7E4FF0546207C022808D1204600F0E6
:1079880016F9002020742946A06800F0DFFD28467B
:10799800BDE83240DAE710B5036804681A400C40C5
:1079A8008C4208BF0A4312B1016891430160104636
:1079B80010BD2DE9F0431C4614F1010F18BF002C2F
:1079C80091B081460D4617460CD06B462246DFF82B
:1079D8006C1708A8FFF728FF08A9039102228DF861
:1079E800102004E00020039003218DF810100021DE
:1079F800DFF8A86706950797059130690290FFF7A9
:107A08009DFF80463A4629464846FFF7C4FF0500D1
:107A18000AD0039818B1FFF718FF002003904046DA
:107A2800FFF794FF284635E024B94046FFF78EFF5C
:107A380000202FE03488DFF83027012030806946A5
:107A4800029881611068484400F098F8029800F0A4
:107A580053FD039828B19DF81010022908BFFFF7BD
:107A6800F5FE4046FFF772FF204600F04EFBFFF799
:107A780065FF0446039818B1FFF7E7FE002003905E
:107A88000020029988612046FFF760FF9DF81000EA
:107A980000B1059811B0BDE8F083F8B50546DFF8E8
:107AA800C4060F4601686E18FFF748FF04462868A9
:107AB80007432F603168B14203D12046BDE8F24048
:107AC80044E7DFF8D8060788012101802846366890
:107AD800F269B169FFF75FFF706160B1304600F08D
:107AE80066F801203074F06808B1FFF7E9FEB06865
:107AF800214600F02BFD2046FFF728FF3846BDE859
:107B0800F24000F002BB38B5DFF89406056800249F
:107B180011E008310CE021460020FEF7A7FBC268FF
:107B28004168002AF5D14919CB1D691E23EA0101D4
:107B380000F00BF8641CDFF8400701688C42EADBB0
:107B480000E001604FF0FF3032BDF8B505460E4643
:107B5800EC6804B96C69002708E0DFF82027106892
:107B68002146284400F014F834447F1CA868874252
:107B7800F3D30020F2BDE2E6E9E600E002E040606F
:107B880000607047426808604A6011604160704751
:107B980038B504460D46FFF7EEFF2C606168696052
:107BA800626815606560FFE7BDE83240E4E7016898
:107BB800426811604168006841607047BFE6C6E6E8
:107BC80010B50446107EDFF8282920726181002153
:107BD80010682044FEF756FB0021216001206060F8
:107BE80010BDDFF80C190A681044FEF75EBB38B503
:107BF8000446FFF7E3FF0546207C022808D120460B
:107C0800FFF7D5FF002020742946A06800F09EFCED
:107C180028468BE070B50C4614F1010F18BF002CF4
:107C28008EB005460AD06B462246DFF8C81805A86C
:107C3800FFF7FAFD05A90391022202E00021039152
:107C480003228DF81020FFF7B9FF06466889A0BB0C
:107C58001CB900F069F800203BE0DFF84005048813
:107C68000121018000690290C0F818D000F044FC9E
:107C7800DFF87C0802686946A818FFF77FFF9DF8BF
:107C88001000022804BF0398FFF7E0FD00F04CF84D
:107C9800204600F03AFAFFF791FF0446039818B11E
:107CA800FFF7D3FD00200390002002998861204649
:107CB800FFF785FF9DF810000BE06889411E698178
:107CC800039818B1FFF7C1FD0020039000F02CF8CD
:107CD80001200EB070BDF8B501F014FEFFF76EFF7D
:107CE8000646DFF80C0800682A5829188A4207D186
:107CF800287AC1074EBF01206889401C68810DE0C1
:107D08002F583A682A50516001203874F86808B131
:107D1800FFF7D6FDB868314600F018FC00F004F80B
:107D28002046BDE8F240F0E1304648E7BDE8324081
:107D380045E7FEF7A1BA02E6EFF31180002101E65C
:107D480005E60000B0FA80F0C0F11F0070472DE989
:107D5800F8430446DFF86458A06AD5F81080EF6845
:107D6800AE682861EC600022606AA860A2830120E6
:107D7800216A61622A80FFF766FC8146FFF7DCFF13
:107D88002169E068A2689047FFF7D5FF4846FFF7EA
:107D98005AFC01202880C5F81080EF60AE60BDE86D
:107DA800F18338B5DFF8144825696068FFF7CAFF22
:107DB800616901EBC00100F082F8606830B1FFF73B
:107DC800C1FF616901EBC0018D42F4D331BD70B5CB
:107DD800DFF8E8472669FFF7AEFF05466068FFF75A
:107DE800B1FF616901EBC000864211D2DFF8AC0334
:107DF800068801210180DFF8D00706F025FB002066
:107E080020802846FFF79CFF3046BDE870407CE1A3
:107E1800002020802846D3E010B5002404E0214645
:107E28000020FEF7A8FA641CDFF8940701688C426A
:107E3800F5DBDFF890170A68002000E0401C90424C
:107E4800FCD34FF0FF3010BD04E0DFF8701758E1A5
:107E5800DC2100200020002800D0704780B5FFF703
:107E68006AFFDFF85827516821B1FFF769FFFFF76C
:107E7800AEFF02E01180FFF763FF01F027FDBDE8C8
:107E8800024042E1002800D0704738B5DFF82C479F
:107E9800606888B1FFF750FFFFF74DFF25696068FC
:107EA800FFF750FF616901EBC0018D4204D200F079
:107EB80006F860680028F3D10020208031BD0868EA
:107EC80002680A6051600A688A4203D1616882695F
:107ED800914361603BE7DFF8E4068068704710B5BE
:107EE8000446DFF81438FEF74EFAA06800B90024FB
:107EF800204610BD3C220020A442040010B50446D0
:107F080064602460A1601069E06051692161906932
:107F180010F1010F08BF05206061012160698140EF
:107F2800A1610021A183D06961696062D26922627E
:107F380000F049F8A062002010BD7047F8B505466A
:107F4800FFF7F9FE0446A88B18B12046BDE8F240B9
:107F5800F6E60120DFF86466A88329463788308072
:107F6800A86AFFF70BFE7168A86901437160204693
:107F7800FFF7E6FE17B9BDE8F14028E7F1BD38B5CF
:107F880004460D46FFF7D7FE616A0D436562FFF7A9
:107F9800D7FE2046BDE83240D0E770B50D4615F152
:107FA800010F044608BF0525FFF7C5FE0646012058
:107FB800A840A0616561294600F005F8A062304636
:107FC800BDE87040BCE6DFF8F4255069B1E6FFF77C
:107FD800B6BCEFF311800021FFF7B4BCFFF7B7BCC4
:107FE80000000000B0FA80F0C0F11F00704710B523
:107FF8006A4C0020208101E000F0C0FA6068002887
:10800800FAD06068FFF7EEFFA169626901EBC00072
:10801800824209D2226960610068206100F1100182
:1080280002F11000FDF7C5FF20890028E1D110BD3D
:1080380010B5DFF8AC48208908B1FFF7D8FF74E025
:1080480038B5FDF7B2FF70B30024DFF8685807E0D1
:10805800686818216143415809B120468847641C63
:1080680028688442F4DB002407E021460020FEF75C
:10807800BAF9002100F065F9641CDFF810080168FE
:108088008C42F2DB0024454D06E0286B50F82400B2
:10809800002100F056F9641CDFF89C0801688C4246
:1080A800F3D34FF0FF3032BD002010B594B0FFF786
:1080B8008EFFDFF82C4801E000F060FA60680028C5
:1080C800FAD06068FFF78EFFA16901EBC00060611C
:1080D80000682061002020810220FFF7B4FAFFF732
:1080E80078FFFFF774FFFDF749FF206900F11001E1
:1080F80004A8FDF75EFF14B010BD0000F0420400B4
:108108002649088801220A807047002800D0704755
:1081180010B5FFF75CFF214C2089012801BFDFF86B
:108128009C1408880028FFF762FF00202080BDE823
:1081380010404EE700000000384304007579040041
:10814800002800D0704710B5144C2089012801BFC1
:10815800DFF8681408880028FFF749FF002020800E
:1081680010BD0000F4420400F4420400808F01288E
:1081780000D0704710B5FFF72AFFDFF864170446F0
:10818800C868401EC86005D12046FFF727FF0020B9
:10819800FFF76AFA2046BDE810401FE78422002056
:1081A80048430400F8B5DFF83857DFF808672C694A
:1081B800002709E07068182200F110017A438958F5
:1081C80009B1204688477F1C30688742F2DB2E8839
:1081D80001212980FFF7FBFE0546204600F08CF9B7
:1081E800032020752046FFF7C1FF2846FFF7F6FE5B
:1081F800646024603046BDE8F24086E738B504463E
:10820800FFF7E5FE0546A068294698E1020000D17F
:10821800704730B58DB06B46DFF8541704A8FFF7E8
:1082280003FB04A90391FFF7D2FE01F029FB0069C3
:10823800029000F061F90398FFF708FBCDF804D02D
:10824800CDF800D00298C0F818D02046FFF7C6FE37
:108258002846FFF75AFFFFF7BAFE04460398FFF7D0
:10826800F4FA002003902046FFF7B8FE0299002098
:1082780088610DB030BD0000444304004043040051
:108288002DE9F04116460546B069A8600F46706AA8
:10829800002803BFDFF8DC06016869626862346A97
:1082A800984614B9DFF8D0060468FDF784FE421E2C
:1082B800F169D24369B338B14018401E1040241AFE
:1082C8000C192862144000E029624FF0FF30EC617D
:1082D8006862AF623069E86271692963B06A68638D
:1082E800B08DA887012804D1DFF8F405C168491CBE
:1082F800C160DFF8C005016800291ADD01F00AFB3A
:1083080043460022890000F0D5FFA86388B90220FF
:1083180015E010B10419641E1440EC610246E969C5
:10832800686A434600F090FF00282862D1D10120F6
:1083380005E04146284600F004F800B1801CBDE87D
:10834800F081F8B50D4688B004462B46DFF82C2698
:10835800DFF82C16FDF72BFE206108B9012051E04B
:10836800012020750021DFF89003A161854203D127
:10837800684600F01FFF6D460027DFF8386500E00B
:108388007F1C3068874214DAA06B002140F8271060
:1083980018227168081D7A438258002AF0D02946AD
:1083A80020469047284600F00FFF0028E8D0B81C68
:1083B80028E0A068DFF8285500280AD50021DFF852
:1083C800C805E16021460268A8182064FFF7E0FBB1
:1083D80017E0A06801218140E160A168A869FDF764
:1083E8004BFF206401202E882880FFF7F0FD05460A
:1083F800204600F09DF82846FFF7F0FD3046FFF7CD
:1084080084FE002009B0F0BD2DE9F8450C000546B2
:1084180042D1DFF8CC743E8801203880FFF7D7FDC1
:108428008046287D012810D12846FFF7C0FB286C1C
:108438000168814203D17A68E86882437A60A86952
:1084480078B1C06808B1FFF700FA287D022808D182
:10845800A86968B1FFF7ABFBA869C06808B1FFF766
:10846800F4F9287D032803D12846FFF7A0FB02E092
:108478002846FFF77BFE4046FFF7B0FD3046FFF782
:1084880044FE686A10F1010F03D0EA69296A00F016
:1084980017FF022C03D128E0012CF2D125E0032C90
:1084A80023D0DFF81084D8F80070002F1DDD002CD1
:1084B8000CBF3E46261F4FF0000A18240BE0D8F8E0
:1084C800040000F1140104FB0AF2895809B1284696
:1084D80088470AF1010AB245F1DBA96B01F01AFAE3
:1084E800BA00BDE8F84500F0EBBEBDE8F185000034
:1084F80084430400F77B04002DE9F0410446DFF8CB
:10850800E053D4F840806E68E768FFF750FBD8F86E
:108518000010414504BFBE436E602869A04204BFF5
:10852800002169610220207501212981BDE8F081BF
:1085380038B50446FFF74BFD05462946204600F0AE
:1085480005F82846BDE83240FFF748BD2DE9F0415F
:10855800DFF88C63776804468846E568206C214616
:10856800FFF70CFB2F4377600120207530814046D0
:10857800FFF734FDBDE8F041FFF729BD80B5DFF80E
:108588000C04DFF80C240068904204D1FFF721FDA9
:10859800FFF7C6F90CE050B9FFF71BFD002001E01A
:1085A8000098401C009000980028F9D000E080470F
:1085B800BDE80140FFF70BBD000000006822002065
:1085C8001444040018440400AB7D0400FFF7B7B955
:1085D800EFF311800021FFF7B5B910B5FFF7F6FFEB
:1085E800DFF8B0134A698869D20800EBC202083A7A
:1085F8000A6100244FF0FF320A6007E0214600209C
:10860800FDF7F8FC002100F079F8641CDFF8880316
:1086180001688C42F2DBFFF714BCF8B50446DFF8BA
:108628007C03DFF870730668F8690D4650F825106A
:10863800B1420BD1DFF84C03009029462046FDF7E4
:10864800E3FCF86950F82510B14201D10020F2BDD1
:108658002046F2BDFEB51746DFF8442305461E4600
:10866800DFF840031368089C0088994209DBDFF8AB
:10867800386337680191002502950097A6230022E8
:1086880013E0DFF81023DFF814C36982D36953F8C5
:108698002120DCF800309A420DD001910022DFF849
:1086A8000C130B6800930292AF230146204600F09A
:1086B8009BFD0120FEBD084600F0A8F8AF60706978
:1086C8006860306A10F1010F08BFFF20287400218C
:1086D800E960308B08B10121E960B08C18B1E86815
:1086E80040F00200E8602146284600F007F800B193
:1086F800801CFEBD00000000E81D002038B50446BF
:10870800217BB4F912008A07054602D5217C20296D
:1087180007D2A16800F0D0F8B4F912004042608294
:1087280009E0DFF87012486ADFF8E81240F82540DF
:10873800284600F0C1F8217C284600F0EFF8207B9D
:10874800C10744BF284600F079F80020E06032BD38
:10875800012900D1704710B5B0F91240200048BF78
:108768006442204600F052F8DFF8300201682046E3
:1087780000F0A2F8DFF81C124A6A002042F8240030
:1087880010BD70B5DFF80C02DFF82412C069DFF8FD
:10879800243201F60852106014689C4210D000245C
:1087A80009E00F2C26BFDFF8F4512D6853F8245048
:1087B80040F82450641CDFF8E8512E68B442F0D326
:1087C800DFF8F44153682568DFF84C0223F47F434F
:1087D80003EB0523C31853602023DFF88C0293763C
:1087E8000468D460D1F8340F20F04040C1F8340F49
:1087F80070BDEDE6000000002021EFF3118081F349
:108808001188704780F311887047000010B5102850
:10881800DFF89C1104D300F028F8C1F880310AE091
:108828000F2807D108690A6932F0020200F0020035
:108838000A6100E0002000BF10BD000010B510283C
:10884800DFF86C1104D300F010F8C1F800310AE029
:108858000F2807D108690A6952F0020200F00200E5
:108868000A6100E0002000BF10BDA0F1100252090B
:1088780001EB8201B0F11003012403F01F03D1F8CA
:10888800000104FA03F31840704700008044040014
:1088980010280DD3A0F11002DFF81411520901EBD2
:1088A80082031038012100F01F008140C3F88012B4
:1088B80070470000AC440400DFF8D820D36903EB0C
:1088C800800002688A4218BF0160704710B5DFF85F
:1088D800C440206905F0C8FD0021216010BD0000DA
:1088E8008422002070B50246DFF8A800836953602F
:1088F8004469946025462878BE2803D001200021C9
:10890800116070BD00200029F9D015F8016FBE2E46
:10891800FBD0691E5B1AE318136070BDDFF8902066
:108928001028024402D382F8F0137047042828BFA5
:1089380082F8141D70470000B4440400816042604E
:108948007047102804D3DFF868101038C1F8000FFA
:10895800704710B5DFF83C305C6801222280DFF8F0
:108968003422126812B1BDE81040104710BD000053
:10897800058204008C44040090440400AD81040086
:1089880039800400E81D00202044040088440400C5
:1089980029790400082200204C41040058410400B1
:1089A800F840040062B00400F4400400F040040001
:1089B80000E000E0A84004005C4104002DE9F0411B
:1089C8000446FFF703FEDFF86402058801210180F1
:1089D800DFF85C02068801800020FEF734FE80463E
:1089E800DFF87006DFF88027416AD2F8040D00F03E
:1089F800FF0051F82070FC60FFF7EAFD7868B9685D
:108A08008847FFF7E3FD4046FEF71DFE06EB05200D
:108A1800BDE8F081D54B05000000FA0500F0FF0025
:108A2800FFF730BA000AFFF78BBB7CB504460D464A
:108A3800E169164619B1206ABE2202F0DDFD216BFC
:108A480001912B46E06A00903246A16A206AE469E7
:108A58002018001F02F0FAFC76BDDFF81007006846
:108A6800704705F02DBD000050410400FEF767BFB8
:108A7800FEF76DBFDFF86C17C20744BF01230B6018
:108A8800820744BF4FF480730B60400744BF4FF424
:108A980080320A60704710B5DFF86427C30748BF03
:108AA8001160840748BF5160400748BF916010BDFE
:108AB80020B502460020D2E90A2347F6906105F066
:108AC800A3FD0125A94228BF4FF0FF3020BD38B5CE
:108AD8000C4605F0B1FE0500DFF82C07006818BF4A
:108AE8000125811D201AB0F1004F05D8081BB0F1EF
:108AF800004F38BF8C4200D20C4621460120FFF7B8
:108B0800CAFFADB21DB9BDE8314005F099BE31BD0F
:108B18002DE9F84C05460C46D5E90AABD5E90C67B2
:108B2800AAFB04010BFB041136184F41340C002238
:108B380044EA07412846FFF7CAFFC5E90E67BDE8C2
:108B4800F18C80B5DFF8C416086800281EBFDFF86E
:108B5800B4164868002804D0818811B1002100F0BB
:108B680099F802E00000162101604FF0FF3002BDC5
:108B7800DFF89816086800281EBFDFF888164868CE
:108B8800002806D0818821B1017B002908BF00F0A8
:108B980003B87047544104002DE9F0410746FFF738
:108BA80065FF8046DFF86856DFF868460120E8610F
:108BB8000126FFF75FFFE16A0A6A142090473969C6
:108BC800B1F5802F34BF0421090C0120FFF763FFA2
:108BD80022681368232100209847DFF83C26DFF835
:108BE8003C361660186800B10326DFF834160868AA
:108BF80008B146F00406DFF84C06016821F4E021CC
:108C080041EA06410160012028604046BDE8F04184
:108C18002EE710B5DFF828164C680120FFF72AFF69
:108C28006069A169BDE8104008470000842200205F
:108C380068220020F8B50446DFF834050D460168BF
:108C48000E6BB047D4E90A6732463B4605F0DCFCB8
:108C58003DB1A6FB002306FB013307FB0033C4E943
:108C68000C23F2BD10B5DFF8A805DFF84446002153
:108C780001600122C2610121216001202268FFF701
:108C8800F9FEDFF864160A68136A1420984720680A
:108C980010BD000038B50446FFF7E8FE054620463B
:108CA800FFF7E0FF2846FFF7E3FE002032BD80B55E
:108CB800FDF757F908B14FF0FF3002BDFDF75AB97B
:108CC800F8B5002101A8FFF7F9FF0398009004E028
:108CD800BE2101700099491C009100986845F7D39E
:108CE80005B000BDFDF748B9FDF748BA70B50026D4
:108CF800DFF8F85518E031460020FFF7F5FF0024AB
:108D0800816821B9DFF8E82511688160012400F045
:108D180011F834B12B684269591AB1FBF2F14A4390
:108D2800026100F02DF8761CDFF8CC0501688E4250
:108D3800E1DB70BD416882688A18521E491E22EA2A
:108D480001018160704710B5DFF8A8350A691B6812
:108D580093422EBF436142610B694A6982608C6904
:108D68000461591E114004D0591A0A44641A8260D9
:108D780004610169B1FBF3F14B430361BDE81040A5
:108D8800816800220A6003694B60C1607047000077
:108D98002DE9FE430F46DFF864150D6806461446B4
:108DA80098462846FDF7EEF8814622463946304671
:108DB80000F018F8044649462846FDF7E5F86CB96E
:108DC800DFF888050168DFF89005009102970196A1
:108DD800DD2301880022404600F006FA2046BDE85F
:108DE800FE830000F0B54469631E1A4200F10C06C8
:108DF80018BF22460B4035681CBF6418E11A01E011
:108E08002E462D68DDB16C68531E2B4018BFD31A4F
:108E18005F18BC42F4D35819641AE41A091833B11C
:108E28006B606CB12A680A604C602960F0BD2A68E2
:108E38001CB10A604C603160F0BD3260F0BD0020AA
:108E4800F0BD2DE9F0410D46DFF8B0140F68044677
:108E580016463846FDF796F880463246294620469B
:108E680000F006F841463846BDE8F041FDF78CB8F9
:108E780050B503465C69601E10401CBFA418221A36
:108E880003F10C04206801E004460068060001D0E4
:108E98008842F9D308604A60216040B15218824282
:108EA80005D102680A604E68406886194E6003F171
:108EB8000C02944208D062681019884204D10B68E9
:108EC800236048688218626050BD0120FDF758B8D9
:108ED80070B506460C463069206000216160A160CB
:108EE800DFF818140D682846FDF74CF80146F068BD
:108EF8000AE0626843689A186260A36842689A4206
:108F080038BF1A46A26000680028F2D12846BDE89A
:108F18007040FDF739B800007047FEF710BDFEF746
:108F280011BD0020704710B5DFF870350446186889
:108F3800002201212044FDF7E3F90021616010BD02
:108F4800DFF858150A681044FDF7EFB938B504463C
:108F5800DFF84C5560682A6990420BD0DFF83C3541
:108F680018684FF0FF312044FEF754FE286960600E
:108F7800002032BD012032BD31B9DFF82025416023
:108F880013681844FEF7A7BE704701207047FEF724
:108F9800D6BCFEF7DCBCDFF80C150860704738B5A6
:108FA800DFF80055806B296850F821401CB3E86849
:108FB8004FF0FF31FEF72EFEFFF7E9FFDFF8E01470
:108FC8006C600A69AA60FFF7E4FFAFF3008005F060
:108FD8003FFC024600F09EFC214600F071F9FFF7C5
:108FE800D6FF00216960A960FFF7D3FFE868BDE8F4
:108FF8003240FEF770BE31BD30B5DFF8AC440546EF
:10900800206889B000230022242100F01DF9040003
:1090180011D000F03CFC6846FDF755F901208DF8A9
:1090280018006A46012104F10800FDF769F90020DB
:10903800206060602C6009B030BD10B5046804F190
:109048000800FDF772F900F064FCBDE81040242226
:1090580036E1000008220020F8B505461646EA6900
:10906800A9691C46304601F0A5FF76602CB1EA6973
:1090780008232146304600F07DF8079BF668AA6869
:109088006969E86800F016F9040001D10020F2BD12
:1090980000F0C9F86968216004F108076A68516836
:1090A80061606A6851680C606A68546000F0C0F8D2
:1090B800286810F1010F18BF3860286908B1716875
:1090C80039503846F2BD2DE9F8430C000646914662
:1090D800984624D0089D28000ED1A4F1080700F076
:1090E800A2F87A683968116000223B68796859608B
:1090F8007A603A6000F09CF85FEA090008D018F13D
:10910800010F02D12046C84702E041462046C84721
:109118002DB97269F0683946BDE8F843D0E0BDE87A
:10912800F183F8B505460E461746EA69A9691C4653
:10913800384601F03FFF7F602CB1EA6908232146D9
:10914800384600F017F86969FC680839304605F0B8
:1091580085FB286810F1010F18BF3060286908B135
:10916800616831503046F2BD00E000E06041040023
:109178008C0100102DE9F843CE68356891460A68DD
:109188009846A9EB0807521BBA42044688BF3A46DC
:1091980001F010FFE0194545C4F80090E06088BF71
:1091A800454664602A46314601F004FF44F80780CA
:1091B800BDE8F18330B1DFF8781688421CBF202162
:1091C80005F050BB70470000DFF868160A78012ADE
:1091D80004D118B1C06810B1012000E00020C0B26D
:1091E80070470000042009407FB50A9C099DDFF8FC
:1091F800486602940195089C35680094A8477FBD8D
:10920800182009400022002030200940EC400400CA
:10921800000024438401001080022443E440040039
:10922800E8400400FEE7DFF814060068FCF7D1BE4A
:109238000146DFF808060068FCF7CDBE0000000014
:1092480000220020002009402DE9FF4104469846ED
:109258000E4615464046FFF7B7FF074615B9DFF833
:10926800E0050568002C12BF2046DFF8D805006825
:1092780043462A463146FCF7A0FE050013D1012FCC
:1092880003D04046FFF7A0FF68B9DFF8BC050168C6
:10929800DFF8B80500910296019434230188002272
:1092A8004046FFF7A1FF284604B0BDE8F081000062
:1092B8002C20094080B50093002300F007F802BD78
:1092C80010B9DFF880050068FCF77EBE70B51E4651
:1092D800049B0D46FFF7B8FF040003D03246294629
:1092E80002F08AF9204670BDB00100109C420400CB
:1092F80098420400A0420400944204004C42040036
:10930800DFF84C158888002800D0704738B501224E
:109318008A800024DFF83C5504E0686850F824107F
:109328008847641C28688442F7DBDFF82C15DFF8CF
:109338002C550A689047002404E0686850F8241007
:109348008847641C28688442F7DB31BD204204004A
:10935800DFF8FC04C0887047DAB004002DE9F04754
:109368000C4600278046002CC4BFA10005F07AFAFD
:10937800DFF8DC64DFF8E804C6F800800025D0F8E0
:1093880000900CE0DFF8DC140A6832F8150028B108
:1093980059F825100020884748F825006D1CA5427B
:1093A800F0DB0120F080002500E06D1CDFF8B80438
:1093B80001688D421ADA01274FF0000A12E00020F6
:1093C8000DE058F82A0010F1010F07D059F82A10BB
:1093D800884748F82A0010F1010FF0D10120074012
:1093E8000AF1010AA245ECDB002FDED01FB9DFF835
:1093F8007C0400F009F800203060BDE8F087000028
:1094080000BF4FF0FF30704710B50446FFF70BFF61
:109418002046FCF7E2FDDFF858040168BDE810407B
:109428000847F8B50546FFF7FEFEDFF84814DFF8F1
:1094380048344A681E680124B24206DA0F6847F8C1
:1094480022504A68521C4A6000E00024FFF7F0FEF0
:109458002046F2BD10B5044600F009F82046DFF8B2
:109468001C140A68BDE810401047FEE7FEE770B517
:109478000446FFF7D8FEDFF8FC536E6806E029685B
:1094880001EB8602761E52F8043C9847012E2046CE
:10949800F5DABDE87040FCF7A2BD0000C041040049
:1094A80084220020C82200208444040000F007F829
:1094B8000EBD00000EB50023009302ABF6E72DE9C0
:1094C800F7478DB000241898ADF818000F980028B9
:1094D80000F038810F9900780FF270274A1C0F921C
:1094E8006FF009096FF000464FF00A081D460BE0BF
:1094F80000F030F9641C0098401E0090F8D50F98D1
:109508000F9900784A1C0F92002800F01681252830
:1095180006D001460EAA0DA800F05EF9641CEEE71D
:1095280000F01CF92D2905D10120ADF8060000F046
:1095380015F902E00022ADF80620302904D10120F7
:10954800049000F00BF901E00022049200224FF091
:10955800FF332A290092029319D100F009F90090EB
:109568000F98009A10F8011B0F90002A13D5009A43
:1095780001235242ADF8063000920CE0009808FB37
:10958800001130390F98009110F8011B0F90A1F1CC
:1095980030020A2AF2D32E291CD10020029000F0B2
:1095A800DDF82A2912D100F0E3F80290002844BF20
:1095B8000021029100F0D2F80CE0029808FB00119B
:1095C80030390F98029110F8011B0F90A1F1300269
:1095D8000A2AF2D3049808B1009804906C2918BF9D
:1095E8004C2905D10120ADF8040000F0B7F802E0DD
:1095F8000022ADF8042008A80CAA0023642918BF8B
:10960800692907900592039308D100F0ACF84B46FE
:109618000298049A8242B8BF049012E0752907D0D4
:10962800782907D06F2914D1082300F09CF803E0AB
:109638000A23FAE71023F8E70298049A8242B8BF8F
:109648000490049A059800F098F807900599081A6C
:1096580019E0702910D108200490102300F083F835
:109668000822059800F089F8401E079040210170F3
:1096780007980599091A19E0632906D100F078F8C6
:10968800079908700120039033E0732910D100F086
:109698006FF8079000B90797079805F0E7F802995F
:1096A800039011F1010F24D0814222D2039120E0CE
:1096B8000F98411E0E980F9101281AD9029810F19F
:1096C800010F02D00E99884204D30E98B04202D3FB
:1096D800029601E0401C0290DFF8BCC1DCF800A053
:1096E8006B462A460FA90DA8D0470E990419081AE7
:1096F8000E9000990398091ABDF80600009188B9E0
:109708000098401E00900DD400F024F8641CF7E780
:10971800079801780EAA0DA800F05EF80798411C7A
:109728000791641C0398411E00280391F0D1BDF8ED
:10973800060001287FF4E3AEDDE60D9808B10021AC
:109748000170204610B0BDE8F0870000286E756CE7
:109758006C2900000EAA20210DA83DE00F9810F8F2
:10976800011B0F90704728680168021D2A60704726
:109778002868011D006829607047F0B5002400259D
:10978800002B44BF5B42002902D54942521E2D25B9
:10979800B1FBF3F60FF22C0703FB1611641C795C7E
:1097A80000F8011D31460029F2D19442BEBF302194
:1097B80000F8011D641CF8DB290018BF00F8015DE2
:1097C800F0BD000030313233343536373839616214
:1097D800636465660000000010B50C461168022934
:1097E80007D3491E1160016821B10C7001684A1C39
:1097F800026010BDFCF7F7FB0128FAD12046BDE84E
:109808001040FCF7EEBBDFF894100A681047DFF849
:1098180090100A681047DFF88C100A681047DFF8C4
:10982800B8000168084701207047FEE77047704795
:10983800E81D0020A2B10400BC4404004445040013
:10984800D8220020CC440400B84404000AB1040023
:10985800DC220020E4440400D0440400F044040066
:10986800304504000C450400F8440400044C04008E
:1098780048450400E4220020544504004C450400F7
:109888000446DFF89C000588012101807047082301
:10989800242200217047000050450400344504008C
:1098A800384504003C45040010B500F00FF8DFF817
:1098B80074100C680CB122680A60FEF726FC1CB113
:1098C8002046BDE8104009E010BD0000DFF8581040
:1098D800088801220A8070474045040010B50446F4
:1098E80004F11000FCF721FDE06818B104F10C0048
:1098F800FCF79FFD00F00DF8BDE810405422FFF77B
:10990800DFBC00000546DFF8200004880121018043
:1099180070472146014800687047000084440400ED
:1099280084220020244D00208422002038B5304CA9
:109938002068002813D104F0C1FF2E4D280004F040
:10994800F1FF2900002004F0CBFF206020680028E8
:1099580001D1022004E02849206804F0ABFF002070
:1099680032BD10B51300224C2268002A01D1012013
:1099780009E00A000100206804F0D8FF002801D09F
:10998800032000E0002010BD80B5194B186800289E
:1099980001D101200AE0184882680021186804F003
:1099A80084FF002801D0042000E0002002BD30B56B
:1099B80085B00F4C2068002801D1002015E0112146
:1099C80000226D46280001F017FE10236A46002188
:1099D800206804F0ABFF09480168684604F0BAFF44
:1099E800002801D1012000E0002005B030BD0000B2
:1099F800C04C0020C44C0020204C00207C1B0020C0
:109A0800DFF8640980687047DFF85C19084490F84B
:109A18004A01704702460020022904D1012A06D1D2
:109A280040F2EE207047012A08BF4FF47A70704761
:109A3800DFF8341991F8410120B1D1F86C01002800
:109A480018BF004770472DE9F041DFF81C4994F82A
:109A58004201002884B040F0AE800121DFF80C6993
:109A6800DFF80C5984F84211307B84F841017168A1
:109A7800C4F86C11A868C0F38140B8B93069A8B1BE
:109A88002F6804F098FFC7F30662642111FB02F205
:109A9800B2FBF0F200230FF6B90104F1940004F0D0
:109AA80063FFDFF8D0184FF00040086001A804F009
:109AB80091FF002002908DF804000022039201AB70
:109AC8000FF2D961DFF8B07804F10C0004F04CFF14
:109AD80001A804F07FFF002002908DF80400039095
:109AE80001AB0822DFF8941804F1500004F03CFFA1
:109AF80000230FF2ED52322104F1D80004F082FF66
:109B0800002038600023DFF878282C2104F1F400C5
:109B180004F078FFDFF86C080178A968707BC1F35E
:109B2800815128B1032903D1012084F8390121E0AA
:109B3800032918BF02291DD001291AD1DFF8486866
