:100000004343323678325231FFFFFFFF0301DFFFF7
:10001000FFFF0100FF000000FFFFFFFF00010000E5
:100020003030303128C703002C00FFFF03DFFFFF13
:10003000550000000100000000000000000000006A
:1000400000000000000000000000000000000000B0
:1000500000000000000000000000000000000000A0
:100060000000000000000000000000000000000090
:100070000000000000000000000000000000000080
:0E0080000001DFFF0000000000000000000093
:1001000078960020C1BD030039FB021039FB0210B4
:1001100039FB021039FB021039FB021039FB0210C7
:1001200039FB021039FB021039FB021039FB0210B7
:0C01300039FB021039FB021011FB021019
:0C031D0004BE030030890300789A002021
:1003290000000000000000009001002004030020EC
:1003390001000000010000000000000000000000B2
:10034900000000008C0200208C0200200000000048
:10035900000000000000000000000000FF7F000016
:1003690000000000006CDC0200000000000000003A
:100379004002002003000000000000005D5700005B
:100389009D5700000100000000000000000000006F
:100399000000000000000000CC0200200000000066
:1003A9000100000000000000000000000100000042
:1003B90000000000000000003803002000000000D9
:1003C90000000000000000000000000034030020CD
:1003D900000000002C9B00202C9B0020349B002057
:1003E900349B002008000000A8260020000000001F
:1003F90000000000C4250020C8250020CC250020CD
:100409000000000078960020000400000000002091
:1004190001010000D02500200000000000000000BC
:100429000000000000000000900100200000000012
:1004390000000000000000000000000000000000B3
:1007000081F0004102E000BF83F0004330B54FEAC2
:1007100041044FEA430594EA050F08BF90EA020F2F
:100720001FBF54EA000C55EA020C7FEA645C7FEAC2
:10073000655C00F0E2804FEA5454D4EB5555B8BFE5
:100740006D420CDD2C4480EA020281EA030382EA56
:10075000000083EA010180EA020281EA0303362DE8
:1007600088BF30BD11F0004F4FEA01314FF4801CBB
:100770004CEA113102D0404261EB410113F0004FCD
:100780004FEA03334CEA133302D0524263EB430384
:1007900094EA050F00F0A780A4F10104D5F1200E22
:1007A0000DDB02FA0EFC22FA05F2801841F100017D
:1007B00003FA0EF2801843FA05F359410EE0A5F151
:1007C00020050EF1200E012A03FA0EFC28BF4CF082
:1007D000020C43FA05F3C01851EBE37101F0004538
:1007E00007D54FF0000EDCF1000C7EEB00006EEB45
:1007F0000101B1F5801F1BD3B1F5001F0CD34908CF
:100800005FEA30004FEA3C0C04F101044FEA445225
:1008100012F5800F80F09A80BCF1004F08BF5FEAAC
:10082000500C50F1000041EB045141EA050130BD8C
:100830005FEA4C0C404141EB010111F4801FA4F12F
:100840000104E9D191F0000F04BF01460020B1FA84
:1008500081F308BF2033A3F10B03B3F120020CDABC
:100860000C3208DD02F1140CC2F10C0201FA0CF09A
:1008700021FA02F10CE002F11402D8BFC2F1200CFF
:1008800001FA02F120FA0CFCDCBF41EA0C019040B5
:10089000E41AA2BF01EB0451294330BD6FEA0404FE
:1008A0001F3C1CDA0C340EDC04F11404C4F12002E9
:1008B00020FA04F001FA02F340EA030021FA04F3FB
:1008C00045EA030130BDC4F10C04C4F1200220FA52
:1008D00002F001FA04F340EA0300294630BD21FA90
:1008E00004F0294630BD94F0000F83F4801306BF56
:1008F00081F480110134013D4EE77FEA645C18BF4A
:100900007FEA655C29D094EA050F08BF90EA020FE0
:1009100005D054EA000C04BF1946104630BD91EAD8
:10092000030F1EBF0021002030BD5FEA545C05D1DB
:100930004000494128BF41F0004130BD14F580041A
:100940003CBF01F5801130BD01F0004545F0FE418E
:1009500041F470014FF0000030BD7FEA645C1ABFC3
:10096000194610467FEA655C1CBF0B46024650EAFA
:10097000013406BF52EA033591EA030F41F4002126
:1009800030BD00BF90F0000F04BF0021704730B5AC
:100990004FF4806404F132044FF000054FF0000181
:1009A00050E700BF90F0000F04BF0021704730B542
:1009B0004FF4806404F1320410F0004548BF404217
:1009C0004FF000013EE700BF42004FEAE2014FEA6C
:1009D00031014FEA02701FBF12F07F4393F07F4F47
:1009E00081F06051704732F07F4208BF704793F04A
:1009F0007F4F04BF41F40021704730B54FF460745D
:100A000001F0004521F000411CE700BF50EA01025F
:100A100008BF704730B54FF000050AE050EA010208
:100A200008BF704730B511F0004502D5404261EB78
:100A300041014FF4806404F132045FEA915C3FF4B9
:100A4000D8AE4FF003025FEADC0C18BF03325FEA56
:100A5000DC0C18BF033202EBDC02C2F1200300FA07
:100A600003FC20FA02F001FA03FE40EA0E0021FA2C
:100A700002F11444BDE600BF70B54FF0FF0C4CF41A
:100A8000E06C1CEA11541DBF1CEA135594EA0C0FCC
:100A900095EA0C0F00F0DEF82C4481EA030621EA07
:100AA0004C5123EA4C5350EA013518BF52EA033542
:100AB00041F4801143F4801338D0A0FB02CE4FF0F4
:100AC0000005E1FB02E506F00042E0FB03E54FF024
:100AD0000006E1FB03569CF0000F18BF4EF0010E1C
:100AE000A4F1FF04B6F5007F64F5407404D25FEA18
:100AF0004E0E6D4146EB060642EAC62141EA5551CB
:100B00004FEAC52040EA5E504FEACE2EB4F1FD0C0C
:100B100088BFBCF5E06F1ED8BEF1004F08BF5FEA8A
:100B2000500E50F1000041EB045170BD06F000463C
:100B300046EA010140EA020081EA0301B4EB5C04E9
:100B4000C2BFD4EB0C0541EA045170BD41F48011E1
:100B50004FF0000E013C00F3AB8014F1360FDEBF06
:100B6000002001F0004170BDC4F10004203C35DAE2
:100B70000C341BDC04F11404C4F1200500FA05F365
:100B800020FA04F001FA05F240EA020001F0004206
:100B900021F0004110EBD37021FA04F642EB06017C
:100BA0005EEA430E08BF20EAD37070BDC4F10C04A6
:100BB000C4F1200500FA04F320FA05F001FA04F26A
:100BC00040EA020001F0004110EBD37041F1000156
:100BD0005EEA430E08BF20EAD37070BDC4F1200561
:100BE00000FA05F24EEA020E20FA04F301FA05F2C9
:100BF00043EA020321FA04F001F0004121FA04F271
:100C000020EA020000EBD3705EEA430E08BF20EA40
:100C1000D37070BD94F0000F0FD101F0004640007A
:100C200041EB010111F4801F08BF013CF7D041EAFC
:100C3000060195F0000F18BF704703F00046520000
:100C400043EB030313F4801F08BF013DF7D043EAD1
:100C50000603704794EA0C0F0CEA135518BF95EA87
:100C60000C0F0CD050EA410618BF52EA4306D1D10E
:100C700081EA030101F000414FF0000070BD50EA2D
:100C8000410606BF1046194652EA430619D094EAB7
:100C90000C0F02D150EA013613D195EA0C0F05D1A1
:100CA00052EA03361CBF104619460AD181EA0301F5
:100CB00001F0004141F0FE4141F470014FF00000AD
:100CC00070BD41F0FE4141F4780170BD70B54FF048
:100CD000FF0C4CF4E06C1CEA11541DBF1CEA1355C8
:100CE00094EA0C0F95EA0C0F00F0A7F8A4EB0504AA
:100CF00081EA030E52EA03354FEA013100F08880A1
:100D00004FEA03334FF0805545EA131343EA126369
:100D10004FEA022245EA111545EA10654FEA00261E
:100D20000EF000419D4208BF964244F1FD0404F5D7
:100D3000407402D25B084FEA3202B61A65EB030533
:100D40005B084FEA32024FF480104FF4002CB6EBF0
:100D5000020E75EB030E22BFB61A754640EA0C0070
:100D60005B084FEA3202B6EB020E75EB030E22BFB0
:100D7000B61A754640EA5C005B084FEA3202B6EBF1
:100D8000020E75EB030E22BFB61A754640EA9C00B0
:100D90005B084FEA3202B6EB020E75EB030E22BF80
:100DA000B61A754640EADC0055EA060E18D04FEA3E
:100DB000051545EA16754FEA06164FEAC30343EADE
:100DC00052734FEAC2025FEA1C1CC0D111F4801FAB
:100DD0000BD141EA00014FF000004FF0004CB6E7A4
:100DE00011F4801F04BF01430020B4F1FD0C88BF43
:100DF000BCF5E06F3FF6AFAEB5EB030C04BFB6EB4E
:100E0000020C5FEA500C50F1000041EB045170BD40
:100E10000EF0004E4EEA113114EB5C04C2BFD4EB6D
:100E20000C0541EA045170BD41F480114FF0000EF1
:100E3000013C90E645EA060E8DE60CEA135594EA6D
:100E40000C0F08BF95EA0C0F3FF43BAF94EA0C0F70
:100E50000AD150EA01347FF434AF95EA0C0F7FF4E5
:100E600025AF104619462CE795EA0C0F06D152EA39
:100E700003353FF4FDAE1046194622E750EA41061D
:100E800018BF52EA43067FF4C5AE50EA41047FF42E
:100E90000DAF52EA43057FF4EBAE12E74FF0FF3C93
:100EA00006E000BF4FF0010C02E000BF4FF0010C64
:100EB0004DF804CD4FEA410C7FEA6C5C4FEA430CDD
:100EC00018BF7FEA6C5C1BD001B050EA410C0CBF2C
:100ED00052EA430C91EA030F02BF90EA020F00208E
:100EE000704710F1000F91EA030F58BF994208BFF5
:100EF00090422CBFD8176FEAE37040F001007047B2
:100F00004FEA410C7FEA6C5C02D150EA013C07D108
:100F10004FEA430C7FEA6C5CD6D152EA033CD3D053
:100F20005DF8040B704700BF8446104662468C464D
:100F30001946634600E000BF01B5FFF7B7FF002880
:100F400048BF10F1000F01BD4DF808EDFFF7F4FFA9
:100F50000CBF012000205DF808FB00BF4DF808ED34
:100F6000FFF7EAFF34BF012000205DF808FB00BF57
:100F70004DF808EDFFF7E0FF94BF012000205DF879
:100F800008FB00BF4DF808EDFFF7CEFF94BF01202E
:100F900000205DF808FB00BF4DF808EDFFF7C4FF27
:100FA00034BF012000205DF808FB00BF4FEA41027A
:100FB00012F5001215D211D56FF47873B3EB6252AB
:100FC00012D94FEAC12343F0004343EA505311F0D2
:100FD000004F23FA02F018BF404270474FF0000064
:100FE000704750EA013005D111F0004008BF6FF0A2
:100FF000004070474FF00000704700BF4A0011D218
:1010000012F5001211D20DD56FF47873B3EB625262
:101010000ED44FEAC12343F0004343EA505323FA6E
:1010200002F070474FF00000704750EA013002D1E3
:101030004FF0FF3070474FF00000704753B94AB986
:10104000002908BF00281CBF4FF0FF314FF0FF30D0
:1010500000F072B9ADF1080C6DE904CE00F006F8AD
:10106000DDF804E0DDE9022304B070472DE9F04724
:10107000089E04468846002B4BD18A42154667D904
:10108000B2FA82F24AB1C2F1200701FA02F320FA61
:1010900007F7954047EA030894404FEA154E230CA2
:1010A000B8FBFEF71FFA85FC0EFB178843EA0843DE
:1010B00007FB0CF1994209D9EB1807F1FF3080F0DA
:1010C0001B81994240F21881023F2B445B1AA4B263
:1010D000B3FBFEF00EFB103344EA034400FB0CFCB0
:1010E000A44509D92C1900F1FF3380F00781A445EC
:1010F00040F2048102382C4440EA0740A4EB0C047F
:1011000000271EB1D4400023C6E900433946BDE89C
:10111000F0878B4209D9002E00F0EB800027C6E94A
:10112000000138463946BDE8F087B3FA83F7002F4F
:1011300047D18B4202D3824200F2FA80841A61EBDB
:10114000030301209846002EE0D0C6E90048DDE701
:1011500002B9FFDEB2FA82F2002A40F08F80491B0A
:101160004FEA154E1FFA85F80127B1FBFEFC230C50
:101170000EFB1C1143EA014308FB0CF1994207D90D
:10118000EB180CF1FF3002D2994200F2CD80844678
:10119000591AA3B2B1FBFEF00EFB101443EA04444B
:1011A00008FB00F8A04507D92C1900F1FF3302D243
:1011B000A04500F2B6801846A4EB080440EA0C40B3
:1011C0009FE7C7F1200CBB4022FA0CFE4EEA030E4B
:1011D00001FA07F420FA0CF521FA0CF34FEA1E4845
:1011E0002543B3FBF8F92C0C08FB19331FFA8EFAD0
:1011F00044EA034309FB0AF49C4202FA07F200FAAC
:1012000007F10BD91EEB030309F1FF3080F0878053
:101210009C4240F28480A9F1020973441B1BADB2C9
:10122000B3FBF8F008FB103345EA034400FB0AFA6D
:10123000A24508D91EEB040400F1FF336BD2A2458E
:1012400069D90238744440EA0940A0FB0289A4EB42
:101250000A044C45C2464B4654D351D0002E69D0A7
:10126000B1EB0A0564EB030404FA0CFCFD40FC40FE
:101270004CEA0505C6E90054002747E7C2F1200300
:1012800020FA03F7954001FA02F021FA03F34FEA3E
:10129000154E3843010CB3FBFEF71FFA85F80EFB21
:1012A000173341EA034107FB08F38B4204FA02F4C7
:1012B00007D9691807F1FF3C2FD28B422DD9023F85
:1012C0002944CB1A81B2B3FBFEF00EFB103341EA86
:1012D000034100FB08F38B4207D9691800F1FF3C7A
:1012E00017D28B4215D902382944C91A40EA074758
:1012F0003BE73746304609E70746E7E61846FBE690
:101300004145ABD2B8EB020A69EB0E020138134635
:10131000A4E76046E9E7184695E76746D1E78146C6
:101320007CE702382C4447E7ACF1020C2B442FE752
:10133000384608E73746E9E6704700BF10F8012B4A
:1013400011F8013B012A28BF9A42F7D0D01A704702
:1013500001F0FF01102A2BDB10F0070F08D010F866
:10136000013B013A8B422DD010F0070F42B3F6D16A
:10137000F0B441EA012141EA014122F007047FF083
:1013800000070023F0E80256083C85EA010586EADA
:10139000010685FA47F5A3FA87F586FA47F6A5FA16
:1013A00087F68EB9EED1F0BC01F0FF0102F0070222
:1013B00032B110F8013B013A83EA010313B1F8D1CD
:1013C0000020704701387047002D06BF35460338AE
:1013D000073815F0010F07D1013015F4807F02BFE7
:1013E000013015F4C03F0130F0BC0138704700BF38
:1013F00070B500220E461421044633F073FA072517
:1014000000220A21204633F06DFA46FA05F202F076
:1014100001020921204633F065FA01220A21204603
:1014200033F060FA082036F0A6F915F1FF35E7D25F
:1014300000220A21204633F055FA204601221421C9
:1014400033F050FA4FF42F70BDE8704036F093B986
:1014500010B5104A92E8030086B001AB83E80300A0
:10146000194603A833F078FA00221421044633F019
:1014700039FA012036F07FF901221421204633F099
:1014800031FA4FF40C7036F076F9204633F0F4F967
:1014900006B010BD7889030030B50B4D89B0FFF759
:1014A000D7FF0FCD03AC0FC42B68236003A9684698
:1014B00033F052FAB9210446FFF79AFF204633F081
:1014C000DBF909B030BD00BF80890300FFF7E4BF3E
:1014D00008B50320012132F06DFD00F01FF9012055
:1014E00032F024FC38B900F007FA00F093F90AF062
:1014F000E8FF00F007FA00F0FFF900F08BF905F0C3
:1015000007FC00F0FFF9022005F014FA032032F086
:1015100037FDF8E730B589B003A804F0C1FE01211A
:1015200003A804F0CDFE08A9022441F8184D03A831
:1015300004F0CCFE4FF489621049114D03A804F069
:10154000CDFE00230F4A03A901A804F0CBFE03A897
:1015500004F0A4FE2946002032F0FAFB29460120BF
:1015600032F0F6FB4FF40011204632F0F1FB4FF45D
:101570000011032032F0ECFB09B030BD0808002058
:1015800000000302D114000008B500F0B7F832F0F3
:1015900079FC31F04DF931F0BDF932F005FA31F056
:1015A000B3FB34F02DFCFFF7B5FF37F08DF80020CA
:1015B00008BD000010B54FF00F0186B004460BF0D7
:1015C000A6F90E2120460AF0F0FF4FF6FF712046E3
:1015D0000BF032F80E4A0F4B69462046CDE9002346
:1015E0000BF062F90C4B029303F14433039303F1C4
:1015F0004433049302A903F14433204605930BF0CE
:101600009CF9064920460BF0C3F906B010BD00BF97
:10161000DEAD00BEEF00CAFE00112233F4890300E4
:1016200070B500220E461421044633F05BF90725FD
:1016300000220A21204633F055F946FA05F202F05D
:1016400001020921204633F04DF901220A212046EA
:1016500033F048F9082036F08EF815F1FF35E7D25F
:1016600000220A21204633F03DF9204601221421B0
:1016700033F038F94FF42F70BDE8704036F07BB886
:1016800010B5104A92E8030086B001AB83E803006E
:10169000194603A833F060F900221421044633F000
:1016A00021F9012036F067F801221421204633F099
:1016B00019F94FF40C7036F05EF8204633F0DCF880
:1016C00006B010BD9489030030B50B4D89B0FFF70B
:1016D000D7FF0FCD03AC0FC42B68236003A9684666
:1016E00033F03AF9B9210446FFF79AFF204633F068
:1016F000C3F809B030BD00BF9C89030008B533F0C2
:10170000E3FB054832F076FF00B1FEE7FFF7DCFFB0
:10171000FFF7DCFE08BD00BFE08A030000B589B01A
:1017200000F0E2F803A804F0BBFD012103A804F0D7
:10173000C7FD08A9012341F8183D03A804F0C6FD20
:101740004FF48052074903A804F0C8FD0023064A5D
:1017500003A901A804F0C6FD03A804F09FFD09B089
:101760005DF804FBF00E00203118000007B50648B4
:1017700002A9022301F8083D08220023006804F0B2
:1017800046FD03B05DF804FBEC0E002007B50648EB
:1017900002A9002301F8083D0822006804F037FD83
:1017A00003B05DF804FB00BFEC0E002007B506484F
:1017B00002A9052301F8083D08220023006804F06F
:1017C00026FD03B05DF804FBEC0E002007B5019088
:1017D000064803238DF8003008220023694600687C
:1017E00004F015FD03B05DF804FB00BFEC0E002013
:1017F00007B50190064801238DF800300822002328
:101800006946006804F003FD03B05DF804FB00BF07
:10181000EC0E002038B5054D2C6824B900F06CF8AA
:101820002C6800F06FF8204638BD00BFE80E00209D
:1018300030B5102287B000240823CDE9032344F2F9
:1018400001216B44224625480594029404F000FCD3
:10185000234B2246186021462346204804F0F8FB1B
:1018600021460546204601F051FF0AF022FE1D4B9D
:101870001860FFF7CFFF0AF0A6FD18B9FFF7CAFFFF
:10188000FFF798FE00F03EF800230822694628463C
:1018900004F0A0FC0828F7D100F02EF89DF80030E5
:1018A000042BEFD8DFE803F003080E131700FFF74F
:1018B000B1FF00F0BDF8E5E7FFF7ACFF019901F0DB
:1018C000C9FCDFE7FFF7A6FF0AF0D6FFDAE70198C9
:1018D00001F086FFD6E700F0EFFBD3E7A48B03000F
:1018E000EC0E0020E80E002000220121014805F046
:1018F00003B800BFF01E0020014805F013B800BF78
:10190000F01E0020014805F008B800BFF01E0020BE
:10191000FFF73CBF10B510248AB02246002168466C
:1019200036F01EFA22460021022406A836F018FAE4
:10193000084B089369462046059404F05BFB064A71
:1019400005A9204605F042F8044B00221A700AB09F
:1019500010BD00BF11190000181F00200C1F00202F
:101960001FB50220694604F0D3FA4FF47A71029B46
:101970000648B3FBF0F30098B3FBF1F201FB12331E
:1019800001FB003005B05DF804FB00BF40420F00D2
:1019900030B589B00D46144600212022684636F045
:1019A000DFF9FFF7DDFF114B1D60114B401B1C6081
:1019B000104B0122A0421A7003D3FFF7E7FE09B0D3
:1019C00030BD4FF47A720023241AB4FBF2F002FB0C
:1019D0001044CDE9040308484443084806946A4685
:1019E0001946006805F09AF8E9E700BF141F0020C7
:1019F000101F00200C1F002040420F00181F002065
:101A000000B589B020220021684636F0A9F90648C1
:101A10006A4600230421006805F080F8034B002289
:101A20001A7009B05DF804FB181F00200C1F00207D
:101A300030B5184D2B7889B0044683B1FFF790FF7D
:101A4000154B1B68C01A154B1B6883420DD8002329
:101A50002B7000F083FA20B120460DF05FFA09B038
:101A600030BD20460DF0ACF9F9E720220021684690
:101A700036F076F90A4B6946186805F021F8DDE979
:101A800004231343EBD1069B002BE8D1FFF77EFE26
:101A9000E5E700BF0C1F0020141F0020101F0020CE
:101AA000181F0020FFF782BE10B510248AB022460E
:101AB0000021684636F054F922460021022406A887
:101AC00036F04EF9084B089369462046059404F019
:101AD00091FA064A05A9204604F078FF044B00223B
:101AE0001A700AB010BD00BFA51A0000201F002008
:101AF0001C1F002013B500220C4601A936F020FA65
:101B0000019B20601B78002B14BF0620002002B030
:101B100010BD0000F7B507460D46406801A91646FE
:101B2000FFF7E8FF044670B93F680F493846FFF7F2
:101B300005FC58B99DF8040000F0A8FF0B4A314697
:101B4000284636F015F9204603B0F0BD084938465E
:101B5000FFF7F4FB28B99DF8040000F0A3FF054A45
:101B6000EDE70724EFE700BF768C03007C8C0300D1
:101B70008D8C0300928C03000C4B1A880C4B10B513
:101B80001B88642022B1D31A584390FBF2F010BD99
:101B9000002BFCD0074A1188074A12880B448C1886
:101BA0006043134490FBF3F0F1E700BF281F0020CF
:101BB0002E1F00202C1F00202A1F0020F0B50F1E12
:101BC00089B016461D4651DD146829492046FFF7A5
:101BD000B5FB00282AD1274B1B7823B3264C22784B
:101BE0000ABB264B1B78F3B9012F1AD007A97068DE
:101BF000FFF780FFC0B901232370214B079A0E998C
:101C000000241C801F4B1A801F4B204A1C80204B35
:101C10001C80204B28461C80234636F0A9F820461D
:101C200002E00793E7E70D2009B0F0BD20461A490E
:101C3000FFF784FB0446C8B90E4B1B78B3B1FFF71E
:101C40009BFF0D4B134A1C700E4B0E991B88CDE960
:101C50000304128802920E4A128801920A4A1288DC
:101C6000009228460D4A36F083F8D8E70720DBE7D4
:101C7000768C0300241F0020251F0020301F002029
:101C8000261F0020281F00202E1F0020B28B0300DB
:101C90002C1F00202A1F00208D8C0300DF8B0300E7
:101CA0002DE9F0410D1E86B0074614461E466CDD38
:101CB000D2F8008037494046FFF740FB00284BD15F
:101CC000354B1B78002B62D0344B1A789846002A8B
:101CD0005DD1334B1B78002B59D1012D07D003A9BF
:101CE0006068FFF707FF48B106B0BDE8F0811E232A
:101CF000039364230493002305930FE0022DF8D08F
:101D000004A9A068FFF7F6FE0028EDD1032DF2D05C
:101D100005A9E068FFF7EEFE0028E5D1012388F869
:101D20000030204B039A204D1A80049B2B601F4BE0
:101D3000059A1A801E4B00241C80FFF711FE2A68AA
:101D400001463846FFF724FE23461A4A0C993046CE
:101D500036F00EF82046C7E717494046FFF7EEFA7F
:101D6000044690B90C4B1B788BB10C4B1A7872B1AE
:101D700018703846FFF744FE0D4B104A1B880C992B
:101D80000094304635F0F4FFE4E70720ACE70D207F
:101D9000AAE700BF768C0300241F0020301F00201C
:101DA000251F0020341F0020381F0020321F002074
:101DB0003C1F0020EA8C03008D8C03001A8D030069
:101DC0002DE9F0411E46204B1B78054688461746F4
:101DD000002B37D0002935DD14681C492046FFF759
:101DE000ADFAF0B9B8F1020F19D119497868FFF7C7
:101DF000A5FAB0FA80F464092846214601F0AAF950
:101E0000054648B9134A144B0699002C18BF1346CF
:101E10003046124A35F0ACFF2846BDE8F081044652
:101E2000EAE70F492046FFF789FA58B9284601F03A
:101E3000EDF905460028EFD10A4A0699304635F0FB
:101E400097FFE9E70725E7E7241F0020768C0300CA
:101E5000AF8C0300A58C0300A38C0300B38C03009C
:101E60008D8C0300D08C03002DE9F7430A9E814638
:101E700090461D460C4621B90024204603B0BDE81B
:101E8000F08317682C493846FFF758FAB0B9012C8F
:101E900098BF024604F1FF3188BF08F104020096A2
:101EA0002B464846FFF78CFF04460028E4D0234623
:101EB000224A3146284635F05BFFDEE720493846A6
:101EC000FFF73CFA68B9012C98BF024604F1FF31D4
:101ED00088BF08F1040200962B464846FFF76EFEC5
:101EE000E2E718493846FFF729FA68B9012C98BF8C
:101EF000024604F1FF3188BF08F1040200962B4628
:101F00004846FFF7CDFECFE70F493846FFF716FAF0
:101F100040B9032C0DD13246294608F10400FFF7E1
:101F2000F9FDC1E73B46094A3146284635F020FF16
:101F3000A2E70724BBE700BF738D0300B58D030044
:101F4000788D0300808D0300898D0300908D030040
:101F5000014B1870704700BF241F0020014B1878F8
:101F6000704700BF241F00207047704737B51E4CD4
:101F7000237803B3002A32D10868057843781B48D8
:101F8000008843EA052320B1194D2D88854228BFDA
:101F90002270184C22889A420FD1154802880132CB
:101FA00002805A1C228091F9102000920C21124AC2
:101FB00005200BF0DDFF03B030BD0028A3EB0202CB
:101FC00008BF642092B2904204D90C4805882A4484
:101FD0000280E2E70A48028801320280E3E7084A09
:101FE000138801331380E6E7251F0020281F0020F7
:101FF0002E1F0020261F0020CA8D03002A1F00204C
:102000002C1F002038B51C4B1B780446002B32D007
:102010001A4B1B881BB11A4A12889A4224D22046B6
:1020200000F07CFD174B1B888380014600238888C5
:102030000A68984215D8124D2B88180A10700A6841
:102040002046537000F06EFD2B8801332B80FFF784
:1020500087FC0D4B01461A682046BDE83840FFF763
:1020600097BCD3540133E2E7084A0C210520BDE8B0
:1020700038400BF07DBF38BD301F0020321F0020DC
:102080003C1F0020341F0020381F00205F8D0300FC
:102090001FB534F0ADF8684633F098FF0423694665
:1020A00000208DF8003033F09DFF024B186005B022
:1020B0005DF804FB401F0020704700001FB50A4672
:1020C00070B10146684630F065FE064B69461868F7
:1020D00034F0FEF8003018BF012005B05DF804FBB5
:1020E0000720FAE7401F002008B535F03CFB024B03
:1020F00001221A60FEE700BF7C0520437047FEE71F
:10210000044B1A680021134619711B689A42FBD1CF
:10211000704700BF48230020002230F003B90000C0
:1021200010B58AB0044602A82FF084FF0649074A7A
:1021300000234B800023CDE900232046044B02AA54
:102140002FF084FF0AB010BDA81F00202200C0009D
:102150008D21000010B50A4B8AB00446002202A867
:102160001A702FF067FF08220023CDE900230549EC
:10217000054B02AA20462FF069FF0AB010BD00BF30
:10218000F4230020441F00208925000002F4800071
:1021900000212DE918489C4650EA010302F0200076
:1021A0004FF0000114BF2024002450EA010302F480
:1021B00000004FF0000118BF44F0080450EA01038A
:1021C00021D044F0040400220CF08073134324D087
:1021D000144B5A8892B2012A44F080040ED05A88D7
:1021E00092B2022A0AD05B8842F201029A4205D0DA
:1021F0000D4B1868FFF794FF0C4B18802046BDE884
:102200001848FFF7F5BA02F002000CF0E04150EA7E
:10221000010318BF44F04004D5E7002CEED1BDE81F
:10222000188800BFA81F0020EC1F0020E81F002016
:102230000220FFF7DDBA000070B501462148224CAC
:1022400030F016FA0546206830F0BAF91F4BC5F396
:1022500015019942024632D01D4B20681978012998
:1022600004D01B7813B195EA020F06D4294630F04A
:1022700096F9833818BF012070BD164EB6F90010CC
:10228000FFF74AFF144B5A8892B2012A01D101206C
:10229000F2E75A8892B2022AF9D05B8842F2010230
:1022A0009A42F4D02946206830F079F98328EED19B
:1022B0002068FFF735FF3080C0F3C030DCE707202F
:1022C000DAE700BF2C010020EC1F0020FFFF3F00D9
:1022D000D8230020E81F0020A81F002030B4104C95
:1022E0000025256042F20305258083B1A37843F0E1
:1022F0000103A370A37843F00203A370A37862F3F1
:102300008203A370E170064930BC30F045B9A5786E
:1023100063F30005A570A57863F34105A570EDE7AB
:10232000881F00202DE9F74FD0F82490C8460446B6
:1023300018F8085FA5F1060A08EB0A07053DD7F86B
:1023400003B02FF0B7F8294B1B681B6B0646984764
:10235000030B43EA015300930B0B0193DDE90023C8
:10236000A6EB0B06B608921B63F10003C4E9042335
:1023700009F10903A3601E4BA5819B7BA37318F889
:102380000A3023767B78C3F305036376BB78FF2B93
:1023900028D05909012203F01F0302FA03F399F828
:1023A0000A2012F0400F4FEA810214BF114912496E
:1023B0000A4452681A4214BF01230023A27E63F329
:1023C000000297F90130A276002B01DB802D0BDD96
:1023D0001822002104F1080035F0C2FC112003B0DE
:1023E000BDE8F08F0023E9E70020F8E78C0100103A
:1023F000A81F002050230020A823002070B50D4600
:1024000016460446FFF7AAFD3246294620B120466B
:10241000BDE8704016F041BB2046BDE8704016F0A4
:1024200019BBD0E9093212B983621B6802E09A42F3
:10243000FBD1002343627047436A00221A71FFF701
:10244000F0BF000030B58DB000230A931B4B1C4C2D
:102450001B681C4D0993CDE90001099B0BB90DB018
:1024600030BD1B79032B684604D0042B1BD1FFF72A
:10247000E3FFF2E7FFF756FF024628B102A90098F2
:10248000FFF7BCFF6846F2E7029A137803F00701F2
:1024900002290BD12378042BF4D12B6892789B78F6
:1024A0009A42EFD16846FFF7BCFFD6E79906019A3A
:1024B00001D51307F6D50022E0E700BF482300202E
:1024C000D8230020F82300202DE9F043294B2A4F80
:1024D0001D7800248DB006461C7075BB3B691B78C7
:1024E0009B063ED5254BDFF89C901B6893F8028035
:1024F000234B0A95CDE900011B680993099C0CB98F
:102500000E251AE02379032B03D199F80030042B10
:1025100003D06846FFF785FFF0E76846FFF702FF44
:1025200005460028F5D1029A137803F00703022B21
:10253000EFD193784345ECD102AC124B02221A70D2
:1025400000233B61FFF70AFD68B12A460B4930467C
:1025500016F0A8FA14B16846FFF76EFF0DB0BDE89B
:10256000F0832C46E9E72B4622460449304616F014
:102570007BFAEFE7F4230020DC230020F82300207F
:1025800048230020D82300202DE93008002403F040
:1025900080759C4654EA050353D100240CF0E045B5
:1025A00054EA050306D02A4B01201870BDE8300814
:1025B000FFF71EB902F00A020023134344D0254955
:1025C000254BCA891A80254A13691B7813F020030A
:1025D00042F2014428D04B889C421CD053889BB2C5
:1025E000B3F5105F19D11E4B5B88A3F51053013B67
:1025F000042B12D8DFE803F00F11131303000E238E
:10260000184A116802290BD81368BDE83008013355
:102610001360FFF79FBD0F23F2E70123F0E70023CC
:102620000B4A13700120C1E749888C42084902D146
:102630000F230B70F6E7528892B2B2F5105FB2D159
:10264000F7E74FF48070B1E7BDE83008704700BF8E
:10265000F4230020441F0020C6240020DC23002097
:10266000942400209024002070B5074D074E0FCD14
:1026700034460FC495E8030084E80300337B43F03D
:102680008003337370BD00BFA48A03008C1F002039
:10269000014B187F40B27047A81F00202DE9F84376
:1026A000564CDFF88881564E564DDFF884919027BE
:1026B0003A460021201D35F053FB3A46002108F12F
:1026C000040035F04DFB3A460021301D35F048FB43
:1026D0003A460021281D35F043FB01274FF0000248
:1026E00067F3830288F805204FF000034FF00002E3
:1026F00067F3830367F38302637172718C234FF076
:102700000002E380C8F80060A8F806303560F38066
:10271000EB8067F383023C4B3C4EC4F800802C6096
:102720006A714FF000083A4AC9F800401A60A3F8ED
:102730000480C9F80480FFF797FF0FCE354C25467B
:102740000FC50FCE0FC50FCE0FC596E80F0085E859
:102750000F00314BC4F81090304A63610A23E377CD
:102760006262A3772E4B23620B23A373A6232377E6
:10277000237B2C4843F080032373637B67F30303BD
:102780006373E37B3B43E373E37B43F02003E37337
:10279000E37B43F01003E373E37B43F04003E37315
:1027A000E37B43F08003E373238B3B432383238B3F
:1027B00043F002032383238B43F004032383238BFF
:1027C00043F400432383E37E3B43E376E37E43F01D
:1027D0000203E376E37E43F00403E376E37E43F013
:1027E0001003E376E37E022167F34613E376FFF7F7
:1027F00065FC0D4B83F80080BDE8F883F8200020CD
:1028000020220020B4220020F8230020388A030070
:1028100010240020A81F0020E8200020A82300206A
:1028200050230020C6240020D82300208C21002023
:102830004823002030B50F4C2378012B89B011D0EC
:102840002378ABB968462FF07BFD0B4B03930B4A03
:102850000B490C486B462FF07FFD0B4B1860012392
:1028600010B12370002001E02070184609B030BD7F
:102870000520FBE7D8230020FF2000008C1F00204C
:1028800010010020F01F0020EC1F00202DE9F04770
:102890003C4F3B78DBB2012B8AB08A4691461CD074
:1028A000022B6DD103233B70374BB3F90010374B2C
:1028B0001868FFF731FC364B5A8892B2012A03D1CF
:1028C000012001233B7058E05A8892B2022AF7D0C7
:1028D0005B8842F201029A42F2D003233B702D4EF4
:1028E0002A4B2D4CD3F8008002A82FF0A3FB0FCE6B
:1028F00025460FC596E8030085E80300A62384F863
:102900000EA02374237B43F080032373637B012297
:1029100062F303036373E37B1343E373E37B43F0EB
:102920000203E373E37B43F00403E373E37B43F0CD
:102930000803E373E37B6FF30413E373E37B43F078
:102940006003E373E37C042262F30303E374E37C38
:1029500043F08003E3744FF47A6303FB09F363618C
:1029600002220023CDE9002321460C4B02AA404657
:102970002FF06CFB0028A3DB00200AB0BDE8F08735
:1029800005209EE7D8230020E81F0020EC1F002030
:10299000A81F0020208A0300681F002031220000A9
:1029A000024B08461970FFF747BC00BFEA1F002022
:1029B00010B50C4651B1064B18682FF001FE0146C8
:1029C00004482FF035FE2070002010BD0720FCE7E2
:1029D000EC1F00202C010020F8B5264B1A78012AA4
:1029E0000D461C4617D1244B1B780BB9234B99730A
:1029F000234B93F90000FFF71FFC224B1868FFF7E9
:102A00008FFB214B0028188001DA0120F8BD02233A
:102A100023700020FAE71B78022B28D1174CA37BE8
:102A20008B42F6D0144B1B78002BF2D1164E154F6B
:102A3000B6F900103868FFF76FFB63889BB2012B73
:102A4000E3D063889BB2022BDFD0638842F201029D
:102A50009A42DAD00A4BA57393F90000FFF7ECFB1A
:102A60003868FFF75DFB3080C0F3C030CEE705204B
:102A7000CCE700BFD8230020641F0020A81F00203F
:102A8000EA1F0020EC1F0020E81F002008B50146C7
:102A90000020FFF7A1FF024B01221A7008BD00BF02
:102AA000641F00200023034A014618461370FFF7F5
:102AB00093BF00BF641F002010B5144C2378012B76
:102AC0001DD02378022B1CD1114BB3F90010114BF0
:102AD0001868FFF721FB104B588880B201280FD0EF
:102AE0005A8892B2022A0ED05B8842F201029A42C0
:102AF0004FF0010004D020701020FEF779FE002076
:102B000010BD0520FCE70120FAE700BFD823002014
:102B1000E81F0020EC1F0020A81F0020004870477D
:102B2000F82300202DE9F84F494B1E78F6B2022E0B
:102B3000834640F08B804FF0040883F80080454BBB
:102B4000454FD3F800A0454BD1F8009091F804C050
:102B5000434C4FF0000EC3F800E00FCF25460FC5E1
:102B600097E80F0085E80F003E4B3F4D1B88E3813F
:102B7000032365602375237B43F080032373637B0A
:102B800066F3030363730523237484F81180A37C25
:102B9000012767F30403A374A37C6EF34513A374A6
:102BA000A37C6EF38713A374E37DDFF8CCE067F3B7
:102BB0000303E375BEE80F002C460FC49EE8030034
:102BC000ACF1020C84E803005FFA8CFC85F80FC0BE
:102BD0002B7B43F080032B736B7B584667F3030317
:102BE0006B73C5F8109009F050FC28BB99F80030C1
:102BF0009B0621D56B7B1D4C66F303031C4E6B7348
:102C00000FCE6C6025460FC533682B6099F80230F3
:102C1000A3734FF458632361237B43F08003237332
:102C2000637B67F303036373E37B68F30303E3737B
:102C3000E37B43F08003E3730E4B002250461A708F
:102C4000FFF788FAC0F3C030BDE8F88F0520FBE736
:102C5000D8230020EC1F0020008A030090240020CD
:102C6000441F0020C6240020DC23002094240020E0
:102C7000788A0300F42300208C8A0300014B987AA1
:102C800040B27047E82000200F207047134B5A884D
:102C900092B2022A10B41C4604D05A8842F20100B3
:102CA000904214D10E4B18680E4B42F202021A8069
:102CB000228B92B25A80A27ED2B21A715A8861F3E4
:102CC00004125A8019465DF8044B2FF065BC1A8B2C
:102CD00061F304121A835DF8044B7047A81F0020AB
:102CE000EC1F0020801F002070B5214C08460023F7
:102CF00022469D1CD9B234F82550A84223D0013376
:102D00000A2BF6D100230124156804FA03F62E429B
:102D1000D9B20FD001330A2BF6D1032070BD506811
:102D2000012303FA01F1084350601368194311604D
:102D30000020F3E7023322F823000E48408E02EB16
:102D4000830380B258800B4843889BB2022B04D087
:102D5000438842F201009842E1D107480123002252
:102D60000068FFF7BBFA813818BF0120D6E700BF23
:102D7000A8230020A81F0020EC1F002010B5164A31
:102D80000B460020841CC1B232F82440A3420FD06D
:102D900001300A28F6D110BD0123516803FA00F072
:102DA000C043014051601368184010600020F2E7F2
:102DB0000A4C63889BB2022B04D0638842F2010460
:102DC0009C42E9D1064800231A460068FFF786FABC
:102DD000813818BF0120DEE7A8230020A81F0020AB
:102DE000EC1F0020F8B5D1E90001204D00232A4650
:102DF000DCB2013305EBC306D6E900678F4208BF9A
:102E000086421ED00A2BF3D100230125166805FA4D
:102E100003F73742DCB203F101030ED00A2BF5D1E0
:102E20000320F8BD5068012303FA04F10843506001
:102E30001368194311600020F3E702EBC303C3E9F1
:102E400000010B494B889BB2022B04D04B8842F205
:102E500001019942E6D1074801231A46214600683C
:102E6000FFF73CFA813818BF0120DAE75023002031
:102E7000A81F0020EC1F0020F8B5D1E90045184A32
:102E80000020431C02EBC306D6E90067AF4208BF2F
:102E9000A642C1B20FD00A2B1846F2D1F8BD0123C9
:102EA000516803FA00F0C0430140516013681840B4
:102EB00010600020F2E70B4C63889BB2022B04D019
:102EC000638842F201049C42E9D1074800230122B1
:102ED0000068FFF703FA813818BF0120DEE700BF62
:102EE00050230020A81F0020EC1F002038B50E4BF7
:102EF0001A78022A02D01B78042B0DD10B4D002426
:102F000000231A46E1B22868FFF7E8F9012802D148
:102F100001340A2CF4D138BD302200210448BDE828
:102F2000384034F01DBF00BFD8230020EC1F002024
:102F3000A823002038B50E4B1A78022A02D01B783D
:102F4000042B0DD10B4D002400230122E1B228688F
:102F5000FFF7C4F9012802D101340A2CF4D138BD9D
:102F6000582200210448BDE8384034F0F9BE00BFC3
:102F7000D8230020EC1F002050230020034B188B87
:102F800000F0010080F00100704700BFA81F002082
:102F9000144B5A8892B2022A10B41A4681F00104E6
:102FA00004D0598842F20100884213D10E4B0F49D8
:102FB000186842F202030B80138B9BB24B80937E06
:102FC000DBB20B714B8864F300034B805DF8044B5C
:102FD0002FF0E2BA1A8B64F300021A835DF8044BF7
:102FE000704700BFA81F0020EC1F0020801F00209A
:102FF0000A4B0B4A1878FF280DD101339342F9D1BF
:10300000084B03F10802013912F8010D01F8010F14
:103010009A42F9D17047014BF3E700BFC84F005007
:10302000D04F0050F0120050134B1A78022A70B59E
:103030000C461AD1114D124EB5F900103068FFF749
:103040006BF8104B5A8892B2012A0DD05A8892B26E
:10305000022A09D05A8842F20101914204D0306814
:103060005C86FFF75DF8288070BD1B78042B1CBFC1
:10307000044B5986F8E700BFD8230020E81F002042
:10308000EC1F0020A81F0020164B1A78022A70B5EA
:103090000C461DD1144D154EB5F900103068FFF7E0
:1030A0003BF8134B5A8892B2012A10D05A8892B238
:1030B000022A0CD05A8842F20101914207D0D4E989
:1030C0000001C3E90A013068FFF72AF8288070BDC3
:1030D0001B78042BFBD0D1E90001054BC3E90A01A1
:1030E000F5E700BFD8230020E81F0020EC1F0020D8
:1030F000A81F0020134B1A78022A70B50C461AD16B
:10310000114D124EB5F900103068FFF705F8104B5D
:103110005A8892B2012A0DD05A8892B2022A09D056
:103120005A8842F20101914204D030681C86FEF7B1
:10313000F7FF288070BD1B78042B1CBF044B198639
:10314000F8E700BFD8230020E81F0020EC1F002074
:10315000A81F00202DE9F041254B1A78022A8AB0D9
:1031600088461A4602D01B78012B3FD11378214C98
:10317000022B05D1204B2068B3F90010FEF7CCFFDD
:103180001E4E27681E4C02A82EF054FF0FCE254677
:103190000FC596E8070085E80700237B43F080030E
:1031A0002373637B012262F303036373B8F1000F9F
:1031B00015D04AF6AA23238202220023CDE9002358
:1031C0000F49104B02AA38462EF040FF0E4B1880D4
:1031D000831C14BF002001200AB0BDE8F081A37B4E
:1031E00043F00103A3734FF6FF73E4E70D20F3E709
:1031F000D8230020EC1F0020E81F0020BC8A030019
:10320000A8240020FD200000C424002038B50D4B68
:103210001A78022A1D4602D01B78012B10D10A4BC6
:103220000A4CB3F900102068FEF776FF2B78022BCA
:1032300004D12068FEF774FF054B1880002000E0E1
:103240000D2038BDD8230020C4240020EC1F00200E
:10325000E81F002038B56E4B1A78013A05460C4637
:10326000032A00F2D480DFE802F0029B7712E10625
:1032700005D5FEF745FF674B18682FF011F814F0DD
:103280000C0F00F0C480BDE83840FEF739BF14F4DD
:10329000C07F52D0604B5A8892B2012A0ED05A8811
:1032A00092B2022A0AD05B8842F201029A4205D009
:1032B000584B1868FEF734FF584B1880584A53880B
:1032C0009BB2022B04D053889BB2B3F5105F2BD175
:1032D000544B5A8892B242B15A8892B2022A04D010
:1032E0005A8892B2B2F5105F1ED11B691B789A06FC
:1032F00040F18D804C4B5A8892B2002A00F08780B2
:103300005A8892B2022A00F082805A8842F203411F
:1033100091427CD05A8842F20441914277D05B8836
:1033200042F205429A4272D0404B0B221A70284654
:103330000121BDE83840FFF7C7B8E30702D52146B1
:10334000FFF7C2F814F00C0F03D021462846FFF710
:1033500079F814F0200F94E7A00721D502221A7003
:103360002D4B5A8892B2012A0ED05A8892B2022A64
:103370000AD05B8842F201029A4205D0254B1868B8
:10338000FEF7CEFE254B1880294A53889BB2B3F531
:10339000105F0ABF917C7F2149B2284615F073FB6C
:1033A000210613D51C4B5A8892B2012A0ED05A8896
:1033B00092B2022A0AD05B8842F201029A4205D0F8
:1033C000144B1868FEF7ACFE144B188014F00C0F69
:1033D00003D021462846FFF735F8A20601D5FEF7AF
:1033E0008FFE630613D50C4B5A8892B2012A0ED079
:1033F0005A8892B2022A0AD05B8842F201029A42AB
:1034000005D0044B1868FEF78BFE044B188038BDBE
:10341000D8230020EC1F0020A81F0020E81F002058
:10342000441F0020DC23002094240020F4230020EB
:10343000681F002010B5044C204602F031F82368C4
:103440000020BDE810401847C82400202DE9F04FA7
:10345000924689B0102289460DEB020000211C46DD
:10346000129F254D34F07CFC06238DF81030152377
:103470008DF81E30ADF81290AB6A98474FF00008F7
:1034800083461FFA88F3534501DD002607E06B6A87
:1034900004A8984708F1010806460028F1D0EB6A15
:1034A000584698470A2E11D006238DF80830BDF8EB
:1034B0001430ADF80C30ADF80A900DF108082B6A05
:1034C00098E80300984744B927B920B9172009B0F4
:1034D000BDE8F08F38800020F9E7002FF6D086B2E3
:1034E000009433466C69002298E80300A0473E80B0
:1034F0000028F0D0EAE700BFC82400202DE9F04101
:1035000086B00D4617460021102202A81E46144C14
:1035100034F026FC06238DF8083045238DF816304C
:10352000ADF80A50A36A98478046636A02A8984794
:103530000028FAD0E36A40469847ADF802500623C7
:1035400000258DF80030ADF804506946E4693B462B
:10355000324603C9A047284606B0BDE8F08100BF47
:10356000C82400202DE9F04F87B00E4617460021F1
:10357000102202A898462E4D34F0F2FB06238DF857
:10358000083015238DF81630ADF80A60AB6A9847FD
:10359000002481466B6A02A89847BDF80C309C4213
:1035A00038BF1C460028F5D04846EB6A98470623EA
:1035B000ADF802608DF8003040F2FF7B4FF0000A5A
:1035C000012040F2FE796E464C452FD80134A4B25A
:1035D000ADF804402B6A96E803009847C0B1BAF1F1
:1035E000000F02D140F2FF7A0AE00AF1FF3A1FFA17
:1035F0008AFAADF804A02B6A96E80300984738B120
:103600000BF1FF3B1FFA8BFBBBF1000FDCD158B96C
:103610006946EC693B46424603C9A047003018BFE3
:10362000012007B0BDE8F08F0120FAE70024D6E7BB
:10363000C82400202DE9F04387B0884617460021B2
:10364000102202A8204C34F08BFB0622002FA36A24
:103650008DF80820ADF80A8010DA45228DF8162082
:1036600098470546636A02A898470028FAD028467A
:10367000E36A9847002007B0BDE8F08315228DF873
:103680001620984700268146636A02A898470136AB
:10369000054608B9B742F7DAE36A4846984775B96C
:1036A00006238DF80030BDF80C30ADF80430ADF8CD
:1036B00002806B46226993E80300904708B1172007
:1036C000D9E72846D7E700BFC824002030B585B029
:1036D00010220021684634F043FB0B4C06238DF882
:1036E000003043238DF80E30A36A98470546636A7D
:1036F000684698470028FAD0E36A284698476368E6
:103700000020984705B030BDC824002008B5FEF75A
:1037100001F9FEF7C9F9FEF7BBFCBDE80840FEF76A
:10372000BDBF0000024B002201201A60FEF74EB818
:1037300028250020024B02201A60FEF747B800BF80
:103740002425002030B58BB001A82FF02BF90123E0
:103750008DF804308DF80530134B0493134B05930B
:1037600000244FF4E133079301A9032320468DF889
:1037700020308DF819408DF81A408DF81B408DF8D7
:1037800021408DF822402FF0EBF8094D22462021F0
:1037900028602FF0BBF82022064928682FF010F986
:1037A00020460BB030BD00BF353700002537000084
:1037B0002C2500200425002070B5074D2C680646F6
:1037C0000A463CB9054B014618682FF0FDF82E60FB
:1037D000204670BD0520FCE7282500202C25002070
:1037E000C20710B5044601D503F07CFBA3070ED534
:1037F000074C0848218803F017FB00232360064B81
:10380000044918682022BDE810402FF0D9B810BD37
:1038100024250020042500202C2500200C207047A2
:103820001FB5094B1C68621C1A605CB968462FF012
:103830004BF90423694620468DF800302FF056F9E5
:10384000024B186004B010BD342500203025002044
:10385000074B70B51C68013C06461C6024B9054D39
:1038600028682FF087FA2C600023336070BD00BFFA
:10387000342500203025002038B500F11003D5088C
:1038800004462A46184634F043FA2A4601462046A2
:10389000BDE838402FF078BAD2082FF075BA000092
:1038A0007FB50646684615461C462FF019F91023C9
:1038B0000393054B009669461868CDE901542FF033
:1038C0005FFA04B070BD00BF302500202DE9F04143
:1038D00005460F469046032400F11C062022294687
:1038E0004046B8472A1F002352F8041F964243EA75
:1038F0000103F9D12BB9013CF0D14FF0FF30BDE805
:10390000F0810020FBE70000826801239A4201D881
:10391000044870474168C95C09B90133F6E70020E3
:10392000704700BF80B3FFFFF8B5044600688842C7
:1039300017461D4618D81E1D0B1AB34214D32A462B
:103940003946043034F0E4F923682A0E1A702368EB
:103950002A0C5A7023682A0A9A702368DD7023683B
:10396000334423600020F8BD0048FCE700B1FFFFAE
:1039700070B5164602688A4204461D4610D88B1A56
:10398000691C8B420CD315700068013020602A46F8
:10399000314634F0BDF923682B442360002070BD0C
:1039A0000048FCE700B1FFFFD2E90123FFF7E0BFC9
:1039B0002DE9F043B9B0804601AC409800940F4621
:1039C00016461D4634F014FFD7E9012381460DF158
:1039D000DD016846FFF7A8FFF0B9D6E901230DF134
:1039E000DD016846FFF7A0FFB0B9D5E901230DF16D
:1039F000DD016846FFF798FF70B94B46409A0DF11C
:103A0000DD016846FFF790FF30B9009A419B121B19
:103A10002146404628F030FB39B0BDE8F083000075
:103A200010B58EB0044601A82FF018FA174B019379
:103A300004F22C43029304F27C43039304F28C437C
:103A4000049304F2EC43059304F2FC43069304F25E
:103A50000C43079304F21C53089304F2DC430993CC
:103A600004F26C430A9304F2CC430B9304F25C43DC
:103A70000C9301A904F2BC43D4F82C050D9330F04B
:103A8000ADF808B9012323730EB010BDDCB90300F3
:103A900010B5421E00F12003103013F8014D12F84A
:103AA000011F147083421970F7D110BD38B5036837
:103AB0008B42044601D90E4838BDC91A0129FADDE6
:103AC0005878042812D1D2E901056A1C9142F2D338
:103AD000194611F8013B21609D42ECD12A4634F091
:103AE00017F923681D4425600020E5E70148E3E756
:103AF00080B0FFFF80B1FFFF2DE9F043AFB003AC12
:103B0000DDF8D8901E460546884617461DA9412275
:103B100020462FF039F9224649463046FFF7C6FFC6
:103B200018B93368994503D21E482FB0BDE8F08319
:103B3000A9EB0309B9F1200FF6D91A4612F8011BB7
:103B400032602029F0D10DF1340C2133E1461068A8
:103B50005168E646AEE8030008329A42F446F6D1D0
:103B60006B793260C3F101030F4A286852F82330A1
:103B7000009315AE01963B4622464146FFF718FFDB
:103B80000028D2D107A82FF061F9084BD5F82C05F1
:103B900007A9CDE90738CDE90974CDE90B692FF004
:103BA000D5FFC2E780B0FFFFF88D0300DCB903004A
:103BB00030B5044685B058B100250560856068467B
:103BC0002FF024F9694628462FF02CF9C4F82C056B
:103BD00005B030BD38B5044638B100250560D0F8D1
:103BE0002C052FF019FFC4F82C5538BD38B51D46EB
:103BF0000023044603734171104628F0EFF920605A
:103C0000002800F0A480042384F85332514B25711E
:103C10009B6A04F51570024603F1400153F8045BFA
:103C200042F8045B8B42F9D1FFF732FF04F51D70B7
:103C3000FFF72EFF412204F2532104F57F702FF08D
:103C4000A3F804F2D9331846DDE9041234F060F821
:103C5000059A014604F20C402FF096F8202204F158
:103C60000D0104F21C402FF08FF8202204F12D01E9
:103C700004F22C402FF088F8202204F14D0104F2C8
:103C80003C402FF081F8202204F16D0104F24C40F9
:103C90002FF07AF8202204F18D0104F25C402FF01D
:103CA00073F8412204F1AD0104F27C402FF072F868
:103CB000412204F1EE0104F28C402FF06BF8412216
:103CC00004F22F1104F29C402FF064F8412204F515
:103CD000B87104F2AC402FF05DF8412204F2B1114A
:103CE00004F2BC402FF056F8202204F2332104F2F3
:103CF0006C402FF04FF8412204F5F97104F2CC40EA
:103D00002FF048F8412204F5257104F2DC402FF031
:103D100041F8412204F2D52104F2EC402FF03AF8A8
:103D2000412204F2163104F2FC402FF033F8412214
:103D300004F2573104F20C502FF02CF8412204F514
:103D4000667104F21C502FF025F8002038BD02489F
:103D5000FCE700BFDCB9030080AFFFFF036843B19D
:103D6000037933B1D0F82C350348002B18BF00205D
:103D700070470148704700BF80B0FFFF2DE9FF4149
:103D800004AD8C1845F8041D00F2EC4706463A468F
:103D900021462846FFF78AFE00BB3846FFF7B4FDF0
:103DA000E0B906F57F7800942B463A464146304606
:103DB000FFF7A2FE90B906F2FC473A462146284694
:103DC000FFF774FE50B93846FFF79EFD30B90094F6
:103DD0002B463A4641463046FFF78EFE04B0BDE81A
:103DE000F08100002DE9F04FA9B004468846154641
:103DF00009910D30DDE932120793FFF767FD0028C6
:103E000040F0C180DDE9321204F12D00FFF75EFDC4
:103E1000002840F0B880DDE9321204F14D00FFF7D0
:103E200055FD002840F0AF80DDE9321204F16D004D
:103E3000FFF74CFD002840F0A680DDE9321204F1C6
:103E40008D00FFF743FD002840F09D801FA82EF055
:103E5000F1FF4E4B1F9304F21C430393209304F293
:103E60002C430493219304F23C4304F27C4604F275
:103E70008C4A0593249304F29C4704F24C4304F2C9
:103E8000AC491FA9D4F82C052296CDF88CA0069336
:103E900025932697CDF89C902FF0C8FD002872D16D
:103EA00045443246294609A8FFF77EFD00286AD11D
:103EB0006179374A206852F8212000920FAB04F54F
:103EC0007F7B01933A4633465946FFF771FD002840
:103ED00059D10AA82EF0B2FF2C4B0A93039B0B93E7
:103EE000059B0C9317AE0FAB0AA9D4F82C050D93C4
:103EF0000E962FF0E1FD002845D13A46294609A843
:103F0000FFF752FD00283ED120233246294609A85A
:103F1000FFF72EFD002836D162791D4B206853F83B
:103F2000223000930FAF019753464A465946FFF798
:103F30003FFD40BB0AA82EF081FF144B0A93049B5F
:103F40000B93069BD4F82C050E960AA9CDE90C37E5
:103F50002FF0B2FDB8B95246294609A8FFF724FD53
:103F600088B94A46294609A8FFF71EFD58B92023FB
:103F70003246294609A8FFF7FBFC20B9099B079A9E
:103F8000A3EB0803136029B0BDE8F08FDCB9030090
:103F9000F88D03007FB5037B039105460C4616465A
:103FA000BBB16B793444D3B105F20C56324621468D
:103FB00003A8FFF77BFD80B93046FFF7A5FC60B989
:103FC000009403AB324605F21C512846FFF794FDDE
:103FD00003E0FFF725FD0028E3D004B070BD039B8C
:103FE00028799C4216D3E21A022A13DD1A78032A92
:103FF00001D00948F1E75A789E78033346EA022651
:10400000039327F0B7FE0028F3D04388B342CBD008
:104010000248E2E70248E0E780B0FFFF80B1FFFF1F
:1040200000B1FFFF2DE9F0479A4698B0037B02915B
:1040300004460F461546002B5BD06279324B206850
:1040400053F82230009304F2BC4804F2CC4908AE85
:1040500001964B46424604F2DC41FFF7A9FC0028DA
:104060004BD103A82EF0EAFE284B039304F26C43D5
:10407000049304F25C43CDE9053603A910AED4F8ED
:104080002C0507962FF018FD002836D16379012BF7
:104090003D4416D1029B20799D4231D3EB1A022B6D
:1040A0002EDD27F067FE68B3029B03221A70438857
:1040B000029A1B0A5370029B42889A70029B033338
:1040C00002934A46294602A8FFF76EFCA8B9424669
:1040D000294602A8FFF768FC78B920233246294612
:1040E00002A8FFF745FC40B9029BDF1BCAF800702D
:1040F00003E0FFF795FC00289FD018B0BDE8F087DB
:104100000348FAE70348F8E7F88D0300DCB9030039
:1041100000B1FFFF80B0FFFF2DE9F04104469CB0E5
:104120000068164688461F4628F072F8B0420546D9
:1041300029D801AE0BA9412230462EF025FE05A854
:104140002EF090FE114B059304F26C43069304F29B
:104150000C53079304F2FC43089305A904F22C4383
:10416000D4F82C05CDE909362FF080FD40B943463F
:1041700020220DF12D01206827F07EFF00B93D605F
:104180001CB0BDE8F0810248FAE700BFDCB90300CB
:1041900000B1FFFF4FF49472002133F0E1BD10B580
:1041A000044658B1006848B131F0D2FE20464FF4C1
:1041B00094720021BDE8104033F0D2BD10BD000064
:1041C00030B50446006885B00D4698B901A831F0B5
:1041D00081FB04238DF8053004F10C0363600B4B65
:1041E000A36001A9201D31F015FE206020B96FF0F9
:1041F000360008E031F0C2FEB5FA85F149092068C1
:1042000031F0D0FE002005B030BD00BF0E8E03009F
:104210007FB5044601A80E4631F05CFB04238DF8FF
:10422000053004F10C05084BA36001A96560201D51
:1042300031F0F0FD4FF48E72206006F10C0128463B
:1042400033F066FD04B070BD0E8E030008B5006843
:1042500031F026FE002814BF6FF03600002008BDA4
:1042600008B5006831F006FE002814BF6FF0360074
:10427000002008BD08B54022006831F0FBFD002891
:1042800014BF6FF03600002008BD000010B5054BCC
:104290000A44914200D110BD11F8014B6040185CF6
:1042A000F7E700BF0F8E030038B50B4C23680546B7
:1042B0009B680A48984700F0030028602368074875
:1042C0005B68064D00219847236828469B689847FD
:1042D0000028F9D138BD00BFD801001000400340CC
:1042E000024B1B6801465B6801481847D801001063
:1042F0000040034001EB4031014800682EF0F6BA5F
:10430000B025002037B50D4DEC7804230DEB0302EA
:1043100000212046FFF7EEFF9DF80430FF2B03D06D
:1043200003F0FD037C2B07D10C2303FB0454A08B6B
:10433000C0F5005003B030BD0020FBE7742500201D
:10434000014802F0D5BA00BF3C250020014802F028
:10435000A3B900BF3C250020F7B51F460B4B044610
:1043600018680D46164660B9042309480093324682
:104370003B4605EB443100682EF0C0FAC00F03B095
:10438000F0BD80470028EFD10B20F8E7B8250020CA
:10439000B025002013B504460948006801908DF847
:1043A0000610591C89000423ADF8042089B20DEBD6
:1043B00003022046FFF7D0FF024B187002B010BD79
:1043C000B08903003825002013B502AC012304F89E
:1043D000012D2246FFF7C0FF014B187002B010BD3F
:1043E0003825002030B503783F2B19D84488B4F520
:1043F000806F17D28588B5F5806F15D20B4800788D
:1044000003280CD0D18144EA0331002045EA013170
:1044100013729623908111609580D480937230BD81
:104420000920FCE70720FAE70820F8E78C010020C4
:1044300073B5072314466A4605460E46FFF75AFF32
:104440009DF8003025749DF80110A6819D081B027F
:1044500003F4407319439DF803309DF804609DF800
:104460000200E1809A099B0103F47C6343EA96030E
:10447000E3819DF80530257242EA8002980840EAFF
:10448000861060729DF80600A28003F00303962850
:1044900041EA0531E37242EA013214BF43F00103FD
:1044A00043F00403A0722260E37202B070BD2DE9F4
:1044B000F0438BB00C1D8900814617469846A4B284
:1044C0008DF80710002664B901220DF1070130466E
:1044D000FFF7DCFEB84214BF022000200BB0BDE89D
:1044E000F083202C254628BF20252B46494602AACA
:1044F0004046FFF7FFFE2A46304602A9FFF7C6FEF8
:10450000641B4D440646A4B21FFA85F9DBE72DE98A
:10451000F84384898946C189641AA4B205461646BF
:104520001F46427A037C2046FFF7C1FF804658B9F8
:1045300004EB090189B2AB898A199A4207DC334638
:104540003A46287CFFF7D6FE4046BDE8F883B5F82A
:104550000E80B04534BF4FF005084FF00608F3E772
:1045600038B50A460D4600210446FFF72DFF064BDD
:104570001B7843B9054B7C2D4FF00C0208BFDC7053
:1045800002FB0434A57538BD3825002074250020B1
:1045900073B5144DEC7804230DEB0302064600219D
:1045A0002046FFF7A7FE9DF80430782B15D0FF2B8F
:1045B00001D07E2B03D17C212046FFF7D1FF0C23B5
:1045C00003FB0453EC70988BE8803044B0F5005F37
:1045D00004DD78212046FFF7C3FFFF24204602B008
:1045E00070BD00BF7425002008B538B1073080B217
:1045F000FFF7CEFFA0F1FF035842584108BD00006D
:104600002B4B1B68F7B5044653B92A4B9A682A4BC3
:10461000610318682EF004F9002807DA012003E08E
:1046200098470028F1D10B2003B0F0BD234E0C2594
:1046300005FB046305FB0465DB7DFD2B9ABF01339D
:10464000DBB20123EB758DF8053049F20F63ADF84D
:10465000063004230DEB0302FF27002120468DF8CE
:104660000470FFF779FE164B187010B90323AF756D
:104670006B76204600234FF0FF32FF21FFF78AFEC2
:10468000204601234FF0FF32FF21FFF783FE204633
:1046900002234FF0FF32FF21FFF77CFE0C2303FBC8
:1046A00004641023A383FF2323760020BCE700BF0C
:1046B000B8250020A4250020B02500207425002066
:1046C000382500202DE9F04F8D4B95B01B680290E6
:1046D000002B40F0B3808B4C94F80180A778012325
:1046E000E37305AA042300214046FFF703FE9DF86B
:1046F00016309B0740F0D480F82206214046FFF791
:1047000063FE0C2303FB0843F8221A769DF814304D
:10471000702B03D070214046FFF722FF042305AA27
:1047200000213846FFF7E6FD9DF81430FE2B03D03C
:10473000FE213846FFF714FFFE2206213846FFF718
:1047400043FE0C2303FB0742FE21117603FB0842C4
:104750006D4D928B628200222A7094F802A06278DA
:10476000019203FB024203FB0A4306A8B2F81CB005
:10477000B3F81C90FFF798FD0395039BBBF1160F50
:104780001B7862D8002B40F08880C9F50052A9F14F
:10479000100392B202F1885210219BB25046FFF7EB
:1047A000DBFD039B1B781843039B18700698FFF7EB
:1047B00097FD0C2303FB0A43B4F91220A3F81C90C5
:1047C000617BA4F814B001235046A4F81090FFF7C1
:1047D000E1FDA17BB4F9142002235046FFF7DAFD76
:1047E000029B002B08BF10230293238A029AC3F571
:1047F00000539342ACBF7C2178213846FFF7B0FECE
:104800004046FFF7FDFE039BFC2218700621384648
:10481000FFF7DAFD0C2303FB0743FC221A76404620
:104820009B8B84F80280FE216770E770E380FFF7BE
:1048300097FEE088C0F5005000B203E098470028DA
:104840007FF449AF15B0BDE8F08F33BBABF107057E
:10485000ADB207AA29460198FFF7EAFDBDF82A6024
:1048600006F110039D4216D39DF82630962B12D1E7
:104870009DF8273003F00303AD1B022BADB227D107
:10488000019B9DF8252031462846FFF710FE30B3E6
:10489000ABF10805ADB2162D04D80698FFF720FD40
:1048A0000020CFE7362D9ABFA5F11606B6B2202616
:1048B000AD1BADB233460CAA29460198FFF71AFD8D
:1048C00014AB334413F8213C962B03D13544ADB2DD
:1048D000AB4652E7013EB6B2002EF1D1DBE7C9F19B
:1048E00088520736B6B202F500523346921B29466B
:1048F0000198B144FFF7FEFC1FFA89F9E8E700BF11
:10490000B8250020742500203825002038B5124B2A
:104910001B6805464BB9114801F0EAFF104B1C78A3
:104920004CB10E4801F0B8FE03E098470028F2D1E0
:104930000B24204638BD0B4BDB88C3F500531BB25C
:10494000AB4200DB2DB90020FFF7BCFE064B1C7804
:10495000E7E70424E5E700BFB82500203C25002058
:104960008C0100207425002038250020174B1B687F
:1049700070B5FBB91648174E174C01F0B9FF00256A
:104980003378E8B2984205F1010519D32578134C24
:10499000013B0020A3707E21A38B6070E070E38058
:1049A000FFF7DEFDA078FE21FFF7DAFD084801F0F1
:1049B00073FE03E098470028DCD10B25284670BD24
:1049C000FFF71EFE237818432070D9E7B825002092
:1049D0003C250020B4250020382500207425002027
:1049E00037B505318CB2012321460DF1070205468A
:1049F000FFF780FC9DF80720214602F0FD022846C3
:104A0000FFF7E2FC0C4B0C2404FB0534637E83B1FE
:104A100001230DF1070202212846FFF76BFC9DF8E8
:104A20000720022102F0FC022846FFF7CDFC0023FC
:104A3000637603B030BD00BF742500202DE9F04F30
:104A400014461F46137AD288B4F80480DFF8E49045
:104A500087B01B0303F47C33C2F309021343C8F38A
:104A60000908109D064648EA033807F00F0A162980
:104A700003D80023A3810A2032E007391FFA81FB03
:104A800001AA59463046FFF7D3FC9DF80F3003F0DA
:104A90000303022B33D1237ABAF1030F48D8DFE89E
:104AA0000AF005222602019B984528D195B107F00E
:104AB000F003102B0ED1AB68AA89002101A8FFF7E3
:104AC00026FDE0B9EB88A868AA882968184433F065
:104AD00011F9A0B901AD0FCD0FC42B6823600020E0
:104AE00007B0BDE8F08F9DF80C209A42DDE79DF8F5
:104AF0000C209A4203D1E288BDF80A30F5E79DF810
:104B00000F0010F004000CD0BDF812108B4503D933
:104B1000ABEB010189B2AAE730465946FFF760FFC7
:104B20000020FFF7CFFD99F80360B9F806109EE763
:104B30000420D5E7742500202DE9F0478EB0DDE98B
:104B400019A6169FBDF85C90BDF8608002AC1D46AA
:104B50004FF6FF7384E803003380002F35D0002D1B
:104B600033D0BAF1000F30D0B9F1000F2DD0B8F525
:104B7000005F2AD8B5F5805F29D2204609AA2946C8
:104B8000FFF730FC0446E0B9124801F0B1FE124BC9
:104B9000CDF814A0D988D878ADF8189005AB00935B
:104BA00009AA1223ADF81A800797ADF82050FFF735
:104BB00045FFC4B214B9BDF828303380054801F070
:104BC0006BFD20460EB0BDE8F0870424F9E705240C
:104BD000F7E700BF3C2500207425002010B58AB0FF
:104BE00002AB83E8030005AA00211846FFF7FAFB91
:104BF000044698B90A4801F07BFE0A4B05AAD988F9
:104C0000D87800940323FFF719FF08B9BDF82240B4
:104C1000034801F041FD20460AB010BD0024FAE728
:104C20003C250020742500202DE9F04FA14BA24E19
:104C30001A783270032A8FB081461D4640F08F806B
:104C4000002206A81A70327001F0C4FC20B10120C5
:104C500028700FB0BDE8F08F012306A9974806938E
:104C600001F0C2FC80460028F1D1954CDFF85CA22F
:104C70002E2201464FF0FF37204633F071F8E760EF
:104C80002761A7822DF0D4FD494640462DF0ECFD6A
:104C9000DFF83C92CAF8000049462DF0C5FDD9E97D
:104CA0000112B1FBF2F3DBB2022B864828BF0223CC
:104CB000B2F5005F237003708146C8D1B1EB433F6A
:104CC000C5D3DAF80030002BC1D04FF00C0AE280D7
:104CD00067802771D34699F800005FFA88F585420E
:104CE0003FD3E378FF2B40F0B6802179FF2900F015
:104CF000A180E1700225E378FF2B0BD10027384615
:104D0000E770FFF77DFC3378184330707E2138461A
:104D1000FFF726FCA378FF2B12D1E07899F800204A
:104D2000431C93FBF2F002FB1030C0B2A070FFF7FF
:104D300067FC337818433070FE21A078FFF710FC31
:104D4000E07860700C2303FB0043012D998B5E4BD0
:104D5000E1801D7000F08380022D00F0A680307885
:104D600077E7042305AA00212846FFF7C3FA0AFBC8
:104D700005439DF815109DF81420D9759A759DF876
:104D8000163003F0FC010C2903D09DF8171096296A
:104D90000ED10AFB0541C3F301034B76931CDBB232
:104DA000012B01D97E2A0ED10BFB054310229A83D9
:104DB0000AFB05439B7D03F0FB02782A32D1E570A4
:104DC00008F1010887E709A8FFF76EFA4FF40053CE
:104DD0004FF0885200212846FFF78CFA4FF4005715
:104DE000043FBFB207F1885001684A1C01D1002F6F
:104DF000F6D1012213465FFA81FCBCF1FF0F18BF08
:104E00001A460133DBB2052B4FEA1121F3D10160C1
:104E100009980392FFF764FA039A0AFB05431744C3
:104E20009F83C5E7702B01D12571C9E7FE2B08BF11
:104E3000A570C5E7A378FF2B0FD0013393FBF0F2E9
:104E400000FB12330C2202FB0342958B0DB1E37081
:104E500050E7A1704FE701254DE700254BE71729E3
:104E60007FF67DAF073909AA89B2FFF7E1FA9DF80D
:104E70002F305B0719D5E188BDF83230E07807396B
:104E8000C91A0023009309AA032389B2FFF7D6FDAC
:104E900000287FF464AFBDF8301000293FF45FAF05
:104EA0009DF83400FFF79CFD59E70020FFF70AFC4E
:104EB00055E700BF8C010020382500203C2500204C
:104EC00074250020B4250020BE250020B025002038
:104ED000A42500202DE9F04FC589774C0735ADB2E8
:104EE0008DB0064628468B461746FFF751FBFF2834
:104EF0000BD12846FFF7E6FBA8423EDA20780028CF
:104F000008BF05200DB0BDE8F08F002322786B4D5F
:104F1000D2B917B1022F17D1B3B1337A8DF824303B
:104F2000F388ADF82230B388ADF820300023E9884B
:104F3000E878009307AA0323FFF780FD9DF82C3043
:104F40003374BDF82830B38195F80380B5F8069026
:104F5000042304AA00214046FFF7CCF99DF8103045
:104F60007E2B03D17C214046FFF7FAFA9DF81030E2
:104F70007C2B04D00123237099E00123C6E7B6F807
:104F80000EA00AF10707BFB209EB0703B3F5005FF4
:104F9000029300F38E80F188307A8DF81510C1F3FA
:104FA0000122B18842EA80028DF814208A088DF827
:104FB0001620CAF3851242EA81128DF817204FEAB3
:104FC0008A028DF8182009EB0A0293B20C2F039382
:104FD00043D83B4E5946524606EB0A0B304632F058
:104FE00097FE05989DF8182046F80A008BF80420D3
:104FF0000AF1050292B231460020FFF747F99DF809
:10500000182042EA9012800040F002008DF818202B
:105010008DF8190096220598BDF8183046F80A0058
:105020008DF81A20ABF804308BF806203B46324648
:1050300049464046FFF790F92070EB881F440C2347
:10504000EF8003FB0855BDF80830AB83237873B3BA
:1050500003994046FFF7C4FC29E052465946002018
:10506000FFF714F9052205A9FFF710F99DF818209C
:1050700042EA901280008DF8182040F0020096223B
:105080008DF819008DF81A2053465A464946404675
:10509000FFF762F90723207005AA03994046FFF73E
:1050A0005BF923781843C0B220700028C5D020785F
:1050B00028E705235FE700BF38250020742500207E
:1050C000682500202DE9F041054688B0002800F051
:1050D0008580837B002B00F081804148414FDFF8C1
:1050E000188101F005FCAB7B3F4A13F0010F1CD087
:1050F00023F00101A9733D49C878C988A8F80010B8
:105100003B4938709E07A889088002D5012111709B
:1051100006E013F0040101D00221F8E71C07F6D4E1
:10512000D8063BD5334B002119702B788DF81430FD
:105130006B88ADF81230AB88ADF8103092F90030C2
:105140003878B8F800100022009203AAFFF776FC26
:10515000064600283ED1BDF81230BDF81A20BDF831
:1051600018106B80BDF81030AB808B1AA8F8003097
:10517000204B9DF814401B789DF81C002C70012BCF
:10518000AA81387014D023D3022B1DD004241448D4
:1051900001F082FA204608B0BDE8F081990602D5F8
:1051A000144B0121C0E75B06BFD5124B0221BBE7C0
:1051B000AB688BB10E490988914209D3314603A8E7
:1051C000FFF7A5F90446E2E7002CE0D0FFF708FC62
:1051D0003446DCE70A24DAE71C46D8E70424D9E79A
:1051E0003C250020C0250020C1250020742500207A
:1051F000BC250020BF2500208E01002030B58BB0DB
:1052000002AB83E8030005AA00211846FFF7EAF87D
:10521000044600282AD1174B1B681BBB164D1748A4
:1052200001F066FB00230093E988E878032305AAD0
:10523000FFF704FCC4B28CB9BDF820109DF824001F
:10524000FFF7CEFB00940323E988E87805AAFFF76F
:10525000F5FB0A2806BF0A4B1C780124074801F019
:105260001BFA03E098470028D8D10B2420460BB046
:1052700030BD00BFB8250020742500203C2500204B
:1052800038250020F0B58BB002AC109E84E80300F6
:1052900017461D4626B31BB3B3F5805F22D22046C6
:1052A00005AA1946FFF79EF80446B0B90E4801F06A
:1052B0001FFB0E4B05AAD988D87800940323FFF76B
:1052C000BDFBC4B234B933462A46394605A8FFF7B8
:1052D0001EF90446044801F0DFF920460BB0F0BD8A
:1052E0000424FAE70524F8E73C2500207425002073
:1052F00030B589B06C4684E803001D46114663B39F
:105300005AB3B2F5805F2AD2204603AAFFF76AF8A3
:105310000446A0B9134B1B686BB9134801F0E8FAB7
:105320000022294603A8FFF7D5FD044650B10E48D8
:1053300001F0B2F903E098470028EED10B24204693
:1053400009B030BDBDF818100029F0D09DF81C0040
:10535000FFF746FB054B1C78E9E70424EFE705243B
:10536000EDE700BFB82500203C25002038250020AF
:1053700030B58BB002AC84E803001D46002B35D05D
:10538000002A33D091B2B1F5805F31D2204605AA10
:10539000FFF728F8044610BB164B1B68DBB916480C
:1053A00001F0A6FA154BD988D8780023009305AAF6
:1053B0000323FFF743FBC0B2A0B10A2814D1012296
:1053C000294605A8FFF786FD041C18BF01240A48DA
:1053D00001F062F903E098470028E0D10B24204651
:1053E0000BB030BD0D24F2E70124F0E70424F6E70A
:1053F0000524F4E7B82500203C2500207425002072
:1054000030B58BB002AC84E803001D46002B3BD0C6
:10541000002A39D091B2B1F5805F37D2204605AA73
:10542000FEF7E0FF044640BB194B1B680BBB194855
:1054300001F05EFA184BD988D8780023009305AAAA
:105440000323FFF7FBFAC4B2D4B90222294605A808
:10545000FFF740FD044640B9BDF8201029B19DF882
:105460002400FFF7BDFA0D4B1C780A4801F014F92F
:1054700003E098470028DAD10B2420460BB030BD5A
:105480000A2C18BF0124F0E70424F6E70524F4E70A
:10549000B82500203C250020742500203825002058
:1054A0000F4B03600F4B43600F4B83600F4BC36088
:1054B0000F4B03610F4B43610F4B83610F4BC36174
:1054C0000F4B03620F4B83620F4BC3620F4B436260
:1054D0000F4B03630F4B43630F4B8363704700BF56
:1054E000294C00000D4900007153000001540000D8
:1054F000FD51000085520000394B0000F1520000C0
:10550000DD4B0000414300004D430000C55000004A
:10551000E94500006D490000054300000C381F28D4
:1055200035D8DFE800F014343434343434343434CF
:10553000183434341C34342024343434343428348F
:105540003434342C3010134B1B68186A7047114BDD
:105550001B68186870470F4B1B68586870470D4BE5
:105560001B68986870470B4B1B68D8687047094BDD
:105570001B6818697047074B1B6858697047054BD3
:105580001B6898697047034B1B68D86970470020F7
:10559000704700BFA89A002000B5044B8BB00A21C9
:1055A0001B68684698470BB05DF804FB34C10300E4
:1055B0004FF0FF339360704733F096B933F0F0B893
:1055C00033F09EB933F0A4B933F0BEB80000000048
:1055D0002DE9F0470E68146817463246804612F8E7
:1055E000010B0A60242882B01D462FD0662808D0FF
:1055F000EA69012310700020EB603C6002B0BDE856
:10560000F0872B8B012B00F08780073424F00704F0
:10561000D4E9008908340022002340464946FBF7BC
:105620009DFC002870D1064644A3D3E900234046E0
:105630004946FBF7B1FC00282ED03F4BEB61002020
:105640000723EB603C6002B0BDE8F087707802365B
:1056500053280E60CAD154F8042B1B8BEA613C60BE
:10566000D8F80000A96800933B4633F0D1F8D8F889
:1056700000303BB1AA688242D8BF02F1FF30034438
:10568000C8F800302B683C681B1A00222B60EA60C7
:105690003C6002B0BDE8F08749464046FBF786FC17
:1056A0008246FBF77FF902460B4640464946FBF728
:1056B0002BF81FA3D3E90023FBF7DEF9FBF79EFCD1
:1056C0000A2301460422686900F0D6FB2E23421EFD
:1056D000EA6100F8013CD5E90423E8691B1AEB6094
:1056E000D21A51460A2300F0C7FBE6B1421E2D2311
:1056F000EA6100F8013CE8696B69181AE86000206B
:105700003C6002B0BDE8F0872B6909F10041013B24
:1057100089462B61012687E72068FBF755F9043499
:105720008046894677E7E861E6E700BFAFF300808F
:10573000000000000088C3405C8F03000000C0FF31
:10574000FFFFDF4108B533F01BF8034BD868BDE815
:10575000084033F02DB800BF789A002008B533F028
:10576000A7F8012801D033F073F8064833F000F8A9
:1057700032F0EEFF32F0BCFF33F08AF8BDE80840AB
:1057800033F04AB88957000008B533F0A5F833F074
:1057900047F80320BDE8084033F036B810B504469A
:1057A000032033F031F82046BDE8104033F06CB8E8
:1057B000A8B110B588B00446684600F041FB083433
:1057C00000226B462146104633F0AEF820B1C0E906
:1057D0000004083008B010BD002008B010BD002043
:1057E000704700BF33F04CB850F8042C50F8081D37
:1057F000401A0244002033F073B800BFFEE700BF38
:10580000164A1748824208B50CD2D143154B0144C1
:1058100021F00301181D014453F8040B42F8040B56
:105820008B42F9D1104A114882420CD2D143104B1D
:10583000014421F00301181D014453F8040B42F800
:10584000040B8B42F9D100F057F90A4A0A4B12684F
:105850009A4200D108BDFFF7D1FF00BF0001002030
:105860000C0100201D030000789A0020989B002066
:105870002903000000B4021055191411B0B170B51D
:105880000C46B1B105460846FFF792FF064658B1EF
:1058900055F8042C083AA24228BF2246294632F085
:1058A00037FA2846FFF7A0FF304670BD0846FFF7DD
:1058B0007FBFFFF799FF2646F6E700BF0846FFF7D0
:1058C00077BF00BF11B10846FFF78EBF704700BF1A
:1058D00008461146FFF7D2BF00F02EB900F060B9BC
:1058E00038B52023EFF3118583F31188064C00218E
:1058F000A06832F025FF6369181AA369834238BF94
:10590000002085F3118838BD789A00200161704726
:105910000069704770B520230546EFF3118683F3C5
:105920001188838A9BB2012B03D0002086F3118853
:1059300070BDC46832F010FFAB68201A8342F5D204
:105940002B698342F1D3F1E7808A7047436808608E
:105950004B60196041607047014B9868704700BF09
:10596000DC9A002010B50446044B32F03DFFA368DA
:10597000002B14BF2046002010BD00BFBC03002038
:1059800010B42023EFF3118483F31188436A0B438F
:10599000436284F311885DF8044B32F009BF006B59
:1059A0007047406B704780687047C1627047000065
:1059B0002DE9F84F2C4CB4F8008023780123237094
:1059C0004FF0000B627884F801B006460F462022A3
:1059D000EFF3118A82F31188D0F80890894507D136
:1059E0008AF31188404632F087FE4846BDE8F88FBA
:1059F0000029B5BF1D4BA5691D6803FA01FB037D96
:105A0000B4BF2D1905EBC105012B16D132F01CFFD7
:105A1000306C32F029FF20B16368F26823EA020398
:105A2000636023699E421AD1286865613146FFF799
:105A30008DFF636843EA0B036360002FB760C6F80D
:105A40000CB0356404DA002323756375A375E37520
:105A5000237A01232372637A00236372C0E73146FD
:105A6000284632F005FFE4E7F89A0020E8BE03007C
:105A7000F7B50D4FFD6955F821C00C4D2D686545F2
:105A800004460E4603D00024204603B0F0BDDFF8E4
:105A900020C0CDF800C032F003FFFB6953F8263078
:105AA0009D42F1D1EFE700BF489B002020C00300DA
:105AB000BC03002008B532F027FE064B0648DA6921
:105AC000002350F8231042F8231001330F2BF8D194
:105AD00008BD00BF489B002000010000C0E9012173
:105AE000704700000F2882BF024B1038C3F8000F28
:105AF000704700BF00E000E031F0AEBF0C4B1B6808
:105B000013B51B6B0446984700910190009B63609E
:105B100000232360019B1B0C0193019A054BA2FB00
:105B20000301020C42EA0142A26002B010BD00BFB4
:105B30008C01001000CA9A3BF0B5202385B00446C2
:105B4000EFF3118583F3118801A8FFF7D7FF114AFE
:105B5000029B5068206016689168039F33445B1A6B
:105B60006360D16839440C4FA160B94204D9013354
:105B700063600A4B0B44A3601369626813449E423E
:105B800088BF0130636088BF206085F311880020E2
:105B900005B0F0BD849B0020FFC99A3B003665C468
:105BA00030B5202385B00446EFF3118583F31188C7
:105BB00001A8FFF7A3FF0F4B22685A6062681A60C2
:105BC000029A9A60A2680398904283BF0A49091A10
:105BD0005218121A8BBFDA60DA604FF0FF320022DF
:105BE0001A745A749A74DA7485F31188002005B017
:105BF00030BD00BF849B002000CA9A3B08B547F621
:105C00009061D0E90A230020FBF718FA00234FF037
:105C1000FF328B4208BF824238BF104608BD0000E9
:105C200010B50C4631F09FFD0B4B1B68E21AB2F128
:105C3000004F03F1060307D91C46084B1C6050B9FE
:105C4000BDE8104031F093BD1A1B002AF5DB9C42E1
:105C500038BF1C46F1E710BD30200940182009402C
:105C60002DE9F041D0E90A43A4FB014501FB0355AE
:105C7000D0E90C23A71845EB0308390C064600228F
:105C800041EA0841FFF7CCFFC6E90E78BDE8F08194
:105C900038B505462023EFF3118483F31188194AA0
:105CA00001231360184A1360184B1B6814201B6AE9
:105CB00098472B69164AB3F5802F2CBF1B0C042381
:105CC0001360144B1B6823211B6800209847124B5C
:105CD00001221A60114B1B68002B114B1B6818BF67
:105CE00003220BB142F004020E490B6823F4E023B7
:105CF00043EA02430B600C4B01221A6084F31188C3
:105D000038BD00BF1C00244304200940B00100102E
:105D100018200940840100108002244324BF03009E
:105D200084BF03000020094000002443014B1B688E
:105D30001B6B18478C010010034B044A5B68012160
:105D40001160D3E9050210477C9B00200420094024
:105D5000F8B506460F46FFF7E9FFD6E90A452246A1
:105D60002B46FBF76BF93FB16143A4FB002305FB16
:105D700000152B44C6E90C23F8BD0000094B002296
:105D800010B51A60084C094A012313602360226889
:105D9000074A1360074B1B6814201B6A9847236847
:105DA00010BD00BF000024432C2009401C002443E8
:105DB00004200940B001001008B5044B1868FFF733
:105DC000B5FF000C40EA014008BD00BFA49A0020C6
:105DD000FFF782BDFFF782BDF7B5144B144D1B686A
:105DE000144E01930027019BBB4201DC03B0F0BDC0
:105DF0003946002032F0B4FC8368ABB92B6883606D
:105E00000124416882684B1E1A444B421340836050
:105E100034B141693268D31AB3FBF1F34B430361E8
:105E200032F072FD0137DEE70024EAE7F0C003003C
:105E3000C4C10300C8C103004FF0FF307047000029
:105E400030B1044B984203D02022002131F088BFAA
:105E5000704700BFBC03002010B1054B1B7803B98D
:105E6000FEE7044B98421CBF009BC360704700BF15
:105E700004BE0300BC030020002BF0B505461BDA6E
:105E80000029C3F1000317DA4942013A2D240D4FCE
:105E90002846B1FBF3F603FB1611795C00F8011DEF
:105EA0003146002EF5D130212B1A9A4206DC14B16E
:105EB00000F8014C0138F0BD0024E8E700F8011DAE
:105EC000F2E700BF648F0300012070477047FEE7D0
:105ED0007047704708B532F03FFC054B1A681860F0
:105EE000824281BF03490A6801320A6008BD00BFCF
:105EF000D4260020D826002010B52023EFF31184EB
:105F000083F31188FFF7E6FF84F3118810BD0000CA
:105F10002DE9F043431E012B85B00C4608D931F022
:105F2000DFFE162303604FF0FF3005B0BDE8F083BD
:105F3000012809D101A8FFF74BFF029B0020C4E90B
:105F40000030039BA360F0E72023EFF3118683F377
:105F50001188224D2B8883B100234FF0FF32204956
:105F6000204832F031FC4FF0FF311E48FFF7CEFCE5
:105F70001C4832F0A9FC00232B80FFF7ABFF1A4B23
:105F8000196886F31188194B4FF0FF35D3F800C01C
:105F9000174BB3FBFCF3B5FBF3F5B0FBF3FE03FBD0
:105FA00005F203FB1E0002FB11000027B0FBF3F219
:105FB000694312EB0E0847F1000918EB01064FF494
:105FC0007A7103FB120301FB0CFC49F1000703FB90
:105FD0000CF3C4E90067A3600020A6E7DC030020FF
:105FE000F95E0000B0260020D8260020CCC10300B6
