:020000040000FA
:100000004343313378325231963D6EAD0301BFFF29
:10001000FFFF0700FFFFFFFF98170100A800000087
:1000200030313030971701002C00FFFF01BFFFFF78
:100030006C17010000000000FFFFFFFFFFFFFFFF44
:10004000FFFFFFFFFFFFFFFFFFFFFFFFFFFFFFFFC0
:10005000FFFFFFFFFFFFFFFFFFFFFFFFFFFFFFFFB0
:10006000FFFFFFFFFFFFFFFFFFFFFFFFFFFFFFFFA0
:10007000FFFFFFFFFFFFFFFFFFFFFFFFFFFFFFFF90
:10008000FFFFFFFFFFFFFFFFFFFFFFFFFFFFFFFF80
:10009000FFFFFFFFFFFFFFFFFFFFFFFFFFFFFFFF70
:1000A000FFFFFFFFFFFFFFFF1056002075FB000062
:1000B000A9C70000A9C70000A9C70000A9C7000080
:1000C000A9C70000A9C70000A9C70000A9C7000070
:1000D000A9C70000A9C70000A9C70000A9C7000060
:1000E00069C70000FFFFFFFF70B54FF0FF0C4CF435
:1000F000E06C1CEA11541DBF1CEA135594EA0C0F66
:1001000095EA0C0F00F0DEF82C4481EA030621EAA0
:100110004C5123EA4C5350EA013518BF52EA0335DB
:1001200041F4801143F4801338D0A0FB02CE4FF08D
:100130000005E1FB02E506F00042E0FB03E54FF0BD
:100140000006E1FB03569CF0000F18BF4EF0010EB5
:10015000A4F1FF04B6F5007F64F5407404D25FEAB1
:100160004E0E6D4146EB060642EAC62141EA555164
:100170004FEAC52040EA5E504FEACE2EB4F1FD0CA6
:1001800088BFBCF5E06F1ED8BEF1004F08BF5FEA24
:10019000500E50F1000041EB045170BD06F00046D6
:1001A00046EA010140EA020081EA0301B4EB5C0483
:1001B000C2BFD4EB0C0541EA045170BD41F480117B
:1001C0004FF0000E013C00F3AB8014F1360FDEBFA0
:1001D000002001F0004170BDC4F10004203C35DA7C
:1001E0000C341BDC04F11404C4F1200500FA05F3FF
:1001F00020FA04F001FA05F240EA020001F00042A0
:1002000021F0004110EBD37021FA04F642EB060115
:100210005EEA430E08BF20EAD37070BDC4F10C043F
:10022000C4F1200500FA04F320FA05F001FA04F203
:1002300040EA020001F0004110EBD37041F10001EF
:100240005EEA430E08BF20EAD37070BDC4F12005FA
:1002500000FA05F24EEA020E20FA04F301FA05F262
:1002600043EA020321FA04F001F0004121FA04F20A
:1002700020EA020000EBD3705EEA430E08BF20EADA
:10028000D37070BD94F0000F0FD101F00046400014
:1002900041EB010111F4801F08BF013CF7D041EA96
:1002A000060195F0000F18BF704703F0004652009A
:1002B00043EB030313F4801F08BF013DF7D043EA6B
:1002C0000603704794EA0C0F0CEA135518BF95EA21
:1002D0000C0F0CD050EA410618BF52EA4306D1D1A8
:1002E00081EA030101F000414FF0000070BD50EAC7
:1002F000410606BF1046194652EA430619D094EA51
:100300000C0F02D150EA013613D195EA0C0F05D13A
:1003100052EA03361CBF104619460AD181EA03018E
:1003200001F0004141F0FE4141F470014FF0000046
:1003300070BD41F0FE4141F4780170BD81F0004193
:1003400002E000BF83F0004330B54FEA41044FEABA
:10035000430594EA050F08BF90EA020F1FBF54EA55
:10036000000C55EA020C7FEA645C7FEA655C00F0F1
:10037000E2804FEA5454D4EB5555B8BF6D420CDDC2
:100380002C4480EA020281EA030382EA000083EA45
:10039000010180EA020281EA0303362D88BF30BDE5
:1003A00011F0004F4FEA01314FF4801C4CEA11313B
:1003B00002D0404261EB410113F0004F4FEA03339A
:1003C0004CEA133302D0524263EB430394EA050F25
:1003D00000F0A780A4F10104D5F1200E0DDB02FA94
:1003E0000EFC22FA05F2801841F1000103FA0EF228
:1003F000801843FA05F359410EE0A5F120050EF1EE
:10040000200E012A03FA0EFC28BF4CF0020C43FA1E
:1004100005F3C01851EBE37101F0004507D54FF02B
:10042000000EDCF1000C7EEB00006EEB0101B1F57B
:10043000801F1BD3B1F5001F0CD349085FEA3000C1
:100440004FEA3C0C04F101044FEA445212F5800FCC
:1004500080F09A80BCF1004F08BF5FEA500C50F169
:10046000000041EB045141EA050130BD5FEA4C0C4C
:10047000404141EB0101013C28BFB1F5801FE9D2A9
:1004800091F0000F04BF01460020B1FA81F308BFCC
:100490002033A3F10B03B3F120020CDA0C3208DD98
:1004A00002F1140CC2F10C0201FA0CF021FA02F173
:1004B0000CE002F11402D8BFC2F1200C01FA02F1E3
:1004C00020FA0CFCDCBF41EA0C019040E41AA2BF08
:1004D00001EB0451294330BD6FEA04041F3C1CDAD0
:1004E0000C340EDC04F11404C4F1200220FA04F0F0
:1004F00001FA02F340EA030021FA04F345EA03019A
:1005000030BDC4F10C04C4F1200220FA02F001FA5B
:1005100004F340EA0300294630BD21FA04F02946DD
:1005200030BD94F0000F83F4801306BF81F4801176
:100530000134013D4EE77FEA645C18BF7FEA655CE9
:1005400029D094EA050F08BF90EA020F05D054EABB
:10055000000C04BF1946104630BD91EA030F1EBFC0
:100560000021002030BD5FEA545C05D140004941C4
:1005700028BF41F0004130BD14F580043CBF01F5B7
:10058000801130BD01F0004545F0FE4141F470019D
:100590004FF0000030BD7FEA645C1ABF1946104678
:1005A0007FEA655C1CBF0B46024650EA013406BF79
:1005B00052EA033591EA030F41F4002130BD00BF38
:1005C00090F0000F04BF0021704730B54FF48064F5
:1005D00004F132044FF000054FF0000150E700BF76
:1005E00090F0000F04BF0021704730B54FF48064D5
:1005F00004F1320410F0004548BF40424FF00001C2
:100600003EE700BF42004FEAE2014FEA31014FEA04
:1006100002701FBF12F07F4393F07F4F81F0605153
:10062000704732F07F4208BF704793F07F4F04BF9E
:1006300041F40021704730B54FF4607401F000457B
:1006400021F000411CE700BF50EA010208BF7047DB
:1006500030B54FF000050AE050EA010208BF7047CC
:1006600030B511F0004502D5404261EB41014FF435
:10067000806404F132045FEA915C3FF4D8AE4FF03D
:1006800003025FEADC0C18BF03325FEADC0C18BF20
:10069000033202EBDC02C2F1200300FA03FC20FA71
:1006A00002F001FA03FE40EA0E0021FA02F11444BE
:1006B000BDE600BF4FF0FF3C06E000BF4FF0010C6D
:1006C00002E000BF4FF0010C4DF804CD4FEA410CA1
:1006D0007FEA6C5C4FEA430C18BF7FEA6C5C1BD06E
:1006E00001B050EA410C0CBF52EA430C91EA030FEF
:1006F00002BF90EA020F0020704710F1000F91EA4C
:10070000030F58BF994208BF90422CBFD8176FEA19
:10071000E37040F0010070474FEA410C7FEA6C5CE7
:1007200002D150EA013C07D14FEA430C7FEA6C5CEE
:10073000D6D152EA033CD3D05DF8040B704700BF1A
:100740008446104662468C461946634600E000BF68
:1007500001B5FFF7B7FF002848BF10F1000F01BD3A
:100760004DF808EDFFF7F4FF0CBF012000205DF805
:1007700008FB00BF4DF808EDFFF7EAFF34BF01208A
:1007800000205DF808FB00BF4DF808EDFFF7E0FF23
:1007900094BF012000205DF808FB00BF4DF808ED74
:1007A000FFF7CEFF94BF012000205DF808FB00BFDB
:1007B0004DF808EDFFF7C4FF34BF012000205DF8BD
:1007C00008FB00BF4FEA410212F5001215D211D505
:1007D0006FF47873B3EB625212D94FEAC12343F03E
:1007E000004343EA505311F0004F23FA02F018BFC0
:1007F000404270474FF00000704750EA013005D189
:1008000011F0004008BF6FF0004070474FF000004B
:10081000704700BF4A0011D212F5001211D20DD557
:100820006FF47873B3EB62520ED44FEAC12343F0F6
:10083000004343EA505323FA02F070474FF00000A0
:10084000704750EA013002D14FF0FF3070474FF04F
:100850000000704753B94AB9002908BF00281CBFDF
:100860004FF0FF314FF0FF3000F06EB9ADF1080CE2
:100870006DE904CE00F006F8DDF804E0DDE90223BE
:1008800004B070472DE9F047089D04468C46002BC4
:1008900040F083808A42174647D9B2FA82F242B1C9
:1008A000C2F1200024FA00F09140974040EA010C88
:1008B00094404FEA1748230CBCFBF8F61FFA87FE5A
:1008C00008FB16C143EA014306FB0EF1994209D920
:1008D000FB1806F1FF3080F01981994240F2168131
:1008E000023E3B445B1AA4B2B3FBF8F008FB1033A2
:1008F00044EA034400FB0EFEA64509D93C1900F169
:10090000FF3380F00581A64540F2028102383C4465
:1009100040EA0640A4EB0E0400261DB1D44000239B
:10092000C5E900433146BDE8F08702B9FFDEB2FAFF
:1009300082F2002A50D1CB1B4FEA174E1FFA87F8DC
:100940000126B3FBFEFC210C0EFB1C3341EA0341E4
:1009500008FB0CF38B4207D979180CF1FF3002D257
:100960008B4200F2E9808446C91AA3B2B1FBFEF0C3
:100970000EFB101143EA014408FB00F8A04507D91B
:100980003C1900F1FF3302D2A04500F2D98018468D
:10099000A4EB080440EA0C40BFE78B4209D9002DC4
:1009A00000F0B1800026C5E9000130463146BDE8BF
:1009B000F087B3FA83F6002E4AD18B4202D38242EB
:1009C00000F2B880841A61EB030101208C46002DEF
:1009D000A8D0C5E9004CA5E7C2F1200320FA03F630
:1009E000974001FA02F04FEA174ED9403043030C0A
:1009F000B1FBFEF61FFA87F80EFB161143EA01431E
:100A000006FB08F1994204FA02F409D9FB1806F131
:100A1000FF3C80F08D80994240F28A80023E3B4448
:100A20005B1A81B2B3FBFEF00EFB103341EA0341C7
:100A300000FB08F38B4207D9791800F1FF3C73D211
:100A40008B4271D902383944CB1A40EA064678E71E
:100A5000C6F1200C03FA06F422FA0CF31C4320FA28
:100A60000CF701FA06F34FEA144E21FA0CF11F437A
:100A70003B0CB1FBFEF91FFA84F80EFB191143EA97
:100A8000014109FB08FA8A4502FA06F200FA06F368
:100A900008D9611809F1FF3048D28A4546D9A9F131
:100AA00002092144A1EB0A01BFB2B1FBFEF00EFB2B
:100AB000101147EA014700FB08F8B84507D9E719C4
:100AC00000F1FF312ED2B8452CD90238274440EA34
:100AD0000940A7EB0807A0FB02894F45C6464946D7
:100AE0001AD317D05DB1B3EB0E0267EB010707FA1B
:100AF0000CFCF2404CEA0202F740C5E90027002650
:100B00003146BDE8F0872E4628460BE70646E9E663
:100B10001846FDE64345E5D2B8EB020E69EB040149
:100B20000138DFE70846D2E760468DE78146B9E73E
:100B3000664675E730464AE7ACF1020C394413E7E4
:100B400002383C4424E700BF704700BF034613F857
:100B5000012B002AFBD1181A0138704780B582B0EA
:100B600000AF78607B68002B05D008233C22002171
:100B700078680BF041FD00BF0837BD4680BD80B5E9
:100B800082B000AF78607B68002B05D00823182264
:100B9000002178680BF0DAFB00BF0837BD4680BD46
:100BA00080B483B000AF78607B6818460C37BD46D0
:100BB0005DF8047B704780B582B000AF78607B68D9
:100BC000002B05D008232422002178680BF00CFCB0
:100BD00000BF0837BD4680BD80B483B000AF7860E9
:100BE0007B6818460C37BD465DF8047B70470000F3
:100BF00080B483B000AF054B1B687B607B681846F0
:100C00000C37BD465DF8047B704700BF2850094093
:100C100080B400AF034B01221A6000BFBD465DF8EF
:100C2000047B7047A802504280B400AF034B0022FF
:100C30001A6000BFBD465DF8047B7047A8025042B1
:100C400080B400AF034B1B681846BD465DF8047BBB
:100C5000704700BF0880024080B590B000AF01230C
:100C600087F8343007F11C031846FFF7A4FF07F19B
:100C70001C031A4601211E480BF0DAFB1C48FFF743
:100C8000ABFF03461B4A136007F11C031A46002101
:100C900019480BF0CDFB1848FFF79EFF0346174A93
:100CA00013603B1D1846FFF76AFF3B1D19461448A9
:100CB0000BF058FB1248FFF773FF0346114A13600D
:100CC0001148FFF74BFF104B4FF480621A620E4B36
:100CD00003229A610C4B0D4ADA6100230A4A0C493F
:100CE0000C480BF09DFC00BF4037BD4680BD00BFE7
:100CF00004410020D429002084400020DC29002069
:100D0000A0400020D829002098250020D4250020CC
:100D1000310D0000B440002080B400AF034B1B78BD
:100D20001846BD465DF8047B704700BF7E2A002050
:100D300080B58CB002AF7860396007F10C031846BB
:100D400002F0ACFA07F10C03184602F0FFFD03466F
:100D5000002B02D078480DF0D7FD012387F827300B
:100D600097F82730002B1FD0082008F0BDFBFFF7B5
:100D70004FFF00BFFFF764FF034603F00103002BA2
:100D8000F8D06E4B1B6804331B680220984703465B
:100D9000DAB26B4B1A706A4B1B78002BE9D0FFF765
:100DA00043FF082008F0D8F901220121644803F02C
:100DB000FDFB0346002B02D062480DF0A5FD604B01
:100DC0001A78614B1A70604B02225A700BF0D4FDF6
:100DD00003465E4A13605E4B18684FF0FF334FF0D6
:100DE000FF3200210BF084FF38623B6A03F00103FD
:100DF000002B4CD00BF0C0FDF861544B1B68FA6916
:100E00009A4212D9504B5A68504B1B68F969CB1A59
:100E10005049096801FB03F35B094F49A1FB031328
:100E2000DB091344484A536011E0474B5A68474B6B
:100E30001968FB69CB1A4749096801FB03F35B0991
:100E40004549A1FB0313DB0913443F4A53603F4A62
:100E5000FB691360FFF7CCFE03469AB23A4B1A8146
:100E60003E4B1A88384B5A800F2007F037FF034655
:100E7000002B0CBF01230023DBB21A46324B9A72BF
:100E8000314A14230093022307CA00F017F93B6A82
:100E900003F00203002B14D0314B1B78002B0DD034
:100EA0003049032003F002FC00212F4803F06CFAC4
:100EB0000346002B02D02D480DF026FD002000F047
:100EC000E7F83B6A03F00803002B07D0284B9B7D13
:100ED000032B03D12749284800F0AAFF3B6A03F0FF
:100EE0000403002B1ED01E4B1B7883F00103DBB2E2
:100EF000002B0AD0214B93F89020204B93F891308F
:100F00009A4202D200F058F90CE0154B1B7883F09E
:100F10000103DBB2002B05D00D4B1B6810211846D6
:100F20000BF05AFF3B6A03F01003002B3FF453AF62
:100F3000012000F0ADF84EE7B8FB0000CC01001036
:100F40007E2A0020D0FB0000802A0020242B0020D5
:100F5000D8290020AC0D0100C55A7C0A7C2A00204B
:100F6000282B00208038010009120000F4FB00004B
:100F70008C2A0020A32A0020A12A0020E02900209A
:100F800080B584B000AF0346FB80164B1B684FF062
:100F9000FF3118460BF0F8FF134AFB881380134B00
:100FA0001B68012118460BF017FF114B1B684FF00F
:100FB000FF3118460BF0E8FF0E4B93F89830FB73A7
:100FC0000D4B1B7883F00103DBB2002B04D0054BE3
:100FD0001B6818460CF03EF8FB7B18461037BD46E0
:100FE00080BD00BFD42900207C2A0020D829002001
:100FF000DC290020E0290020282B002080B584B0C7
:1010000000AF03463960FB711346BB710023FB73CD
:101010001A4B1B684FF0FF3118460BF0B5FF184A0A
:10102000FB791370174B1A783B681A70BB791A4614
:10103000396815480EF05BFC114ABB791373104BED
:10104000002283F891200E4B0022C3F894200C4B11
:10105000002283F890200A4803F03AF80346002B58
:1010600002D00A480DF050FC044B1B6818460BF0E8
:10107000F1FFFB7B18461037BD4680BDD429002008
:10108000E02900207E2A0020ED29002014FC000029
:1010900080B582B000AF0346FB71064AFB7982F847
:1010A0009830054B1B6818460BF0D4FF00BF08377B
:1010B000BD4680BDE0290020DC29002090B585B028
:1010C00000AF3C1D84E80700FB70364B00221A700D
:1010D000354B1A78334B5A73334B5A78314B9A73DA
:1010E000314B5B881B0A9BB2DAB22E4BDA732E4B64
:1010F0005B88DAB22B4B1A742B4B1B891B0A9BB2F1
:10110000DAB2284B5A74284B1B89DAB2254B9A74F1
:10111000254B5B681B0EDAB2224BDA74224B5B68FC
:101120001B0CDAB21F4B1A751F4B5B681B0ADAB235
:101130001C4B5A751C4B5B68DAB21A4B9A751A4BEA
:101140009A7A184BDA75174B0C221A73154AFB78EA
:1011500082F89130134A3B6AC2F89430114B002256
:1011600083F890203B6A4FF47A6202FB03F319463E
:10117000032003F09BFA0B4802F0AAFF0346002B62
:1011800002D00A480DF0C0FB0021094803F0FCF82A
:101190000346002B02D007480DF0B6FB00BF143702
:1011A000BD4690BDE0290020802A002014FC0000EC
:1011B00009120000F4FB000080B500AF0E4802F0F9
:1011C00087FF0346002B02D00C480DF09DFB002149
:1011D0000B4803F0D9F80346002B02D009480DF064
:1011E00093FB054B93F890300133DAB2024B83F84E
:1011F000902000BF80BD00BFE029002014FC00004B
:1012000009120000F4FB000080B584B000AF7860E4
:101210000B46FB702A4B1B78FB73294B1B78002B6A
:1012200007D0284B1B6818460BF014FF244B0022F4
:101230001A70FB78002B2FD17B681533BB60BB681D
:101240005B78002B0FD17B68DB7D002B14BF012363
:101250000023DAB21A4B1A701B4B1B680221184686
:101260000BF0BAFD28E0FB7B002B0ED07B681B7DCA
:1012700018331A46796815480EF039FB124B1B6873
:10128000082118460BF0A8FD16E00F4B1B6804213F
:1012900018460BF0A1FD0FE0FB78072B06D10A4B97
:1012A0001B68042118460BF097FD05E0064B1B68F0
:1012B000042118460BF090FD00BF1037BD4680BDDD
:1012C000282B0020D4290020D82900208C2A002097
:1012D00080B582B000AF78607B68002B05D0082312
:1012E0002422002178680AF0FBFF00BF0837BD46C2
:1012F00080BD80B483B000AF78607B6818460C373F
:10130000BD465DF8047B704780B582B000AF786061
:101310007B68002B05D008233C22002178680BF065
:101320006BF900BF0837BD4680BD80B582B000AF05
:1013300078607B68002B05D008231822002178688C
:101340000BF004F800BF0837BD4680BD80B483B001
:1013500000AF78607B6818460C37BD465DF8047BAB
:101360007047000080B592B000AF07F13C03002247
:101370001A605A609A6007F124031846FFF7D5FFF8
:1013800007F12403194620480AF0ECFF1E48FFF736
:10139000DDFF03461D4A13603B461846FFF798FFE2
:1013A00000237B6100233B823B46012218491948F8
:1013B0000AF0A2FF1748FFF79CFF0346164A136086
:1013C0001648FFF7A1FF154B4FF480621A62134BCA
:1013D00003229A61114B124ADA6100230F4A114924
:1013E00011480BF01DF9094B1B68FB6304233B6498
:1013F00001237B6407F13C03184600F091FA00BF1B
:101400004837BD4680BD00BF20410020682F002026
:10141000B918000084410020702F00202C2B0020E0
:10142000682B0020111500003441002080B582B0E7
:1014300000AF03463A60FB800B46BB80154B1B7820
:1014400083F00103DBB2002B10D0124B01221A7083
:10145000114B1868114B0022002103F075FF0E4B51
:101460001B6800220021184603F080FF0C4AFB880D
:1014700013800C4ABB8813800B4A3B6813600B4BEC
:101480001B68022118460BF0A7FC00BF0837BD46B9
:1014900080BD00BF942F0020A02F002030FC000052
:1014A000962F0020982F00209C2F0020682F0020CE
:1014B00080B584B000AF0346FB71114B00221A7057
:1014C00097F907200F4B1A70FB79002B0DD007F10D
:1014D0000C03184603F02EFF03233B730A4B1B68D3
:1014E00000220121184603F041FF084B1B6802212E
:1014F00018460BF071FC00BF1037BD4680BD00BF21
:10150000942F0020201B0020A02F0020682F0020F7
:1015100090B585B000AF7860396007F10C031846CC
:1015200003F008FF03233B7307F10C0319464FF048
:10153000004003F0CFFE03464F4A136007F10C034F
:1015400019464FF0804003F0C5FE03464B4A136036
:101550004A4B1B68002B06D0484B1868484B0022AA
:10156000002103F0F1FE444B1B68002B06D0424BD8
:101570001868444B0022002103F0E6FE424943482C
:1015800007F020FC0346424A1360414B1B68002BC6
:1015900002D140480DF0B8F94FF47F6201214FF4B9
:1015A000803001F0A9FD3C4801F0F0FD01F0E6FDBE
:1015B0003A4B1A683A4B1B683A49B1FBF3F31946A8
:1015C00010460BF02DFB354B1B6818460BF0EEFA5E
:1015D0003549364807F0F6FB0346354A1360344B6D
:1015E0001B68002B02D133480DF08EF9304B1B687D
:1015F0003149184607F0C6FB0346002B02D02F489E
:101600000DF082F92E4B18684FF0FF334FF0FF3288
:1016100000210BF06DFB0346BB60BB6803F00103C8
:10162000002B16D01A4B1C68062007F0A1FB0346BE
:10163000002B0CBF01230023DBB21A4606212046F3
:1016400007F07CFB1F4B1B881846FFF799FC00F046
:101650003BF8BB6803F00203002B01D000F034F824
:10166000BB6803F00403002BCCD007F10803184635
:1016700000F07CF9C6E700BFA02F0020A42F0020B7
:1016800050FC000070FC0000241B0020882F00206C
:10169000782F002084FC000049180000702F0020E3
:1016A000AC0D010080C3C9012C1B00207C2F002041
:1016B000742F0020B0FC000075180000D0FC000062
:1016C000682F00206C2F002080B582B002AF4B4BFA
:1016D0001B78002B05D1FFF71FFB03461A46474B2B
:1016E0001A70474B1B7883F00103DBB2002B18D034
:1016F000444B1B68184603F021FE424B18683F4BD1
:101700001B780093404B0022002103F01DFE3D4B4F
:1017100018683E4B1B8800933D4B0022012103F0CB
:1017200013FE3C4B1868354B1B7800933A4B002254
:10173000002103F009FE374B1868344B1B880093D7
:10174000364B0022002103F0FFFD2D4B1B78002BB0
:1017500018D0304B1868324B1B881A46314B1B8807
:1017600001930092304B0022002103F0EDFD294B44
:1017700018682E4B1B6800932D4B0022002103F0AC
:10178000E3FD38E02B4B93F90030B3F1FF3F31D04C
:10179000284B93F90030DBB2022B13D0022B21DC53
:1017A000002B02D0012B15D01CE01A4B1868224BDD
:1017B0000022002103F0C8FD164B1B68184603F0F9
:1017C000DDFD18E0134B18681C4B0022002103F0CC
:1017D000BBFD10E00F4B1868194B0022002103F0ED
:1017E000B3FD08E00B4B1868164B0022002103F0F4
:1017F000ABFD00E000BF00BFBD4680BDA82F0020AC
:10180000942F0020A02F0020FCFC00006C2F002053
:101810000CFD0000A42F002018FD000034FD000086
:10182000962F0020982F00204CFD00009C2F0020B8
:1018300060FD0000201B002078FD000094FD0000EA
:10184000A4FD0000B4FD000080B582B000AF0346E7
:10185000FB80064AFB881380054B1B680121184654
:101860000BF0BAFA00BF0837BD4680BD6C2F0020D0
:10187000682F002080B582B000AF78600B46FB7007
:101880000B480DF062FB0F2007F028FA0346002BEF
:1018900009D14FF47F61012001F05AFC054B1B6810
:1018A00018460BF083F900BF0837BD4680BD00BF66
:1018B000801A0600702F002080B582B000AF7860DB
:1018C0004FF47F610F2001F043FC00BF0837BD4695
:1018D00080BD80B582B000AF78607B68002B05D0FA
:1018E00008232422002178680AF0FAFC00BF083798
:1018F000BD4680BD80B483B000AF78607B68184679
:101900000C37BD465DF8047B7047000080B500AF22
:101910000DF013FB014B01221A60FEE77C0520430A
:1019200080B584B000AF78600C2279680C480DF067
:10193000DEFF07F10803184600F04BFA094BBB60C5
:10194000094BFB6007F10803184600F053FA00F05A
:10195000C9F800F0C1FC00BF1037BD4680BD00BF14
:10196000A8410020381B0020401B002080B584B017
:1019700000AF78607B681A683F4B5B681340002BB0
:1019800075D03E4B1B78002B04D0FFF7BFFF3B4BBD
:1019900000221A703A4B1B78002B2AD0394B1B8837
:1019A0001A46394B1B689A4223D1384B1B685A1C84
:1019B00036490A60042B12D9314B00221A700020DC
:1019C00000F0C4F8002000F0E1F801F0FBF801207D
:1019D000FFF76EFD2C4B4FF0FF321A6004E02A4BEC
:1019E0001B68013B284A1360294B1B680133284AB6
:1019F0001360234B1B78002B39D0224B1A88254BC0
:101A00001B889A421BD21F4B1B881A461E4B1A601A
:101A10001C4B1A88012300211F4800F0A1FA194B22
:101A20001B881C4A11881A4A12681846FFF7FEFCE8
:101A3000502000F0ABF8A02000F088F817E000F08C
:101A400037FE0346FB73FB7B1846FFF731FD0C4B5B
:101A500000221A70FB7B002B06D1084B01221A7062
:101A6000A02000F073F802E0002000F06FF800BF43
:101A70001037BD4680BD00BFA841002008300020BF
:101A8000AF2F0020AC2F0020601B0020B02F0020C3
:101A9000B42F0020AA2F0020AE2F002080B582B0E6
:101AA00000AF7860054B1B68044A5268114618461F
:101AB0000BF092F900BF0837BD4680BDA841002059
:101AC00080B582B000AF7860054B1B68044A92680D
:101AD000114618460BF080F900BF0837BD4680BD9F
:101AE000A841002080B58AB000AF3B1D1846FFF723
:101AF000F0FE0023BB610023BB823B1D01220D4988
:101B00000D480AF0F9FB0C48FFF7F4FE03460B4AB8
:101B100013603B1D01220A490A480AF0EDFB0948FF
:101B2000FFF7E8FE0346084A136000BF2837BD46AA
:101B300080BD00BF9D1A0000B82F0020DC2F0020C0
:101B4000C11A0000E02F00200430002080B582B0D0
:101B500000AF78600B4B18687B684FF47A7202FB19
:101B600003F2094B1B68B2FBF3F319460BF058F86C
:101B7000044B1B6818460BF019F800BF0837BD4628
:101B800080BD00BFDC2F0020AC0D010080B582B00D
:101B900000AF78600B4B18687B684FF47A7202FBD9
:101BA00003F2094B1B68B2FBF3F319460BF038F84C
:101BB000044B1B6818460AF0F9FF00BF0837BD4602
:101BC00080BD00BF04300020AC0D010080B58CB09A
:101BD00000AF786000233B6107F1140300221A6014
:101BE0005A609A60DA601A615A619A6107F11003CB
:101BF00003221A4918460DF07AFE194B1B6AC7F8E2
:101C0000133007F1100307330422164918460DF06C
:101C10006EFE134B1B7B03F00F03092B07DC104BED
:101C20001B7B03F00F03DBB23033DBB206E00C4B5F
:101C30001B7B03F00F03DBB24133DBB27B7330233A
:101C40003B73BB89A7F81B3007F11003194678686E
:101C500000F018F900BF3037BD4680BDC0FD000060
:101C600000000000C4FD000080B584B000AFF86043
:101C70000B467A60FB72FB681A78144B1A7078680E
:101C800000F04CFB03461A46114B1A80114B002200
:101C90001A800F4B1B88002B10D00F4B01221A709B
:101CA0000E4B00221A600E4B00221A600121F868C8
:101CB00000F020F9A020FFF749FF03E00021F868B9
:101CC00000F018F900BF1037BD4680BDAE2F0020D0
:101CD000AA2F0020AC2F0020AF2F0020B02F002013
:101CE000B42F002080B584B000AFF8607B600B4655
:101CF000FB7213463B810E4B1B883A899A4212D1E4
:101D00000C4B1B78002B0ED0094B1B8801339AB269
:101D1000074B1A80084B00221A603B8942227968DF
:101D2000184600F07BFB00BF1037BD4680BD00BFEA
:101D3000AC2F0020AF2F0020B02F002080B584B042
:101D400000AF78607B68023318460AF0E1F9034679
:101D5000FB60FB68002B01D1002308E07B680233A5
:101D60001A460021F8680DF0D0FDFB6802331846D2
:101D70001037BD4680BD80B586B000AFF860B96051
:101D80007A600123FB75FB681B78BB75BB68023B5F
:101D90003B613B69013303221A707B68DBB202337B
:101DA000DAB2BB7D39691846FFF728F938690AF0BD
:101DB000B1F9FB7D18461837BD4680BD80B582B0AD
:101DC00000AF7860786800F021F900BF0837BD46A1
:101DD00080BD80B483B000AF78607B6800221A6059
:101DE0007B6800225A6000BF0C37BD465DF8047B5B
:101DF0007047000080B582B000AF78607B68002B30
:101E00000AD10A48FFF7E5FF084B7B600822074923
:101E100078680DF06CFD04E00822796803480DF045
:101E200066FD00BF0837BD4680BD00BF0C300020F6
:101E300080B584B000AF786039600123BB730023A4
:101E4000FB7314E0FB7B0E4A12F833203B681B78CF
:101E50009A4209D1FB7B0A4ADB0013445B6839686C
:101E6000786898470346BB73FB7B0133FB73FB7BAE
:101E7000072BE7D9BB7B18461037BD4680BD00BF96
:101E8000641B002080B584B000AF78603960012306
:101E9000FB730023BB60164B1B681B68002B05D02F
:101EA000134B1B681B6821209847B860BB68002B48
:101EB00001D1FB7B18E0BB6801221A70BB680133BB
:101EC0002022396818460DF012FD094B1B685B682B
:101ED000002B08D0064B1B685B682122B968786824
:101EE00098470346FB73FB7B18461037BD4680BD01
:101EF0000C30002080B584B000AF78600B46FB70DA
:101F00000123FB730023BB60144B1B681B68002B71
:101F100005D0124B1B681B6802209847B860BB684D
:101F2000002B01D1FB7B15E0BB6803221A70BB6854
:101F30000133FA781A70094B1B685B68002B08D0D4
:101F4000064B1B685B680222B968786898470346AD
:101F5000FB73FB7B18461037BD4680BD0C3000205C
:101F600080B586B000AFF860084611461A460346B1
:101F7000FB720B463B811346FB800123FB7500235C
:101F80003B61214B1B681B68002B05D01E4B1B6857
:101F90001B680620984738613B69002B01D1FB7D07
:101FA0002DE03B6904221A703B690133FA7A1A70FA
:101FB0003B6902333A89D2B21A703B891B0A9AB242
:101FC0003B690333D2B21A703B690433FA88D2B248
:101FD0001A70FB881B0A9AB23B690533D2B21A7099
:101FE000094B1B685B68002B08D0074B1B685B68BC
:101FF00006223969F86898470346FB75FB7D184649
:102000001837BD4680BD00BF0C30002080B584B0BD
:1020100000AF78600123FB730023BB60124B1B6889
:102020001B68002B05D0104B1B681B6801209847CC
:10203000B860BB68002B01D1FB7B11E0BB680722B5
:102040001A70094B1B685B68002B08D0064B1B6895
:102050005B680122B968786898470346FB73FB7B8D
:1020600018461037BD4680BD0C30002080B584B0C6
:1020700000AF786039600123FB73084B5B681B6815
:10208000002B04D0054B5B681B68786898470023D9
:10209000FB73FB7B18461037BD4680BD0C3000201B
:1020A00080B584B000AF786039600123FB730A4BC0
:1020B0005B685B68002B07D0074B5B685B683A681E
:1020C00001321146786898470023FB73FB7B184662
:1020D0001037BD4680BD00BF0C30002080B584B0F5
:1020E00000AF786039600123FB730B4B5B689B6822
:1020F000002B09D0084B5B689B683A680132117865
:102100003A680232786898470023FB73FB7B1846D5
:102110001037BD4680BD00BF0C30002080B584B0B4
:1021200000AF786039600123FB730A4B5B68DB68A2
:10213000002B08D0074B5B68DB683A6801321278E5
:102140001146786898470023FB73FB7B18461037CD
:10215000BD4680BD0C30002090B585B000AF7860E2
:1021600039600123FB733B685B78BB733B680233C8
:102170001B781AB23B6803331B781B021BB2134354
:102180001BB2BB813B6804331B781AB23B68053332
:102190001B781B021BB213431BB27B81094B5B688C
:1021A0001B69002B07D0074B5B681C697B89BA89C8
:1021B000B97B7868A0470023FB73FB7B1846143774
:1021C000BD4690BD0C30002090B585B000AF786062
:1021D00039600123FB733B685B78BB733B68023358
:1021E0001B781AB23B6803331B781B021BB21343E4
:1021F0001BB2BB810A4B5B685B69002B08D0084BA4
:102200005B685C693B680233BA89B97B7868A04730
:102210000023FB73FB7B18461437BD4690BD00BFFF
:102220000C30002080B584B000AF786039600123A5
:10223000FB73084B5B689B69002B04D0054B5B6804
:102240009B69786898470023FB73FB7B184610371F
:10225000BD4680BD0C30002080B584B000AF7860F2
:1022600039600123FB73084B5B68DB69002B04D0EA
:10227000054B5B68DB69786898470023FB73FB7B41
:1022800018461037BD4680BD0C30002080B483B0A6
:1022900000AF064B1B6803F00F037B607B689B025B
:1022A00018460C37BD465DF8047B70473024034068
:1022B00080B582B000AF074B1B68DBB27B60FFF7D5
:1022C000E5FF02467B6803FB02F318460837BD466C
:1022D00080BD00BF2C00034080B500AFFFF7D6FFE4
:1022E00003460B4A1360FFF7E3FF0246084B1B68E7
:1022F000B2FBF3F3074A136000F092FC00F09CFC81
:1023000000F0D8FC03461A46034B1A7000BF80BD8C
:102310005C300020603000205A30002080B584B04E
:1023200000AF7860354B1B883822B2FBF3F39BB2C9
:10233000D9B2324B1B883822B2FBF3F003FB00F317
:10234000D31A9BB2002B14BF01230023DBB20B4432
:10235000DAB22B4B1A707B68FB60F86800F044FB24
:102360000346FB72FB7A002B3DD1264B1B7883F092
:102370000103DBB2002B09D0234B00221A60234B50
:1023800000221A80224B00221A8013E0FB681B7B7C
:10239000184600F0C5FA03461B4A13601A4B1B6827
:1023A0001B0B9AB2194B1A8000F052FA03469AB2EC
:1023B000174B1A80174B1B68104A1288B3FBF2F3B5
:1023C000154A1360134B1B680C4A1288B3FBF2F1D9
:1023D00002FB01F29B1A002B08D00F4B1B68013344
:1023E0000D4A136002E00C4B00221A600A4B1B6876
:1023F0009BB218461037BD4680BD00BFA81B002009
:10240000503000205A300020543000205830002036
:1024100014300020AC1B0020A41B002080B58AB023
:1024200000AFF860B9601346FB71002387F82730CE
:10243000984B1B88DAB2FB68DBB212FB03F387F818
:102440002130002387F82430002387F8233097F8C1
:102450002130914A1344FB61904B1B78013B1A4693
:10246000FB6893420CD28B4B1B88382B08D8BB6877
:102470000233884A12881946F8690DF038FA02E1E9
:10248000864B1B785A1EFB689A4240F0C580814BF0
:102490001B88372B10D9BB68023338221946F869DC
:1024A0000DF025FA7B4B1B88DBB2383B87F82430D4
:1024B000382387F8233022E0764B1B883822B2FB82
:1024C000F3F103FB01F3D31A9BB287F8233097F89B
:1024D0002330002B03D16F4B1B8887F823306D4BC3
:1024E0001B88DAB297F82330D31A87F82430BB68F8
:1024F000023397F823201946F8690DF0F8F9664879
:1025000000F026FA034687F8273097F82730002B8B
:102510007FD1634B1B7883F00103DBB2002B18D013
:102520005D4B9A695F4B1B68B2FBF3F387F822306F
:10253000594B9B695B4A1268B3FBF2F102FB01F253
:102540009B1A002B15D097F82230013387F82230E0
:102550000FE0514B9B691B0B87F822304E4B9B6958
:10256000C3F30B03002B04D097F82230013387F814
:1025700022304D4B1B8887F8253014E097F8253022
:10258000184600F019FC034687F8263097F82630E5
:10259000FF2B03D1032387F827300EE097F825306F
:1025A000013387F8253097F825203F4B1B881946C3
:1025B00097F822300B449A42E0DB3B4B1B88D8B2A1
:1025C0003823354A002100F0A7FB034687F8263060
:1025D00097F82630002B01D0032356E097F82430DB
:1025E000002B50D0304B1B88D8B297F823300233E1
:1025F000BA681A4497F824309BB2382100F08CFB5B
:10260000034687F8263097F82630002B3BD003236B
:102610003BE097F8273038E01E4B1B881A46FB68D2
:1026200003FB02F2214B1B681344BB611C4B1B785C
:1026300083F00103DBB2002B0BD0BB68991CFB7944
:10264000023B1A46B86900F093FB034687F8263030
:1026500013E0BB691B0BFB75BB69C3F30B033B6149
:10266000BB689A1CFB799BB2023B9BB2F87D39692F
:1026700000F052FB034687F8263097F82630002BEF
:1026800001D0032301E097F8273018462837BD46CC
:1026900080BD00BFA81B0020183000205030002053
:1026A0005A3000205C300020583000205430002088
:1026B000B0B59CB000AF00F021FA0346002B01D06A
:1026C000022354E02C4B1B78002B4FD02B4B1B8844
:1026D000D8B23A1D2C23002100F0F4FA07F130049F
:1026E0003D1D0FCD0FC40FCD0FC495E8070084E842
:1026F0000700234A07F1640392E8030083E803001C
:1027000007F1300307F1640292E8030083E8030055
:102710001C4B1B68FB6500233B661B4B1B68072B90
:1027200009D8194B1B68002B05D0FE2387F84030D1
:10273000FE2387F84130154B1B88DBB2184600F0AA
:102740003BFB002387F86F30104B1B88D8B207F192
:1027500030023423002100F0DFFA034687F86F309F
:1027600097F86F30002B01D0032300E000231846B8
:102770007037BD46B0BD00BF5A3000205830002031
:10278000D4FD000054300020B01B00201430002085
:1027900080B58AB000AFFF2387F82730002387F881
:1027A000263043E0274A07F1180392E8030083E844
:1027B0000300254A07F1100392E8030083E80300B1
:1027C00097F826305B033B6207F108030822396A59
:1027D00018460DF08CF807F1080107F118030822DC
:1027E00018460DF076F80346002B0AD007F10801D1
:1027F00007F11003082218460DF06BF80346002B72
:102800000FD197F826305B0312333B623B6A1B788B
:10281000FB71FB79072B04D897F8263087F827300F
:102820000AE097F82630013387F8263097F82620FB
:10283000064B1B689A42B5D397F8273018462837BD
:10284000BD4680BDCCFD0000D4FD000060300020FE
:1028500080B594B000AFFF2387F84E30FF2387F890
:102860004D304FF0FF33BB64022387F84F303DE01B
:102870002A4A07F1340392E8030083E8030007F1D2
:102880003C0297F84F000823002100F01BFA07F1E3
:10289000340107F13C03082218460DF01AF80346EC
:1028A000002B0BD097F84F3087F84D3097F84D300C
:1028B000184600F081FA97F84D302AE03A4697F82A
:1028C0004F003423002100F0FDF93B6B7B647A6CF0
:1028D000BB6C9A4205D27B6CBB6497F84F3087F88B
:1028E0004E3097F84F30013387F84F3097F84F301C
:1028F000032BBDD997F84E30FF2B03D097F84E30FD
:1029000087F84D3097F84D30184600F055FA97F893
:102910004D3018465037BD4680BD00BFD4FD000085
:1029200080B485B000AF0346FB710023FB60FB79E8
:10293000012B03D14FF48033FB6002E04FF40033EE
:10294000FB60FB6818461437BD465DF8047B704792
:1029500080B586B000AF78600023FB75FFF718FFE5
:102960000346FB73FB7B5B03BB60BB683B611B4B9C
:102970001B7883F00103DBB2002B05D0FB7BFF2B20
:1029800002D1174B3B6104E0FB7BFF2B01D10523F8
:102990001FE0124B1B7883F00103DBB2002B03D145
:1029A0007B689B7C032B09D03B69DB899AB27B68EF
:1029B000DB899BB29A4201D00523FB757B685A6B79
:1029C000084B1B68013B1340002B01D00523FB750E
:1029D000FB7D18461837BD4680BD00BF5A30002029
:1029E000000000005C30002080B58AB000AF786045
:1029F000002387F827303B4A07F1100392E80300D1
:102A000083E80300384A07F1080392E8030083E8EB
:102A10000300FFF7BDFE0346FB77FB7F5B03BB6153
:102A2000BB693B62FB7FFF2B01D1304B3B62304BDC
:102A30001B7883F00103DBB2002B04D0FB7FFF2B5C
:102A400001D12A4B3B627B681A7A3B6A1B7B9A4214
:102A500005D17B685A7A3B6A5B7B9A4202D0052398
:102A600087F82730796807F11003082218460CF020
:102A700030FF0346002B0DD0796807F108030822C8
:102A800018460CF026FF0346002B03D0052387F8D9
:102A9000273012E07B681B7B002B0BD07B681B7BF5
:102AA000062B07D07B681B7B052B03D07B681B7B29
:102AB0003F2B02D9052387F8273097F82730002BC2
:102AC00009D17B68D3F80E300A4A13607B681B7B00
:102AD0001A46094B1A6097F8273018462837BD4622
:102AE00080BD00BFCCFD0000D4FD00000000000050
:102AF0005A300020AC1B0020B01B002080B586B0EF
:102B000002AF0023FB722B4B1B88D8B23A1D042363
:102B1000082100F0D7F8274B1B88D8B2FA1C0123F4
:102B2000112100F0CFF8FB78FC2B01D102233DE00E
:102B3000214B1B78002B0FD01E4B1B88D8B21F4B8C
:102B40001A681D4B1B780093134600224FF48051E6
:102B500000F09AF9F8600EE0164B1B88D8B2184BBB
:102B60001968164B1A68144B1B7800931346002201
:102B700000F08AF9F8607B68FA689A4213D1FE2364
:102B8000FB700D4B1B7883F00103DBB2002B07D0E9
:102B9000084B1B88D8B2FA1C0123112100F0BCF8A5
:102BA0000023FB7201E00223FB72FB7A1846103708
:102BB000BD4680BD583000205A300020AC1B00209C
:102BC0005C30002080B500AF00F060F800BF80BD31
:102BD00080B500AF0CF0B1F9014B01221A60FEE79D
:102BE0007C05204380B584B000AF08F091FFF86009
:102BF000FC23FB710949FB1D012218460CF0A8F9C2
:102C0000B860BB68002B00D0FEE7FFF7E1FFF86873
:102C100008F0A4FF00BF1037BD4680BD11000000C2
:102C200080B500AF04F022FF024804F07DFF00BF32
:102C300080BD00BF7830002080B500AF0F4B1B78FF
:102C400083F00103DBB2002B13D00D49002004F008
:102C500029FF03460B4A13600A4B1B68002B08D060
:102C6000064B01221A70074B1B680749184604F0EF
:102C7000F9FE024B1B78184680BD00BF643000206F
:102C800078300020683000206C30002080B500AF24
:102C9000064B1B78002B07D0054B1B68184604F029
:102CA000D9FE024B00221A7000BF80BD64300020A4
:102CB0006830002080B400AF01231846BD465DF89F
:102CC000047B704780B586B000AFB9607A601A4661
:102CD0000346FB731346BB81FF23FB750C4B1B782C
:102CE000002B0FD00B4B1868FB7B1B031A46BB68ED
:102CF000D118BB897A6804F01BFF0346002B01D171
:102D00000023FB75FB7D18461837BD4680BD00BF0C
:102D1000643000206830002080B588B002AFB96010
:102D20007A601A460346FB731346BB81FF23FB758B
:102D30000D4B1B78002B11D00C4B1868FB7B1B0331
:102D40001A46BB68D118BB89042200927A6804F045
:102D5000F7FE0346002B01D10023FB75FB7D1846CF
:102D60001837BD4680BD00BF6430002068300020A9
:102D700080B588B002AFF860B9607A60FF23FB7558
:102D80000B4B1B78002B0DD00A4B186806230093C1
:102D90007B68BA68F96804F0D3FE0346002B01D1C2
:102DA0000023FB75FB7D18461837BD4680BD00BF6C
:102DB000643000206830002080B584B000AF034646
:102DC000FB71FF23FB730B4B1B78002B0DD00A4BC1
:102DD0001868FB791B034FF48052194604F03EFE3D
:102DE0000346002B01D10023FB73FB7B18461037F1
:102DF000BD4680BD643000206830002080B485B0BE
:102E000000AFF860B9601346FB80FB68002B09D166
:102E100000230DE0FB88BA681A44FB88F9680B446C
:102E200012781A70FB885A1EFA80002BF2D1FB68C8
:102E300018461437BD465DF8047B704780B485B0F2
:102E400000AF78607B68BB600823FB7310E0BB6851
:102E500003F00103002B05D0BB685A08094B53400F
:102E6000BB6002E0BB685B08BB60FB7B013BFB73A4
:102E7000FB7B002BEBD1BB6818461437BD465DF8D1
:102E8000047B70472083B8ED80B58CB000AFB9608B
:102E90007B600346FB731346BB81FB7B87F82130C5
:102EA000BB68FB610023BB620023FB847B68002BB3
:102EB00013D07B68B3F1FF3F0FD097F83830002B69
:102EC00003D07B68B3F5801F07D897F83830002B04
:102ED00005D07B68B3F5B02F01D9BB6AEAE097F85B
:102EE000383083F00103DBB2002B0AD0FB7BBA68D9
:102EF00002FB03F34FF4807219467048FFF77EFF20
:102F000006E0F87B4FF480736C4A0021FFF7DAFE8D
:102F10007B685A1EBB68B2FBF3F3DAB297F8213034
:102F20001344FB767B68013BBA68B3FBF2F2B968E5
:102F300001FB02F29B1A9BB201333B834FF0FF333C
:102F4000BB6297F8213087F82F30A9E097F82F203F
:102F5000FB7E9A420FD13B8B1B0A9BB287F8243031
:102F60003B8BDBB29BB2002B09D097F824300133A6
:102F700087F8243003E0BB681B0A87F8243000235D
:102F800087F8253080E097F8252097F82430013B1A
:102F90009A4211D197F82F20FB7E9A420CD13B8B9D
:102FA000DBB29BB2002B03D03B8BDBB27B8406E011
:102FB0004FF480737B8402E04FF480737B8497F836
:102FC0002F2097F821309A4207D197F82530002B0F
:102FD00003D1BB890C339BB200E00023FB8414E0D7
:102FE000BB6A1B0AFB61FB8C344AD35C1A46BB6A82
:102FF0005340DBB21846FFF721FF7861FA697B691D
:103000005340BB62FB8C0133FB84FA8C7B8C9A426D
:10301000E6D397F8383083F00103DBB2002B10D0F1
:1030200097F82F30BA6802FB03F397F82520013296
:10303000120213444FF4807219462048FFF7DEFE57
:103040001DE097F8252097F82430013B9A420AD1D9
:1030500097F82F300133D8B24FF48073174A00210C
:10306000FFF730FE0BE097F8253001331B021946BD
:1030700097F82F004FF48073104AFFF723FE97F85C
:103080002530013387F8253097F8252097F824302C
:103090009A42FFF478AF97F82F30013387F82F303A
:1030A00097F82F20FB7E9A427FF650AFBB6ADB4336
:1030B000BB62BB6A18463037BD4680BD98220020EF
:1030C00080B500AF02F08CF80F2005F007FE034634
:1030D000002B01D1FFF786FD02F056F905F0C8F983
:1030E00005F064F9FDF7B8FDFEF73CF909F02AFC9C
:1030F0000023184680BD000080B586B000AFF860A0
:10310000B9601346FB8001F08FFC0E4801F06CFCA7
:103110000D4801F079FC0D4801F026FEF86802F038
:10312000B7F80021002001F0F1FE78617B69FA8890
:103130001A80BB689AB27B695A8000BF1837BD46B7
:1031400080BD00BFAD310000BD3100006C01010049
:1031500080B584B000AF78600B467B8000210020F2
:1031600001F0D4FEF860FB687A881A807B689AB216
:10317000FB685A8000BF1037BD4680BD80B500AFE8
:10318000012001F083FF00BF80BD000080B483B048
:1031900000AF7860044A7B68136000BF0C37BD46FF
:1031A0005DF8047B704700BF7C30002080B400AF26
:1031B00000BFBD465DF8047B7047000080B582B05B
:1031C00000AF01F071FE01F061FE034603F0010360
:1031D000002B0ED00221002001F098FE7860084BF1
:1031E0001B68002B05D0064B1B687A6812881046B6
:1031F000984701F06FFE00BF0837BD4680BD00BF95
:103200007C30002080B582B000AF78607B68002BF6
:1032100005D0082324220021786809F0E5F800BFD2
:103220000837BD4680BD80B500AF0BF017FE0346E2
:10323000002B0CBF01230023DBB2184680BD80B5F4
:1032400000AF0BF00BFE0346032B0CBF0123002342
:10325000DBB2184680BD80B500AF0BF0FFFD034622
:10326000042B0CBF01230023DBB2184680BD80B4C1
:1032700083B000AF0346FB71FB79002B02D0FB79D2
:10328000082B01D8012300E0002303F00103DBB287
:1032900018460C37BD465DF8047B704780B483B098
:1032A00000AF78607B6800221A707B6800225A6049
:1032B0007B6800229A607B68034ADA6000BF0C37A3
:1032C000BD465DF8047B70471DF9000080B483B0F3
:1032D00000AF03460A46FB8013467B71FB881A0445
:1032E0007B79134318460C37BD465DF8047B704765
:1032F00080B582B000AF7860396020220021786804
:103300000CF003FB7B6843F603021A807B68981C71
:103310003B6802330C2219460CF0E9FA3B689B7BB0
:10332000C3F30003D9B27A68937B61F3000393730C
:103330003B689B7BC3F3C003D9B27A68937B61F38C
:10334000C30393733B68DB7B9AB27B681A823B684A
:103350001A697B689A6100BF0837BD4680BD0000CE
:103360002DE9F04F89B000AF7861C7E902230B4621
:103370007B822F4B1B68184609F06CFE2D4B4FF6D5
:10338000FF721A80D7E902234FF002004FF00001CC
:1033900002EA00063E600B407B60D7E9002313433E
:1033A00002D00023FB7735E0D7E902234FF000007D
:1033B0004FF0005102EA000A03EA010B5AEA0B033C
:1033C00019D1D7E902234FF000004FF0805102EAF3
:1033D000000803EA010958EA09030CD1D7E90223DE
:1033E0004FF000004FF0807102EA000403EA01058B
:1033F00054EA050302D00A23FB770BE0D7E9022346
:10340000B3F1885F08BF002A02D10B23FB7701E0EC
:103410000523FB77084B1B68002B04D0064B1B6869
:10342000FA7F1046984700BF2437BD46BDE8F08FAD
:10343000B0330020001C00208030002080B485B014
:1034400000AF78600023FB60154B1B78042B09D17B
:10345000144B1B8A0F335B01134AA2FB03231B0986
:10346000FB6016E00E4B1B78072B09D10D4B1B8A16
:103470000A33DB000D4AA2FB03239B09FB6008E033
:10348000084B1B8A0A33DB00084AA2FB03231B09F3
:10349000FB60FB6818461437BD465DF8047B704737
:1034A000D433002040330020CDCCCCCC1F85EB5151
:1034B0002DE9B04386B000AFF860C7E900230B46A2
:1034C0007B810623FB75614B3B61D7E900234FF0FD
:1034D00002004FF0000102EA000803EA010958EA7D
:1034E000090300F082805A4B1B68184609F0B2FDB0
:1034F000584B4FF6FF721A80574B5B88B3F5505FFD
:1035000067D13B691B79032B02D00623FB758EE044
:10351000524B1B88012B0AD04F4B9B7B23F07F0320
:10352000DBB2002B44D04D4B1B79012B40D13B69C2
:103530001A7A4B4B1B78D31ADAB24A4B1A754A4B9C
:103540001B78002B03D0494B02221A7002E0474B34
:1035500001221A703B690833444A12781344404AE6
:10356000127819463F480CF0C2F93E4B1B7D802B68
:103570001BD83B6903F108023C4B1B781946384BBA
:103580001B780B441344374A127D194638480CF017
:10359000AEF9324B93F90720324B1A722F4B9B68CE
:1035A000304AD3600023FB7541E00823FB753EE001
:1035B0002A4B9B79012B02D10823FB7537E0274B5F
:1035C0005B79012B02D10A23FB7530E00623FB75E2
:1035D0002DE0214B5B8843F20142934202D1072345
:1035E000FB7524E00623FB7521E0D7E900234FF0AB
:1035F00000004FF0E24102EA000403EA010554EA48
:10360000050314D0124B1B68184609F023FD114B1B
:103610004FF6FF721A80D7E90023B3F1885F08BF25
:10362000002A02D10B23FB7501E00A23FB75114B25
:103630001B68002B05D00F4B1B68FA7D114609480B
:10364000984700BF1837BD46BDE8B0838C310020D5
:10365000B0330020001C0020603300202C320020FA
:10366000B41B0020E4330020C4320020B51B00202E
:10367000F93300208430002080B584B000AFF860BA
:10368000C7E900230B467B81064B1B68184609F0EF
:10369000E1FC054B4FF6FF721A8000BF1037BD46A4
:1036A00080BD00BFB0330020001C002080B586B074
:1036B00002AF0346FB710423FB73954B00221A6093
:1036C000934B00221A71924B00229A60904B002279
:1036D000DA608F4B00221A748D4B00225A618D4B99
:1036E0001B68DBB2194640F20730FFF7EFFD0346D7
:1036F000874A9361884B1B78002B03D0874B1B783C
:10370000002B01D00123FEE0FB79052B07D0FB79CC
:10371000062B04D0FB79072B01D00223F3E0804B6A
:10372000B3F90030002B01DB0923ECE07D4B1B6873
:103730000021184609F028FC0346002B01D109237B
:10374000E1E0FB79052B03D0FB79062B40F082806A
:10375000754B40F608021A80734A137B6FF303031C
:103760001373714A137B43F0800313736E4B002273
:103770009A606D4A937B43F0020393736B4B9B6992
:10378000694A5361684A937B022161F3830393730F
:10379000FB79052B09D1644B4FF6FF721A82624AFE
:1037A000937B43F00103937308E05F4B4AF6AA2230
:1037B0001A825D4A937B6FF3000393735A4AD37C5A
:1037C000012161F30303D374594B1B78002B11D0F3
:1037D000584B18684FF002024FF0E243CDE9002346
:1037E000554B4B4A504903F079FC03461A464C4B63
:1037F0001A8010E04F4B18684FF002024FF0E2437E
:10380000CDE900234C4B0022474903F0CFFB034690
:103810001A46434B1A800023BB810EE0474B1B68BE
:1038200042F21072B2FBF3F3184609F035FFBB8980
:103830005A1CBA81B3F5FA7F04D83B4B5B88022B44
:10384000ECD100E000BF384B5B88022B59D100233C
:10385000FB7356E03A4B40F607021A80384A137B56
:103860006FF303031373364A137B43F08003137320
:10387000334B00229A60324A937B43F002039373E6
:103880002F4A937B43F0040393732E4B1B692C4AFE
:1038900013612B4AD37B012161F30303D373244BC0
:1038A0001B78002B11D0234B18684FF002024FF009
:1038B000E243CDE90023244B154A214903F00EFCD5
:1038C00003461A46164B1A8010E01A4B18684FF040
:1038D00002024FF0E243CDE90023174B00221849C2
:1038E00003F064FB03461A460D4B1A800C4BB3F9E8
:1038F0000030002B02DB0023FB7303E00423FB7387
:1039000000E000BFFB7B18461037BD4680BD00BFFE
:10391000B4330020EC320020C2320020C332002039
:10392000001C0020B03300207C34002040330020F5
:10393000E93200208831002079360000AC0D01000A
:1039400098340020603300206133000080B596B0C9
:1039500002AF78607B68002B03D1C148FFF79EFC63
:1039600004E010227968BE480BF0C1FFBD4B1B7804
:10397000002B0FD0BC4B1B680021184609F004FB3C
:103980000346002B01D1092383E3B84B1B6818467B
:1039900003F026FDB64B1B7883F00103DBB2002B4E
:1039A0001FD0B44803F0E0FDB34B1B68B14A13606D
:1039B000AB4B5B68002B0BD0A94B9B68002B07D04F
:1039C000A74B5B68AB4A5361A54B9B68A94A9361BF
:1039D000A84BAA4ADA61A64B01221A70A84803F044
:1039E00071FB9F4BDB68A74A13601C220021A6488D
:1039F0000BF08BFFA44B43F605021A80A24BB022BA
:103A00005A74A14A137B6FF3030313739E4A537BCB
:103A1000032161F3030353739B4A137C43F00103B7
:103A20001374994A137C43F008031374964A137C69
:103A30006FF304131374944AD37D042161F30303D9
:103A4000D375914B44F620629A61012387F84F3079
:103A5000002387F84E30002387F84D308B4B00222F
:103A60001A707F4B1B78072B00F2D28001A252F80C
:103A700023F000BF953A0000B73A0000E93A000091
:103A8000653B0000B73B00002B3B00007D3B000086
:103A9000E53B0000FFF7C7FB0346002B04D1FFF70F
:103AA000CEFB0346002B02D0002387F84F300123C2
:103AB00087F84E30BDE0FFF7B6FB034683F0010305
:103AC000DBB2002B00F0A880FFF7B9FB034683F0C0
:103AD0000103DBB2002B00F09F80012387F84F30F9
:103AE000012387F84E3097E0FFF79DFB034683F0F4
:103AF0000103DBB2002B00F09180FFF7A0FB03462F
:103B000083F00103DBB2002B00F08880FFF7A3FBFA
:103B1000034683F00103DBB2002B7FD0012387F83B
:103B20004F30012387F84E3078E00BF0A5F90346BB
:103B3000082B06D1002387F84F30012387F84E3039
:103B40006EE0FFF788FB0346002B69D00BF094F979
:103B500003460C2B64D0012387F84F30012387F8EC
:103B60004E305DE00BF088F90346052B5AD1002357
:103B700087F84F30012387F84E3053E00BF07CF983
:103B80000346082B06D1002387F84F30012387F81E
:103B90004E3049E0FFF75FFB0346002B44D00BF0AB
:103BA0006BF903460C2B3FD0012387F84F300123DC
:103BB00087F84E3038E0FFF736FB034683F0010309
:103BC000DBB2002B32D0FFF73AFB034683F0010350
:103BD000DBB2002B2AD0012387F84F30012387F86E
:103BE0004E3023E00BF048F903460C2B09D00BF0C4
:103BF00043F903460D2B04D00BF03EF903460E2B80
:103C000016D1012387F84F30012387F84E300FE09B
:103C1000002387F84E300CE000BF0AE000BF08E048
:103C200000BF06E000BF04E000BF02E000BF00E00C
:103C300000BF97F84E3083F00103DBB2002B0AD0AF
:103C4000094B1B68002B04D0074B1B68184609F072
:103C500001FA02231DE2002387F84C3048E000BF40
:103C6000D4330020C2320020B0330020883100203D
:103C7000E8320020C8320020FC1B0020A2FE008099
:103C8000B43300208830002090330020C43200205C
:103C900097F84C208E491346DB0013449B000B44DD
:103CA0001A788C4B1B789A421DD197F84C201346FA
:103CB000DB0013449B00864A1344874A136097F83D
:103CC0004C2083491346DB0013449B000B44143300
:103CD0001B68002B03D1012387F84D300EE07F4B8A
:103CE00001221A700AE097F84C30013387F84C3003
:103CF0007B4B1B7897F84C209A42C9D3764B1B68B4
:103D0000002B0AD1774B1B68002B04D0754B1B6826
:103D1000184609F09FF90223BBE197F84F30002BBA
:103D200008D06D4B1B689B68282219466E480BF023
:103D3000DEFD07E0684B1B689B68202219466A4835
:103D40000BF0D5FD644B1B68DB68182219466748E9
:103D50000BF0CDFD604B1B685B6810221946644870
:103D60000BF0C5FD5C4B1B689B693022194661480E
:103D70000BF0BDFD97F84D30002B07D0564B1B685C
:103D80001B6919465C48FFF7B3FA07E0524B1B6802
:103D90005B692022194658480BF0A9FD574B1B7848
:103DA000002B02D0524B00221A70554B4E4A5049FC
:103DB000544803F0E5FB0346534A13604D4B002281
:103DC0005A804C4B00225A604A4B00229A60494A62
:103DD000137B6FF303031373464A137B6FF30413D0
:103DE0001373444A137B6FF346131373414A137BD7
:103DF0006FF3C71313733F4A537B012161F303032E
:103E000053733C4A537B6FF307135373394A937BC5
:103E10006FF300039373374A937B6FF341039373FC
:103E2000344A937B6FF382039373324A937B43F05C
:103E3000080393732F4A937B6FF3041393732D4AF4
:103E4000937B6FF3861393732A4A937B6FF3C713A5
:103E50009373284AD37B6FF30003D373254AD37B34
:103E60006FF34103D373234AD37B43F00803D37327
:103E7000204AD37B6FF30413D3731E4AD37B6FF3B3
:103E80004513D3731B4AD37B6FF38613D373194A3D
:103E9000D37B6FF3C713D373164B00225A61154BB4
:103EA00088221A830D4B1B78002B31D0114B174AF7
:103EB0001A61104A937E102161F3050393760D4B2E
:103EC000FC229A770B4A937B6FF34513937330E090
:103ED000041C0020D4330020AC330020C432002066
:103EE000F8FD0000B0330020F0320020183300202D
:103EF000303300206033002040330020E9320020BE
:103F0000C832002090300020883100204E905500AB
:103F1000624B634A1A61614A937E082161F305038B
:103F200093765E4B00229A775C4A937B43F02003A2
:103F300093735A4AD37E082161F3C703D376574A55
:103F4000538B6FF38A135383544A137F6FF3000329
:103F50001377544B1B7803F01F03D9B24F4A137FDA
:103F600061F3450313774D4A938B6FF38A13938361
:103F70004A4A537F012161F3C7035377474AD37FEE
:103F8000012161F30303D377444AD37F6FF3041312
:103F9000D377424AD37F6FF34613D3773F4AD37F19
:103FA0006FF3C713D3773D4B00221A623B4B3E4A57
:103FB0005A623A4B3D4A9A62384B3D4ADA623D4B6F
:103FC0001B78002B2AD03C4B00221A603A4B00226F
:103FD0001A71394B00229A60374B0022DA60364B57
:103FE00000221A74344B00225A61344B1B68DBB236
:103FF000194640F20930FFF769F903462E4A9361EA
:104000002F4B18684FF002024FF0E243CDE9002336
:104010000023294A2B4903F095FA0CE0284B186835
:104020004FF002024FF0E243CDE9002300230022CB
:10403000244903F075FA07F128031846FFF7E2F860
:1040400007F1080318460AF03DFB1F4B1B68002BC5
:1040500016D107F1080207F128031946002008F0DD
:10406000CFF90346184A1360174B1B68002B01D188
:1040700003230EE0144B1B68184608F0EBFF04E026
:10408000114B1B68184608F0E5FF104B01221A700F
:10409000002318465037BD4680BD00BF6033002066
:1040A000DE510B93B41B0020BC1B002024320020E7
:1040B0002C320020E9320020B4330020EC32002002
:1040C0008831002018330020B0330020C232002095
:1040D000B0B58AB002AF78600523FB779E4B002213
:1040E0001A609D4B00221A719B4B00229A609A4BDA
:1040F0000022DA60984B00221A74974B00225A6112
:10410000964B1B68DBB2194640F20930FFF7DEF828
:104110000346914A9361924B1B78002B03D0914B3D
:104120001B78002B01D0012312E17B681B7B802BC5
:1041300001D902230CE18C4B1B680021184608F0C2
:1041400023FF0346002B01D1092301E1874B1B7894
:10415000002B1CD07B681B7B9AB2854B1B789BB2D3
:1041600013449BB202339BB2DBB29BB243F4C05305
:104170007B83804B02221A707B8BDAB27E4B1A70E3
:104180007B8B1B0A9BB2DAB27B4B5A700AE0794BED
:1041900001221A707B681A7B754B1B781344DAB2C4
:1041A000754B1A70734B1B781A46734B134479681E
:1041B0006F4A127818460BF09AFB6D4B1B781A4623
:1041C0006C4B1B7813446C4A98187B6803F10D0103
:1041D0007B681B7B1A460BF08AFB7B681B7B9AB2C1
:1041E000634B1B789BB213449AB2624B1B789BB211
:1041F00013449AB2614B1A82604B5F4ADA61786865
:10420000FFF71CF978617B689B68002B2AD05B4A1A
:10421000137B022161F303031373584A137B43F0AA
:10422000800313737B689B68544A93607B689B6828
:10423000494A1360484B01221A717B694FF47A6234
:1042400002FB03F3444A53614C4B9A687B694FF479
:104250007A6101FB03F313443F4AD3603E4B0122D2
:104260001A7427E0454A137B6FF303031373434A21
:10427000137B43F080031373404B00229A60364B4C
:1042800000221A60344B00221A717B694FF47A6263
:1042900002FB03F3304A536102F0C8F802467B691F
:1042A0004FF47A6101FB03F313442B4AD3602A4B8A
:1042B00001221A74324B1B78002B0FD0314B186837
:1042C0004FF002024FF0E243CDE900230023224ADF
:1042D0002A4902F003FF0346BB830EE0294B18680E
:1042E0004FF002024FF0E243CDE900230023012208
:1042F000224902F05BFE0346BB83224B1868B7F9E4
:104300001C104FF002024FF0E24303F011F8C7E92E
:104310000201D7E90223B3F1885F08BF002A02D166
:104320000B23FB770EE0D7E902234FF002004FF09A
:10433000000102EA000403EA010554EA050301D082
:104340000023FB77084B1B68184608F083FEFB7FB1
:1043500018462037BD46B0BDB4330020EC320020F3
:10436000C2320020C3320020B0330020C43200200B
:10437000B41B0020B51B0020383200204033002041
:10438000E93200208831002080B586B002AF786025
:1043900039600623FB73764B00221A60744B0022AF
:1043A0001A71734B00229A60714B0022DA60704BD5
:1043B00000221A746E4B00225A616E4B1B68DBB2EE
:1043C000194640F20730FEF781FF0346684A9361C1
:1043D000694B1B78002B03D0684B1B78002B01D056
:1043E0000123C0E0664BB3F90030002B01DB092349
:1043F000B9E0644B1B680021184608F0C5FD034670
:10440000002B01D10923AEE05F4A7B6813605F4B4C
:10441000BB60BB688922DA80BB6800221A715C4AE3
:10442000BB6813605A4B00225A605A4B584A9A6232
:10443000584B594ADA623B68002B14D0554A137B1B
:10444000022161F303031373524A137B43F0800389
:104450001373504A3B689360454A3B681360444B72
:1044600001221A7112E04B4A137B6FF3030313739B
:10447000484A137B43F080031373464B00229A6033
:104480003B4B00221A603A4B00221A71434B1B68C7
:10449000002B1AD03F4AD37F022161F30303D37765
:1044A0003C4AD37F43F08003D37701F0BFFF02463D
:1044B0003A4B1B681344374A1362364B1B6A2C4A2B
:1044C000D3602B4B01221A7413E0324AD37F0121AF
:1044D00061F30303D3772F4AD37F43F08003D3776D
:1044E0002C4B00221A62224B0022DA60204B002261
:1044F0001A740C22002128480BF007FA284B1B786D
:10450000002B11D0274B18684FF002024FF0E24306
:10451000CDE90023244B164A1E4902F0DFFD034675
:104520001A46174B1A8010E01E4B18684FF0020213
:104530004FF0E243CDE900231B4B0122154902F065
:1045400035FD03461A460E4B1A800D4BB3F9003069
:10455000002B02DB0023FB7304E00A4B1B681846A8
:1045600008F078FDFB7B18461037BD4680BD00BFC4
:10457000B4330020EC320020C2320020C3320020CD
:10458000001C0020B0330020843000208C3100203B
:1045900024320020603300202C320020B81B002081
:1045A000E932002088310020B134000080B584B0A9
:1045B00000AF78600B46FB701346BB700223FB73A1
:1045C000344B1B78002B03D0334B1B78002B01D0CE
:1045D00001235AE0FB781846FEF749FE034683F0B4
:1045E0000103DBB2002B01D002234EE02B4B1B68F2
:1045F0000021184608F0C8FC0346002B01D109230E
:1046000043E07B68002B30D0FB78002B2DD0BB78AB
:10461000002B2AD0224B1B78FA789A4225D1BB78FE
:10462000082B22D8FB78BA7802FB03F31A46796884
:104630001C480BF05CF9FB7803F01F03D9B21A4A4F
:10464000137F61F345031377BB7803F01F03D9B2DF
:10465000154A537F61F3C7035377134A937B6FF374
:10466000C71393730023FB7309E07B68002B06D10B
:104670000D4A937B43F0800393730023FB73074B36
:104680001B68184608F0E6FCFB7B18461037BD4651
:1046900080BD00BFC2320020C3320020B0330020F2
:1046A000B41B0020BC1B00206033002080B584B008
:1046B00000AF03463960FB710223FB73FB79072BC4
:1046C0006ED801A252F823F0E94600001B47000013
:1046D0003F47000055470000614700007747000052
:1046E000834700008F4700003B68DBB21846FEF7A7
:1046F000BEFD0346002B50D03B68DAB22B4B1A703C
:104700002A4B1B7803F01F03D9B2294A137F61F3A8
:10471000450313770023FB733FE0264B1B78002BE8
:1047200007D0254B1B683A460021184603F048F88D
:1047300002E03B68214A13600023FB7330E03B68D2
:10474000002B14BF01230023DAB21D4B1A70002383
:10475000FB7325E03B681B4A13600023FB731FE0DB
:104760003B68022B1BD83B68DBB21A46164B1A601B
:104770000023FB7313E00520FEF798FF0346FB734D
:104780000EE00620FEF792FF0346FB7308E00720C9
:10479000FEF78CFF0346FB7302E000BF00E000BFA2
:1047A000FB7B18461037BD4680BD00BFB41B002000
:1047B00060330020C232002088310020FC1B002022
:1047C000E9320020B81B0020EC32002080B582B016
:1047D00000AF78607B68002B05D0082324220021DD
:1047E000786807F001FE00BF0837BD4680BD80B481
:1047F00083B000AF78607B6818460C37BD465DF823
:10480000047B704780B582B000AF78607B68002B76
:1048100005D0082330220021786807F001FD00BF91
:104820000837BD4680BD000080B58EB002AF3B4664
:104830001846FFF7E7FF00233B833B460022009228
:10484000044A1621044807F005FD00BF3037BD4675
:1048500080BD00BFB9490000E434002080B500AF3E
:10486000162009F0CBF900BF80BD80B500AF16203F
:1048700009F0A2F900BF80BD80B500AF162009F095
:10488000DDF900BF80BD000080B58EB002AF3B46B1
:104890001846FFF7B7FF00233B833B4600220092F8
:1048A000044A1D21044807F0D5FC00BF3037BD463F
:1048B00080BD00BFD14900000035002080B500AFA9
:1048C0001D2009F09BF900BF80BD80B500AF1D2001
:1048D00009F072F900BF80BD80B500AF1D2009F05E
:1048E000ADF900BF80BD80B500AF09F05CF90346AB
:1048F000184680BD80B582B000AF7860786809F056
:1049000058F900BF0837BD4680BD000080B582B0B1
:1049100000AF09F048F978600A4B1B78DBB2002B36
:1049200004D0786809F045F9002306E0054B012220
:104930001A70786809F03DF9012318460837BD461A
:1049400080BD00BF3935002080B400AF034B00228A
:104950001A7000BFBD465DF8047B704739350020F2
:1049600080B500AF0A4B1B78DBB2002B06D009489C
:10497000FFF73DFF0346184608F06CFB064B1B682B
:10498000002B02D0044B1B68984700BF80BD00BFBE
:10499000383500201C3500203C35002080B500AFA4
:1049A000044B1B68002B02D0024B1B68984700BFCA
:1049B00080BD00BF4035002080B582B000AF786078
:1049C000FFF753FFFFF7CCFF00BF0837BD4680BDA0
:1049D00080B582B000AF7860FFF777FFFFF7DEFFAA
:1049E00000BF0837BD4680BD80B483B000AF78609B
:1049F000044A7B68136000BF0C37BD465DF8047B3A
:104A0000704700BF3C35002080B483B000AF7860B1
:104A1000044A7B68136000BF0C37BD465DF8047B19
:104A2000704700BF4035002080B58AB000AF0D4B05
:104A30001B78DBB283F00103DBB2002B0ED0094BF5
:104A400001221A703B1D1846FFF7C0FE01233B7779
:104A50003B1D1A460021044807F0EAFC00BF283736
:104A6000BD4680BD383500201C35002080B586B09D
:104A700000AFF860B9607A603B60FB6803F0070341
:104A80007B61FB68DB0803F58023CC331B033B61B0
:104A9000BB681B0E7A6991003A690A44203203F020
:104AA0000F0313603B6908331B6801217A6901FA1F
:104AB00002F2D2431A40BB681B0AD9B27B6901FAE1
:104AC00003F33969083113430B603B691B687A694A
:104AD0005200032101FA02F2D24303EA0201BB6849
:104AE000DAB27B695B009A403B690A431A603B6912
:104AF0000C331B6801217A6901FA02F2D2431A4091
:104B000039687B6901FA03F339690C3113430B608F
:104B10003B6904331B6801217A6901FA02F2D2432E
:104B20001A40BB681B0CD9B27B6901FA03F33969DF
:104B3000043113430B603B6904331B68BB681B0FD4
:104B40001A467968F86800F005F800BF1837BD46C6
:104B500080BD000080B487B000AFF860B9607A60B3
:104B60001A4B9A69FB6813441B783B617B689B0274
:104B700043F008037B61BB68012B14D0BB68012B99
:104B800016DCBB68B3F1FF3F03D0BB68002B05D038
:104B90000EE07B6943F4C0437B6109E07B6943F429
:104BA00000537B6104E07B6943F480437B6100BF79
:104BB0003B6903F1804303F501231A467B691360C7
:104BC00000BF1C37BD465DF8047B7047B034002041
:104BD00080B485B000AF78603960194B9A697B6802
:104BE00013441B78BB600023FB603B68012B14D08F
:104BF0003B68012B16DC3B68B3F1FF3F03D03B68F9
:104C0000002B05D00EE0FB6843F4C043FB6009E0D5
:104C1000FB6843F40053FB6004E0FB6843F480430B
:104C2000FB6000BFBB6803F1804303F501231A4614
:104C3000FB68136000BF1437BD465DF8047B704706
:104C4000B034002080B485B000AF7860264B1B687C
:104C5000FB60264B1B68BB60254BDB8B182B0BD1F5
:104C60007B6803F00103002B06D1224B0B221A6054
:104C700002E01E4B1B68BB60BA68FB689A42F8D121
:104C8000FA687B689A421BD0FB6803F00203002B92
:104C900004D0FB6823F00203FB600DE0FA687B6838
:104CA000534003F00103002B04D07B6803F00103A1
:104CB000FB6001E07B68FB600B4AFB681360DBE78D
:104CC00000BF0B4BDB8B182B07D17B6803F0010374
:104CD000002B02D0074B00221A6000BF1437BD46DC
:104CE0005DF8047B704700BF00600C4004600C401E
:104CF000B03400203C900C4080B584B000AF7860A8
:104D00003960FFF7F0FDF8607B6803F0040303F1FE
:104D1000804303F513231B68BB607B6803F0030328
:104D2000DB003F2202FA03F3DB431A46BB68134061
:104D3000BB607B6803F00303DB003A6802FA03F30D
:104D4000BA681343BB607B6803F0040303F180433C
:104D500003F513231A46BB681360F868FFF7CAFD12
:104D600000BF1037BD4680BD80B582B000AF78600F
:104D7000344B1B6803F00103002B01D002235CE0DD
:104D80003422796830480AF0B2FD304B00221A60B4
:104D90002F4B00221A602F4B00221A602E4B00224C
:104DA0001A602E4B00221A602D4BFF221A602C4BEA
:104DB00000221A602B4B05221A602B4B06221A6028
:104DC0002A4B01221A602A4B02221A60294B032225
:104DD0001A60294B04221A60284B07221A60284BBC
:104DE00000221A60194B01221A60174B1B69164AE0
:104DF000D289194623480AF07AFD124B00221A6024
:104E0000114B1B6A9847204B01221A602D21072065
:104E1000FFF772FF0B4B1B680A4A43F00103136054
:104E2000FFF702FDFFF728FDFFF718FDFFF72CFD48
:104E3000FFF752FDFFF742FD002318460837BD4635
:104E400080BD00BF00100E40B034002024600C4034
:104E500008600C400C600C4010600C4014600C406A
:104E600020600C4028600C402C600C4030600C40EE
:104E700034600C4038600C403C600C4040600C409A
:104E800044600C4000000E4020500C4080B400AF45
:104E9000044B5B685B889BB21846BD465DF8047B9B
:104EA000704700BFB034002080B400AF074B02222F
:104EB0001A60074B1B6803F00203002BF6D100BFFA
:104EC00000BFBD465DF8047B704700BF2C500C400E
:104ED00024500C4080B582B000AF0A4B5B680022C2
:104EE0005A80FFF7F9FCFFF7FEFC7860FFF7E6FC5D
:104EF000054B04221A607868FFF7FCFC00BF0837F6
:104F0000BD4680BDB034002018600C4080B487B02E
:104F100000AF78600B46FB70174B5A697B689900AD
:104F2000FB780B449B0013441B687B617B699BB23D
:104F3000C3F30B037B827B691B0B9BB2DBB23B820F
:104F40003B8A012B05D87B8A03F1804303F560235C
:104F50000BE07A8A094B13441B88FB81FB8923F001
:104F6000010303F1804303F5602318461C37BD4657
:104F70005DF8047B704700BFB0340020FCFF0D409B
:104F800080B582B000AF78603960FFF7BFFC0346A0
:104F900083F00103DBB2002B01D0012369E03B6801
:104FA00003F00103002B10D0344B5B681B889AB2CE
:104FB000324B9B8913439BB21A467B681340002BEC
:104FC00003D0FFF7C1FC022353E02D4B1B6803F015
:104FD0000103002B0AD02B4B01221A6000BF284B83
:104FE0001B6803F00103002BF9D103E0FFF7ACFCD1
:104FF00001233EE03B6803F00103002B0DD01F4B63
:105000005B687A6892B29A801C4B9A897B689BB2E3
:1050100013439AB2194B9A8103E0184B5B68002244
:105020009A803B6803F00203002B05D0134B5B68AA
:105030007A6892B2DA8003E0104B5B680022DA8073
:105040003B6803F00403002B05D00C4B5B687A68C7
:1050500092B21A8103E0094B5B6800221A81FFF7C4
:105060000BFCFFF7FBFB084B01221A60FFF76CFCFF
:10507000002318460837BD4680BD00BFB03400206D
:1050800024500C402C500C4018600C4080B582B06D
:1050900000AF786001217868FFF772FF0346184679
:1050A0000837BD4680BD80B584B000AF78600B4640
:1050B000FB7000221421786803F040FE0023FB738C
:1050C0001CE000220A21786803F038FEFA78FB7BA6
:1050D000C3F1070342FA03F303F001031A4609215F
:1050E000786803F02BFE01220A21786803F026FE7F
:1050F000082009F02AFFFB7B0133FB73FB7B072BA6
:10510000DFD900220A21786803F018FE0122142159
:10511000786803F013FE4FF42F7009F016FF00BFFC
:105120001037BD4680BD000080B586B000AF134A81
:1051300007F10C0392E8030083E8030007F10C0277
:105140003B461146184603F03DFE786100221421CB
:10515000786903F0F3FD012009F0F7FE0122142124
:10516000786903F0EBFD4FF40C7009F0EEFE7869FE
:1051700003F0A4FD00BF1837BD4680BDDCFD000074
:10518000B0B58AB000AFFFF7CFFF104B07F10C04AA
:105190001D460FCD0FC42B68236007F10C023B4660
:1051A0001146184603F00EFE7862B92387F82330C3
:1051B00097F823301946786AFFF775FF786A03F08D
:1051C0007DFD00BF2837BD46B0BD00BFE4FD000037
:1051D00080B400AF00BFBD465DF8047B704700009F
:1051E00080B500AF04F0C8F8064803F025FC03467C
:1051F000002B00D0FEE7FFF7C3FFFFF7E9FF00BF7A
:1052000080BD00BF7CFE000080B500AF074B0022D0
:105210001A600020FFF716FD00234FF0FF32012136
:105220001720FFF723FC00BF80BD00BF040009402A
:1052300080B500AF4FF0FF311720FFF7C9FC00BF6A
:1052400080BD000080B483B000AF786039600C4A44
:105250007B6813600B4A3B6813600B4B1B680A4A60
:1052600043F4A0231360094B21221A60074B6122EB
:105270001A6000BF0C37BD465DF8047B704700BF65
:1052800020200940242009401420094008600C40D7
:1052900080B586B000AF7860FFF725FB78610B4BD7
:1052A0001B683B610A4B1B68FB603B691A04FB6887
:1052B0001B0C1343083379681846FFF7C3FF78695E
:1052C000FFF718FB00BF1837BD4680BD0820094016
:1052D0000C200940144B2DE9F041144F93F8008045
:1052E000002918BF0F46B8F1000F0ED0104C05462C
:1052F0000026B5420DD02368DB699847284208D1C3
:105300000136B04504F10C04F3D100231846BDE882
:10531000F081236839465B68204698472346002879
:10532000EED01846BDE8F0811CFE0000A00101008F
:1053300010FE000003230370704700BF10B1036824
:105340009B681847704700BF70B108B410B585B0AE
:1053500008AB0468009303932469079BA04705B03A
:10536000BDE8104001B07047704700BF10B103683E
:105370009B6918474FF0FF30704700BF10B10368BA
:105380005B691847704700BF38B5084B1D785DB1A1
:10539000074C05EB450504EB8505236820461B6893
:1053A0000C349847AC42F8D138BD00BF1CFE000059
:1053B00010FE0000704700BF704700BF6FF0010093
:1053C000704700BF4FF08040704700BFF0B5D0E994
:1053D00001568BB0044601A803F092F800277368C9
:1053E000079301208DF8057006F0D0FB686070B15E
:1053F00003F03EF8307801A903F060F8286030B17E
:105400003A46042103F030F820460BB0F0BD0020EE
:105410000BB0F0BDF8B5D0E901647068A168069FD3
:105420001D4606F0D5FB00B1F8BD218AE0683B4679
:105430002A46023906F01EFCE5682846FBF786FB83
:105440000D232B54E36803440A225A70E168821C3E
:10545000306803F063F87068BDE8F84006F0C0BB40
:1054600010B54468206802F0FBFF002360682360E9
:10547000BDE8104006F0A0BB704700BF70B50D46F8
:105480001446B1FA81F1B2FA82F24909520920B107
:1054900034B190F8443033B91A4601EA020070BDC5
:1054A00015B90122F9E7BDB195F84430002BF4D0CD
:1054B0002B6C466B2D699B08C3EB96030669AE42C5
:1054C00014BFF56800255B1B03F18053B3F1805FC7
:1054D000E3D90121002CE0D0E3681B7B03F00F032C
:1054E000022BDAD1656B036C24690069A04218BFF6
:1054F000E0684FEA930308BF0020C3EB95031B1A33
:1055000003F18053B3F1805F88BF0122C5E700201B
:10551000704700000A4B1A68936802F13000194680
:105520005B680BB18342FAD14B7B190706D1508ED1
:1055300040F60903C31A584258417047002070478B
:10554000583D00200A4605494B6833B18968084236
:1055500003D001460248006818477047C0FE0000AB
:10556000583D0020704781B38B01090E202923F09C
:10557000FF0319D0212919D0A02919D0D1B11029A0
:105580001AD011291AD040291AD050290CBF8022D4
:105590009022134343F00F03014650F8042BB2F15D
:1055A000FF3F0FD10B6070471022F2E72022F0E797
:1055B0003022EEE74022ECE75022EAE76022E8E7FB
:1055C0007022E6E79A42E7D1ECE7704791B38B018E
:1055D000090E202923F0FF021BD021291BD0A0296E
:1055E0001BD0E1B110291CD011291CD040291CD09E
:1055F00050290CBF80239023134343F00F0301462F
:1056000050F8042BB2F1FF3F11D14FF0FF330B6084
:1056100070471023F0E72023EEE73023ECE7402328
:10562000EAE75023E8E76023E6E77023E4E79A42DD
:10563000E5D1EAE7704770B5044616461D4606F008
:1056400067FA5CB1D4E90A2332432B43C4E90A2345
:10565000D4E9082332432B43C4E90823BDE8704052
:1056600006F07CBAF8B5184D044606F051FA95F8E4
:105670002430064623EA04002C6885F8240024B16F
:1056800004F1B00006F006FA0446686820B1B030B4
:1056900006F000FA0443E4B295F824307BB974B9FB
:1056A0002B6A63B15A6A920709D530461F6A06F021
:1056B00055FA286A22460221B8472C62F8BD3046C6
:1056C000BDE8F84006F04ABAB43900200720FFF7D9
:1056D000C9BF10B50129044638BF012106F0E8F919
:1056E0002046BDE8104006F0E5B92DE9F041DDF8AF
:1056F000188004460E4615461F4609F0BDFB0E28CD
:1057000003D009F0B9FB0F2869D12388B3F5C15F35
:1057100016D043F6060293421BD040F60202934293
:105720004FD104F11203336063692B60A3693B60BE
:10573000E369C8F80030E57B247C04F0070416E038
:1057400004F11203336063692B60636A3B60A36AF0
:10575000EFE704F11A033360E3692B60236A3B60CF
:10576000636AC8F80030247E002504F00704386816
:1057700080B105234FF6FF7240F2037102F0DDF8AD
:10578000042807D806B2214628463F6802F0E8F808
:1057900047F82600D8F8000088B105234FF6FF72BD
:1057A00040F2037102F0C9F8042808D804B2FF21BE
:1057B0002846D8F8006002F0D3F846F8240001200B
:1057C00022E004F11A033360E3692B60A36A3B60B3
:1057D000E36AC8F8003094F82450247EADE72388AB
:1057E000B3F5C15F07D043F6060293420ED040F6F0
:1057F000020293420AD104F11203336063692B6001
:1058000000203860C8F80000BDE8F08104F11A03F8
:105810003360E369F3E7000070B5144E144835694E
:1058200002F0BEF8134A136814680440184010F0E0
:1058300020030AD04DB128460022B561FFF7FBFED8
:105840000D484FF4804106F003FA14F460240CD0A4
:105850000A4A0B4892F8613043EA544482F86140A6
:10586000BDE87040002106F0F3B970BD283D00206E
:1058700020000E000C1004403C3E0020B83D0020EB
:10588000703E0020064B70B55C68064B1D6806F044
:10589000DDF9234601462846BDE87040184700BFA1
:1058A000483D0020583D0020074B1B6803F440236F
:1058B000B3F5802F01BF054B186880F40030C0F3AA
:1058C000404018BF00207047B44F00508C13005068
:1058D00070B5002286B00146CDE90222CDE904224E
:1058E000467DFFF7E1FF0546886803884280B3F5EF
:1058F000C15F48D038D840F60202934243D000231B
:105900004B7505AB009303AA04AB02A9FFF7EDFEAC
:10591000002848D0029B1A884FF6FF739A4242D162
:1059200005990398FFF71FFEE5B1039D002D3FD0B9
:1059300050234FF6FF720B21284601F0FEFF4F283F
:1059400004460FD805F06CF909F090FB194B18606C
:10595000194B1B68DB68984724B2000440F00B0029
:1059600045F8240006B070BDA3F56053063B012B3B
:10597000C5D8437E62F382034376038B8EB162F314
:1059800009130383BBE7437C6FF382034374038AE9
:105990001EB16FF309130382B1E72D2262F30913DD
:1059A000F9E72D22EBE705990398FFF70FFEBBE718
:1059B000FEE700BF5C3D0020E0010010064B1B78B5
:1059C000022B07D1054B1A6922B95869B0FA80F049
:1059D0004009704700207047483D0020283D0020C6
:1059E00008B50F4B19420FD00E4B1B6801201B68E6
:1059F0009847012809D10C4B0C4A5A600C4B0022E5
:105A00001A600C4A43F81C2C08BD06F03BF8322102
:105A1000BDE80840B1FBF0F10748FFF75ABE00BFF0
:105A200004000020E0010010483D0020B56A00009D
:105A30001C100440203E0020203A002008B54FF002
:105A4000FF3001F02FFF830706D5BDE8084003486B
:105A50004FF4006106F0FCB808BD00BF3C3E0020DA
:105A6000042838B504461AD10E4806F013F8B0B130
:105A700006F008F805460B4806F00AF86843B0F54A
:105A8000967F0CD2074806F017F8052003F0C4FBF8
:105A9000054B0648012221465A7306F0D9F800202A
:105AA00038BD00BF203A0020483D00203C3E002089
:105AB000F7B51D46FD232E688DF8073032460446A3
:105AC000FFF7DCFC10B101238DF807309DF807309B
:105AD000FD2B10D1E3681B7B03F00F03022B0AD1CF
