:100000004343323678325231FFFFFFFF0301DFFFF7
:10001000FFFF0100FF000000FFFFFFFF00010000E5
:1000200030303031708C02002C00FFFF03DFFFFF07
:10003000550000000100000000000000000000006A
:1000400000000000000000000000000000000000B0
:1000500000000000000000000000000000000000A0
:100060000000000000000000000000000000000090
:100070000000000000000000000000000000000080
:0E0080000001DFFF0000000000000000000093
:10010000909C0020E181020039FB021039FB0210B3
:1001100039FB021039FB021039FB021039FB0210C7
:1001200039FB021039FB021039FB021039FB0210B7
:0C01300039FB021039FB021011FB021019
:0C032D0024820200186F020090A0002043
:100339000000000000000000C81B00203C1D002038
:1003490001000000010000000000000000000000A2
:1003590000000000C41C0020C41C00200000000094
:10036900000000000000000000000000FF7F000006
:1003790000000000006CDC0200000000000000002A
:10038900781C00200300000000000000FD67000049
:100399003D680000010000000000000000000000AE
:1003A9000000000000000000041D00200000000003
:1003B9000100000000000000000000000100000032
:1003C9000000000000000000701D00200000000077
:1003D9000000000000000000000000006C1D00206B
:1003E9000000000044A1002044A100204CA10020ED
:1003F9004CA100200800000020450020000000005A
:10040900000000003C4400204044002044440020F7
:1004190000000000909C0020000400000000002063
:100429000101000048440020000000000000000015
:100439000000000000000000C81B002000000000B0
:1004490000000000000000000000000000000000A3
:1007000081F0004102E000BF83F0004330B54FEAC2
:1007100041044FEA430594EA050F08BF90EA020F2F
:100720001FBF54EA000C55EA020C7FEA645C7FEAC2
:10073000655C00F0E2804FEA5454D4EB5555B8BFE5
:100740006D420CDD2C4480EA020281EA030382EA56
:10075000000083EA010180EA020281EA0303362DE8
:1007600088BF30BD11F0004F4FEA01314FF4801CBB
:100770004CEA113102D0404261EB410113F0004FCD
:100780004FEA03334CEA133302D0524263EB430384
:1007900094EA050F00F0A780A4F10104D5F1200E22
:1007A0000DDB02FA0EFC22FA05F2801841F100017D
:1007B00003FA0EF2801843FA05F359410EE0A5F151
:1007C00020050EF1200E012A03FA0EFC28BF4CF082
:1007D000020C43FA05F3C01851EBE37101F0004538
:1007E00007D54FF0000EDCF1000C7EEB00006EEB45
:1007F0000101B1F5801F1BD3B1F5001F0CD34908CF
:100800005FEA30004FEA3C0C04F101044FEA445225
:1008100012F5800F80F09A80BCF1004F08BF5FEAAC
:10082000500C50F1000041EB045141EA050130BD8C
:100830005FEA4C0C404141EB010111F4801FA4F12F
:100840000104E9D191F0000F04BF01460020B1FA84
:1008500081F308BF2033A3F10B03B3F120020CDABC
:100860000C3208DD02F1140CC2F10C0201FA0CF09A
:1008700021FA02F10CE002F11402D8BFC2F1200CFF
:1008800001FA02F120FA0CFCDCBF41EA0C019040B5
:10089000E41AA2BF01EB0451294330BD6FEA0404FE
:1008A0001F3C1CDA0C340EDC04F11404C4F12002E9
:1008B00020FA04F001FA02F340EA030021FA04F3FB
:1008C00045EA030130BDC4F10C04C4F1200220FA52
:1008D00002F001FA04F340EA0300294630BD21FA90
:1008E00004F0294630BD94F0000F83F4801306BF56
:1008F00081F480110134013D4EE77FEA645C18BF4A
:100900007FEA655C29D094EA050F08BF90EA020FE0
:1009100005D054EA000C04BF1946104630BD91EAD8
:10092000030F1EBF0021002030BD5FEA545C05D1DB
:100930004000494128BF41F0004130BD14F580041A
:100940003CBF01F5801130BD01F0004545F0FE418E
:1009500041F470014FF0000030BD7FEA645C1ABFC3
:10096000194610467FEA655C1CBF0B46024650EAFA
:10097000013406BF52EA033591EA030F41F4002126
:1009800030BD00BF90F0000F04BF0021704730B5AC
:100990004FF4806404F132044FF000054FF0000181
:1009A00050E700BF90F0000F04BF0021704730B542
:1009B0004FF4806404F1320410F0004548BF404217
:1009C0004FF000013EE700BF42004FEAE2014FEA6C
:1009D00031014FEA02701FBF12F07F4393F07F4F47
:1009E00081F06051704732F07F4208BF704793F04A
:1009F0007F4F04BF41F40021704730B54FF460745D
:100A000001F0004521F000411CE700BF50EA01025F
:100A100008BF704730B54FF000050AE050EA010208
:100A200008BF704730B511F0004502D5404261EB78
:100A300041014FF4806404F132045FEA915C3FF4B9
:100A4000D8AE4FF003025FEADC0C18BF03325FEA56
:100A5000DC0C18BF033202EBDC02C2F1200300FA07
:100A600003FC20FA02F001FA03FE40EA0E0021FA2C
:100A700002F11444BDE600BF70B54FF0FF0C4CF41A
:100A8000E06C1CEA11541DBF1CEA135594EA0C0FCC
:100A900095EA0C0F00F0DEF82C4481EA030621EA07
:100AA0004C5123EA4C5350EA013518BF52EA033542
:100AB00041F4801143F4801338D0A0FB02CE4FF0F4
:100AC0000005E1FB02E506F00042E0FB03E54FF024
:100AD0000006E1FB03569CF0000F18BF4EF0010E1C
:100AE000A4F1FF04B6F5007F64F5407404D25FEA18
:100AF0004E0E6D4146EB060642EAC62141EA5551CB
:100B00004FEAC52040EA5E504FEACE2EB4F1FD0C0C
:100B100088BFBCF5E06F1ED8BEF1004F08BF5FEA8A
:100B2000500E50F1000041EB045170BD06F000463C
:100B300046EA010140EA020081EA0301B4EB5C04E9
:100B4000C2BFD4EB0C0541EA045170BD41F48011E1
:100B50004FF0000E013C00F3AB8014F1360FDEBF06
:100B6000002001F0004170BDC4F10004203C35DAE2
:100B70000C341BDC04F11404C4F1200500FA05F365
:100B800020FA04F001FA05F240EA020001F0004206
:100B900021F0004110EBD37021FA04F642EB06017C
:100BA0005EEA430E08BF20EAD37070BDC4F10C04A6
:100BB000C4F1200500FA04F320FA05F001FA04F26A
:100BC00040EA020001F0004110EBD37041F1000156
:100BD0005EEA430E08BF20EAD37070BDC4F1200561
:100BE00000FA05F24EEA020E20FA04F301FA05F2C9
:100BF00043EA020321FA04F001F0004121FA04F271
:100C000020EA020000EBD3705EEA430E08BF20EA40
:100C1000D37070BD94F0000F0FD101F0004640007A
:100C200041EB010111F4801F08BF013CF7D041EAFC
:100C3000060195F0000F18BF704703F00046520000
:100C400043EB030313F4801F08BF013DF7D043EAD1
:100C50000603704794EA0C0F0CEA135518BF95EA87
:100C60000C0F0CD050EA410618BF52EA4306D1D10E
:100C700081EA030101F000414FF0000070BD50EA2D
:100C8000410606BF1046194652EA430619D094EAB7
:100C90000C0F02D150EA013613D195EA0C0F05D1A1
:100CA00052EA03361CBF104619460AD181EA0301F5
:100CB00001F0004141F0FE4141F470014FF00000AD
:100CC00070BD41F0FE4141F4780170BD70B54FF048
:100CD000FF0C4CF4E06C1CEA11541DBF1CEA1355C8
:100CE00094EA0C0F95EA0C0F00F0A7F8A4EB0504AA
:100CF00081EA030E52EA03354FEA013100F08880A1
:100D00004FEA03334FF0805545EA131343EA126369
:100D10004FEA022245EA111545EA10654FEA00261E
:100D20000EF000419D4208BF964244F1FD0404F5D7
:100D3000407402D25B084FEA3202B61A65EB030533
:100D40005B084FEA32024FF480104FF4002CB6EBF0
:100D5000020E75EB030E22BFB61A754640EA0C0070
:100D60005B084FEA3202B6EB020E75EB030E22BFB0
:100D7000B61A754640EA5C005B084FEA3202B6EBF1
:100D8000020E75EB030E22BFB61A754640EA9C00B0
:100D90005B084FEA3202B6EB020E75EB030E22BF80
:100DA000B61A754640EADC0055EA060E18D04FEA3E
:100DB000051545EA16754FEA06164FEAC30343EADE
:100DC00052734FEAC2025FEA1C1CC0D111F4801FAB
:100DD0000BD141EA00014FF000004FF0004CB6E7A4
:100DE00011F4801F04BF01430020B4F1FD0C88BF43
:100DF000BCF5E06F3FF6AFAEB5EB030C04BFB6EB4E
:100E0000020C5FEA500C50F1000041EB045170BD40
:100E10000EF0004E4EEA113114EB5C04C2BFD4EB6D
:100E20000C0541EA045170BD41F480114FF0000EF1
:100E3000013C90E645EA060E8DE60CEA135594EA6D
:100E40000C0F08BF95EA0C0F3FF43BAF94EA0C0F70
:100E50000AD150EA01347FF434AF95EA0C0F7FF4E5
:100E600025AF104619462CE795EA0C0F06D152EA39
:100E700003353FF4FDAE1046194622E750EA41061D
:100E800018BF52EA43067FF4C5AE50EA41047FF42E
:100E90000DAF52EA43057FF4EBAE12E74FF0FF3C93
:100EA00006E000BF4FF0010C02E000BF4FF0010C64
:100EB0004DF804CD4FEA410C7FEA6C5C4FEA430CDD
:100EC00018BF7FEA6C5C1BD001B050EA410C0CBF2C
:100ED00052EA430C91EA030F02BF90EA020F00208E
:100EE000704710F1000F91EA030F58BF994208BFF5
:100EF00090422CBFD8176FEAE37040F001007047B2
:100F00004FEA410C7FEA6C5C02D150EA013C07D108
:100F10004FEA430C7FEA6C5CD6D152EA033CD3D053
:100F20005DF8040B704700BF8446104662468C464D
:100F30001946634600E000BF01B5FFF7B7FF002880
:100F400048BF10F1000F01BD4DF808EDFFF7F4FFA9
:100F50000CBF012000205DF808FB00BF4DF808ED34
:100F6000FFF7EAFF34BF012000205DF808FB00BF57
:100F70004DF808EDFFF7E0FF94BF012000205DF879
:100F800008FB00BF4DF808EDFFF7CEFF94BF01202E
:100F900000205DF808FB00BF4DF808EDFFF7C4FF27
:100FA00034BF012000205DF808FB00BF4FEA41027A
:100FB00012F5001215D211D56FF47873B3EB6252AB
:100FC00012D94FEAC12343F0004343EA505311F0D2
:100FD000004F23FA02F018BF404270474FF0000064
:100FE000704750EA013005D111F0004008BF6FF0A2
:100FF000004070474FF00000704700BF4A0011D218
:1010000012F5001211D20DD56FF47873B3EB625262
:101010000ED44FEAC12343F0004343EA505323FA6E
:1010200002F070474FF00000704750EA013002D1E3
:101030004FF0FF3070474FF00000704753B94AB986
:10104000002908BF00281CBF4FF0FF314FF0FF30D0
:1010500000F072B9ADF1080C6DE904CE00F006F8AD
:10106000DDF804E0DDE9022304B070472DE9F04724
:10107000089E04468846002B4BD18A42154667D904
:10108000B2FA82F24AB1C2F1200701FA02F320FA61
:1010900007F7954047EA030894404FEA154E230CA2
:1010A000B8FBFEF71FFA85FC0EFB178843EA0843DE
:1010B00007FB0CF1994209D9EB1807F1FF3080F0DA
:1010C0001B81994240F21881023F2B445B1AA4B263
:1010D000B3FBFEF00EFB103344EA034400FB0CFCB0
:1010E000A44509D92C1900F1FF3380F00781A445EC
:1010F00040F2048102382C4440EA0740A4EB0C047F
:1011000000271EB1D4400023C6E900433946BDE89C
:10111000F0878B4209D9002E00F0EB800027C6E94A
:10112000000138463946BDE8F087B3FA83F7002F4F
:1011300047D18B4202D3824200F2FA80841A61EBDB
:10114000030301209846002EE0D0C6E90048DDE701
:1011500002B9FFDEB2FA82F2002A40F08F80491B0A
:101160004FEA154E1FFA85F80127B1FBFEFC230C50
:101170000EFB1C1143EA014308FB0CF1994207D90D
:10118000EB180CF1FF3002D2994200F2CD80844678
:10119000591AA3B2B1FBFEF00EFB101443EA04444B
:1011A00008FB00F8A04507D92C1900F1FF3302D243
:1011B000A04500F2B6801846A4EB080440EA0C40B3
:1011C0009FE7C7F1200CBB4022FA0CFE4EEA030E4B
:1011D00001FA07F420FA0CF521FA0CF34FEA1E4845
:1011E0002543B3FBF8F92C0C08FB19331FFA8EFAD0
:1011F00044EA034309FB0AF49C4202FA07F200FAAC
:1012000007F10BD91EEB030309F1FF3080F0878053
:101210009C4240F28480A9F1020973441B1BADB2C9
:10122000B3FBF8F008FB103345EA034400FB0AFA6D
:10123000A24508D91EEB040400F1FF336BD2A2458E
:1012400069D90238744440EA0940A0FB0289A4EB42
:101250000A044C45C2464B4654D351D0002E69D0A7
:10126000B1EB0A0564EB030404FA0CFCFD40FC40FE
:101270004CEA0505C6E90054002747E7C2F1200300
:1012800020FA03F7954001FA02F021FA03F34FEA3E
:10129000154E3843010CB3FBFEF71FFA85F80EFB21
:1012A000173341EA034107FB08F38B4204FA02F4C7
:1012B00007D9691807F1FF3C2FD28B422DD9023F85
:1012C0002944CB1A81B2B3FBFEF00EFB103341EA86
:1012D000034100FB08F38B4207D9691800F1FF3C7A
:1012E00017D28B4215D902382944C91A40EA074758
:1012F0003BE73746304609E70746E7E61846FBE690
:101300004145ABD2B8EB020A69EB0E020138134635
:10131000A4E76046E9E7184695E76746D1E78146C6
:101320007CE702382C4447E7ACF1020C2B442FE752
:10133000384608E73746E9E6704700BF10F8012B4A
:1013400011F8013B012A28BF9A42F7D0D01A704702
:1013500001F0FF01102A2BDB10F0070F08D010F866
:10136000013B013A8B422DD010F0070F42B3F6D16A
:10137000F0B441EA012141EA014122F007047FF083
:1013800000070023F0E80256083C85EA010586EADA
:10139000010685FA47F5A3FA87F586FA47F6A5FA16
:1013A00087F68EB9EED1F0BC01F0FF0102F0070222
:1013B00032B110F8013B013A83EA010313B1F8D1CD
:1013C0000020704701387047002D06BF35460338AE
:1013D000073815F0010F07D1013015F4807F02BFE7
:1013E000013015F4C03F0130F0BC0138704700BF38
:1013F00070B500220E461421044620F05DFB07253F
:1014000000220A21204620F057FB46FA05F202F09E
:1014100001020921204620F04FFB01220A2120462B
:1014200020F04AFB082024F0FAF915F1FF35E7D245
:1014300000220A21204620F03FFB204601221421F1
:1014400020F03AFB4FF42F70BDE8704024F0E7B96C
:1014500010B5104A92E8030086B001AB83E80300A0
:10146000194603A820F062FB00221421044620F054
:1014700023FB012024F0D3F901221421204620F07F
:101480001BFB4FF40C7024F0CAF9204620F0D4FA6C
:1014900006B010BD606F020030B50B4D89B0FFF78C
:1014A000D7FF0FCD03AC0FC42B68236003A9684698
:1014B00020F03CFBB9210446FFF79AFF204620F0BC
:1014C000BBFA09B030BD00BF686F0200FFF7E4BF90
:1014D00007B501A81BF0E8FB032301A94FF08040EA
:1014E0008DF804301BF0B0FB024B186003B05DF8C0
:1014F00004FB00BF402300200CB41FB5084B186844
:1015000040B107AB02680093146903930022069B65
:101510001146A04704B0BDE8104002B0704700BFBC
:10152000402300202DE9F0470B238EB00024012535
:10153000CDE90B3522460AAB44F201219F480D94B8
:101540000A9405F0C7FD9E4B2246214618602346AB
:101550009A4805F0BFFD07469A4800F055FBFFF793
:10156000B7FF00F0D1FB984800F0C2FB28461FF0FF
:10157000BBFC38B901F08CFF00F030FC06F069FCD0
:1015800001F08CFF00201FF0AFFC044670B924F07E
:101590003EF908228D4908A8CDE9084424F050F905
:1015A00024F035F98A4B01221A60FEE7894C206845
:1015B00020B10022884B11461BF07AFB01F068FF36
:1015C00000F00CFC06F016FC054601F067FF002D4C
:1015D0005AD101F05DFF00F001FC08A906F07CFC87
:1015E00001F05CFF206830B17C4B00932A467C4BB5
:1015F00002211BF05DFB2068E0B19DF827300793C6
:101600009DF8263006939DF8253005939DF82430EB
:1016100004939DF8233003939DF8223002939DF8A4
:10162000213001939DF82030009300226D4B03215F
:101630001BF03EFBDFF8D081DFF8D091DFF8D0A1BE
:101640000023012208A9384605F006FE0128F7D13B
:101650009DF82030092BF3D801A252F823F000BFE7
:101660008F160000A1160000AB1600004116000006
:10167000FD160000271700003B1700004B17000065
:10168000AF170000B517000000F000FCD2E720689B
:101690000028D5D0544B002211461BF009FBCFE7A0
:1016A00020680028CCD0514BF5E7514B1A78002A1E
:1016B000C6D101221A7000F091FB064601F0E8FE47
:1016C00041F23361304606F079FB054601F0E6FE53
:1016D0006DB9484D484B6B60484B2B60AE6001F0D4
:1016E000D7FE2946304606F06EFB01F0D7FE01F02A
:1016F0008FF800F073FB06F021FCA1E700F06EFB11
:1017000006F078FB054600289AD100F0F7FA022887
:1017100096D0206820B13A4B2A4601211BF0C8FA26
:1017200000F06AFB8CE7206820B1364B00220121D3
:101730001BF0BEFA00F088FB82E7206800283FF427
:101740007FAF534600220121A7E701F0A1FE00F080
:1017500045FB06F0F7FB054601F0A0FE042D3FF621
:101760006FAFDFE805F0030C1E1E1E0000210320F2
:101770001FF000FD002102201FF0FCFC60E70021AB
:1017800003201FF0F7FC022001211FF0F3FC20686A
:1017900020B14B46002201211BF08AFA01F082F9A8
:1017A0004EE7206800283FF44BAF4346CAE701F0FC
:1017B000B7FA45E7092001F0ADFA41E79870020059
:1017C0004423002077180000551800000000000096
:1017D0007C05204340230020C06F0200D96F020027
:1017E000D06F0200E16F02000B7002001F70020058
:1017F000582300204823002085180000357002007F
:101800004870020058700200807002007070020080
:10181000637002007047704707B502A9002301F802
:10182000040D08480122006805F033FD30B1064B75
:10183000064A074840F2812124F0AEFA03B05DF871
:1018400004FB00BF44230020C4700200A470020007
:10185000CD700200033803280CD8DFE800F0020541
:1018600007090520FFF7D8BF0620FBE70220F9E7AC
:101870000720F7E77047830702D50420FFF7CCBFA6
:10188000704700002DE9F047064688B008460D462F
:10189000174606F061FA8146284606F056FA0021FE
:1018A0008046304606F022FA044648B344232022FC
:1018B000294606F028FA284606F05AFA82462846B3
:1018C00006F04FFA51460246204606F036FA204608
:1018D00006F039FAB9F1010F15D1274825F000FBC0
:1018E000254982B2204606F003FB034628B93A4652
:1018F0002146304606F06CFA10B1204606F0F2FAA6
:1019000008B0BDE8F087B9F1020FF9D1284606F01A
:10191000EDFA1F2301466A46284606F0EBFA08ABAB
:101920001844002300F8203C69461448FFF706FDE0
:101930000546A8B91149104824F0EFFD2846FFF7E5
:101940006BFFB8F1000FDBD10B4825F0C9FA0A494B
:1019500082B2204606F0CCFA0028CED14346C6E734
:1019600069460748FFF7EAFC0028C6D10449024847
:1019700024F0D3FD0120E2E7201B0020DD700200EF
:10198000DB70020010B588B003A805F0CBFC30B1C5
:10199000284B294A40F2DB21284824F0FDF9012197
:1019A00003A805F0CFFC20B1224B234A40F2DE21F0
:1019B000F2E708A9022441F8184D03A805F0C8FC75
:1019C00020B11C4B1C4A40F2E221E5E74FF489624A
:1019D0001B4903A805F0C4FC034620B1154B164A69
:1019E00040F2E621D8E7174A03A901A805F0BCFC9C
:1019F00020B1104B104A40F2E921CDE703A805F0D1
:101A00008FFC20B10B4B0C4A4FF43B71C4E70E49DD
:101A10001FF098FA0C4901201FF094FA4FF40011BE
:101A200003201FF08FFA4FF4001120461FF08AFAAE
:101A300008B010BD8E700200B0700200CD700200C0
:101A400059230020251500000000030210B586B0C0
:101A50000B9C04940A9C0394099C0294089CCDE975
:101A6000003413460A46024906F00CFA06B010BDCF
:101A7000D96F020010B54FF00B01044606F04DFA85
:101A800020460E21BDE8104006F001BA70B50022D4
:101A90000E461421044620F00FF8072500220A21E3
:101AA000204620F009F846FA05F202F00102092169
:101AB000204620F001F801220A2120461FF0FCFFF9
:101AC000082023F0ACFE15F1FF35E7D200220A21F1
:101AD00020461FF0F1FF2046012214211FF0ECFFE9
:101AE0004FF42F70BDE8704023F099BE10B5104A36
:101AF00092E8030086B001AB83E80300194603A80F
:101B000020F014F80022142104461FF0D5FF012014
:101B100023F085FE0122142120461FF0CDFF4FF453
:101B20000C7023F07CFE20461FF086FF06B010BD2F
:101B30007C6F020030B50B4D89B0FFF7D7FF0FCD9A
:101B400003AC0FC42B68236003A968461FF0EEFFA7
:101B5000B9210446FFF79AFF20461FF06DFF09B038
:101B600030BD00BF846F020008B520F0B9FA054807
:101B70001FF020FE00B1FEE7FFF7DCFFFFF7A6FC39
:101B800008BD00BFAC710200044B1B6810B523B147
:101B9000034C207898470023237010BD482C002068
:101BA000502C002010B590B0044620220021684639
:101BB00024F064F9DCB9114A137843F0010313707F
:101BC0000F4C08A9206805F09BFFDDE90C0150EAE5
:101BD00001030AD10E9B43B90A4A0692CDE90401DA
:101BE0006A461946206805F0B9FF10B010BD012CF7
:101BF000E6D1024A137843F00203E0E7502C0020BC
:101C00004C2C002000C2EB0B30B5114C87B02146A4
:101C1000054600201FF07AF900201FF039F921460F
:101C200001201FF073F901201FF032F9102200216A
:101C300002A824F023F9074B074A0493022001A9C4
:101C4000019005F0E3FE054B1D6007B030BD00BFFD
:101C5000A51B0000891B00004C2C0020482C0020F4
:101C600008B5FFF781FF1BF035F81FF005FA1DF0EE
:101C700005FA1DF001FF1EF049FF1EF0F7F821F0F4
:101C8000CBF9FFF77FFE25F04BF8002008BD0000E0
:101C9000064B38B903221A70054A126822B1187827
:101CA000002110470422F6E7704700BFB01B002058
:101CB0005C3C0020820510B5044607D50A4B05227E
:101CC0001A701878094B00211B689847630709D5DB
:101CD000054B06221A701878044B00211B68BDE8DA
:101CE0001040184710BD00BFB01B00205C3C002016
:101CF000014B1860704700BF5C3C0020014B187816
:101D0000704700BFB01B002000B589B001F0B8FBE0
:101D100003A805F007FB012103A805F013FB08A9A0
:101D2000012341F8183D03A805F012FB4FF480523F
:101D3000074903A805F014FB0023064A03A901A8DC
:101D400005F012FB03A805F0EBFA09B05DF804FBFF
:101D50005C2C0020E11E000007B5064802A9022302
:101D600001F8083D08220023006805F092FA03B04C
:101D70005DF804FB582C002007B5064802A9002393
:101D800001F8083D0822006805F083FA03B05DF809
:101D900004FB00BF582C002007B5064802A9052304
:101DA00001F8083D08220023006805F072FA03B02C
:101DB0005DF804FB582C002007B50190064801236C
:101DC0008DF80030082200236946006805F061FAAA
:101DD00003B05DF804FB00BF582C002038B5054D5A
:101DE0002C6824B901F054FB2C6801F057FB204605
:101DF00038BD00BF542C00201FB501F049FBFFF790
:101E0000EDFF012106F027F8FFF7E8FF094B0A4A2A
:101E10000021CDE90113094B00930391084BFFF713
:101E200015FE10B9074B02221A7005B05DF804EBDD
:101E300001F034BB911C0000207302002E730200DD
:101E400036730200B01B002038B501F021FBFFF70C
:101E5000C5FF06F013F8044620B9002401F01EFB6C
:101E6000204638BDFFF7BAFF012106F06FF80028C1
:101E7000F3D1FFF7B3FF0546FFF7B0FF0249024673
:101E8000284605F0E1FFE9E7B51C000010B501F0B8
:101E9000FFFAFFF7A3FF012105F0DDFF0446D0B9EB
:101EA000FFF79CFF012106F051F840B1FFF796FFC4
:101EB000214605F0D0FF01F0F1FA204610BDFFF7F2
:101EC0008DFF0446FFF78AFF04490246204605F0CD
:101ED000BBFF0124EFE70024EDE700BFB51C0000C5
:101EE00030B5102287B000240823CDE9032344F243
:101EF00001216B44224625480594029405F0EAF836
:101F0000234B2246186021462346204805F0E2F87C
:101F100021460546204602F0A9FC05F08FFF1D4B27
:101F20001860FFF75BFF05F065FF18B9FFF756FF74
:101F3000FFF7A0FD01F0B2FA002308226946284607
:101F400005F08AF90828F7D101F0A2FA9DF80030CF
:101F5000042BEFD8DFE803F003080E131700FFF798
:101F60003DFF01F031FBE5E7FFF738FF019902F093
:101F700089FADFE7FFF732FF05F0C4FFDAE70198DF
:101F800002F080FCD6E701F02DFCD3E73D730200A0
:101F9000582C0020542C002010B528B14FF6FF73A8
:101FA000013A92B29A4200D110BD8C5C8454F7E79A
:101FB000054A082300F00101400801B15040013BEF
:101FC00013F0FF03F6D170472083B8ED2DE9F04FF1
:101FD0008FB05C1E88460A92E11C9DF86020059235
:101FE000824600F29D8052B1B3F5B02F00F2988086
:101FF0004FF480734B4A002100F0C2F806E008FB62
:1020000000F14FF480724748FFF7C6FFB4FBF8F3C6
:102010000AEB030208FB134301339BB20293C8F39C
:1020200007230893029BDFF8FCB01B0A04930133DB
:10203000D2B2DBB20392099354464FF0FF35039BB3
:102040009C4203D9E8430FB0BDE8F08F16D19DF84C
:102050000830049A0999002B18BF0A4613460193C9
:1020600008FB04F30793019B013B00260693019AAA
:10207000F3B29A4204D80134E4B2E0E7089BEEE7F9
:10208000069AB24224D1039A944221D1029A12F0C4
:10209000FF0908BF4FF4807954451CD1DBB90A9B76
:1020A00003F10C07BFB200230BEB0702F91889B24A
:1020B000494512D3059B03BB079B03F580714FF481
:1020C000807201EB06215846FFF766FF0136CEE726
:1020D0004FF48079E0E70027E5E7D05C6840290A03
:1020E000C0B2CDE90B230D91FFF762FF0D990C9B58
:1020F0000B9A81EA00050133D8E7069BB34208D169
:10210000601C4FF480735A460021C0B200F038F8CA
:10211000DCE7711C4FF480735A4609022046F5E74C
:10212000002090E74020002010B5084C23785BB9D0
:10213000074901201CF0BEFF064A106020B10123B0
:10214000054923701CF096FF207810BD603C0020EC
:10215000683C0020643C00206C3C002010B5054C1D
:1021600023782BB1044B18681CF07CFF00232370EC
:1021700010BD00BF603C0020643C0020012070477F
:1021800010B5084C247854B101EB003106480068C2
:102190001CF0D2FF002814BFFF20002010BDFF203C
:1021A000FCE700BF603C0020643C002008B51346FB
:1021B000074A127852B10A460146064800681CF0E8
:1021C000BBFF002814BFFF20002008BDFF20FCE754
:1021D000603C0020643C002013B5094C24786CB1AD
:1021E00001EB003104240748009400681CF0ACFFA8
:1021F000002814BFFF20002002B010BDFF20FBE725
:10220000603C0020643C002007B51346094A127860
:1022100072B1062200920A460146074800681CF087
:1022200093FF002814BFFF20002003B05DF804FBDB
:10223000FF20FAE7603C0020643C002008B5084B12
:102240001B785BB1074B01034FF4805218681CF0F8
:102250000DFF002814BFFF20002008BDFF20FCE771
:10226000603C0020643C00200920FFF7D5BA000044
:1022700030B59BB005460C462022002102A823F071
:10228000FDFD202200210AA823F0F8FD4FF47A7208
:10229000B5FBF2F3069302FB1353124A12A9534300
:1022A0002046089305F02CFCDDE91623134301D1E9
:1022B000189B2BB100230AAA1946204605F04EFCB4
:1022C000094B186828B100220094084B11461AF0F7
:1022D000EFFC002302AA1946204605F03FFC1BB084
:1022E00030BD00BF40420F0040230020A475020013
:1022F00010B588B0044620220021684623F0BEFDB8
:10230000074B186820B10022064B11461AF0D0FC8A
:1023100000236A461946204605F020FC08B010BD8F
:10232000402300209574020070B505460E4601F06A
:10233000AFF841F23361284605F040FD044601F054
:10234000ADF844B901F0A4F83146284605F03BFD4C
:10235000044601F0A3F8204670BD0000014804F0D7
:10236000EFB800BFB83C00202DE9F041064610460A
:102370001746984605F0B8FD0546384605F0B6FD07
:102380002D1AADB205F1280004F0C8FA044620B3B6
:1023900000F12803C36008F11003067200F114066F
:1023A0000FCB86E80F00B8F82230A384069B236188
:1023B0006581384605F09AFDE26801462B463846AD
:1023C00005F098FD064B2146186824F09DFC082076
:1023D000FFF722FA0020BDE8F0810720FBE700BFED
:1023E000783C002070B505468CB00C46164601F0CE
:1023F0004FF8286905F0A7FC21463246286905F008
:1024000077FD044601F04AF824B1286905F06AFD19
:102410000CB070BD21462C2201A823F02FFD01F045
:1024200037F8FFF7DBFC05F089FD044601F036F8CC
:10243000234603F1100601AC18685968224603C20E
:102440000833B3421446F7D141F23363ADF8243078
:1024500005F114030FCB05AC84E80F00AB8CADF88D
:10246000263001F015F8FFF7B9FC002301AA29690D
:1024700005F0AEFC044601F011F8002CC8D0C4E70A
:102480000E4B1A889B7883700D4B02801A6AC0F835
:1024900003200C4A1B7B1268C0F8072003F00F02D0
:1024A000092A4FEA131394BF30324132092B94BFEB
:1024B000303341330273C372704700BFD7740200D8
:1024C00000000000DB74020030B5202489B02246F1
:1024D00005460021684623F0D1FC6846FFF7D0FF8F
:1024E000224669462846FFF77DFF09B030BD00004F
:1024F0002DE9F0438FB0884691461D460646FFF70A
:102500006DFC074600F0C4FF0021384605F0EEFBE5
:10251000044600F0C3FF002C62D000F0B9FF4A4629
:102520004146204605F0EDFB0221204605F007FC60
:102530002946204605F005FC054600F0AFFF002DBA
:102540003ED100F0A5FF204605F0FDFB7289F16841
:10255000204605F0CDFC054600F0A0FF85BB2946CE
:102560002C2203A823F08AFCFFF738FC05F0E6FCD8
:1025700003AD034600F1100C186859682A4603C2DF
:10258000083363451546F7D141F23363ADF82C307B
:1025900006F114030FCB07AD85E80F00B38CADF83F
:1025A0002E3000F075FF0023CDE9003303AA169BFF
:1025B0002146384605F0E2FB054600F06FFF7DB18D
:1025C000094B186828B100220095084B11461AF0F3
:1025D0006FFB00F05DFF204605F084FC00F05EFF1D
:1025E0000FB0BDE8F08300BF402300208E750200CD
:1025F000F0B59DB003AC10220021204623F03EFC34
:10260000234B186820B10022224B11461AF050FBD0
:1026100000F03EFFFFF7E2FB05F090FC11AA034635
:1026200000F11007164618685968154603C50833A7
:10263000BB422A46F7D100F031FF15A8FFF720FF73
:10264000154A1068516819AB03C323F07FF829239A
:10265000ADF8263040F2FF33ADF80C3002238DF890
:102660001B308DF86C0094E80F000CAD85E80F006E
:1026700041F23363ADF84030084B00930322084B1E
:102680000A96002107A8FFF733FF1DB0F0BD00BF79
:102690004023002075750200000000007D2C000022
:1026A000867502000D4B37B5044618680D4638B1E3
:1026B000B1F8013000930022094B11461AF0F8FAE4
:1026C00005236381074B0093E560074B012200213E
:1026D0002046FFF70DFF03B030BD00BF40230020B0
:1026E0000D750200D92A0000257502000D4B37B583
:1026F000044618680D4638B1B1F801300093002245
:10270000094B11461AF0D4FA052363810023009384
:10271000E560064B012210212046FFF7E9FE03B0D9
:1027200030BD00BF402300200D750200257502005A
:1027300013B507238DF800300123ADF80230094BA3
:10274000ADF80420DC695CB140B10A4602A9034639
:1027500011E90300A047B0FA80F0400902B010BDB3
:102760002046FBE7B83C002030B5134BC56818681D
:1027700087B00C4658B1EB78029380230193B1F8EF
:102780000130009300220D4B11461AF091FAE91C1A
:102790008022B4F8010000F09FFCA278637805461F
:1027A00006A843EA0223022220F8023D1146FFF761
:1027B000BFFF284607B030BD40230020B875020097
:1027C0001FB5ADF80C200C4A0B46546907218DF853
:1027D00008100121ADF80A105CB140B1009004A9C5
:1027E000002211E90300A047B0FA80F0400904B0CC
:1027F00010BD2046FBE700BFB83C002038B5048878
:10280000054664112046640100F0EAFC2C8038BDC6
:1028100010B586B0FFF7A2FD264C1022002102A8B9
:1028200023F02CFB244A254B0493022001A901909C
:1028300005F0ECF80021204624F04AFA204B1C60F9
:10284000204C214B6360214B2360FFF7C7FAA06047
:10285000FFF7C4FA21461E4CFFF766FD1D4B63606F
:102860001D4B2360FFF7BAFAA060FFF7B7FA2146C5
:10287000FFF75AFDFFF782FC20B100F043FD90B94D
:1028800000F076FD1022002102A823F0F7FA134B86
:10289000134A049301A90220019005F0B7F8FFF74D
:1028A000A7FE06B010BD00F048FD4FF6DF7398425A
:1028B000E6D1E7E7A43C0020B43C00208D2A0000CC
:1028C000783C0020943C0020312A000078730200FC
:1028D0007C3C0020D52900008073020069220000A2
:1028E000B03C002070B5154C88B000251726324644
:1028F000294602A82560257123F0C0FA2A463146F0
:1029000002A8FFF715FFA278637808A843EA02231C
:102910000222114620F81C3DFFF70AFF2279E378D6
:1029200008A843EA022320F81A3D03220221FFF7F8
:10293000FFFE00F0A3FD08B070BD00BF8C3C00207E
:1029400010B50C4C206820B100220B4B11461AF038
:10295000AFF9206820B10022084B11461AF0A8F9FF
:10296000074B4EF660201968FFF782FCBDE8104067
:10297000FFF7B8BF402300204B73020054730200DE
:10298000B03C002038B500F039FC0E4C054670B95B
:10299000FFF7A8FF206820B10B4B2A4629461AF002
:1029A00087F922F034FF094B01221A60FEE7206804
:1029B00020B10022064B11461AF07AF9BDE83840E2
:1029C000FFF7BEBF40230020A67402007C05204311
:1029D000C3740200F7B50C4600210546164605F003
:1029E00085F9074638B9104B1868B0B903B0BDE88F
:1029F000F040FFF7A5BF43232022214605F083F9CD
:102A00000028F0D100973346224629460320FFF7DD
:102A1000ABFC0028E7D103B0F0BD0022034B114608
:102A20001AF046F9E2E700BF40230020E0740200FC
:102A3000F7B50C4600210546164605F057F907463E
:102A400038B9104B1868B0B903B0BDE8F040FFF7D3
:102A500077BF43232022214605F055F90028F0D105
:102A600000973346224629460120FFF77DFC0028C7
:102A7000E7D103B0F0BD0022034B11461AF018F95C
:102A8000E2E700BF40230020F674020008B5FFF71C
:102A9000A5F905F057FA012803D0BDE80840FFF773
:102AA0004FBF08BD13B502A8002420F8024D032231
:102AB0000221FFF785FEBDF806303BB1044B1868D4
:102AC00020B1044B224621461AF0F2F802B010BDA4
:102AD00040230020887302002DE9F3472E4ED6F8DC
:102AE00000A080460D4691461C463746BAF1000FBD
:102AF0004BD0084605F030F90022CDE90040274BC5
:102B0000114650461AF0D4F83CBB284605F024F98B
:102B1000A0F14003DBB2052B15D8002400944B46EE
:102B20002A4641460220FFF71FFC002830D03868B3
:102B300020B11B4B224611461AF0BAF802B0BDE88C
:102B4000F047FFF7FDBE8038C0B20F2820D83868A4
:102B50000028F3D0134B0022EDE7306828B10022A3
:102B60000094114B11461AF0A3F8FFF79BFF0F4B8F
:102B70004EF660201968FFF77BFB0D4B0D48196876
:102B800002B0BDE8F047FFF773BB002BEDD1BCE707
:102B900002B0BDE8F08700BF402300203974020076
:102BA000547402006774020077740200B03C002085
:102BB000B43C0020E022020030B589B000F0AEF94C
:102BC0000022172102A8FFF7FBFD0DF1090000F01C
:102BD000CBF9244C9DF80830A4F8030002221146DA
:102BE0000DF106002370FFF7EBFDBDF80630A4F8E9
:102BF0000130B4F8033093B31B4B186820B10022A6
:102C00001A4B11461AF054F8282003F087FE0546A7
:102C100028B3A27863780DF1060043EA0223ADF8E9
:102C20000630FFF7EBFD01221221BDF80630A4F8B3
:102C3000013005F11400FFF7C3FD0D4B1868FFF7D5
:102C400057FB0C4B1868FFF753FB04232B720A4BFE
:102C50002946186824F058F80820FEF7DDFD09B071
:102C600030BD00BF8C3C0020402300202F740200A8
:102C7000B03C0020B43C0020783C0020F7B51F4C4D
:102C800027680E461D4657B1084605F065F8002234
:102C9000CDE900501A4B114638461AF009F8194F81
:102CA000DDB9304605F058F83F2816D9304605F012
:102CB00053F8452811D8206830B1134B00932A46A9
:102CC000124B294619F0F4FF39680F48FFF7D0FA84
:102CD00003B0BDE8F040FFF76FBF4EF660203968E3
:102CE000FFF7C6FA206838B14EF660230022009341
:102CF0001146074B19F0DCFF03B0F0BD4023002064
:102D000039740200B03C0020C02709002D75020074
:102D10005775020010F0090F01D0FFF769BC70472A
:102D20002DE9FF41544B186824F0A2F8044600280E
:102D300061D0037A013B032B5AD8DFE803F0025F2E
:102D40009A4D4E4F386820B100224D4B114619F074
:102D5000AFFFE3684B4D1B782B704FF000088DF8E8
:102D60000C3085F8018085F8028000F0D7F8E06823
:102D7000013000F0F9F8B0EB08030646A5F80300AF
:102D8000386818BF01238DF80D3028B100963E4BEE
:102D90004246414619F08CFF00221721E068FFF7F8
:102DA000C7FC0122122104F11400FFF7C1FC2A79AB
:102DB000EB7804A843EA02230221032220F8023D13
:102DC000FFF7B6FC022203A92046FFF70BFB36B142
:102DD0002E4B1868FFF78CFA2A49204640E03868E5
:102DE00020B12B4B3246114619F062FFFFF7A8FDC8
:102DF000204603F095FD04B0BDE8F0811F4E306819
:102E000020B10022234B114619F052FF1D4DE268FC
:102E1000B5F80130B2F8012093420AD0306800289A
:102E2000E6D0CDE9003200221B4B114619F040FFDD
:102E3000DEE729462046FFF797FC28B130680028D6
:102E4000D4D0164B0022CEE7B5F80130B5F80320F8
:102E500001339BB29A42A5F801302946204602D997
:102E6000FFF720FCC4E7FFF741FC2846FFF78AFD87
:102E7000BEE7FFF729FBBBE7783C0020402300209A
:102E8000917302008C3C0020A8730200B03C00202B
:102E9000BC730200CE730200EA73020017740200D2
:102EA0002DE9F047DFF86CA0DFF86C9086B00025C4
:102EB0000AF1080804AED9F80030EFB2BB4204D8DA
:102EC000FF27384606B0BDE8F087DAF80000DAF8E8
:102ED00004106B4603C36C03D8F80000D8F8041044
:102EE00004F4FF1403C394E80300082286E80300F7
:102EF0003146684622F08CFF30B1082231460DEB96
:102F0000020022F085FF10B9A37C072BD9D9013527
:102F1000D1E700BF986F0200843D00200D4808B53E
:102F2000036803F00F039A020B4B1A600B4B1968EE
:102F30000368C9B203F00F034B439B02B3FBF2F3E8
:102F4000074A1360FFF7F0F8FFF718F9054B187000
:102F500008BD00BF30240340883D00202C00034002
:102F6000843D0020953D00202DE9F043504C514B0D
:102F7000616893B00222054620681A7003AB03C350
:102F800054F8080F616805AB03C3FFF789FF4A4A8D
:102F90001678FF2814BF4303484B1EB9474AFF2841
:102FA00008BF1346297A1A7B914217D16F7A5B7B4F
:102FB0009F4214BF052700270822294603A822F0B4
:102FC00027FF68B10822294605A822F021FF38B161
:102FD0003B4B00221A603A4B18884EE00527EBE77E
:102FE0002B7B5A1E3E2AF3D85A1F012AF0D9002FF4
:102FF000EED1344FD5F80E203A60334A334913608E
:10300000334A66B9334B0E6016801E803A68D30986
:1030100012F07F0F2A4A18BF01331360DBE7012B40
:103020000CBF4FF480334FF400330B60D4F80090A2
:1030300064681B0B1380FF264FF0FF3802254846BB
:10304000214603AB03C301AA082300212846FFF74A
:1030500097F850B903A9082201A822F0D9FE014629
:1030600080B12846FFF7EAF8284680B2194BFF28BE
:103070001880CBD1124B0020186013B0BDE8F0834C
:103080000325DCE7342305AA2846FFF779F8002852
:10309000EBD1119B43453CBF98462E46032DEFD103
:1030A0003046FFF7CBF8002808BF3046DDE700BF09
:1030B000986F0200943D0020953D00200000000024
:1030C000BC1B0020B41B0020B81B00208C3D00203E
:1030D000903D0020923D0020F8B51346394ADFF8B4
:1030E000F8C017788646C601013FF4B277450CEB6D
:1030F00004000D46644604D9802222F097FE002089
:103100004EE051D10B4601F10C0253F8041B40F87C
:10311000041B9342F9D11B880380FFF7C1FE2A4AA2
:1031200012784303002A48D1284AFF2808BF1346D3
:10313000D889E389984214BF05200020244BD4F895
:1031400089201B68013B134239D148BBA369C3F3F3
:103150000737C3F30B030BB10137FFB21D4E3478B1
:103160003088C3199C4215DB8E231B4A0021C0B254
:10317000FFF732F898B93078722305F10E028E21EC
:10318000FFF72AF80028BAD009E0A27C032ACFD1A1
:103190000020D3E72046FFF751F8FF2801D1032094
:1031A000F8BD0134E4B2DBE70C4A106830440A464B
:1031B000C0F30B01C0F30730E2E7FF28E5D105209B
:1031C000EEE700BF943D0020953D00200000000088
:1031D000883D0020903D0020F43C00208C3D0020E4
:1031E00008B5054B1B881844C0B2FFF727F8002824
:1031F00014BF0320002008BD903D002070B5384C5E
:103200009AB004230DAA08212078FEF7B9FF08B16F
:1032100003202BE01121012302AA2078FEF7B0FF42
:1032200001460028F4D19DF80830FC2B24D02D4D08
:103230002D4B2A7820781B68D2B1012200920A46D1
:103240004FF48051FEF7C2FE0D9B834214D1FE2342
:103250008DF808302B783BB9012302AA1121207880
:10326000FEF7BAFF0028D3D1287838B91AB070BD5C
:103270001E4900920968E5E70220F7E72C2302AA1D
:1032800000212078FEF77CFF06460028C0D102AC62
:103290000FCC0DAD0FC50FCC0FC594E80700144B34
:1032A000144C85E80700144A2078CDE90D23134B10
:1032B0001B68CDE91836124B1B68013B062B9CBFDF
:1032C0004FF6FE63ADF84430FEF7B8FF34230DEB44
:1032D000030200212078FEF77FFF0028C6D097E781
:1032E000903D0020953D0020B41B0020883D00202B
:1032F0004E564D31923D00204F4144208C3D0020E0
:10330000B81B002010B5A4B0FEF70EFF044678B13C
:10331000342269460020FEF749FF9DF81230052B44
:1033200009D19DF81140FC3C18BF0124FEF716FF9F
:10333000204624B010BD0024F8E700B5A5B0FEF784
:10334000F3FE80B1342269460020FEF72FFFFEF71E
:1033500005FF9DF81230052B08D19DF81130FC2B8C
:1033600004D0BDF80E0025B05DF804FB0020FAE79C
:103370002DE9F0433E4F7D6AEB1BC3F3073423F482
:103380007F6323F00F03A7B03A460BB10134E4B2D8
:10339000D2F88960FEF7C8FE002865D00020FEF74D
:1033A0004DFF002862D124036B1E9B1BC4F57F24B4
:1033B000210BC3F30732C3F30B035FFA81F80BB1A0
:1033C0000132D2B201EB0209C8453CDB0135ED1BED
:1033D00031462A462046FEF717FF0146002837D11E
:1033E000862204A822F04AFD224A234BCDE902237B
:1033F00006F1080204AB3036106851681F4603C757
:103400000832B2423B46F7D11068386000262B469E
:1034100032464FF4005100963046FEF7D7FD4FF686
:10342000FF630490ADF818303422052302A930461A
:103430000D9408958DF81A30FEF7E6FEB04214BFE1
:103440000324344605E04046FEF7F8FEFF2806D187
:103450000324FEF783FE204627B0BDE8F08308F181
:1034600001085FFA88F8AFE70446F4E70324F2E7BF
:10347000000000004F4144204E564D31FEF76EBE15
:1034800000220121014804F079BA00BF983D0020D4
:10349000014804F089BA00BF983D0020014804F0BB
:1034A0007EBA00BF983D0020FEF766BC10B5102420
:1034B0008AB022460021684622F0E0FC2246002124
:1034C000022406A822F0DAFC084B0893694620463D
:1034D000059403F0D1FD064A05A9204604F096FAAA
:1034E000044B00221A700AB010BD00BFA9340000BE
:1034F000C03D0020B43D00201FB50220694603F006
:1035000049FD4FF47A71029B0648B3FBF0F3009833
:10351000B3FBF1F201FB123301FB003005B05DF8A3
:1035200004FB00BF40420F0030B589B00D46144681
:1035300000212022684622F0A1FCFFF7DDFF114B9D
:103540001D60114B401B1C60104B0122A0421A70E1
:1035500003D3FEF711FC09B030BD4FF47A7200239B
:10356000241AB4FBF2F002FB1044CDE9040308482E
:103570004443084806946A461946006804F0EEFA87
:10358000E9E700BFBC3D0020B83D0020B43D00206D
:1035900040420F00C03D002000B589B0202200212C
:1035A000684622F06BFC06486A4600230421006846
:1035B00004F0D4FA034B00221A7009B05DF804FB42
:1035C000C03D0020B43D002030B5184D2B7889B0A7
:1035D000044683B1FFF790FF154B1B68C01A154BCB
:1035E0001B6883420DD800232B7000F04FF820B1E8
:1035F000204606F09BFC09B030BD204606F0E8FBF3
:10360000F9E720220021684622F038FC0A4B69467F
:10361000186804F075FADDE904231343EBD1069B27
:10362000002BE8D1FEF7A8FBE5E700BFB43D002082
:10363000BC3D0020B83D0020C03D0020FEF7ACBBE3
:1036400010B510248AB022460021684622F016FCEC
:1036500022460021022406A822F010FC084B089301
:1036600069462046059403F007FD064A05A9204651
:1036700004F0CCF9044B00221A700AB010BD00BF50
:103680003D360000C83D0020C43D0020014B1878A5
:10369000704700BFCC3D002037B51E4C237803B3E4
:1036A000002A32D10868057843781B48008843EA2D
:1036B000052320B1194D2D88854228BF2270184C52
:1036C00022889A420FD115480288013202805A1C82
:1036D000228091F9102000920C21124A0520FDF75A
:1036E0000BFF03B030BD0028A3EB020208BF64202B
:1036F00092B2904204D90C4805882A440280E2E73D
:103700000A48028801320280E3E7084A138801333D
:103710001380E6E7CD3D0020D03D0020D63D0020BF
:10372000CE3D0020F9750200D23D0020D43D00209E
:1037300038B51C4B1B780446002B32D01A4B1B8823
:103740001BB11A4A12889A4224D2204600F026FD64
:10375000174B1B8883800146002388880A6898429B
:1037600015D8124D2B88180A10700A68204653701D
:1037700000F018FD2B8801332B80FFF7BDFE0D4BA9
:1037800001461A682046BDE83840FFF7CDBED35445
:103790000133E2E7084A0C210520BDE83840FDF777
:1037A000ABBE38BDD83D0020DA3D0020E43D00200E
:1037B000DC3D0020E03D0020E57502001FB520F053
:1037C000FBFC684620F0E6FB0423694600208DF8E8
:1037D000003020F0EBFB024B186005B05DF804FBF5
:1037E000E83D0020704700001FB50A4670B1014651
:1037F00068461CF081FB064B6946186820F04CFDBA
:10380000003018BF012005B05DF804FB0720FAE77F
:10381000E83D002008B521F0FAFF024B01221A60B2
:10382000FEE700BF7C052043FEE70000044B1A685A
:103830000021134619711B689A42FBD1704700BFE3
:10384000E041002000221BF0B1B9000010B58AB0A1
:10385000044602A81BF032F80649074A00234B80B1
:103860000023CDE900232046044B02AA1BF032F8C6
:103870000AB010BD403E00202200C000B938000050
:1038800010B50A4B8AB00446002202A81A701BF039
:1038900015F808220023CDE900230549054B02AAAB
:1038A00020461BF017F80AB010BD00BF8C42002064
:1038B000EC3D00206D3C000002F4800000212DE969
:1038C00018489C4650EA010302F020004FF0000126
:1038D00014BF2024002450EA010302F400004FF03A
:1038E000000118BF44F0080450EA010321D044F05D
:1038F000040400220CF08073134324D0144B5A8824
:1039000092B2012A44F080040ED05A8892B2022A60
:103910000AD05B8842F201029A4205D00D4B18682A
:10392000FFF794FF0C4B18802046BDE81848FEF7BF
:1039300043BA02F002000CF0E04150EA010318BF64
:1039400044F04004D5E7002CEED1BDE8188800BF54
:10395000403E0020843E0020803E00200220FEF7F2
:103960002BBA000070B501462148224C1BF0A2FA88
:10397000054620681BF066FA1F4BC5F315019942F6
:10398000024632D01D4B20681978012904D01B78DB
:1039900013B195EA020F06D429461BF041FA833889
:1039A00018BF012070BD164EB6F90010FFF74AFF90
:1039B000144B5A8892B2012A01D10120F2E75A88A9
:1039C00092B2022AF9D05B8842F201029A42F4D004
:1039D000294620681BF024FA8328EED12068FFF7DF
:1039E00035FF3080C0F3C030DCE70720DAE700BFE6
:1039F0004C1B0020843E0020FFFF3F00704200204F
:103A0000803E0020403E00202DE9F74FD0F8249062
:103A1000C846044618F8085FA5F1060A08EB0A072D
:103A2000053DD7F803B01AF089F9294B1B681B6BC9
:103A300006469847030B43EA015300930B0B01938F
:103A4000DDE90023A6EB0B06B608921B63F1000329
:103A5000C4E9042309F10903A3601E4BA5819B7BE4
:103A6000A37318F80A3023767B78C3F305036376D3
:103A7000BB78FF2B28D05909012203F01F0302FA5B
:103A800003F399F80A2012F0400F4FEA810214BFA5
:103A9000114912490A4452681A4214BF01230023F3
:103AA000A27E63F3000297F90130A276002B01DBBE
:103AB000802D0BDD1822002104F1080022F0DEF930
:103AC000112003B0BDE8F08F0023E9E70020F8E7FC
:103AD0008C010010403E0020E841002040420020C0
:103AE00070B50D4616460446FFF7D0FD324629460E
:103AF00020B12046BDE870400BF04FBA2046BDE82B
:103B000070400BF027BAD0E9093212B983621B6802
:103B100002E09A42FBD1002343627047436A0022CD
:103B20001A71FFF7F0BF000030B58DB000230A9383
:103B30001B4B1C4C1B681C4D0993CDE90001099BD4
:103B40000BB90DB030BD1B79032B684604D0042B94
:103B50001BD1FFF7E3FFF2E7FFF756FF024628B15C
:103B600002A90098FFF7BCFF6846F2E7029A1378B3
:103B700003F0070102290BD12378042BF4D12B6821
:103B800092789B789A42EFD16846FFF7BCFFD6E760
:103B90009906019A01D51307F6D50022E0E700BF88
:103BA000E041002070420020904200202DE9F043C7
:103BB000294B2A4F1D7800248DB006461C7075BB1A
:103BC0003B691B789B063ED5254BDFF89C901B6814
:103BD00093F80280234B0A95CDE900011B680993F5
:103BE000099C0CB90E251AE02379032B03D199F80F
:103BF0000030042B03D06846FFF785FFF0E76846E6
:103C0000FFF702FF05460028F5D1029A137803F06A
:103C10000703022BEFD193784345ECD102AC124B52
:103C200002221A7000233B61FFF730FD68B12A467B
:103C30000B4930460BF0B6F914B16846FFF76EFF3A
:103C40000DB0BDE8F0832C46E9E72B462246044937
:103C500030460BF089F9EFE78C42002074420020D7
:103C600090420020E0410020704200202DE9300801
:103C7000002403F080759C4654EA050353D10024C8
:103C80000CF0E04554EA050306D02A4B01201870D9
:103C9000BDE83008FEF790B802F00A020023134393
:103CA00044D02549254BCA891A80254A13691B78B7
:103CB00013F0200342F2014428D04B889C421CD0D0
:103CC00053889BB2B3F5105F19D11E4B5B88A3F5E7
:103CD0001053013B042B12D8DFE803F00F1113132C
:103CE00003000E23184A116802290BD81368BDE897
:103CF000300801331360FFF7C3BD0F23F2E7012340
:103D0000F0E700230B4A13700120C1E749888C4279
:103D1000084902D10F230B70F6E7528892B2B2F530
:103D2000105FB2D1F7E74FF48070B1E7BDE830081B
:103D3000704700BF8C420020EC3D00204043002033
:103D4000744200202C4300202843002070B5074D0A
:103D5000074E0FCD34460FC495E8030084E80300F6
:103D6000337B43F08003337370BD00BF8C7102005E
:103D7000283E0020014B187F40B27047403E002093
:103D80002DE9F843564CDFF88881564E564DDFF842
:103D9000849190273A460021201D22F06FF83A4680
:103DA000002108F1040022F069F83A460021301D94
:103DB00022F064F83A460021281D22F05FF801271E
:103DC0004FF0000267F3830288F805204FF00003EC
:103DD0004FF0000267F3830367F38302637172712C
:103DE0008C234FF00002E380C8F80060A8F806308A
:103DF0003560F380EB8067F383023C4B3C4EC4F8A4
:103E000000802C606A714FF000083A4AC9F80040FF
:103E10001A60A3F80480C9F80480FFF797FF0FCE5B
:103E2000354C25460FC50FCE0FC50FCE0FC596E8F2
:103E30000F0085E80F00314BC4F81090304A6361E1
:103E40000A23E3776262A3772E4B23620B23A373CB
:103E5000A6232377237B2C4843F080032373637BC3
:103E600067F303036373E37B3B43E373E37B43F059
:103E70002003E373E37B43F01003E373E37B43F03E
:103E80004003E373E37B43F08003E373238B3B4303
:103E90002383238B43F002032383238B43F0040308
:103EA0002383238B43F400432383E37E3B43E37666
:103EB000E37E43F00203E376E37E43F00403E3761C
:103EC000E37E43F01003E376E37E022167F34613BB
:103ED000E376FFF789FC0D4B83F80080BDE8F8839B
:103EE000903F0020B84000204C410020904200202C
:103EF00020710200A8420020403E0020803F0020A8
:103F000040420020E8410020404300207042002051
:103F100024400020E041002030B50F4C2378012BD5
:103F200089B011D02378ABB968461AF04DFE0B4B1F
:103F300003930B4A0B490C486B461AF051FE0B4B8E
:103F40001860012310B12370002001E02070184692
:103F500009B030BD0520FBE7704200202938000081
:103F6000283E0020301B0020883E0020843E002098
:103F70002DE9F0473C4F3B78DBB2012B8AB08A46F3
:103F800091461CD0022B6DD103233B70374BB3F904
:103F90000010374B1868FFF755FC364B5A8892B221
:103FA000012A03D1012001233B7058E05A8892B2C4
:103FB000022AF7D05B8842F201029A42F2D0032330
:103FC0003B702D4E2A4B2D4CD3F8008002A81AF0DE
:103FD00075FC0FCE25460FC596E8030085E8030063
:103FE000A62384F80EA02374237B43F0800323735D
:103FF000637B012262F303036373E37B1343E37385
:10400000E37B43F00203E373E37B43F00403E373D6
:10401000E37B43F00803E373E37B6FF30413E37381
:10402000E37B43F06003E373E37C042262F3030366
:10403000E374E37C43F08003E3744FF47A6303FB9F
:1040400009F3636102220023CDE9002321460C4BD2
:1040500002AA40461AF03EFC0028A3DB00200AB06A
:10406000BDE8F08705209EE770420020803E0020DA
:10407000843E0020403E002004710200103E0020DB
:104080005D390000F8B5264B1A78012A0D461C460A
:1040900017D1244B1B780BB9234B9973234B93F9FE
:1040A0000000FFF75FFC224B1868FFF7CFFB214BA6
:1040B0000028188001DA0120F8BD022323700020B7
:1040C000FAE71B78022B28D1174CA37B8B42F6D042
:1040D000144B1B78002BF2D1164E154FB6F9001079
:1040E0003868FFF7AFFB63889BB2012BE3D063888E
:1040F0009BB2022BDFD0638842F201029A42DAD0EF
:104100000A4BA57393F90000FFF72CFC3868FFF702
:104110009DFB3080C0F3C030CEE70520CCE700BF68
:10412000704200200C3E0020403E0020823E0020D5
:10413000843E0020803E002010B5144C2378012BD3
:104140001DD02378022B1CD1114BB3F90010114B59
:104150001868FFF777FB104B588880B201280FD002
:104160005A8892B2022A0ED05B8842F201029A4229
:104170004FF0010004D020701020FDF71DFE00203C
:1041800010BD0520FCE70120FAE700BF70420020C7
:10419000803E0020843E0020403E002000487047C2
:1041A000904200202DE9F84F494B1E78F6B2022EBE
:1041B000834640F08B804FF0040883F80080454B25
:1041C000454FD3F800A0454BD1F8009091F804C0BA
:1041D000434C4FF0000EC3F800E00FCF25460FC54B
:1041E00097E80F0085E80F003E4B3F4D1B88E381A9
:1041F000032365602375237B43F080032373637B74
:1042000066F3030363730523237484F81180A37C8E
:10421000012767F30403A374A37C6EF34513A3740F
:10422000A37C6EF38713A374E37DDFF8CCE067F320
:104230000303E375BEE80F002C460FC49EE803009D
:10424000ACF1020C84E803005FFA8CFC85F80FC027
:104250002B7B43F080032B736B7B584667F3030380
:104260006B73C5F8109003F0E4FD28BB99F800309B
:104270009B0621D56B7B1D4C66F303031C4E6B73B1
:104280000FCE6C6025460FC533682B6099F802305D
:10429000A3734FF458632361237B43F0800323739C
:1042A000637B67F303036373E37B68F30303E373E5
:1042B000E37B43F08003E3730E4B002250461A70F9
:1042C000FFF7DEFAC0F3C030BDE8F88F0520FBE74A
:1042D00070420020843E0020E47002002843002049
:1042E000EC3D002040430020744200202C4300207D
:1042F000607102008C42002074710200014B987AB8
:1043000040B27047803F00200F207047034B188B4E
:1043100000F0010080F00100704700BF403E002027
:104320000A4B0B4A1878FF280DD101339342F9D17B
:10433000084B03F10802013912F8010D01F8010FD1
:104340009A42F9D17047014BF3E700BFC84F0050C4
:10435000D04F0050F0120050134B1A78022A70B55B
:104360000C461AD1114D124EB5F900103068FFF706
:1043700069FA104B5A8892B2012A0DD05A8892B22B
:10438000022A09D05A8842F20101914204D03068D1
:104390005C86FFF75BFA288070BD1B78042B1CBF7E
:1043A000044B5986F8E700BF70420020803E002091
:1043B000843E0020403E0020164B1A78022A70B539
:1043C0000C461DD1144D154EB5F900103068FFF79D
:1043D00039FA134B5A8892B2012A10D05A8892B2F5
:1043E000022A0CD05A8842F20101914207D0D4E946
:1043F0000001C3E90A013068FFF728FA288070BD80
:104400001B78042BFBD0D1E90001054BC3E90A015D
:10441000F5E700BF70420020803E0020843E00206F
:10442000403E0020134B1A78022A70B50C461AD170
:10443000114D124EB5F900103068FFF703FA104B1A
:104440005A8892B2012A0DD05A8892B2022A09D013
:104450005A8842F20101914204D030681C86FFF76D
:10446000F5F9288070BD1B78042B1CBF044B1986FE
:10447000F8E700BF70420020803E0020843E00200C
:10448000403E002038B56E4B1A78013A05460C467E
:10449000032A00F2D480DFE802F0029B7712E106E3
:1044A00005D5FFF7C3F9674B18681AF03DFB14F008
:1044B0000C0F00F0C480BDE83840FFF7B7B914F422
:1044C000C07F52D0604B5A8892B2012A0ED05A88CF
:1044D00092B2022A0AD05B8842F201029A4205D0C7
:1044E000584B1868FFF7B2F9584B1880584A538850
:1044F0009BB2022B04D053889BB2B3F5105F2BD133
:10450000544B5A8892B242B15A8892B2022A04D0CD
:104510005A8892B2B2F5105F1ED11B691B789A06B9
:1045200040F18D804C4B5A8892B2002A00F087806F
:104530005A8892B2022A00F082805A8842F20341DD
:1045400091427CD05A8842F20441914277D05B88F4
:1045500042F205429A4272D0404B0B221A70284612
:104560000121BDE83840FFF721BBE30702D5214612
:10457000FFF71CFB14F00C0F03D021462846FFF771
:10458000D3FA14F0200F94E7A00721D502221A7065
:104590002D4B5A8892B2012A0ED05A8892B2022A22
:1045A0000AD05B8842F201029A4205D0254B186876
:1045B000FFF74CF9254B1880294A53889BB2B3F575
:1045C000105F0ABF917C7F2149B228460AF0DBFCCC
:1045D000210613D51C4B5A8892B2012A0ED05A8854
:1045E00092B2022A0AD05B8842F201029A4205D0B6
:1045F000144B1868FFF72AF9144B188014F00C0FAD
:1046000003D021462846FFF78FFAA20601D5FFF70F
:104610000DF9630613D50C4B5A8892B2012A0ED0BD
:104620005A8892B2022A0AD05B8842F201029A4268
:1046300005D0044B1868FFF709F9044B188038BD02
:1046400070420020843E0020403E0020803E00203A
:10465000EC3D0020744200202C4300208C420020BE
:10466000103E002010B5044C204601F069FF23687D
:104670000020BDE810401847444300202DE9F04FCA
:10468000924689B0102289460DEB020000211C469B
:10469000129F254D21F0F2FB06238DF810301523D3
:1046A0008DF81E30ADF81290AB6A98474FF00008B5
:1046B00083461FFA88F3534501DD002607E06B6A45
:1046C00004A8984708F1010806460028F1D0EB6AD3
:1046D000584698470A2E11D006238DF80830BDF8A9
:1046E0001430ADF80C30ADF80A900DF108082B6AC3
:1046F00098E80300984744B927B920B9172009B0B2
:10470000BDE8F08F38800020F9E7002FF6D086B2A0
:10471000009433466C69002298E80300A0473E806D
:104720000028F0D0EAE700BF444300202DE9F04123
:1047300086B00D4617460021102202A81E46144CD2
:1047400021F09CFB06238DF8083045238DF81630A8
:10475000ADF80A50A36A98478046636A02A8984752
:104760000028FAD0E36A40469847ADF80250062385
:1047700000258DF80030ADF804506946E4693B46E9
:10478000324603C9A047284606B0BDE8F08100BF05
:10479000444300202DE9F04387B0884617460021A6
:1047A000102202A8204C21F069FB0622002FA36AE8
:1047B0008DF80820ADF80A8010DA45228DF8162011
:1047C00098470546636A02A898470028FAD0284609
:1047D000E36A9847002007B0BDE8F08315228DF802
:1047E0001620984700268146636A02A8984701363A
:1047F000054608B9B742F7DAE36A4846984775B9FB
:1048000006238DF80030BDF80C30ADF80430ADF85B
:1048100002806B46226993E80300904708B1172095
:10482000D9E72846D7E700BF4443002030B585B01C
:1048300010220021684621F021FB0B4C06238DF845
:10484000003043238DF80E30A36A98470546636A0B
:10485000684698470028FAD0E36A28469847636874
:104860000020984705B030BD4443002008B5FEF74E
:104870001DFEFEF7E5FEFEF7A1FFBDE80840FFF7CD
:104880007FBA0000C20710B5044601D5FCF7C3FF8C
:10489000A3070ED5074C08482188FCF7BBFF00236F
:1048A0002360064B044918682022BDE810401BF025
:1048B00039B910BDA043002080430020A44300204C
:1048C0001FB5094B1C68621C1A605CB968461BF076
:1048D000ADF90423694620468DF800301BF0B8F985
:1048E000024B186004B010BDAC430020A843002068
:1048F000074B70B51C68013C06461C6024B9054D89
:1049000028681BF0E9FA2C600023336070BD00BFFB
:10491000AC430020A843002038B500F11003D508AF
:1049200004462A46184621F081FA2A4601462046C6
:10493000BDE838401BF0DABAD2081BF0D7BA000045
:104940007FB50646684615461C461BF07BF91023CA
:104950000393054B009669461868CDE901541BF096
:10496000C1FA04B070BD00BFA84300202DE9F0419A
:1049700005460F469046032400F11C0620222946D6
:104980004046B8472A1F002352F8041F964243EAC4
:104990000103F9D12BB9013CF0D14FF0FF30BDE854
:1049A000F0810020FBE70000826801239A4201D8D1
:1049B000044870474168C95C09B90133F6E7002033
:1049C000704700BF80B3FFFFF8B504460068884217
:1049D00017461D4618D81E1D0B1AB34214D32A467B
:1049E0003946043021F022FA23682A0E1A7023680F
:1049F0002A0C5A7023682A0A9A702368DD7023688B
:104A0000334423600020F8BD0048FCE700B1FFFFFD
:104A100070B5164602688A4204461D4610D88B1AA5
:104A2000691C8B420CD315700068013020602A4647
:104A3000314621F0FBF923682B442360002070BD30
:104A40000048FCE700B1FFFFD2E90123FFF7E0BF18
:104A50002DE9F043B9B0804601AC409800940F4670
:104A600016461D4622F03CFAD7E9012381460DF196
:104A7000DD016846FFF7A8FFF0B9D6E901230DF183
:104A8000DD016846FFF7A0FFB0B9D5E901230DF1BC
:104A9000DD016846FFF798FF70B94B46409A0DF16B
:104AA000DD016846FFF790FF30B9009A419B121B69
:104AB0002146404613F064FE39B0BDE8F0830000A3
:104AC00010B58EB0044601A81BF07AFA174B01937B
:104AD00004F22C43029304F27C43039304F28C43CC
:104AE000049304F2EC43059304F2FC43069304F2AE
:104AF0000C43079304F21C53089304F2DC4309931C
:104B000004F26C430A9304F2CC430B9304F25C432B
:104B10000C9301A904F2BC43D4F82C050D931CF0AE
:104B20000FF908B9012323730EB010BD147E0200E3
:104B300010B5421E00F12003103013F8014D12F899
:104B4000011F147083421970F7D110BD38B5036886
:104B50008B42044601D90E4838BDC91A0129FADD35
:104B60005878042812D1D2E901056A1C9142F2D387
:104B7000194611F8013B21609D42ECD12A4621F0F3
:104B800055F923681D4425600020E5E70148E3E767
:104B900080B0FFFF80B1FFFF2DE9F043AFB003AC61
:104BA000DDF8D8901E460546884617461DA94122C5
:104BB00020461BF09BF9224649463046FFF7C6FFC8
:104BC00018B93368994503D21E482FB0BDE8F08369
:104BD000A9EB0309B9F1200FF6D91A4612F8011B07
:104BE00032602029F0D10DF1340C2133E1461068F8
:104BF0005168E646AEE8030008329A42F446F6D120
:104C00006B793260C3F101030F4A286852F82330F0
:104C1000009315AE01963B4622464146FFF718FF2A
:104C20000028D2D107A81BF0C3F9084BD5F82C05F2
:104C300007A9CDE90738CDE90974CDE90B691CF066
:104C400037F8C2E780B0FFFF28760200147E02002A
:104C500030B5044685B058B10025056085606846CA
:104C60001BF086F9694628461BF08EF9C4F82C051E
:104C700005B030BD38B5044638B100250560D0F820
:104C80002C051BF07BFFC4F82C5538BD38B51D46EC
:104C90000023044603734171104613F023FD206086
:104CA000002800F0A480042384F85332514B25716E
:104CB0009B6A04F51570024603F1400153F8045B4A
:104CC00042F8045B8B42F9D1FFF732FF04F51D7007
:104CD000FFF72EFF412204F2532104F57F701BF0F1
:104CE00005F904F2D9331846DDE9041221F09EF8E3
:104CF000059A014604F20C401BF0F8F8202204F15A
:104D00000D0104F21C401BF0F1F8202204F12D01EA
:104D100004F22C401BF0EAF8202204F14D0104F2C9
:104D20003C401BF0E3F8202204F16D0104F24C40FA
:104D30001BF0DCF8202204F18D0104F25C401BF032
:104D4000D5F8412204F1AD0104F27C401BF0D4F807
:104D5000412204F1EE0104F28C401BF0CDF8412217
:104D600004F22F1104F29C401BF0C6F8412204F516
:104D7000B87104F2AC401BF0BFF8412204F2B1114B
:104D800004F2BC401BF0B8F8202204F2332104F2F4
:104D90006C401BF0B1F8412204F5F97104F2CC40EB
:104DA0001BF0AAF8412204F5257104F2DC401BF047
:104DB000A3F8412204F2D52104F2EC401BF09CF848
:104DC000412204F2163104F2FC401BF095F8412216
:104DD00004F2573104F20C501BF08EF8412204F516
:104DE000667104F21C501BF087F8002038BD0248A1
:104DF000FCE700BF147E020080AFFFFF036843B1F1
:104E0000037933B1D0F82C350348002B18BF0020AC
:104E100070470148704700BF80B0FFFF2DE9FF4198
:104E200004AD8C1845F8041D00F2EC4706463A46DE
:104E300021462846FFF78AFE00BB3846FFF7B4FD3F
:104E4000E0B906F57F7800942B463A464146304655
:104E5000FFF7A2FE90B906F2FC473A4621462846E3
:104E6000FFF774FE50B93846FFF79EFD30B9009445
:104E70002B463A4641463046FFF78EFE04B0BDE869
:104E8000F08100002DE9F04FA9B004468846154690
:104E900009910D30DDE932120793FFF767FD002815
:104EA00040F0C180DDE9321204F12D00FFF75EFD14
:104EB000002840F0B880DDE9321204F14D00FFF720
:104EC00055FD002840F0AF80DDE9321204F16D009D
:104ED000FFF74CFD002840F0A680DDE9321204F116
:104EE0008D00FFF743FD002840F09D801FA81BF0B8
:104EF00053F84E4B1F9304F21C430393209304F288
:104F00002C430493219304F23C4304F27C4604F2C4
:104F10008C4A0593249304F29C4704F24C4304F218
:104F2000AC491FA9D4F82C052296CDF88CA0069385
:104F300025932697CDF89C901BF02AFE002872D16D
:104F400045443246294609A8FFF77EFD00286AD16C
:104F50006179374A206852F8212000920FAB04F59E
:104F60007F7B01933A4633465946FFF771FD00288F
:104F700059D10AA81BF014F82C4B0A93039B0B93EE
:104F8000059B0C9317AE0FAB0AA9D4F82C050D9313
:104F90000E961BF043FE002845D13A46294609A843
:104FA000FFF752FD00283ED120233246294609A8AA
:104FB000FFF72EFD002836D162791D4B206853F88B
:104FC000223000930FAF019753464A465946FFF7E8
:104FD0003FFD40BB0AA81AF0E3FF144B0A93049B61
:104FE0000B93069BD4F82C050E960AA9CDE90C3735
:104FF0001BF014FEB8B95246294609A8FFF724FD54
:1050000088B94A46294609A8FFF71EFD58B920234A
:105010003246294609A8FFF7FBFC20B9099B079AED
:10502000A3EB0803136029B0BDE8F08F147E0200E3
:10503000287602007FB5037B039105460C46164691
:10504000BBB16B793444D3B105F20C5632462146DC
:1050500003A8FFF77BFD80B93046FFF7A5FC60B9D8
:10506000009403AB324605F21C512846FFF794FD2D
:1050700003E0FFF725FD0028E3D004B070BD039BDB
:1050800028799C4216D3E21A022A13DD1A78032AE1
:1050900001D00948F1E75A789E78033346EA0226A0
:1050A000039313F0EBF90028F3D04388B342CBD03D
:1050B0000248E2E70248E0E780B0FFFF80B1FFFF6F
:1050C00000B1FFFF2DE9F0479A4698B0037B0291AB
:1050D00004460F461546002B5BD06279324B2068A0
:1050E00053F82230009304F2BC4804F2CC4908AED5
:1050F00001964B46424604F2DC41FFF7A9FC00282A
:105100004BD103A81AF04CFF284B039304F26C43D5
:10511000049304F25C43CDE9053603A910AED4F83C
:105120002C0507961BF07AFD002836D16379012BF8
:105130003D4416D1029B20799D4231D3EB1A022BBC
:105140002EDD13F09BF968B3029B03221A7043888B
:10515000029A1B0A5370029B42889A70029B033387
:1051600002934A46294602A8FFF76EFCA8B94246B8
:10517000294602A8FFF768FC78B920233246294661
:1051800002A8FFF745FC40B9029BDF1BCAF800707C
:1051900003E0FFF795FC00289FD018B0BDE8F0872A
:1051A0000348FAE70348F8E728760200147E020075
:1051B00000B1FFFF80B0FFFF2DE9F04104469CB035
:1051C0000068164688461F4613F0A6FBB042054607
:1051D00029D801AE0BA9412230461AF087FE05A856
:1051E0001AF0F2FE114B059304F26C43069304F29D
:1051F0000C53079304F2FC43089305A904F22C43D3
:10520000D4F82C05CDE909361BF0E2FD40B9434640
:1052100020220DF12D01206813F0B2FA00B93D6093
:105220001CB0BDE8F0810248FAE700BF147E02001E
:1052300000B1FFFF4FF49472002120F01FBE10B5A3
:10524000044658B1006848B11DF08EFF20464FF467
:1052500094720021BDE8104020F010BE10BD000087
:1052600030B50446006885B00D4698B901A81DF018
:105270003DFC04238DF8053004F10C0363600B4BF7
:10528000A36001A9201D1DF0D1FE206020B96FF0A0
:10529000360008E01DF07EFFB5FA85F14909206867
:1052A0001DF08CFF002005B030BD00BF3E7602002F
:1052B0007FB5044601A80E461DF018FC04238DF8A6
:1052C000053004F10C05084BA36001A96560201DA1
:1052D0001DF0ACFE4FF48E72206006F10C012846E2
:1052E00020F0A4FD04B070BD3E76020008B5006851
:1052F0001DF0E2FE002814BF6FF03600002008BD4C
:1053000008B500681DF0C2FE002814BF6FF036001B
:10531000002008BD08B5402200681DF0B7FE002837
:1053200014BF6FF03600002008BD000010B5054B1B
:105330000A44914200D110BD11F8014B6040185C45
:10534000F7E700BF3F76020038B50B4C23680546EF
:105350009B680A48984700F00300286023680748C4
:105360005B68064D00219847236828469B6898474C
:105370000028F9D138BD00BFD8010010004003401B
:10538000024B1B6801465B6801481847D8010010B2
:105390000040034001EB40310148006819F0CCBEE9
:1053A0002844002037B50D4DEC7804230DEB0302A3
:1053B00000212046FFF7EEFF9DF80430FF2B03D0BD
:1053C00003F0FD037C2B07D10C2303FB0454A08BBB
:1053D000C0F5005003B030BD0020FBE7EC430020D7
:1053E000014802F0C7BA00BFB4430020014802F0F0
:1053F00095B900BFB4430020F7B51F460B4B0446D8
:1054000018680D46164660B90423094800933246D1
:105410003B4605EB4431006819F096FEC00F03B01F
:10542000F0BD80470028EFD10B20F8E73044002082
:105430002844002013B504460948006801908DF8FF
:105440000610591C89000423ADF8042089B20DEB25
:1054500003022046FFF7D0FF024B187002B010BDC8
:10546000A86F0200B043002013B502AC012304F87A
:10547000012D2246FFF7C0FF014B187002B010BD8E
:10548000B043002030B503783F2B19D84488B4F5D9
:10549000806F17D28588B5F5806F15D20B480078DC
:1054A00003280CD0D18144EA0331002045EA0131C0
:1054B00013729623908111609580D480937230BDD1
:1054C0000920FCE70720FAE70820F8E7C01B0020C6
:1054D00073B5072314466A4605460E46FFF75AFF82
:1054E0009DF8003025749DF80110A6819D081B02CF
:1054F00003F4407319439DF803309DF804609DF850
:105500000200E1809A099B0103F47C6343EA96035D
:10551000E3819DF80530257242EA8002980840EA4E
:10552000861060729DF80600A28003F0030396289F
:1055300041EA0531E37242EA013214BF43F001034C
:1055400043F00403A0722260E37202B070BD2DE943
:10555000F0438BB00C1D8900814617469846A4B2D3
:105560008DF80710002664B901220DF107013046BD
:10557000FFF7DCFEB84214BF022000200BB0BDE8EC
:10558000F083202C254628BF20252B46494602AA19
:105590004046FFF7FFFE2A46304602A9FFF7C6FE47
:1055A000641B4D440646A4B21FFA85F9DBE72DE9DA
:1055B000F84384898946C189641AA4B2054616460F
:1055C0001F46427A037C2046FFF7C1FF804658B948
:1055D00004EB090189B2AB898A199A4207DC334688
:1055E0003A46287CFFF7D6FE4046BDE8F883B5F87A
:1055F0000E80B04534BF4FF005084FF00608F3E7C2
:1056000038B50A460D4600210446FFF72DFF064B2C
:105610001B7843B9054B7C2D4FF00C0208BFDC70A2
:1056200002FB0434A57538BDB0430020EC430020D4
:1056300073B5144DEC7804230DEB030206460021EC
:105640002046FFF7A7FE9DF80430782B15D0FF2BDE
:1056500001D07E2B03D17C212046FFF7D1FF0C2304
:1056600003FB0453EC70988BE8803044B0F5005F86
:1056700004DD78212046FFF7C3FFFF24204602B057
:1056800070BD00BFEC43002008B538B1073080B2D0
:10569000FFF7CEFFA0F1FF035842584108BD0000BC
:1056A0002B4B1B68F7B5044653B92A4B9A682A4B13
:1056B0006103186819F0DAFC002807DA012003E01A
:1056C00098470028F1D10B2003B0F0BD234E0C25E4
:1056D00005FB046305FB0465DB7DFD2B9ABF0133ED
:1056E000DBB20123EB758DF8053049F20F63ADF89D
:1056F000063004230DEB0302FF27002120468DF81E
:105700000470FFF779FE164B187010B90323AF75BC
:105710006B76204600234FF0FF32FF21FFF78AFE11
:10572000204601234FF0FF32FF21FFF783FE204682
:1057300002234FF0FF32FF21FFF77CFE0C2303FB17
:1057400004641023A383FF2323760020BCE700BF5B
:10575000304400201C44002028440020EC4300205A
:10576000B04300202DE9F04F8D4B95B01B6802909F
:10577000002B40F0B3808B4C94F80180A778012374
:10578000E37305AA042300214046FFF703FE9DF8BA
:1057900016309B0740F0D480F82206214046FFF7E0
:1057A00063FE0C2303FB0843F8221A769DF814309D
:1057B000702B03D070214046FFF722FF042305AA77
:1057C00000213846FFF7E6FD9DF81430FE2B03D08C
:1057D000FE213846FFF714FFFE2206213846FFF768
:1057E00043FE0C2303FB0742FE21117603FB084214
:1057F0006D4D928B628200222A7094F802A062782A
:10580000019203FB024203FB0A4306A8B2F81CB054
:10581000B3F81C90FFF798FD0395039BBBF1160F9F
:105820001B7862D8002B40F08880C9F50052A9F19E
:10583000100392B202F1885210219BB25046FFF73A
:10584000DBFD039B1B781843039B18700698FFF73A
:1058500097FD0C2303FB0A43B4F91220A3F81C9014
:10586000617BA4F814B001235046A4F81090FFF710
:10587000E1FDA17BB4F9142002235046FFF7DAFDC5
:10588000029B002B08BF10230293238A029AC3F5C0
:1058900000539342ACBF7C2178213846FFF7B0FE1D
:1058A0004046FFF7FDFE039BFC2218700621384698
:1058B000FFF7DAFD0C2303FB0743FC221A76404670
:1058C0009B8B84F80280FE216770E770E380FFF70E
:1058D00097FEE088C0F5005000B203E0984700282A
:1058E0007FF449AF15B0BDE8F08F33BBABF10705CE
:1058F000ADB207AA29460198FFF7EAFDBDF82A6074
:1059000006F110039D4216D39DF82630962B12D136
:105910009DF8273003F00303AD1B022BADB227D156
:10592000019B9DF8252031462846FFF710FE30B335
:10593000ABF10805ADB2162D04D80698FFF720FD8F
:105940000020CFE7362D9ABFA5F11606B6B2202665
:10595000AD1BADB233460CAA29460198FFF71AFDDC
:1059600014AB334413F8213C962B03D13544ADB22C
:10597000AB4652E7013EB6B2002EF1D1DBE7C9F1EA
:1059800088520736B6B202F500523346921B2946BA
:105990000198B144FFF7FEFC1FFA89F9E8E700BF60
:1059A00030440020EC430020B043002038B5124BB7
:1059B0001B6805464BB9114801F0DCFF104B1C7801
:1059C0004CB10E4801F0AAFE03E098470028F2D13E
:1059D0000B24204638BD0B4BDB88C3F500531BB2AC
:1059E000AB4200DB2DB90020FFF7BCFE064B1C7854
:1059F000E7E70424E5E700BF30440020B44300207B
:105A0000C01B0020EC430020B0430020174B1B6854
:105A100070B5FBB91648174E174C01F0ABFF0025C7
:105A20003378E8B2984205F1010519D32578134C73
:105A3000013B0020A3707E21A38B6070E070E380A7
:105A4000FFF7DEFDA078FE21FFF7DAFD084801F040
:105A500065FE03E098470028DCD10B25284670BD81
:105A6000FFF71EFE237818432070D9E7304400204A
:105A7000B44300202C440020B0430020EC4300201D
:105A800037B505318CB2012321460DF107020546D9
:105A9000FFF780FC9DF80720214602F0FD02284612
:105AA000FFF7E2FC0C4B0C2404FB0534637E83B14E
:105AB00001230DF1070202212846FFF76BFC9DF838
:105AC0000720022102F0FC022846FFF7CDFC00234C
:105AD000637603B030BD00BFEC4300202DE9F04FEA
:105AE00014461F46137AD288B4F80480DFF8E49095
:105AF00087B01B0303F47C33C2F309021343C8F3DA
:105B00000908109D064648EA033807F00F0A1629CF
:105B100003D80023A3810A2032E007391FFA81FB52
:105B200001AA59463046FFF7D3FC9DF80F3003F029
:105B30000303022B33D1237ABAF1030F48D8DFE8ED
:105B40000AF005222602019B984528D195B107F05D
:105B5000F003102B0ED1AB68AA89002101A8FFF732
:105B600026FDE0B9EB88A868AA882968184420F0C7
:105B70004FF9A0B901AD0FCD0FC42B6823600020F1
:105B800007B0BDE8F08F9DF80C209A42DDE79DF844
:105B90000C209A4203D1E288BDF80A30F5E79DF85F
:105BA0000F0010F004000CD0BDF812108B4503D983
:105BB000ABEB010189B2AAE730465946FFF760FF17
:105BC0000020FFF7CFFD99F80360B9F806109EE7B3
:105BD0000420D5E7EC4300202DE9F0478EB0DDE945
:105BE00019A6169FBDF85C90BDF8608002AC1D46FA
:105BF0004FF6FF7384E803003380002F35D0002D6B
:105C000033D0BAF1000F30D0B9F1000F2DD0B8F574
:105C1000005F2AD8B5F5805F29D2204609AA294617
:105C2000FFF730FC0446E0B9124801F0A3FE124B26
:105C3000CDF814A0D988D878ADF8189005AB0093AA
:105C400009AA1223ADF81A800797ADF82050FFF784
:105C500045FFC4B214B9BDF828303380054801F0BF
:105C60005DFD20460EB0BDE8F0870424F9E7052469
:105C7000F7E700BFB4430020EC43002010B58AB022
:105C800002AB83E8030005AA00211846FFF7FAFBE0
:105C9000044698B90A4801F06DFE0A4B05AAD98856
:105CA000D87800940323FFF719FF08B9BDF8224004
:105CB000034801F033FD20460AB010BD0024FAE786
:105CC000B4430020EC4300202DE9F04FA14BA24E3D
:105CD0001A783270032A8FB081461D4640F08F80BB
:105CE000002206A81A70327001F0B6FC20B1012023
:105CF00028700FB0BDE8F08F012306A997480693DE
:105D000001F0B4FC80460028F1D1954CDFF85CA28C
:105D10002E2201464FF0FF37204620F0AFF8E76013
:105D20002761A78219F0AAF94946404619F0C2F93D
:105D3000DFF83C92CAF80000494619F09BF9D9E90E
:105D40000112B1FBF2F3DBB2022B864828BF02231B
:105D5000B2F5005F237003708146C8D1B1EB433FB9
:105D6000C5D3DAF80030002BC1D04FF00C0AE28026
:105D700067802771D34699F800005FFA88F585425D
:105D80003FD3E378FF2B40F0B6802179FF2900F064
:105D9000A180E1700225E378FF2B0BD10027384664
:105DA000E770FFF77DFC3378184330707E2138466A
:105DB000FFF726FCA378FF2B12D1E07899F800209A
:105DC000431C93FBF2F002FB1030C0B2A070FFF74F
:105DD00067FC337818433070FE21A078FFF710FC81
:105DE000E07860700C2303FB0043012D998B5E4B20
:105DF000E1801D7000F08380022D00F0A6803078D5
:105E000077E7042305AA00212846FFF7C3FA0AFB17
:105E100005439DF815109DF81420D9759A759DF8C5
:105E2000163003F0FC010C2903D09DF817109629B9
:105E30000ED10AFB0541C3F301034B76931CDBB281
:105E4000012B01D97E2A0ED10BFB054310229A8328
:105E50000AFB05439B7D03F0FB02782A32D1E570F3
:105E600008F1010887E709A8FFF76EFA4FF400531D
:105E70004FF0885200212846FFF78CFA4FF4005764
:105E8000043FBFB207F1885001684A1C01D1002FBE
:105E9000F6D1012213465FFA81FCBCF1FF0F18BF57
:105EA0001A460133DBB2052B4FEA1121F3D1016011
:105EB00009980392FFF764FA039A0AFB0543174413
:105EC0009F83C5E7702B01D12571C9E7FE2B08BF61
:105ED000A570C5E7A378FF2B0FD0013393FBF0F239
:105EE00000FB12330C2202FB0342958B0DB1E370D1
:105EF00050E7A1704FE701254DE700254BE7172933
:105F00007FF67DAF073909AA89B2FFF7E1FA9DF85C
:105F10002F305B0719D5E188BDF83230E0780739BA
:105F2000C91A0023009309AA032389B2FFF7D6FDFB
:105F300000287FF464AFBDF8301000293FF45FAF54
:105F40009DF83400FFF79CFD59E70020FFF70AFC9D
:105F500055E700BFC01B0020B0430020B443002021
:105F6000EC4300202C44002036440020284400202C
:105F70001C4400202DE9F04FC589774C0735ADB2A0
:105F80008DB0064628468B461746FFF751FBFF2883
:105F90000BD12846FFF7E6FBA8423EDA207800281E
:105FA00008BF05200DB0BDE8F08F002322786B4DAF
:105FB000D2B917B1022F17D1B3B1337A8DF824308B
:105FC000F388ADF82230B388ADF820300023E9889B
:105FD000E878009307AA0323FFF780FD9DF82C3093
:105FE0003374BDF82830B38195F80380B5F8069076
