:020000040003F7
:106000004343313378325231FFFFFFFF0301FEFF7C
:10601000FFFF0001FFFFFFFFFFFFFFFFC05F050065
:1060200030303031000000002C00FFFF03FEFFFF86
:10603000550000000100000000000000000000000A
:106040000000000000000000000000000000000050
:106050000000000000000000000000000000000040
:106060000000000000000000000000000000000030
:106070000000000000000000000000000000000020
:106080000001FEFFFF0000000000600300000000B0
:10700000010000000000000000000000000000007F
:10701000FFFFFFFFBC17002004000000000000007D
:107020000000000014000000E075030018000000DC
:1070300038740300C070030028170020040000000B
:10704000000000000000000024000000CC740300D9
:10705000180000001751040008000000B071030080
:1070600074700300C1C8021001BB021091EB021042
:10707000DDE5021081E00210B9E5021071E50210B1
:107080003B8000000100000001000000F8750300D3
:1070900001000000FFFFFFFF941700200400000024
:1070A000000000000000000028000000B875030088
:1070B00024000000238000001800000000000000F1
:1070C00028730300D47003009BEC021025E2021029
:1070D00005EB021025DE0210FDE10210E1E40210D2
:1070E000408000003400000027802C800000000059
:1070F00008170020FFFFFFFFE0170020040000003A
:107100000000000000000000380000007C76030052
:1071100028000000911F000010007F0C00000000FC
:1071200000000000B9D204000000141310009E0CEF
:1071300004000000C877030028780300080000005E
:10714000360000009C170020E81700200A802280EB
:107150009BB90400301700200100000000006D12F0
:10716000FFFFFFFFD0170020040000000000000018
:10717000000000001000000030760300180000003E
:107180000000000000008912FFFFFFFF48180020E8
:107190000400000000000000000000005400000097
:1071A000C07603003C00000000001F0F3E8000007E
:1071B0000470030063CE04003A800000B5BE0210E4
:1071C000B0710300D871030059D20210D9DB02104C
:1071D00059EC0210CDD6021085DE02104DE50210EA
:1071E00029E502103A8000000000C11200000000F2
:1071F00000000000FF7F000054180020FFFFFFFF89
:10720000C81700200400000000000000000000007B
:1072100058000000FC7503003400000039FB021028
:107220000100408006000000000000002000000077
:1072300001000000694405002800000028730300D5
:107240005072030093EC02106DEB02104DEC021033
:1072500029E00210BDE4021099E402103E80000013
:107260000000000070170020040000000000000073
:107270000000000010000000E47403002C00000077
:10728000000000000000390F000040113C00000029
:1072900000000000000000006F44050010005D0CBD
:1072A00008000000D8770300FFFFFFFFD817002079
:1072B0000400000000000000000000001C000000AE
:1072C00048760300240000003C72030020170020D1
:1072D0000400000000000000000000000C0000009E
:1072E000407403001800000043D0040000000000B8
:1072F0000000000008000000010000000400000081
:1073000000000000000093120000000068AB0300C2
:10731000000005130000F01224000000794405006D
:107320000040000000020000047003000000701123
:1073300055F002100C0000004D5104000000000048
:107340000017002004000000000000000000000002
:1073500020000000087403003000000080AB030030
:107360000100000033520400D7C5040000000000F3
:107370000000DF12000200003B800000000000144B
:107380000000A31201000000C07103008C17002050
:1073900004000000000000000000000020000000C9
:1073A0009475030024000000545904008017002045
:0873B00020000000F07703004B
:1073C00091500400515704006357040067570400AC
:1073D0006B5704006F570400735704000DD104006D
:1073E000BDD10400C9D0040005440500E7430500F1
:1073F00095D10400A1D1040037440500F1D1040067
:107400009DD20400A9D30400300000000000000059
:1074100000000000307403000400000000000000C1
:1074200001000000FFFFFFFFFF000000010000005F
:107430000800000000000000000000000000000044
:10744000180000000000000000000000507403005D
:1074500008000000000000001000AC0D1000F50D49
:1074600010000000287303007874030065440500D1
:10747000FD5904007D59040097570400EF5704009C
:10748000775704003F80000090000000900000004B
:10749000000000006474030068170020040000006E
:1074A000000000000000000020000000B474030091
:1074B000180000001800000000000000000000009C
:1074C000C474030008000000000000001800000061
:1074D0000000000000000000DC7403000800000051
:1074E000000000002C000000000000000000000070
:1074F0000875030004000000000000000100000007
:10750000FFFFFFFFFFFFFFFF08000000000000007B
:10751000B0710300287503004DD204005DD2040051
:1075200079D204006DD20400355804005F5804007D
:10753000115804003C8000001075030078170020EB
:107540000400000000000000000000001400000023
:10755000587503001C0000001C0000000000000023
:10756000000000006C75030000000000080000002F
:1075700000000000010000005BB80300614405004A
:107580009FAA04005FB8030063B803004FB803006C
:107590006DB803002400000000000000000000009F
:1075A000B0750300000000000000000000000000B3
:1075B000080000000000000024000000000000009F
:1075C00000000000D475030000000000000000006F
:1075D0000000000008000000000000000A00000099
:1075E000180000000000000000000000F07503001B
:1075F000080000000000000011C303003400000078
:1076000000000000000000002876030000000000D9
:107610000000000001000000000000000100000068
:107620000000000000000000080000000000000052
:107630001800000000000000000000004076030079
:10764000080000000000000024000000000000000E
:10765000000000006476030000000000010000004C
:107660000000000008000000000000001000970566
:1076700090000000900000000000000028000000C2
:1076800000000000000000009C76030000000000E5
:1076900000000000FFFFFFFF0000000008000000E6
:1076A000000000001000B8060003691790000000F9
:1076B0009003000050180020DB5404001019002033
:1076C0003C0000000000000000000000F476030011
:1076D00000000000000000000100000000000000A9
:1076E0000000000000000000000000000100000099
:1076F000000000000800000000000000B477030054
:107700004C770300AD5D0400935D040063530400F7
:10771000D953040057540400DB5404006D55040091
:107720001356040015560400135E0400B55E0400F1
:10773000B95E0400D55D0400C75D0400CF5D0400A0
:10774000D35D0400D95D040019560400A15804005B
:10775000D5580400815804004280000090000000C9
:107760009000000000000000FC760300D418002008
:107770000400000000000000000000003C000000C9
:1077800088770300280000002800000000000000A7
:1077900000000000A87703000101010000000000C4
:1077A0000002000078050000080000000000000052
:1077B00002000000B8770300C07703009D52040068
:1077C000C477030004700300D752040025DD0210C3
:1077D000A1D0040075DF02100100010000000000CC
:1077E0000000000000000000010000000100010096
:1077F00015F90210F5D3040001E602102DDA02108B
:1078000045E7021041D10210C9D30210A5DF0210D2
:107810002DE4021061EA021009D20400BD5C0400EC
:10782000000300000D52040000415F696E69746935
:10783000616C697A6564506172616D733A20756E2E
:10784000696E697469616C697A65642050617261FE
:107850006D732073747275637400486561704D694F
:107860006E5F6372656174652063616E6E6F742014
:10787000686176652061207A65726F2073697A6528
:107880002076616C756500486561705374645F6350
:1078900072656174652063616E6E6F7420686176D5
:1078A000652061207A65726F2073697A6520766140
:1078B0006C756500486561705374645F616C6C6FD2
:1078C0006320616C69676E6D656E74206D7573748D
:1078D000206265206120706F776572206F662032AC
:1078E000004865617053746420696E7374616E63DF
:1078F0006520746F74616C4672656553697A6520A2
:1079000069732067726561746572207468616E20A6
:107910007374617274696E672073697A6500486573
:1079200061705374645F616C6C6F63202D207265AD
:107930007175657374656420616C69676E6D656EE1
:107940007420697320677265617465722074686160
:107950006E20616C6C6F77656400415F696E766163
:107960006C69644C6F676765723A20546865206C77
:107970006F676765722069642025642069732069D8
:107980006E76616C69642E00415F63616E6E6F7428
:10799000466974496E746F4172673A2073697A65FB
:1079A0006F6628466C6F617429203E2073697A6582
:1079B0006F66284172672900415F6E756C6C506F6D
:1079C000696E7465723A20506F696E7465722069D1
:1079D00073206E756C6C00415F696E76616C6964D2
:1079E000526567696F6E49643A204D505520526563
:1079F00067696F6E206E756D62657220706173735A
:107A0000656420697320696E76616C69642E00413B
:107A10005F756E616C69676E656442617365416430
:107A200064723A204D505520726567696F6E20620E
:107A30006173652061646472657373206E6F742076
:107A4000616C69676E656420746F2073697A652E56
:107A500000415F7265736572766564417474727318
:107A60003A204D505520726567696F6E20617474BD
:107A7000726962757465732073657420746F207207
:107A8000657365727665642076616C75652E00415C
:107A90005F636C6F636B44697361626C65643A2009
:107AA00043616E6E6F74206372656174652061203E
:107AB000636C6F636B20696E7374616E63652077AE
:107AC00068656E2042494F532E636C6F636B456E41
:107AD00061626C65642069732066616C73652E0059
:107AE000415F626164546872656164547970653A9B
:107AF0002043616E6E6F74206372656174652F64DC
:107B0000656C657465206120436C6F636B206672E1
:107B10006F6D20487769206F7220537769207468F1
:107B2000726561642E00415F6E756C6C4576656EA2
:107B3000744D61736B733A206F724D61736B20618A
:107B40006E6420616E644D61736B20617265206E9E
:107B5000756C6C2E00415F6E756C6C4576656E744D
:107B600049643A20706F73746564206576656E743D
:107B70004964206973206E756C6C2E00415F6576D8
:107B8000656E74496E5573653A204576656E74204E
:107B90006F626A65637420616C72656164792069E3
:107BA0006E207573652E00415F626164436F6E7471
:107BB0006578743A206261642063616C6C696E67F9
:107BC00020636F6E746578742E204D757374206217
:107BD000652063616C6C65642066726F6D20612046
:107BE0005461736B2E00415F70656E645461736BFA
:107BF00044697361626C65643A2043616E6E6F74B0
:107C00002063616C6C204576656E745F70656E6490
:107C10002829207768696C65207468652054617331
:107C20006B206F7220537769207363686564756C8D
:107C300065722069732064697361626C65642E00EB
:107C40004D61696C626F785F6372656174652773FB
:107C50002062756653697A6520706172616D657422
:107C6000657220697320696E76616C69642028747E
:107C70006F6F20736D616C6C2900415F6E6F45768C
:107C8000656E74733A20546865204576656E742E6F
:107C9000737570706F7274734576656E7473206659
:107CA0006C61672069732064697361626C65642E1E
:107CB00000415F696E7654696D656F75743A204353
:107CC000616E2774207573652042494F535F455696
:107CD000454E545F4143515549524544207769749C
:107CE0006820746869732053656D6170686F726590
:107CF0002E00415F6F766572666C6F773A20436F36
:107D0000756E742068617320657863656564656469
:107D100020363535333520616E6420726F6C6C65AA
:107D200064206F7665722E00415F70656E645461E9
:107D3000736B44697361626C65643A2043616E6E73
:107D40006F742063616C6C2053656D6170686F7235
:107D5000655F70656E642829207768696C6520749A
:107D60006865205461736B206F72205377692073AC
:107D700063686564756C65722069732064697361FA
:107D8000626C65642E00415F737769446973616258
:107D90006C65643A2043616E6E6F74206372656136
:107DA0007465206120537769207768656E2053776A
:107DB000692069732064697361626C65642E004197
:107DC0005F6261645072696F726974793A20416EC2
:107DD00020696E76616C69642053776920707269DE
:107DE0006F726974792077617320757365642E00F2
:107DF000415F626164546872656164547970653A88
:107E00002043616E6E6F74206372656174652F64C8
:107E1000656C6574652061207461736B2066726F98
:107E20006D20487769206F722053776920746872DB
:107E30006561642E00415F6261645461736B5374C9
:107E40006174653A2043616E27742064656C6574C3
:107E5000652061207461736B20696E2052554E4E0F
:107E6000494E472073746174652E00415F6E6F50F8
:107E7000656E64456C656D3A204E6F7420656E6F5B
:107E800075676820696E666F20746F2064656C6525
:107E9000746520424C4F434B4544207461736B2EF4
:107EA00000415F7461736B44697361626C65643A2D
:107EB0002043616E6E6F742063726561746520612A
:107EC000207461736B207768656E207461736B69D1
:107ED0006E672069732064697361626C65642E004B
:107EE000415F6261645072696F726974793A2041CE
:107EF0006E20696E76616C6964207461736B2070AA
:107F000072696F7269747920776173207573656423
:107F10002E00415F62616454696D656F75743A202B
:107F200043616E277420736C65657020464F52451F
:107F30005645522E00415F626164416666696E6912
:107F400074793A20496E76616C696420616666696D
:107F50006E6974792E00415F736C6565705461734E
:107F60006B44697361626C65643A2043616E6E6F45
:107F7000742063616C6C205461736B5F736C656516
:107F8000702829207768696C6520746865205461C1
:107F9000736B207363686564756C65722069732008
:107FA00064697361626C65642E00415F696E76611D
:107FB0006C6964436F726549643A2043616E6E6F09
:107FC0007420706173732061206E6F6E2D7A6572FC
:107FD0006F20436F7265496420696E2061206E6F67
:107FE0006E2D534D50206170706C69636174696FC0
:107FF0006E2E00415F756E737570706F727465647C
:108000004D61736B696E674F7074696F6E3A20755E
:108010006E737570706F72746564206D61736B53ED
:10802000657474696E672E00415F697063466169AB
:108030006C65643A20556E6578706563746564207C
:108040004D65737361676551206661696C65640095
:10805000415F696E76616C696448647254797065D9
:108060003A20496E76616C69642048647254797074
:10807000652073706563696669656400415F696E58
:1080800076616C69645365727669636549643A2008
:10809000536572766963654964206F7574206F66F5
:1080A0002072616E676500415F696E76616C69641C
:1080B00050726F6365737343616C6C6261636B468E
:1080C000786E3A2043616C6C6261636B2063616E11
:1080D0006E6F74206265204E554C4C00415F7A658E
:1080E000726F54696D656F75743A2054696D656F70
:1080F00075742076616C756520616E6E6F74206298
:1081000065207A65726F00415F696E76616C6964A3
:108110004B65793A20746865206B6579206D7573BD
:10812000742062652073657420746F2061206E6F07
:108130006E2D64656661756C742076616C75650082
:10814000415F6E756C6C48616E646C653A204E756B
:108150006C6C2068616E646C65207061737365641B
:1081600020746F2063726561746500415F497063BC
:108170004D504661696C7572653A20556E65787030
:108180006563746564206661696C757265207769E2
:10819000746820746865204970634D50004C6F67A7
:1081A00067657253747265616D6572325F63726583
:1081B00061746527732062756666657220726574E6
:1081C00075726E6564206279207072696D6546789B
:1081D0006E206973204E554C4C00627566207061AC
:1081E00072616D657465722063616E6E6F7420627A
:1081F00065206E756C6C00627566206E6F74207001
:10820000726F7065726C7920616C69676E6564006D
:10821000616C69676E20706172616D657465722052
:108220006D7573742062652030206F72206120703C
:108230006F776572206F662032203E3D207468653E
:108240002076616C7565206F66204D656D6F727963
:108250005F6765744D617844656661756C745479C7
:108260007065416C69676E282900616C69676E20D2
:10827000706172616D65746572203129206D75734E
:10828000742062652030206F72206120706F7765E6
:1082900072206F66203220616E64203229206E6F5A
:1082A000742067726561746572207468616E2074F1
:1082B000686520686561707320616C69676E6D65C3
:1082C0006E7400626C6F636B53697A65206D7573B1
:1082D00074206265206C6172676520656E6F7567DA
:1082E0006820746F20686F6C642061746C656173C2
:1082F000742074776F20706F696E74657273006E8E
:10830000756D426C6F636B732063616E6E6F74206A
:108310006265207A65726F0062756653697A6520BE
:1083200063616E6E6F74206265207A65726F0048BB
:108330006561704275665F6372656174652773205D
:1083400062756653697A6520706172616D657465E6
:108350007220697320696E76616C69642028746F7D
:108360006F20736D616C6C290043616E6E6F7420B9
:1083700063616C6C20486561704275665F6672650A
:1083800065207768656E206E6F20626C6F636B731B
:108390002068617665206265656E20616C6C6F6334
:1083A0006174656400415F696E76616C69644672F0
:1083B00065653A20496E76616C6964206672656510
:1083C00000415F7A65726F426C6F636B3A20436164
:1083D0006E6E6F7420616C6C6F636174652073697D
:1083E0007A65203000415F6865617053697A653A4B
:1083F00020526571756573746564206865617020CD
:1084000073697A6520697320746F6F20736D616C76
:108410006C00415F616C69676E3A205265717565E9
:108420007374656420616C69676E206973206E6F78
:1084300074206120706F776572206F66203200496A
:108440006E76616C696420626C6F636B206164643A
:1084500072657373206F6E2074686520667265653F
:108460002E204661696C656420746F2066726565B4
:1084700020626C6F636B206261636B20746F206895
:108480006561702E00415F646F75626C6546726550
:10849000653A2042756666657220616C726561643A
:1084A00079206672656500415F6275664F76657218
:1084B000666C6F773A20427566666572206F7665E6
:1084C00072666C6F7700415F6E6F74456D70747982
:1084D0003A2048656170206E6F7420656D70747904
:1084E00000415F6E756C6C4F626A6563743A204838
:1084F000656170547261636B5F7072696E74486518
:1085000061702063616C6C65642077697468206EAB
:10851000756C6C206F626A00415F626164436F6ECC
:10852000746578743A206261642063616C6C696E72
:108530006720636F6E746578742E204D6179206EAC
:108540006F7420626520656E746572656420667262
:108550006F6D206120686172647761726520696E59
:1085600074657272757074207468726561642E002F
:10857000415F626164436F6E746578743A20626132
:10858000642063616C6C696E6720636F6E746578DC
:10859000742E204D6179206E6F7420626520656EA7
:1085A00074657265642066726F6D206120736F66FA
:1085B0007477617265206F7220686172647761728E
:1085C0006520696E74657272757074207468726566
:1085D00061642E00415F626164436F6E74657874FC
:1085E0003A206261642063616C6C696E6720636F1E
:1085F0006E746578742E2053656520476174654DEF
:10860000757465785072692041504920646F632009
:10861000666F722064657461696C732E00415F65DA
:108620006E7465725461736B44697361626C6564E6
:108630003A2043616E6E6F742063616C6C204761F9
:1086400074654D757465785072695F656E74657296
:108650002829207768696C652074686520546173E7
:108660006B206F7220537769207363686564756C43
:1086700065722069732064697361626C65642E00A1
:10868000415F626164436F6E746578743A20626121
:10869000642063616C6C696E6720636F6E746578CB
:1086A000742E2053656520476174654D7574657837
:1086B0002041504920646F6320666F7220646574A6
:1086C00061696C732E00415F626164436F6E746513
:1086D00078743A206261642063616C6C696E672013
:1086E000636F6E746578742E2053656520476174DE
:1086F000655370696E6C6F636B2041504920646FE5
:108700006320666F722064657461696C732E00412A
:108710005F696E76616C69645175616C6974793AF0
:108720002053656520476174655370696E6C6F6393
:108730006B2041504920646F6320666F722064652E
:108740007461696C732E00617373657274696F6E06
:10875000206661696C757265257325730025245345
:10876000006F7574206F66206D656D6F72793A20A9
:10877000686561703D307825782C2073697A653D95
:108780002575002573203078257800455F62616487
:108790004C6576656C3A204261642066696C74654C
:1087A00072206C6576656C2076616C75653A202563
:1087B000640066726565282920696E76616C69645B
:1087C00020696E2067726F7774682D6F6E6C7920E8
:1087D000486561704D696E0054686520525453209D
:1087E0006865617020697320757365642075702EEB
:1087F000204578616D696E652050726F6772616D9A
:108800002E686561702E00455F626164436F6D6D17
:10881000616E643A20526563656976656420696EAD
:1088200076616C696420636F6D6D616E642C206984
:10883000643A2025642E00455F737461636B4F7644
:108840006572666C6F773A205461736B20307825BF
:108850007820737461636B206F766572666C6F77D6
:108860002E00455F73704F75744F66426F756E646E
:10887000733A205461736B203078257820737461CB
:10888000636B206572726F722C205350203D203034
:108890007825782E00455F64656C6574654E6F744D
:1088A000416C6C6F7765643A205461736B2030784B
:1088B00025782E00455F6D6F64756C655374617427
:1088C00065436865636B4661696C65643A20546111
:1088D000736B206D6F64756C6520737461746520B3
:1088E0006461746120696E7465677269747920636C
:1088F0006865636B206661696C65642E00455F6F17
:10890000626A656374436865636B4661696C65643C
:108910003A205461736B2030782578206F626A6545
:108920006374206461746120696E74656772697430
:108930007920636865636B206661696C65642E00ED
:10894000455F626164496E744E756D2C20696E746A
:108950006E756D3A202564206973206F7574206FE1
:10896000662072616E676500455F616C7265616467
:1089700079446566696E65643A2048776920616C60
:10898000726561647920646566696E65643A206920
:108990006E74722320256400455F6877694C696DA9
:1089A000697445786365656465643A20546F6F2027
:1089B0006D616E7920696E74657272757074732062
:1089C000646566696E656400455F657863657074AB
:1089D000696F6E3A206964203D2025642C20706305
:1089E000203D20253038782E0A546F20736565208D
:1089F0006D6F726520657863657074696F6E206451
:108A0000657461696C2C207365742074692E7379A8
:108A10007362696F732E66616D696C792E61726D18
:108A20002E6D332E4877692E656E61626C654578D0
:108A300063657074696F6E203D2074727565206F78
:108A4000722C0A6578616D696E65207468652045D1
:108A50007863657074696F6E207669657720666FDC
:108A600072207468652074692E73797362696F73FC
:108A70002E66616D696C792E61726D2E6D332E4894
:108A80007769206D6F64756C65207573696E6720FA
:108A9000524F562E00455F6E6F4973723A206964DB
:108AA000203D2025642C207063203D20253038781F
:108AB00000455F4E4D493A20257300455F6861725D
:108AC000644661756C743A20257300455F6D656D71
:108AD0004661756C743A2025732C2061646472655C
:108AE00073733A202530387800455F6275734661AC
:108AF000756C743A2025732C2061646472657373FD
:108B00003A202530387800455F75736167654661A6
:108B1000756C743A20257300455F737643616C6C05
:108B20003A2073764E756D203D20256400455F64C4
:108B3000656275674D6F6E3A20257300455F7265FB
:108B40007365727665643A20257320256400455F5D
:108B5000696E76616C696454696D65723A20496E1C
:108B600076616C69642054696D65722049642025C2
:108B70006400455F6E6F74417661696C61626C651B
:108B80003A2054696D6572206E6F74206176616958
:108B90006C61626C6520256400455F63616E6E6F79
:108BA00074537570706F72743A2054696D657220D9
:108BB00063616E6E6F7420737570706F7274207263
:108BC000657175657374656420706572696F642082
:108BD000256400455F737461636B4F766572666CE4
:108BE0006F773A2049535220737461636B206F761C
:108BF0006572666C6F772E0072657175657374654A
:108C0000642073697A6520697320746F6F206269CC
:108C1000673A2068616E646C653D307825782C2059
:108C200073697A653D2575006F7574206F66206DD8
:108C3000656D6F72793A2068616E646C653D30785D
:108C400025782C2073697A653D257500455F707223
:108C5000696F726974793A20546872656164207032
:108C600072696F7269747920697320696E76616CBC
:108C70006964202564003C2D2D20636F6E7374722F
:108C80007563743A202570282725732729003C2D09
:108C90002D206372656174653A202570282725733D
:108CA0002729002D2D3E2064657374727563743A14
:108CB0002028257029002D2D3E2064656C65746583
:108CC0003A2028257029004552524F523A20252437
:108CD00046252453005741524E494E473A202524F9
:108CE00046252453002524462524530053746172DD
:108CF000743A202524530053746F703A202524536E
:108D0000005374617274496E7374616E63653A20C6
:108D10002524530053746F70496E7374616E6365DC
:108D20003A20252453004C575F64656C6179656473
:108D30003A2064656C61793A202564004C4D5F747B
:108D400069636B3A207469636B3A202564004C4D6B
:108D50005F626567696E3A20636C6B3A20307825F4
:108D6000782C2066756E633A2030782578004C4D5B
:108D70005F706F73743A206576656E743A20307850
:108D800025782C20637572724576656E74733A206F
:108D9000307825782C206576656E7449643A2030E9
:108DA000782578004C4D5F70656E643A2065766575
:108DB0006E743A20307825782C206375727245766F
:108DC000656E74733A20307825782C20616E644D7E
:108DD00061736B3A20307825782C206F724D617367
:108DE0006B3A20307825782C2074696D656F757426
:108DF0003A202564004C4D5F706F73743A207365A0
:108E00006D3A20307825782C20636F756E743A2087
:108E10002564004C4D5F70656E643A2073656D3A51
:108E200020307825782C20636F756E743A20256485
:108E30002C2074696D656F75743A202564004C4D63
:108E40005F626567696E3A207377693A20307825EA
:108E5000782C2066756E633A20307825782C207047
:108E600072655468726561643A202564004C445F01
:108E7000656E643A207377693A2030782578004C23
:108E80004D5F706F73743A207377693A203078259C
:108E9000782C2066756E633A20307825782C207007
:108EA00072693A202564004C4D5F7377697463687A
:108EB0003A206F6C6474736B3A20307825782C20DC
:108EC0006F6C6466756E633A20307825782C206E5E
:108ED000657774736B3A20307825782C206E65772F
:108EE00066756E633A2030782578004C4D5F736C60
:108EF0006565703A2074736B3A20307825782C20A1
:108F000066756E633A20307825782C2074696D651B
:108F10006F75743A202564004C445F726561647912
:108F20003A2074736B3A20307825782C2066756E61
:108F3000633A20307825782C207072693A202564B5
:108F4000004C445F626C6F636B3A2074736B3A2021
:108F5000307825782C2066756E633A203078257835
:108F6000004C4D5F7969656C643A2074736B3A20EC
:108F7000307825782C2066756E633A203078257815
:108F80002C20637572725468726561643A2025649E
:108F9000004C4D5F7365745072693A2074736B3A7C
:108FA00020307825782C2066756E633A203078253D
:108FB000782C206F6C645072693A2025642C206EE6
:108FC0006577507269202564004C445F6578697448
:108FD0003A2074736B3A20307825782C2066756EB1
:108FE000633A2030782578004C4D5F736574416694
:108FF00066696E6974793A2074736B3A203078250B
:10900000782C2066756E633A20307825782C206F96
:109010006C64436F72653A2025642C206F6C644148
:109020006666696E6974792025642C206E657741C7
:109030006666696E697479202564004C445F7363C9
:10904000686564756C653A20636F726549643A209F
:1090500025642C20776F726B466C61673A2025641B
:109060002C206375725365744C6F63616C3A2025D4
:10907000642C20637572536574583A2025642C2043
:109080006375724D61736B4C6F63616C3A2025643C
:10909000004C445F6E6F576F726B3A20636F72655E
:1090A00049643A2025642C206375725365744C6FB3
:1090B00063616C3A2025642C206375725365745883
:1090C0003A2025642C206375724D61736B4C6F637D
:1090D000616C3A202564004C4D5F626567696E3AA9
:1090E000206877693A20307825782C2066756E6381
:1090F0003A20307825782C2070726554687265614A
:10910000643A2025642C20696E744E756D3A2025D2
:10911000642C206972703A2030782578004C445FC6
:10912000656E643A206877693A2030782578004582
:1091300052524F523A204572726F72436F64653AD1
:1091400030782578004552524F523A204572726F5E
:1091500072436F64653A307825782E2025245300B9
:109160004857204552524F523A204572726F72430F
:109170006F64653A30782578004857204552524F41
:10918000523A204572726F72436F64653A307825A7
:10919000782E2025245300464154414C20455252FC
:1091A0004F523A204572726F72436F64653A30785D
:1091B000257800464154414C204552524F523A20A6
:1091C0004572726F72436F64653A307825782E204D
:1091D00025245300435249544943414C204552529F
:1091E0004F523A204572726F72436F64653A30781D
:1091F000257800435249544943414C204552524F2F
:10920000523A204572726F72436F64653A30782526
:10921000782E20252453004552524F523A2045784B
:1092200063657074696F6E206174202524462E007A
:109230004552524F523A20556E63617567687420EB
:10924000457863657074696F6E20617420252446CB
:109250002E004552524F523A204E756C6C20506F82
:10926000696E74657220457863657074696F6E20ED
:109270006174202524462E004552524F523A205503
:109280006E657870656374656420496E746572728A
:10929000757074206174202524462E004552524F6B
:1092A000523A204D656D6F72792041636365737327
:1092B000204661756C74206174202524462E205B45
:1092C000414452535D30782578004552524F523A0E
:1092D000205365637572697479204578636570748D
:1092E000696F6E206174202524462E004552524F2E
:1092F000523A204469766973696F6E206279207AE8
:1093000065726F206174202524462E004552524F0D
:10931000523A204F766572666C6F77206578636588
:109320007074696F6E206174202524462E004552AA
:10933000524F523A20496E646578206F7574206FE1
:10934000662072616E6765206174202524462E2098
:109350005B494E4445585D30782578004552524F60
:10936000523A20417474656D707420746F2061638B
:1093700063657373206665617475726520746861D6
:1093800074206973206E6F7420696D706C656D65F3
:109390006E746564206174202524462E0045525267
:1093A0004F523A20537461636B204F766572666C3E
:1093B0006F7720646574656374656420617420252B
:1093C00024462E004552524F523A20496C6C656734
:1093D000616C20496E737472756374696F6E206579
:1093E00078656375746564206174202524462E00B9
:1093F0004552524F523A20456E74727920506F692F
:109400006E74204E6F7420466F756E6420617420F8
:109410002524462E004552524F523A204D6F647516
:109420006C65206E6F7420666F756E6420617420A9
:109430002524462E205B4D4F44554C455F49445DE5
:10944000307825782E004552524F523A20466C6FA4
:109450006174696E6720506F696E74204572726F17
:1094600072206174202524462E004552524F523AF4
:1094700020496E76616C696420506172616D65741B
:109480006572206174202524462E205B5061726134
:109490006D4E756D5D2564205B506172616D566126
:1094A0006C75655D30782578005741524E494E47BE
:1094B0003A204576656E74436F64653A3078257856
:1094C000005741524E494E473A204576656E7443E7
:1094D0006F64653A307825782E2025245300494E54
:1094E000464F3A204576656E74436F64653A203086
:1094F00078257800494E464F3A204576656E74438C
:109500006F64653A307825782E2020252453004456
:10951000455441494C3A204576656E74436F646505
:109520003A307825780044455441494C3A204576F4
:10953000656E74436F64653A307825782E20202557
:1095400024530056414C55453D25642028417578EB
:10955000446174613D25642C20256429204B657984
:109560003A252453004C6F6767657253746F704DD2
:109570006F64652054657374007864632E0072759F
:109580006E74696D652E0041737365727400436F6C
:1095900072650044656661756C7473004469616747
:1095A00073004572726F720047617465004C6F679B
:1095B000004D61696E004D656D6F7279005265678F
:1095C00069737472790053746172747570005379A1
:1095D0007374656D0053797343616C6C6261636B86
:1095E000005379734D696E00546578740054696D49
:1095F000657374616D700054797065730074692EC1
:109600000073797362696F732E0042494F53007281
:109610006F6D2E00636F727465786D2E0063633218
:109620003678782E0063633236783276322E0043F5
:109630004332367878006B6E6C2E00436C6F636B30
:109640000049646C6500496E7472696E7369637376
:10965000004576656E74004D61696C626F780051EB
:10966000756575650053656D6170686F726500534F
:109670007769005461736B0066616D696C792E00C7
:1096800061726D2E006D332E0048776900496E744B
:1096900072696E73696373537570706F727400547E
:1096A00061736B537570706F727400426F6F7400EA
:1096B00054696D65720054696D657374616D7050A5
:1096C000726F76696465720068616C2E00756961FD
:1096D0002E006576656E74732E004476745479702E
:1096E000657300554941457272005549414576748C
:1096F000004576656E744864720051756575654401
:10970000657363726970746F72005549414D657479
:1097100061446174610068656170732E0048656121
:10972000704D656D0048656170547261636B0048EF
:1097300065617043616C6C6261636B006761746545
:10974000732E004761746548776900476174654D01
:109750007574657850726900476174654D757465FC
:1097600078006C6F67676572732E004C6F67676572
:109770007253746F704D6F64650074692E737973E2
:1097800062696F732E6B6E6C2E5461736B2E49641D
:109790006C655461736B004D61696E204C6F676737
:1097A00065720053595342494F532053797374657E
:1097B0006D204C6F676765720000000000000000BC
:1097C000511D561D01805F1D0180661D01806B1DAE
:1097D0000180741D01807A1D0180801D0180851D1E
:1097E0000180891D01808E1D0180951D01809E1DB7
:1097F0000180A61D0180AD1D0180B91D0180C01D25
:109800000180C51D0180CF1DD51DD91D1380E21D0E
:109810001380E71D1580EC1D1680F51D1780FD1DBA
:109820001880071E13800E1E1A80131E1A80191E20
:109830001A801E1E1A80291E1A802F1E1A80371E9B
:109840001A803D1E1A80471E1A804B1E1380501E20
:109850002480581E25805D1E2680611E2680651E80
:109860002680771E2580F51D2A80831E2A80881E6B
:109870002A808E1E1380A01E2E80611ED51DA51E5F
:109880003080AA1E3180B21E3180BB1E3180C21EC4
:109890003080561D3580C91E3580D21E3580E21EAF
:1098A0001380EE1E3980F51E3980FD1E3980071F9A
:1098B0001380141F3D801B1F3D80231F3D80301FE0
:1098C00030803A1F4180431FBC9703001C160020C4
:1098D0000F0900006B30040011B4030011B4030041
:1098E00011B4030011B4030075360400933604006C
:1098F00011B40300AD360400DD360400E336040085
:109900008D38040011B403009D3904007D32040039
:10991000E93604000937040091370400153A0400C1
:1099200011B40300413B040011B4030011B403005F
:10993000E93204004B36040011B403002DC00400CA
:109940004BBF040087C0040039BF040059BF0400A6
:10995000F3C10400F7C10400F5C2040051C20400C1
:1099600053C3040031C2040043C2040075C40400A0
:1099700079C40400098904001589040025EA02104D
:1099800061DB02100205000308100A00DC3700202A
:10999000E03700203A010000000000000000000055
:1099A00010140020D811002000000000000000006A
:1099B00000000000D4980300009B03003C990300C2
:1099C000209B03007C99030000000000E437002086
:1099D000000000006C160020B4160020C016002005
:1099E000D0160020CC98030000000000000000000A
:1099F00010000000000000000097B92EE5725CCB5B
:109A00005DCAE473B82F0196BA2D03945FC8E6715E
:109A1000E7705EC90295BB2CE3745ACD0691BF284E
:109A2000BE2907905BCCE27559CEE077BC2B05923E
:109A30000493BD2AE17658CF51C6E87FB4230D9A2E
:109A40000C9BB522E97E50C7EB7C52C50E99B7201E
:109A5000B6210F9853C4EA7DB2250B9C57C0EE790E
:109A6000EF7856C10A9DB324089FB126ED7A54C3FE
:109A700055C2EC7BB027099EA2351B8C47D0FE69EE
:109A8000FF6846D11A8DA334188FA136FD6A44D3DE
:109A900045D2FC6BA037198E41D6F86FA4331D8ACE
:109AA0001C8BA532F96E40D7FB6C42D51E89A730BE
:109AB000A6311F8843D4FA6DF3644ADD1681AF38AE
:109AC000AE3917804BDCF26549DEF067AC3B15829E
:109AD0001483AD3AF16648DF1087A93EF5624CDB8E
:109AE0004DDAF463A83F1186AA3D13844FD8F6617E
:109AF000F7604ED91285AB3C02000000CEDE0300B9
:109B0000D1D70400E3D7040015D404003BD80400E7
:109B100025D4040031D4040093D804004DD90400A6
:109B2000F1860400837E0400E1870400CD870400F1
:109B30002FBC0300C9BB0300CDBC030011BD030053
:109B400031BD030063BB0300E3BC030075BC03002D
:109B5000BDBD0300BBBB0300E7BD0300DBBD0300CD
:109B6000C9BD030027BC030029BC030001C00300DA
:109B70002DBC03002BBC03004D650400556504009B
:109B80005B650400836504009B650400DD650400DB
:109B9000EF65040053660400956604009D660400AA
:109BA00000000000000000B000405104C0FF00F0C1
:109BB00000000000000000B000405104C1FF00F0B0
:109BC00000000000000000B000405104C2FF00F09F
:109BD00000000000000000B000405104C5FF00F08C
:109BE00010000000A09B0300496D67204964656E6A
:109BF0007469667900000000496D6720426C6F63EC
:109C00006B0000004F414420457874656E646564C4
:109C100020436F6E74726F6C000000004F4144204F
:109C20004E564D3100000000000000000000000012
:109C30000000000000000000000000000000000024
:109C40000000000000000000000000000000000014
:109C50000000000000000000000000000000000004
:109C600000000000000000000000000000000000F4
:109C700000000000000000000000000000000000E4
:109C800000000000000000000000000000000000D4
:109C900000000000000000000000000000000000C4
:109CA00000000000000000000000000079FF040038
:109CB000F9FE04008D0B0500B9A101100DCF0110B4
:109CC000817E01102D2302108DC60400C9E6040018
:109CD000E1C404000E46002011460020104600207A
:109CE000124600200F46002078AC0300E843002015
:109CF000341D002005460020064600207E1D002061
:109D00007F1D0020BCDF0300C0DF0300E0DF030095
:109D1000C8DF0300C4DF0300594A0500AFEB0400AD
:109D200021D0040025D00400DD6904008D7F0400EB
:109D300075B804007D79040051DD0400ED6904006C
:109D400091830400C18304002585040005C5040037
:109D5000017D0400D92805002D4A0500379904002B
:109D60007F960400B580040045BB040081F4040024
:109D700059290500D9C5040005810400EB910400B0
:109D80004943050051460500150C05008DB204003D
:109D9000CDB1040015BB0400A5C003005179040037
:109DA000D56A02102D920110A1F101104D0A021086
:109DB000495E02102DFF040049AA0110D52A0210A5
:109DC00075D4011039FF0400794B0110154B0210B6
:109DD000051502107BD00400217A0110514D0210AC
:109DE000F5E20110250D0500010A021045FF0400EF
:109DF000A523021081CF011045FB0110994B0210E1
:109E000095510210C537021091370210590D050007
:109E1000A10E02102D380210796E0210816E021010
:109E2000756E02105D4502107D6E02102553021002
:109E300061590210AD520210FD520210D5520210AB
:109E4000895E021019550110A5D60110057F040086
:109E5000756D02102D690210493F021099C501105D
:109E6000A5EF04006DF004009DC40010057F040000
:109E7000057F0400F9EF0400FD0A0500D9CA0110AE
:109E8000ED26021021A10110716F0110055502107D
:109E9000E13E0210D96D011061500110F11702105E
:109EA000057F0400ED7F011075660210250905008D
:109EB0007D4D0210057F0400057F0400910D050013
:109EC00059E30110659A011065A70110D9AA011084
:109ED00039BF011011F30110515C0110155A021025
:109EE000057F0400057F040005560110156B021064
:109EF000C1130500DD540210056B0210AD460210BF
:109F0000FD4702103D2D0210F15902106527021085
:109F1000CD470210310F02100D460500E9DA01109D
:109F2000F9B0011021DE011069B60110E9C9011074
:109F3000B5F20110790F0210295F0210418A011059
:109F400085EC01102D540110292702104905050048
:109F500091BB0400057F0400057F0400057F040019
:109F600095040210D131011045ED0110C5EB04003C
:109F7000057F0400057F0400057F0400D53C011027
:109F8000B55402106508050061CA011091FD011069
:109F90003DFD01107DBA040071BE0400E1BE040065
:109FA000ED66021055690210A15B0210ADFE0400BF
:109FB000F17E04003D2F0210696002102D4E021048
:109FC000956E0210996E02105D5A0210E5F60110AE
:109FD000E52D0210057F0400057F0400057F0400C5
:109FE000A96E0210ED8A0110AD6E0210A56E02106E
:109FF000057F0400057F0400057F04005D48021012
:10A00000395A0210B16E0210014E0210E9FC011023
:10A0100045F10110A55A0210AD170210A16E0210F1
:10A020008DA80110256B02108D6602109D6E021026
:10A03000450B0500815A0210E56B021081A3011047
:10A0400055550210A127021059510110B9110210E3
:10A05000F55502100112021039D20110DD4E021026
:10A06000BD620210DD490210459C0110EDF70110A0
:10A07000517F0400616C021051340210656E0210B1
:10A08000696E0210DD4302106D6B01102D48021045
:10A09000C10F0210F9A701108DF6011089DE011021
:10A0A000696202107D430210511B0210BD1802109C
:10A0B000F10C0210816D0210059B0110E1100210DD
:10A0C00015C60110B94505001D6201106D4505005A
:10A0D00029440110B1E501101D2805008127050064
:10A0E000A11A0110C13B0110418E01101969021023
:10A0F000E5EC0110752D0210290A0500B90A0500CA
:10A10000559F0110E50A0210752F0210B9CC0110FD
:10A11000B14E0210310B021055DB0110CDB401100D
:10A120006DF301100D680210DD6702100567021063
:10A130002911021019400210D11F0210AD2F021078
:10A14000854E0210C9B80400B9F4040061D80110AA
:10A150008D5A011051FD0010199401108D2E02101E
:10A16000AD49021089AC0110C55B0210DDD00110B1
:10A17000B9B00400892F011061F30400C52E02104C
:10A1800085620210C95F0210B9AE040029E0011017
:10A19000D11705001928021079180210351802107D
:10A1A00039C00110ED480210416902107D550210BE
:10A1B000ED6D0210CD550210695F02107D1D01107A
:10A1C000057F0400C9110500057F0400490E050044
:10A1D00049AB0400D5AE0400B9C00110E503050089
:10A1E000E53F0210BDAF04004DFC0400894202109F
:10A1F0007DAC04003DAB0400E95F02109D17050033
:10A20000057F0400856B0210A5ED01104DE50110DE
:10A2100081010210A95F0210DD2702102142021005
:10A22000BD480210E5040210656B0210F907050035
:10A23000791A05001D49021055420210D566021018
:10A240002DE2011099F70400A5660210511F0210BB
:10A25000CD19021025930010F9AB01100D9A0010D2
:10A26000191D050029B30110A55502100D070500A1
:10A27000A10405004D1B0500617F0400C9AF040067
:10A280008DFC040051CB011095F7011005EE011073
:10A29000A91C050021E40110057F0400AD43021054
:10A2A000057F0400117D0110C97D0110A95901101D
:10A2B0002D77011055810110F5F7040079F50400A0
:10A2C000ED6801101568011099D900102DF90010E2
:10A2D00099BA0110B9BF0110057F04001D340210A6
:10A2E000057F0400A1220500E9E40110C9CB01109B
:10A2F000557C011091E00110F9E001101D1A0500D4
:10A300003505021051D10110057F0400C1EE011086
:10A310005110021085E4011041CC0110C1DF011081
:10A320009DB201107D850110F1B60110B13F021000
:10A330009DAF0400416E02101DC5011041B4011013
:10A3400001190210B5B3011021A90110CD8401102B
:10A3500025EC01103907011069D001105D6602106B
:10A360003D540210911E021045660210CD59021094
:10A370008D540210952C021065540210B9FE040091
:10A38000516D0210D54D021015540210D12002104B
:10A39000A5310210C56B0210C95E021069AB011035
:10A3A000E95E0210A93D0210396D021085590210B4
:10A3B000211302107D5B021045290210DD460210B8
:10A3C00085B1011025170210DD6802104504021046
:10A3D00035D60110C5EB0110D56B0210A94D021046
:10A3E00005690210D5630110B99E0110113E0210DB
:10A3F000B12602105D2C02106D470210F56A0210A2
:10A4000035F60110A1C40110A5EA01105916021079
:10A4100025C4011095670210F1680210FDF10110CA
:10A4200079070110F9220110D192011015BA01101B
:10A4300051A20110DDF50110EDFB01101D8401108A
:10A44000A95902104D620210ED5302103D4702104F
:10A450009D160210E1160210DD3D021065EB0110A1
:10A46000111E021075930110FD650210511E02109D
:10A47000A12101106913021059F20110595B021059
:10A48000990A021031470110355B0210156602105F
:10A4900031480110793E0210F5CF011011DA011098
:10A4A0003D670110453E0210E9A20110DD310210A6
:10A4B00005EB01102D66021065670210A56B0210F6
:10A4C000196E0210B9630210E169021019610210DD
:10A4D000596E0210556A0210456A02105D6E021034
:10A4E000556E0210F5D70110E9330210E95C021035
:10A4F000111A021045510210C95C0210E1600210ED
:10A500004D210210511A0210695C0210610C0210F8
:10A510004D4302104D3302101933021049600210EE
:10A520007D640210CD690210ED5A0210250602105A
:10A53000AD570210C1DB01101D430210115B021068
:10A54000F5130210295D0210AD640210ED500210E7
:10A5500015320210E5320210A95C02107D320210A1
:10A56000ED420210D11A0210BD420210911A0210DF
:10A5700089210210B1320210895C021049320210A6
:10A58000316C0210256C0210F529021065EE0110E5
:10A59000C560021065730110111B02105D370210B7
:10A5A0006DB00110295E0210C90D021005D4011012
:10A5B000BD820110819D0110F9C801103D590210A2
:10A5C000C161021055650210C1C7040065C90400CD
:10A5D0005D46050085980110A5030210D1580210B0
:10A5E000990C01103D4402109D440210DD610210DF
:10A5F0009DFA0110F5360210D9A50110E1B5011040
:10A600006D6E0210716E021059360210252D011068
:10A61000F50302108D360210F1460500B9BD011098
:10A62000657901106D65021081470500134705002B
:10A63000216D0210156D0210F9610210E94A021035
:10A640002599011029370210F5580210F50F011055
:10A6500015620210E95D0210856502101959021099
:10A66000095E0210A56102101134011045A5011008
:10A670000DB9011039D901102149050051DD011032
:10A68000B1C201109D720110958901108DF0011069
:10A6900055AF011085F50110C114021069090210AF
:10A6A000CDD8011089A0011085080210D108021030
:10A6B0001D090210253602103DA60110FDCE040032
:10A6C000A9CE0400D1A60110E5650210CD44021008
:10A6D0009D6502100D6D011071C7040071C9011054
:10A6E000111C011065660110F5C90400998D011057
:10A6F0000DC8040005CC040049240110F18C0110A0
:10A7000079CD0400E9CD040089430500C599011005
:10A71000911B0210EDE90400C5210210316E0210F8
:10A7200021BD0110D11B02106D610210C56A02101B
:10A73000B9C1011005E8011025E901103914021012
:10A74000ED340210D95701107D440500B515050000
:10A75000E5E90110111D021055030210994805008A
:10A76000B56C02109D6C0210A96C0210396E0210BB
:10A77000496E02102135021025F40110A1BB011011
:10A78000B5470500895D0210D5710110654A0210B8
:10A79000390D02107D38011095D3011089910110F7
:10A7A00035C201103D220210C16C0210CD6C0210A6
:10A7B000050302105507021021BC0110BD0602104E
:10A7C00009070210394A02102143011099CE0110E5
:10A7D00065E80110AD580210A5E70110756A021076
:10A7E000956A0210856A0210A56A0210F5640210CB
:10A7F000893502106148050031150500A1BC011022
:10A8000011480500E5140500B16401108D14050020
:10A810000D410110DD8601100140011005C8011035
:10A820004D40021085D70110F5F80110E52B0110FD
:10A830009DF80110097101101D670210F5620210E8
:10A8400081290210D962021069690210B540021014
:10A8500081400210150C021079480110A514011056
:10A86000754C011035090110592E0110714D011060
:10A8700089FF0110256802107D6902104519021038
:10A88000354F02108500021089C701108D87011015
:10A89000794901101D300210458C0110DDFF0110B7
:10A8A000553002106195011045560210112002101A
:10A8B000C90B02101DBB011011630210E940021008
:10A8C0002D630210FD30021049630210F1320110B5
:10A8D000F15E011061E10110A56D021009F7001091
:10A8E0008D300210C5300210094F0210CD28021021
:10A8F000D5050210DDE60110296002109128021032
:10A90000512002103100021049360110911202103C
:10A910006D4E0110A9CD0110D900021041E70110C0
:10A92000D912021021CE011019A4011001B8011092
:10A93000ED2A0500A52A0110BD2A050045F80110E1
:10A94000B94F021011500210E54F0210854102105C
:10A95000614F02109550021035670210092902104C
:10A960008D4F021081630210098201109D63021055
:10A970003557021069500210BD5602103D500210AA
:10A98000E5560210A5690210B94102106D56021079
:10A99000C95A021089600210353102101D5602108A
:10A9A00095560210C15801105D5702100D57021044
:10A9B000C9F30110212B0500998B0110ADD20110B4
:10A9C000E52F0210057F0400E5FD011021D30110E1
:10A9D0004912021079E6011039FE011039C1011047
:10A9E0000DC7011045FB0010794A0110B1F20010AB
:10A9F00061600110BD290500996D02107D0B0210E8
:10AA0000115E011085E901107D140210810D021004
:10AA10003D8801102D2A0210ED7701108D6501107F
:10AA200069DC0010D5160500914A021031F00110C2
:10AA3000A95D02106529011055350210012202108E
:10AA4000694F0110B934021065020210695D0210ED
:10AA50000000000000C20100FFFFFFFF5839002086
:10AA60008000000090B30300D839002050AA0300F2
:10AA7000E43900209E040500FC3900209F040500F5
:10AA8000143A0020023B05006C3A0020033B05000D
:10AA9000843A00202E3B0500002003000040000007
:10AAA0000000000000A00200789B0300F445002095
:10AAB00098AA0300789B0300F5450020A0AA030094
:10AAC0000D04C0800C4000800F2000800E2000800C
:10AAD00006048080070480801C0000801D00008028
:10AAE0001E000080FE000000FF00000000000000CB
:10AAF0000000000061CF03000DC903000101010047
:10AB000000000000FF000100C1E203000700000098
:10AB1000FF0000000000000080A90300B83A0020F8
:10AB200010AB030000B0004014000000340000002F
:10AB3000FF000000000000000D0CFFFFEC3C0020B7
:10AB4000200000000103000000000000B0B303007B
:10AB5000383B002024AB03001C0880801D08808047
:10AB60001E088080FE0000007B7374617469632D91
:10AB7000696E7374616E63652D6E616D657D000035
:10AB80007B656D7074792D696E7374616E63652D6C
:10AB90006E616D657D00000096C298D84539A1F4BC
:10ABA000A033EB2D817D0377F240A463E5E6BCF88A
:10ABB00047422CE1F2D1176BF551BF376840B6CB55
:10ABC000CE5E316B5733CE2B169E0F7C4AEBE78E51
:10ABD0009B7F1AFEE242E34FFFFFFFFFFFFFFFFFF5
:10ABE000FFFFFFFF00000000000000000000000069
:10ABF00001000000FFFFFFFFFCFFFFFFFFFFFFFF63
:10AC0000FFFFFFFF00000000000000000000000048
:10AC100001000000FFFFFFFF4B60D2273E3CCE3B10
:10AC2000F6B053CCB0061D65BC86987655BDEBB327
:10AC3000E7933AAAD835C65A512563FCC2CAB9F37C
:10AC4000849E17A7ADFAE6BCFFFFFFFFFFFFFFFFE3
:10AC500000000000FFFFFFFFDF0D04007F0E040077
:10AC60000061620060AC0300010000000000D0023F
:10AC7000EC0000215F000000000000000000000068
:10AC800070AC03006CAC0300000000001E40040028
:10AC900008620400966404008A7F0400D2800400E5
:10ACA000773B0500DA42050074AC0300DE83040044
:10ACB000428504004819002002000000B8DF0300AC
:10ACC00000000000B7430500000000006572726FCD
:10ACD00072207B69643A307825782C206172677322
:10ACE0003A5B307825782C20307825785D7D00001F
:10ACF0007864632E72756E74696D652E4572726F1D
:10AD0000722E72616973653A207465726D696E6145
:10AD100074696E6720657865637574696F6E0A0083
:10AD200030313233343536373839616263646566C1
:10AD3000000000008F0000008F0001008F00020063
:10AD40008F000300900000018F00010190000002BD
:10AD5000900000038F0001048F0000058F0008049D
:10AD60008F0000048A000006510000007F000100EF
:10AD70003F0004003F0002003F0001007F0002008E
:10AD80008F0002048F00010202000000000000009A
:10AD9000FFFFFFFF0000000002000000B4DF03001F
:10ADA00081440500A9ED0400000000000C08021712
:10ADB0000D01010209090101060209181803010128
:10ADC0000909030305030201000000000000000060
:10ADD000FFFFFFFF00000000000000000000000077
:10ADE0000000000000000000000000000000000063
:10ADF000FFFFFFFF00000000000000000000000057
:10AE00000000000000000000B91A0500FF0000006B
:10AE1000000000000000000000000000FFFFFFFF36
:10AE20000000000000000000000000000000000022
:10AE3000000000000000000000000000FFFFFFFF16
:10AE40000000000000000000000000000000000002
:10AE500000000000F94300217940002195400021C5
:10AE60006D440021A9440021C5400021D1400021AA
:10AE7000DD400021F94000215345002145410021DA
:10AE8000DB0705D000F003F80249087070BD70B50B
:10AE9000014D2847E00400211D240200074C65797C
:10AEA00000F009F861796940490703D50121044A96
:10AEB0008903116070BD70B5024908478003002105
:10AEC000081104402D59000070B5004700F018FA31
:10AED00000480047577F000000F018FA004800477C
:10AEE0001B8800000599880A802805D113498878B5
:10AEF0008007800F00F022FA00480047D96E00005A
:10AF00000FB41048C188002902D0104600F016FA8C
:10AF1000079B9B0A084D832B08D1084C23899B066D
:10AF200004D500F005F8002800D042350FBC2847B2
:10AF300070B50548004700001F0B020060010021AA
:10AF40001F0B020080030021EB0902000848094A98
:10AF500003689A420AD108480289084BD21A01D0E4
:10AF6000012A03D1406E064988470399054B1847CB
:10AF7000A8020021BD030200600100212118000089
:10AF8000F1350000BD06000070B51F4D2878C4B231
:10AF90001E4880472878032834D1032C32D01C481F
:10AFA0008068400DC2071A48014660318030002A8F
:10AFB00003D01F240C57458802E01E240C57058837
:10AFC000002C1FD01348154A4169007941434810AD
:10AFD00011494969401810494039497F9047400557
:10AFE0004015694288420DDBA8420BDC0C4B996985
:10AFF00088B20246090C624309045212801880B2DA
:10B000000843986170BD0000E4020021794100000E
:10B01000280000218003002100030021CB810000D3
:10B020004040044010B5864C21464031087D01283F
:10B0300034D18448C07D4008C0072FD020466030FE
:10B0400042795208D20729D04089800B012825D1A6
:10B05000087E4109C9070CD0A16F00070988C00FFD
:10B060004002090408436066A06F801C00F080F96C
:10B0700013E0744820308069406800280ED0724A7E
:10B0800000230178D356591A08D4C900081841780A
:10B09000C90703D0016861664068A0666B488047B5
:10B0A00010BDF8B5664C6A4926462036707B2546A9
:10B0B000403500902F79B8004018806880470028FC
:10B0C00028D16049C97D0909C90723D022466432C5
:10B0D000152F20D0297E00234F09FF0703D06D7D57
:10B0E000002D00D00123009FA56FBB4312D0737BBE
:10B0F000002B0FD0237D5B060CD5D288920B012A42
:10B1000008D1C908C90705D0A988890B012901D12F
:10B1100000217173F8BDAB7EE97D012BE3D00023E4
:10B12000E1E770B5464C2546606A803500281DD1A0
:10B130005420005D0022002817D06420005D8008A4
:10B14000C00712D0A9688888800B01280DD13D481E
:10B15000C07D4008C00708D03A48203080690068A8
:10B16000002802D02962A86000E02A62394880479E
:10B17000616A002903D1296A002900D0A96070BD45
:10B18000F8B52F4C344920464030027D002A2FD09C
:10B19000807E25468035032802D0042803D027E08E
:10B1A0000120E87524E06420005D8008C0071FD0FE
:10B1B000A8688088800B01281AD12248EA7DC07DCA
:10B1C000002A13D0C008C00712D026462036777B4D
:10B1D00088470146394308D1217D090605D569888C
:10B1E000890B012901D100217173F8BD8008EAE7BC
:10B1F0008847F8BD124880300021C17517480047C4
:10B200000F4940310871262814D006DC152813D0C8
:10B210001B280BD01F2804D10AE03D280ED0472858
:10B220000AD00B4980004018806870470C4870476E
:10B230000C4870470C4870470C4870470C487047E2
:10B2400060010021C8000021E004002159490200EA
:10B25000005502008F3D020075300200152A0200E1
:10B26000ED430021794300211B4300219B42002133
:10B270001D42002110B50C4988470C4A0621515E39
:10B28000002907D0022905D0092903D0102901D0AF
:10B29000112907D17721C943884201DD002801DD4A
:10B2A0007F20C04310BD0000A9650000800300217D
:10B2B00010B51048C1881048052918D00F4C2168D6
:10B2C0004A0852002260A26B52085200A263216019
:10B2D000FFF7FAFDA06B000708D401202060606032
:10B2E0000020401C0C28FCDB1420206210BDFFF75E
:10B2F000EBFD10BD800300213F5B000000600440B7
:10B30000806B0C490007000F48717047094A0A49D1
:10B3100018235079CB56497EC018814201DD08467A
:10B3200002E00F2800DD0F20D1890909090101433E
:10B33000D1817047E0020021880000210849C979C5
:10B34000CA08D20708D0C1400648C90701D006493B
:10B3500000E00649491CC1607047002070470000AA
:10B36000E8000021280000218801000050010000B1
:10B37000820881079200C90E0CCAC078CA404942AF
:10B3800020318B401A431102090A00060843704716
:10B39000412B0500452B0500C52B0500ED2B0500B5
:10B3A000812C0500192D0500312D0500372D0500D4
:10B3B0008F34050017350500973205009F320500D0
:10B3C00035370500C1380500C73805007935050057
:10B3D0007F3605008536050000000000FFFFFFFFF7
:10B3E000FFFFFFFF0000000000000000010101015D
:10B3F00000C2010003000000000000000102000381
:10B400000200010301490860704700001812002083
:10B4100081B001208DF800009DF800000028FBD1CC
:10B4200001B0704770473F80DFF800F0E56A021016
:10B430002DE9FC41040000F0B0802668F0788DF81A
:10B440000000684631798DF80110FFF7EDFFB06814
:10B4500008B154490160F06808B153490160534F85
:10B460003078387007F13C0571785148797002885E
:10B4700050490A8070792870B1796970A0680178A4
:10B48000F970A06890F820102977A0684168796069
:10B490008268BA60C168F96002693A61C169A961EC
:10B4A00082696A61416A29624069007900EB400063
:10B4B00080B200F0B8FB8046062000F0B4FBB8F183
:10B4C000000F18BF002824D000223B490FE002EBF8
:10B4D000820C02EB420311F80CE008F803E043444D
:10B4E00001EB0C0E521CDEF801C0A3F801C0A368EA
:10B4F000D3F814C09CF804309A42E8DBC0F800800E
:10B50000A1684A6911790171A26851694A79427149
:10B51000786160680168B9613269FA62716939639A
:10B52000B2697A63F169B963326A6A60806810B996
:10B5300000F0B8FD00E038626068C06810B900F043
:10B54000B1FD00E078626068006910B900F0AAFD02
:10B5500000E0B8626068406810B900F0A3FD00E048
:10B56000F8613069F862716AA960B06AE860F16AEE
:10B5700029610121E0688268106800F095FDE068AB
:10B58000C06810B900F08EFD01E00C490860E06869
:10B590004168006800F096FD01E000F083FDBDE821
:10B5A000F38100BF0143050037430500481900201F
:10B5B000681D00206A1D00201C160020383700205E
:10B5C000DFF800F009EC0210DFF800F025EA0210C5
:10B5D000DFF800F055EB0210DFF800F047EC021046
:10B5E000DFF800F061DB0210DFF800F0B5DE0210DA
:10B5F000DFF800F04DEA0210DFF800F029D5021064
:10B60000DFF800F045DF0210DFF800F0F5EA021085
:10B61000DFF800F095EA0210DFF800F0A5C0021094
:10B62000DFF800F0B3CF0210DFF800F011DC0210F9
:10B63000DFF800F09DEB0210DFF800F025DB0210D0
:10B64000DFF800F0C5E20210DFF800F0C3EC0210F2
:10B65000DFF800F0E7E9021020B108233C220021C6
:10B66000FFF7AEBF704780B5FFF7AEFFADF8000043
:10B67000FFF7AEFFADF80200009802BD01B5BDF8BE
:10B680000200FFF7A9FFBDF80000BDE80240FFF788
:10B69000A7BF38B5DFF8D049207801282DD0DFF8D2
:10B6A000CC09DFF8CC2980088000121AA2610121A0
:10B6B0002170024602E0002342F8043BA3691D18F2
:10B6C000AA42F8D39B0800EB8302002142F8041C35
:10B6D000E8230360A16989088900EC39C0F8E81003
:10B6E000606100F1E801A160002000F007F8E0606F
:10B6F000A1696069A060091F216131BDF8B500260C
:10B700000027051D15F003001CBF291D0D1AFFF7AA
:10B71000AAFFDFF85429112D34BF9468D46801467C
:10B720002068002803D580F0004000271AE03B0085
:10B7300014D03368D4F800C06344AB42336011D3F3
:10B7400034461846ECB1401B042811D3605145F033
:10B750000040206013695D1B156111E0A842F1D221
:10B7600001272646044420680028DAD1002408E096
:10B77000136920681B1A1361256845F00045256090
:10B78000241D516000F0C5FB2046F2BD10B50446F3
:10B79000FFF769FF54F8042CDFF8CC1822F00042C0
:10B7A00044F8042C0B69D2180A61221F8B689A4254
:10B7B00038BF8A604860BDE810405FE72DE9F0417E
:10B7C000FFF751FFDFF8A028D368002400250026EA
:10B7D000002709E00E4601251C4604E011D581F042
:10B7E0000041002547460B441968B046BE4238BFA9
:10B7F000B8460029F2D15060FFF740FF4046BDE84F
:10B80000F081002DE6D0D4F800C08C44C4F800C00C
:10B810008E19E8E710B50446DFF84C08816921600D
:10B8200000696060FFF7CAFFA06009282CBF0838D4
:10B830000020A06010BDDFF830180A69121A40F22B
:10B840002D139A4228BFFFF759BF0020704780B5DB
:10B85000FFF71FFF4BF6BE2002BD08464EE7084625
:10B8600094E702B56846FFF7D5FF01BD0120704798
:10B8700038B50446FFF7F7FE00220C23DFF8F41773
:10B880005343CD18A96C21B18C4206D0521C032A17
:10B89000F3D3FFF7F3FE002032BDFFF7EFFE05F113
:10B8A000480032BD70B50546FFF7DDFE04460021B5
:10B8B0000C22DFF8C0074A438618B06C48B18542B5
:10B8C00010D0491C0329F3D32046FFF7D7FE0020F0
:10B8D00070BD3065B5640021FFF786FEF06408B9DD
:10B8E00000F0FEFB2046FFF7C9FE06F1480070BDE0
:10B8F00038B50446FFF7B7FE0025DFF878270C219E
:10B900006943515A21B18C4206D06D1C062DF6D3E5
:10B91000FFF7B4FEFF2032BD1CE310B504462088BB
:10B92000FFF7E6FFFF2802D14FF0FF3010BD0C21DA
:10B93000DFF8402748431044816811B96FF00100D7
:10B9400010BD2046BDE81040084702460FF248707F
:10B95000104738B500200C21DFF8182700240025F7
:10B9600001FB00F31344401C03289C641D65F7D3BE
:10B970000020002301FB00F4401C13530628F9D3D8
:10B98000BDE8314085E62DE9F8478FB00646894687
:10B99000FFF72EFE80460027DFF8DC5603E0504616
:10B9A000FFF76CFE7F1C4F451DD26846FFF754FE23
:10B9B00006EB07114A6806928A68089200220B6813
:10B9C0000493C868059069462846FFF715FE0400F1
:10B9D00007D0FFF748FE82462046FFF763FF0028A6
:10B9E000DDD100F07DFB4046FFF70AFE10B0BDE858
:10B9F000F087F8B56846052141604FF480528260B7
:10BA0000DFF87816DFF878260091C2600121FFF791
:10BA1000BAFF05B000BD38B504460D46FFF723FE5A
:10BA2000002145F80C1C226812B9256006E00A4680
:10BA300052F80C1C0029FAD142F80C5CBDE83240E7
:10BA40001CE680B5FFF7E0FDFFF712FF10B96FF0BD
:10BA5000040002BD816809B9022002BD4068ADE062
:10BA600006280ADA0C22DFF80C365043185A002850
:10BA70001CBF4FF6F872904202D14FF0FF30704772
:10BA800008800020704730B5DFF8F8552A680C466A
:10BA90004FF47A71A1FB0001002300F025FB00297F
:10BAA00002D8B0F1004F02D36FF0020030BD206029
:10BAB000002030BD0146886849680847F8B505464A
:10BAC0000E46FFF7A1FDFFF7EDFE04000DD0FFF7D6
:10BAD000CAFD014600220C27DFF8983557433B4446
:10BAE000188820B1521C062AF5D300F0F9FA4FF657
:10BAF000F870002718805C609F602A7000F007FAD9
:10BB00000020F2BD0C3841E670B5044615461E46CD
:10BB10000846FFF7EDFE0146FF2902D14FF0FF3046
:10BB200070BD33462A462046BDE870407FE07CB5B4
:10BB30000546164600F09EF8040010D12888694694
:10BB4000C0B2FFF78DFF28B13068FFF7DBFF6FF061
:10BB5000050076BDBDF800002880FFF772FF204683
:10BB600076BD38B50546FFF74FFDFFF781FE044669
:10BB7000FFF74EFD002818BF012800D014B96FF060
:10BB8000040032BD65B900200090009B60684FF052
:10BB900000420021FFF740FD401E8041C00F32BD32
:10BBA00015F1010F08BF4FF0FF30EDD06946284670
:10BBB000FFF769FF0028E8D032BD80B54FF00041A3
:10BBC000FFF72EFD002002BD2DE9F843054689460A
:10BBD00017461E46FFF718FDFFF764FE04006FF0DE
:10BBE000020802D14046BDE8F283FFF73CFD014662
:10BBF00000220C23DFF87C0453430344188830B13F
:10BC000085420DD0521C062AF3D300F069FA1D803C
:10BC10005C60C3F808903A7000F079F90020E2E720
:10BC200000F077F9DEE769E5B0E504E6F2E52DE935
:10BC3000F8430D462F46062FBCBF0446062816467D
:10BC400099466FF0020806DAFFF70DFD00F005FADD
:10BC500019B9FFF713FD40460AE0FFF70FFD00F0AA
:10BC6000F2F9786840684FF00041FFF7D9FC0020F6
:10BC7000BDE8F2832DE9F04106460F469046FFF7F6
:10BC8000C3FCFFF7F5FD050008BF6FF004001BD0F3
:10BC9000FFF7E9FCA968002441B10C46A4F10C01AE
:10BCA00000230A68AA60FF250B608D72FFF7E6FC8F
:10BCB0000CB9022008E0A4F10C0001793170407940
:10BCC0003870C8F800400020BDE8F08182B0012043
:10BCD0008DF800009DF800000028FBD100F000FA6C
:10BCE00000BFFFF7A1BC00B5DFF8982313686FF021
:10BCF0000040A0FB03014FF47A72002300F0F4F936
:10BD0000002902D8B0F1004F01D36FF0004000BD10
:10BD10007CB50C4615461E466946FFF7B4FE30B9A1
:10BD2000009833462A46214600F002F8002076BDEE
:10BD30002DE9F0431D4689B02C6880460E46174613
:10BD40002CBB0C20FFF7DAFC04006FF0030918D0BD
:10BD50000823242200216846FFF76AFC0020ADF882
:10BD600010000590069400236A464146DFF8180348
:10BD7000FFF762FC206030B9FFF7A8FF2046FFF70D
:10BD800005FD484617E06660A7602C600BE0DFF811
:10BD9000FC623068804705462068FFF751FCA760C9
:10BDA00028467168884720684146FFF74DFC2068A7
:10BDB000FFF74EFC002009B0BDE8F08300281CBF4F
:10BDC0000068FFF73DBC7047E0B58DF80400684699
:10BDD00000F03AFA9DF805000EBDE0B50190684606
:10BDE00000F068FA0EBDE0B50190684600F06CFA0C
:10BDF0000EBD2DE9F84384B004460E46174698461A
:10BE0000FFF702FCFFF734FD054600200290FFF724
:10BE1000FFFB002818BF012800D015B96FF00400FF
:10BE200072E044B900200190FFF7FEFB81460198C3
:10BE30000124814425E014F1010F08BF4FF0FF30C9
:10BE4000F1D001A92046FFF71EFE0028ECD05BE0F0
:10BE5000039902A8FFF7DFFD68684FF00051FFF774
:10BE6000DFFB0198012410F1010F18BF002808D052
:10BE7000FFF7DAFBB9EB000031D0019981422ED3F4
:10BE80000190019B68684FF000520021FFF7C4FB4E
:10BE900028B303AA69460DF10100FFF7EBFE040089
:10BEA000DFD19DF801000DF10201FFF7D9FD002857
:10BEB000CED1039A9DF80010BDF80200B0470028CB
:10BEC000C6D017B1BDF802003880B8F1000F1CBF12
:10BED0009DF8001088F800100C9803990160FFF796
:10BEE000B0FD029EFFF7BFFB014656B1324600E0AF
:10BEF000024652F80C0C0028FAD1A86842F80C0C43
:10BF0000AE6000F006F8204605B0BDE8F08360683A
:10BF100030600846FFF7B2BB38B5FFF775FB044643
:10BF2000FFF776FB002818BF012811D0FFF79BFB15
:10BF30000025504A0C236B43D15A39B1D1184968B6
:10BF40000B68A34206D06D1C062DF3D3FFF796FBBA
:10BF5000FF2032BDFFF792FBE8B232BDE0B5ADF88D
:10BF600000008DF80610002049490A68ADF802006B
:10BF70006846904710B99DF807000EBDFF200EBD22
:10BF80001078422801D101207047002070470CB47E
:10BF900078B504460E4687B0FFF73AFB0CAD002893
:10BFA00014BF0128FFF792FE14200021FF22ADF8F4
:10BFB000100002918DF8122006960595FFF7ACFF50
:10BFC00005AB03222146FFF79FFD002001A9019048
:10BFD0000091002300222F4941F28830FFF709FF2A
:10BFE000012805D020B9019820B1FFF78BFD01E0B1
:10BFF000FFF76CFE0598006808B070BC5DF80CFB9C
:10C000002DE9F8430D462F46062FBCBF04460628EF
:10C01000164699466FF0020806DAFFF724FB00F097
:10C020001CF819B9FFF72AFB40460AE0FFF726FB88
:10C0300000F009F8786840684FF00051FFF7F0FA17
:10C040000020BDE8F283A9F10800047045708670F5
:10C05000494678680830FFF7DEBC0C22054B12FB1E
:10C0600007F7DF1979687047C0370020234D00209B
:10C07000FF3F0120543700204BB9030045D0040096
:10C080002C140020DC750300B5BA03000414002052
:10C090000C14002081BF03001BB9030067B6030026
:10C0A0007DB60300704701000200034A117008BF0B
:10C0B00002480349086070477B1D00202F8D040053
:10C0C00044190020024A106002480160704700BF16
:10C0D000FC40002000410020DFF800F0BD6D0210A0
:10C0E0000120FFF7F9BF4280D3BBD9B1B2F5803F41
:10C0F0005BD2022A1ED98C46B1FBF2F102FB11C3BE
:10C100001B0443EA1043B3FBF2FC02FB1C3380B276
:10C1100040EA0343B3FBF2F002FB103240EA0C406A
:10C1200000237047022A05D98446B0FBF2F002FBD7
:10C1300010C270474AB105D100F0010249085FEA18
:10C140003000704700220023704700F0CDB80B008C
:10C150000200002100207047F7D30022002370471F
:10C16000904271EB030CF2D370B5B1FA81F4B3FADB
:10C1700083F52C1BA340C4F1200532FA05F63343A6
:10C18000A2405FF00046E64002E05B085FEA320250
:10C19000841A71EB030524BF204629467641F4D367
:10C1A00002000B003000002170BD70B5B1FA81F4BF
:10C1B000B2FA82F5C4F120046419B4F12006DAD38E
:10C1C000B2405FF00044F440002502E052085FEA0C
:10C1D0003303C61A71EB020E24BF30467146644128
:10C1E0006D41F3D302000B002000290070BD010057
:10C1F00010B5044601E000F0D3F9B4FA84F0C0B2FF
:10C20000202806D000F018F8F5DB401F00F0DDF91B
:10C21000F3E710BD10B5044601E000F056F9B4FA9A
:10C2200084F0C0B2202806D000F006F8F5DB401FED
:10C2300000F064F9F3E710BDC0F11F00C0B20121A6
:10C2400081404C400528704738B504460120607194
:10C25000244D2079A8B1FFF706FA04462878FF2874
:10C2600005D12046FFF70AFA6FF0060032BD401CE8
:10C270002870C0B2012804BF6868FFF7B9FF2046E4
:10C2800014E0FFF7F0F9297821B9FFF7F7F96FF01B
:10C29000070032BD491E2970C9B239B9FFF7EEF95E
:10C2A0006868FFF7B7FF0020607101E0FFF7E6F96B
:10C2B000002032BD80B5406810F07F4F00D00DE007
:10C2C000FFF796FF002002BD80B5406810F07F4F59
:10C2D00000D003E0FFF79EFF002002BD6FF00200D8
:10C2E00002BD00001414002070470000DFF8580958
:10C2F0008068704702460020022904D1012A06D135
:10C3000040F2EE207047012A08BF4FF47A70704760
:10C31000DFF8341991F8410120B1D1F86C010028FF
:10C3200018BF004770472DE9F041DFF81C4994F829
:10C330004201002884B040F0AE800121DFF80C6992
:10C34000DFF80C5984F84211307B84F841017168A0
:10C35000C4F86C11A868C0F38140B8B93069A8B1BD
:10C360002F6800F0CEFCC7F30662642111FB02F2D5
:10C37000B2FBF0F200230FF6B90104F1940000F0D3
:10C3800099FCDFF8D0184FF00040086001A800F0D9
:10C39000C7FC002002908DF804000022039201AB3C
:10C3A0000FF2D961DFF8B07804F10C0000F082FCE4
:10C3B00001A800F0B5FC002002908DF80400039065
:10C3C00001AB0822DFF8941804F1500000F072FC71
:10C3D00000230FF2ED52322104F1D80000F0BEFC30
:10C3E000002038600023DFF878282C2104F1F400C5
:10C3F00000F0B4FCDFF86C080178A968707BC1F329
:10C40000815128B1032903D1012084F8390121E0A9
:10C41000032918BF02291DD001291AD1DFF8486865
:10C42000DFF84878032000901C23D6F800C0DCF821
:10C4300004804FF0405200213846C0470120009050
:10C4400038463668776809234FF400720021B847F0
:10C4500011E081B9386840F04000386000F0A1FC7C
:10C46000A16841F00401A16094F84511491C84F8C9
:10C47000451100F0C2FC686840070CD400F091FC44
:10C48000A16841F00101A16094F84311491C84F8AE
:10C49000431100F0B2FC002004B0BDE8F08130B5DB
:10C4A00081B0002408B1150004D16FF002042046C9
:10C4B00001B030BD8160C26003610146DFF88807CA
:10C4C00000F0CFFC204601B030BD10B5044600F0AE
:10C4D00068FCDFF874170A1992F843315B1E82F882
:10C4E0004331DBB233B98A68012303FA04F422EA48
:10C4F00004048C6000F081FC002010BDF0B581B018
:10C50000054600F04EFC0446DFF83C17481990F849
:10C510004A21521E80F84A21D2B232BBDFF85007BE
:10C5200000EB850210F825505688280623D5DFF841
:10C53000447739680A6A3046904739688A6A3046D3
:10C54000904739680A6B30469047DFF82C17012076
:10C550000860DFF8280701688907FCD505F03F056A
:10C56000152DBCBF2846FFF7C9FF204600F045FC4B
:10C57000002001B0F0BD680606D501EB8601002061
:10C58000D1F860219047E9E7DFF8E8160B689A696F
:10C5900030469047304600F0A5FC0228FAD1DDE78E
:10C5A00010B5044600F0FDFBDFF89C168A680123F5
:10C5B000A3401A438A60214491F84321521C81F818
:10C5C000432100F01AFC002010BD2DE9F041064681
:10C5D00000F0E7FB0446DFF87056A81990F84A11FE
:10C5E0004A1C80F84A2139BBDFF8848618F82600F7
:10C5F00000F03F001428D8BFFFF7E7FF08EB8600E4
:10C60000478818F8260001061CD5DFF868562A6806
:10C61000D169384688472A68516A384688472A6867
:10C62000D16A38468847DFF8502601201060DFF8CD
:10C630004C0601688907FCD5204600F0DEFB00208F
:10C64000BDE8F081400606D505EB87010120D1F851
:10C6500060219047F0E7DFF81C160B685A693846EE
:10C660009047384600F05BFC0128FAD1E4E72DE959
:10C67000F04F00260025012881B0AA4618BF6FF0B0
:10C68000010840F02E81DFF8C075D7F83401012889
:10C6900044D10221C7F8341100F0BCFC012000F0A5
:10C6A000F0F95FEA00083FD197F85B0108B14FF05D
:10C6B000010A97F85A0108B14AF0020A97F859019D
:10C6C00008B14AF0040ADFF8AC45A16A0A68012003
:10C6D000904701281CBF97F8380101284ED100F07F
:10C6E00009FDDFF86CB5DBF808000125C0F38140D7
:10C6F00040BBDFF8580501690091080022D007F11E
:10C70000940000F016FBDBF80000DFF87815C00F8E
:10C7100014BF4FF441504FF482500EE06FF0040804
:10C72000404601B0BDE8F08F0120C7F8340100F0A9
:10C730007AFC404601B0BDE8F08FC1F880000020CF
:10C740000099884797F83801C0B1DFF83C05C16E01
:10C7500021F08001C1668022426700F022FB97F839
:10C760004611491E87F84611C9B219B9B96821F0B6
:10C770000801B96000F041FB87F83861387AC107D9
:10C7800048BF012608D4216ADFF800058A6890476F
:10C790008146B9F1040FF6D04FF0FF320021304648
:10C7A00000F004FD76B9B9F1010F05D1226ADFF876
:10C7B000DC04536801219847DFF8CC04016841F09C
:10C7C00003010160504622685169884797F8550176
:10C7D00020B12168CA6A4FF48060904797F85401ED
:10C7E00020B12168CA6A4FF481609047DFF888144D
:10C7F000DFF89C340120086000221A600320C7F88B
:10C800003401504600F08BFB0128FAD1DFF8709418
:10C81000D9F80000042000F034F90646DFF874145B
:10C8200001200860002DD9F800204CD0A16A0A68C8
:10C830009047012847D097F83801002843D1DFF806
:10C840001044A068C0F38140C0B9DFF80004056956
:10C85000A5B12068DFF82C14C00F19BF4FF4405069
:10C8600008604FF480520A60502000F059FD01200A
:10C87000A84707F1940000F05AFA01E000F000FC2C
:10C88000012087F83801A068C0F3814018B9DFF8AB
:10C89000BC13086950B9387A810607D4DFF8E80379
:10C8A00080224267C16E41F08001C16600F079FAD2
:10C8B000B96841F00801B96097F84611491C87F83A
:10C8C000461100F09AFA00F027FD082000F0D9F890
:10C8D00006430120C7F8340100F0A5FB0EB14FF06C
:10C8E000FF38404601B0BDE8F08F30B581B0044656
:10C8F00000F057FA05462146DFF84C0300F0DBFA5A
:10C90000284601B0BDE8304000F077BA10B50024E9
:10C91000022802D0032805D008E000F005FD0446F7
:10C92000204610BD00F08AFE204610BDFEE7F0B59F
:10C9300081B000F036FAC449054691F83801012467
:10C9400060B1DFF82463DFF824033768D7F80CC040
:10C95000002301223C21E04700B90024284600F0D2
:10C960004CFA204601B0F0BD30B581B000F019FAA4
:10C97000044600F094FBB44D002085F8380100F027
:10C9800010FA95F84611491E85F84611C9B219B931
:10C99000A96821F00801A96000F02FFA204600F0F4
:10C9A0002CFAAA4884680220A0470546102000F00F
:10C9B00068F8012D04BF0320A04701B030BD00007E
:10C9C0002DE9F041A44C82B06568206820EA050199
:10C9D00005406A06216049D5A34EF16B0A68042020
:10C9E0009047022818BF032819D001283ED1032000
:10C9F00000901C23D6F800C09C4FDCF804804FF058
:10CA0000405200213846C047012000903846366821
:10CA1000776809234FF400720021B84726E003200D
:10CA200000901C23D6F800C0904FDCF804804FF033
:10CA3000405200213846C0470120009038463668F1
:10CA4000776809234FF400720021B84700F0A9F974
