:020000040005F5
:2060000000400120EB7105003B7205003F6E05009B7005009B7005009B700500000000002A
:206020000000000000000000000000009B7005009B700500000000009B7005009B70050020
:206040009B7005009B7005009B7005009B7005009B7005009B7005009B7005009B700500C0
:206060009B7005009B7005009B7005009B7005009B7005009B7005009B7005009B700500A0
:206080009B7005009B7005009B7005009B7005009B7005009B7005009B7005009B70050080
:2060A0009B7005009B7005009B7005009B7005009B7005009B7005009B7005009B70050060
:1860C0009B7005009B7005009B7005009B7005009B7005009B70050068
:2060D8002DE9F04FADF1E40D34900823359100783692002102AA00F085FF02A800F0D2FF23
:2060F800012840F0358134980078002102AA2C2300F078FF35989DF81A100078814240F0BB
:2061180027819DF81400032840F022819DF81500012840F01D819DF81900FC2800F018811C
:20613800072940F0F580FF2840F09180FE20349F8DF8C5008C4E387801463791089F3168F6
:20615800002F8B467AD0B7F1FF3F77D0DFF8108241434FF48072404601F014F8379C7F1E9B
:20617800B7FBFBF64FF0FF35B7FBFBF020185FFA80FA06FB0BF0A245A7EB000707F10107CD
:206198001FFA87F955DBAAEB0400401C3390A24507D15FFA99F619F0FF0F1CBF761CF6B293
:2061B80001E05FFA9BF6002E3DD00BFB04F0B04600273290B81BB0F1FF3F04D1A24502D1A7
:2061D80019F0FF0301D14FF480733798A0420ABF002F00210C218B4217DD61485B1A401866
:2061F800401E10F8011F4FEA152C4D4005F0FF0508216A0832BF6D085A4A82EA5505491E2F
:20621800F7D15B1E85EA0C05EBD1329954484FF4807201EB072101F5807100F0B3FF7F1C15
:20623800B8F10108C6D13398641CE4B2401E3390ADD13498007885F0FF3500E000250499EE
:20625800A94272D111210DF1C50200F050FF9DF81A0007285CD13498DDF820A00027FF260A
:20627800BB464FF0FF38009700788DF8C660D946450305F12C0401E00127BB462FBB2046EE
:206298000DF1C601012200F0E3FE9DF8C600032810D0241D05EB0A06201D864215D3204633
:2062B8006946042200F0D4FE00982418241FA642E4D20AE04134CDF8049001A9042220468C
:2062D80000F0C6FE01980028D6D1BBF1000F1CD03498007849460DF19502302300F082FEB8
:2062F80031AC2078FC2810D0284600F07FF94FFA80F8B8F1000F0BD0FC20349F8DF8C400AB
:2063180038782F21224600F0F2FEB8F1000F0AD19DF81A0018B1072818BF032015D1099862
:2063380000F072FF19E0484608E0FC218DF8C5100DF1C502112100F0DAFE002034990870DA
:206358003599087036980078401C3699087004E034983599369A00F0B9FE39B0BDE8F08FF4
:20637800A82700202083B8ED000300202DE9F0478246494E4F4C56F80C0C904689468008D1
:206398002AD246480068810D28D2051704F134000068006880476D1CC0F13E0110F1020F04
:2063B8004FEAE101D8BF07218D42B8BF0D1C3C480068C0F30320401B102803DA0028D8BF8B
:2063D800012000E00F20374900F00F0040F0F00081F84D00087801E0334830600020334908
:2063F800334F256808603868A96927208847334D314805F1140211682B460840106003F1AB
:206418005C00006820F48070E8652068016B4FF4806088472068016B4FF4816088472068FA
:20643800016B4FF4C0608847254901200860C5F86491244B186056F80C0C800806D2B8F1A7
:20645800FF3F14BF40464FF040403060386828688008FCD3072000F0E7FC0228FAD1BAF11D
:20647800010F13D0206A184E8168304688470428F8D0012804D1206A42680321304690475C
:20649800D5F8FC0120F00300C5F8FC012068806B8047BDE8F087C0461C000940B44F005039
:2064B8000C1300500D620840FD0000400C4009402C200940B8010010FFFFFEFE28200840E4
:2064D8002820086080010443004003402DE9F843089C0F461D461646214600F05DFEDFF817
:2064F800008104F120014046083000F055FE404604F14001283000F04FFE384604F16001C7
:2065180000F04AFE304604F1800100F045FE264805602649006800F24C4900F2944700F519
:20653800976600F2DC4500F58E6821480860224820490860224821490860234821490860C3
:206558002348224908602448224908602349032008700820C9F80000C8F8000038603060CE
:2065780004F12001286009F1040000F029FE08F1040004F1400100F023FE381D214600F060
:206598001FFE301D04F1600100F01AFE281D04F1800100F015FE0095484641463A463346BA
:2065B80000F020F8BDE8F8833401002038010020D45702103C010020F85702104001002091
:2065D8001C58021044010020405802102C0100206458021030010020885802104801002047
:2065F800587F0500DFF800F005C800102DE9F043394C074641F2880000214FF4A052ADF139
:20661800C40D2018804600F06BFB251D81223846294600F01DFD04F13D0000F045FD0028D5
:2066380055D104F1850039464FF4805200F0AAFDD4F89D0004F18506B0B300F0AFFA06F19B
:206658000C00042100F04CF806F112002F2100F047F806F1810040F67F7100F041F8B46951
:20667800B06907F58059A4F58054B0F5805F14D04FF480574946BAB2304600F083FD3946C5
:2066980000F02EF8E41BB4F5805F94BF271C4FF4805709F58059002CECD1104C204600F023
:2066B80069F900F023FA00E0002401A80021C02200F016FB01A805F1410105F161024346DF
:2066D80000902046FFF702FFA52808BF002031B0C0B2BDE8F083C04600030020882700209E
:2066F8002DE9F84F82463548A0F10809D9F800000E464169272088472F4C00256561A574DA
:20671800278B2570B8193F2839D957B9304600F081FDD04604F110050746BB4607EB080074
:2067380012E004F11008C7F1400B07EB080051465A46103000F082FA2583AAEB0700454693
:206758004027403004F120086060A6EB0B06A66000F04EFDE069002807BFD9F85400866840
:20677800D9F85400C66805F1500108223B464046B0470126E0696674C019E06116E0E019EC
:2067980051463246203000F059FA208B80192083A56000F02DFD012209486274001F40F898
:2067B800042C016841F001010160826000F026FD00F03EF9BDE8F88FA8280020B801001093
:2067D800884702402A4AB0B5D2F87C42B4F1FF3F08BF002400F09CFC042847D1D2F8780251
:2067F8001268070F02F0FF027F2A88BF002200F08FFC4FF0FF3104280AD13846012835D946
:20681800801E03D0401E03D1153200E00B3251B214292BDB2048174F0025103805603868D3
:20683800806C80471448006820B114480068204600F034F8124813490560134F0A686FF361
:206858005B4247EA0200086010490868C0F30130012806D10A680E48104040F400320A6053
:2068780008600C4908680028FCD1B0BDFEE7C046A0100050F00100108001284380052043B1
:206898008C210840482003400000390128000940EFFFFCFC0C006842940460422D4A2DE932
:2068B800F0418046324C5068800806D2106804F14901000C40F0F000087028484FF0012107
:2068D8004FF08057C0F8041407F5F8760088D7F8F0019568204F016828468847241FA80EFD
:2068F80003D2680E24BF02202070306842682946404690471A480068C0F305313970410AEB
:2069180039BF402184F823104021E174800900F0380040F46050A7F85C0030688168284622
:2069380088471049104A0AE0105C9478131D844299BF184410F8010C1844407808600868B0
:206958004B689842FCD10228EED1084901200860BDE8F081AC4F00500EB00C4000A00C40AB
:206978000C14005000600C40D4720500940460420D6208402DE9FF412B4E804630684169D0
:2069980027208847294C00276761A7740125257000F02EFCE3696574002B35D0228B4ABB6E
:2069B800D800002102AA04F1100582E803003946402205F1100000F093F920340427802021
:2069D8002946207002A8C279C37885F848207F1E85F84C30A0F1010005F10105F3D1503132
:2069F8004046202200F02AF9706DC5680822402320460FE0706D9B18082704F16006056831
:206A180000923246019703E0706D228B4568082304F120004146A84700F0F0FB00F008F821
:206A38000090BDE8FF81C046B0010010A82800202DE9F84F2B48DFF8A8B02B4CDFF89C8069
:206A580000254FF0FF3A00F14C090BF1020BD9F80000416922488847D8F80860C8F800B0D6
:206A780000F0C6FBA77C87BBA768300826D23FB362683F2F04F110010AD801F110006168CC
:206A98003A4600F0DBF8208BA560C019208317E0384600F0BFFB0746D9F80000C668503183
:206AB8003B4610460822B047A0686668E369C01BA060F0196060D819E06106E0C4F814A078
:206AD8002078657408B1E561258300F097FB607C0028BCD16069BDE8F88FC0468847024067
:206AF80001000080B8010010A828002070B500F07FFB244E264C707CA8B100F079FB707C3C
:206B180078B121480125A4F1080305601868016A2720884700203083F061B5746FF00203EE
:206B3800736100F06BFB002018493074F068086000F064FB00F05CFB70780125012808D089
:206B58002068816904208847042000F0E7F90228FAD12068016A4FF4806088472068816A77
:206B78004FF4806088472068016B4FF48060884708480949056008688008FCD300F03EFB2E
:206B980070BDC046A82800204047024034EF00E0B80100102820086028200840F8B500F048
:206BB80027FB214C04F110000078002839D10126267400256574A57400F020FB2583E561AE
:206BD80000F016FB0420667000F0A8F901280AD0164800684169657004208847042000F0C2
:206BF8009DF90128FAD14FF08057D7F8B801C1694FF480608847D7F8B801416A4FF48060E3
:206C18008847D7F8B801C16A4FF48060884708480849066008688008FCD307490868E0601A
:206C38000D6000F0EBFAF8BDA8280020B8010010282008602820084034EF00E0002A4AD005
:206C58005FEA000C8B071CD1830722D1102A08D370B4103A78C978C0103AFBD270BC10324A
:206C780038D0042A2CD3082A05D30C2A24BF08C908C008C908C008C908C092072AD0920FA5
:206C980022E00B780370491C401C521E22D08B07F7D1C30714D18307D8D0121F12D308C99F
:206CB80003801B0C4380001D121FF8D20AE008C903701B0A43701B0A83701B0AC370001DA4
:206CD800121FF4D2121D05D00B780370491C401C521EF9D160467047002213460A46194629
:206CF80071B510F0030F0BD0002A82BF00F8011BB2F1010210F0030FF6D1002A08BF71BD4C
:206D180011F0FF0141EA0121042A18D341EA0141082A0FD30E46102A08D30C460D46B2F1C2
:206D38000F0312F00F0272C0103BFCD812F0080F18BF42C012F0040F18BF40F8041B12F08E
:206D5800020F18BF20F8021B12F0010F18BF017071BD2DE9FE4F0D9C80469B460C9DA06812
:206D78000192002104228146FFF7BAFF4FF0FF3605F1080A05F12807B8F1010F1CD1FFF76E
:206D98000DFF01995846FFF7ABFC4846FFF7F2FDFFF7ACFE284600F087F968B9A068203090
:206DB8000090236851463A464846FFF78FFB40B210F15B0F08BF00263046BDE8FE8FF8B5DC
:206DD800844640F6FF741CF8013B002210E0481B401E10F8015B7F1E01F8015BF9D103E002
:206DF8001CF8010B01F8010B521C5B08082AEADA5808F5D21CF8010B1CF8015B05F00F07CD
:206E1800FF1CC5F30315122F45EA001508D11CF8016B300A24BF1CF8010B60F3DF16BF1934
:206E3800AC42D4D1F8BDFEE70246134898B570300168476D01F00103002007F004071F43E7
:206E580018BF0120930802EA000006D301F002040023204318BF01231846D20806D301F048
:206E780004010022084318BF01221046002814BF0120022098BDC046D02008401CB5002472
:206E980010488DF8004010498DF8014000688DF8024000F00F008002086020460DF102011F
:206EB80000F014F80DF101000DF102016A46FFF707F99DF800000328F4DB00F077F92046C3
:206ED8001CBDC046302403400003002030B50C46114905468D22ADF1940D6846FFF7AEFEE7
:206EF8002C222846694600F0B3F888B9684600F0C9F868B1059858B1002105E0072008E000
:206F1800421E491C1040C9B20028F9D14808F5D30020207025B030BD447205001149C8B5BB
:206F380070310A684E6D410806D302F0010106F0040600270E4300D00127810805D3002163
:206F580017B1930828BF01210F46C00805D3002017B1D10828BF01200746002F14BF01207F
:206F78000220C8BDD0200840B0B50C480C4DA84210D00C480C4CA0420CD0001B083CC7109E
:206F980054F8080F017855F821206168401C90477F1EF5D100BF00BFB0BDC046EC720500BC
:206FB800E07205001073050000730500B0B54FF0805000F5EC74D0F8D801094D816828464B
:206FD8008847C7B257B12068426800212846904720688168284688470028F9D13846B0BD26
:206FF80000400340F8B51F46164601EB403500F0FFF8002400B101240020211C08BF012001
:2070180003E015F8011B06F8011B39464A1E002997B2F6D108B100F0F1F8F8BD0B4880F305
:2070380008880949086840F47000086000BF00BF00F0F3F808B1FFF797FF0020FFF71EFF09
:20705800012000F0ECF8C04688ED00E000400120F8B514460E46054600F0CAF8002700B137
:2070780001270020391C08BF01202CB115F8011B641E06F8011BF9D108B100F0BFF8002087
:20709800F8BDFEE710B5074C0821083014F8012D10F8013D9A4218BF002002D1491EF5D172
:2070B800012010BD4472050010B5074C401E0021625C10F8013F9A4204D1491C0829F7DB59
:2070D800002010BD012010BD587F050003785B1CDBB22C2B037009DB00230370087807286F
:2070F80018BF07230B701078401C10707047F8B516460C460546FFF759FF0746012204EB8E
:207118004531304600F014F8384600F02DF8F8BD06480C3000684BF641310001B1EB104F86
:2071380014BF4FF0FF3004207047C0460C13005008B5044B1B689B699847034A0021116055
:2071580008BDC046A801001084046042D0F80300401EB0F1FF3F06D00022401E01F8012BE6
:20717800B0F1FF3FF9D1704708B530B1044830300068426801480121904708BD00400340B1
:20719800A801001038B101E08B5C835413465A1E002B92B2F8D1704700F11F02202012F87A
:2071B8000139401E01F8013BF9D1704708B500F01FF800204FF0FF320146FFF7D7F808BD44
:2071D8000246202011F8013B401E02F8013BF9D1704708B5FFF7F6FAFFF720BFFFF723FE26
:2071F80008BDD0F80320C31D08461946FFF726BDEFF3108072B6704700207047EFF31080C7
:2072180062B670470020704708B5D0F800D04068804708BD20F03F0070470120704700BF8A
:04723800FEE7FEE788
:20723C00434332367832523100000000000000000000000000000000000000000000000017
:20725C00000000000000000000000000000000000000000000000000000000000000000012
:20727C000000000000000000000000000000000000000000000000000000000000000000F2
:20729C000000000000000000000000000000000000000000000000000000000000000000D2
:2072BC000000000000000000000000000000000000000000000000000102000302000103A6
:2072E000D76D0500FB71050065710500000100000F9549FFF0000000020000008001000099
:10730000EC72050000030020F8720500A827002099
:207F5400014C0000B0177D511DEC108BD851BCA2ED3D9E19B733A52F33DA05404D137650E9
:207F74003D88DF5CD0E2F2583053C42AB92ABEEF665FECCF5616CC36EF2DC95E462B7C3B97
:0C7F940009C19956D9AF958163237BE7A2
:047FA0006B6D050000
:207FA80000008001100080FFFDFF58003AFFF7F3FFFFFFFFFFFFFFFFFFFFFFFFFFFFFFFF42
:207FC800FFFFFFFFFFFFFFFFFFFFFFFFFFFFFFFFFFFFFF00FFFFFFFF00FFFFFF00C5C5FF2A
:187FE800000000FF00600500FFFFFFFFFFFFFFFFFFFFFFFFFFFFFFFF2D
:00000001FF
