:1000000000400120751F020039FB021039FB02106D
:1000100039FB021039FB021039FB021039FB0210C8
:1000200039FB021039FB021039FB021039FB0210B8
:1000300039FB021039FB021011FB021000B5044815
:1000400081B001680A68904700B201B000BD0000AD
:10005000EC0100101200018301000143C5A70D63EC
:10006000D7C115B00701002C140020C5A7000161FD
:100070001091181378060B3001D01D025010038028
:100080001B0200A00412C00412E004A101212022DE
:100090002012E0050C0200200C020001F0020BA56A
:1000A00073010001F20A111E1003CB890000E10464
:1000B00010077F8C00002D210200FF01212F219CC1
:1000C00070050C22111D2222223E10132412002042
:1000D00028090200DC120200CC1C020008110200F8
:1000E0008414D203601005ECC6040000EEC843136C
:1000F000F1CA051005F4CC0A0000F6CF0513F7D0BD
:1001000005100BFAD4100000FBD6120000FD931866
:100110003A135328E21256051039025932000003EF
:100120005D38000004634E000005177200000ED613
:10013000271B800FDA2F1B8010DE391B8011E54F43
:100140001B8012E047308013E2613F8014F5753F59
:10015000807FFFFF3F9C102660205B63026401D319
:1001600088F30028530000838605000540014030D5
:100170003C183864403C000308950023082A0121FC
:10018000143012005F0041410104C044DD070073D8
:100190008B1F00610304C0C36011801500D0510E95
:1001A00000B38BFB00C30B4404410308C0DB2518DC
:1001B000800620539006A3028F010C80042D01A419
:1001C00060007D103003E5079C601B2C20122B5E25
:1001D000C8010307320583870000C3060205A86033
:1001E00001049C4009E387E700F387F400738C0D5A
:1001F000282008D4D7FD0307C201838703281201F2
:1002000028100600D388F700E30700244178F001A6
:100210000CFFFF00011A2470210461261A215425C5
:10022000943001FF00141312441C2104524C048327
:10023000C01050493A100101006818F206681C12FB
:1002400084182104528C04529404529C044B50167E
:1002500094213012B010210452B80443A410042198
:100260001CA9A63001A3DF026A12E024210452E88F
:100270000452F00452F804430015045208047001BB
:100280003DC502A2D40305000000201B43601513E6
:100290001238082104524004524804525004525863
:1002A00004526004526804527004830000B0620477
:1002B0006415554348271C8339EC886101ED86039A
:1002C00012BC48210452C40452CC0452D40452DC5F
:1002D0000452E404217818016B7701ACF2000001AC
:1002E000F00203C020020001D2342CF0011C100ADD
:1002F0000001E95B216643ACC6CC12C87421103002
:1003000001060D011030011819008683DE74EA2100
:1003100010133226B4110843904420A1401001501C
:1003200000A00AA3E80318D2D058521958433253F8
:10033000105298486120521A2043C25510C3B24946
:1003400020521B2043425810C3C01620621CB842E2
:100350006E10C31D1920521E1043A67310F003FF28
:10036000C34900200001F11201AD0003F60E014166
:100370008008DD5100003D520000A7512943B5F42B
:100380000C12B9082C0A1C00A00164241844C406ED
:10039000200CC6041C051AFDFF001A11FB0B051DDD
:1003A0006005000D000101200A0A02020102FFFFA0
:1003B00007FE1052000110079011002008150020C0
:1003C0000111C30100012002C014002004D2000169
:1003D00053FF7F1260016CDC021C12702852030D67
:1003E000F004017BC10000C1C15021014338155008
:1003F000A11CA10CF301BC157052EC141234AC21F9
:1004000004523C04D20829F00800B04900205044AE
:10041000002054444413200165F30178435C250017
:100420000002001000000002C01300000002801053
:020430000020AA
:1010000001000000000000000000000000000000DF
:10101000FFFFFFFFE01400200400000000000000BC
:101020000000000014000000A01D020018000000D5
:1010300058200200C01000004C14002004000000E2
:10104000000000000000000024000000881D0200D5
:10105000180000007DC0000008000000B011000072
:1010600074100000C1C8021001BB021091EB021005
:10107000DDE5021081E00210B9E5021071E5021011
:101080002E0000000100000001000000002102000D
:1010900000000000FFFFFFFFB81400200400000064
:1010A000000000000000000028000000FC18020002
:1010B00024000000210000001800000000000000D3
:1010C00028130000D41000009BEC021025E202104F
:1010D00005EB021025DE0210FDE10210E1E4021032
:1010E000330000003400000025002900000000004B
:1010F0002C140020FFFFFFFF00150020040000005B
:101100000000000000000000380000007816020017
:101110002800000001000000100000000000000096
:1011200000000000F7F1021000001A00100000009B
:1011300004000000C41E02002E000200080000008F
:1011400036000000C014002008150020090020000F
:101150002FC90100541400200100000000001200FB
:10116000FFFFFFFFF014002004000000000000005B
:101170000000000010000000B81D02001800000070
:101180000000000000001300FFFFFFFF68150020B3
:1011900004000000000000000000000054000000F7
:1011A000C80E02003C0000000000010031000000F9
:1011B000041000008FFC01002D0000000000000062
:1011C000B0110000D811000059D20210D9DB021072
:1011D00059EC0210CDD6021085DE02104DE502104A
:1011E00029E502102D00000000001600000000009C
:1011F00000000000FF7F000070150020FFFFFFFFD0
:10120000E8140020040000000000000000000000BE
:1012100058000000D41002003400000039FB021016
:101220000100330006000000000000002000000064
:10123000010000001BF80210280000002813000025
:101240005012000093EC02106DEB02104DEC0210F6
:1012500029E00210BDE4021099E402103100000000
:1012600000000000941400200400000000000000B2
:101270000000000010000000301402002C000000EC
:10128000000000000000030000000F003C00000010
:1012900000000000000000002FF902101000000004
:1012A00008000000601E0200FFFFFFFFF81400208E
:1012B0000400000000000000000000001C0000000E
:1012C00020190200240000003C12000044140020F9
:1012D0000400000000000000000000000C000000FE
:1012E000581D02001800000009FF01000000000066
:1012F00000000000080000000100000004000000E1
:10130000000000000000140000000000E81D0200C2
:10131000000019000000180024000000292102002C
:101320000040000000020000041000000000100057
:1013300055F002100C000000B3C0000000000000D7
:101340002414002004000000000000000000000041
:1013500020000000AC12020030000000001E02005D
:101360000100000073C1000097F6010000000000BA
:1013700000001700000200002E0000000000230003
:101380000000150001000000C0110000B014002092
:101390000400000000000000000000002000000029
:1013A000D81802002400000058C30000A414002034
:0E13B00020000000A01602008160426070471D
:1013C000F5BF000007C200000BC200000FC2000002
:1013D00013C2000017C200001BC20000B5F90100D3
:1013E00075110200490A020079120200911C0200E4
:1013F000A9150200211D02007D150200491E0200F0
:101400009D1E020091080200DFF82C1791F83300AE
:101410000022030604D4582010FB02F288187047FB
:1014200091F88B0001220306F5D591F8E300022222
:101430000306F0D591F83B0103220306EBD591F8A2
:10144000930104220306E6D591F8EB010522030679
:10145000E1D591F8430206220306DCD591F89B0200
:1014600007220306D7D5002070472DE970430646B2
:1014700014461D4603F027F96EB1D6E90A2322432C
:101480002B43C6E90A23D6E9088948EA040449EA55
:101490000505C6E90845BDE8704303F040B930B51D
:1014A00081B004460D4602F00FFCA04231BF241A61
:1014B000641E241A641CA40805F57A70A04238BF83
:1014C000B4F1405F06D2641B012C98BF0124204672
:1014D00001B030BD002001B030BDF0B5DFF85836A6
:1014E00004460025D3F85003012981B022D100E041
:1014F0000068002844D0C668377B07F00F07022F2A
:1015000018D0006800283BD0C668377B07F00F076B
:10151000022F0FD0006898B3C668377B07F00F071B
:10152000022F07D0006858B3C668377B07F00F0753
:10153000022FDDD120B3012502B11060C268167BF5
:1015400006F00F06022E1BD10269012903D1D168D2
:10155000128D891807E01169D68A8E1993F8221323
:10156000192212FB0161406BFFF799FF206003F025
:1015700038F92168B1FBF0F0206001B02846F0BDD9
:101580000020206001B02846F0BDF0B581B00446CF
:1015900003F099F80546002C1CBFA07A002833D030
:1015A000DFF8983594F909001E680122F70702FA5E
:1015B00000F10ED5DFF888351B681E0609D5DFF867
:1015C00084355E68113002FA00F0C04306405E6068
:1015D00018600020A072207220606060C4E90400DE
:1015E000DFF85435A06194F9090093F82063824034
:1015F000324393F8220383F8202310B1401E83F86E
:101600002203C8B200F063F9284601B0BDE8F040FB
:1016100003F085B8000000002DE9F04700261124F2
:10162000DFF82055DFF810954FF00108F0B20328DD
:1016300048DA09EB401000F53077B97A012941D139
:1016400097F90900113008FA00F0C14329606A686F
:101650001043686097F9090008FA00FA03F033F8BC
:1016600099F894134AEA010189F8941303F057F8A2
:1016700099F88403022817D107F1100003F0D4F879
:1016800000F0FF0001280FD1B86948B199F8841320
:10169000022909D103F0C8F800F0FF00012803D1A6
:1016A0000220B8720EE000BF99F8210397F90910E3
:1016B00004FA01F1084389F82103002109F57F703C
:1016C00003F097F9761C032EB0D3BDE8F08730B550
:1016D000042881B020D1DFF8604404F24C4003F0CC
:1016E00085F8C8B103F07DF8054604F24C4003F0DC
:1016F0007BF84543B5F5967F0ED204F24C4003F0DB
:1017000088F8052003F0E0FA012084F89103042111
:1017100004F56B7003F06DF9002001B030BD70B5B9
:10172000044602F0D0FFDFF81064054696F84C033B
:1017300020EA040486F84C430024D6F8280320B19C
:10174000B03003F053F800B10124D6F82C0320B1D7
:10175000B03003F04BF8044319D196F84C0300283D
:1017600008BF002C13D1D6F8480380B190F824109C
:101770008A070CD5046A284602F0D1FFD6F8480340
:1017800000220221A0470020C6F8480370BD284669
:10179000BDE8704002F0C3BFF0B400290CBF0123C4
:1017A0000023002A0CBF01250025002839D02C0079
:1017B00004BF90F84440002C33D000291CBF91F89E
:1017C0004440002C12D0446B0E6C07690969A408D0
:1017D000A4EB96040026B94218BFFE68A41B04F1CE
:1017E0008054B4F1805F88BF012301D8190018D05C
:1017F000BAB1D1680C7B04F00F04022C11D1516BEB
:10180000046C126900698908A1EB940100249042DC
:1018100018BFD468091B01F18051B1F1805F88BF06
:10182000012503EA0500F0BC7047F0B581B01E4603
:101830006FF002078DF80070054634682246FFF706
:10184000ABFF10B101208DF800009DF90000B842F7
:1018500001BFE968087B00F00F0002280CD100E00E
:1018600024684CB1226821462846FFF795FF0028DE
:10187000F6D002208DF800009DF90010B94204D185
:10188000E86B10B104218DF800109DF90070012F54
:1018900006D12946304603F0DCFD384601B0F0BDE4
:1018A000022F09D12268002A2946304608D003F0C9
:1018B000A8FD384601B0F0BD042F03D129463046BB
:1018C00003F0B2FD384601B0F0BD0020704730B5DE
:1018D00081B0044602F0F7FE0546974890F894134D
:1018E00021EA040480F8944390F89423110704D467
:1018F000082100F56B7003F07CF8284601B0BDE8C4
:10190000304002F00CBF2DE9F04FDFF83CAC81B065
:101910009AF88413022905D101B0BDE8F04F1920CF
:1019200002F0DEBE9AF8840301281CBF9AF88403F3
:1019300004287BD002F0C7FE00900026DAF850039E
:101940000024C0B1C1680A7B012402F00F02022A00
:1019500011D101690A69C98A9AF82233406B51187A
:10196000192212FB0311FFF79AFD054602F039FF19
:10197000B5FBF0F800E0B04600254FF0FF39002736
:10198000F8B203281EDA0AEB401101F53072907AA2
:10199000C0B1107A012502281DD0DAF89803016938
:1019A000C08A9AF822330918192010FB03115069D4
:1019B000FFF775FD834602F014FFBBFBF0F04845CE
:1019C00098BF81467F1C022FDAD92C4205D04646AB
:1019D0004E4507D905E0B146F7E70CB1464601E0B0
:1019E00005B14E462C4317D066B1012E98BF012693
:1019F00031460AF24C4002F008FF0AF24C4002F075
:101A000006FF0DE00AF24C4002F003FF04210AF544
:101A10006B7002F0EEFF03E00AF24C4002F0F9FEB8
:101A2000009801B0BDE8F04F02F079BE01B0BDE80A
:101A3000F08F70B586B001460022039201920492A5
:101A400002920025487DDFF8042B136803F440233D
:101A5000B3F5802F05D1DFF8F82A13689C0358BF2F
:101A600001258C680022628040F6020623889B1BB9
:101A700009D041F21E069B1B05D041F6E6769B1B62
:101A8000012B0FD91CE0238A4FF6FF32134023822B
:101A9000002819BF4FF60F4003402D2060F30913B3
:101AA00023820DE0238B4FF6FF321340238300285F
:101AB00019BF4FF60F4003402D2060F30913238315
:101AC0000020487502AE009604AB01AA03A9204687
:101AD00001F0C3FE50B1039801884FF6FF729142A6
:101AE00004D10299019801F02AFE03E002990198BD
:101AF00001F06BFEEDB1019C04B9FEE750234FF6F7
:101B0000FF720B21204602F0BAFE0546502D10DA76
:101B1000FEF794FA03F050FD0749DFF8382AC1F8C0
:101B2000A8031368D9688847000440F00B0044F804
:101B3000250006B070BD0000E021002040210840D3
:101B400000000440081004402DE9F04784B000254F
:101B5000DFF8F4890395D8F850630295002E64D01D
:101B6000D8F86403002804BFD8F86003002840D1E7
:101B7000012585F0010903AA494602A8FFF7ADFC3B
:101B8000040054D1DFF8D0094768002F18BF002C9B
:101B900000F005830298002840F00183D8F8641310
:101BA00003980190CDF8009008F55673D8F86003BB
:101BB00008F55472B847012800F0C481022840F0AB
:101BC000EE82D8F86003D8F86013B0F930400D69A0
:101BD00002F079FD4FF0FF318C42019047D1D8F8E7
:101BE0006003002837D00069A84234D1D8F8606378
:101BF00093E0D8F860030028BBD0D8F860030169EF
:101C000030698142B5D196F83310C806B1D50125A7
:101C1000D8F86003C16848880028F9D0D8F8600374
:101C2000C16848880128F3D0A3E702213FE3002DD3
:101C3000A8D102980028A5D00146022938BF012169
:101C400008F24C4002F0E1FD08F24C4002F0DFFDEA
:101C500004B0BDE8F087D8F8640328B10069A84251
:101C600008BFD8F8646358D0D8F8506355E0B8F985
:101C700030000021A04202BFD8F810300093AB42E0
:101C800046D0B8F988000121A04202BFD8F86830D8
:101C90000093AB423CD0B8F9E0000221A04202BF61
:101CA000D8F8C0300093AB4232D0B8F938010321E4
:101CB000A04202BFD8F818310093AB4228D0B8F93F
:101CC00090010421A04202BFD8F870310093AB42CA
:101CD0001ED0B8F9E8010521A04202BFD8F8C831EA
:101CE0000093AB4214D0B8F940020621A04202BFD3
:101CF000D8F820320093AB420AD0B8F998020721F5
:101D0000A04202BFD8F878220092AA4240F018817F
:101D1000582010FB01F108EB0106002E00F01081A5
:101D200096F83300010640F10B81D8F86003864233
:101D30001CBFD8F864138E426AD0D8F850434FF0D5
:101D4000000A00E02468002C00F0FA80B44211D0B0
:101D50002468002C00F0F480B4420BD02468002CDE
:101D600000F0EE80B44205D02468002C00F0E8803A
:101D7000B442E7D120692768A84234D102F0A3FC1D
:101D8000D4E90A2343F08051C4E90A210AF1010A87
:101D9000D4E9082343F08051C4E9082102F0BFFCD4
:101DA00002F091FCD4E90A2343F08071C4E90A21CE
:101DB000D4E9082343F08071C4E9082102F0AFFCA4
:101DC00098F84C133069C8F8480341F0010188F8CD
:101DD0004C1308F55470214603F050FB214608F5DA
:101DE000567003F021FB3C00C4D1BAF1000F1FBFB5
:101DF00098F88403012898F88403042800F0A08050
:101E0000DFF8381908F56B7002F0F3FD0198F1E185
:101E1000D8F8600300224FF00053FFF726FBD8F8F4
:101E2000640300224FF00053FFF71FFBDFF8100997
:101E300002F0FAFCD8F8604302F045FC5CB1D4E94A
:101E40000A2343F08071C4E90A21D4E9082343F04E
:101E50008071C4E9082102F062FCD8F8644302F002
:101E600032FC5CB1D4E90A2343F08071C4E90A2151
:101E7000D4E9082343F08071C4E9082102F04FFC43
:101E800098F84C133069D8F85063C8F8480341F00B
:101E9000010188F84C13344600E02468002C4FD030
:101EA000B4420ED02468002C4AD0B44209D0246831
:101EB000002C45D0B44204D02468002C40D0B44259
:101EC000EBD1002C3CD020692768A84236D102F023
:101ED000FAFB0246D4E90A0141F08053C4E90A033F
:101EE000D4E9080141F08053C4E90803104602F028
:101EF00016FC02F0E8FB0246D4E90A0141F08073C7
:101F0000C4E90A03D4E9080141F08073C4E9080375
:101F1000104602F004FC98F84C133069C8F84803E6
:101F200041F0010188F84C1308F55470214603F084
:101F3000A5FA214608F5567003F076FA3C00C2D1A6
:101F4000019857E1039800B10646B6F9304035696B
:101F500002F0B9FB4FF0FF318C42074614D1D8F89C
:101F6000600328B10069A84208BFD8F8606361D057
:101F7000D8F8640328B10069A84208BFD8F86463A0
:101F800058D0D8F8506355E0B8F930000021A0428D
:101F900002BFD8F810300093AB4246D0B8F98800A1
:101FA0000121A04202BFD8F868300093AB423CD078
:101FB000B8F9E0000221A04202BFD8F8C030009377
:101FC000AB4232D0B8F938010321A04202BFD8F8A1
:101FD00018310093AB4228D0B8F990010421A042F7
:101FE00002BFD8F870310093AB421ED0B8F9E801B7
:101FF0000521A04202BFD8F8C8310093AB4214D0EB
:10200000B8F940020621A04202BFD8F8203200935E
:10201000AB420AD0B8F998020721A04202BFD8F813
:1020200078220092AA4240F0B880582010FB01F1BB
:1020300008EB0106002E00F0B08096F83300010690
:1020400040F1AB80D8F8600386421CBFD8F8641317
:102050008E4261D0D8F8504300E02468002C00F094
:102060009C80B44211D02468002C00F09680B442C9
:102070000BD02468002C00F09080B44205D0246876
:10208000002C00F08A80B442E7D12069A84240F0D9
:10209000848002F018FBD4E90A2343F08051C4E99C
:1020A0000A21D4E9082343F08051C4E9082102F051
:1020B00036FB02F008FBD4E90A2343F08071C4E93F
:1020C0000A21D4E9082343F08071C4E9082102F011
:1020D00026FB98F84C133069C8F8480341F0010119
:1020E00088F84C1308F55470214603F0C7F92146CF
:1020F00008F5567003F098F998F8840301281CBF7E
:1021000098F88403042848D0DFF8301608F56B707F
:1021100002F06FFC38466DE0D8F8600300224FF003
:102120000053FFF7A2F9D8F8640300224FF00053E0
:10213000FFF79BF9DFF8080602F076FBD8F860435A
:1021400002F0C1FA5CB1D4E90A2343F08071C4E91A
:102150000A21D4E9082343F08071C4E9082102F080
:10216000DEFAD8F8644302F0AEFA5CB1D4E90A238F
:1021700043F08071C4E90A21D4E9082343F0807157
:10218000C4E9082102F0CBFA98F84C133069C8F87A
:10219000480341F0010188F84C1338462AE0002D2D
:1021A00000F089803069D8F89813884218BF4FF43E
:1021B00080617CD1002C1CBF029800281FD0D8F869
:1021C0006003002804BFD8F86403002817D102F088
:1021D0007AFA044698F8940300F0F70088F894031C
:1021E00098F89403010704D4082108F56B7002F0F5
:1021F00000FC204602F093FA04B0BDE8F08702F03C
:1022000062FA98F8941341F0080188F8941302F0E8
:1022100086FA96F83300C10608F5547004D503F029
:10222000DCF8C8F8640303E003F0D7F8C8F86003EB
:10223000D6E90601DFF86848C043A060E268D6E945
:1022400006010243E260D6E90623DB4323606768A8
:10225000D6E906010F436760DFF8CC797D68F46842
:102260002B46180007D0387A010704D5D8F8980310
:10227000324608219847204602F0D6FA208840F6D8
:102280000201401A08D041F21E01401A04D041F662
:10229000E671401A012808D83DB1387AC10704D543
:1022A000D8F8980322460121A8474FF0804108F54D
:1022B0006B7002F09EFB04B0BDE8F0872DE9F04F93
:1022C000DFF88492DFF8640981B0D9F8608302F006
:1022D0002CFB0646DFF8B8090468076804F0200400
:1022E000344018BFB8F1000F07F4602716D0C9F8C2
:1022F000688302F0E8F9D8E90A232343C8E90A23EE
:10230000D8E908AB4BEA0405C8E908A502F007FACA
:102310004FF4804109F56B7002F06BFB3E400DD02D
:1023200099F8211341EA564089F8210301B009F5D3
:102330007F70BDE8F04F002102F05BBB01B0BDE84B
:10234000F08F2DE9F043DFF8009281B099F8210376
:10235000002400284CD099F821030026C1073DD560
:1023600099F821031021B140084218BF012402F05E
:10237000AAF999F821131122B240914389F8211347
:1023800002F0CDF9032E33DA09EB461101F5307274
:10239000907A68B392F90980DFF8F81801EB8801A8
:1023A000002C0D681668576804BF107A022803D104
:1023B000D2E90401C30009D41046FFF7E6F82CB1B6
:1023C0000020009000224FF0007303E000950022EF
:1023D0004FF0006341463046B84709E099F82103C1
:1023E00001268107BCD499F8210302264107B7D4FE
:1023F00099F8210338B109F57F7001B0BDE8F043C9
:10240000002102F0F6BA01B0BDE8F0832DE9F043F7
:102410000FF2481285B0D2E90034CDE900344FF410
:10242000804002F0FBF94FF00008F0B1DFF86808D7
:10243000D0F813100078C1F31501800841EAC0718B
:102440004148D0F89833986802AA01F0A9FA3E48AA
:10245000DFF8D417D0F898034B6882681C0004D0CA
:102460000C7AE10744BF012198476E464FF00209FC
:1024700037683868002855D03868D0E9060102F07E
:10248000CDF93D680021CDE90201044602F01BF9B7
:1024900084467DB1D5E90A23DDE9020110431943E1
:1024A000C5E90A01D5E90823DDE902011043194312
:1024B000C5E90801604602F032F914F00A0F2AD08B
:1024C0003868DFF8CC17DFF8D4378A68DFF8C04700
:1024D000D0E9060118408243A26038682368D0E939
:1024E00006018B4323603A68DFF83C074368190014
:1024F00007D0017AC80604D5134CD4F898031021EC
:1025000098473968DFF8980702F08EFF002038609E
:1025100048F0020806E02CB138680B49C1F868039E
:1025200048F48048361DB9F10109A1D15FEA0801DC
:102530001CBFDFF8700702F05CFAFFF76DF8FFF7D9
:1025400003FB05B0BDE8F083E0210020B44F00504C
:102550008C130050E0010010B02002004025002044
:102560004425002030B5DFF8404781B0B4F96C0352
:10257000B4F96E13884217D102F0A5F8054694F815
:10258000940300F0F70084F8940394F8940301078F
:1025900004D4082104F56B7002F02BFA284601B030
:1025A000BDE8304002F0BBB801B030BD0720FFF7F6
:1025B000B6B82DE9F041074682B0D7F8A06088464A
:1025C00014461D4606B1B047D7E9260120402940F0
:1025D00008BF002800F08E80DFF8CC56B5F93060D7
:1025E0000024464502BF2A690092BA4203D195F8F9
:1025F0003320160663D4B5F988600124464502BF2E
:10260000AA6E0092BA4203D195F88B20160656D4D2
:10261000B5F9E0600224464502BFD5F8C02000921B
:10262000BA4203D195F8E320160648D4B5F93861CB
:102630000324464502BFD5F818210092BA4203D1BF
:1026400095F83B2116063AD4B5F990610424464525
:1026500002BFD5F870210092BA4203D195F89321B8
:1026600016062CD4B5F9E8610524464502BFD5F815
:10267000C8210092BA4203D195F8EB2116061ED468
:10268000B5F940620624464502BFD5F820220092E3
:10269000BA4203D195F84322160610D4B5F99862D0
:1026A0000724464502BFD5F878220092BA4203D1EA
:1026B00095F89B22160602D4C7E92A0110E0582695
:1026C00016FB04F4C7E92A012C44D4E9082322EAC2
:1026D000000023EA0101C4E90801D7F8A050A56071
:1026E0000020C7F8A00002B007F14800BDE8F041A3
:1026F00002F0EDBF02B0BDE8F081704700B581B0D7
:1027000002F06CF9DFF8A0250146D2F89803D2F860
:10271000882301B05DF804EB1047DFF88C050FF259
:102720009152D0F88813914208BFFFF7ECB804210A
:1027300000F56B7002F05DB900000000020000407F
:102740000100010430B581B04FF0FF3002F066F8AF
:10275000DFF854550FF259510446D5F888038842E2
:1027600032D10022DFF8F41B05F5787001F0BAFFD2
:10277000022085F88403D5F898138A6801F13003A4
:1027800000E00246506890B198421EBF0246506871
:1027900000280CD098421EBF02465068002806D080
:1027A00098421FBF0246506800289842E9D1507BEA
:1027B00010F00F0F02BF488E40F60901884203D087
:1027C000FEF72AFFFFF7C0F9DFF8640C044208D0D7
:1027D00005F56B7001B0BDE830404FF0005102F0DC
:1027E00008B901B030BD00B581B04FF0FF3002F044
:1027F00015F8800708D501B05DF804EB4FF40061CF
:10280000DFF8A00402F0F5B801B000BD2DE9F041F9
:10281000DFF89474D7F85863002E00F0AB80F068AE
:10282000082140F6040240F6030301E04068491E17
:1028300068B1CCB25CB104889C4218BF9442F5D117
:10284000316901F130021AC81AC21AC81AC2D6E98F
:102850000A450022C6E90A22B068D0B115F0E24369
:1028600010D024F00F0235F0E24308BF002A05D053
:10287000B6F930103069D6F808C0E04704F000041B
:1028800005F0E245B6F9301030692246B4682B46AF
:10289000A04701F018FF0446B7F86E03401CC0F3D0
:1028A0000B00A7F86E036FF00201002086F83300DA
:1028B000318607F5567002F090FD204601F02FFF9B
:1028C000B7F96E03B7F96C13884253D1D7F8982340
:1028D000D7F82863D7F82C5392F8F4100024A046B8
:1028E000052001B10720FEF71AFF2EB196F8F4007B
:1028F00000B9346886F8F4803DB195F8F40008B961
:10290000D5F80080002085F8F400444538BF4446DF
:10291000E4B9B7F96C03B7F96E1388422AD101F014
:10292000D2FE044697F8940300F0F70087F894036A
:1029300097F89403010704D4082107F56B7002F09F
:1029400058F82046BDE8F04101F0E9BE14F1010F4E
:1029500010D001F046FFB4FBF0F1012998BF01212E
:1029600007F5926001F051FF07F59260BDE8F04174
:1029700001F04DBFBDE8F081CB4A92F884130020EE
:10298000022904BFD2F86013002903D1D2F86413DE
:1029900001B90120704730B50D46A80781B0C24C7F
:1029A00012D5FFF733FFD4F8580340B145F00201C8
:1029B00004F56B7001B0BDE8304002F01AB801B008
:1029C000BDE83040FEF79FBF680767D5012184F856
:1029D0009613042002F078F9DFF8580A01680A6BB0
:1029E0009047C4F89C03D4F8500398B10569D4F813
:1029F0009803002818BFA8420AD095F82400410780
:102A000004D52B6A002204212846984701206875C6
:102A1000C4F89853D4F898034168DFF81C0A0A7880
:102A20000260022002F050F9112002F062F9012048
:102A300084F884037C49887810B90E2002F059F993
:102A4000D4F8980341688868002804BFC868002843
:102A500006D0DFF8A80CDFF83C2C0021C161026031
:102A60000720DFF8601C08600021DFF8900C426945
:102A7000416182698161426942F0402242F0020272
:102A800042610FF22100C4F888031A2001F01DFEF4
:102A900001B0BDE83040192001F017BE01B030BDD3
:102AA000081004402DE9F0430446880081B040F14D
:102AB000B780DFF8F481D8F89803416848688E68D9
:102AC000CF68010018BF80473000DFF8305C01D1CB
:102AD00038000ED0E8690028FCD00021E961300000
:102AE00018BFB047380018BFB847DFF8140C01F022
:102AF0009BFE0020E86140F60A09DFF8081C296007
:102B0000A8F87093A8F8720398F87C1301F0F0010C
:102B100088F87C13C8F87403204698F87D1301F0F8
:102B2000F00141F0010188F87D13FEF782FFA668ED
:102B3000374640F6040140F6030200E00746786895
:102B400028B103884B451CBF93428B42F6D17B7B57
:102B500008F55C70786003F0F0037B73D8F85003DD
:102B6000D8B1C0680088904218BF884215D10021B2
:102B7000C8F89C13E8690028FCD00021E9610FF235
:102B8000311298F89103C8F8882328B302F063FA49
:102B90000028FBD002F07CFA2FE0208E0028E9D03C
:102BA00000216186616394F83D0094F83C1000F0C8
:102BB000F00040F0010084F83D0001F0F00184F8DD
:102BC0003C1004F13000C8F8740398F87D1301F04C
:102BD000F00188F87D13CDE734490A6813680120B5
:102BE0009847012809D0787B00F0F00040F0010000
:102BF00078730FF23D00C8F888030021E9612E6068
:102C0000DFF8040B436819000AD0007AC10707D522
:102C1000D8F89803324601B0BDE8F04301211847C7
:102C200001B0BDE8F0830000901F020020000E00FC
:102C3000DFF8D82A114200D1704710B51B490A6845
:102C400013680120984701280DD1DFF8C40A0FF25C
:102C50006101C0F888130022DFF8A01ACA6100F5EC
:102C60005C70086010BD01F0BCFD3221B1FBF0F1D9
:102C70000129DFF89C4A98BF012104F24C4001F081
:102C8000C4FD04F24C40BDE8104001F0C0BD00009E
:102C90000C1004409430044085030021FDBFFFFF69
:102CA000382500208C250020E0210020E0010010C4
:102CB0002DE9F04F044688465FEA484083B0DFF8CC
:102CC000509A2CD501F0FFFCD9F8686316B3D6E909
:102CD0000A2302F00A0413F0E04508BF002C19D1C2
:102CE000D6E90A45D6E90A23A243AB43C6E90A233B
:102CF00001F015FDB06878B1002D08BF002C0BD095
:102D0000B6F9301030692246B4682B46A04728F443
:102D1000804815E301F003FD28F4804810E35FEAE2
:102D2000880040F18280DFF8EC09D0F88C1041F087
:102D30008001C0F88C1099F8960328B1042001F0A6
:102D400058FF002089F8960301F0BDFCDFF8E4A6E7
:102D5000DAF854100A6805460420904700281CBF82
:102D6000207D00281FD0D9F89C03E0B10746DAF88F
:102D700000002669016B8847874231BFC71B401E90
:102D8000C71B7F1C3F0BB742276102D2F61976089A
:102D9000266140F699012069A0F59670884224BF0B
:102DA00040F6C4102061284601F0B9FCD9F8981308
:102DB0008A6801F1300300E00246506890B1984201
:102DC0001EBF0246506800280CD098421EBF024623
:102DD0005068002806D098421FBF0246506800285D
:102DE0009842E9D1507B10F00F0F02BF488E40F699
:102DF000090290420FD1E56900224FF000736FF491
:102E000080712046A847D9F8500310B1FEF77BFD2A
:102E100001E048F002082046A46900224FF08063D8
:102E20000021A04728F000588AE25FEA887009D59F
:102E3000FFF7ECFCD9F85803002840F0818228F015
:102E400002087DE25FEA485040F1B48001F03BFCAB
:102E50000546FFF791FDD9F85043012840F0A480C2
:102E6000002C00F0A180042089F884030022DFF800
:102E7000A81809F5787001F035FC284601F04FFCE0
:102E800009F5926001F0C5FCDFF8A80501680A6B3E
:102E90009047C9F8A003012089F89603042001F0A7
:102EA00013FF2069C9F8980390F824104A0703D546
:102EB000036A002204219847D9F89803DFF83C58A8
:102EC00041688E68CF684868002E08BF002F04D084
:102ED0000021E961DFF8BC272A6008B101F0CEFCCF
:102EE000002E08BF002F0CD0E8690028FCD000217C
:102EF000E96106B1B04707B1B847DFF8040801F04F
:102F000093FCD9F898030121417540F60A06FEF7B3
:102F100090FDD9F898339A68114640F6040C40F6B3
:102F2000030E00E00146486828B10788B7421CBF7D
:102F300077456745F6D1002048604E7B06F0F006E5
:102F400046F001064E73E0680088704518BF604582
:102F500003D10020C9F8A00315E0188E98B103F141
:102F60003000002444804460047B04F0F0040473C7
:102F7000447B04F0F00444F0010444734860487B4F
:102F800000F0F00048730020E8612A60DFF878075D
:102F9000446821000BD0007AC10708D501211846EA
:102FA000A04728F48068CBE1284601F0B8FB28F45C
:102FB0008068C5E15FEA085163D599F8960328B1A6
:102FC000042001F016FE002089F89603D9F89843F2
:102FD00004F1080104F130050B6800E0034658686D
:102FE00090B1A8421EBF0346586800280CD0A842E2
:102FF0001EBF03465868002806D0A8421FBF0346DC
:1030000058680028A842E9D1587B10F00F0F02BF82
:10301000488D40F60902904207D12046E46900221B
:103020004FF000736FF48071A047D9F8A00398B1F6
:10303000DFF800140868026B9047D9F8A0138142AA
:1030400031BF401A401E401A401CD9F89813000B9B
:10305000C8600020C9F8A0030022C04909F57870B3
:1030600001F040FB022189F88413D9F8580318B104
:1030700009F56B7001F0BDFCFEF745FC28F4006813
:103080005EE15FEA087040F1548101F01CFB0190A1
:10309000FFF772FC002800F0448199F894030107BF
:1030A00000F13F8199F89403010600F13A81D9F8C3
:1030B000500300240025C8B1C1680A7B012502F035
:1030C0000F02022A12D101690A69C98A99F82233CA
:1030D000406B5118192212FB0311FEF7E0F9064666
:1030E00001F07FFBB6FBF0F1009100E000940026B8
:1030F0004FF0FF374FEA040A5FFA8AF002281FDC1C
:1031000009F5307101EB4012907AC8B1107A0126AE
:10311000022820D0D9F898030169C08A99F822338F
:103120000918192010FB03115069FEF7B8F98346FE
:1031300001F057FBBBFBF0F0B84298BF074600BF59
:103140000AF1010ABAF1030FD6D3354205D0009C2B
:10315000BC4207D905E00027F7E70DB1009C01E06C
:1031600006B13C46354302D0002C00F0DA8099F8D5
:103170002103002840F0D58000260125F0B2022866
:103180001FDC09F5307101EB4011887AC8B18D72EE
:1031900091F9097001F097FA044699F8940305FA39
:1031A00007F720EA070789F8947399F8941308073A
:1031B00004D4082109F56B7001F01BFC204601F0D6
:1031C000AEFA761C032ED9D3032089F8840309F5BF
:1031D000926001F01EFB0198DFF8204501F09FFA94
:1031E0006069002161610022E068E16009F57870A2
:1031F000DFF8D01A01F076FA8E4801680A6B904722
:10320000D9F89C13814231BF401A401E401A401C1D
:10321000D9F88C134FF0FF32A2EB10328A4234BF40
:103220004FF0FF3001EB1030C9F88C0399F8900390
:1032300030B1D9F8A403D9F88C13C00288422FD238
:10324000DFF8D0040268D10725D5DFF8E00A00686E
:10325000010620D540F60900A9F870030021A9F85D
:10326000721399F87D0300F0F00040F0010089F836
:103270007D0399F87C0300F0F00089F87C03C9F81D
:103280007413E16109F55C71216000BFB9F8720344
:1032900010F4406FFAD0002189F89053C9F88C13CC
:1032A00001F0CFFADFF81C14DFF85C44002008605E
:1032B0006368180007D0207A810704D5D9F89803ED
:1032C000002202219847022001F093FC112001F016
:1032D000A9FC99F8950320B9D9F89803483002F071
:1032E000F6F9A07810B90E2001F09CFC99F8910332
:1032F00028B1002189F89113052001F07AFCDFF84C
:10330000300AC9F88803002189F884130220B9F92A
:103310006E13B9F96C23914208BF0720FEF7FFF93D
:1033200002E0019801F0FBF9FEF7EDFA28F0080839
:1033300006E05FEA480003D5FEF7E5FA28F080488A
:10334000B8F1000F07D0414609F56B7003B0BDE836
:10335000F04F01F04EBB03B0BDE8F08F0D2400002C
:103360002DE9F54CDFF8A8A3DAF8504381B09B466D
:1033700000250E4600E02468002C55D0B4420ED043
:103380002468002C50D0B44209D02468002C4BD0C3
:10339000B44204D02468002C46D0B442EBD1002CB7
:1033A00042D0206901992768884237D101F08BF912
:1033B000D4E90A2343F08051C4E90A21D4E908235F
:1033C00043F08051C4E9082101F0A9F9BBF1000FD5
:1033D00018D001F078F9D4E90A2343F08071C4E9E8
:1033E0000A21D4E9082343F08071C4E9082101F0DF
:1033F00096F99AF84C133069CAF8480341F0010174
:103400008AF84C1321460AF5547002F037F8214629
:103410000AF5567002F008F815F101059DF808004C
:10342000002818BF3C46BAD1284603B0BDE8F08C4E
:10343000020000408C010010D02108402DE9F04727
:1034400092460326BAF1000F84B081461D4614BF90
:103450004FF080474FF000570C4601F034F94FF021
:10346000FF318C420190DFF8A88256D1D8F8600372
:10347000002846D00069484543D1D8F86043002C65
:1034800000F0018194F83300010640F1FB808DF8D3
:1034900000500C9ED8F8600384421CBFD8F8641317
:1034A0008C4240F0D880D8F8605301F00CF9844683
:1034B0004DB1D5E90A013943C5E90A01D5E9082327
:1034C0003B43C5E90823604601F029F9D8F8645365
:1034D00001F0F9F884464DB1D5E90A013943C5E94F
:1034E0000A01D5E908233B43C5E90823604601F0FA
:1034F00016F9BAF1000F14BFDFF8180ADFF8180A3E
:1035000067E0D8F8640328B10069484508BFD8F8D7
:103510006443B4D0D8F85043B1E7B8F93010002074
:10352000A14202BFD8F8103000934B4505D1582175
:1035300011FB00F008EB0004A1E7B8F988100120A6
:10354000A14202BFD8F8683000934B45EFD0B8F9DC
:10355000E0100220A14202BFD8F8C03000934B45D2
:10356000E5D0B8F938110320A14202BFD8F81831CC
:1035700000934B45DBD0B8F990110420A14202BF63
:10358000D8F8703100934B45D1D0B8F9E811052037
:10359000A14202BFD8F8C83100934B45C7D0B8F953
:1035A00040120620A14202BFD8F8203200934B45BA
:1035B000BDD0B8F998120720A14202BFD8F87822EE
:1035C00000924A455FD1582111FB00F008EB00043E
:1035D00055E701F029F996B3D8F8605301F073F874
:1035E00002465DB1D5E90A0141F08073C5E90A03DD
:1035F000D5E9080141F08073C5E90803104601F0E0
:103600008EF8D8F8645301F05EF802465DB1D5E952
:103610000A0141F08073C5E90A03D5E9080141F0C8
:103620008073C5E90803104601F079F898F84C1347
:103630002069C8F8480341F0010188F84C139DF84F
:103640000000E8B10246D8F8501333464846FFF769
:1036500087FE832617E033462A4621464846FFF771
:103660007FFE78B198F8840301281CBF98F8840382
:10367000042805D0DFF8441A08F56B7001F0B9F999
:10368000832600E00426019801F049F8304604B092
:10369000BDE8F0875100070610B50C461C4991F8AB
:1036A0008423022A0BD101F0BFF804B1206000F09E
:1036B000FF00012801D1812010BD022010BD012092
:1036C00010BD000000000460F0B581B004460D4656
:1036D000164600F0F8FF07460D48D0F898138C42C4
:1036E00018BF032404D131462846FFF7D5FF04460E
:1036F000384601F014F8204601B0F0BD0010044037
:103700000100070601010E04901F020004000020C2
:10371000E021002040210840E727000030B5144692
:1037200081B00546502340F2FF3201F0A8F824B1E1
:10373000014655F82110890A216001B030BD0029E9
:1037400042D00A0E202A08BF10221AD0212A08BF10
:10375000202216D0A02A08BF302212D00AB9402257
:103760000FE0102A08BF50220BD0112A08BF602298
:1037700007D0402A08BF702203D0502A0CBF8022F5
:1037800090228901090A42EA012141F00F0100E07B
:10379000001D026812F1010F18BF8A421CBF50F8C9
:1037A000042F12F1010F0ED08A421CBF50F8042FD3
:1037B00012F1010F07D08A421EBF50F8042F12F1F8
:1037C000010F8A42E4D101607047002944D00A0EFB
:1037D000202A08BF10221AD0212A08BF202216D082
:1037E000A02A08BF302212D00AB940220FE0102AC6
:1037F00008BF50220BD0112A08BF602207D0402AF0
:1038000008BF702203D0502A0CBF80229022890169
:10381000090A42EA012141F00F0100E0001D02689F
:1038200012F1010F18BF8A421CBF50F8042F12F189
:10383000010F0ED08A421CBF50F8042F12F1010F65
:1038400007D08A421EBF50F8042F12F1010F8A429E
:10385000E4D14FF0FF31016070472DE9F04381B0B2
:103860000546089C0E461746994601F057FF0E285C
:1038700003D001F053FF0F2849D1288840F60201F8
:1038800088424FF0010860D0B0F5C15F6AD043F6BE
:103890000601884273D005F11A023260E869386087
:1038A000A96AC9F80010E86A206095F824702D7E96
:1038B000D9F8000005F0070588B105234FF6FF721F
:1038C00040F2037100F0DBFF0646052E07DA2946B9
:1038D000384600F0EBFFD9F8001041F826002068C8
:1038E00078B305234FF6FF7240F2037100F0C7FF73
:1038F0008146B9F1050F24DAFF21384600F0D6FFE2
:10390000216841F82900404601B0BDE8F0832888CD
:1039100040F60201884218BFB0F5C15F4FF00008C1
:1039200039D043F60601884207BF05F11A0030601E
:1039300005F11A023260E8693860C9F80080C4F8FD
:103940000080404601B0BDE8F08305F1120232600C
:1039500068693860A969C9F80010E8692060EF7BE0
:103960002D7CA5E705F11200306069693960686A4D
:10397000C9F80000A96A2160EF7B2D7C98E705F16A
:103980001A003060E96939600027286AC9F8000028
:10399000696A21608BE705F1120030606869CBE746
:1039A0002DE9F04186B015460C46002202920492A1
:1039B0000392019201A9009103AB04AA02A9FFF7A7
:1039C0004CFF8326E20F30D130B3039800281CBF90
:1039D000019800281AD00298048040F22B28039FF7
:1039E00041463846FFF79AFEFF281CBF48EA84216B
:1039F00047F8201001990498FFF7E7FE152028806A
:103A000030460399696006B0BDE8F08102980188EC
:103A10004FF6FF72914249D002980480102129800C
:103A20006C80304606B0BDE8F08100283ED0039897
:103A300000281CBF019800281CD002984FF6FF7187
:103A400001800022019F2B213846FFF767FEFF28E7
:103A500004D0A40244F02B0447F8204001990498B4
:103A6000FFF76DFE1520288030460199696006B089
:103A7000BDE8F081049F00222B213846FFF74EFE5F
:103A8000FF2804D0A10241F02B0147F82010FF28A5
:103A90000CD002994FF6FF70088014222A80C4F3DC
:103AA00015046C60304606B0BDE8F0810326304650
:103AB00006B0BDE8F0812DE9F043DFF8FC8889B05D
:103AC0000C001546D8F8081018BF002D1F4600F04E
:103AD000F4802278D140CB0740F1EF8006460021E8
:103AE000284600F020FFB560746000F0ECFDDFF8C0
:103AF000CC98054699F89503022880F2DB800028CF
:103B000040F0868000F0A3FFDFF8B408DFF8B44887
:103B1000016841F002010160DFF8AC08C8F800005C
:103B2000684600F025FF6078DFF8A01802906A462A
:103B300009F56B7000F024FF6A46DFF8941809F568
:103B40007F7000F01DFF684600F0E1FD20785D4ABF
:103B500001906B46192109F5787000F091FD6B46D4
:103B6000DFF870281A2109F5866000F089FD00232E
:103B70000022DFF8641809F24C4000F00BFE00232D
:103B80000022DFF8581809F5926000F003FEDFF814
:103B900050080168C1F3814038B10023DFF84428A0
:103BA000042109F2D44001F00EF8A078012804BFE6
:103BB0000E2001F09EF809F5567001F003FC09F59E
:103BC000547001F0FFFB002089F88403C9F88C03CE
:103BD0000021072089F8901389F8911389F82003B0
:103BE000C9F89C1300200521C9F8A003C9F8A41343
:103BF00089F894034E49C9F888136368180007D000
:103C0000207A410704D5D9F8980300220421984767
:103C100099F8950309EB8002401CC2F8286389F8E3
:103C200095033C46284600F07AFD3CB90FF2D84196
:103C300091E8BC51684680E8BC516C462068306011
:103C40004FF4FA71F160A06970620120218AF1825B
:103C50007075E169F162606818B1306100203075FB
:103C600004E040F6C410012130613175DFF8EC0743
:103C7000F0613062B061E06800B1F061606900B18C
:103C80003062A06800B1B061C82106F1300001F0D7
:103C9000B5FD002106F1480001F0D8FC0023002208
:103CA000DFF8DC1806F1B00000F074FD304609B012
:103CB000BDE8F083284600F032FD002009B0BDE8E1
:103CC000F0830000452700002DE9F04D00F0FBFCDB
:103CD000DFF8E84694F8841302291CBF94F8841393
:103CE000042907D1DFF89C28146800F018FD20464D
:103CF000BDE8F08D00F013FDDFF88C08DFF82489B3
:103D000001680A6B904710F5003641F1000AD4F8BB
:103D10008013A8FB067B002008FB0ABB3C184BEB7A
:103D200001052C462046BDE8F08D0000000004404F
:103D3000972900002DE9F04F83B081460F461546C4
:103D40009B4600F0C0FC01906FF00106DFF86C8626
:103D5000D8F82803814508BFD8F82C0330B1B0301B
:103D600000F044FD10B16FF00206AAE0FDF74CFB35
:103D7000040000F0C680DDE90C6A08F5926000F0EE
:103D800048FDB8F86C03401CC0F30B00A8F86C03A6
:103D9000E760002084F83200C4F808B02021B8F8A9
:103DA0006C23DFF884082286C4F8109030400AEAB9
:103DB0000101C4E90601002284F83320C4E9082285
:103DC000EE6826642A7C84F844202B6863632A7991
:103DD00084F83820AB68E3636A69A264AB69E36482
:103DE0002A7F84F850206B7F84F851302A7C22B9D6
:103DF000EA6812B1012384F844302A79002A02BF0C
:103E00003A7B02F00F02022A04D1012284F8382002
:103E1000BB686363082301E017465B1E7A68002ACB
:103E200018BF002BF8D13A8802F47C42B2F5305F1B
:103E30000AD194F8332042F0100284F8332040F085
:103E40000800C4E9060103E040F00202C4E90621CB
:103E5000D8F84803484507D198F84C03C10744BF38
:103E600000F0FE0088F84C03DFF8C00706686FF02A
:103E700002050EB92E461DE0D8F8642308F55670E9
:103E8000009008F55473D8F860132046B0470646F2
:103E9000AE420FD0B8F96C03B4F93010884206D0A6
:103EA000B8F86C03411EC1F30B01A8F86C1316F1AE
:103EB000020F0FD1B8F86C03411EC1F30B01A8F833
:103EC0006C13C8F8489398F84C0340F0040088F845
:103ED0004C0316E0B4F9306094F8330040F08000F1
:103EE00084F83300002189F8F410D8F85003A04278
:103EF0001FBFE168087B00F00F00022808BFFDF734
:103F000002FD019800F00BFC304603B0BDE8F08FD5
:103F1000000000000100020401000104F0B50646A3
:103F20000F46380081B014461D4603D500200021FD
:103F300001B0F0BD00F050FDDFF88024B2F9303060
:103F40000021BB4202BF13690093B34203D192F830
:103F500033301B0660D4B2F988300121BB4202BF66
:103F6000936E0093B34203D192F88B301B0653D467
:103F7000B2F9E0300221BB4202BFD2F8C030009358
:103F8000B34203D192F8E3301B0645D4B2F938317D
:103F90000321BB4202BFD2F818310093B34203D1D0
:103FA00092F83B311B0637D4B2F990310421BB4261
:103FB00002BFD2F870310093B34203D192F893312B
:103FC0001B0629D4B2F9E8310521BB4202BFD2F861
:103FD000C8310093B34203D192F8EB311B061BD4D6
:103FE000B2F940320621BB4202BFD2F82032009320
:103FF000B34203D192F843321B060DD4B2F9983282
:104000000721BB4202BFD2F878720097B7420BD1AA
:1040100092F89B723B0607D5582313FB01F1571802
:1040200097F833100A0605D400F0E5FC02200021C1
:1040300001B0F0BDD7E9082344F00A0445F0E0459B
:1040400022402B4008BF002A0ED000F0D4FCD7E954
:10405000080120402940C6E92A01D7E90823824304
:104060008B43C7E9082312E0BA68DFF8C4158A4217
:1040700003D0BA68C6F8A020B960C6E9264500F0AA
:10408000BAFC4FF0FF3106F1480001F015FBD6E90C
:104090002A0101B0F0BDD0B582B00446DDE9066763
:1040A000CDE90067FFF746FE0146204602B0BDE8B5
:1040B000D0400A224FF0E04330E700000200004009
:1040C00000B581B0930803F001030093530803F097
:1040D000010302F00102FFF7B1F901B000BD00B524
:1040E00081B0930803F00103009302F00102012361
:1040F000FFF7A4F901B000BDF0B500BF02A191E83F
:10410000FC5080E8FC50F0BDFFFFFFFF0000000006
:1041100000000000000000003A013A010000000029
:1041200000000000000000000022FFF7CDBA0022CE
:10413000FFF7CABA00B581B06A46DFF8FC14FFF792
:10414000C3FA812803BF0098000200166FF07F00B9
:1041500001B000BD70B50E46154600F0B4FA8324D8
:10416000052E36D8DFE806F0030F15351F28DFF8D7
:10417000C424D2F8601321B1D2F860130A8E2A80C9
:1041800028E0802426E0DFF8AC1491F820232A8070
:1041900020E0DFF8A01491F88423022A0CBF01214B
:1041A0000021297016E0DFF88C14D1F828232A604A
:1041B000D1F82C1369600DE0DFF87824D2F82813C9
:1041C00001B1C9682960D2F82C1301B1C9686960CE
:1041D00000E0032400F0A3FA204670BD70B4DFF8BD
:1041E0005434B3F93040002281B08C4202BF1E69C2
:1041F0000096864203D193F833502C0660D4B3F96D
:10420000884001228C4202BF9E6E0096864203D1F6
:1042100093F88B502C0653D4B3F9E04002228C4221
:1042200002BFD3F8C0600096864203D193F8E350F2
:104230002C0645D4B3F9384103228C4202BFD3F88F
:1042400018610096864203D193F83B512C0637D46F
:10425000B3F9904104228C4202BFD3F870610096FA
:10426000864203D193F893512C0629D4B3F9E8413F
:1042700005228C4202BFD3F8C8610096864203D162
:1042800093F8EB512C061BD4B3F9404206228C4222
:1042900002BFD3F820620096864203D193F84352BE
:1042A0002C060DD4B3F9984207228C4202BFD3F8F2
:1042B0007812009181420BD193F89B02010607D539
:1042C000582010FB02F29818C06801B070BC70470B
:1042D00001B070BC002070472DE9F04B0E4682B053
:1042E00096F9048034688346174600F0ECF9334AA7
:1042F00092F8201300906FF001094FF0000C012399
:1043000003FA0CFE11EA0E0F50D04FF0FF35A8450E
:1043100018BFE0454AD15FFA8CF0032846DA02EB79
:10432000401505F53075A87A00283FD121EA0E0026
:1043300082F82003AB7285F809C00A2192F82203A3
:10434000401C82F82203C5F800B02B7200234348BA
:104350006860298295F90900401DA874B0686861F9
:104360007FB13B7878785B0143EA800395F90900D7
:10437000401D43EA00234FF6FC710B40DFF8BC02FE
:104380000343AB6104B16C60D2F8980310B929689B
:10439000C2F89813FDF7B7FA95F90990009800F064
:1043A000BEF9484602B0BDE8F08B00BF0CF1010C2D
:1043B000BCF1030FA4D3F1E7CC210840E021002099
:1043C00000200940901F0200110000E0FD260000BF
:1043D00043230000BD2200001B27000065250000CC
:1043E000B44F0050CF160000F0B581B006460F461E
:1043F000802400F068F9FFB2032F054627DADFF8C2
:10440000343203EB471101F53077B87AF8B13968E7
:10441000B1421CD193F88403022812D197F90910F4
:10442000D3F89803491D0906090C41F08161002267
:1044300041F00101FFF748F904463846FDF7A5F8B9
:1044400005E03846FDF7A1F8FDF75DFA812428461E
:1044500000F065F9204601B0F0BD0000FB26000029
:104460002DE9F04107460D461646832400F02BF94E
:10447000092D804600F27D80DFE805F005080E1169
:10448000141A4052686D3068386073E03869012151
:104490006030797538616DE03068F8826AE03168C3
:1044A000398567E03068DFF88C11C1F8A40361E05A
:1044B000306850B900F007F9DFF8781191F89423CB
:1044C00042F0800281F8942315E0012851D100F0D8
:1044D000FAF80646574890F8941301F07F0180F8E7
:1044E000941390F894130A0704D4082100F56B7014
:1044F00000F07FFA304600F012F93BE04D4991F8A8
:104500008403002804BFD1F85003002811D131687A
:10451000192000F0FAF831681A2000F0F6F829E0C6
:10452000444F97F88403002804BFD7F850030028AD
:1045300001D000241EE0316807F56B7000F05DFAD1
:10454000316807F57F7000F058FA13E03078394988
:1045500081F820030EE03A48436819000AD0007A37
:10456000810607D53348D0F8980332462021984772
:1045700000E00324404600F0D2F82046BDE8F08178
:10458000AD250000043004408C01001030B5044615
:1045900083B0A0686A46FFF703FA8328054604D172
:1045A000002269462046FFF78FF8284603B030BD49
:1045B00030B585B00FF28C02002301AD146804936E
:1045C000039302930193009502AB806803AA04A9A8
:1045D000FFF743F9049909884FF6FF7291421BD106
:1045E000E8B1029800281CBF0198002802D06A4652
:1045F0002B2102E003986A462B21FFF78FF8FF2852
:104600000DD00098A40DC0F3150040EA845444F086
:104610000044204605B030BDA40D41EA8454204634
:1046200005B030BD00093D00FFEFFF9FB020020044
:10463000B3250000E021002001000304010004066E
:10464000901F0200FFFF3F00DFF800F055EB021063
:10465000DFF800F047EC0210DFF800F095EA0210F6
:10466000DFF800F049EB0210DFF800F075E402100B
:10467000DFF800F01DD90210DFF800F019E9021090
:10468000F0B51C008DB005460E46174604D1002338
:1046900001F0C4F80DB0F0BD0823302200216846B7
:1046A000FFF7DEFF206805906B46606808903A4689
:1046B000207AADF818003146284601F0AFF80DB069
:1046C000F0BDFFF7D1BFFFF7BFBFFFF7D1BF00B508
:1046D00081B0FFF7C1FF401E8041C00F01B000BD97
:1046E00001F0BCB8F0B581B004460D461646FFF7A0
:1046F000ABFF0746324629462046FCF75DFE3846AA
:1047000001B0BDE8F040FFF7A3BFFFF7B5BF002140
:1047100001604FF0FF320123426003727047FFF7E0
:1047200097BF02460229107803D1517800EB01208F
:104730007047032906D15178927800EB012000EBF5
:1047400002407047042908D15178937800EB01208A
:10475000D17800EB034000EB01607047DFF800F018
:104760009DEB0210DFF800F0C5E20210DFF800F068
:10477000C3EC0210DFF800F0E7E90210DFF800F008
:104780008DDD0210DFF800F049E60210DFF800F0DE
:10479000FDE90210F0B51C0089B005460E4617462B
:1047A00005D10023FFF7EAFF284609B0F0BD082332
:1047B000242200216846FFF7D1FFA16806916B46CD
:1047C0002278ADF810203A466068059031462846B8
:1047D000FFF7D4FF284609B0F0BDFFF7D3BFFFF7BE
:1047E000D5BF0D480068704701F046B800B581B0EC
:1047F00001F05BF8401E8041C043C00F01B000BD16
:1048000000218160017041607047FFF7AFBFFFF783
:10481000B1BFFFF7A7BF0000FC20020046490A68AD
:104820001040C2430A607047444A11680029FCD115
:104830000023D3611060D0690028FCD0D16150689A
:1048400070473F48016821F0020141F4087101609E
:1048500003213C48016041F23002C2600123436001
:104860005021C16043604FF4CA61C16043604FF49E
:104870008651C160436034490B607047704770B423
:104880000446002000E0401C98420BDA256815F130
:10489000010F07D054F8046B16408E42F3D170BC60
:1048A000C0B2704770BCFF20704700001E281DD8A2
:1048B000DFE800F0101C131C1619161C1C1C191C18
:1048C000161C1C191C1C1C1C1C1C1C1C1C1C1C1C31
:1048D0001C1C190040F2025209E04FF4817206E0FC
:1048E0004FF2011203E041F2011200E00022FF2921
:1048F00009D14FF6FF30024042F0C00240F203708F
:1049000040EA02407047080008BF42F0300205D07C
:10491000C8074CBF42F0100242F0200240F2037080
:1049200040EA024070470020704708490A6810407A
:10493000C2430A6070470000101004400010044099
:10494000000004605460044000410440081004402A
:10495000DFF800F025EA0210DFF800F061DB02105A
:10496000DFF800F0F1EB0210DFF800F0BDE8021014
:10497000002101604160C1604FF0FF3181607047EC
:1049800070B514008AB005460E4604D1002200F02E
:1049900093FF0AB070BD1E49A0680A68904204D314
:1049A00010F1010F18BF002012D108232822002186
:1049B0006846FFF7D5FF206804906A466068059056
:1049C0003146E0680790A0680690284600F074FF22
:1049D0000AB070BDFFF7C8BFFFF7BABF00F078BFDD
:1049E00000B581B0FFF738FE012818BF002001B0E4
:1049F00000BD00F077BFFFF7AFBF054A13689942CB
:104A000002D311F1010F01D100F07CBF704700000B
:104A100024120000DFF85809806870470246002021
:104A2000022904D1012A06D140F2EE207047012A62
:104A300008BF4FF47A707047DFF8341991F84101DC
:104A400020B1D1F86C01002818BF004770472DE94C
:104A5000F041DFF81C4994F84201002884B040F08E
:104A6000AE800121DFF80C69DFF80C5984F842119F
:104A7000307B84F841017168C4F86C11A868C0F3F8
:104A80008140B8B93069A8B12F68FFF7AAFEC7F313
:104A90000662642111FB02F2B2FBF0F200230FF672
:104AA000B90104F19400FFF775FEDFF8D0184FF05C
:104AB0000040086001A8FFF7A3FE002002908DF8D7
:104AC00004000022039201AB0FF2D961DFF8B07845
:104AD00004F10C00FFF75EFE01A8FFF791FE002035
:104AE00002908DF80400039001AB0822DFF89418BF
:104AF00004F15000FFF74EFE00230FF2ED52322179
:104B000004F1D800FFF7BCFD002038600023DFF877
:104B100078282C2104F1F400FFF7B2FDDFF86C08CF
:104B20000178A968707BC1F3815128B1032903D1B1
:104B3000012084F8390121E0032918BF02291DD082
:104B400001291AD1DFF84868DFF84878032000907F
:104B50001C23D6F800C0DCF804804FF0405200213E
:104B60003846C047012000903846366877680923E8
:104B70004FF400720021B84711E081B9386840F065
:104B800040003860FFF79FFDA16841F00401A1607B
:104B900094F84511491C84F84511FFF7C0FD686879
:104BA00040070CD4FFF78FFDA16841F00101A1601F
:104BB00094F84311491C84F84311FFF7B0FD00201D
:104BC00004B0BDE8F08130B581B0002408B1150013
:104BD00004D16FF00204204601B030BD8160C26094
:104BE00003610146DFF8880700F01EFC204601B093
:104BF00030BD10B50446FFF766FDDFF874170A19DB
:104C000092F843315B1E82F84331DBB233B98A68D4
:104C1000012303FA04F422EA04048C60FFF77FFD09
:104C2000002010BDF0B581B00546FFF74CFD0446ED
:104C3000DFF83C17481990F84A21521E80F84A21A3
:104C4000D2B232BBDFF8500700EB850210F82550D6
:104C50005688280623D5DFF8447739680A6A304633
:104C6000904739688A6A3046904739680A6B3046FF
:104C70009047DFF82C1701200860DFF8280701684B
:104C80008907FCD505F03F05152DBCBF2846FFF769
:104C9000C9FF2046FFF743FD002001B0F0BD6806C4
:104CA00006D501EB86010020D1F860219047E9E7A5
:104CB000DFF8E8160B689A6930469047304600F0F6
:104CC0003DFE0228FAD1DDE710B50446FFF7FBFCF4
:104CD000DFF89C168A680123A3401A438A602144A6
:104CE00091F84321521C81F84321FFF718FD002061
:104CF00010BD2DE9F0410646FFF7E5FC0446DFF85C
:104D00007056A81990F84A114A1C80F84A2139BBFC
:104D1000DFF8848618F8260000F03F001428D8BF7A
:104D2000FFF7E7FF08EB8600478818F82600010622
:104D30001CD5DFF868562A68D169384688472A6842
:104D4000516A384688472A68D16A38468847DFF86A
:104D5000502601201060DFF84C0601688907FCD559
:104D60002046FFF7DCFC0020BDE8F081400606D5B8
:104D700005EB87010120D1F860219047F0E7DFF8CB
:104D80001C160B685A6938469047384600F0F3FD08
:104D90000128FAD1E4E72DE9F04F0026002501288B
:104DA00081B0AA4618BF6FF0010840F02E81DFF8ED
:104DB000C075D7F83401012844D10221C7F8341155
:104DC00000F05CFE012000F0F0F95FEA00083FD13E
:104DD00097F85B0108B14FF0010A97F85A0108B142
:104DE0004AF0020A97F8590108B14AF0040ADFF8BC
:104DF000AC45A16A0A680120904701281CBF97F8BA
:104E0000380101284ED100F0BDFBDFF86CB5DBF8AE
:104E100008000125C0F3814040BBDFF85805016957
:104E20000091080022D007F19400FFF7F2FCDBF8B4
:104E30000000DFF87815C00F14BF4FF441504FF455
:104E400082500EE06FF00408404601B0BDE8F08FDC
:104E50000120C7F8340100F01AFE404601B0BDE859
:104E6000F08FC1F8800000200099884797F838013A
:104E7000C0B1DFF83C05C16E21F08001C16680221F
:104E80004267FFF720FC97F84611491E87F8461144
:104E9000C9B219B9B96821F00801B960FFF73FFC40
:104EA00087F83861387AC10748BF012608D4216ADB
:104EB000DFF800058A6890478146B9F1040FF6D003
:104EC0004FF0FF320021304600F00CFE76B9B9F108
:104ED000010F05D1226ADFF8DC04536801219847ED
:104EE000DFF8CC04016841F00301016050462268FC
:104EF0005169884797F8550120B12168CA6A4FF473
:104F00008060904797F8540120B12168CA6A4FF435
:104F100081609047DFF88814DFF89C340120086036
:104F200000221A600320C7F83401504600F023FD28
:104F30000128FAD1DFF87094D9F80000042000F0BD
:104F400034F90646DFF8741401200860002DD9F802
:104F500000204CD0A16A0A689047012847D097F8F2
:104F60003801002843D1DFF81044A068C0F3814025
:104F7000C0B9DFF800040569A5B12068DFF82C147A
:104F8000C00F19BF4FF4405008604FF480520A60C0
:104F9000502000F061FE0120A84707F19400FFF7C0
:104FA00036FC01E000F0B4FA012087F83801A0686F
:104FB000C0F3814018B9DFF8BC13086950B9387ADA
:104FC000810607D4DFF8E80380224267C16E41F012
:104FD0008001C166FFF777FBB96841F00801B9604D
:104FE00097F84611491C87F84611FFF798FB00F027
:104FF0002FFE082000F0D9F806430120C7F834013D
:1050000000F045FD0EB14FF0FF38404601B0BDE85D
:10501000F08F30B581B00446FFF755FB05462146B9
:10502000DFF84C0300F02AFA284601B0BDE8304012
:10503000FFF775BB10B50024022802D0032805D065
:1050400008E000F00DFE0446204610BD00F092FF7F
:10505000204610BDFEE7F0B581B0FFF734FBC44930
:10506000054691F83801012460B1DFF82463DFF8C8
:1050700024033768D7F80CC0002301223C21E04705
:1050800000B900242846FFF74AFB204601B0F0BDD6
:1050900030B581B0FFF717FB044600F048FAB44D75
:1050A000002085F83801FFF70EFB95F84611491EE0
:1050B00085F84611C9B219B9A96821F00801A9609B
:1050C000FFF72DFB2046FFF72AFBAA488468022041
:1050D000A0470546102000F068F8012D04BF03200A
:1050E000A04701B030BD00002DE9F041A44C82B0D2
:1050F0006568206820EA050105406A06216049D5F7
:10510000A34EF16B0A6804209047022818BF0328B9
:1051100019D001283ED1032000901C23D6F800C0EE
:105120009C4FDCF804804FF0405200213846C047C5
:105130000120009038463668776809234FF40072E2
:105140000021B84726E0032000901C23D6F800C0B9
:10515000904FDCF804804FF0405200213846C047A1
:105160000120009038463668776809234FF40072B2
:105170000021B847FFF7A7FA7D4991F84521521E53
:1051800081F84521D2B21AB98A6822F004028A60F5
:10519000FFF7C5FA280648BF00F022F8A56002B064
:1051A000BDE8F08170470020704730B50546704873
:1051B000046881B05CB1A068284205D02269E36828
:1051C00000212846984728B92468002CF3D10020F4
:1051D00001B030BD4FF0FF3001B030BD002070474E
:1051E00030B581B0FFF76FFA4FEA000400F09FF985
:1051F0000028FBD0FFF767FA5D4D95F84611491E70
:1052000085F84611C9B219B9A96821F00801A96049
:10521000FFF785FA002085F838012046FFF77FFA6E
:10522000544884680220A04705461020FFF7BDFFC0
:10523000012D04BF0320A04701B030BD70B5012887
:105240004CD15F490A6813689847012800F08180B3
:10525000474D95F8380100287BD1474EB068C0F320
:105260008140B0B9434804699CB130684F49C00FD0
:1052700019BF4FF4405008604FF480520A6050202C
:1052800000F0EAFC0120A04705F19400FFF7BFFA07
:1052900001E000F03DF9012085F83801B068C0F365
:1052A000814010B93349086948B9287A810606D483
:1052B000334880228260016841F080010160FFF77D
:1052C00002FAA96841F00801A96095F84611491C45
:1052D00085F84611FFF723FA002070BD002838D169
:1052E00000F050F9244E224DB068C0F38140A0B9BF
:1052F000204804698CB105F19400FFF78AFA306800
:105300002A49C00F19BF4FF44150C1F880004FF433
:105310008252C1F880200020A04795F83801C0B122
:105320001748016821F08001016080218160FFF74A
:10533000CAF995F84611491E85F84611C9B219B93E
:10534000A96821F00801A960FFF7E9F9002085F8B4
:105350003801002070BD000000B5144981B0402024
:10536000086000F0D5F801B05DF804EB38E7000004
:1053700078170020741E0200AC4F005000A10C40B2
:1053800090220840E1600000D15C0000D549002077
:10539000A401001000A00C405C050200B801001040
:1053A00028200860282008402C200940A8A00C4094
:1053B0002422084000400340800104430C4009407F
:1053C000E001001010B50446FFF77DF9002161608F
:1053D0002160BDE81040FFF7A2B930B581B00546A5
:1053E000FFF771F92C683CB1216829602168002918
:1053F0001ABF00224A606960FFF791F9204601B0A8
:1054000030BD70B504460D461646FFF75CF92E60B8
:10541000716869607168002914BF0D60256075604E
:10542000BDE87040FFF77BB930B581B004460D464A
:10543000FFF749F90021296062686A606168002904
:1054400014BF0D602560656001B0BDE83040FFF716
:1054500066B930B581B004460D46FFF734F92168CE
:10546000296000226A602168002914BF4D606560D0
:10547000256001B0BDE83040FFF751B930B581B0CB
:1054800004460D46FFF71FF929686A6800290CBF1A
:1054900062604A6069682A6800290CBF22600A605D
:1054A00001B0BDE83040FFF73AB930B4002513E051
:1054B00050F8042BD30744BFA9F101039A18091F20
:1054C000042942F8045BFAD213468C0744BF1580C6
:1054D0009B1CC90748BF1D7050F8041B0029E7D169
:1054E00030BC704738B5DFF80801DFF80851048890
:1054F00014F0010403D14FF0012129600088DFF886
:10550000F8201168884714B14FF08070286031BDD1
:1055100010B5DFF8F82013685C6801210120A0476E
:10552000DFF8DC00DFF8DC100068886010BD38B5FB
:10553000DFF8C840E16B0A680120904701281FD0BE
:105540002468DFF8AC00E568002301223C21A8476D
:10555000B8B1FFF7C7FFDFF8A800DFF8A83002688E
:105560009968DFF8A4001C68DA60A4EB9404521A6E
:105570004243120C1A6019688C4238BF0C461C60FA
:10558000012032BD38B5DFF884402268536800211D
:105590000120984721680A680120904708B1FFF769
:1055A000A1FFDFF85C00DFF85C5000686860E0682D
:1055B00001688847286131BD70B5154CA268E5685F
:1055C0001B3800FB00F100FB01F681FB0223C6FB48
:1055D00005236568C0FB05232068120942EA0372AF
:1055E000C117101841EB2311000C40EA014070BDB7
:1055F00000A00C4004A40C4080000010A401001086
:1056000030200940A848002040420F00E00100106F
:10561000BC480020DFF800F0E5EB0210DFF800F0F6
:10562000C1DD0210DFF800F049DC0210DFF800F005
:10563000DBEC0210DFF800F0FDE60210DFF800F00E
:10564000B1BF0210DFF800F021CD021030B589B0F3
:1056500004460D460823242200216846FFF7DAFF9E
:1056600001218DF818106A4629462046FFF7D6FF1B
:10567000204609B030BD10B58AB004460823242264
:1056800000216846FFF7C6FF01218DF8181020465B
:10569000034A6946FFF7C6FF0AB010BD00000000CC
:1056A0000414002000B581B000906846FFF7BEFFEB
:1056B00001B000BDFFF7BEBF00B581B0FFF7BEFF70
:1056C00000280CBF4FF0FF30002001B000BDFFF7F5
:1056D000B9BF70B54A1ED2B2002305E0D51AC45C2A
:1056E000465DC65444555B1CB3EB510FF6DB70BDF1
:1056F00034480068000C00F00700072828BF4FF06E
:10570000FF30704730490968C1F30F314BF6413221
:105710004FF0FF30914208BF0420704738B5FFF7C3
:10572000F1FF28490B68DD0D04284FF0FF34C3F367
:105730004061C3F3006221D11B0B03F00F03082B60
:105740001BD0092B14D00F2B18D1E80704D5002942
:105750000CBF0D240E2411E0114218BF11240DD1ED
:1057600009B10F240AE0002A0CBF0B24102405E025
:1057700000290CBF09240A2400E00C24204632BD75
:10578000000000001048114970B505680E682D0F23
:1057900006F0FF06802E28BF0026FFF7B3FF04287F
:1057A0004FF0FF340CD1032D0AD8DFE805F00202D8
:1057B00004070A2404E006F10B0401E006F11504D5
:1057C00060B270BD9412005018130050A010005029
:1057D00080B5FFF797FF042804D1FFF7D3FF142803
:1057E00000DB01BDFEE700220A6043684B604268AF
:1057F000002A14BF1160016041607047002200F070
:10580000A7BC01700A0A0B0C090E42708370C170AC
:10581000001D7047DFF800F021D40210F8B50446EF
:105820000B480C4F0668F8690D4650F82510B14238
:105830000AD10948009029462046FFF7EBFFF86996
:1058400050F82510B14201D10020F2BD2046F2BD32
:105850001C1200005011002004140020102803D353
:1058600002491038C1F8000F704700BF00E000E0A7
:10587000DFF800F011DC021070B5044600F076FC91
:105880000646A08A002501280AD1FFF7F1FF054648
:10589000E068A168451BA9423EBF2069A8420025D7
:1058A000304600F064FC284670BD808A70470000D6
:1058B000DFF800F019D7021010B50446034BFFF7CC
:1058C000F7FFA06800B90024204610BD0414002092
:1058D00001488068704700BFE4100020DFF800F046
:1058E00091D8021038B504460D4600F04DFC616AAF
:1058F0000D43656200F049FC2046BDE83240FFF7E9
:10590000EDBF0A0570B50D4615F1010F044608BF3D
:10591000052500F039FC06460120A840A06165611C
:105920002946054A506900F02DFCA0623046BDE8CA
:10593000704000F02ABC00BFE410002030B51C4BC2
:105940001A685B6D0021C50704D5D40701D45B0735
:1059500000D50121830703D5540804F00104214335
:10596000400703D5920802F00102114309B101205A
:1059700030BD022030BD30B50D4B1A685B6D012182
:10598000C50704D5D40702D45B0758BF002183079D
:1059900003D5540804F001042140400703D59208C0
:1059A00002F00102114009B1012030BD022030BDDA
:1059B00040210840DFF800F04DEA0210DFF800F067
:1059C00045DF021030BF704770B500F03DF9354C2F
:1059D000206941688847FFF71DF8054605F00C006F
:1059E0000C2804D1AFF30080FFF7ECFF40E068071C
:1059F00025D400F0F5FB064601210120FFF70EF843
:105A00002949096801FB06F2904218D2F020B0FB48
:105A1000F1F0264C311A04F10C00FEF7A7FE04F158
:105A20000C00FEF7A7FEAFF300800120FFF7B3F9EB
:105A3000AFF3008004F10C00FEF794FE1AE0AFF320
:105A40000080280712D4216819488A6890470428E2
:105A5000F9D0E90600D408B9012000E0002000F0E8
:105A60002DF8144801210160006801E0FFF7AAFF4A
:105A7000AFF30080BDE8704000F0EAB810B50E4CFE
:105A8000FFF798FF2060FEF763FF606010BD10B560
:105A9000094C6068FEF760FF2068BDE81040FFF722
:105AA0008DBF0000D8010010FC20020078170020F4
:105AB000004003402C200940E047002010B5514928
:105AC000514C08605148026842F0030202602020F5
:105AD00021688A6990474E4801682268906BBDE84A
:105AE000104000472DE9F8430546884691460020BE
:105AF00000F059F84748464F434C474E002101609B
:105B000027203A6821688A699047716943480140B3
:105B100071614FF48060F16D21F48071F16521684D
:105B20000A6B904721680A6B4FF4816090472168A7
:105B30000A6B4FF4C06090473949324A012008602F
:105B4000C2F80080012337480360374801688A079C
:105B500007D419F1010F06BF4FF04041C160C0F8F2
:105B60000C90386830688007FCD50720FFF7E6FE08
:105B70000228FAD195B9216A2C4D8A6828469047A7
:105B80000428F8D0012804D1226A5368032128464A
:105B900098471E4801688908890001602068816B68
:105BA000BDE8F143084710B51F4801688A0702D5D0
:105BB0001F49C16010BD1F480468A10220D41E48BF
:105BC00001680A6890472417C0F13E00641CC010A9
:105BD0001A4909680728C8BF0720A042B8BF204655
:105BE000C1F30321081A0F28C8BF0F2002DC0128C7
:105BF000B8BF0120124940F0F00008701148027847
:105C000010BD00008C210840B8010010242208407B
:105C10002C2009400C40094028200840FFFFFEFED0
:105C20002820086080010443100009400040034020
:105C3000FD000040B44F0050EC0100100C13005068
:105C40005A6208400D620840EFF3108072B6704748
:105C5000EFF3108062B670470138FDD1704770478E
:105C600030B5DFF8AC5495F83901002481B0002834
:105C700002BFDFF8A014887B00280CD0FEF723FDBC
:105C800095F83B11002906BF012285F83B2101242C
:105C9000FEF745FD14B1002001B030BD0220FFF732
:105CA00013F80E20FFF725F8DFF86C14086810B120
:105CB000012001B030BDDFF8640440220260426080
:105CC0000120C861002185F83A11002001B030BDE3
:105CD0002DE9F041DFF8481482B000200860DFF8B9
:105CE000304494F83A01002800F0408101283FD167
:105CF000DFF830140D68DFF830140A684BF2F52035
:105D000045432D0A02F44022B2F5802F13D1DFF86B
:105D10001C0401688A030ED4DFF81464B06C0168B7
:105D20008847FFF749FCF16BCA6890472F09C010FC
:105D3000474305EBE73594F8400118B1002184F89A
:105D4000401106E0DFF8EC03006820F07F402D18DA
:105D50006D08DFF8E403DFF8BC23056001212D0C9A
:105D600045608160907B002800F0B8800221FBE054
:105D7000022840F0B980DFF8AC030568DFF8BC0307
:105D8000C16AC1F30721C4F814110168C1F3844149
:105D9000C4F81811B5F5C061C069C4F81011C0F39A
:105DA0008120C4F8280103D1002084F8300191E05B
:105DB00094F8300168B9D4F81801D4F81421C4F863
:105DC0002001C4F81C21C4F82C11D4F82801C4F80F
:105DD0002401D4F82C0100284CBF6FF001010221EE
:105DE00000EB40000818D4F82011421000EB92702C
:105DF000D4F81421C4F81C2101EBA0010029C4F837
:105E0000201115DCD4F82401032805D11531D8BFA1
:105E10000121C4F8201124E00B31D8BF0121521E0A
:105E200048BF0022C4F82011C4F81C21032019E047
:105E30001E2919DDD4F8240138B915391E29C8BF27
:105E40001E21C4F8201103200CE00B391E29C8BF05
:105E50001E21521C3F2AC8BF3F22C4F82011C4F89B
:105E60001C210020C4F824010823B14ED4F81C01E1
:105E7000B34F80B200904FF47F42D6F800C0DCF8F8
:105E8000048030213846C047012000901123D6F805
:105E900000C0DCF804804FF4003204213846C047CB
:105EA000D4F8200180B200901223D6F800C0DCF8AC
:105EB00004804FF4F80204213846C047D4F8240186
:105EC00080B200903846366877680A234FF4406203
:105ED0002021B847A5F2FF55032D03D20620C4F8B0
:105EE0003C0143E004213FE003283FD18D48006896
:105EF000D4F81011A0F5C0600029C4F82C0148BFE7
:105F00004942002848BF40428142A8BF002028DA09
:105F1000874DD4F814018A4E80B2009008232F6870
:105F2000D7F804C04FF47F4230213046E047D4F820
:105F3000180180B2009012232F68D7F804C04FF4E4
:105F4000F80204213046E047D4F8280180B20090DE
:105F500030462D686E680A234FF440622021B04716
:105F6000012084F830010621C4F83C1102B0BDE8DC
:105F7000F04100BF2DE9F04782B0724C6C4DDFF864
:105F8000C081714EDFF8889142F62A2709E000BFF0
:105F9000C9F83C010321216000207060706881070E
:105FA000FCD4D9F83C01062800F29980DFE800F023
:105FB000048A6F774C542F00012131600F22E26078
:105FC0002761022000900723D5F800C0DCF804A068
:105FD0004FF4C07200214046D047D5F800C0DCF82D
:105FE0000CA007234FF4C07200214046D047012087
:105FF000306031688807FCD50121E16199F83901E9
:1060000000281DBF0021316301200320C0E70021CB
:106010003160716031688807FCD471688807FCD4EE
:1060200000213F4A3C4B1160012018600E20FEF712
:10603000F9FD0220FEF7DDFD0020C9F83C0189F8DA
:106040003B0102B0BDE8F0870520C9F83C01002102
:10605000716070688107FCD400210091032089F8E9
:106060003A0104232C68676870224046B8472C68C0
:10607000E5687023702200214046A8470120706027
:1060800002B009F15000BDE8F047FEF7C0BB0320A5
:10609000C9F83C010021716070688107FCD40021BF
:1060A0000091022089F83A0104232C686768702265
:1060B0004046B8472C68E5687023702200214046AE
:1060C000A847DBE70120022189F83A010091042367
:1060D0002C686568702200214046A847CEE7FEE79D
:1060E0001A4801688A07FCD509491648D1F83C21AD
:1060F000012A07BF20218161012282610021016004
:10610000082206490A604A600121016070470000C8
:1061100078170020741E020004800C4038500C4098
:106120003C500C4008400C40B44F00508C130050C1
:10613000A4010010102009407C600C4004A00C4019
:1061400000A00C4000400C4054600C4058600C40D3
:106150004018491C1CBFB1F1010100F8012DF9D113
:1061600070470603DFF800F07DE8021000E006E06B
:10617000EFF31180202181F311887047000080F334
:1061800011887047FFF7EEBFF2E7F8E7F0E7F6E7B0
:106190000000EDE7F3E70E49C20744BF01230B609F
:1061A000820744BF4FF480730B60400744BF4FF435
:1061B00080320A60704710B5064AC30748BF1160B5
:1061C000840748BF5160400748BF916010BD000080
:1061D0000420094018200940DFF800F0C5EA021049
:1061E00070B5FFF7C3FF094E0446B0680021FFF702
:1061F000F3FF05467069B169451BA94238BF002508
:106200002046FFF7B4FF284670BD00BF8010002075
:10621000DFF800F07DF40110DFF800F01D430210FC
:10622000DFF800F0ED500210DFF800F0E16D021031
:10623000DFF800F0D56D0210DFF800F0CD69021034
:10624000DFF800F0ED410210DFF800F0C96D021038
:10625000DFF800F019510210DFF800F0556C021061
:10626000DFF800F0496C0210DFF800F03D6C02101E
:10627000DFF800F0C1500210DFF800F0095D0210F5
:10628000DFF800F025060210DFF800F0A90C02107C
:10629000DFF800F07D670210DFF800F049600210BF
:1062A000DFF800F0AD670210DFF800F045290210BA
:1062B000DFF800F0F5D70110DFF800F0ED5A02101A
:1062C000DFF800F0295D0210DFF800F0AD64021085
:1062D000DFF800F0115B0210DFF800F0F513021098
:1062E000DFF800F0AD570210DFF800F0E1690210AE
:1062F000DFF800F0296E0210DFF800F019610210DB
:10630000DFF800F0FD600210DFF800F0B96902105C
:10631000DFF800F0556A0210DFF800F05D6E021041
:10632000DFF800F0216E0210DFF800F0596E021065
:10633000DFF800F0C5640210DFF800F0556E0210BF
:10634000DFF800F0B56B0210DFF800F0456A0210CC
:10635000DFF800F0B5330210DFF800F0196E02101C
:10636000DFF800F081330210DFF800F0B9630210AB
:10637000DFF800F095640210DFF800F0A56B021062
:10638000DFF800F0956B0210DFF800F0656702108F
:10639000DFF800F041FC0110DFF800F0C56B0210DF
:1063A000DFF800F0D1200210DFF800F015540210E1
:1063B00010B5414C6060A160E2602370194601F0A5
:1063C000FFFB02463D4901F0E7FB217801F0F8FBB5
:1063D00002463B4901F0E0FB217801F0F1FBBDE80A
:1063E000104002463749102002F091BF1CB58DF8CD
:1063F000042082238DF802108DF80300120A8DF814
:10640000003006248DF805208DF8014006216846ED
:1064100001F0A8FD13BD3EB50C46002121701546C4
:106420000121C2072AD5684602F0C0FD217841F05B
:1064300001012170012060700099A1700E21009867
:10644000000AE0700098000C20710098000E607146
:106450000198A0710198000AE0710198000C207267
:106460000198000E60720298A0720298000AE07211
:106470000298000C20730298000E6073297037BDDB
:10648000114A12680146002012F1010F00D1704735
:1064900070B500230D4C0C255D43665B8E4201BF39
:1064A00065196D6825F00045954203D05B1C752B7E
:1064B000F1D370BD012070BD502B00202D6D021056
:1064C000F16C0210CD1F020070120020DC5F010091
:1064D0002DE9F84FB6B00178932941F0E981002108
:1064E0008DF80C10406810F8011B02784378801C6E
:1064F00002EB032209290C9205D10178427801EBC5
:106500000226851C01E00678451CF31EADF8043018
:10651000B2B2DFF8503CDFF8501C93F800800C9BBF
:10652000901E0B901B04DB0D0C98B71EAC1C5B1E61
:10653000042B05F1040900F07F000ED8DFE813F00A
:1065400062096706220463000500002701283FD086
:1065500002282ED004280AD0072841F07E8128780E
:10656000DFF8081C03AAFFF756FF01F077B96A4667
:10657000DFF8FC1B102002F0CAFEDFF8F81B0098C1
:10658000009A8871120A0098CA71000C08724F7341
:10659000CF73BDF804004872000A88729DF80600A7
:1065A000C872BDF808000873BDF80A0088730A2095
:1065B000FFE12E786D782946304602F0BFF90028B9
:1065C00010D100942B463246DFF8B01B1020D6E3E2
:1065D00069782C780E46642E80F24082204602F0C4
:1065E000ADF9002840F03A82DFF8800BDFF8BC1CE0
:1065F00000903346224601F0D6FA0746C0B2002882
:10660000B3D16878D5E10027AA1D002805F114064A
:1066100005F1080105F1130A00F09B830A2800F038
:106620008B830B2800F070820C2800F019820D2853
:1066300000F0DF810E2800F01C820F2800F0388265
:10664000102800F05C82112800F06883122800F006
:106650005383132800F043832F2800F072833028DF
:1066600000F0E781312800F0C981362818BF3728AB
:1066700031D0392800F0B0813A2800F0A7813B28BA
:1066800000F09A813C2800F088813D2800F0AB8121
:106690003E2800F035813F2800F02D81402800F091
:1066A0002481412800F01C81422800F012814328F7
