:020000040000FA
:100000004343313378325231DF6C025B0301BFFF6F
:10001000FFFF0700FFFFFFFF700A0100A8000000BC
:10002000303130306F0A01002C00FFFF01BFFFFFAD
:10003000440A010000000000FFFFFFFFFFFFFFFF79
:10004000FFFFFFFFFFFFFFFFFFFFFFFFFFFFFFFFC0
:10005000FFFFFFFFFFFFFFFFFFFFFFFFFFFFFFFFB0
:10006000FFFFFFFFFFFFFFFFFFFFFFFFFFFFFFFFA0
:10007000FFFFFFFFFFFFFFFFFFFFFFFFFFFFFFFF90
:10008000FFFFFFFFFFFFFFFFFFFFFFFFFFFFFFFF80
:10009000FFFFFFFFFFFFFFFFFFFFFFFFFFFFFFFF70
:1000A000FFFFFFFFFFFFFFFFD85100209D0501006C
:1000B000CD060100CD060100CD060100CD060100F0
:1000C000CD060100CD060100CD060100CD060100E0
:1000D000CD060100CD060100CD060100CD060100D0
:1000E0008D0601000000000000000000010000007B
:1000F00000000F0000000E003600000000000000AD
:10010000C01D0020040000000000000000000000EE
:10011000200000001C010000300000003000000042
:100120000000000000000000440100000400000086
:100130000000000001000000FFFFFFFFFF000000C3
:1001400001000000080000000000000001000000A5
:100150000002000000000000CD06010000000000C9
:1001600008000000C004000078010000CF4E00002D
:10017000C74E0000CB4E000031200000612000007F
:10018000132000002D00000064010000E01D00208D
:100190000400000000000000000000000C0000004F
:1001A000A801000018000000180000000000000076
:1001B00000000000B801000008000000000000007E
:1001C00008000000C0040000D8010000374F000004
:1001D000F94E0000254F0000AD200000D7200000A0
:1001E000912000002E000000C4010000EC1D002042
:1001F00004000000000000000000000024000000D7
:1002000008020000180000001800000000000000B4
:1002100000000000180200000800000000000000BC
:1002200000002300C40400003C0200003D4D00001B
:10023000EF4D0000774E00007D4E0000352100009C
:100240005F2100000D2100002B000000101E002087
:1002500024020000481E00200400000000000000EE
:1002600000000000200000007002000024000000D8
:100270002400000000000000000000008C020000CC
:100280000000000000000000000000000800000066
:100290000000000001000000FF2B0120FF3B0120B7
:1002A0000800000024000000FFFFFFFF681E002080
:1002B0000400000000000000000000002800000012
:1002C000C80200002400000024000000000000001C
:1002D00000000000E4020000000000000000000038
:1002E0000000000008000000000000000A000000FC
:1002F000701E002004000000FFFFFFFF901E002082
:1003000004000000000000000000000014000000D5
:100310001803000018000000180000000000000092
:10032000000000002803000008000000000000009A
:100330000959000055580000020000003003000079
:10034000200000000000000008000000FFFFFFFF89
:10035000981E0020040000000000000000000000C3
:10036000100000006C0300001800000018000000DE
:1003700000000000000000007C03000008000000F6
:10038000000000000C000000FFFFFFFFA01E002087
:100390000400000000000000000000001C0000003D
:1003A000A80300002400000024000000000000005A
:1003B00000000000C4030000000000000100000075
:1003C000000000000800000000000000FFFFFFFF29
:1003D000BC1E00200400000000000000000000001F
:1003E00038000000EC030000280000002800000096
:1003F00000000000000000000C04000000000000ED
:1004000000000000FFFFFFFF0000000008000000E8
:1004100000000000010000000000000006000000D5
:1004200034000000FFFFFFFF241F00200400000035
:100430000000000000000000540000004404000020
:100440003C0000003C000000000000000000000034
:10045000780400000000000000000000010000001F
:10046000000000000000000000000000000000008C
:100470000100000000000000080000000000000073
:10048000010000000000000000000000000000006B
:1004900000020000434F00000000000000000000C8
:1004A00000000000000000004B4F000001000000B1
:1004B000940400000000000000000300D15100007F
:1004C000C8040000C804000000000000501E002006
:1004D000A11C0000A91E0000994C00002F4700003D
:1004E0006D4C000004000000D40400005B05010016
:1004F00001000000EC0400002000000001000000EA
:10050000000000000000000000000000FC040000EB
:10051000AD53000021360000B33A0000C53D000095
:10052000ED3F000087450000EF4A00005B4C0000F3
:1005300010050000D7570000D9570000DB57000016
:10054000D3570000E81D0020175400001954000084
:10055000B51C000002000000456173794C696E6BA8
:100560005F696E6974206661696C656400000000F3
:10057000456173794C696E6B5F656E61626C655243
:10058000784164647246696C746572206661696C56
:1005900065640000456173794C696E6B5F726563D9
:1005A000656976654173796E63206661696C65641F
:1005B00000000000456173794C696E6B5F74726175
:1005C0006E736D6974206661696C6564000000007B
:1005D00057616974696E6720666F72204E6F64653B
:1005E000204657207570646174652E2E2E00000021
:1005F00057616974696E6720666F722053434520A6
:100600004144432072656164696E672E2E2E00009E
:1006100057616974696E6720666F72204144432E8A
:100620002E2E00004572726F7220696E69746961C6
:100630006C697A696E6720626F61726420332E3351
:100640005620646F6D61696E2070696E730A0000D8
:100650004572726F7220696E697469616C697A693A
:100660006E6720627574746F6E2070696E730A0015
:100670004572726F72207265676973746572696E14
:100680006720627574746F6E2063616C6C62616365
:100690006B2066756E6374696F6E00004E6F6465E3
:1006A00049443A2030782530327800004144433ABA
:1006B00020253034640000001B5B324A201B5B3075
:1006C0003B30484E6F64652049443A2030782530ED
:1006D000327800004E6F64652041444320526561CA
:1006E00064696E673A202530346400004F4144202D
:1006F000426C6F636B3A202564206F66202564008E
:100700004F414420426C6F636B205265747269657F
:10071000733A2025640000004F41443A20636F6D16
:10072000706C657465642073756363657373667557
:100730006C6C79004F41443A204352432066616912
:100740006C6564004F41443A2061626F7274656465
:10075000000000004F41443A206572726F72000041
:10076000455A5F57534E5F434F4E4E5F444154418D
:10077000000000002062763A000000000000000047
:10078000000000004F4144204E564D310000000053
:100790000000000000000000950401001C0880809B
:1007A0001D0880801E088080FE0000001404C0A088
:1007B000FE0000001404C0A00A0480A0090480A068
:1007C00008400080FE0000000000000000C20100A0
:1007D000FFFFFFFFB0370020000400000000000012
:1007E00005000000040000000300000080008000FD
:1007F000AC22002034130000D04B0020C8070000BA
:1008000014130000B4410020DC0700000000024087
:100810000A29FF00B44900200C080000881D0020B0
:10082000E84A00200600000006000000FFFFFFFF6E
:100830000020040000200000000000000000040070
:1008400054130000B84C002030080000541300007E
:10085000B94C0020380800001C0000801D000080FA
:100860001E000080060480800F2005800D0480801B
:100870000C4000800E2005801600008017000080CC
:10088000180000800A04808008000080090480802D
:10089000FE000000FF00000000000000000000005B
:1008A00085A90000055F00000101010000000000B3
:1008B000FF00010065CE00000700000000000040BE
:1008C00017FF0000000000000400FFFF0800000008
:1008D0001000000009080AFF0A0000007C13000055
:1008E000AC400020BC0800000010004006000000E2
:1008F00015000000FF000000000000000D0CFFFFCD
:10090000D449002020000000010300000000000086
:1009100094130000B03D0020E80800000E141704F6
:100920000E1438040E1442040E145F040E146804EE
:100930000E1471040E147A0453895499298DFDBE46
:1009400053455425FEAE5C44B7AD5B745B540070F8
:10095000A27CAB689F003114AC68A0003114AD6874
:10096000A1003114A27801F801FAF2BEA978AB68AF
:100970000EFDAD6892ED06FDA97C40647F04A2786F
:100980001F8F8FED01EC01BEB7ADB78D5B755B5569
:10099000A778BF6027EF40E227EF0070A77C7F04B5
:1009A00077640000A918889D019C0EB69E1019AFAF
:1009B00000AA0AB6FFA839AF07BEA20C0086A0881D
:1009C000088F47FDB79DA2080188018AEBBE4F251D
:1009D000FEAE5B645B4477447F0456565B655B45C3
:1009E0000000A20C0100A30C16147F0457565B668E
:1009F0005B460000A20C0200A30C16147F0458569C
:100A00005B675B470000A20C0400A30C16147F0474
:100A10005B765B56FF86FF03A50C5C64A478A56833
:100A200037ED05B60000A40CAA7C4065A50CA5789E
:100A3000A6680EFD01F85AE90EFD01BE5365B7BD6B
:100A40000B7096FB53445424FEAEB7AD536454244C
:100A5000FEA6007096FBB7AD0000B300B800F00032
:100A6000000000000000FFFF000000000000000088
:100A70000000000000000000000000000000000076
:100A800000001770F11401009E0CB7AD2000498BD7
:100A9000B18D41009F8B3F86010367646725FEA6E9
:100AA0008E8B7800A68B18009E8B03009E8B9E8BEE
:100AB0009164B1ED9089B00CFC1440FDAE1801FDBD
:100AC000B11829FD06B6A4180192A41C0010B21C8E
:100AD000DE04B2180198B21CAF18009A09B6B21819
:100AE000AF782F9D05AEA4180192A41C0010B21C73
:100AF000AE18018DB10C01009E0CB7ADB7ADEDF88D
:100B000007F0FF86F863A3EB808600608FED9BEB18
:100B10009BEBB7AD7970A7FBFB71A6FBA6FB674407
:100B20008E44B7AD0044403C3834302C2824201C7F
:100B3000181400000000007874706C6864605C58E1
:100B400054504C485C11200000000000601110005F
:100B50006211200044010E4052010E403C010E4043
:100B6000000008021C090000440B0000240B0000D8
:100B700000001800FDCA00001BCB000000000000B0
:100B800000000000000000008F0000008F00010046
:100B90008F0002008F000300900000018F00010110
:100BA00090000002900000038F0001048F000005F8
:100BB0008F0008048F0000048A0000065100000026
:100BC0007F0001003F0004003F0002003F000100E1
:100BD0007F0002008F0002048F0001027864632E00
:100BE00072756E74696D652E537461727475703AA6
:100BF00020276D6178506173736573272065786372
:100C0000656564656400000000000000FFFFFFFFF1
:100C1000FFFFFFFF000000000000000001010101D4
:100C200000C201000300000000000000F378000093
:100C300093790000C544002191400021AD4000217E
:100C400017410021D9400021394500217545002177
:100C50003D410021494100215541002171410021C0
:100C60001F460021BD410021D5410021ED41002159
:100C70002942002193460021DB0705D000F003F84C
:100C80000249087070BD70B5014D2847E00400218D
:100C90001D240200074C657900F009F8617969406C
:100CA000490703D50121044A8903116070BD70B55D
:100CB0000249084780030021081104402D59000013
:100CC00000F019F8E1B26C290BD0042801D00628F5
:100CD00007D10E490978C90703D12178090700D443
:100CE00002200B490A780C21114202D009498022C6
:100CF0000A6003B0F0BDF0B583B007490847044867
:100D0000017840229143017004480047C800002147
:100D10003301002100E200E041160300231B030021
:100D200070B5004700F042FA00480047577F0000C6
:100D300000F042FA004800471B8800000599880A25
:100D4000802805D1134988788007800F00F04CFA7D
:100D500000480047D96E00000FB41048C188002930
:100D600002D0104600F040FA079B9B0A084D832BE7
:100D700008D1084C23899B0604D500F005F800280B
:100D800000D042350FBC284770B505480047000029
:100D90001F0B0200600100211F0B020080030021D5
:100DA000EB090200094B1A780824A243002800D05E
:100DB00022431A70004A1047838E000003490878C6
:100DC000000701D40248004770470000800300215B
:100DD0005F7E00000848094A03689A420AD1084821
:100DE0000289084BD21A01D0012A03D1406E06496C
:100DF00088470399054B1847A8020021BD0302004C
:100E00006001002121180000F1350000BD0600003E
:100E1000044A282090470448012141600348044ABD
:100E2000416010474F420000005004400060044001
:100E30008542000070B51F4D2878C4B21E48804717
:100E40002878032834D1032C32D01C488068400D08
:100E5000C2071A48014660318030002A03D01F249F
:100E60000C57458802E01E240C570588002C1FD023
:100E70001348154A416900794143481011494969AD
:100E8000401810494039497F904740054015694254
:100E900088420DDBA8420BDC0C4B996988B20246F4
:100EA000090C624309045212801880B20843986109
:100EB00070BD0000E40200217941000028000021FB
:100EC0008003002100030021CB810000404004404A
:100ED00010B5864C21464031087D012834D1844824
:100EE000C07D4008C0072FD02046603042795208AC
:100EF000D20729D04089800B012825D1087E4109DD
:100F0000C9070CD0A16F00070988C00F400209046F
:100F100008436066A06F801C00F0ECF913E0744891
:100F200020308069406800280ED0724A0023017882
:100F3000D356591A08D4C90008184178C90703D0F4
:100F4000016861664068A0666B48804710BDF8B5CF
:100F5000664C6A4926462036707B2546403500900F
:100F60002F79B800401880688047002828D1604950
:100F7000C97D0909C90723D022466432152F20D024
:100F8000297E00234F09FF0703D06D7D002D00D07F
:100F90000123009FA56FBB4312D0737B002B0FD0A2
:100FA000237D5B060CD5D288920B012A08D1C90893
:100FB000C90705D0A988890B012901D100217173C6
:100FC000F8BDAB7EE97D012BE3D00023E1E770B5EE
:100FD000464C2546606A803500281DD15420005DAE
:100FE0000022002817D06420005D8008C00712D0BE
:100FF000A9688888800B01280DD13D48C07D400834
:10100000C00708D03A48203080690068002802D024
:101010002962A86000E02A6239488047616A002995
:1010200003D1296A002900D0A96070BDF8B52F4C02
:10103000344920464030027D002A2FD0807E25464C
:101040008035032802D0042803D027E00120E8756A
:1010500024E06420005D8008C0071FD0A868808855
:10106000800B01281AD12248EA7DC07D002A13D0C6
:10107000C008C00712D026462036777B8847014635
:10108000394308D1217D090605D56988890B0129D5
:1010900001D100217173F8BD8008EAE78847F8BDE7
:1010A000124880300021C175174800470F49403170
:1010B0000871262814D006DC152813D01B280BD065
:1010C0001F2804D10AE03D280ED047280AD00B493A
:1010D00080004018806870470C4870470C48704783
:1010E0000C4870470C4870470C487047600100215D
:1010F000C8000021E0040021594902000055020007
:101100008F3D020075300200152A0200B94400210B
:1011100045440021E743002167430021E9420021C3
:1011200010B50C4988470C4A0621515E002907D0AA
:10113000022905D0092903D0102901D0112907D18E
:101140007721C943884201DD002801DD7F20C043AB
:1011500010BD0000A96500008003002110B51048F3
:10116000C1881048052918D00F4C21684A08520040
:101170002260A26B52085200A2632160FFF7D0FDEB
:10118000A06B000708D40120206060600020401C94
:101190000C28FCDB1420206210BDFFF7C1FD10BD40
:1011A000800300213F5B000000600440806B0C491D
:1011B0000007000F48717047094A0A4918235079FF
:1011C000CB56497EC018814201DD084602E00F2857
:1011D00000DD0F20D189090909010143D181704740
:1011E000E0020021880000210849C979CA08D20715
:1011F00008D0C1400648C90701D0064900E00649A9
:10120000491CC1607047002070470000E8000021C1
:101210002800002188010000500100000122274B16
:1012200002212548184710B5254880472548406ABF
:1012300000280DD124490A200856002809DA401C4C
:1012400007D008462038406A2049884200D18047AC
:1012500010BDFFF7E3FF10BD00211E4B1C4A0846DE
:10126000184701201C49400208601C48FB220178F5
:10127000114001701248EC38004710B518498847F2
:1012800011492039012807D0020404D5002008851F
:1012900014484862012010BD4A6A094BEC3B9A424F
:1012A00001D1114A05E007494A6A104B9A42F2D12E
:1012B0000F4A4A6210BD0000060800009F060000A9
:1012C000A192020008010021540100216392020052
:1012D0003F460021B5B4020080E100E08003002118
:1012E000F7960200354600217B46002169950200F1
:1012F00071460021820881079200C90E0CCAC0788D
:10130000CA40494220318B401A431102090A0006A3
:101310000843704735D3000037D3000013D40000D2
:101320003DD4000099D400004FD500008DD50000B9
:1013300041D60000B9E30000BBE30000FFE300007A
:1013400001E4000005E4000053E400006BE4000049
:1013500071E4000079E4000081E4000087E400000B
:10136000B7E40000D1E400001FE5000037E500000D
:10137000ABE50000E9E50000F1E5000081E80000D0
:10138000D7E800002FEC000039EC000001EF00006E
:10139000D9F100005BFD0000E3FD000063FB0000ED
:1013A0006BFB0000010001008D01010093010100B1
:1013B00045FE00004BFF000051FF000007D9000070
:1013C0002DD900009BD900003DDA000089DA000029
:1013D00079DB000083DB000055DC0000080600001C
:1013E000000000000806208208000200080651459F
:1013F000000000000806514F94F94500080621EA54
:101400001C2BC2000806C321084261800806624AFC
:1014100010AA4680080660840000000008061084B8
:101420001040810008064081041084000806008AEC
:101430009CA88000080600823E208000080600006C
:1014400000608400080600003E000000080600005E
:1014500000018600080600210842000008067229E3
:10146000AACA2700080621820820870008067220E1
:1014700084210F800806F842040A2700080610C5D8
:1014800024F841000806FA0F020A2700080631086E
:101490003C8A27000806F821084104000806722843
:1014A0009C8A2700080672289E08460008060186C6
:1014B0000061800008060186006084000806108430
:1014C000204081000806000F80F8000008064081D7
:1014D0000210840008067220842002000806722090
:1014E0009AAAA70008067228A2FA28800806F228FD
:1014F000BC8A2F0008067228208227000806E248CE
:10150000A28A4E000806FA083C820F800806FA08F4
:101510003C820800080672282E8A278008068A283E
:10152000BE8A288008067082082087000806384195
:101530000412460008068A4A30A24880080682083B
:1015400020820F8008068B6AAA8A288008068A2CC7
:10155000AA9A288008067228A28A27000806F2287C
:10156000BC82080008067228A2AA46800806F22853
:10157000BCA2488008067A081C082F000806F882DA
:101580000820820008068A28A28A270008068A28DE
:10159000A289420008068A28AAAAA50008068A2568
:1015A0000852288008068A28942082000806F8211C
:1015B00008420F8008067104104107000806020463
:1015C0000810200008067041041047000806214852
:1015D000800000000806000000000F80080640811F
:1015E0000000000008060007027A27800806820B28
:1015F000328A2F00080600072082270008060826E6
:10160000A68A27800806000722FA07000806312468
:1016100038410400080601E8A27827000806820B7A
:10162000328A288008062006082087000806100352
:10163000041246000806820928C289000806608252
:10164000082087000806000D2AAA28800806000B3B
:10165000328A288008060007228A27000806000F21
:1016600022F2080008060006A67820800806000B73
:10167000328208000806000720702F000806410E7D
:101680001041230008060008A28A668008060008A8
:10169000A289420008060008A2AAA50008060008C0
:1016A0009421488008060008A27827000806000F49
:1016B00084210F80080610821020810008062082F5
:1016C000082082000806408204208400080642A107
:1016D00000000000000608070000080010001800C5
:1016E000200028003000380040004800500058001A
:1016F000600068007000780080008800900098000A
:10170000A000A800B000B800C000C800D000D800F9
:10171000E000E800F000F8000001080110011801E5
:1017200020012801300138014001480150015801D1
:1017300060016801700178018001880190019801C1
:10174000A001A801B001B801C001C801D001D801B1
:10175000E001E801F001F80100020802100218029D
:101760002002280230023802400248025002580289
:101770006002680270027802800288029002980279
:10178000A002A802B002B802C002C802D002D80269
:10179000E002E802F0020000DC1300000102000396
:1017A0000200010380B5002804D008233C22002158
:1017B00000F0E7FD01BD80B5002804D00823182201
:1017C000002100F00DFD01BD704780B5002804D058
:1017D00008232422002100F048FD01BD7047DFF8F6
:1017E0005404006870470120DFF84C14086070470B
:1017F0000020DFF8441408607047DFF840040068F8
:10180000704718B58FB001208DF8300006A8FFF79B
:10181000DCFFDFF82C4406AA0121200000F042FD85
:101820002000FFF7DBFFDFF81C140860DFF8184426
:1018300006AA0021200000F035FD2000FFF7CEFFB2
:10184000DFF8081408606846FFF7B5FFDFF80044CA
:101850006946200000F0C9FC2000FFF7B5FFDFF863
:10186000F4130860DFF8F0432000FFF79BFF4FF40C
:10187000806020620320A061DFF8E003E0610023C4
:1018800022000FF21901DFF8D80300F084FD10B038
:1018900010BDDFF8D003007870470000F0B585B0C8
:1018A00001A800F00CFE01A801F074F8002803D094
:1018B000DFF8B40303F07EFD0120C0B2002819D088
:1018C000082004F07EF9FFF78EFFFFF796FFC007B0
:1018D000FBD5DFF890430220DFF8901309684968D0
:1018E0008847207020780028EFD0FFF781FF08207C
:1018F00004F000F9DFF86C5301220121280001F007
:1019000091FD002803D0DFF8680303F053FDDFF8F2
:1019100064432878207002206070DFF85C5301F087
:101920008CFE28600BE00878002803D11021306875
:1019300002F089F8F80602D5012000F0C8F8C54E7B
:101940005FF0FF335FF0FF320021306802F007F8EC
:101950000700F80732D501F070FE296881420BD2EA
:1019600062682B68C31AC54909684B43C449B3FB75
:10197000F1F18A1862600AE062682B681B1ABF499D
:1019800009684B43BE49B3FBF1F18A1862602860D5
:10199000FFF725FF2081BB48008860800F2005F0FD
:1019A00011F8002801D1012000E00020A0721420CD
:1019B0000090022394E8070000F092F8B80714D5CD
:1019C000B148007800280DD0B049032001F08EFD09
:1019D00000210FF2CD1001F035FC002802D0AC48F8
:1019E00003F0E8FC002000F072F8380708D5A94899
:1019F000817D032904D110F11701153005F0F2F8AB
:101A0000780797D5A049087800288CD1A24890F88B
:101A1000902090F89100824285D200F0A6F889E7E4
:101A200038B50500874C5FF0FF31206802F0C8F838
:101A30009448058001218748006802F004F85FF0AF
:101A4000FF318248006802F0BBF8934890F8985044
:101A50008D480078002802D1206802F012F9280091
:101A6000C0B232BD2DE9F84381460C0015000026B6
:101A7000744F5FF0FF31386802F0A2F8DFF8188287
:101A800088F800907748007820702A00D2B218F1C8
:101A90000D092100484605F0B3F988F80C500020E4
:101AA00088F891000020C8F89400002088F8900081
:101AB000404601F093FA002802D0784803F07AFCFF
:101AC000386802F0DEF83000C0B2BDE8F28380B5BD
:101AD000714981F898005D48006802F0D2F801BDB4
:101AE00010B502996C4C0020207062480278627335
:101AF0004278A273428892B2120AE2734288227438
:101B0000028992B2120A62740289A2744268120EA9
:101B1000E2744268120C22754268120A62754268C9
:101B2000A275807AE0750C20207384F89130C4F897
:101B30009410002084F890004FF47A604143032011
:101B400001F0D4FC200001F049FA002802D05348EB
:101B500003F030FC00210FF2490001F073FB002874
:101B600002D04B4803F026FC10BD10B54A4C2000B3
:101B700001F034FA002802D0484803F01BFC002191
:101B80000FF21D0001F05EFB002802D0404803F078
:101B900011FC94F89000401C84F8900010BD0000E7
:101BA000F8B505000F00384E34783078002805D09D
:101BB0002448006802F065F8002030703800C0B298
:101BC000002828D115F11500407800280DD1E87DB6
:101BD000002802D00120307001E000203070022186
:101BE0001C48006801F02FFF23E0E4B2002C0CD069
:101BF0002A7D1832274C2900200005F001F9082120
:101C00001448006801F01FFF13E004211148006828
:101C100001F019FF0DE0FFB2072F05D104210D4897
:101C2000006801F010FF04E004210A48006801F098
:101C30000AFFF1BD28500940A80250420880024026
:101C4000F4490020144C0020104A00201C4C0020B5
:101C5000004B0020184C0020DC470020B02F002053
:101C60003C470020BC4C002058050000CC0100106F
:101C7000700500007C4B0020204C0020EC0200008E
:101C8000A0860100A84C0020BD4C00208038010037
:101C90009405000064440020C8430020B4050000FF
:101CA00000B589B00821684603F02EFB09B000BDDD
:101CB00002F0ADBE2DE9F04381B015462DED028B4B
:101CC00082B00A682E68044612F8010B0A602428C4
:101CD00002BF12F8010B0A6053281F464FF000089C
:101CE00024D156F8040BF8612E602B46388B0090F7
:101CF000FA69B968206803F0B8FB8046206830B103
:101D0000B9688845A8BFA1F10108404420600020BF
:101D10002E68F86040463968A1EB080139602E60F2
:101D200002B0BDEC028B01B0BDE8F083662870D133
:101D3000388B012808D156F8042B0092104605F084
:101D4000B3F841EC180B06E0F61D26F0070000F191
:101D5000080690ED008B51EC180B0022002305F0D3
:101D6000C7F808D281F0004141EC180B3869401ED9
:101D70000124386100E0002451EC180BDFF8A822A0
:101D8000DFF8A83205F0CCF80CD80FF2A000F8610B
:101D90000721F9602E6002B04046BDEC028B01B015
:101DA000BDE8F08305F0D4F8814605F00BF9024652
:101DB0000B4651EC180B05F017F90022DFF89C32A6
:101DC00005F084F905F054FA014678690A230422E3
:101DD00003F0A9FC401EF8612E2101700A237A69E4
:101DE0003969121AFA608A1A494603F09CFCF861B4
:101DF0001CB1401EF8612D2101707A69F869121A30
:101E0000FA602E6002B04046BDEC028B01B0BDE826
:101E1000F083F96908700120F8602E6002B0404636
:101E2000BDEC028B01B0BDE8F08300002865727242
:101E30006F72290000B581B001F040FDDFF8640247
:101E4000C06801B05DF804EB02F04EB800B581B097
:101E500003F054FA012818BF01F0CAFB0FF21D006D
:101E600003F0B5FA02F05AFE02F012FF01F0C2FFD1
:101E700001B05DF804EB02F0EDB8000000B581B0F0
:101E800001F0B9FF02F012F901B05DF804EB032094
:101E900001F0AFBB10B50446032001F0AAFB2046B9
:101EA000BDE8104003F0ACBADFF8D811DFF8D83144
:101EB000DFF8D801DFF8F0214A611B1A8B61704707
:101EC00010B5040088B008BF00200DD0684603F0AC
:101ED00047F908346B4600222146002003F08AF9B6
:101EE00010B100604460083008B010BD50B150F827
:101EF000042C50F8081CA0F108039A18521A00206C
:101F000003F0B4B97047DFF8A000006810B1406971
:101F1000C00F70470120704702F0BABC02F03FBC0E
:101F200002F0AABC03F007B802F0E6BF02F0FABF65
:101F3000DFF87400006810B18069C00F704701209D
:101F4000704702F08BBD02F0B9BD02F049BE01201E
:101F5000704702F040BD05F0E5B902F054BD30B560
:101F600081B00468A568A84701B030BD10B503680A
:101F7000DC68A04710BD02F0A6BF02F0A6BF03F0C8
:101F800018BC03F01ABC03F01CBC03F01EBC09B95A
:101F9000DFF89C1103F0C4B801EB410208B9DFF887
:101FA000840200EBC2007047942200202DE9F0412A
:101FB0008EB00446149F0197002000900E46904674
:101FC000DFF8385102AA2146284603F080F800972E
:101FD00002AB42463146204602F012FB40B10121DD
:101FE00000910346DFF81C212146284603F041F802
:101FF0000EB0BDE8F08100B581B00146012000902F
:102000000023DFF80021DFF8F40003F032F801B01C
:1020100000BD086000222D2088808A81DFF8E8005A
:1020200088600846704700000100C0FFFFFFDF41E5
:1020300010B588B002AA0193002300930B4600213B
:10204000DFF8740102F0DEFF040008BF002003D0B7
:1020500002A902F037FF204608B010BD0088C34037
:1020600010B582B00446002000904FF0FF33216885
:10207000DFF84401002202F0FCFF0021216002B0E1
:1020800010BD0000C0210020D8510020D84D0020F4
:10209000086000222E2088808A811B4888600846BC
:1020A00070470000F4210020D84D002010B588B002
:1020B00002AA0193002300930B460021104802F06E
:1020C000A1FF040008BF002003D002A902F001FF15
:1020D000204608B010BD10B582B004460020009024
:1020E0004FF0FF332168044A054802F0C2FF002187
:1020F000216002B010BD0000ED4E0000FC000000A9
:10210000E8010000FD4600004024000008600022B5
:102110002B2088808A81DFF8DC02886008467047BF
:1021200001EB410208B9DFF8D00200EBC2007047B2
:102130001C01000010B58CB002AA0193002300938B
:102140000B460021254802F05DFF040008BF002077
:1021500003D002A902F0CDFD20460CB010BD10B591
:1021600082B00446002000904FF0FF3321681B48E6
:10217000002202F07EFF0021216002B010BD0000AD
:1021800009B9DFF8781202F0CBBFF0B58BB00027A9
:1021900004460D4616460197009702AA2146DFF82D
:1021A000600202F094FF02AB32462946204601F05D
:1021B000EDFA0BB0F0BD00008801000000B581B061
:1021C0000146012000904FF0FF33DFF83822DFF89E
:1021D000300202F04EFF01B000BD000050020000CE
:1021E00009B9DFF8241202F09BBF30B589B004466C
:1021F0000B4600250195009502AA2146DFF80C0246
:1022000002F065FF02A9204601F07AFB09B030BD5B
:1022100018B101EB810200EB0210704708B100EB2E
:10222000C1007047C81D002030B589B004460B4678
:1022300000250195009502AA2146DFF8D40102F09D
:1022400046FF02A9204601F06EFC09B030BD00B582
:1022500081B00146012000904FF0FF330022DFF8EB
:10226000B00102F006FF01B000BD09B9DFF8A4110A
:1022700002F056BF30B58BB0054601920B460024E4
:10228000009402AA0021DFF8900102F0BBFE0400D6
:1022900008BF002004D002AA294601F067FC2046AE
:1022A0000BB030BD70B58CB004460D461346002609
:1022B0000196009602AA2146DFF85C0102F007FFB2
:1022C00002AA2946204601F051FC0CB070BD00B5B1
:1022D00081B00146012000904FF0FF33DFF83C2130
:1022E000DFF8340102F0C5FE01B000BD10B582B0C8
:1022F0000446002000904FF0FF332168DFF81C21D6
:10230000DFF8140102F0B5FE0021216002B010BD1B
:1023100009B9DFF80C1102F003BF01EB410208B963
:10232000DFF8000100EB02107047F0B58DB00446F5
:102330000D461E460023009313463B4F019602AA0A
:102340002146384602F0C3FE334602AA29462046FB
:1023500001F0AAFD38B1012100910346334A21461C
:10236000384602F086FE0DB0F0BD00B581B00146E2
:102370000120009000232D4A2B4802F07AFE01B084
:1023800000BD01B92A4902F0CBBE4C22514300B92D
:10239000284808447047F0B591B004460D461E46E3
:1023A000002300931346244F019602AA2146384683
:1023B00002F08DFE334602AA2946204601F036FF80
:1023C00038B10121009103461C4A2146384602F0EB
:1023D00050FE11B0F0BD10B582B004460020009050
:1023E00000232168154A144802F043FE00212160B1
:1023F00002B010BD40240000501E0020C8020000A2
:10240000A8020000C337000018030000F802000013
:102410004C030000A8030000880300008F3B00006D
:10242000EC030000C41E0020CC030000E73E0000C7
:10243000440400002C1F002024040000B5430000C9
:102440007B756E6B6E6F776E2D696E7374616E63E4
:10245000652D6E616D657D0080B5002804D0082370
:1024600024220021FFF701FF01BD80B504F078FFB1
:10247000002801D1012000E00020C0B202BD80B5DB
:1024800004F06EFF032801D1012000E00020C0B25B
:1024900002BD80B504F064FF042801D1012000E0F2
:1024A0000020C0B202BD0100C9B2002902D0C0B2F2
:1024B000092801DA012000E00020C0B2704780B591
:1024C000DFF8BC1A102204F0ABFC01BD00B2C9B2A7
:1024D00051EA00410800704770B504000D0020214A
:1024E00000222600300004F0ADFF43F603002080F8
:1024F0000C22A91CA61C300004F082FCA87BA17B46
:1025000060F30001A173A87BC0B2C008A17B60F397
:10251000C301A173E87B20822869A06170BD38B532
:1025200014001D00DFF85804006801F0AAFB5FF0FA
:10253000FF30DFF8501408802000800701D500200C
:1025400023E014F0000015F00051002911D10028FB
:102550000FD114F0000015F08051002909D1002896
:1025600007D114F0000015F08071002901D1002876
:1025700001D00A2009E000205FF088518D4203D18C
:10258000844201D10B2000E00520DFF8F829116812
:10259000002902D0C0B21168884731BD0020DFF8A1
:1025A000E8030178042909D1DFF8DC09008A400139
:1025B00010F5F0701421B0FBF1F013E0007807285B
:1025C00008D1DFF8C409008A0A30C000C821B0FB76
:1025D000F1F007E0DFF8B009008A0A30C0003221CC
:1025E000B0FBF1F070472DE9F84314001D000621FF
:1025F000DFF8A8692000800771D5DFF88403006840
:1026000001F03FFB5FF0FF30DFF878130880DFF860
:1026100090094188B1F5505F58D13179032901D033
:10262000062176E0DFF87C492188012908D0807BEB
:10263000C0B2C009C0B200283CD02079012839D1ED
:10264000DFF87C59DFF86079317A3878091A297512
:10265000DFF858090078002804D00220DFF850196C
:10266000087003E00120DFF8481908703A78DFF8B5
:10267000408998F80000304410F10801A946484606
:1026800004F0BEFB287D812812DA2A7D98F800002C
:1026900030443978084410F1080115F1150630006E
:1026A00004F0AEFBE0792872A068E860002130E019
:1026B00008212EE0A079012801D1082129E06079C4
:1026C000012801D10A2124E0062122E0408843F2BA
:1026D0000141884201D107211BE0062119E014F0D5
:1026E000000215F0E243002B01D1002A11D0A448CA
:1026F000006801F0C6FA5FF0FF30A24908800020B0
:102700005FF088518D4203D1844201D10B2100E05A
:102710000A21DFF8A0281068002804D0C9B2DFF829
:10272000A00812689047BDE8F18380B5944800681E
:1027300001F0A7FA5FF0FF309249088001BD2DE952
:10274000FC4106000425914C0020206000202071EF
:102750000020A0600020E060002020740020606164
:102760008B480168C9B240F20730FFF7AFFEA061A5
:10277000DFF844080078002804D0DFF8400800782B
:10278000002801D00120F9E03000C0B2052809D0AE
:102790003000C0B2062805D03000C0B2072801D0F2
:1027A0000220EBE0774FB7F90000002801D40920A0
:1027B000E4E000217248006801F002FA002801D12B
:1027C0000920DBE03000C0B2052804D03000C0B2E0
:1027D000062840F08780DFF8EC8740F60800A8F86C
:1027E000000098F80C0010F0F00088F80C0098F841
:1027F0000C0050F0800088F80C000020C8F8080099
:1028000098F80E0050F0020088F80E00DFF8780704
:102810008069C8F8140098F80E0010F0F30050F02A
:10282000080088F80E00F6B2052E0AD14FF6FF70A8
:10283000A8F8100098F80E0050F0010088F80E007B
:1028400009E04AF6AA20A8F8100098F80E0010F047
:10285000FE0088F80E0098F8130010F0F00050F019
:10286000010088F81300DFF82807007800280FD04F
:1028700002205FF0E241CDE90001DFF84C37220091
:102880004146DFF81407006807F021FA38800EE0AF
:1028900002205FF0E241CDE90001DFF82C37002291
:1028A0004146DFF8F406006807F096F93880002406
:1028B000B8F8020002280FD042F21070DFF80C17AF
:1028C0000968B0FBF1F001F077FC2000441C80B2F5
:1028D00040F2F5118842EBDBB8F8020002284BD138
:1028E000002549E0DFF8E81640F607000880087B7D
:1028F00010F0F0000873087B50F08000087300208F
:102900008860887B50F002008873887B50F0040058
:102910008873DFF88C0600690861C87B10F0F0004E
:1029200050F00100C873DFF86806007800280ED068
:1029300002225FF0E243CDE90023DFF8983622005F
:10294000DFF85406006807F0C2F938800DE0022273
:102950005FF0E243CDE90023DFF86C360022DFF8B8
:102960003806006807F038F93880B7F90000002809
:1029700001D4002500E004252800C0B2BDE8F6819E
:10298000884C0020A42200204C4B002094490020B9
:10299000804C00202DE9F04F91B00100002904D1B6
:1029A000DFF83406FFF78BFD05E01022DFF828463C
:1029B000200004F025FADFF80076387800280ED0E1
:1029C0000021DFF83408006801F0FAF8002801D18E
:1029D0000920D1E2DFF8C005006807F012F8DFF83F
:1029E0001C48207800281DD1DFF81458280007F073
:1029F0003FFBDFF8100800682860DFF8DC15486846
:102A0000002806D08868002803D048686861886874
:102A1000A861DFF8F407E86101202070DFF8EC0717
:102A200007F048F9DFF8B095D9F80C00DFF85C152D
:102A300008601C210022DFF85C452500280004F016
:102A400001FD43F6050020807FF04F006074207B7D
:102A500010F0F0002073607B10F0F00050F00300E5
:102A60006073207C50F001002074207C50F008003E
:102A70002074207C10F0EF002074E07D10F0F00056
:102A800050F00400E07544F62060A06101250026A6
:102A90000024DFF81885002088F8000099F800006D
:102AA00000280BD002281FD013D3042856D03CD3C3
:102AB000062841D027D3072863D06DE0FFF7D5FC67
:102AC000002803D1FFF7DBFC002800D000250126F9
:102AD00063E0FFF7CAFC002805D1FFF7D0FC00280F
:102AE00001D10125012658E0FFF7BFFC002809D1DC
:102AF000FFF7C5FC002805D1FFF7CBFC002801D16A
:102B00000125012649E004F037FC082802D1002500
:102B1000012609E0FFF7BDFC002805D004F02CFCDD
:102B20000C2801D00125012637E004F025FC0528FA
:102B300001D10025012630E004F01EFC082802D156
:102B40000025012609E0FFF7A4FC002805D004F0C9
:102B500013FC0C2801D0012501261EE0FFF785FC9F
:102B600000280DD1FFF78BFC002809D10125012693
:102B7000DFF89C0640F2B111C1814EF69A31018214
:102B80000BE004F0F9FB0C2805D004F0F5FB0D2850
:102B900001D004F0F1FB00E00026F6B2002E09D1CE
:102BA000DFF854160868002802D0086801F069F8B8
:102BB0000220E1E1002000E0401C0100DFF8542683
:102BC0001278C9B291421CD22421DFF84C260300AE
:102BD000DBB24B43D35C99F80060B342ECD1030005
:102BE000DBB24B431344DFF834663360C0B2484372
:102BF00010444069002801D1012402E0012088F836
:102C00000000DFF818663068002809D1DFF8E81501
:102C10000868002802D0086801F033F80220ABE110
:102C2000EDB2002D08D0302230688168DFF8F05511
:102C3000280004F0E5F807E0202230688168DFF81A
:102C4000E055280004F0DCF818223068C168DFF88D
:102C5000C055A946484604F0D3F8102230684168B0
:102C6000DFF8C0A5D146484604F0CAF830223068E3
:102C70008169DFF82C93CB46584604F0C1F8E4B2E2
:102C8000002C05D030680169BF48FFF725FC06E03D
:102C9000202230684169BC4C200004F0B1F8BC4CE3
:102CA0002078002802D000208AF80000BA4EDFF811
:102CB0005035DFF86C255146DFF86C0506F09BFDBA
:102CC00030600020A9F802000020C9F804000020AC
:102CD000C9F8080099F80C0010F0F00089F80C0011
:102CE00099F80C0010F0EF0089F80C0099F80C002E
:102CF00010F09F0089F80C0099F80C0010F07F008C
:102D000089F80C0099F80D0010F0F00050F0010067
:102D100089F80D0099F80D0010F00F0089F80D00EA
:102D200099F80E0010F0FE0089F80E0099F80E00D8
:102D300010F0FD0089F80E0099F80E0010F0FB006D
:102D400089F80E0099F80E0050F0080089F80E007E
:102D500099F80E0010F0EF0089F80E0099F80E00B7
:102D600010F0BF0089F80E0099F80E0010F07F00F7
:102D700089F80E0099F80F0010F0FE0089F80F0096
:102D800099F80F0010F0FD0089F80F0099F80F0076
:102D900050F0080089F80F0099F80F0010F0EF00CC
:102DA00089F80F0099F80F0010F0DF0089F80F0084
:102DB00099F80F0010F0BF0089F80F0099F80F0084
:102DC00010F07F0089F80F000020C9F81400882057
:102DD000A9F8180098F80000002815D0DFF84C0476
:102DE000C9F810001020B9F81A1060F30501A9F80D
:102DF0001A107FF0030089F81E0099F80E0010F0F9
:102E0000DF0089F80E0013E0DFF82404C9F8100091
:102E10000820B9F81A1060F30501A9F81A1000206B
:102E200089F81E0099F80E0050F0200089F80E0075
:102E30000820B9F81A1060F3CF21A9F81A10B9F8D0
:102E40001A104FF63F000140A9F81A10B9F81C10EB
:102E50004FF6FE700140A9F81C1053480078B9F8ED
:102E60001C1060F34501A9F81C10B9F81C104FF6AE
:102E70003F000140A9F81C100120B9F81C1060F3B4
:102E8000CF21A9F81C1099F81F0010F0F00050F0A5
:102E9000010089F81F0099F81F0010F0EF0089F871
:102EA0001F0099F81F0010F09F0089F81F0099F883
:102EB0001F0010F07F0089F81F000020C9F82000D3
:102EC000DFF87003C9F82400DFF86C03C9F82800A4
:102ED0003448C9F82C002078002822D0DFF82C4391
:102EE00000202060002020710020A0600020E06011
:102EF0000020207400206061DFF840030168C9B23F
:102F000040F20930FFF7E2FAA06102205FF0E241EF
:102F1000CDE90001002322002900306807F095F870
:102F20000AE002205FF0E241CDE900010023002227
:102F30002900306807F077F808A8FFF78DFA68468F
:102F400002F00EF9DFF8B042206800280ED16A4680
:102F500008A90020FFF78EF920602068002801D121
:102F6000032009E0206800F08CFE02E0206800F0F9
:102F700088FE01203870002011B0BDE8F08F0000FD
:102F80008C070000704C002074490020784C002011
:102F9000C94C00202C4A00207C4C0020FC4400201E
:102FA000B8480020C44B0020A7220020C74C0020B6
:102FB000A8220020744C0020C54C0020C64C0020E4
:102FC00094450020484A00202B270000EC02000016
:102FD000D04A00201F2500004C4B00202DE9FE4F59
:102FE00007000524894E0020306000203071002049
:102FF000B0600020F0600020307400207061DFF8C5
:103000003C020168C9B240F20930FFF75FFAB061D3
:10301000DFF8F8030078002804D0DFF8F403007824
:10302000002801D00120E4E0387B812801DB022068
:10303000DFE0714D0021286800F0C2FD002801D1B9
:103040000920D6E0DFF8CC030078002814D0387BC4
:10305000DFF8C41309780918891C01F0FF0151F445
:10306000C0510220DFF8B4231070DFF8B403017000
:1030700089B2090A41700BE00120DFF8A013087043
:10308000397BDFF8940300784118DFF8940301706E
:10309000DFF8849399F800203900DFF884A3DFF883
:1030A0007CB39BF800000AEB0008404603F0A8FE42
:1030B0003A7B17F10D0199F800009BF8003053FAA4
:1030C00080F00AEB0008404603F09AFEDFF818840F
:1030D000387B99F8001008189BF8001050FA81F01E
:1030E000A8F81000C8F81CA03800FFF757FA81466E
:1030F000B868002822D098F80C0010F0F00050F0CA
:10310000020088F80C0098F80C0050F0800088F855
:103110000C00B868C8F80800B86830600120307149
:103120004FF47A6000FB09F17161D8F8081000FBD8
:103130000919C6F80C90012030741FE098F80C00B3
:1031400010F0F00088F80C0098F80C0050F08000A7
:1031500088F80C000020C8F808000020306000202B
:1031600030714FF47A6707FB09F0706106F000FDDB
:1031700007FB0909C6F80C9001203074DFF8C00085
:10318000007800280DD002205FF0E241CDE9000177
:10319000002332004146DFF81804006806F097FD6E
:1031A0000CE002205FF0E241CDE9000100230122A2
:1031B0004146DFF8FC03006806F00EFD02225FF0D6
:1031C000E243010009B2DFF8E803006806F06EFE92
:1031D00000225FF08853994203D1904201D10B2421
:1031E00002E0800700D50024286800F04AFD200096
:1031F000C0B2BDE8FE8F0000884C0020C84C002003
:1032000054490020381C0020A2FE00809449002070
:10321000B84A0020E76F00003C1C0020844C0020CE
:10322000884800203C4B0020F84100204E9055007B
:10323000DE510B93F81B0020FC4B0020804C00203B
:10324000C94C00202DE9FC4781460C000625DFF81B
:10325000586300203060002030710020B0600020F2
:10326000F0600020307400207061DFF848030168CE
:10327000C9B240F20730FFF729F9B061634800781E
:10328000002803D062480078002801D00120BAE06D
:10329000DFF81873B7F90000002801D40920B2E064
:1032A000DFF814830021D8F8000000F089FC002822
:1032B00001D10920A7E0DFF81803C0F80090DFF87B
:1032C000FC028921C18000210171DFF8F41208603D
:1032D00000204860DFF8EC92C9F82810DFF8E8A277
:1032E000C9F82CA0002C13D099F80C0010F0F000B5
:1032F00050F0020089F80C0099F80C0050F08000A2
:1033000089F80C00C9F8084034600120307112E0DF
:1033100099F80C0010F0F00089F80C0099F80C00F6
:1033200050F0800089F80C000020C9F80800002047
:10333000306000203071DFF89C422068002819D0EE
:1033400099F81F0010F0F00050F0020089F81F00FB
:1033500099F81F0050F0800089F81F0006F008FC63
:1033600021680818C9F82000D9F82000F060012071
:10337000307414E099F81F0010F0F00050F00100D4
:1033800089F81F0099F81F0050F0800089F81F008D
:103390000020C9F820000020F060002030740C21CB
:1033A0000022504604F04EF8DFF820020078002892
:1033B0000FD002205FF0E241CDE90001DFF81832C2
:1033C00032004946DFF8E801006806F080FC3880EA
:1033D0000DE002205FF0E241CDE90001DFF8F831B5
:1033E000012249467248006806F0F6FB3880B7F9BA
:1033F0000000002801D4002503E0D8F8000000F008
:1034000040FC2800C0B2BDE8F6870000C54C002093
:10341000C64C0020C74C0020A7220020A822002074
:103420002C4600202DE9F04104000D001600022773
:103430006A480078002803D069480078002801D045
:1034400001204FE02800C0B2FFF72DF8002801D17D
:10345000022047E0DFF860810021D8F8000000F08A
:10346000AFFB002801D109203CE0002C2CD0280023
:10347000C0B2002828D03000C0B2002824D02800D4
:1034800058490978C0B288421ED13000C0B209281C
:103490001ADA2A00D2B23000C0B24243524F2100A1
:1034A000380003F0ADFC4748EDB2818B65F3450170
:1034B0008183F6B2818B66F3CF218183817B11F00A
:1034C0007F018173002707E0002C05D13D48817BF7
:1034D00051F0800181730027D8F8000000F0D1FB83
:1034E0003800C0B2BDE8F0817449002013B5022451
:1034F000C0B200280BD002282AD019D3042838D013
:1035000032D3062843D03DD3072845D048E0019860
:10351000C0B2FEF7C8FF002809D0324801990170F7
:10352000284900788A8B60F345028A83002437E0BB
:103530002A480078002806D001AA00211C4800680B
:1035400006F0C8FD02E0019828490860002427E041
:103550000198002803D001201C49087002E00020D7
:103560001A49087000241BE001981A4908600024D9
:1035700016E00198032804D201A800780D490860DC
:1035800000240DE00520FFF7DAF8040008E006202B
:10359000FFF7D5F8040003E00720FFF7D0F8040098
:1035A0002000C0B216BD000094490020A4220020D3
:1035B0007C4C0020804C0020884C0020FC440020E3
:1035C000FC4B0020B8480020C44B0020C94C002010
:1035D000744C0020F41B0020E7250000C54C00209F
:1035E000C64C0020A7220020F81B0020381C002019
:1035F000FEE7DFF808280146107D11757047DFF8F7
:10360000FC17D1E90023C0E900237047DFF8EC077D
:10361000C1690847DFF8E4170A6A104765E16CE101
:1036200010B5FEF785FC38B1DFF87448A068FEF7E6
:1036300088FCA0614FF0FF3010BD38B5FFF7EEFFFA
:103640000446DFF85C0880680021FEF77EFC054632
:103650002046FFF7E4FF284632BD70B5FFF7DEFFD6
:10366000DFF83C680446B0680021FEF76EFC0546B2
:103670007069B169451BA94238BF0025204619E190
:1036800070B5DFF81C6804460D46B0682146FEF7A9
:103690005AFC3461756170BD2DE9F8430D46DFF8C1
:1036A00004180A680446DFF8F8078758D7F804803A
:1036B0004FF0FF391AE03E463F68B08A012815D125
:1036C000012C04BFF168A94208D1306900281ABF53
:1036D0004118F160B082F069B1698847B08A012869
:1036E00004D1F068401B484598BF81464745E2D168
:1036F0004846BDE8F2832DE9F041FFF78FFFDFF880
:10370000A0470746A0680121FEF71FFC0121A18305
:103710000022E283656922682168461B401AAA1AC2
:10372000904203D20020A08338462CE03846FFF7B1
:1037300076FF002706E07D1929460120FFF7ACFF40
:10374000F61B0746BE42F6D2FFF768FF8046E08BC5
:10375000012804D129460020FFF79EFF0746A069F3
:1037600017F1010F08BF064603D0BE1BB04238BF99
:10377000064671193046FFF783FF0120002120849F
:10378000A18325604046BDE8F04148E770B5044696
:103790001D46A26000226869DFF80867DFF800377D
:1037A0002061A1612146A869E061A28230681844C5
:1037B00000F0C4F9288A18B12046BDE8704049E0FD
:1037C00070BD38B50446FFF729FF0546204600F0D6
:1037D000C4F947E010B58260816100220261C361D3
:1037E00082820146DFF8BC46DFF8B4362068BDE8C7
:1037F00010401844A2E1B0E138B5DFF8A456044601
:10380000288C012804BFA88B002817D1A8680121A3
:10381000FEF79BFB29686B69024628681B1A511A40
:103820008B420BD3A0688118E1600123A3826C69ED
:10383000A21A90420DD2BDE8344021E7FFF7FDFE09
:10384000A1680818E0600120A082A98B012908BFA7
:10385000E88331BD38B50446FFF7E0FE0546204653
:10386000FFF7CAFF2846BDE83240D8E60021818232
:10387000DFF82C16C0684A69904203D1DFF8281897
:103880000868E7E770478160704770B50446FFF746
:10389000C5FE0646A08A002501280AD1FFF7CDFE05
:1038A0000546E068A168451BA9423EBF2069A842C1
:1038B00000253046FFF7B3FE284670BD7047808A6A
:1038C0007047704780B500F001F8FCE738B5002478
:1038D000DFF8105804E0686850F824108847641C2A
:1038E00028688442F7DB31BD00BFEFF3118020214F
:1038F00081F311887047000000BF80F31188704782
:1039000010B50022DFF80838026000211C6820444E
:10391000BDE81040FEF788BC38B50446FFF7E4FF69
:103920000546207C022808D1204600F016F9002028
:1039300020742946A06800F0DFFD2846BDE832402B
:10394000DAE710B5036804681A400C408C4208BFDF
:103950000A4312B1016891430160104610BD2DE980
:10396000F0431C4614F1010F18BF002C91B08146A2
:103970000D4617460CD06B462246DFF86C1708A898
:10398000FFF728FF08A9039102228DF8102004E018
:103990000020039003218DF810100021DFF8A867A4
:1039A00006950797059130690290FFF79DFF8046C5
:1039B0003A4629464846FFF7C4FF05000AD0039857
:1039C00018B1FFF718FF002003904046FFF794FF5F
:1039D000284635E024B94046FFF78EFF00202FE04F
:1039E0003488DFF8302701203080694602988161F1
:1039F0001068484400F098F8029800F053FD0398CE
:103A000028B19DF81010022908BFFFF7F5FE4046C7
:103A1000FFF772FF204600F04EFBFFF765FF0446FC
:103A2000039818B1FFF7E7FE0020039000200299E9
:103A300088612046FFF760FF9DF8100000B10598EF
:103A400011B0BDE8F083F8B50546DFF8C4060F46AF
:103A500001686E18FFF748FF0446286807432F6087
:103A60003168B14203D12046BDE8F24044E7DFF8B7
:103A7000D80607880121018028463668F269B169B5
:103A8000FFF75FFF706160B1304600F066F801201B
:103A90003074F06808B1FFF7E9FEB068214600F025
:103AA0002BFD2046FFF728FF3846BDE8F24000F026
:103AB00002BB38B5DFF894060568002411E0083130
:103AC0000CE021460020FEF7A3FBC2684168002AF3
:103AD000F5D14919CB1D691E23EA010100F00BF84D
:103AE000641CDFF8400701688C42EADB00E00160FB
:103AF0004FF0FF3032BDF8B505460E46EC6804B90C
:103B00006C69002708E0DFF8202710682146284468
:103B100000F014F834447F1CA8688742F3D30020D7
:103B2000F2BDE2E6E9E600E002E0406000607047D6
:103B3000426808604A6011604160704738B50446C9
:103B40000D46FFF7EEFF2C606168696062681560E2
:103B50006560FFE7BDE83240E4E701684268116054
:103B60004168006841607047BFE6C6E610B504468C
:103B7000107EDFF82829207261810021106820441E
:103B8000FEF752FB002121600120606010BDDFF8CC
:103B90000C190A681044FEF75ABB38B50446FFF703
:103BA000E3FF0546207C022808D12046FFF7D5FF19
:103BB000002020742946A06800F09EFC28468BE077
:103BC00070B50C4614F1010F18BF002C8EB00546DD
:103BD0000AD06B462246DFF8C81805A8FFF7FAFDA1
:103BE00005A90391022202E00021039103228DF82E
:103BF0001020FFF7B9FF06466889A0BB1CB900F08A
:103C000069F800203BE0DFF84005048801210180CD
:103C100000690290C0F818D000F044FCDFF87C087E
:103C200002686946A818FFF77FFF9DF81000022878
:103C300004BF0398FFF7E0FD00F04CF8204600F0C9
:103C40003AFAFFF791FF0446039818B1FFF7D3FD46
:103C5000002003900020029988612046FFF785FF2D
:103C60009DF810000BE06889411E6981039818B126
:103C7000FFF7C1FD0020039000F02CF801200EB0EA
:103C800070BDF8B501F014FEFFF76EFF0646DFF8D1
:103C90000C0800682A5829188A4207D1287AC107D7
:103CA0004EBF01206889401C68810DE02F583A689A
:103CB0002A50516001203874F86808B1FFF7D6FD2A
:103CC000B868314600F018FC00F004F82046BDE862
:103CD000F240F0E1304648E7BDE8324045E7FEF704
:103CE0009DBA02E6EFF31180002101E605E600002F
:103CF000B0FA80F0C0F11F0070472DE9F843044688
:103D0000DFF86458A06AD5F81080EF68AE682861C3
:103D1000EC600022606AA860A2830120216A6162CF
:103D20002A80FFF766FC8146FFF7DCFF2169E06827
:103D3000A2689047FFF7D5FF4846FFF75AFC0120DD
:103D40002880C5F81080EF60AE60BDE8F18338B51B
:103D5000DFF8144825696068FFF7CAFF616901EB65
:103D6000C00100F082F8606830B1FFF7C1FF6169FF
:103D700001EBC0018D42F4D331BD70B5DFF8E847E7
:103D80002669FFF7AEFF05466068FFF7B1FF61697E
:103D900001EBC000864211D2DFF8AC030688012196
:103DA0000180DFF8D00706F075FA00202080284651
:103DB000FFF79CFF3046BDE870407CE1002020808A
:103DC0002846D3E010B5002404E021460020FEF789
:103DD000A4FA641CDFF8940701688C42F5DBDFF875
:103DE00090170A68002000E0401C9042FCD34FF07E
:103DF000FF3010BD04E0DFF8701758E19421002077
:103E00000020002800D0704780B5FFF76AFFDFF878
:103E10005827516821B1FFF769FFFFF7AEFF02E0B5
:103E20001180FFF763FF01F027FDBDE8024042E18A
:103E3000002800D0704738B5DFF82C47606888B19B
:103E4000FFF750FFFFF74DFF25696068FFF750FF50
:103E5000616901EBC0018D4204D200F006F8606890
:103E60000028F3D10020208031BD086802680A6074
:103E700051600A688A4203D1616882699143616036
:103E80003BE7DFF8E4068068704710B50446DFF8CA
:103E90001438FEF74AFAA06800B90024204610BD85
:103EA000F4210020A402000010B5044664602460E0
:103EB000A1601069E06051692161906910F1010F02
:103EC00008BF05206061012160698140A161002176
:103ED000A183D06961696062D269226200F049F809
:103EE000A062002010BD7047F8B50546FFF7F9FE47
:103EF0000446A88B18B12046BDE8F240F6E6012042
:103F0000DFF86466A883294637883080A86AFFF7FF
:103F10000BFE7168A869014371602046FFF7E6FE59
:103F200017B9BDE8F14028E7F1BD38B504460D46A4
:103F3000FFF7D7FE616A0D436562FFF7D7FE2046A3
:103F4000BDE83240D0E770B50D4615F1010F0446CB
:103F500008BF0525FFF7C5FE06460120A840A06161
:103F60006561294600F005F8A0623046BDE8704062
:103F7000BCE6DFF8F4255069B1E6FFF7B6BCEFF315
:103F800011800021FFF7B4BCFFF7B7BC00000000B0
:103F9000B0FA80F0C0F11F00704710B56A4C0020E5
:103FA000208101E000F0C0FA60680028FAD0606863
:103FB000FFF7EEFFA169626901EBC000824209D2FE
:103FC000226960610068206100F1100102F11000B7
:103FD000FDF7C1FF20890028E1D110BD10B5DFF841
:103FE000AC48208908B1FFF7D8FF74E038B5FDF779
:103FF000AEFF70B30024DFF8685807E06868182146
:104000006143415809B120468847641C28688442AE
:10401000F4DB002407E021460020FEF7B6F900217A
:1040200000F065F9641CDFF8100801688C42F2DBCF
:104030000024454D06E0286B50F82400002100F0D4
:1040400056F9641CDFF89C0801688C42F3D34FF0EA
:10405000FF3032BD002010B594B0FFF78EFFDFF8BF
:104060002C4801E000F060FA60680028FAD060682F
:10407000FFF78EFFA16901EBC0006061006820615D
:10408000002020810220FFF7B4FAFFF778FFFFF746
:1040900074FFFDF745FF206900F1100104A8FDF74A
:1040A0005AFF14B010BD0000F00200002649088835
:1040B00001220A807047002800D0704710B5FFF732
:1040C0005CFF214C2089012801BFDFF89C1408887F
:1040D0000028FFF762FF00202080BDE810404EE777
:1040E000000000003803000019390000002800D04B
:1040F000704710B5144C2089012801BFDFF86814FF
:1041000008880028FFF749FF0020208010BD00002C
:10411000F4020000F4020000808F012800D07047F4
:1041200010B5FFF72AFFDFF864170446C868401E81
:10413000C86005D12046FFF727FF0020FFF76AFA85
:104140002046BDE810401FE73C2200204803000045
:10415000F8B5DFF83857DFF808672C69002709E061
:104160007068182200F110017A43895809B120467D
:1041700088477F1C30688742F2DB2E880121298026
:10418000FFF7FBFE0546204600F08CF90320207562
:104190002046FFF7C1FF2846FFF7F6FE6460246063
:1041A0003046BDE8F24086E738B50446FFF7E5FE45
:1041B0000546A068294698E1020000D1704730B555
:1041C0008DB06B46DFF8541704A8FFF703FB04A972
:1041D0000391FFF7D2FE01F029FB0069029000F085
:1041E00061F90398FFF708FBCDF804D0CDF800D0B3
:1041F0000298C0F818D02046FFF7C6FE2846FFF701
:104200005AFFFFF7BAFE04460398FFF7F4FA0020BE
:1042100003902046FFF7B8FE0299002088610DB098
:1042200030BD000044030000400300002DE9F041D0
:1042300016460546B069A8600F46706A002803BF9D
:10424000DFF8DC06016869626862346A984614B96E
:10425000DFF8D0060468FDF780FE421EF169D24304
:1042600069B338B14018401E1040241A0C19286256
:10427000144000E029624FF0FF30EC616862AF62E9
:104280003069E86271692963B06A6863B08DA88794
:10429000012804D1DFF8F405C168491CC160DFF8CA
:1042A000C005016800291ADD01F00AFB434600221F
:1042B000890000F0D5FFA86388B9022015E010B18D
:1042C0000419641E1440EC610246E969686A4346B9
:1042D00000F090FF00282862D1D1012005E041467E
:1042E000284600F004F800B1801CBDE8F081F8B564
:1042F0000D4688B004462B46DFF82C26DFF82C1636
:10430000FDF727FE206108B9012051E0012020754A
:104310000021DFF89003A161854203D1684600F0D7
:104320001FFF6D460027DFF8386500E07F1C30680E
:10433000874214DAA06B002140F827101822716818
:10434000081D7A438258002AF0D02946204690471B
:10435000284600F00FFF0028E8D0B81C28E0A0682D
:10436000DFF8285500280AD50021DFF8C805E160EC
:1043700021460268A8182064FFF7E0FB17E0A06858
:1043800001218140E160A168A869FDF747FF206431
:1043900001202E882880FFF7F0FD0546204600F01A
:1043A0009DF82846FFF7F0FD3046FFF784FE002019
:1043B00009B0F0BD2DE9F8450C00054642D1DFF803
:1043C000CC743E8801203880FFF7D7FD8046287DD9
:1043D000012810D12846FFF7C0FB286C01688142F4
:1043E00003D17A68E86882437A60A86978B1C068C6
:1043F00008B1FFF700FA287D022808D1A86968B142
:10440000FFF7ABFBA869C06808B1FFF7F4F9287D96
:10441000032803D12846FFF7A0FB02E02846FFF758
:104420007BFE4046FFF7B0FD3046FFF744FE686A6A
:1044300010F1010F03D0EA69296A00F017FF022C7E
:1044400003D128E0012CF2D125E0032C23D0DFF8A2
:104450001084D8F80070002F1DDD002C0CBF3E46E4
:10446000261F4FF0000A18240BE0D8F8040000F1D2
:10447000140104FB0AF2895809B1284688470AF159
:10448000010AB245F1DBA96B01F01AFABA00BDE8E6
:10449000F84500F0EBBEBDE8F185000084030000A4
:1044A0009B3B00002DE9F0410446DFF8E053D4F8CF
:1044B00040806E68E768FFF750FBD8F80010414570
:1044C00004BFBE436E602869A04204BF0021696139
:1044D0000220207501212981BDE8F08138B504460C
:1044E000FFF74BFD05462946204600F005F8284613
:1044F000BDE83240FFF748BD2DE9F041DFF88C639D
:10450000776804468846E568206C2146FFF70CFB77
:104510002F4377600120207530814046FFF734FD3E
:10452000BDE8F041FFF729BD80B5DFF80C04DFF8E6
:104530000C240068904204D1FFF721FDFFF7C6F973
:104540000CE050B9FFF71BFD002001E00098401C73
:10455000009000980028F9D000E08047BDE80140B5
:10456000FFF70BBD00000000202200201404000013
:10457000180400004F3D0000FFF7B7B9EFF31180BA
:104580000021FFF7B5B910B5FFF7F6FFDFF8B0135C
:104590004A698869D20800EBC202083A0A6100241D
:1045A0004FF0FF320A6007E021460020FDF7F4FCDF
:1045B000002100F079F8641CDFF8880301688C4260
:1045C000F2DBFFF714BCF8B50446DFF87C03DFF834
:1045D00070730668F8690D4650F82510B1420BD18A
:1045E000DFF84C03009029462046FDF7DFFCF86910
:1045F00050F82510B14201D10020F2BD2046F2BD95
:10460000FEB51746DFF8442305461E46DFF8400393
:104610001368089C0088994209DBDFF83863376823
:104620000191002502950097A623002213E0DFF8F0
:104630001023DFF814C36982D36953F82120DCF812
:1046400000309A420DD001910022DFF80C130B6864
:1046500000930292AF230146204600F09BFD01200B
:10466000FEBD084600F0A8F8AF6070696860306A67
:1046700010F1010F08BFFF2028740021E960308B82
:1046800008B10121E960B08C18B1E86840F002007F
:10469000E8602146284600F007F800B1801CFEBD06
:1046A00000000000A01D002038B50446217BB4F9AD
:1046B00012008A07054602D5217C202907D2A1686D
:1046C00000F0D0F8B4F912004042608209E0DFF84F
:1046D0007012486ADFF8E81240F82540284600F0DA
:1046E000C1F8217C284600F0EFF8207BC10744BFC9
:1046F000284600F079F80020E06032BD012900D1A1
:10470000704710B5B0F91240200048BF64422046FF
:1047100000F052F8DFF830020168204600F0A2F8FD
:10472000DFF81C124A6A002042F8240010BD70B560
:10473000DFF80C02DFF82412C069DFF8243201F63A
:104740000852106014689C4210D0002409E00F2C1D
:1047500026BFDFF8F4512D6853F8245040F8245058
:10476000641CDFF8E8512E68B442F0D3DFF8F4415E
:1047700053682568DFF84C0223F47F4303EB0523DD
:10478000C31853602023DFF88C0293760468D4604A
:10479000D1F8340F20F04040C1F8340F70BDEDE681
:1047A000000000002021EFF3118081F31188704791
:1047B00080F311887047000010B51028DFF89C11B5
:1047C00004D300F028F8C1F880310AE00F2807D19F
:1047D00008690A6932F0020200F002000A6100E092
:1047E000002000BF10BD000010B51028DFF86C11CC
:1047F00004D300F010F8C1F800310AE00F2807D107
:1048000008690A6952F0020200F002000A6100E041
:10481000002000BF10BDA0F11002520901EB82017F
:10482000B0F11003012403F01F03D1F8000104FAD2
:1048300003F31840704700008004000010280DD3D7
:10484000A0F11002DFF81411520901EB82031038B5
:10485000012100F01F008140C3F880127047000062
:10486000AC040000DFF8D820D36903EB80000268B5
:104870008A4218BF0160704710B5DFF8C440206954
:1048800005F018FD0021216010BD00003C22002031
:1048900070B50246DFF8A8008369536044699460EC
:1048A00025462878BE2803D001200021116070BD64
:1048B00000200029F9D015F8016FBE2EFBD0691E2B
:1048C0005B1AE318136070BDDFF8902010280244D3
:1048D00002D382F8F0137047042828BF82F8141D11
:1048E00070470000B40400008160426070471028E7
:1048F00004D3DFF868101038C1F8000F704710B506
:10490000DFF83C305C6801222280DFF83422126834
:1049100012B1BDE81040104710BD0000A9410000D1
:104920008C0400009004000051410000DD3F0000B5
:10493000A01D00202004000088040000CD380000E5
:10494000C02100204C01000058010000F8000000C8
:10495000A66E0000F4000000F000000000E000E09F
:10496000A80000005C0100002DE9F0410446FFF7BB
:1049700003FEDFF86402058801210180DFF85C0294
:10498000068801800020FEF734FE8046DFF87006BE
:10499000DFF88027416AD2F8040D00F0FF0051F8DB
:1049A0002070FC60FFF7EAFD7868B9688847FFF778
:1049B000E3FD4046FEF71DFE06EB0520BDE8F08155
:1049C000AD0501000000FA0500F0FF00FFF730BA66
:1049D000000AFFF78BBB7CB504460D46E16916461D
:1049E00019B1206ABE2202F02DFD216B01912B46E8
:1049F000E06A00903246A16A206AE4692018001F2C
:104A000002F04AFC76BDDFF810070068704705F039
:104A10007DBC000050010000FEF767BFFEF76DBFD0
:104A2000DFF86C17C20744BF01230B60820744BF45
:104A30004FF480730B60400744BF4FF480320A602C
:104A4000704710B5DFF86427C30748BF11608407BB
:104A500048BF5160400748BF916010BD20B5024675
:104A60000020D2E90A2347F6906105F0F3FC012506
:104A7000A94228BF4FF0FF3020BD38B50C4605F0E5
:104A800001FE0500DFF82C07006818BF0125811D15
:104A9000201AB0F1004F05D8081BB0F1004F38BF05
:104AA0008C4200D20C4621460120FFF7CAFFADB26E
:104AB0001DB9BDE8314005F0E9BD31BD2DE9F84C27
:104AC00005460C46D5E90AABD5E90C67AAFB0401FB
:104AD0000BFB041136184F41340C002244EA074105
:104AE0002846FFF7CAFFC5E90E67BDE8F18C80B51F
:104AF000DFF8C416086800281EBFDFF8B41648683F
:104B0000002804D0818811B1002100F099F802E05A
:104B10000000162101604FF0FF3002BDDFF898164B
:104B2000086800281EBFDFF888164868002806D0ED
:104B3000818821B1017B002908BF00F003B87047CC
:104B4000540100002DE9F0410746FFF765FF80465C
:104B5000DFF86856DFF868460120E8610126FFF7B4
:104B60005FFFE16A0A6A142090473969B1F5802F26
:104B700034BF0421090C0120FFF763FF226813688A
:104B8000232100209847DFF83C26DFF83C361660EA
:104B9000186800B10326DFF83416086808B146F03B
:104BA0000406DFF84C06016821F4E02141EA0641E1
:104BB0000160012028604046BDE8F0412EE710B5B5
:104BC000DFF828164C680120FFF72AFF6069A16909
:104BD000BDE81040084700003C22002020220020B1
:104BE000F8B50446DFF834050D4601680E6BB04792
:104BF000D4E90A6732463B4605F02CFC3DB1A6FBE2
:104C0000002306FB013307FB0033C4E90C23F2BD8C
:104C100010B5DFF8A805DFF8444600210160012245
:104C2000C2610121216001202268FFF7F9FEDFF84F
:104C300064160A68136A14209847206810BD0000A3
:104C400038B50446FFF7E8FE05462046FFF7E0FFCB
:104C50002846FFF7E3FE002032BD80B5FDF753F98B
:104C600008B14FF0FF3002BDFDF756B9F8B500218D
:104C700001A8FFF7F9FF0398009004E0BE2101703E
:104C80000099491C009100986845F7D305B000BD14
:104C9000FDF744B9FDF744BA70B50026DFF8F855C2
:104CA00018E031460020FFF7F5FF0024816821B9A4
:104CB000DFF8E82511688160012400F011F834B1B3
:104CC0002B684269591AB1FBF2F14A43026100F0C4
:104CD0002DF8761CDFF8CC0501688E42E1DB70BD53
:104CE000416882688A18521E491E22EA01018160C9
:104CF000704710B5DFF8A8350A691B6893422EBFCC
:104D0000436142610B694A6982608C690461591E82
:104D1000114004D0591A0A44641A8260046101697E
:104D2000B1FBF3F14B430361BDE810408168002201
:104D30000A6003694B60C160704700002DE9FE43C3
:104D40000F46DFF864150D68064614469846284657
:104D5000FDF7EAF8814622463946304600F018F859
:104D6000044649462846FDF7E1F86CB9DFF88805A6
:104D70000168DFF89005009102970196DD23018814
:104D80000022404600F006FA2046BDE8FE830000FF
:104D9000F0B54469631E1A4200F10C0618BF2246A2
:104DA0000B4035681CBF6418E11A01E02E462D68DF
:104DB000DDB16C68531E2B4018BFD31A5F18BC427C
:104DC000F4D35819641AE41A091833B16B606CB142
:104DD0002A680A604C602960F0BD2A681CB10A602C
:104DE0004C603160F0BD3260F0BD0020F0BD2DE9B7
:104DF000F0410D46DFF8B0140F68044616463846F9
:104E0000FDF792F8804632462946204600F006F823
:104E100041463846BDE8F041FDF788B850B5034635
:104E20005C69601E10401CBFA418221A03F10C0418
:104E3000206801E004460068060001D08842F9D3EA
:104E400008604A60216040B15218824205D1026870
:104E50000A604E68406886194E6003F10C02944265
:104E600008D062681019884204D10B682360486832
:104E70008218626050BD0120FDF754B870B5064637
:104E80000C463069206000216160A160DFF81814D1
:104E90000D682846FDF748F80146F0680AE06268A8
:104EA00043689A186260A36842689A4238BF1A46FB
:104EB000A26000680028F2D12846BDE87040FDF7E6
:104EC00035B800007047FEF710BDFEF711BD002099
:104ED000704710B5DFF870350446186800220121CC
:104EE0002044FDF7DFF90021616010BDDFF858159F
:104EF0000A681044FDF7EBB938B50446DFF84C55A5
:104F000060682A6990420BD0DFF83C3518684FF092
:104F1000FF312044FEF754FE28696060002032BD56
:104F2000012032BD31B9DFF82025416013681844F3
:104F3000FEF7A7BE704701207047FEF7D6BCFEF70C
:104F4000DCBCDFF80C150860704738B5DFF8005599
:104F5000806B296850F821401CB3E8684FF0FF319E
:104F6000FEF72EFEFFF7E9FFDFF8E0146C600A6938
:104F7000AA60FFF7E4FFAFF3008005F08FFB024665
:104F800000F09EFC214600F071F9FFF7D6FF0021EA
:104F90006960A960FFF7D3FFE868BDE83240FEF71B
:104FA00070BE31BD30B5DFF8AC440546206889B02D
:104FB00000230022242100F01DF9040011D000F08C
:104FC0003CFC6846FDF751F901208DF818006A464F
:104FD000012104F10800FDF765F900202060606000
:104FE0002C6009B030BD10B5046804F10800FDF76D
:104FF0006EF900F064FCBDE81040242236E10000A8
:10500000C0210020F8B505461646EA69A9691C4684
:10501000304601F0F5FE76602CB1EA69082321469E
:10502000304600F07DF8079BF668AA686969E86871
:1050300000F016F9040001D10020F2BD00F0C9F81B
:105040006968216004F108076A68516861606A68EC
:1050500051680C606A68546000F0C0F8286810F16C
:10506000010F18BF3860286908B171683950384697
:10507000F2BD2DE9F8430C0006469146984624D02F
:10508000089D28000ED1A4F1080700F0A2F87A6864
:105090003968116000223B68796859607A603A602B
:1050A00000F09CF85FEA090008D018F1010F02D166
:1050B0002046C84702E041462046C8472DB97269DC
:1050C000F0683946BDE8F843D0E0BDE8F183F8B5B3
:1050D00005460E461746EA69A9691C46384601F09E
:1050E0008FFE7F602CB1EA6908232146384600F024
:1050F00017F86969FC680839304605F0D5FA286860
:1051000010F1010F18BF3060286908B16168315093
:105110003046F2BD00E000E0600100008C010010AC
:105120002DE9F843CE68356891460A689846A9EBA0
:105130000807521BBA42044688BF3A4601F060FE97
:10514000E0194545C4F80090E06088BF45466460BA
:105150002A46314601F054FE44F80780BDE8F18349
:1051600030B1DFF8781688421CBF202105F0A0BAC4
:1051700070470000DFF868160A78012A04D118B1D8
:10518000C06810B1012000E00020C0B270470000EC
:10519000042009407FB50A9C099DDFF84866029407
:1051A0000195089C35680094A8477FBD18200940E8
:1051B000B821002030200940EC000000000024430A
:1051C0008401001080022443E4000000E800000095
:1051D000FEE7DFF814060068FCF7CDBE0146DFF8F5
:1051E00008060068FCF7C9BE00000000B8210020D6
:1051F000002009402DE9FF41044698460E46154619
:105200004046FFF7B7FF074615B9DFF8E005056828
:10521000002C12BF2046DFF8D805006843462A4616
:105220003146FCF79CFE050013D1012F03D0404608
:10523000FFF7A0FF68B9DFF8BC050168DFF8B80523
:105240000091029601943423018800224046FFF722
:10525000A1FF284604B0BDE8F08100002C200940E1
:1052600080B50093002300F007F802BD10B9DFF805
:1052700080050068FCF77ABE70B51E46049B0D469B
:10528000FFF7B8FF040003D03246294602F0DAF8EF
:10529000204670BDB00100109C0200009802000082
:1052A000A0020000940200004C020000DFF84C1540
:1052B0008888002800D0704738B501228A800024F1
:1052C000DFF83C5504E0686850F824108847641CF7
:1052D00028688442F7DBDFF82C15DFF82C550A68C4
:1052E0009047002404E0686850F824108847641C44
:1052F00028688442F7DB31BD20020000DFF8FC049F
:10530000C08870471E6F00002DE9F0470C4600274B
:105310008046002CC4BFA10005F0CAF9DFF8DC64A8
:10532000DFF8E804C6F800800025D0F800900CE013
:10533000DFF8DC140A6832F8150028B159F8251096
:105340000020884748F825006D1CA542F0DB0120AD
:10535000F080002500E06D1CDFF8B80401688D4284
:105360001ADA01274FF0000A12E000200DE058F889
:105370002A0010F1010F07D059F82A10884748F881
:105380002A0010F1010FF0D1012007400AF1010AB3
:10539000A245ECDB002FDED01FB9DFF87C0400F063
:1053A00009F800203060BDE8F087000000BF4FF032
:1053B000FF30704710B50446FFF70BFF2046FCF79F
:1053C000DEFDDFF858040168BDE810400847F8B575
:1053D0000546FFF7FEFEDFF84814DFF848344A6858
:1053E0001E680124B24206DA0F6847F822504A6864
:1053F000521C4A6000E00024FFF7F0FE2046F2BD98
:1054000010B5044600F009F82046DFF81C140A68BD
:10541000BDE810401047FEE7FEE770B50446FFF711
:10542000D8FEDFF8FC536E6806E0296801EB8602BF
:10543000761E52F8043C9847012E2046F5DABDE866
:105440007040FCF79EBD0000C00100003C2200201F
:10545000802200208404000000F007F80EBD000048
:105460000EB50023009302ABF6E72DE9F7478DB0A8
:1054700000241898ADF818000F98002800F0388123
:105480000F9900780FF270274A1C0F926FF00909EC
:105490006FF000464FF00A081D460BE000F030F9AF
:1054A000641C0098401E0090F8D50F980F99007862
:1054B0004A1C0F92002800F01681252806D00146CC
:1054C0000EAA0DA800F05EF9641CEEE700F01CF9CE
:1054D0002D2905D10120ADF8060000F015F902E0F4
:1054E0000022ADF80620302904D10120049000F0FC
:1054F0000BF901E00022049200224FF0FF332A2929
:105500000092029319D100F009F900900F98009AC7
:1055100010F8011B0F90002A13D5009A0123524264
:10552000ADF8063000920CE0009808FB001130390D
:105530000F98009110F8011B0F90A1F130020A2A78
:10554000F2D32E291CD10020029000F0DDF82A2988
:1055500012D100F0E3F80290002844BF002102912C
:1055600000F0D2F80CE0029808FB001130390F98D7
:10557000029110F8011B0F90A1F130020A2AF2D318
:10558000049808B1009804906C2918BF4C2905D1E3
:105590000120ADF8040000F0B7F802E00022ADF8F9
:1055A000042008A80CAA0023642918BF69290790C1
:1055B0000592039308D100F0ACF84B460298049A88
:1055C0008242B8BF049012E0752907D0782907D02D
:1055D0006F2914D1082300F09CF803E00A23FAE7AE
:1055E0001023F8E70298049A8242B8BF0490049A04
:1055F000059800F098F807900599081A19E07029A5
:1056000010D108200490102300F083F80822059898
:1056100000F089F8401E0790402101700798059915
:10562000091A19E0632906D100F078F80799087083
:105630000120039033E0732910D100F06FF8079038
:1056400000B90797079805F037F80299039011F110
:10565000010F24D0814222D2039120E00F98411EF5
:105660000E980F9101281AD9029810F1010F02D05B
:105670000E99884204D30E98B04202D3029601E0FC
:10568000401C0290DFF8BCC1DCF800A06B462A4643
:105690000FA90DA8D0470E990419081A0E90009969
:1056A0000398091ABDF80600009188B90098401EB9
:1056B00000900DD400F024F8641CF7E707980178F7
:1056C0000EAA0DA800F05EF80798411C0791641C13
:1056D0000398411E00280391F0D1BDF8060001286F
:1056E0007FF4E3AEDDE60D9808B10021017020469D
:1056F00010B0BDE8F0870000286E756C6C290000C2
:105700000EAA20210DA83DE00F9810F8011B0F9064
:10571000704728680168021D2A6070472868011DCB
:10572000006829607047F0B500240025002B44BFB5
:105730005B42002902D54942521E2D25B1FBF3F6EA
:105740000FF22C0703FB1611641C795C00F8011D95
:1057500031460029F2D19442BEBF302100F8011D2C
:10576000641CF8DB290018BF00F8015DF0BD0000E3
:1057700030313233343536373839616263646566C7
:105780000000000010B50C461168022907D3491E1D
:105790001160016821B10C7001684A1C026010BDE3
:1057A000FCF7F3FB0128FAD12046BDE81040FCF7D6
:1057B000EABBDFF894100A681047DFF890100A6817
:1057C0001047DFF88C100A681047DFF8B80001684E
:1057D000084701207047FEE770477047A01D002072
:1057E000E66F0000BC040000440500009022002089
:1057F000CC040000B80400004E6F0000942200208A
:10580000E4040000D0040000F004000030050000B3
:105810000C050000F8040000DC0B00004805000047
:105820009C220020540500004C0500000446DFF8CF
:105830009C00058801210180704708232422002153
:1058400070470000500500003405000038050000D6
:105850003C05000010B500F00FF8DFF874100C687C
:105860000CB122680A60FEF726FC1CB12046BDE898
:10587000104009E010BD0000DFF858100888012230
:105880000A8070474005000010B5044604F110007E
:10589000FCF71DFDE06818B104F10C00FCF79BFD5E
:1058A00000F00DF8BDE810405422FFF7DFBC000007
:1058B0000546DFF820000488012101807047214659
:1058C0000148006870470000840400003C2200206A
:1058D000A44C00203C220020DFF864098068704757
:1058E000DFF85C19084490F84A017047024600202E
:1058F000022904D1012A06D140F2EE207047012A84
:1059000008BF4FF47A707047DFF8341991F84101FD
:1059100020B1D1F86C01002818BF004770472DE96D
:10592000F041DFF81C4994F84201002884B040F0AF
:10593000AE800121DFF80C69DFF80C5984F84211C0
:10594000307B84F841017168C4F86C11A868C0F319
:105950008140B8B93069A8B12F6804F0F0FEC7F3F0
:105960000662642111FB02F2B2FBF0F200230FF693
:10597000B90104F1940004F0BBFEDFF8D0184FF039
:105980000040086001A804F0E9FE002002908DF8B4
:1059900004000022039201AB0FF2D961DFF8B07866
:1059A00004F10C0004F0A4FE01A804F0D7FE0020CE
:1059B00002908DF80400039001AB0822DFF89418E0
:1059C00004F1500004F094FE00230FF2ED52322156
:1059D00004F1D80004F0DAFE002038600023DFF87C
:1059E00078282C2104F1F40004F0D0FEDFF86C08D4
:1059F0000178A968707BC1F3815128B1032903D1D3
:105A0000012084F8390121E0032918BF02291DD0A3
:105A100001291AD1DFF84868DFF8487803200090A0
:105A20001C23D6F800C0DCF804804FF0405200215F
:105A30003846C04701200090384636687768092309
:105A40004FF400720021B84711E081B9386840F086
:105A50004000386004F0BDFEA16841F00401A1607F
:105A600094F84511491C84F8451104F0D7FE686884
:105A700040070CD404F0ADFEA16841F00101A16023
:105A800094F84311491C84F8431104F0C7FE002028
:105A900004B0BDE8F08130B581B0002408B1150034
:105AA00004D16FF00204204601B030BD8160C260B5
:105AB00003610146DFF8880704F0E4FE204601B0E8
:105AC00030BD10B5044604F084FEDFF874170A19DF
:105AD00092F843315B1E82F84331DBB233B98A68F6
