:10000000004001205DBC010039FB021039FB0210E9
:1000100039FB021039FB021039FB021039FB0210C8
:1000200039FB021039FB021039FB021039FB0210B8
:1000300039FB021039FB021011FB021001700A0A91
:100040000B0C090E42708370C170001D70471200C6
:10005000018301000143C5A70D63FFC915B0070166
:100060000028140020C5A700016110610821441078
:1000700003CCB80100EC04A0040CB901002CB95663
:100080004120122004E006DCAB0100FCAB010001C2
:10009000F00120D1A4000110030D2000800E04D235
:1000A000FE3B10034D7D000063044004D780000038
:1000B000F1BD6C92062410081812002064A90100FA
:1000C00018B2041006BA010044B501007C14700295
:1000D00003084741F61002020304070DF0014CFF2C
:1000E000FF0001138F73B01104800C53696D706CA5
:1000F000652043656E7472616C741005ECC6040073
:1001000000EEC8BF13F1CA051005F4CC0A0000F6D2
:10011000CF0513F7D005100BFAD4100000FBD61250
:100120000000FD931835135328BA125605104802E3
:1001300059320000035D38000004634E00000517CB
:100140007200007FFFFF3F00D388F3002460202E61
:100150006302280128530000838605000540014002
:10016000303C183864403C00E387E7000308950002
:10017000F387F40023082A01211C2016005F0041A8
:10018000410104C044DD0700738C0D00738B1F0018
:10019000610304C0A612FF0180062053C003A3021E
:1001A00053010C8004F100A460007D103003A90706
:1001B0009C601B2CF50F501A206C210461261651EF
:1001C000A02603883300141312401C210452480453
:1001D00083C0105045EA100101006418F206641C47
:1001E000128018210452880452900452980463CC5F
:1001F000B42A10010000AC10210452B40443A4102E
:1002000004211CA9C23001A3DF026A12DC242104EC
:1002100052E40452EC0452F40452FC044304150466
:1002200070013DC502A2D40305000000201B435C01
:1002300015131234082104523C04524404524C0455
:10024000525404525C04526404526C04830000B0A3
:10025000620464155543D0231C8339EC886101ED99
:10026000A20312B848210452C00452C80452D00458
:1002700052D80452E004217813C1F567F300080056
:1002800001F0020380BD010001D2342CF0011010F6
:100290000A0001F3FFFF0001F12101A58EF60E0116
:1002A00050100361510000C104532B5129313133E7
:1002B0000A0408F00305771001000241F85E4FBD03
:1002C0001A3CCDA6B8995899B740EB7B60FF4A50CD
:1002D0003F10D2E3B3C974385FC5A3D4F6493FE6F3
:1002E0009D350E480103CCDBFDF4AC1191F4EFB960
:1002F000A5F9E9A7832C5E2CBE97F2D203B0208B20
:10030000D28915D08E1C742430ED8FC24563765C83
:1003100015525ABF9A32636DEB2A65499C80DC07FF
:100320001E97E8063005C7A90000B9AE00E343D622
:100330009EFB4388BDF343FAA6102002091A002051
:100340001083D2EA9221103F2EB37303E003009092
:100350002F002040210847A10C7A12A5082C0A1C66
:1003600000A00164241844BC06200CF60410051AF1
:10037000FDFF005000A00AA3E8033CD2907C520F7E
:100380007C43CAB41043DC30106120521020433A41
:10039000B610C3D03220521120439ECB10C338195F
:1003A0002052122052DA20C3131A2052141043583C
:1003B000CE1012EC601F4500F80531FA1202E91167
:1003C000161002100002771F000B0120FFFF07FE2E
:1003D000100A0A02020102520001100790110020C7
:1003E000041500200111C30100012002BC140020EB
:1003F00004D2000153FF7F1260016CDC021C126CFE
:100400002852030DF00401A3C90000E9C9502101DD
:1004100043341550A11CA10CF301B8157052E81417
:100420001234AC2104523C04D208291004CC32000E
:1004300020B82DB4F2002D4413200165F301E02C07
:100440005C25000002001000000002C01300000044
:050450000280100020F5
:1010000001000000000000000000000000000000DF
:10101000FFFFFFFFDC1400200400000000000000C0
:101020000000000014000000B4BA01001800000025
:1010300020BD0100C0100000481400200400000082
:101040000000000000000000240000009CBA010025
:1010500018000000A5C8000008000000B011000042
:1010600074100000C1C8021001BB021091EB021005
:10107000DDE5021081E00210B9E5021071E5021011
:101080002E0000000100000001000000C0BD0100B2
:1010900000000000FFFFFFFFB41400200400000068
:1010A00000000000000000002800000054B601000D
:1010B00024000000210000001800000000000000D3
:1010C00028130000D41000009BEC021025E202104F
:1010D00005EB021025DE0210FDE10210E1E4021032
:1010E000330000003400000025002900000000004B
:1010F00028140020FFFFFFFFFC1400200400000064
:10110000000000000000000038000000F4B40100FE
:101110002800000001000000100000000000000096
:1011200000000000F7F1021000001A00100000009B
:1011300004000000BCBB0100FE4F010008000000DD
:1011400036000000BC140020041500200900200017
:101150003B0C0100501400200100000000001200B0
:10116000FFFFFFFFEC14002004000000000000005F
:101170000000000010000000CCBA010018000000C0
:101180000000000000001300FFFFFFFF64150020B7
:1011900004000000000000000000000054000000F7
:1011A00060AE01003C0000000000010031000000C2
:1011B00004100000D71301002D0000000000000003
:1011C000B0110000D811000059D20210D9DB021072
:1011D00059EC0210CDD6021085DE02104DE502104A
:1011E00029E502102D00000000001600000000009C
:1011F00000000000FF7F00006C150020FFFFFFFFD4
:10120000E4140020040000000000000000000000C2
:101210005800000074B001003400000039FB0210D7
:101220000100330006000000000000002000000064
:10123000010000001BF80210280000002813000025
:101240005012000093EC02106DEB02104DEC0210F6
:1012500029E00210BDE4021099E402103100000000
:1012600000000000901400200400000000000000B6
:10127000000000001000000010B301002C0000006E
:10128000000000000000030000000F003C00000010
:1012900000000000000000002FF902101000000004
:1012A0000800000044BB0100FFFFFFFFF414002012
:1012B0000400000000000000000000001C0000000E
:1012C00078B60100240000003C1200004014002009
:1012D0000400000000000000000000000C000000FE
:1012E0006CBA010018000000972701000000000000
:1012F00000000000080000000100000004000000E1
:10130000000000000000140000000000E4BA01002A
:10131000000019000000180024000000E9BD0100D1
:101320000040000000020000041000000000100057
:1013300055F002100C000000DBC8000000000000A7
:101340002014002004000000000000000000000045
:1013500020000000E8B1010030000000FCBA0100EC
:10136000010000009BC90000B30C01000000000058
:1013700000001700000200002E0000000000230003
:101380000000150001000000C0110000AC14002096
:101390000400000000000000000000002000000029
:1013A00030B601002400000080CB0000A014002013
:0E13B000200000001CB501000A05808A70476D
:1013C0001DC800002FCA000033CA000037CA000041
:1013D0003BCA00003FCA000043CA0000319F010021
:1013E000DDB0010085AA0100B5B10100DDB9010041
:1013F00029B4010051BA0100FDB301002DBB010069
:1014000095BB010019A90100DFF82C1791F83300F2
:101410000022030604D4582010FB02F288187047FB
:1014200091F88B0001220306F5D591F8E300022222
:101430000306F0D591F83B0103220306EBD591F8A2
:10144000930104220306E6D591F8EB010522030679
:10145000E1D591F8430206220306DCD591F89B0200
:1014600007220306D7D5002070472DE970430646B2
:1014700014461D4603F0EBF86EB1D6E90A23224369
:101480002B43C6E90A23D6E9088948EA040449EA55
:101490000505C6E90845BDE8704303F004B930B559
:1014A00081B004460D4602F00FFCA04231BF241A61
:1014B000641E241A641CA40805F57A70A04238BF83
:1014C000B4F1405F06D2641B012C98BF0124204672
:1014D00001B030BD002001B030BDF0B5DFF85836A6
:1014E00004460025D3F85003012981B022D100E041
:1014F0000068002844D0C668377B07F00F07022F2A
:1015000018D0006800283BD0C668377B07F00F076B
:10151000022F0FD0006898B3C668377B07F00F071B
:10152000022F07D0006858B3C668377B07F00F0753
:10153000022FDDD120B3012502B11060C268167BF5
:1015400006F00F06022E1BD10269012903D1D168D2
:10155000128D891807E01169D68A8E1993F8221323
:10156000192212FB0161406BFFF799FF206003F025
:10157000FCF82168B1FBF0F0206001B02846F0BD16
:101580000020206001B02846F0BDF0B581B00446CF
:1015900003F05DF80546002C1CBFA07A002833D06C
:1015A000DFF8983594F909001E680122F70702FA5E
:1015B00000F10ED5DFF888351B681E0609D5DFF867
:1015C00084355E68113002FA00F0C04306405E6068
:1015D00018600020A072207220606060C4E90400DE
:1015E000DFF85435A06194F9090093F82063824034
:1015F000324393F8220383F8202310B1401E83F86E
:101600002203C8B200F063F9284601B0BDE8F040FB
:1016100003F049B8000000002DE9F047002611242E
:10162000DFF82055DFF810954FF00108F0B20328DD
:1016300048DA09EB401000F53077B97A012941D139
:1016400097F90900113008FA00F0C14329606A686F
:101650001043686097F9090008FA00FA02F0F7FFF2
:1016600099F894134AEA010189F8941303F01BF8DE
:1016700099F88403022817D107F1100003F098F8B5
:1016800000F0FF0001280FD1B86948B199F8841320
:10169000022909D103F08CF800F0FF00012803D1E2
:1016A0000220B8720EE000BF99F8210397F90910E3
:1016B00004FA01F1084389F82103002109F57F703C
:1016C00003F059F9761C032EB0D3BDE8F08730B58E
:1016D000042881B020D1DFF8604404F24C4003F0CC
:1016E00049F8C8B103F041F8054604F24C4003F054
:1016F0003FF84543B5F5967F0ED204F24C4003F017
:101700004CF8052003F0A2FA012084F8910304218B
:1017100004F56B7003F02FF9002001B030BD70B5F7
:10172000044602F094FFDFF81064054696F84C0377
:1017300020EA040486F84C430024D6F8280320B19C
:10174000B03003F017F800B10124D6F82C0320B113
:10175000B03003F00FF8044319D196F84C03002879
:1017600008BF002C13D1D6F8480380B190F824109C
:101770008A070CD5046A284602F095FFD6F848037C
:1017800000220221A0470020C6F8480370BD284669
:10179000BDE8704002F087BFF0B400290CBF012300
:1017A0000023002A0CBF01250025002839D02C0079
:1017B00004BF90F84440002C33D000291CBF91F89E
:1017C0004440002C12D0446B0E6C07690969A408D0
:1017D000A4EB96040026B94218BFFE68A41B04F1CE
:1017E0008054B4F1805F88BF012301D8190018D05C
:1017F000BAB1D1680C7B04F00F04022C11D1516BEB
:10180000046C126900698908A1EB940100249042DC
:1018100018BFD468091B01F18051B1F1805F88BF06
:10182000012503EA0500F0BC7047F0B581B01E4603
:101830006FF002078DF80070054634682246FFF706
:10184000ABFF10B101208DF800009DF90000B842F7
:1018500001BFE968087B00F00F0002280CD100E00E
:1018600024684CB1226821462846FFF795FF0028DE
:10187000F6D002208DF800009DF90010B94204D185
:10188000E86B10B104218DF800109DF90070012F54
:1018900006D12946304603F09EFD384601B0F0BD22
:1018A000022F09D12268002A2946304608D003F0C9
:1018B0006AFD384601B0F0BD042F03D129463046F9
:1018C00003F074FD384601B0F0BD0020704730B51C
:1018D00081B0044602F0BBFE0546974890F8941389
:1018E00021EA040480F8944390F89423110704D467
:1018F000082100F56B7003F03EF8284601B0BDE802
:10190000304002F0D0BE2DE9F04FDFF83CAC81B0A2
:101910009AF88413022905D101B0BDE8F04F1920CF
:1019200002F0A2BE9AF8840301281CBF9AF884032F
:1019300004287BD002F08BFE00900026DAF85003DA
:101940000024C0B1C1680A7B012402F00F02022A00
:1019500011D101690A69C98A9AF82233406B51187A
:10196000192212FB0311FFF79AFD054602F0FDFE56
:10197000B5FBF0F800E0B04600254FF0FF39002736
:10198000F8B203281EDA0AEB401101F53072907AA2
:10199000C0B1107A012502281DD0DAF89803016938
:1019A000C08A9AF822330918192010FB03115069D4
:1019B000FFF775FD834602F0D8FEBBFBF0F048450B
:1019C00098BF81467F1C022FDAD92C4205D04646AB
:1019D0004E4507D905E0B146F7E70CB1464601E0B0
:1019E00005B14E462C4317D066B1012E98BF012693
:1019F00031460AF24C4002F0CCFE0AF24C4002F0B2
:101A0000CAFE0DE00AF24C4002F0C7FE04210AF5BE
:101A10006B7002F0B0FF03E00AF24C4002F0BDFE32
:101A2000009801B0BDE8F04F02F03DBE01B0BDE846
:101A3000F08F70B586B001460022039201920492A5
:101A400002920025487DDFF8042B136803F440233D
:101A5000B3F5802F05D1DFF8F82A13689C0358BF2F
:101A600001258C680022628040F6020623889B1BB9
:101A700009D041F21E069B1B05D041F6E6769B1B62
:101A8000012B0FD91CE0238A4FF6FF32134023822B
:101A9000002819BF4FF60F4003402D2060F30913B3
:101AA00023820DE0238B4FF6FF321340238300285F
:101AB00019BF4FF60F4003402D2060F30913238315
:101AC0000020487502AE009604AB01AA03A9204687
:101AD00001F0C3FE50B1039801884FF6FF729142A6
:101AE00004D10299019801F02AFE03E002990198BD
:101AF00001F06BFEEDB1019C04B9FEE750234FF6F7
:101B0000FF720B21204602F07DFE0546502D10DAB3
:101B100003F0AAFC03F01EFD0749DFF8382AC1F8DC
:101B2000A8031368D9688847000440F00B0044F804
:101B3000250006B070BD0000681E0020402108404E
:101B400000000440081004402DE9F04784B000254F
:101B5000DFF8F4890395D8F850630295002E64D01D
:101B6000D8F86403002804BFD8F86003002840D1E7
:101B7000012585F0010903AA494602A8FFF7ADFC3B
:101B8000040054D1DFF8D0094768002F18BF002C9B
:101B900000F005830298002840F00183D8F8641310
:101BA00003980190CDF8009008F55673D8F86003BB
:101BB00008F55472B847012800F0C481022840F0AB
:101BC000EE82D8F86003D8F86013B0F930400D69A0
:101BD00002F03DFD4FF0FF318C42019047D1D8F823
:101BE0006003002837D00069A84234D1D8F8606378
:101BF00093E0D8F860030028BBD0D8F860030169EF
:101C000030698142B5D196F83310C806B1D50125A7
:101C1000D8F86003C16848880028F9D0D8F8600374
:101C2000C16848880128F3D0A3E702213FE3002DD3
:101C3000A8D102980028A5D00146022938BF012169
:101C400008F24C4002F0A5FD08F24C4002F0A3FD62
:101C500004B0BDE8F087D8F8640328B10069A84251
:101C600008BFD8F8646358D0D8F8506355E0B8F985
:101C700030000021A04202BFD8F810300093AB42E0
:101C800046D0B8F988000121A04202BFD8F86830D8
:101C90000093AB423CD0B8F9E0000221A04202BF61
:101CA000D8F8C0300093AB4232D0B8F938010321E4
:101CB000A04202BFD8F818310093AB4228D0B8F93F
:101CC00090010421A04202BFD8F870310093AB42CA
:101CD0001ED0B8F9E8010521A04202BFD8F8C831EA
:101CE0000093AB4214D0B8F940020621A04202BFD3
:101CF000D8F820320093AB420AD0B8F998020721F5
:101D0000A04202BFD8F878220092AA4240F018817F
:101D1000582010FB01F108EB0106002E00F01081A5
:101D200096F83300010640F10B81D8F86003864233
:101D30001CBFD8F864138E426AD0D8F850434FF0D5
:101D4000000A00E02468002C00F0FA80B44211D0B0
:101D50002468002C00F0F480B4420BD02468002CDE
:101D600000F0EE80B44205D02468002C00F0E8803A
:101D7000B442E7D120692768A84234D102F067FC59
:101D8000D4E90A2343F08051C4E90A210AF1010A87
:101D9000D4E9082343F08051C4E9082102F083FC10
:101DA00002F055FCD4E90A2343F08071C4E90A210A
:101DB000D4E9082343F08071C4E9082102F073FCE0
:101DC00098F84C133069C8F8480341F0010188F8CD
:101DD0004C1308F55470214603F012FB214608F518
:101DE000567003F0E3FA3C00C4D1BAF1000F1FBFF4
:101DF00098F88403012898F88403042800F0A08050
:101E0000DFF8381908F56B7002F0B5FD0198F1E1C3
:101E1000D8F8600300224FF00053FFF726FBD8F8F4
:101E2000640300224FF00053FFF71FFBDFF8100997
:101E300002F0BEFCD8F8604302F009FC5CB1D4E9C2
:101E40000A2343F08071C4E90A21D4E9082343F04E
:101E50008071C4E9082102F026FCD8F8644302F03E
:101E6000F6FB5CB1D4E90A2343F08071C4E90A218E
:101E7000D4E9082343F08071C4E9082102F013FC7F
:101E800098F84C133069D8F85063C8F8480341F00B
:101E9000010188F84C13344600E02468002C4FD030
:101EA000B4420ED02468002C4AD0B44209D0246831
:101EB000002C45D0B44204D02468002C40D0B44259
:101EC000EBD1002C3CD020692768A84236D102F023
:101ED000BEFB0246D4E90A0141F08053C4E90A037B
:101EE000D4E9080141F08053C4E90803104602F028
:101EF000DAFB02F0ACFB0246D4E90A0141F0807340
:101F0000C4E90A03D4E9080141F08073C4E9080375
:101F1000104602F0C8FB98F84C133069C8F8480323
:101F200041F0010188F84C1308F55470214603F084
:101F300067FA214608F5567003F038FA3C00C2D122
:101F4000019857E1039800B10646B6F9304035696B
:101F500002F07DFB4FF0FF318C42074614D1D8F8D8
:101F6000600328B10069A84208BFD8F8606361D057
:101F7000D8F8640328B10069A84208BFD8F86463A0
:101F800058D0D8F8506355E0B8F930000021A0428D
:101F900002BFD8F810300093AB4246D0B8F98800A1
:101FA0000121A04202BFD8F868300093AB423CD078
:101FB000B8F9E0000221A04202BFD8F8C030009377
:101FC000AB4232D0B8F938010321A04202BFD8F8A1
:101FD00018310093AB4228D0B8F990010421A042F7
:101FE00002BFD8F870310093AB421ED0B8F9E801B7
:101FF0000521A04202BFD8F8C8310093AB4214D0EB
:10200000B8F940020621A04202BFD8F8203200935E
:10201000AB420AD0B8F998020721A04202BFD8F813
:1020200078220092AA4240F0B880582010FB01F1BB
:1020300008EB0106002E00F0B08096F83300010690
:1020400040F1AB80D8F8600386421CBFD8F8641317
:102050008E4261D0D8F8504300E02468002C00F094
:102060009C80B44211D02468002C00F09680B442C9
:102070000BD02468002C00F09080B44205D0246876
:10208000002C00F08A80B442E7D12069A84240F0D9
:10209000848002F0DCFAD4E90A2343F08051C4E9D9
:1020A0000A21D4E9082343F08051C4E9082102F051
:1020B000FAFA02F0CCFAD4E90A2343F08071C4E9B9
:1020C0000A21D4E9082343F08071C4E9082102F011
:1020D000EAFA98F84C133069C8F8480341F0010156
:1020E00088F84C1308F55470214603F089F921460D
:1020F00008F5567003F05AF998F8840301281CBFBC
:1021000098F88403042848D0DFF8301608F56B707F
:1021100002F031FC38466DE0D8F8600300224FF041
:102120000053FFF7A2F9D8F8640300224FF00053E0
:10213000FFF79BF9DFF8080602F03AFBD8F8604396
:1021400002F085FA5CB1D4E90A2343F08071C4E956
:102150000A21D4E9082343F08071C4E9082102F080
:10216000A2FAD8F8644302F072FA5CB1D4E90A2307
:1021700043F08071C4E90A21D4E9082343F0807157
:10218000C4E9082102F08FFA98F84C133069C8F8B6
:10219000480341F0010188F84C1338462AE0002D2D
:1021A00000F089803069D8F89813884218BF4FF43E
:1021B00080617CD1002C1CBF029800281FD0D8F869
:1021C0006003002804BFD8F86403002817D102F088
:1021D0003EFA044698F8940300F0F70088F8940358
:1021E00098F89403010704D4082108F56B7002F0F5
:1021F000C2FB204602F057FA04B0BDE8F08702F0B7
:1022000026FA98F8941341F0080188F8941302F024
:102210004AFA96F83300C10608F5547004D503F065
:102220009EF8C8F8640303E003F099F8C8F8600367
:10223000D6E90601DFF86848C043A060E268D6E945
:1022400006010243E260D6E90623DB4323606768A8
:10225000D6E906010F436760DFF8CC797D68F46842
:102260002B46180007D0387A010704D5D8F8980310
:10227000324608219847204602F09AFA208840F614
:102280000201401A08D041F21E01401A04D041F662
:10229000E671401A012808D83DB1387AC10704D543
:1022A000D8F8980322460121A8474FF0804108F54D
:1022B0006B7002F060FB04B0BDE8F0872DE9F04FD1
:1022C000DFF88492DFF8640981B0D9F8608302F006
:1022D000EEFA0646DFF8B8090468076804F020043F
:1022E000344018BFB8F1000F07F4602716D0C9F8C2
:1022F000688302F0ACF9D8E90A232343C8E90A232A
:10230000D8E908AB4BEA0405C8E908A502F0CBF907
:102310004FF4804109F56B7002F02DFB3E400DD06B
:1023200099F8211341EA564089F8210301B009F5D3
:102330007F70BDE8F04F002102F01DBB01B0BDE889
:10234000F08F2DE9F043DFF8009281B099F8210376
:10235000002400284CD099F821030026C1073DD560
:1023600099F821031021B140084218BF012402F05E
:102370006EF999F821131122B240914389F8211383
:1023800002F091F9032E33DA09EB461101F53072B0
:10239000907A68B392F90980DFF8F81801EB8801A8
:1023A000002C0D681668576804BF107A022803D104
:1023B000D2E90401C30009D41046FFF7E6F82CB1B6
:1023C0000020009000224FF0007303E000950022EF
:1023D0004FF0006341463046B84709E099F82103C1
:1023E00001268107BCD499F8210302264107B7D4FE
:1023F00099F8210338B109F57F7001B0BDE8F043C9
:10240000002102F0B8BA01B0BDE8F0832DE9F04335
:102410000FF2481285B0D2E90034CDE900344FF410
:10242000804002F0BFF94FF00008F0B1DFF8680813
:10243000D0F813100078C1F31501800841EAC0718B
:102440004148D0F89833986802AA01F0A9FA3E48AA
:10245000DFF8D417D0F898034B6882681C0004D0CA
:102460000C7AE10744BF012198476E464FF00209FC
:1024700037683868002855D03868D0E9060102F07E
:1024800091F93D680021CDE90201044602F0DFF830
:1024900084467DB1D5E90A23DDE9020110431943E1
:1024A000C5E90A01D5E90823DDE902011043194312
:1024B000C5E90801604602F0F6F814F00A0F2AD0C8
:1024C0003868DFF8CC17DFF8D4378A68DFF8C04700
:1024D000D0E9060118408243A26038682368D0E939
:1024E00006018B4323603A68DFF83C074368190014
:1024F00007D0017AC80604D5134CD4F898031021EC
:1025000098473968DFF8980702F050FF00203860DC
:1025100048F0020806E02CB138680B49C1F868039E
:1025200048F48048361DB9F10109A1D15FEA0801DC
:102530001CBFDFF8700702F01EFAFFF76DF8FFF717
:1025400003FB05B0BDE8F083681E0020B44F0050C7
:102550008C130050E001001078BD0100C82100205C
:10256000CC21002030B5DFF8404781B0B4F96C03CE
:10257000B4F96E13884217D102F069F8054694F851
:10258000940300F0F70084F8940394F8940301078F
:1025900004D4082104F56B7002F0EDF9284601B06F
:1025A000BDE8304002F07FB801B030BD0720FFF732
:1025B000B6B82DE9F041074682B0D7F8A06088464A
:1025C00014461D4606B1B047D7E9260120402940F0
:1025D00008BF002800F08E80DFF8CC56B5F93060D7
:1025E0000024464502BF2A690092BA4203D195F8F9
:1025F0003320160663D4B5F988600124464502BF2E
:10260000AA6E0092BA4203D195F88B20160656D4D2
:10261000B5F9E0600224464502BFD5F8C02000921B
:10262000BA4203D195F8E320160648D4B5F93861CB
:102630000324464502BFD5F818210092BA4203D1BF
:1026400095F83B2116063AD4B5F990610424464525
:1026500002BFD5F870210092BA4203D195F89321B8
:1026600016062CD4B5F9E8610524464502BFD5F815
:10267000C8210092BA4203D195F8EB2116061ED468
:10268000B5F940620624464502BFD5F820220092E3
:10269000BA4203D195F84322160610D4B5F99862D0
:1026A0000724464502BFD5F878220092BA4203D1EA
:1026B00095F89B22160602D4C7E92A0110E0582695
:1026C00016FB04F4C7E92A012C44D4E9082322EAC2
:1026D000000023EA0101C4E90801D7F8A050A56071
:1026E0000020C7F8A00002B007F14800BDE8F041A3
:1026F00002F0BBBF02B0BDE8F081704700B581B009
:1027000002F02EF9DFF8A0250146D2F89803D2F89E
:10271000882301B05DF804EB1047DFF88C050FF259
:102720009152D0F88813914208BFFFF7ECB804210A
:1027300000F56B7002F01FB90000000002000040BD
:102740000100010430B581B04FF0FF3002F02AF8EB
:10275000DFF854550FF259510446D5F888038842E2
:1027600032D10022DFF8F41B05F5787001F07EFF0E
:10277000022085F88403D5F898138A6801F13003A4
:1027800000E00246506890B198421EBF0246506871
:1027900000280CD098421EBF02465068002806D080
:1027A00098421FBF0246506800289842E9D1507BEA
:1027B00010F00F0F02BF488E40F60901884203D087
:1027C000FEF72AFFFFF7C0F9DFF8640C044208D0D7
:1027D00005F56B7001B0BDE830404FF0005102F0DC
:1027E000CAB801B030BD00B581B04FF0FF3001F084
:1027F000D9FF800708D501B05DF804EB4FF4006104
:10280000DFF8A00402F0B7B801B000BD2DE9F04137
:10281000DFF89474D7F85863002E00F0AB80F068AE
:10282000082140F6040240F6030301E04068491E17
:1028300068B1CCB25CB104889C4218BF9442F5D117
:10284000316901F130021AC81AC21AC81AC2D6E98F
:102850000A450022C6E90A22B068D0B115F0E24369
:1028600010D024F00F0235F0E24308BF002A05D053
:10287000B6F930103069D6F808C0E04704F000041B
:1028800005F0E245B6F9301030692246B4682B46AF
:10289000A04701F0DCFE0446B7F86E03401CC0F30D
:1028A0000B00A7F86E036FF00201002086F83300DA
:1028B000318607F5567002F052FD204601F0F3FE16
:1028C000B7F96E03B7F96C13884253D1D7F8982340
:1028D000D7F82863D7F82C5392F8F4100024A046B8
:1028E000052001B10720FEF71AFF2EB196F8F4007B
:1028F00000B9346886F8F4803DB195F8F40008B961
:10290000D5F80080002085F8F400444538BF4446DF
:10291000E4B9B7F96C03B7F96E1388422AD101F014
:1029200096FE044697F8940300F0F70087F89403A6
:1029300097F89403010704D4082107F56B7002F09F
:102940001AF82046BDE8F04101F0ADBE14F1010FC8
:1029500010D001F00AFFB4FBF0F1012998BF01216A
:1029600007F5926001F015FF07F59260BDE8F041B0
:1029700001F011BFBDE8F081CB4A92F8841300202A
:10298000022904BFD2F86013002903D1D2F86413DE
:1029900001B90120704730B50D46A80781B0C24C7F
:1029A00012D5FFF733FFD4F8580340B145F00201C8
:1029B00004F56B7001B0BDE8304001F0DCBF01B040
:1029C000BDE83040FEF79FBF680767D5012184F856
:1029D0009613042002F03AF9DFF8580A01680A6BEE
:1029E0009047C4F89C03D4F8500398B10569D4F813
:1029F0009803002818BFA8420AD095F82400410780
:102A000004D52B6A002204212846984701206875C6
:102A1000C4F89853D4F898034168DFF81C0A0A7880
:102A20000260022002F012F9112002F024F90120C4
:102A300084F884037C49887810B90E2002F01BF9D1
:102A4000D4F8980341688868002804BFC868002843
:102A500006D0DFF8A80CDFF83C2C0021C161026031
:102A60000720DFF8601C08600021DFF8900C426945
:102A7000416182698161426942F0402242F0020272
:102A800042610FF22100C4F888031A2001F0E1FD31
:102A900001B0BDE83040192001F0DBBD01B030BD10
:102AA000081004402DE9F0430446880081B040F14D
:102AB000B780DFF8F481D8F89803416848688E68D9
:102AC000CF68010018BF80473000DFF8305C01D1CB
:102AD00038000ED0E8690028FCD00021E961300000
:102AE00018BFB047380018BFB847DFF8140C01F022
:102AF0005FFE0020E86140F60A09DFF8081C296043
:102B0000A8F87093A8F8720398F87C1301F0F0010C
:102B100088F87C13C8F87403204698F87D1301F0F8
:102B2000F00141F0010188F87D13FEF782FFA668ED
:102B3000374640F6040140F6030200E00746786895
:102B400028B103884B451CBF93428B42F6D17B7B57
:102B500008F55C70786003F0F0037B73D8F85003DD
:102B6000D8B1C0680088904218BF884215D10021B2
:102B7000C8F89C13E8690028FCD00021E9610FF235
:102B8000311298F89103C8F8882328B302F025FA87
:102B90000028FBD002F03EFA2FE0208E0028E9D07A
:102BA00000216186616394F83D0094F83C1000F0C8
:102BB000F00040F0010084F83D0001F0F00184F8DD
:102BC0003C1004F13000C8F8740398F87D1301F04C
:102BD000F00188F87D13CDE734490A6813680120B5
:102BE0009847012809D0787B00F0F00040F0010000
:102BF00078730FF23D00C8F888030021E9612E6068
:102C0000DFF8040B436819000AD0007AC10707D522
:102C1000D8F89803324601B0BDE8F04301211847C7
:102C200001B0BDE8F083000084BC010020000E006C
:102C3000DFF8D82A114200D1704710B51B490A6845
:102C400013680120984701280DD1DFF8C40A0FF25C
:102C50006101C0F888130022DFF8A01ACA6100F5EC
:102C60005C70086010BD01F080FD3221B1FBF0F115
:102C70000129DFF89C4A98BF012104F24C4001F081
:102C800088FD04F24C40BDE8104001F084BD000016
:102C90000C1004409430044085030021FDBFFFFF69
:102CA000C021002014220020681E0020E001001036
:102CB0002DE9F04F044688465FEA484083B0DFF8CC
:102CC000509A2CD501F0C3FCD9F8686316B3D6E945
:102CD0000A2302F00A0413F0E04508BF002C19D1C2
:102CE000D6E90A45D6E90A23A243AB43C6E90A233B
:102CF00001F0D9FCB06878B1002D08BF002C0BD0D2
:102D0000B6F9301030692246B4682B46A04728F443
:102D1000804815E301F0C7FC28F4804810E35FEA1F
:102D2000880040F18280DFF8EC09D0F88C1041F087
:102D30008001C0F88C1099F8960328B1042001F0A6
:102D40001AFF002089F8960301F081FCDFF8E4A661
:102D5000DAF854100A6805460420904700281CBF82
:102D6000207D00281FD0D9F89C03E0B10746DAF88F
:102D700000002669016B8847874231BFC71B401E90
:102D8000C71B7F1C3F0BB742276102D2F61976089A
:102D9000266140F699012069A0F59670884224BF0B
:102DA00040F6C4102061284601F07DFCD9F8981344
:102DB0008A6801F1300300E00246506890B1984201
:102DC0001EBF0246506800280CD098421EBF024623
:102DD0005068002806D098421FBF0246506800285D
:102DE0009842E9D1507B10F00F0F02BF488E40F699
:102DF000090290420FD1E56900224FF000736FF491
:102E000080712046A847D9F8500310B1FEF77BFD2A
:102E100001E048F002082046A46900224FF08063D8
:102E20000021A04728F000588AE25FEA887009D59F
:102E3000FFF7ECFCD9F85803002840F0818228F015
:102E400002087DE25FEA485040F1B48001F0FFFBE8
:102E50000546FFF791FDD9F85043012840F0A480C2
:102E6000002C00F0A180042089F884030022DFF800
:102E7000A81809F5787001F0F9FB284601F013FC59
:102E800009F5926001F089FCDFF8A80501680A6B7A
:102E90009047C9F8A003012089F89603042001F0A7
:102EA000D5FE2069C9F8980390F824104A0703D585
:102EB000036A002204219847D9F89803DFF83C58A8
:102EC00041688E68CF684868002E08BF002F04D084
:102ED0000021E961DFF8BC272A6008B1C046C0467E
:102EE000002E08BF002F0CD0E8690028FCD000217C
:102EF000E96106B1B04707B1B847DFF8040801F04F
:102F000057FCD9F898030121417540F60A06FEF7EF
:102F100090FDD9F898339A68114640F6040C40F6B3
:102F2000030E00E00146486828B10788B7421CBF7D
:102F300077456745F6D1002048604E7B06F0F006E5
:102F400046F001064E73E0680088704518BF604582
:102F500003D10020C9F8A00315E0188E98B103F141
:102F60003000002444804460047B04F0F0040473C7
:102F7000447B04F0F00444F0010444734860487B4F
:102F800000F0F00048730020E8612A60DFF878075D
:102F9000446821000BD0007AC10708D501211846EA
:102FA000A04728F48068CBE1284601F07CFB28F498
:102FB0008068C5E15FEA085163D599F8960328B1A6
:102FC000042001F0D8FD002089F89603D9F8984331
:102FD00004F1080104F130050B6800E0034658686D
:102FE00090B1A8421EBF0346586800280CD0A842E2
:102FF0001EBF03465868002806D0A8421FBF0346DC
:1030000058680028A842E9D1587B10F00F0F02BF82
:10301000488D40F60902904207D12046E46900221B
:103020004FF000736FF48071A047D9F8A00398B1F6
:10303000DFF800140868026B9047D9F8A0138142AA
:1030400031BF401A401E401A401CD9F89813000B9B
:10305000C8600020C9F8A0030022C04909F57870B3
:1030600001F004FB022189F88413D9F8580318B140
:1030700009F56B7001F07FFCFEF745FC28F4006851
:103080005EE15FEA087040F1548101F0E0FA0190DE
:10309000FFF772FC002800F0448199F894030107BF
:1030A00000F13F8199F89403010600F13A81D9F8C3
:1030B000500300240025C8B1C1680A7B012502F035
:1030C0000F02022A12D101690A69C98A99F82233CA
:1030D000406B5118192212FB0311FEF7E0F9064666
:1030E00001F043FBB6FBF0F1009100E000940026F4
:1030F0004FF0FF374FEA040A5FFA8AF002281FDC1C
:1031000009F5307101EB4012907AC8B1107A0126AE
:10311000022820D0D9F898030169C08A99F822338F
:103120000918192010FB03115069FEF7B8F98346FE
:1031300001F01BFBBBFBF0F0B84298BF074600BF95
:103140000AF1010ABAF1030FD6D3354205D0009C2B
:10315000BC4207D905E00027F7E70DB1009C01E06C
:1031600006B13C46354302D0002C00F0DA8099F8D5
:103170002103002840F0D58000260125F0B2022866
:103180001FDC09F5307101EB4011887AC8B18D72EE
:1031900091F9097001F05BFA044699F8940305FA75
:1031A00007F720EA070789F8947399F8941308073A
:1031B00004D4082109F56B7001F0DDFB204601F015
:1031C00072FA761C032ED9D3032089F8840309F5FB
:1031D000926001F0E2FA0198DFF8204501F063FA0D
:1031E0006069002161610022E068E16009F57870A2
:1031F000DFF8D01A01F03AFA8E4801680A6B90475E
:10320000D9F89C13814231BF401A401E401A401C1D
:10321000D9F88C134FF0FF32A2EB10328A4234BF40
:103220004FF0FF3001EB1030C9F88C0399F8900390
:1032300030B1D9F8A403D9F88C13C00288422FD238
:10324000DFF8D0040268D10725D5DFF8E00A00686E
:10325000010620D540F60900A9F870030021A9F85D
:10326000721399F87D0300F0F00040F0010089F836
:103270007D0399F87C0300F0F00089F87C03C9F81D
:103280007413E16109F55C71216000BFB9F8720344
:1032900010F4406FFAD0002189F89053C9F88C13CC
:1032A00001F093FADFF81C14DFF85C44002008609A
:1032B0006368180007D0207A810704D5D9F89803ED
:1032C000002202219847022001F055FC112001F054
:1032D0006BFC99F8950320B9D9F89803483002F0AF
:1032E000C4F9A07810B90E2001F05EFC99F89103A2
:1032F00028B1002189F89113052001F03CFCDFF88A
:10330000300AC9F88803002189F884130220B9F92A
:103310006E13B9F96C23914208BF0720FEF7FFF93D
:1033200002E0019801F0BFF9FEF7EDFA28F0080875
:1033300006E05FEA480003D5FEF7E5FA28F080488A
:10334000B8F1000F07D0414609F56B7003B0BDE836
:10335000F04F01F010BB03B0BDE8F08F0D2400006A
:103360002DE9F54CDFF8A8A3DAF8504381B09B466D
:1033700000250E4600E02468002C55D0B4420ED043
:103380002468002C50D0B44209D02468002C4BD0C3
:10339000B44204D02468002C46D0B442EBD1002CB7
:1033A00042D0206901992768884237D101F04FF94E
:1033B000D4E90A2343F08051C4E90A21D4E908235F
:1033C00043F08051C4E9082101F06DF9BBF1000F11
:1033D00018D001F03CF9D4E90A2343F08071C4E924
:1033E0000A21D4E9082343F08071C4E9082101F0DF
:1033F0005AF99AF84C133069CAF8480341F00101B0
:103400008AF84C1321460AF5547001F0F9FF214661
:103410000AF5567001F0CAFF15F101059DF8080084
:10342000002818BF3C46BAD1284603B0BDE8F08C4E
:10343000020000408C010010D02108402DE9F04727
:1034400092460326BAF1000F84B081461D4614BF90
:103450004FF080474FF000570C4601F0F8F84FF05E
:10346000FF318C420190DFF8A88256D1D8F8600372
:10347000002846D00069484543D1D8F86043002C65
:1034800000F0018194F83300010640F1FB808DF8D3
:1034900000500C9ED8F8600384421CBFD8F8641317
:1034A0008C4240F0D880D8F8605301F0D0F88446C0
:1034B0004DB1D5E90A013943C5E90A01D5E9082327
:1034C0003B43C5E90823604601F0EDF8D8F86453A2
:1034D00001F0BDF884464DB1D5E90A013943C5E98B
:1034E0000A01D5E908233B43C5E90823604601F0FA
:1034F000DAF8BAF1000F14BFDFF8180ADFF8180A7B
:1035000067E0D8F8640328B10069484508BFD8F8D7
:103510006443B4D0D8F85043B1E7B8F93010002074
:10352000A14202BFD8F8103000934B4505D1582175
:1035300011FB00F008EB0004A1E7B8F988100120A6
:10354000A14202BFD8F8683000934B45EFD0B8F9DC
:10355000E0100220A14202BFD8F8C03000934B45D2
:10356000E5D0B8F938110320A14202BFD8F81831CC
:1035700000934B45DBD0B8F990110420A14202BF63
:10358000D8F8703100934B45D1D0B8F9E811052037
:10359000A14202BFD8F8C83100934B45C7D0B8F953
:1035A00040120620A14202BFD8F8203200934B45BA
:1035B000BDD0B8F998120720A14202BFD8F87822EE
:1035C00000924A455FD1582111FB00F008EB00043E
:1035D00055E701F0EDF896B3D8F8605301F037F8ED
:1035E00002465DB1D5E90A0141F08073C5E90A03DD
:1035F000D5E9080141F08073C5E90803104601F0E0
:1036000052F8D8F8645301F022F802465DB1D5E9CA
:103610000A0141F08073C5E90A03D5E9080141F0C8
:103620008073C5E90803104601F03DF898F84C1383
:103630002069C8F8480341F0010188F84C139DF84F
:103640000000E8B10246D8F8501333464846FFF769
:1036500087FE832617E033462A4621464846FFF771
:103660007FFE78B198F8840301281CBF98F8840382
:10367000042805D0DFF8441A08F56B7001F07BF9D7
:10368000832600E00426019801F00DF8304604B0CE
:10369000BDE8F0875100070610B50C461C4991F8AB
:1036A0008423022A0BD101F083F804B1206000F0DA
:1036B000FF00012801D1812010BD022010BD012092
:1036C00010BD000000000460F0B581B004460D4656
:1036D000164600F0BCFF07460D48D0F898138C4200
:1036E00018BF032404D131462846FFF7D5FF04460E
:1036F000384600F0D8FF204601B0F0BD001004406D
:103700000100070601010E0484BC01000400002032
:10371000681E002040210840E727000030B514460D
:1037200081B00546502340F2FF3201F06BF824B11E
:10373000014655F82110890A216001B030BD0029E9
:1037400042D00A0E202A08BF10221AD0212A08BF10
:10375000202216D0A02A08BF302212D00AB9402257
:103760000FE0102A08BF50220BD0112A08BF602298
:1037700007D0402A08BF702203D0502A0CBF8022F5
:1037800090228901090A42EA012141F00F0100E07B
:10379000001D026812F1010F18BF8A421CBF50F8C9
:1037A000042F12F1010F0ED08A421CBF50F8042FD3
:1037B00012F1010F07D08A421EBF50F8042F12F1F8
:1037C000010F8A42E4D101607047002944D00A0EFB
:1037D000202A08BF10221AD0212A08BF202216D082
:1037E000A02A08BF302212D00AB940220FE0102AC6
:1037F00008BF50220BD0112A08BF602207D0402AF0
:1038000008BF702203D0502A0CBF80229022890169
:10381000090A42EA012141F00F0100E0001D02689F
:1038200012F1010F18BF8A421CBF50F8042F12F189
:10383000010F0ED08A421CBF50F8042F12F1010F65
:1038400007D08A421EBF50F8042F12F1010F8A429E
:10385000E4D14FF0FF31016070472DE9F04381B0B2
:103860000546089C0E461746994601F025FF0E288E
:1038700003D001F021FF0F2849D1288840F602012A
:1038800088424FF0010860D0B0F5C15F6AD043F6BE
:103890000601884273D005F11A023260E869386087
:1038A000A96AC9F80010E86A206095F824702D7E96
:1038B000D9F8000005F0070588B105234FF6FF721F
:1038C00040F2037100F09EFF0646052E07DA2946F6
:1038D000384600F0AFFFD9F8001041F82600206804
:1038E00078B305234FF6FF7240F2037100F08AFFB0
:1038F0008146B9F1050F24DAFF21384600F09AFF1E
:10390000216841F82900404601B0BDE8F0832888CD
:1039100040F60201884218BFB0F5C15F4FF00008C1
:1039200039D043F60601884207BF05F11A0030601E
:1039300005F11A023260E8693860C9F80080C4F8FD
:103940000080404601B0BDE8F08305F1120232600C
:1039500068693860A969C9F80010E8692060EF7BE0
:103960002D7CA5E705F11200306069693960686A4D
:10397000C9F80000A96A2160EF7B2D7C98E705F16A
:103980001A003060E96939600027286AC9F8000028
:10399000696A21608BE705F1120030606869CBE746
:1039A0002DE9F04186B015460C46002202920492A1
:1039B0000392019201A9009103AB04AA02A9FFF7A7
:1039C0004CFF8326E20F30D130B3039800281CBF90
:1039D000019800281AD00298048040F22B28039FF7
:1039E00041463846FFF79AFEFF281CBF48EA84216B
:1039F00047F8201001990498FFF7E7FE152028806A
:103A000030460399696006B0BDE8F08102980188EC
:103A10004FF6FF72914249D002980480102129800C
:103A20006C80304606B0BDE8F08100283ED0039897
:103A300000281CBF019800281CD002984FF6FF7187
:103A400001800022019F2B213846FFF767FEFF28E7
:103A500004D0A40244F02B0447F8204001990498B4
:103A6000FFF76DFE1520288030460199696006B089
:103A7000BDE8F081049F00222B213846FFF74EFE5F
:103A8000FF2804D0A10241F02B0147F82010FF28A5
:103A90000CD002994FF6FF70088014222A80C4F3DC
:103AA00015046C60304606B0BDE8F0810326304650
:103AB00006B0BDE8F0812DE9F043DFF8FC8889B05D
:103AC0000C001546D8F8081018BF002D1F4600F04E
:103AD000F4802278D140CB0740F1EF8006460021E8
:103AE00028460020C046B560746000F0B0FDDFF8E5
:103AF000CC98054699F89503022880F2DB800028CF
:103B000040F0868000F065FFDFF8B408DFF8B448C5
:103B1000016841F002010160DFF8AC08C8F800005C
:103B2000684600F0E7FE6078DFF8A01802906A4669
:103B300009F56B7000F0E6FE6A46DFF8941809F5A7
:103B40007F7000F0DFFE684600F0A5FD20785D4A3A
:103B500001906B46192109F5787000F055FD6B4610
:103B6000DFF870281A2109F5866000F04DFD00236A
:103B70000022DFF8641809F24C4000F0CFFD00236A
:103B80000022DFF8581809F5926000F0C7FDDFF851
:103B900050080168C1F3814038B10023DFF84428A0
:103BA000042109F2D44000F0D0FFA078012804BF1E
:103BB0000E2001F060F809F5567001F0C5FB09F51B
:103BC000547001F0C1FB002089F88403C9F88C030C
:103BD0000021072089F8901389F8911389F82003B0
:103BE000C9F89C1300200521C9F8A003C9F8A41343
:103BF00089F894034E49C9F888136368180007D000
:103C0000207A410704D5D9F8980300220421984767
:103C100099F8950309EB8002401CC2F8286389F8E3
:103C200095033C46284600F03EFD3CB90FF2D841D2
:103C300091E8BC51684680E8BC516C462068306011
:103C40004FF4FA71F160A06970620120218AF1825B
:103C50007075E169F162606818B1306100203075FB
:103C600004E040F6C410012130613175DFF8EC0743
:103C7000F0613062B061E06800B1F061606900B18C
:103C80003062A06800B1B061C82106F1300001F0D7
:103C900079FD002106F1480001F0A6FC0023002276
:103CA000DFF8DC1806F1B00000F038FD304609B04E
:103CB000BDE8F083284600F0F6FC002009B0BDE81E
:103CC000F0830000452700002DE9F04D00F0BFFC17
:103CD000DFF8E84694F8841302291CBF94F8841393
:103CE000042907D1DFF89C28146800F0DCFC20468A
:103CF000BDE8F08D00F0D7FCDFF88C08DFF8B08865
:103D000001680A6B904710F5003641F1000AD4F8BB
:103D10008013A8FB067B002008FB0ABB3C184BEB7A
:103D200001052C462046BDE8F08D0000000004404F
:103D3000972900002DE9F04F83B081460F461546C4
:103D40009B4600F084FC01906FF00106DFF86C8662
:103D5000D8F82803814508BFD8F82C0330B1B0301B
:103D600000F008FD10B16FF00206AAE0FDF74CFB71
:103D7000040000F0C680DDE90C6A08F5926000F0EE
:103D80000CFDB8F86C03401CC0F30B00A8F86C03E2
:103D9000E760002084F83200C4F808B02021B8F8A9
:103DA0006C23DFF810082286C4F8109030400AEA2D
:103DB0000101C4E90601002284F83320C4E9082285
:103DC000EE6826642A7C84F844202B6863632A7991
:103DD00084F83820AB68E3636A69A264AB69E36482
:103DE0002A7F84F850206B7F84F851302A7C22B9D6
:103DF000EA6812B1012384F844302A79002A02BF0C
:103E00003A7B02F00F02022A04D1012284F8382002
:103E1000BB686363082301E017465B1E7A68002ACB
:103E200018BF002BF8D13A8802F47C42B2F5305F1B
:103E30000AD194F8332042F0100284F8332040F085
:103E40000800C4E9060103E040F00202C4E90621CB
:103E5000D8F84803484507D198F84C03C10744BF38
:103E600000F0FE0088F84C03DFF84C0706686FF09E
:103E700002050EB92E461DE0D8F8642308F55670E9
:103E8000009008F55473D8F860132046B0470646F2
:103E9000AE420FD0B8F96C03B4F93010884206D0A6
:103EA000B8F86C03411EC1F30B01A8F86C1316F1AE
:103EB000020F0FD1B8F86C03411EC1F30B01A8F833
:103EC0006C13C8F8489398F84C0340F0040088F845
:103ED0004C0316E0B4F9306094F8330040F08000F1
:103EE00084F83300002189F8F410D8F85003A04278
:103EF0001FBFE168087B00F00F00022808BFFDF734
:103F000002FD019800F0CFFB304603B0BDE8F08F12
:103F1000000000000100020401000104F0B50646A3
:103F20000F46380081B014461D4603D500200021FD
:103F300001B0F0BD00F012FDDFF88024B2F930309E
:103F40000021BB4202BF13690093B34203D192F830
:103F500033301B0660D4B2F988300121BB4202BF66
:103F6000936E0093B34203D192F88B301B0653D467
:103F7000B2F9E0300221BB4202BFD2F8C030009358
:103F8000B34203D192F8E3301B0645D4B2F938317D
:103F90000321BB4202BFD2F818310093B34203D1D0
:103FA00092F83B311B0637D4B2F990310421BB4261
:103FB00002BFD2F870310093B34203D192F893312B
:103FC0001B0629D4B2F9E8310521BB4202BFD2F861
:103FD000C8310093B34203D192F8EB311B061BD4D6
:103FE000B2F940320621BB4202BFD2F82032009320
:103FF000B34203D192F843321B060DD4B2F9983282
:104000000721BB4202BFD2F878720097B7420BD1AA
:1040100092F89B723B0607D5582313FB01F1571802
:1040200097F833100A0605D400F0A7FC02200021FF
:1040300001B0F0BDD7E9082344F00A0445F0E0459B
:1040400022402B4008BF002A0ED000F096FCD7E992
:10405000080120402940C6E92A01D7E90823824304
:104060008B43C7E9082312E0BA68DFF850158A428B
:1040700003D0BA68C6F8A020B960C6E9264500F0AA
:104080007CFC4FF0FF3106F1480001F0E3FAD6E97D
:104090002A0101B0F0BDD0B582B00446DDE9066763
:1040A000CDE90067FFF746FE0146204602B0BDE8B5
:1040B000D0400A224FF0E04330E700000200004009
:1040C00000B581B0930803F001030093530803F097
:1040D000010302F00102FFF7B1F901B000BD00B524
:1040E00081B0930803F00103009302F00102012361
:1040F000FFF7A4F901B000BDF0B500BF02A191E83F
:10410000FC5080E8FC50F0BDFFFFFFFF0000000006
:1041100000000000000000003A013A010000000029
:1041200000000000000000000022FFF7CDBA0022CE
:10413000FFF7CABA00B581B06A46DFF88814FFF706
:10414000C3FA812803BF0098000200166FF07F00B9
:1041500001B000BD70B50E46154600F078FA832414
:10416000052E36D8DFE806F0030F15351F28DFF8D7
:104170005024D2F8601321B1D2F860130A8E2A803D
:1041800028E0802426E0DFF8381491F820232A80E4
:1041900020E0DFF82C1491F88423022A0CBF0121BF
:1041A0000021297016E0DFF81814D1F828232A60BE
:1041B000D1F82C1369600DE0DFF80424D2F828133D
:1041C00001B1C9682960D2F82C1301B1C9686960CE
:1041D00000E0032400F067FA204670BD70B4DFF8F9
:1041E000E033B3F93040002281B08C4202BF1E6937
:1041F0000096864203D193F833502C0660D4B3F96D
:10420000884001228C4202BF9E6E0096864203D1F6
:1042100093F88B502C0653D4B3F9E04002228C4221
:1042200002BFD3F8C0600096864203D193F8E350F2
:104230002C0645D4B3F9384103228C4202BFD3F88F
:1042400018610096864203D193F83B512C0637D46F
:10425000B3F9904104228C4202BFD3F870610096FA
:10426000864203D193F893512C0629D4B3F9E8413F
:1042700005228C4202BFD3F8C8610096864203D162
:1042800093F8EB512C061BD4B3F9404206228C4222
:1042900002BFD3F820620096864203D193F84352BE
:1042A0002C060DD4B3F9984207228C4202BFD3F8F2
:1042B0007812009181420BD193F89B02010607D539
:1042C000582010FB02F29818C06801B070BC70470B
:1042D00001B070BC002070472DE9F04B0E4682B053
:1042E00096F9048034688346174600F0B0F9334AE3
:1042F00092F8201300906FF001094FF0000C012399
:1043000003FA0CFE11EA0E0F50D04FF0FF35A8450E
:1043100018BFE0454AD15FFA8CF0032846DA02EB79
:10432000401505F53075A87A00283FD121EA0E0026
:1043300082F82003AB7285F809C00A2192F82203A3
:10434000401C82F82203C5F800B02B7200234348BA
:104350006860298295F90900401DA874B0686861F9
:104360007FB13B7878785B0143EA800395F90900D7
:10437000401D43EA00234FF6FC710B40DFF8480272
:104380000343AB6104B16C60D2F8980310B929689B
:10439000C2F89813FDF7B7FA95F90990009800F064
:1043A00082F9484602B0BDE8F08B00BF0CF1010C69
:1043B000BCF1030FA4D3F1E7CC210840681E002014
:1043C0000020094084BC0100110000E0FD2600002F
:1043D00043230000BD2200001B27000065250000CC
:1043E000B44F0050CF160000F0B581B006460F461E
:1043F000802400F02CF9FFB2032F054627DADFF8FE
:10440000C03103EB471101F53077B87AF8B139685C
:10441000B1421CD193F88403022812D197F90910F4
:10442000D3F89803491D0906090C41F08161002267
:1044300041F00101FFF748F904463846FDF7A5F8B9
:1044400005E03846FDF7A1F8FDF75DFA812428461E
:1044500000F029F9204601B0F0BD0000FB26000065
:104460002DE9F04107460D461646832400F0EFF88B
:10447000092D804600F27D80DFE805F005080E1169
:10448000141A4052686D3068386073E03869012151
:104490006030797538616DE03068F8826AE03168C3
:1044A000398567E03068DFF81811C1F8A40361E0CE
:1044B000306850B900F0CBF8DFF8041191F894237C
:1044C00042F0800281F8942315E0012851D100F0D8
:1044D000BEF806463A4890F8941301F07F0180F840
:1044E000941390F894130A0704D4082100F56B7014
:1044F00000F041FA304600F0D6F83BE0304991F840
:104500008403002804BFD1F85003002811D131687A
:10451000192000F0BEF831681A2000F0BAF829E03E
:10452000274F97F88403002804BFD7F850030028CA
:1045300001D000241EE0316807F56B7000F01FFA0F
:10454000316807F57F7000F01AFA13E030781C49E3
:1045500081F820030EE01D48436819000AD0007A54
:10456000810607D51648D0F898033246202198478F
:1045700000E00324404600F096F82046BDE8F081B4
:10458000AD250000043004408C01001030B5044615
:1045900083B0A0686A46FFF703FA8328054604D172
:1045A000002269462046FFF78FF8284603B030BD49
:1045B00000093D00FFEFFF9F78BD0100B32500001B
:1045C000681E0020010003040100040684BC0100F1
:1045D000DFF800F055EB0210DFF800F047EC0210B6
:1045E000DFF800F095EA0210DFF800F049EB021066
:1045F000DFF800F075E40210DFF800F01DD90210BA
:10460000DFF800F019E90210F0B51C008DB0054686
:104610000E46174604D1002301F0BCF80DB0F0BDE2
:104620000823302200216846FFF7DEFF206805904E
:104630006B46606808903A46207AADF8180031461B
:10464000284601F0A7F80DB0F0BDFFF7D1BFFFF786
:10465000BFBFFFF7D1BF00B581B0FFF7C1FF401E5C
:104660008041C00F01B000BD01F0B4B8F0B581B019
:1046700004460D461646FFF7ABFF0746324629466D
:10468000204681604260384601B0BDE8F040FFF747
:10469000A3BFFFF7B5BF002101604FF0FF32012338
:1046A000426003727047FFF797BF024602291078F5
:1046B00003D1517800EB01207047032906D15178CE
:1046C000927800EB012000EB02407047042908D1EA
:1046D0005178937800EB0120D17800EB034000EB98
:1046E00001607047DFF800F09DEB0210DFF800F08A
:1046F000C5E20210DFF800F0C3EC0210DFF800F0B2
:10470000E7E90210DFF800F049E60210DFF800F0F8
:104710008DDD0210DFF800F0FDE90210F0B51C009D
:1047200089B005460E46174605D10023FFF7EEFF78
:10473000284609B0F0BD0823242200216846FFF76F
:10474000D1FFA16806916B462278ADF810203A4659
:104750006068059031462846FFF7D8FF284609B023
:10476000F0BDFFF7CFBFFFF7D5BF0D48006870471A
:1047700001F03EB800B581B0FCF71FFE401E80413D
:10478000C043C00F01B000BD0021816001704160D5
:104790007047FFF7AFBFFFF7B1BFFFF7A7BF00003C
:1047A000BCBD010045490A681040C2430A60704719
:1047B000434A11680029FCD10023D3611060D069FD
:1047C0000028FCD0D161506870473E48016821F054
:1047D000020141F40871016003213B48016041F28C
:1047E0003002C260012343605021C16043604FF436
:1047F000CA61C16043604FF48651C1604360334970
:104800000B60704770B40446002000E0401C9842E2
:104810000BDA256815F1010F07D054F8046B164028
:104820008E42F3D170BCC0B2704770BCFF2070479D
:10483000000000001E281DD8DFE800F0101C131C2B
:104840001619161C1C1C191C161C1C191C1C1C1CC3
:104850001C1C1C1C1C1C1C1C1C1C190040F20252A1
:1048600009E04FF4817206E04FF2011203E041F2D9
:10487000011200E00022FF2909D14FF6FF3002406B
:1048800042F0C00240F2037040EA02407047080064
:1048900008BF42F0300205D0C8074CBF42F01002FA
:1048A00042F0200240F2037040EA0240704708499B
:1048B0000A681040C2430A607047000010100440AC
:1048C00000100440000004605460044000410440B3
:1048D00008100440DFF800F025EA0210DFF800F0CD
:1048E00061DB0210DFF800F0F1EB0210DFF800F0FE
:1048F000BDE80210002101604160C1604FF0FF314E
:104900008160704770B514008AB005460E4604D128
:10491000002200F08BFF0AB070BD1E49A0680A6833
:10492000904204D310F1010F18BF002012D10823C8
:10493000282200216846FFF7D5FF206804906A46C8
:10494000606805903146E0680790A06806902846A8
:1049500000F06CFF0AB070BDFFF7C8BFFFF7BABF29
:1049600000F070BF00B581B0FFF73AFE012818BF14
:10497000002001B000BD00F06FBFFFF7AFBF054AD8
:104980001368994202D311F1010F01D100F074BFF5
:104990007047000024120000DFF858098068704753
:1049A00002460020022904D1012A06D140F2EE205D
:1049B0007047012A08BF4FF47A707047DFF8341946
:1049C00091F8410120B1D1F86C01002818BF0047CF
:1049D00070472DE9F041DFF81C4994F842010028A6
:1049E00084B040F0AE800121DFF80C69DFF80C598B
:1049F00084F84211307B84F841017168C4F86C116D
:104A0000A868C0F38140B8B93069A8B12F68FFF732
:104A1000ACFEC7F30662642111FB02F2B2FBF0F2B6
:104A200000230FF6B90104F19400FFF777FEDFF8D9
:104A3000D0184FF00040086001A8FFF7A5FE002045
:104A400002908DF804000022039201AB0FF2D961AD
:104A5000DFF8B07804F10C00FFF760FE01A8FFF763
:104A600093FE002002908DF80400039001AB082211
:104A7000DFF8941804F15000FFF750FE00230FF206
:104A8000ED52322104F1D800FFF7BEFD002038605E
:104A90000023DFF878282C2104F1F400FFF7B4FD9F
:104AA000DFF86C080178A968707BC1F3815128B1E7
:104AB000032903D1012084F8390121E0032918BF1B
:104AC00002291DD001291AD1DFF84868DFF848789B
:104AD000032000901C23D6F800C0DCF804804FF0BF
:104AE000405200213846C0470120009038463668C1
:104AF000776809234FF400720021B84711E081B9AB
:104B0000386840F040003860FFF7A1FDA16841F02F
:104B10000401A16094F84511491C84F84511FFF780
:104B2000C2FD686840070CD4FFF791FDA16841F011
:104B30000101A16094F84311491C84F84311FFF767
:104B4000B2FD002004B0BDE8F08130B581B0002492
:104B500008B1150004D16FF00204204601B030BD49
:104B60008160C26003610146DFF8880700F01EFC27
:104B7000204601B030BD10B50446FFF768FDDFF8F0
:104B800074170A1992F843315B1E82F84331DBB285
:104B900033B98A68012303FA04F422EA04048C601E
:104BA000FFF781FD002010BDF0B581B00546FFF78D
:104BB0004EFD0446DFF83C17481990F84A21521E72
:104BC00080F84A21D2B232BBDFF8500700EB8502F1
:104BD00010F825505688280623D5DFF84477396821
:104BE0000A6A3046904739688A6A30469047396881
:104BF0000A6B30469047DFF82C1701200860DFF879
:104C0000280701688907FCD505F03F05152DBCBFB5
:104C10002846FFF7C9FF2046FFF745FD002001B0F9
:104C2000F0BD680606D501EB86010020D1F86021B1
:104C30009047E9E7DFF8E8160B689A693046904735
:104C4000304600F035FE0228FAD1DDE710B5044603
:104C5000FFF7FDFCDFF89C168A680123A3401A4386
:104C60008A60214491F84321521C81F84321FFF7C7
:104C70001AFD002010BD2DE9F0410646FFF7E7FCC4
:104C80000446DFF87056A81990F84A114A1C80F8BB
:104C90004A2139BBDFF8848618F8260000F03F006F
:104CA0001428D8BFFFF7E7FF08EB8600478818F8FD
:104CB000260001061CD5DFF868562A68D1693846F7
:104CC00088472A68516A384688472A68D16A384630
:104CD0008847DFF8502601201060DFF84C06016895
:104CE0008907FCD52046FFF7DEFC0020BDE8F081F7
:104CF000400606D505EB87010120D1F860219047D9
:104D0000F0E7DFF81C160B685A69384690473846BA
:104D100000F0EBFD0128FAD1E4E72DE9F04F002681
:104D20000025012881B0AA4618BF6FF0010840F0A5
:104D30002E81DFF8C075D7F83401012844D1022153
:104D4000C7F8341100F054FE012000F0F0F95FEADA
:104D500000083FD197F85B0108B14FF0010A97F8BE
:104D60005A0108B14AF0020A97F8590108B14AF00D
:104D7000040ADFF8AC45A16A0A68012090470128BF
:104D80001CBF97F8380101284ED100F0C9FBDFF8AD
:104D90006CB5DBF808000125C0F3814040BBDFF8AB
:104DA000580501690091080022D007F19400FFF72F
:104DB000F4FCDBF80000DFF87815C00F14BF4FF4E7
:104DC00041504FF482500EE06FF00408404601B0AD
:104DD000BDE8F08F0120C7F8340100F012FE404614
:104DE00001B0BDE8F08FC1F880000020009988472D
:104DF00097F83801C0B1DFF83C05C16E21F08001A1
:104E0000C16680224267FFF722FC97F84611491ECF
:104E100087F84611C9B219B9B96821F00801B9601B
:104E2000FFF741FC87F83861387AC10748BF01268F
:104E300008D4216ADFF800058A6890478146B9F1F5
:104E4000040FF6D04FF0FF320021304600F004FE90
:104E500076B9B9F1010F05D1226ADFF8DC04536895
:104E600001219847DFF8CC04016841F0030101609B
:104E7000504622685169884797F8550120B121684A
:104E8000CA6A4FF48060904797F8540120B12168B6
:104E9000CA6A4FF481609047DFF88814DFF89C34C9
:104EA0000120086000221A600320C7F83401504630
:104EB00000F01BFD0128FAD1DFF87094D9F800004A
:104EC000042000F034F90646DFF87414012008606D
:104ED000002DD9F800204CD0A16A0A68904701281B
:104EE00047D097F83801002843D1DFF81044A06874
:104EF000C0F38140C0B9DFF800040569A5B120689E
:104F0000DFF82C14C00F19BF4FF4405008604FF465
:104F100080520A60502000F059FE0120A84707F196
:104F20009400FFF738FC01E000F0C0FA012087F898
:104F30003801A068C0F3814018B9DFF8BC130869D4
:104F400050B9387A810607D4DFF8E8038022426737
:104F5000C16E41F08001C166FFF779FBB96841F08D
:104F60000801B96097F84611491C87F84611FFF708
:104F70009AFB00F027FE082000F0D9F80643012034
:104F8000C7F8340100F03DFD0EB14FF0FF38404648
:104F900001B0BDE8F08F30B581B00446FFF757FB94
:104FA00005462146DFF84C0300F02AFA284601B0F6
:104FB000BDE83040FFF777BB10B50024022802D0CF
:104FC000032805D008E000F005FE0446204610BD89
:104FD00000F08AFF204610BDFEE7F0B581B0FFF774
:104FE00036FBC449054691F83801012460B1DFF869
:104FF0002463DFF824033768D7F80CC000230122AC
:105000003C21E04700B900242846FFF74CFB20462E
:1050100001B0F0BD30B581B0FFF719FB044600F0D8
:1050200054FAB44D002085F83801FFF710FB95F8CD
:105030004611491E85F84611C9B219B9A96821F06F
:105040000801A960FFF72FFB2046FFF72CFBAA48B9
:1050500084680220A0470546102000F068F8012D62
:1050600004BF0320A04701B030BD00002DE9F0418E
:10507000A44C82B06568206820EA050105406A06F4
:10508000216049D5A34EF16B0A680420904702289D
:1050900018BF032819D001283ED1032000901C23FB
:1050A000D6F800C09C4FDCF804804FF0405200213D
:1050B0003846C04701200090384636687768092393
:1050C0004FF400720021B84726E0032000901C2313
:1050D000D6F800C0904FDCF804804FF04052002119
:1050E0003846C04701200090384636687768092363
:1050F0004FF400720021B847FFF7A9FA7D4991F8F3
:105100004521521E81F84521D2B21AB98A6822F08F
:1051100004028A60FFF7C7FA280648BF00F022F8A9
:10512000A56002B0BDE8F08170470020704730B53F
:1051300005467048046881B05CB1A068284205D07B
:105140002269E36800212846984728B92468002C82
:10515000F3D1002001B030BD4FF0FF3001B030BDC1
:105160000020704730B581B0FFF771FA4FEA0004B4
:1051700000F0ABF90028FBD0FFF769FA5D4D95F818
:105180004611491E85F84611C9B219B9A96821F01E
:105190000801A960FFF787FA002085F8380120464A
:1051A000FFF781FA544884680220A0470546102082
:1051B000FFF7BDFF012D04BF0320A04701B030BDA4
:1051C00070B501284CD15F490A68136898470128D7
:1051D00000F08180474D95F8380100287BD1474E7B
:1051E000B068C0F38140B0B9434804699CB13068ED
:1051F0004F49C00F19BF4FF4405008604FF4805220
:105200000A60502000F0E2FC0120A04705F1940064
:10521000FFF7C1FA01E000F049F9012085F83801F3
:10522000B068C0F3814010B93349086948B9287A99
:10523000810606D4334880228260016841F08001F3
:105240000160FFF704FAA96841F00801A96095F828
:105250004611491C85F84611FFF725FA002070BD5C
:10526000002838D100F05CF9244E224DB068C0F31C
:105270008140A0B9204804698CB105F19400FFF782
:105280008CFA30682A49C00F19BF4FF44150C1F859
:1052900080004FF48252C1F880200020A04795F88A
:1052A0003801C0B11748016821F0800101608021F8
:1052B0008160FFF7CCF995F84611491E85F8461133
:1052C000C9B219B9A96821F00801A960FFF7EBF983
:1052D000002085F83801002070BD000000B5144999
:1052E00081B04020086000F0E1F801B05DF804EB07
:1052F00038E70000601600206CBB0100AC4F005086
:1053000000A10C409022084055600000455C000060
:10531000EE320020A401001000A00C4030A60100D5
:10532000B801001028200860282008402C200940DF
:10533000A8A00C4024220840004003408001044300
:105340000C400940E001001010B50446FFF77FF95A
:10535000002161602160BDE81040FFF7A4B930B5BD
:1053600081B00546FFF773F92C683CB121682960CC
:10537000216800291ABF00224A606960FFF793F98B
:10538000204601B030BD70B504460D461646FFF705
:105390005EF92E60716869607168002914BF0D6044
:1053A00025607560BDE87040FFF77DB930B581B00C
:1053B00004460D46FFF74BF90021296062686A60D8
:1053C0006168002914BF0D602560656001B0BDE80B
:1053D0003040FFF768B930B581B004460D46FFF79D
:1053E00036F92168296000226A602168002914BF0B
:1053F0004D606560256001B0BDE83040FFF753B9EE
:1054000030B581B004460D46FFF721F929686A6876
:1054100000290CBF62604A6069682A6800290CBFD5
:1054200022600A6001B0BDE83040FFF73CB930B4FB
:10543000002513E050F8042BD30744BFA9F1010362
:105440009A18091F042942F8045BFAD213468C0704
:1054500044BF15809B1CC90748BF1D7050F8041B32
:105460000029E7D130BC704700B5044881B001681D
:105470000A68904700B201B000BD0000EC010010C6
:1054800038B5DFF80801DFF80851048814F001048A
:1054900003D14FF0012129600088DFF8F82011685E
:1054A000884714B14FF08070286031BD10B5DFF827
:1054B000F82013685C6801210120A047DFF8DC00B8
:1054C000DFF8DC100068886010BD38B5DFF8C84030
:1054D000E16B0A680120904701281FD02468DFF89B
:1054E000AC00E568002301223C21A847B8B1FFF7D2
:1054F000C7FFDFF8A800DFF8A83002689968DFF876
:10550000A4001C68DA60A4EB9404521A4243120C03
:105510001A6019688C4238BF0C461C60012032BDED
:1055200038B5DFF88440226853680021012098478D
:1055300021680A680120904708B1FFF7A1FFDFF852
:105540005C00DFF85C5000686860E06801688847CC
:10555000286131BD70B5154CA268E5681B3800FBA9
:1055600000F100FB01F681FB0223C6FB0523656801
:10557000C0FB05232068120942EA0372C117101804
:1055800041EB2311000C40EA014070BD00A00C402B
:1055900004A40C4080000010A40100103020094039
:1055A000C831002040420F00E0010010DC31002033
:1055B000DFF800F0E5EB0210DFF800F0C1DD0210CB
:1055C000DFF800F049DC0210DFF800F0DBEC02103D
:1055D000DFF800F0FDE60210DFF800F0B1BF0210C6
:1055E000DFF800F021CD021030B589B004460D4639
:1055F0000823242200216846FFF7DAFF01218DF8F5
:1056000018106A4629462046FFF7D6FF204609B003
:1056100030BD10B58AB00446082324220021684614
:10562000FFF7C6FF01218DF818102046034A69468E
:10563000FFF7C6FF0AB010BD0000000000140020F4
:1056400000B581B000906846FFF7BEFF01B000BD15
:10565000FFF7BEBF00B581B0FFF7BEFF00280CBF4B
:105660004FF0FF30002001B000BDFFF7B9BF70B5AB
:105670004A1ED2B2002305E0D51AC45C465DC6546A
:1056800044555B1CB3EB510FF6DB70BD344800682A
:10569000000C00F00700072828BF4FF0FF307047CC
:1056A00030490968C1F30F314BF641324FF0FF30FA
:1056B000914208BF0420704738B5FFF7F1FF284931
:1056C0000B68DD0D04284FF0FF34C3F34061C3F3D2
:1056D000006221D11B0B03F00F03082B1BD0092BF9
:1056E00014D00F2B18D1E80704D500290CBF0D24C6
:1056F0000E2411E0114218BF11240DD109B10F245D
:105700000AE0002A0CBF0B24102405E000290CBF7E
:1057100009240A2400E00C24204632BD00000000C9
:105720001048114970B505680E682D0F06F0FF0688
:10573000802E28BF0026FFF7B3FF04284FF0FF3468
:105740000CD1032D0AD8DFE805F0020204070A2471
:1057500004E006F10B0401E006F1150460B270BD2F
:105760009412005018130050A010005080B5FFF79D
:1057700097FF042804D1FFF7D3FF142800DB01BDF5
:10578000FEE70000002200F09DBC0000DFF800F002
:1057900021D40210F8B504460B480C4F0668F8698E
:1057A0000D4650F82510B1420AD10948009029460B
:1057B0002046FFF7EBFFF86950F82510B14201D100
:1057C0000020F2BD2046F2BD1C1200005011002046
:1057D00000140020102803D302491038C1F8000F2C
:1057E000704700BF00E000E0DFF800F011DC0210BD
:1057F00070B5044600F074FC0646A08A0025012816
:105800000AD1FFF7F1FF0546E068A168451BA942F0
:105810003EBF2069A8420025304600F062FC2846C1
:1058200070BD0603DFF800F019D7021010B504466A
:10583000034BFFF7F7FFA06800B90024204610BD16
:105840000014002001488068704700BFE410002069
:10585000DFF800F091D8021038B504460D4600F08C
:105860004DFC616A0D43656200F049FC2046BDE8CD
:105870003240FFF7EDBF060370B50D4615F1010F7D
:10588000044608BF052500F039FC06460120A84063
:10589000A06165612946054A506900F02DFCA062AF
:1058A0003046BDE8704000F02ABC00BFE410002084
:1058B00030B51C4B1A685B6D0021C50704D5D407B1
:1058C00001D45B0700D50121830703D5540804F0F8
:1058D00001042143400703D5920802F0010211435D
:1058E00009B1012030BD022030BD30B50D4B1A6822
:1058F0005B6D0121C50704D5D40702D45B0758BFEF
:105900000021830703D5540804F001042140400717
:1059100003D5920802F00102114009B1012030BD07
:10592000022030BD40210840DFF800F04DEA0210AF
:10593000DFF800F045DF021030BF704770B500F0AF
:105940003DF9354C206941688847FFF725F8054641
:1059500005F00C000C2804D1AFF30080FFF7ECFF3A
:1059600040E0680725D400F0F5FB06460121012040
:10597000FFF716F82949096801FB06F2904218D290
:10598000F020B0FBF1F0264C311A04F10C00FEF7C8
:10599000B1FE04F10C00FEF7B1FEAFF30080012070
:1059A000FFF7BBF9AFF3008004F10C00FEF79EFE99
:1059B0001AE0AFF30080280712D4216819488A68DA
:1059C00090470428F9D0E90600D408B9012000E086
:1059D000002000F02DF8144801210160006801E06A
:1059E000FFF7AAFFAFF30080BDE8704000F0EAB80F
:1059F00010B50E4CFFF798FF2060FEF76BFF60605C
:105A000010BD10B5094C6068FEF768FF2068BDE85E
:105A10001040FFF78DBF0000D8010010BCBD010091
:105A200060160020004003402C2009400031002077
:105A300010B55149514C08605148026842F00302C8
:105A40000260202021688A6990474E4801682268D8
:105A5000906BBDE8104000472DE9F84305468846A5
:105A60009146002000F059F84748464F434C474EB6
:105A70000021016027203A6821688A69904771698E
:105A80004348014071614FF48060F16D21F48071F1
:105A9000F16521680A6B904721680A6B4FF48160B9
:105AA000904721680A6B4FF4C06090473949324AE9
:105AB00001200860C2F8008001233748036037489E
:105AC00001688A0707D419F1010F06BF4FF0404162
:105AD000C160C0F80C90386830688007FCD507209A
:105AE000FFF7E6FE0228FAD195B9216A2C4D8A68A3
:105AF000284690470428F8D0012804D1226A536828
:105B00000321284698471E480168890889000160DA
:105B10002068816BBDE8F143084710B51F48016854
:105B20008A0702D51F49C16010BD1F480468A10241
:105B300020D41E4801680A6890472417C0F13E002F
:105B4000641CC0101A4909680728C8BF0720A04272
:105B5000B8BF2046C1F30321081A0F28C8BF0F2081
:105B600002DC0128B8BF0120124940F0F0000870A3
:105B70001148027810BD00008C210840B8010010C7
:105B8000242208402C2009400C40094028200840CD
:105B9000FFFFFEFE2820086080010443100009403A
:105BA00000400340FD000040B44F0050EC010010E5
:105BB0000C1300505A6208400D620840EFF3108049
:105BC00072B67047EFF3108062B670470138FDD1AE
:105BD0007047704730B5DFF8AC5495F839010024B0
:105BE00081B0002802BFDFF8A014887B00280CD009
:105BF000FEF72DFD95F83B11002906BF012285F81F
:105C00003B210124FEF74FFD14B1002001B030BD4F
:105C10000220FFF71BF80E20FFF72DF8DFF86C14B9
:105C2000086810B1012001B030BDDFF864044022E3
:105C3000026042600120C861002185F83A1100200D
:105C400001B030BD2DE9F041DFF8481482B00020EA
:105C50000860DFF8304494F83A01002800F04081F1
:105C600001283FD1DFF830140D68DFF830140A68DE
:105C70004BF2F52045432D0A02F44022B2F5802F65
:105C800013D1DFF81C0401688A030ED4DFF8146412
:105C9000B06C01688847FFF75DFCF16BCA689047FC
:105CA0002F09C010474305EBE73594F8400118B1C0
:105CB000002184F8401106E0DFF8EC03006820F0D2
:105CC0007F402D186D08DFF8E403DFF8BC23056082
:105CD00001212D0C45608160907B002800F0B88088
:105CE0000221FBE0022840F0B980DFF8AC03056830
:105CF000DFF8BC03C16AC1F30721C4F814110168BD
:105D0000C1F38441C4F81811B5F5C061C069C4F885
:105D10001011C0F38120C4F8280103D1002084F8B9
:105D2000300191E094F8300168B9D4F81801D4F842
:105D30001421C4F82001C4F81C21C4F82C11D4F893
:105D40002801C4F82401D4F82C0100284CBF6FF0BE
:105D50000101022100EB40000818D4F82011421084
:105D600000EB9270D4F81421C4F81C2101EBA001BF
:105D70000029C4F8201115DCD4F82401032805D12A
:105D80001531D8BF0121C4F8201124E00B31D8BF50
:105D90000121521E48BF0022C4F82011C4F81C2162
:105DA000032019E01E2919DDD4F8240138B915396A
:105DB0001E29C8BF1E21C4F8201103200CE00B3996
:105DC0001E29C8BF1E21521C3F2AC8BF3F22C4F84B
:105DD0002011C4F81C210020C4F824010823B14E6E
:105DE000D4F81C01B34F80B200904FF47F42D6F834
:105DF00000C0DCF8048030213846C0470120009004
:105E00001123D6F800C0DCF804804FF400320421DE
:105E10003846C047D4F8200180B200901223D6F84B
:105E200000C0DCF804804FF4F80204213846C04773
:105E3000D4F8240180B200903846366877680A2387
:105E40004FF440622021B847A5F2FF55032D03D23D
:105E50000620C4F83C0143E004213FE003283FD181
:105E60008D480068D4F81011A0F5C0600029C4F86E
:105E70002C0148BF4942002848BF40428142A8BF88
:105E8000002028DA874DD4F814018A4E80B20090A1
:105E900008232F68D7F804C04FF47F4230213046E2
:105EA000E047D4F8180180B2009012232F68D7F889
:105EB00004C04FF4F80204213046E047D4F828012A
:105EC00080B2009030462D686E680A234FF440621D
:105ED0002021B047012084F830010621C4F83C118C
:105EE00002B0BDE8F04100BF2DE9F04782B0724C2E
:105EF0006C4DDFF8C081714EDFF8889142F62A2799
:105F000009E000BFC9F83C01032121600020706056
:105F100070688107FCD4D9F83C01062800F299800A
:105F2000DFE800F0048A6F774C542F0001213160C4
:105F30000F22E2602761022000900723D5F800C0FD
:105F4000DCF804A04FF4C07200214046D047D5F8D9
:105F500000C0DCF80CA007234FF4C07200214046BB
:105F6000D0470120306031688807FCD50121E1610C
:105F700099F8390100281DBF002131630120032059
:105F8000C0E700213160716031688807FCD4716816
:105F90008807FCD400213F4A3C4B11600120186067
:105FA0000E20FEF701FE0220FEF7E5FD0020C9F8F5
:105FB0003C0189F83B0102B0BDE8F0870520C9F833
:105FC0003C010021716070688107FCD400210091C0
:105FD000032089F83A0104232C6867687022404640
:105FE000B8472C68E5687023702200214046A84716
:105FF0000120706002B009F15000BDE8F047FEF7E3
:10600000CABB0320C9F83C01002171607068810798
:10601000FCD400210091022089F83A0104232C6865
:10602000676870224046B8472C68E5687023702284
:1060300000214046A847DBE70120022189F83A0108
:10604000009104232C686568702200214046A8470F
:10605000CEE7FEE71A4801688A07FCD509491648C9
:10606000D1F83C21012A07BF2021816101228261F0
:1060700000210160082206490A604A60012101608E
:1060800070470000601600206CBB010004800C40CB
:1060900038500C403C500C4008400C40B44F00506D
:1060A0008C130050A4010010102009407C600C40AB
:1060B00004A00C4000A00C4000400C4054600C4078
:1060C00058600C404018491C1CBFB1F1010100F898
:1060D000012DF9D170470402DFF800F07DE80210CD
:1060E00000E006E0EFF31180202181F31188704772
:1060F000000080F311887047FFF7EEBFF2E7F8E782
:10610000F0E7F6E70000EDE7F3E70E49C20744BF0A
:1061100001230B60820744BF4FF480730B6040077C
:1061200044BF4FF480320A60704710B5064AC30777
:1061300048BF1160840748BF5160400748BF916065
:1061400010BD00000420094018200940DFF800F0CD
:10615000C5EA021070B5FFF7C3FF094E0446B068E8
:106160000021FFF7F3FF05467069B169451BA9429D
:1061700038BF00252046FFF7B4FF284670BD00BF9A
:1061800080100020DFF800F009EC0210DFF800F0CA
:10619000A5C00210DFF800F0D9D50210DFF800F03A
:1061A000295E0210DFF800F0C5210210DFF800F0D0
:1061B0006DB001103EB5DFF8045DA86AB0BB697927
:1061C000082926DA05F16C000068C04604002DD0CD
:1061D000A07CC1072AD4012240F6B8300092019079
:1061E00004F10803A27B1F4902F00102102002F013
:1061F00069FBC0B250B1214605F16C0002F0FEFB14
:10620000204603B0BDE8304002F021B9AC6203B0D3
:1062100030BDDFF8740D144B0178E86903B0BDE8B8
:106220003040C91C0022C9B202F02ABC03B030BD04
:1062300000B58FB008233C2200216846FFF7A2FF7B
:106240000A4800F150014FF480620123079108923F
:1062500006936A4600230FF21901FFF79BFF0FB068
:1062600000BD00003561021048B20100181A00207C
:106270002DE9F04F8FB002F015FCDFF8407C07F1FC
:106280002001381D01F0E2FF07F1340002F021FE89
:1062900078624FF6FF70DFF8F45CDFF8EC6C288072
:1062A0000021E96002462A820020E8611146298423
:1062B00005F15002E8622986E863A5F84010E86419
:1062C000D060A5F8501005F15000002201824FF671
:1062D000FF7005F15001CA6105F1500200211084E0
:1062E00005F15000C162DFF8A80C02F079FEDFF87A
:1062F000A40CDFF8A41C009015230022102002F04B
:10630000E1FA44F26820FB21019000914FF4A4735C
:106310001B22DFF8881C102002F0D4FADFF8801C62
:10632000102002F0CFFA3979502002F0B1FA02467B
:10633000DFF8701C102002F0C5FA4FF0FF32DFF8D2
:10634000681C102002F0BEFA4FF0FF32DFF85C1C30
:10635000102002F0B7FA3979502002F099FA02467B
:10636000DFF84C1C102002F0ADFA02F099FE07F1A4
:106370007402DFF8481D102002F0A4FA0023002266
:10638000DFF83C1D102002F09DFA3979502002F010
:106390007FFA0246DFF82C1D102002F093FA3979BB
:1063A000502002F075FA0346DFF81C0D019002211F
:1063B00000910822DFF8141D102002F083FA00215A
:1063C0004FF0FF3002F028FBF8614FF0FF32002160
:1063D000DFF8FC0C02F013FFF869DFF8F83CDFF897
:1063E000F01C052202F0B6FE3178F869DFF8E83CCF
:1063F000002202F045FBDFF8E40C0790386A4FF00A
:10640000FF334FF040420021FFF7C0FE5FEA000873
:10641000F4D00020039003AA02A90DF10A0001F0B4
:1064200060FF002840F03E84BDF80A00102802BF3B
:106430009DF808003979884240F03084039801883B
:106440004FF6FF72914200F029840446207891288B
:1064500006D0B0287CD0D02800F07B8100F01EBC94
:1064600061780E2958D00F292AD010294FD03E2903
:1064700004BFA0780C2840F01184E07830B1A088E7
:1064800000F032FF0090DFF8283D59E0E079012864
:1064900008BFDFF8209D0AD0022808BFDFF8189D4A
:1064A00005D003280CBFDFF8149DDFF8149DA088E9
:1064B00000F01AFFCDF804900090DFF8083D3FE0AF
:1064C000A08840F20642904200F0E88342F2320295
:1064D000904213D1A0781A2809D13178F869DFF8F1
:1064E000E83C491C0022C9B202F0CAFAD6E3009087
:1064F00000223178DFF8D43C491C24E0A178DFF891
:10650000D03C0191009000223178C91C1BE0002191
:10651000082002F067FFC1E3A08841F205418842EC
:1065200040F0BC83A06890F903404178807801EB8B
:10653000002290B200F0D8FE01940090DFF8943C65
:1065400031780022891CF869C9B202F099FAA5E3F2
:106550006288DFF8841C0123102002F0B3F90028C0
:1065600000F0F1806178162904D12079DFF86C3CC5
:106570000090E1E022790B2A00F0D980012A04BFC3
:10658000207A0A2800F0CE80132A00F0BB80012A6E
:1065900004BF207A122800F0B0807E2A04D1207A2D
:1065A000DFF8E83C0090C7E07F2A04D12089DFF8BB
:1065B000E03C0090C0E0B879002800F0C4800128D9
:1065C00015D1032A40F0BF80DFF8C80C0088ADF871
:1065D00010000221B9715020397902F059F9019067
:1065E00004AB022000906288DFF8F81C34E0022837
:1065F00036D1072A0DD1208958B1E068037890F888
:10660000019003EB0923FB828378C07803EB002021
:106610003883072A0CBF1A29012A40F09480F88A8F
:10662000002800F090800321B9710222398BADF867
:1066300022108DF82420F1218DF82510ADF82000CE
:10664000FF228DF826205020397902F021F90090A0
:1066500008AB6288DFF8F01C102002F033F972E01A
:10666000032870D1092A45D12089002842D0B98A4F
:106670002A8800208A421EBF01202A8A8A421AD014
:106680002A8C02208A421EBF03202A8E8A4212D000
